{
  "abi": [
    {
      "inputs": [
        {
          "internalType": "uint256[2]",
          "name": "_pA",
          "type": "uint256[2]"
        },
        {
          "internalType": "uint256[2][2]",
          "name": "_pB",
          "type": "uint256[2][2]"
        },
        {
          "internalType": "uint256[2]",
          "name": "_pC",
          "type": "uint256[2]"
        },
        {
          "internalType": "uint256[102]",
          "name": "_pubSignals",
          "type": "uint256[102]"
        }
      ],
      "name": "verifyProof",
      "outputs": [
        {
          "internalType": "bool",
          "name": "",
          "type": "bool"
        }
      ],
      "stateMutability": "view",
      "type": "function"
    }
  ],
  "bytecode": {
    "object": "0x608060405234801561001057600080fd5b50612ad6806100206000396000f3fe608060405234801561001057600080fd5b506004361061002b5760003560e01c8063274182f814610030575b600080fd5b61004361003e366004612a3a565b610057565b604051901515815260200160405180910390f35b6000612465565b7f30644e72e131a029b85045b68181585d97816a916871ca8d3c208c16d87cfd47811061008f576000805260206000f35b50565b600060405183815284602082015285604082015260408160608360076107d05a03fa9150816100c5576000805260206000f35b825160408201526020830151606082015260408360808360066107d05a03fa915050806100f6576000805260206000f35b5050505050565b7f1504967d3461e7e2d933bc0d60fe5e04d75c1f4fa2a074d97852760e61a069eb85527f24c2246eaddc02cbb5a998474a5cad0a98d2dad9207337e74ddf6dbe28686a3560208601526000608086018661019a87357f2e9be89bf37f1a5296ab1645e32693e8b383cdf90a977f5f5882efade0ba10df7f0b601a57760e178e87aaa65a0cec339955cb191a6345210eb18f8f4e4eae96d084610092565b6101ea60208801357f1cf1709ead26cce292297e88a8f8deb4557e3a98108f67f1889e1cb19a386c497f106b36be3efd8a619e140838ffa97878cd569ae0512cfe393313cce0bb992e5484610092565b61023a60408801357f09879a99cb3072cf86d47c813c0357ea91b225cb79799b7b7a9adfcf3febbdca7f22d06bb332e806f60134ea17475c23b78fc3366e4c4dcdfb777e39a7dd60918e84610092565b61028a60608801357f2375c9d209050e9184c93974e2bec1b5883a3edcfa059d910e5ecf569e0a5ece7f2cbff6074c3f1d008dbdea55fff9d8ae8872a1efae201e459b057313f8d2a3de84610092565b6102da60808801357f16126f9d66bc5a39c8dd169fdc0df404229c68bb11c0de177828eca7733157ac7f0ee0a1c4ea87e54977efa6049cb299b9026a84a0d3d5ddedfc55bfb4062afc0684610092565b61032a60a08801357f168e2353187f50ee94dc6da353e721cc12d147bb3b8af87b33766c056d29d44a7f047ca440c2c3da196459ae415a22afc38eebddfcd95221b89ec722a683a409af84610092565b61037a60c08801357f21e3d0d10063209943341526f77e301a90b6916fe7451b1c731f7d58d784c5467f23952496936c4c611193323e197efa7ee00732802f495172a2d44c32f9b27ab284610092565b6103ca60e08801357f1e4ba991537aae3105fc30314a691eb77fd83b53f289c3f42304570991e1ed9e7f173f06d721c2aa65f9e96a5a51307ec67eafc3a61ce94ed55300b34df5a585dd84610092565b61041b6101008801357f087aa94374f022834b36ffcff2ed2cb4ef18dadde2835ca06b2eaa4c1ad6f5127f207b07699721994f7f7376b37c4b4e42c05f49a59d9fd0890f4230cb8af932f284610092565b61046c6101208801357f2d417883cd9ad060b44ddb570103e0aaea37d24583e13fd838003e715a197b9f7f0223bbf42457d10158794a862979c06f941f34fbd1efca3342b4adbb6fea354084610092565b6104bd6101408801357f2d6eea18ebc8723bd87d0e4c0b033d1810b6aa8fc3484e242dcf75c8dba277fb7f23ebf616ff9377e2de5e9295b9829f95d34d92ef8b9af3f392257a2775c7756884610092565b61050e6101608801357f01a245af564a7549ca45121edfde51019af705c2a827bc9460f8eed856628a747f0d5b652dab5666dedc347199597664a74ae323e0e65472daa7bab9492244440d84610092565b61055f6101808801357f2de1a12d38e84f8922429263ba8896720aeab39968cb5e97d59f4fa005fe28727f032b418d74e489118072d65ffab8434233dff5b5b2fd8fde8c9f7e25626284f884610092565b6105b06101a08801357f0972619f71a9f4b33308f48193d03de5906ad52124398841f3816a63bc0d8f5b7f2a93bf999a3e9cacd6463b2da5350d98a4fa20c408be7598fe53a35621bf8d6184610092565b6106016101c08801357f230cf1bc76cebdd1c1355d3385b86d3a053c0303a6f5b79286a158e1278ac9737f1335ab78c1146c4dbfa028a08bd9491dc88ff17f7bc21313eb7b5ed828313d0a84610092565b6106526101e08801357f0c2510d98e25612338bf62a36ef7398e6a05a2a0663a482d8c1895e2f6783f977f0ed164d702b22a368ca36e23703a130bffa7356a401391a6f5f16d7f533c05bf84610092565b6106a36102008801357f225f1ce5f95e64ac9be88eeb468248a538d42f95f12e730b04aaf4cb8287f5657f2f80cbaa23f59490490424285b3d816ba4859b94fea0f425a27a856f735d1b5d84610092565b6106f46102208801357f0b36ef717680e6380c116ecc740020a2e6819cf6493ca77b55d3798dd594392d7f26f389b6a1410a972ac483bf3e1ca08d11bb0af9c8b00b0c0a25d5311929e3f184610092565b6107456102408801357f067687efc6bfac78e5bb6c321ab67f180e3101c04b97ebe1d0ae4493ae72bb7c7f09b86549bd3387ed3abee9452d6423fb97c536dd8b381ff941409075c0a47e5a84610092565b6107966102608801357f1aa5ccb3f7201116bfd9329dea27a0987ea4c0944633ef4b40b5d07e93045b2b7f245451641b48a11647ef273fd5f72a5313203e38c65c3b8795bac1573196218084610092565b6107e76102808801357f0b1a089c81f0e8529f62e51e598606fb247f82a747323d612356343871a1b5bf7f113b677edd34aec6e135ba7440b6ff0a585a5680e9c5381658909d2b7b1a86ed84610092565b6108386102a08801357f0eb78a42acbbb31f1b177ffd07b7c7fda56f66281c2d011f6fa52fbe768df6547f082f2943cb674eb472e8d5d55fa3e239fe78e4430b61d3de9c6a8dffb4f08e5384610092565b6108896102c08801357f14457abb61bd614cd4a6f4fc13a3fc2efdc798dfb781586b070d5cbd81af1dcc7f27d4331228b4472c0276c86773bf8b23fcce6e31ec186d5707b6769a148ab54384610092565b6108da6102e08801357f059803fc85ac93744b95d53509eed5372b91d98f0981a6d71a8ff384c7b62dbf7f235fde9eb299c2caf557f7177a99c13c56042ea81c7c521003331b4faec0859784610092565b61092b6103008801357f24879da981b509ab12e210a59a644890e00fa373e95e5a2aaec36704f3b1d6b87f036d0c93e7e94bdc5518f6fd399a69175b71b99ce6b96e528a8e7a4eeee801d384610092565b61097c6103208801357f286ff99e308408ab9b9525a3edd4dec3c04414d139e5578a53109330e051e0fa7f30602568b5c23b2c9c169574fec0adffeec6bd36d268c83a9b6f7f6a2835975384610092565b6109cd6103408801357f29a79bdb3b010a97a05fa1e9cc516635f91bbf99bfa850f891eca7532f9c66de7f0afcd215fd8c3a9a3bc7d636bedef73c24f1bba832a6d5522d31a3f14e8f69d284610092565b610a1e6103608801357f25a459090c8df11feb9e603b1eb337dfe35086f978ba43ef2c2973b9afb147437f0928988242076e748a5c690988aee5a53d59653a4d2d41553d8a9ae258777a3c84610092565b610a6f6103808801357f11cdf119fed966d2fced0c33faf8b8cc6505c36b33ae1291eee3cb5e3aa7b0067f2850b78233bef958076e6eee708fe8d61d5957e9556aea9337afc8c86d1ea66784610092565b610ac06103a08801357f15825acaede772ffc60f67917a483d0ac0a86693a4d648cab65f70acf386e9f57f1b8bccf829975d51e6a9778d870dc000a96b33da8730b83d95653f26256f45dd84610092565b610b116103c08801357f0cf73eaa9c55e6fe2fcdce86e49e47fba95933cd88ca82a66ffb773e195a7a8f7f0171ad7ad2c908ed6a1b47e9d7f65871633c351d9b42a44b2a3b3916bfe1cec484610092565b610b626103e08801357f031a979f1a4af0b8cd991414bf527bb1aeeb0737ecb8f03e2535ac3e4c81e8107f1655e4e8425aed773c8bbf98bbf04a75a9348f0465fc701c7f04d4c5f352ede384610092565b610bb36104008801357f03029f97eb72de5810cb8863de3b1d6c28ed4fc19108bee06158513bb2c12dcf7f23d71b04b5ca5469f3916ec14832223228e100c27efdac22f8c99543725624db84610092565b610c046104208801357f2960d9f65c53fae810b281a0490d0bb4a80f4baa848a84b7c351f06215dabd267f1a06043af32a8f89d2dc80f8fb7b0d93e047e8e2a48c92812dd31d238ef36a0f84610092565b610c556104408801357f153967b6e1d7d1123b043c3f7a00287b55cec1a821fea9ae2a1fe0a5fd10e6837f17fe3cd3447d06f46b72f09b8aa56f08249fe9de0537070410d75deb5fbf154a84610092565b610ca56104608801357f20197bf3ed533044f7ef1511502678bbbd534b62579c1aa3be363a4de6ae56ea7e48784cd1f13d68a37051b2531bfdb0672084c048e8cbf83a552cb9253bb6ce84610092565b610cf66104808801357f22d4da1b7d8d0c9f39cccd380547e9f0fb4d0d5a68a01ae63d5804c57a61d8507f14ad10536a01bedc650b1946cdf5a80a516cddb50f41d5974f7b0bd31d15f55a84610092565b610d466104a08801357e4cea8befdc04cdebb55e8d3a07e93fae16cbfd2ef2a5b7a91ce69a0d5a42797f283536b8f00e3b1fded2ee31462df72535491120b14af073e3aeacf7741a581584610092565b610d976104c08801357f1e9ff194bcd07ca1cf1abb1457134c298b703679cdb6737c1478973605ff864b7f154ab44894763545c017a0cf767f3924335c2e224761fdf6097da5b569b7916584610092565b610de86104e08801357f143ebbbe647fe4e4ac3a8cf38f256384d8757a493f2bce86382956563f3f02f97f282314bee9c89f35528d26d3dfc87a9bd03906a19f1d48a9e87d491b99e5317684610092565b610e396105008801357f06c9f148f9a04b17af973a14229066b8afae5523dce269d915409b0dc56f90b67f1d1fd27c63b260ad69e7ccbe90150e6d5c48b1610f435eec4848c8c93c9e442084610092565b610e8a6105208801357f1dc27275be666bbeba72c4d382f18adac512cc0a042c661d2ced15581c955f797f095e6f391e421dd9450289a787d40f3e7ccdfeb7c3c49702e037f49f4b71d70f84610092565b610edb6105408801357f19f6eeba5616d85f97cdadd115dce81f6bf6544f1e3286b7896a27209701bda87f1e08363f85e3bd41c7d3e10676e63f6127e0d0faae68305f729fce7ec4b5944884610092565b610f2c6105608801357f2614fdc219596de44c331731617da8282271d284ee93c747037faeab66ea4e7d7f0241a9ab4bdcf0ec275cfddd707c67a069137a83a5810fdecfde8ec047f6801884610092565b610f7d6105808801357f0b528c5893eda856f3d14985b5e04b878766ce31a2ede1a5814ded23053378057f3008be262d16f939d9b863ca238dc229856a26fec91fce195f23d5fb9562f9b184610092565b610fce6105a08801357f0fa566f127074ff91eaad1a94cfc9c356e5f17e31dcf325f569fb09838f4d47c7f1c45155f27ac9abe71456ea0ae76ba6956ef51dbda5e8bfe1abd2a7e10008dd584610092565b61101f6105c08801357f19102f520a9291b85700666c0992d120822ff5cee26a0463cc811eda01bd02647f2419cbdabdeb34bdff10ca80143161860c67fa40b770f22862958c972e0688e084610092565b6110706105e08801357f2eb3b32242459ac5c8b7e4ba45ed819ef26ecdcdb1a083d879a4af2c82938cd47f0d0f29f56ae260414f7e28e8b1dc40303eb1c6a1ee23dcbeb6d0b8735180be4684610092565b6110c16106008801357f1376e415bed6612adf5ff00f4928a840a76f23ed3d96a69368adf8c87f1712b07f1c033fad9145084fd646d468d10e460ac0158a045cc3947fefaebab38f4ba57c84610092565b6111126106208801357f0dd08ec716bbc6549d78c6b65c36b49702ccf2a61ceea96737c69b5b0fecedad7f21725d637d878d77d9f85d5003574605483509956dba4a471a64009456f812cd84610092565b6111636106408801357f19ea7c4de91c4e88c4a5c947f1bb1ba91b52c8627cf37429de4ddeb3a2d19e3f7f05e4782dae1194ef9f2b830e93ef51c74e998f7920475740190e810d38efdcd084610092565b6111b46106608801357f228c9a8008200f8d6d0dd778d903779426f0beaed8e603266aa2166361b0c6177f0a7d81f5142f13ac5626f4bd3bacd9d8477f6d85c47d3c4f09031d89ab7d25c684610092565b6112056106808801357f15f35ed214c9de540f8a3ab8f6419cbb032ba404894daa19ce5a7ebd7d6887447f180b98e718b94bd6d9b17ca3450417bf148b01fa615f18386079eb624a60da1f84610092565b6112556106a08801357ebb751df263ecfd630df30b3d78de26c50db414f98cce7ca5b5a45d1641dea67f162bc374c9cb6be949bdf5f06394ba9fd9efad299425dbada01415595db1748284610092565b6112a66106c08801357f04d80df8b5f3d5aff2a08828781e6624c213d32f1915498cd25bf4332bc3bff47f0946d93032853d43347feff960c4a6247cf9a15e13ccf32b76e89f9cdd61afbe84610092565b6112f76106e08801357f125b9bfc4a7be1e645fdb45b57a2c531c6d60fe3b5b62890c336c296106ed2af7f0ae4f61346f67a82303c26fb4690892ad9ba1fd418e7f232eaf587316215c93584610092565b6113486107008801357f2fcce6eadce7bf78fd0d48baf1451ed82a75f0f1e7a40b7da10d79afe98c96927f25ba358976dd1be59d48482d4b13bd42d29c521320bca0b6c196107dd7e1df7384610092565b6113996107208801357f2490e755b5e6922e59f5c3960cc59a11c98410377884610c75a6ba7c18a1b6e77f2960b75b8b9e7ae4c19be3917639a0ceda5d641730771a4087eabf15d1992f4884610092565b6113ea6107408801357f296931f52027eda3523b7cb586ae139b328b332c9a4cc63214b2e5e5a1294eb77f0e84b1fab2d047806cad4a7b1dff1195805a2fdcb0088889feeafd9b8bed925c84610092565b61143b6107608801357f22ce0b457ecaa0dd7809d9f04019331ee27ffdebaceb4fddc1f9fa4bb52182d47f125f2b355c411ceb407b9730e3dabe6a2db8bdff7fc200fac0bef8b4f691b6fe84610092565b61148c6107808801357f2078256fed2dbc17238ede11b58bd13859d31335386221e4d659c046fafe4f907f0ae8db768b0c124a0e0423ad961eb3ad0214d0e2569bacb52728b00b88600a3584610092565b6114dd6107a08801357f169b71a96bb73604a2eb5bd7b9c007e1e3a875461a3b2877e98fecf68ac6de497f27dea312e2f5fae2067b4885075fb44b85ba468850e21ee6ccad1dcbd1653c1e84610092565b61152e6107c08801357f06b648b1193eebeb95cb880279e8fad401c2b8dfea02f03d8aa1e73216e7c5297f1671fd22f1f1b1c678776e5c0934b5ce93228891f64a746a2d34676d829e608e84610092565b61157f6107e08801357f218daeeeb1d0675c974ff30505ddc009073df5fc7e32151e5e38b5e8974dcd417f15a9154e722a9a625a50ec9c5ab1dcefa4765b29ac1860c58b010c01891febae84610092565b6115d06108008801357f14350862a61b40ee5b823665569d4986f9450e7c48bf92b74eaa8e4a80cd9d407f0fdaddbbdade6c88bb9b8dccda6de3f8bd35c108538b439722523366616f454d84610092565b6116216108208801357f2ec09f052c7f3e8ab96a9fac131b917312aad845a198cc57eb955c9b2a92ab167f1b9bae9ba6deeab625579420ef445fc97111f96ae6f97f2560c3b90e04cf2b3184610092565b6116726108408801357f0a5d756346a139072231cfb30e76cf4f5414ca6ca128d2b8a475d26d673f36427f107867b2f2636c88045e4a762a8f628d4529063e44b21e7c565cf7c98ae2810384610092565b6116c36108608801357f2f2716d6406cd9b0e85caa8da8a5a2b53d02109d9fe68bee2528804cc73392a07f0916be77ec65fedded778934b814930094fcf1cb0b031509bbea56c3023b204f84610092565b6117146108808801357f22f1a9ca2d2c5c7aaa8919e5b0832a2e76d528ff574d93458da08f657a24fca27f0550d5e4caa91bf0771d85a9e0380837aa0bcc209b59b95708f5999c900de4f684610092565b6117656108a08801357f247c8e32262123aed9f7784f35ac05ec2d96f3bee69f368596fad89f351eadb17f265f6f7c26b4298fe2e3e0ceb253de09bc012785272c886fe151c79a55d7811984610092565b6117b66108c08801357f081daff4e7fb97216b62ada3a185da39df1e683529d58cda5f0ce4f1a6345f257f21d56e22768bd1f0586384d739d1d6eec97b5f9390de3ebe63d8af5d090b195384610092565b6118076108e08801357f0f8ae462bd69078d1b6714a1a2939235e1ef6cb78ae6ab557f44133f57322ce87f20700cd46f9c02765003a15fcc49ba131649361f7a236344320427a42fce97dc84610092565b6118586109008801357f092a047d742fe4ae5f1d9c8847cd4ff1c039110b05fc6f35e98c865fe14d631a7f22db457a895dae691f78e5864065fdab0d65b4d2a09460707f2996c0a1bfb46084610092565b6118a96109208801357f087adc79d6d5aa02bcd6c7c6588da3668ea062a0ee936b6d22249fce460b1ec17f05fe1d774a1f15e63654c3a9c71faad541975a19ce61ccb10b404e4fc3daa54584610092565b6118fa6109408801357f04f0d1fe83fa07d943a6ddacb59b688b066195ca18e7df0a25e8deb1532571e07f10c1c9f3c23ffafe0f694f124ca01a6c40807f5f88f4904e7ce7fedae79a5fdd84610092565b61194b6109608801357f2f1071274c05571182dedde30f8a5a25834b0967b47000e87536c94b4dda5c4e7f19d61c6ddf86c90d5aca4d8b33de8441a1e9b70b2d26a533972abefcfe6f695184610092565b61199c6109808801357f25364b2fc409f34b3f017d6b693eb1c0520a02ce3a91f18f079faa1aaf35880a7f0d2a09691b7979ae31dcd282749e8caf8de3a5761005a19b5859df972d85bab684610092565b6119ed6109a08801357f094953a59b4ed9b146a6b15289dcd359f1c193748a4ac22aa15d2cddd919d0357f2a59efa2fac819e2c64f3f3502563b4f7bec8c1426d8ba65e98f21a7ae6b620384610092565b611a3e6109c08801357f037651587ea7e45c585aaa1c5823041e5eac69404baf8395f4f958fab3b02e2f7f28373702636fe5ca123dc8293b02369d7b685cfb82c1cd0d105a3c203e11cbf484610092565b611a8f6109e08801357f14211a1a828fb982d81a34ead7bbda628461ad9f7811898952879d1df0987a1a7f2b83cfa968cb4cbb195f9c9714ed8a4355bd57235833e6f682d2b36dc6bbacc084610092565b611ae0610a008801357f1788b3887cd177cafea6f78322ef001482041ebced8088dfb2bf8ca6d940d1ca7f1c564e7274c66a3ff7614ef306c9e33f30f2ce4c1db3c0f1c0877f60d19ff3ae84610092565b611b31610a208801357f0b7637380845489d7c4ae264e90dd50d205c13524ef2fda1513c7d907c3d16987f275fe64513f2ca58cabd7c421155d60647de9a4d29cd85db046f966c5368b7dd84610092565b611b82610a408801357f16ec59deccd9e47d5dafb83d68a6910adae194312c80e928581ee1a7aa74db887f0e01bed3bcc38b1450a096dfbaec7f966fc6c652e93510ce433f7f75613e5d4484610092565b611bd3610a608801357f22b10d2e3515a26fd15fdbd9bb3a4998ebe8391ddbc201ec76eab25e5c129dfa7f1dc783f638dbd49ee62f07e19f12536a71dd5d6450833e2f9ce24f2d573ce7c484610092565b611c24610a808801357f26f7fa0381183ce65e718281b788ebb69d29fd6578a235d741a3ae0bcacd19c07f20a23900acc9e2dffd7618c981cb1b43fbd024d53a28574f930290ade081f89a84610092565b611c75610aa08801357f2f7a19f4bc30eaf5f85ccf990d5e32c8955293eb377c896ec2dee4f9f55d218b7f1bdbb7e3350dca179dc6fe545678b25587eb3c81e3bba7a96f3c12957746f87384610092565b611cc6610ac08801357f095d155d5747d00f8c06e56defc970416a49fe9adcb05ab9c8afbf25b007ee007f1b3f7ecc64f20e3dceae1086dc44c7bda6ac93bf9d4251d6194dca6dbe26e68784610092565b611d17610ae08801357f1a2153f68a5373ba4044ffee8da805ff74d21cf7128c37fbeb48e76b161cfa1b7f245904681575c5ebd980b3ec29b7125bcdea383baacc49a87784d52f07d4c98184610092565b611d68610b008801357f07dca4c5418924422e79e055d84c9d721d3201be960f5a9180c280425b840a917f24dc625d826d9a2e2ffaccc91dbb816cc69b1df050726e8296561b5c15fd3d1284610092565b611db9610b208801357f05397b009ff117cbf409ed060bc4ed599731bcc4e651a41e4fea0f6fadd7d2de7f2690088cc485f544c10bad37540b11c7928f5478240ca9b647193ce573ead92284610092565b611e0a610b408801357f0f51bd64edde257b2b91a321493309d7f53f2a5c246ccbbe47ba6ba941a067257f1f00b297c24f31a75cce5109571cdffc7434c57373bb7c50c7385a425ca6983384610092565b611e5b610b608801357f12a698b3f2c155a2c86730d6cc32393e825e7cfd13daf45928f797b4d290206e7f2abd038842ed41fe68c2c8d2bf6de3717f77886167cb27875ad3753cd61ba87c84610092565b611eac610b808801357f28ef2fa0a128a79f65857ac5cf5fb62bfe5843a049f6716a7a77b73c8ac8a63c7f255c837157f8a21475fdc227d382681a30c4d4158a06c44107f9f506c74eb16284610092565b611efd610ba08801357f2bec3e161cd509c81e86664f7057d142bc359a4e412f5cec2a7dc2b9c3bf10047f06473839523a239918f193db5f6b7b44125e63b136d27b4976bff96920fc5f4984610092565b611f4e610bc08801357f1cbb4550b7f2dd1dc8253af4de0a490843fbadda9edfb7a52b11c58accf2f1c17f184de8bc9ad760aadf66b7783fcfbf2fcdfd53e60782c328f416b8badace9e8a84610092565b611f9f610be08801357f0c1b6cdc04e2f4289f8f6417325e951e93eaaba39a86d7738cc380a33f4dcb6c7f2c82df10e25bb3fe6b673b06ad5ed38ce67cdd61a9acfd0375c8bec181298d2f84610092565b611ff0610c008801357f21338d5e9fbd7137fb69d6384d71a0fb33f8977e5283506beeed203e19454d0a7f1df91f5ad78ad20b40f31c98b6ff9c112310ddcbff4d7d4bce813feb6a7cbd4184610092565b612041610c208801357f0ce52a12042096a5c9a6e1818bfd63adb5f43b331ca688d72d53b9d6fc481d627f0a740b03c5fe2d897472bb7dd5a01edf6948a7bd6501ad0835dcced93dbd403d84610092565b612092610c408801357f0138bfcd243c6280bd863b5a6de1ff58ec22c148d3843573973a66094a6744027f1cb64a833cfee63065f6d8115971c3226c462a6f2250a28b1f1b13077fff116084610092565b6120e3610c608801357f1ae35527f4f3e835ceedb677c5b302985bfd542783ad6a7c39f7f874c43d141d7f212acac6455b8a18701828f7db5f893f2b791226b28cd53286c6f9634d2e3bb584610092565b612134610c808801357f052f71a9dc4051e395cde81dcafe326b220ca17bc4a3ad304e9b71c268415d507f0f232fa3cab7734b6ec749dab479ff684d7bfa88dcca6dd45f20b229114d131984610092565b612185610ca08801357f18a730dbe62b66fd93322a82aa55793d45f7464c3e53636659883d6d9c099eb97f29da7c0f071d252a5e9c9a3332b3aa0d32a6f161c69df7657d7babe2ac4e268784610092565b50823581527f30644e72e131a029b85045b68181585d97816a916871ca8d3c208c16d87cfd4760208401357f30644e72e131a029b85045b68181585d97816a916871ca8d3c208c16d87cfd4703066020820152833560408201526020840135606082015260408401356080820152606084013560a08201527f2d4d9aa7e302d9df41749d5507949d05dbea33fbb16c643b22f599a2be6df2e260c08201527f14bedd503c37ceb061d8ec60209fe345ce89830a19230301f076caff004d192660e08201527f0967032fcbf776d1afc985f88877f182d38480a653f2decaa9794cbc3bf3060c6101008201527f0e187847ad4c798374d0d6732bf501847dd68bc0e071241e0213bc7fc13db7ab6101208201527f304cfbd1e08a704a99f5e847d93f8c3caafddec46b7a0d379da69a4d112346a76101408201527f1739c1b1a457a8c7313123d24d2f9192f896b7c63eea05a9d57f06547ad0cec8610160820152600087015161018082015260206000018701516101a08201527f198e9393920d483a7260bfb731fb5d25f1aa493335a9e71297e485b7aef312c26101c08201527f1800deef121f1e76426a00665e5c4479674322d4f75edadd46debd5cd992f6ed6101e08201527f090689d0585ff075ec9e99ad690c3395bc4b313370b38ef355acdadcd122975b6102008201527f12c85ea5db8c6deb4aab71808dcb408fe3d1e7690c43d37b4ce6cc0166fa7daa610220820152843561024082015260208501356102608201527f295fda58ac523e7a5e038c6d854b004e6d572d4b45e3892d988d0009d8888af96102808201527f2496d6d62d7603ab0b26104d2d37e87f166810763717a0a815e2ee327da79e6b6102a08201527f2ded3b23af9a20050b117d5bf18e12d5c9dec813f1afd05b03c0ff199d33c70f6102c08201527f2fb6314e588f576de5d0765d586fe52d9a32918b2d01cc1ca02293c2a897709a6102e08201526020816103008360086107d05a03fa9051169695505050505050565b604051610380810160405261247d600084013561005e565b61248a602084013561005e565b612497604084013561005e565b6124a4606084013561005e565b6124b1608084013561005e565b6124be60a084013561005e565b6124cb60c084013561005e565b6124d860e084013561005e565b6124e661010084013561005e565b6124f461012084013561005e565b61250261014084013561005e565b61251061016084013561005e565b61251e61018084013561005e565b61252c6101a084013561005e565b61253a6101c084013561005e565b6125486101e084013561005e565b61255661020084013561005e565b61256461022084013561005e565b61257261024084013561005e565b61258061026084013561005e565b61258e61028084013561005e565b61259c6102a084013561005e565b6125aa6102c084013561005e565b6125b86102e084013561005e565b6125c661030084013561005e565b6125d461032084013561005e565b6125e261034084013561005e565b6125f061036084013561005e565b6125fe61038084013561005e565b61260c6103a084013561005e565b61261a6103c084013561005e565b6126286103e084013561005e565b61263661040084013561005e565b61264461042084013561005e565b61265261044084013561005e565b61266061046084013561005e565b61266e61048084013561005e565b61267c6104a084013561005e565b61268a6104c084013561005e565b6126986104e084013561005e565b6126a661050084013561005e565b6126b461052084013561005e565b6126c261054084013561005e565b6126d061056084013561005e565b6126de61058084013561005e565b6126ec6105a084013561005e565b6126fa6105c084013561005e565b6127086105e084013561005e565b61271661060084013561005e565b61272461062084013561005e565b61273261064084013561005e565b61274061066084013561005e565b61274e61068084013561005e565b61275c6106a084013561005e565b61276a6106c084013561005e565b6127786106e084013561005e565b61278661070084013561005e565b61279461072084013561005e565b6127a261074084013561005e565b6127b061076084013561005e565b6127be61078084013561005e565b6127cc6107a084013561005e565b6127da6107c084013561005e565b6127e86107e084013561005e565b6127f661080084013561005e565b61280461082084013561005e565b61281261084084013561005e565b61282061086084013561005e565b61282e61088084013561005e565b61283c6108a084013561005e565b61284a6108c084013561005e565b6128586108e084013561005e565b61286661090084013561005e565b61287461092084013561005e565b61288261094084013561005e565b61289061096084013561005e565b61289e61098084013561005e565b6128ac6109a084013561005e565b6128ba6109c084013561005e565b6128c86109e084013561005e565b6128d6610a0084013561005e565b6128e4610a2084013561005e565b6128f2610a4084013561005e565b612900610a6084013561005e565b61290e610a8084013561005e565b61291c610aa084013561005e565b61292a610ac084013561005e565b612938610ae084013561005e565b612946610b0084013561005e565b612954610b2084013561005e565b612962610b4084013561005e565b612970610b6084013561005e565b61297e610b8084013561005e565b61298c610ba084013561005e565b61299a610bc084013561005e565b6129a8610be084013561005e565b6129b6610c0084013561005e565b6129c4610c2084013561005e565b6129d2610c4084013561005e565b6129e0610c6084013561005e565b6129ee610c8084013561005e565b6129fc610ca084013561005e565b612a0a610cc084013561005e565b612a17818486888a6100fd565b90508060005260206000f35b8060408101831015612a3457600080fd5b92915050565b600080600080610dc0808688031215612a5257600080fd5b612a5c8787612a23565b945060c0860187811115612a6f57600080fd5b604087019450612a7f8882612a23565b935050868187011115612a9157600080fd5b5092959194509261010001915056fea2646970667358221220c81749b337133d44aa44d489655655601d7c26dc67ee37ba624ef1a2116c9d3e64736f6c63430008160033",
    "linkReferences": {}
  },
  "methodIdentifiers": {
    "verifyProof(uint256[2],uint256[2][2],uint256[2],uint256[102])": "274182f8"
  },
  "id": 0
}