{
  "abi": [
    {
      "inputs": [
        {
          "internalType": "uint256[2]",
          "name": "",
          "type": "uint256[2]"
        },
        {
          "internalType": "uint256[2][2]",
          "name": "",
          "type": "uint256[2][2]"
        },
        {
          "internalType": "uint256[2]",
          "name": "",
          "type": "uint256[2]"
        },
        {
          "internalType": "uint256[5001]",
          "name": "",
          "type": "uint256[5001]"
        }
      ],
      "name": "verifyProof",
      "outputs": [
        {
          "internalType": "bool",
          "name": "",
          "type": "bool"
        }
      ],
      "stateMutability": "pure",
      "type": "function"
    }
  ],
  "bytecode": {
    "object": "0x608060405234801561001057600080fd5b50610102806100206000396000f3fe6080604052348015600f57600080fd5b506004361060285760003560e01c8063fd08c4ee14602d575b600080fd5b60426038366004606c565b6001949350505050565b604051901515815260200160405180910390f35b8060408101831015606657600080fd5b92915050565b60008060008062027220808688031215608457600080fd5b608c87876056565b945060c0860187811115609e57600080fd5b60408701945060ac88826056565b93505086818701111560bd57600080fd5b5092959194509261010001915056fea264697066735822122007726af56b997dace6c5768a15ea49aaad28fcf19c547c72dfae7678d0eca80664736f6c63430008160033",
    "linkReferences": {}
  },
  "methodIdentifiers": {
    "verifyProof(uint256[2],uint256[2][2],uint256[2],uint256[5001])": "fd08c4ee"
  },
  "id": 54
}