{
  "abi": [
    {
      "inputs": [
        {
          "internalType": "uint256[2]",
          "name": "",
          "type": "uint256[2]"
        },
        {
          "internalType": "uint256[2][2]",
          "name": "",
          "type": "uint256[2][2]"
        },
        {
          "internalType": "uint256[2]",
          "name": "",
          "type": "uint256[2]"
        },
        {
          "internalType": "uint256[102]",
          "name": "",
          "type": "uint256[102]"
        }
      ],
      "name": "verifyProof",
      "outputs": [
        {
          "internalType": "bool",
          "name": "",
          "type": "bool"
        }
      ],
      "stateMutability": "pure",
      "type": "function"
    }
  ],
  "bytecode": {
    "object": "0x608060405234801561001057600080fd5b50610101806100206000396000f3fe6080604052348015600f57600080fd5b506004361060285760003560e01c8063274182f814602d575b600080fd5b60426038366004606c565b6001949350505050565b604051901515815260200160405180910390f35b8060408101831015606657600080fd5b92915050565b600080600080610dc0808688031215608357600080fd5b608b87876056565b945060c0860187811115609d57600080fd5b60408701945060ab88826056565b93505086818701111560bc57600080fd5b5092959194509261010001915056fea264697066735822122060f33fdbfe3e0c20d9702c7ea0bf5bc32eadfa439c9cbd7e19e96c07bad2c20d64736f6c63430008160033",
    "linkReferences": {}
  },
  "methodIdentifiers": {
    "verifyProof(uint256[2],uint256[2][2],uint256[2],uint256[102])": "274182f8"
  },
  "id": 53
}