{
  "abi": [
    {
      "inputs": [
        {
          "internalType": "uint256[2]",
          "name": "_pA",
          "type": "uint256[2]"
        },
        {
          "internalType": "uint256[2][2]",
          "name": "_pB",
          "type": "uint256[2][2]"
        },
        {
          "internalType": "uint256[2]",
          "name": "_pC",
          "type": "uint256[2]"
        },
        {
          "internalType": "uint256[5001]",
          "name": "_pubSignals",
          "type": "uint256[5001]"
        }
      ],
      "name": "verifyProof",
      "outputs": [
        {
          "internalType": "bool",
          "name": "",
          "type": "bool"
        }
      ],
      "stateMutability": "view",
      "type": "function"
    }
  ],
  "bytecode": {
    "object": "0x60806040523480156200001157600080fd5b506207a94880620000236000396000f3fe60806040523480156200001157600080fd5b50600436106200002e5760003560e01c8063fd08c4ee1462000033575b600080fd5b6200004a620000443660046207a8a4565b6200005e565b604051901515815260200160405180910390f35b600062066444565b7f30644e72e131a029b85045b68181585d97816a916871ca8d3c208c16d87cfd47811062000098576000805260206000f35b50565b600060405183815284602082015285604082015260408160608360076107d05a03fa915081620000cf576000805260206000f35b825160408201526020830151606082015260408360808360066107d05a03fa9150508062000101576000805260206000f35b5050505050565b7f018eec704bb82e39b3a633353fb3a3b54dfc9d98095e7a2f84979fb85c85154185527f16a27bbf3c32cf702bae42fe9ca13fe4cc20a861d766e3ba95a70ad86903ef9e602086015260006080860186620001a787357f30291fe82273580e32282f3647a7d8ca69f942efb960db267eb7f8bd32bce51d7f2facbd545251321f4c08f5537afc12c5706d85772516b0523e6d66caf269a479846200009b565b620001f960208801357f0f9f6fa15d5bf40530608cf9ef917fed08f0b910762ddb95a84bd700e93b659e7f0a7439a650e6f86e056eddbe9cc3038f04e9107090ea43c43a8984a760ec4cae846200009b565b6200024b60408801357f0867cc3547c9b026d2aee25e54c00fd63269de25ff27a69e934384a1445662567f29f641de0493eb2eb3921c011d3455e52f76017d3653bca41ae160fe4e9aafb6846200009b565b6200029d60608801357f07a100bbd13ec4a17c687b62984f8fcfc62d7d1d31db67c00dacbcc41fb9d5907f24fad116641b58d458067f3f19fa7b0e95307078fa2c257237e6b61833f6d01b846200009b565b620002ef60808801357f2e4f039e19fc7cf9ab871e8135ddba67e14ac49fa179b8f26f2fd190cca7af907f1512aabdb3e03a1ff2febc234f6b28f839de31948d9416657ede2c1ec4168a8f846200009b565b6200034060a08801357ef3e0befe49f89e904b81ba119eb92eb4b2f98785b99844b06e8d7202bb06e37f14b3db70ff9bc404eb3634e8130d44b3a307103ff9785b6d4bad2fa806ea2b20846200009b565b6200039260c08801357f265e37f4f3d211195578d587c1485fb2e31dbddd1bbc4d30f55699f543d82f917f15554391623ec3dc2bf5da08c3dbf441e7449afb86e16b00a8ded664e896b902846200009b565b620003e460e08801357f0e77afd4713c8a759f6c073ed92f44acf98c09e49fd79b95aecd469c6ccbaad67f0a71c04b8fb6a928d7cb00ec3b08a3af6b7d0f33983dff47267febc4ba7be4de846200009b565b620004376101008801357f1cb7b065356eddc210f8251bd3319c835f7a5056a96157e17a6a2058246518287f2368aa2e822f60971377fa1f2e73e5309979622ffda882d0939b3c6779a40aa3846200009b565b6200048a6101208801357f1501ef6a404b5d914b9e6b764b6b726ddc10177379e373673edbed724b085e7a7f0e86397574f088d4d4bab7e5d177418bcfae4ff0d09241724be49a48285f28a0846200009b565b620004dd6101408801357f1efb4461e4ad5807d3c43719fd1dbae8c809cecd76fc0a4670b5a2b02be129c57f093e5c78a02983730d037ae00a7b1b235c1d8a56f166bb955cf36e16f51a2b25846200009b565b620005306101608801357f1b78e9301954d8e24c412c694ad1d08a354544250439e7f3e1445c61c28841927f28ccda1952c19c2515a06ed568a8bfee9155d9ad9837508eedbb04299d8075b0846200009b565b620005826101808801357ec589dabe8a61e94fef544fda6026e4855b84bbf271310dc3a4b1fa2867eadc7f125d773df9730efba80796c051c4ab09fc9c8d7b859495914739a6e6738b5b63846200009b565b620005d56101a08801357f14881d7a9ff9d8939bd79c2b9fb459c71b46ed76cca97be6f26a21abcb4500737f26e32bb36209d7ab3c3242a77a7b36f9524d4ac21a043c3be4c4c24a089fbd68846200009b565b620006286101c08801357f1d322224d5196cf5f1dc33564050d29f614f6885f27563092cb581db93ab19547f12d8e03f1d68a279912b689cbacc69220a5a373c39312f61f971570206c080ad846200009b565b6200067a6101e08801357ecb91b7e69b143998368d278927c71a7de4fbcb873be66140071eac8a3944c77f21cddf4eeb6190715ecee893e906e33a4bdf35d21c1afdf31e952ba79fc87e9c846200009b565b620006cd6102008801357f2b7ed8754d03487a3008f70d890cd842349abb78b7502528e314d9098d0d6f837f0d108d7381296f38d252c94ad29a0e9297eb4030e21407fc13a4ee34af7a860a846200009b565b620007206102208801357f12d5c38b43f7bf31ad46cf78e08e603c11279327b19bc550b50140d51edc2cd17f2890a298dc0af2b6be3ec62d845712ca0865226d0b8b0d9c189ffaeaed981e5e846200009b565b620007736102408801357f134dcaa7bb8b74596bfbff72c0464afa60cf0fc9abf4f55598d94990397c708a7f24daa64b18beca2118723a54b9c59b52927c3d103179e35d9078c1dffdf7664d846200009b565b620007c66102608801357f01e60879f8a9d88a0bb148a5bbce4596e7fa54b48896409b8e719e3a9f131d807f12be754f074561aff38aa3429ba3800f22fc3072594d39c1f179aa8fba37939a846200009b565b620008196102808801357f24c8e54cbab363ea463e261ed8dfcfa9e4708d298c39e41c56833fc74b6d35e47f1836f83ea311253cbf9941f7ea93f66ef61e438c6e2eeff3936694c7f407a717846200009b565b6200086c6102a08801357f0d7ea65229a4922d923a1a1c70cea32f361e8d04fa90f3a0d70d0a597436a81a7f2caf79a8bd10b2d8f1258772e95e4529f6661f933bef35645bb9bf809006f489846200009b565b620008bf6102c08801357f1823e96b544562c3b9eeba62ae4f48be61877ecf9a0b8970a6b4b4d24905ca197f1d1996b606812192e3ee56a8ce60dd159bc653406b92d53988af0e8bde815276846200009b565b620009126102e08801357f208dbdb41ab53015f51675ea37a546be0ea15089f4c73e67b7f19cb198e286f07f173040e335bfafc00304e1fa2e0839ac4c956697e3f00a3fa79dd5c0576482f8846200009b565b620009656103008801357f169dfc80545f27af0b16b1d71ef7152faa545808d0d73bdba6fb833821f21fee7f0f33b6e766834d710ed5dedd7aac41ea6ff96ca12b330f153912a84c8ae3c1a2846200009b565b620009b86103208801357f16f04ff6df0e3b8718b47317cf582a2503e8a9c83427324db2984b5a057e90877f2e0f5bce929c05d3e46aa91f580cc3d6a357e8ef80b9f0b4ab66db93e2c4a3ea846200009b565b62000a0b6103408801357f20a85e801aaa9b5c4bd24992d220d13e697a08bdfdd19031b3e2428a3c3f7aa77f157a49b5f0de0d6dff565a31a16e862738fd59d98523c1887fcd324894d73d9c846200009b565b62000a5e6103608801357f2a037ba824dd9abfa51a27c823fed5d67bcb58dec21a73563e0a31d0d62de0357f13577dbd992b52d4ec8e89ca0f27d05fa1c053c144fa0df3b1638167436161f9846200009b565b62000ab16103808801357f227c9aff1fa5da97c7e16633afce7cc9f7c18c99e738801e688746071b7785007f21bfa0c01098a6847a2a2c3e676d4e7a377c05c7a22921bc0fc64884b29b8374846200009b565b62000b046103a08801357f15c87b9004c729d8e630a2e85daef78d198cc23de355e4044cce33a4fa4d55a07f2a7e76dc35c33a38b13aae87729b21675a8985ab0c755c83613f4053161aba41846200009b565b62000b576103c08801357f0b9ff509a0fcfd61b0faca816d1c113788cf54869d00137d3eaea8bebbeffb407f013b52d7c19db6e0b080ab615d822a0fd70a7be7570c11311ae761de2082cf7b846200009b565b62000baa6103e08801357f2e9e30734f1742508bd2b710dc07d5f7c4d3f1722d732d5d040f4daf4ba0569d7f131a426365d6b68851836818f9fa4a403adf53338c051790a6ca646a7bf17471846200009b565b62000bfc6104008801357ef6136b2819577c1d9d43390817e3d600f87bf46780cea8a01c135f5a97bdd57f162800424abf259a9014b303805ef2f06cd1d3d2e943a760b8a9ad967000d607846200009b565b62000c4f6104208801357f3049157402609ce75c9ea20a67c154fce7703e8515e5a91d44b4ef130a9eb3b77f0a54182bc81f8c0b9f4c4657422f0bc539832f92e61f4006026ec2a448c4019e846200009b565b62000ca26104408801357f10f4e70f3996f68393ac1697b52f7ead14dcb92b502f5c4a187da772b91cedb97f1ee483a418df3fa4a1262fe98c28fef25de46382312e718e1d6410439805047a846200009b565b62000cf56104608801357f1f9fc510644d58c8abb19520ae97956f3a388bcd338c91b6dd39d5e097965c4d7f04ad3cba4d1be91c0a2cb13e2faa2629c8e6b7b9f9bbf9bfee342607a8eed7e4846200009b565b62000d486104808801357f13fbdce49f33a7073ec80ce724922b0e9011125753ccdd77b8d6d4ec5485d37b7f2bca6dbd6877c0436ce8eaee3213ab8a27d0d5b651c7517bf51957693985588b846200009b565b62000d9b6104a08801357f010beee7d2f810ad6fc69c24106b3f9c9cdb916edb7233beb7d16778ae98cd137f27bc1057439fb4fd7eec1b23b5ef63dd7593b8f6bb84d2cf089977fc778e1333846200009b565b62000dee6104c08801357f0491e87329c866f6f29cc195578702dbd0cc9ff091728a9fe56f69b3568a01907f292b82fc911a2637fff3922f17ea9c7127f6c6ad38ed17e3ea85dd0390cb908b846200009b565b62000e416104e08801357f0fa360535d4db7ec8ce648cf32484555e8ae67e107d06e47c50b3eca466234897f2e9524c355e2b113745049857cb8198f083569480d1b6dcd6b9e451608454b3a846200009b565b62000e946105008801357f288a1a75b2a7db46a1a7f363199df69cdb434e9d5144d9c61e5af87c967640cb7f10e25a49f030fe22a6c7b4b0e70cf2b6a86efe5a57e3e0cab31ef42fb38a9a6b846200009b565b62000ee76105208801357f09e12b90968465b50b900a1001eb8a67f50ce3abdaaac9c283bbdf5fbde528347f20e86f5cd5fc13351775fa895abdbf3642f8d983f7e82947579d00e11129ee07846200009b565b62000f3a6105408801357f14dc7b90d6f634bfc9bd18539886eafa4378231577381397c15dd5965150ba117f16ed6b3e34e3f8d72a9e722e647e340836f77507ad8c8f50826c608e7afe4097846200009b565b62000f8d6105608801357f0548273d0d451fbf34b146ec3aae52d8f5842b74601e457e70520e4e54e036847f1ace96681e8e1b098291c8b2eac18206b62b95ee0c5b338b24235c171050008d846200009b565b62000fe06105808801357f0168f6ca0b5dc6ae86c6a037e27c3c25d6b71a4968f1314a4cf39fb573ab1ad57f0b584620442ccf11368ca333b81a115e25ea8ffd17fcaa9a15e2297119687d08846200009b565b620010336105a08801357f25f16226fc6cefeadaa22b38486be8c0241d257ba64e02bdc35fdcc3a07ba5c47f0be85fd18009f6cfae2f0ce8c87906d04f7f3c847f903ee53ff0e29a462fe215846200009b565b620010866105c08801357f1faf31fca783e6dc33f5a4d8b9af1cc924c5acace755b7b1084b7c0b64ef144f7f2bde13326a34f04d3b372dcdc03a7470342ce55bd3e354336a259deaa2f88ab0846200009b565b620010d96105e08801357f112375e8ae39dd7ca32db42c035df8e58d2f733863d3493a6de8ccbf3eb733db7f1cefaef0e1c07dc3a7f57afb109c84121ce7a626c7ad88f9d1973f5e4996248c846200009b565b6200112c6106008801357f124d214e86693d3d75927cbfdbac830e49d330968333fe8e94042f13ab824e5f7f1aa94f80a5107052975d760d1e3540565cf99a9ec1d53c28f487ec7cc24d98c5846200009b565b6200117f6106208801357f2912b36ac427ad5ef70551fd8bc8ba0ba11a07be1eb29259a9ed30e5d8a057c77f1b8f64fd1dc0e41ebcb10df5a447749fbdb3ea176071582a7643c7344ddf3959846200009b565b620011d26106408801357f0ce7a2bc92c344e3c948ea5d6c21fa693ac51da895792f759f77aeb7303b00037f1cefc9b375b2eb5b7f51cb5f38961d57733a12ef237329ad3fd41126667df682846200009b565b620012256106608801357f0b2e28b865a509bf8cc51224d27308a47d033bb71f818af7ff4a006ca777ea4d7f075c5f8fed9e543c801773531d7a30b40c2a003161cd583df25b7efb17a0c62f846200009b565b620012786106808801357f1610e1cf178970fe04f0fc2c411d8a66b738333469011357ce715a84f31cfca87f0d86b445f2882fef61ae50e143d6f129e99e9e9e3efdef4562112761bc133d9c846200009b565b620012cb6106a08801357f1992a9377f190d28b7f4691db84306a3d952c8746bdf3602987cbbbbeebb51c37f0a38bb7f2ef81e362ad092211f5818d13e25a135c1d7565e3a1faa77653e98ee846200009b565b6200131e6106c08801357f1d476d7fed6c853868245a5ba75270246ee968153f2be2abe6ca2ee90f5b7aeb7f160365a5970c49f6f0c69980d120541380254b16e036693fd9751521430b514b846200009b565b620013716106e08801357f2d26c2ba400210a09138cc0b50111e844f35861c73c3b27c1d29837e59694e757f1907301da02c7f2504a98a78957d2e74964b50b65cafa9e5176375dec09ab9ae846200009b565b620013c46107008801357f19993cacea5106a61aefdb2f29eb5ecf92618c8a76b281da7c12b80c504808e97f111cfd03d384c4411e10d1ce25699d6969acae027ae0604b2d5af405e38c9a8f846200009b565b620014176107208801357f07cd5d2cd71398ce77608d1fb373c32a4c4e2091325be52bb65f6e871cfcac2f7f12f70d8cc6c619a86f1c3b22f8a088cad158f95ed3e69f7be97fcf91c241958d846200009b565b6200146a6107408801357f216ec41e2f659ebb8944e634ef88e5d14335df8fefa35c977b950a90547abdea7f05385b5d39b1af8014ac305671f5fe91d853eea8a3acbf074c7b44b60858ee5d846200009b565b620014bd6107608801357f0dfbc597551e832ea3abde3825803060b9e4f3822d057a3eac1914635c09dc967f0299b023fd0de50012ab78601202bc16e940d9a4e78f23e4f8e86f75f5577ef8846200009b565b620015106107808801357f0bb00c2f0af9910a80e4d99702ce96a9248e0dfd50311a2a4fc2cd753747c2eb7f05ae49942fc0b7cb67063448d901d7a26189e26623478bd4479219b5cf76abec846200009b565b620015636107a08801357f013d8cba7e8b27ecd026e10eec6badbab6c2aead800dd6958fd5eea53722b8e17f0417ba0d2aa7428e307b10873a454182cde66432902f36eb00f58119005cf670846200009b565b620015b66107c08801357f19b88debd341fde2616a38d75916bb32fd59bee81c2edb49a27fc1e7a55a0b977f171e05edfc5ec349b071fc715d6a96cf754e8f617391b385d804b613ed3234c6846200009b565b620016096107e08801357f2dc78c4936550bc79627921fb1c2a493e0d79518467d8fe450fbc3211b3745777f02d1b3436104f1fb6522b4ecf2d690d77df47d3084e03b5ff87485e897e5b4d4846200009b565b6200165c6108008801357f1c93a5e25f608cb18928234f558789893385de39c8f9403eafb7bcbb3b1ab1137f0323c7bab4815769bc1522b721d222bd5d1c826919580f8cdb11085ded9e3f89846200009b565b620016af6108208801357f10aeddec75bafe030e812d6b73026240a560209a4cbd5ed227329382e7bca7817f0e5f3df0b23b2019135704fc2c5835692df8016ed9afe44ddb406a313b47a121846200009b565b620017026108408801357f2b94ca3ce79d46738774ef14946044e94dcc1ca62fd2eacbdf67aeef920050337f10fd940e23ff27e20b117f624f588a4b6f4fa101d1080e8aa0202dfa5ba0eb57846200009b565b620017556108608801357f236ffd1d81c473d0e9366776c7ea30f7fe0814bc248fa43eef774ddcbdc1be747f1ac4edba51ede87eb9bbabecd10955768937302074b3080be3ac2927e705e5c9846200009b565b620017a86108808801357f1956c384f951f9f1df79a6eec82a2aa00364d7f84b9568ce61f6c5e231d72aee7f0c074adec78d9f0e834eb6b7036931fc229d8167d354ea846e90333690c35c5a846200009b565b620017fb6108a08801357f2b95d245cc856addaa809f6f3232c26c7b1d8778987bb32a686bcc6cdddbb7a67f137df2fbf8f4119aa0953c9ad4e2fc7f638d9cfc117aeb90b1ac003b8f110924846200009b565b6200184e6108c08801357f2b753dd2bb229510dccefc1f6f39a90f5c9052e79e01bd3853b517cbcf8613427f146b8e7f12a27dbb8c2e6812d9a3b5e6d6e92b4fe635b470b5330e7c5b9a6e3b846200009b565b620018a16108e08801357f264c0b19edaf61e6ed774b8726a289617e8000f0f6c5077ca75b58260dd6d79c7f0148c2f67b24db28fdeebd6dd54646d8c03ccb1b7f7f24c22dbbb273a44fe518846200009b565b620018f46109008801357f1963aa10282fc5da66e6953c594d7d559fd63bf51d2a48f05af235d2bdf928ac7f166d9ee4d4cc021a5d62db69e7df839a64545dfd32313fd00c74d7656dae9382846200009b565b620019476109208801357f182e6a3d52ae028fee612f4e1715bcd3475513a435f358105b893ce208f4ed207f1ce75a5a2d1e9c5b398bd34b6224ea53aebe7c7dee66604d8ce7ff74062363bb846200009b565b6200199a6109408801357f2b8c91a47e43c79d72627c1517534641dce43721e9eed64720eb7cfc9a1703eb7f2a1c94c4d23115883a13413f9ddcc54736edafa9983a81a8dc42a7309984c3aa846200009b565b620019ed6109608801357f1293cd670a5b9542ba099a1b31dbc93d1d897fa0064e6cd86f8c58f7ed9cc0477f0e3902e8619e8d6edc93c0ffdbde9d025ec5287e550833d006625d03c3cb59f1846200009b565b62001a406109808801357f0a4c45aa6cfce9a7c402301a1ed645c617b845badc44b54c03eb106bfdb767ae7f3037979beae75ce6e68b2cc150a09e4f8c6e0b930976c18e836209e9f255421d846200009b565b62001a936109a08801357f06adebd4f91372f5687c53c1901205e5374b890892ce7aaa3a5bb0c0b6a58f927f0a40228470d564e3cb5bc93b19afe8744ea2baff7791c2f64bee4818250d1340846200009b565b62001ae66109c08801357f1623afddf4c39ca9a70dc239e78be2169b4acc71d12b28adf068364f6197ed137f2c03440846b38218a322a61f2849f41b9ef0978b5d0d0689d46e85115f9b8c68846200009b565b62001b396109e08801357f2c408634b2035d7dc86f9579d4603147d35f03017b12708dbe219e6392ad67627f0c3c7a1ec65f6371167b56cae5ee3fce844aa92b073517ff6aca71f4dd71c145846200009b565b62001b8c610a008801357f187dfea0861b0723e87f189a4edec605eb22b8dcf47c89d61bfd2da6359fbe887f06e2262f28b35f7f538f287112fd47eaf5bf244c4fec1601ff4e5c4e4dacfee7846200009b565b62001bdf610a208801357f2a652ea241784beeba51f276c845e544b5bc76da663b3d620fb0fd1513683dab7f15c1cfc71b779db37c6add08a71978ef993f7e6ed2aa8b66ac0db8b7d1980f95846200009b565b62001c31610a408801357e6762fe7d379f8237607b240a93503030db47001f01ed9305aa714265c7f9577f2c6fdc5d50ee9d8be298e81bf20514f0a1466b2dfa7f3173743c21798f70ca51846200009b565b62001c84610a608801357f0a5f3519fe32818cfa5152cac5f850bf83f03f6c5a2efd46943a41903ff84fa47f2e067b32485f7683e1b0bb451939e08316116c4aa6952e81ed769dd8fbf4db7a846200009b565b62001cd7610a808801357f1c36ead51a9496bc56eb1b5ab41fd8c38a1a7d586eebff096b46603519c2c5d07f06a970f1d2874a2b54f2ee2618cfd14d038c50163483ec9cc978109b4f1fb67c846200009b565b62001d2a610aa08801357f095db470dd5d6e3f4c828aa77c162ce31c5e8128b1d26b25c28738c380b48f207f02c46c493250c1ddab0aa54cecd58d4c0e28b9a2a08c2043a870db86f78a6f0f846200009b565b62001d7d610ac08801357f1b8148a6c31cd82b57d80e3f4ccb45c3874a7dc21eb9b75c4b4c2bf2d20d64f77f21ed32ee4353e6d560a43a62d51c8583a1d4afa66368f350d88da337c2404535846200009b565b62001dd0610ae08801357f1c65c0484a91228c121f3bb19011e7eaff4eb3a348aa5df0a1a3e366b96f4e327f2468b71616e57613c908d4107204889453e059c86d9357ef72f897bdf60e4781846200009b565b62001e23610b008801357f01e109f820c25b4cbfdec27c4132a052215be8226846fb652a3da2dfaa80527d7f18ea092239fba5aefa69b7479652e8dffd2cd074966b694c40b3c2b001217477846200009b565b62001e76610b208801357f290b6d5257b43b9389a6b99e92fe3cb212a7d7c16d1e017dad5e17dfe517dbf47f12a1084695515897e4050385393ee288c1e1ae8c75081637de82ecf4097e8331846200009b565b62001ec9610b408801357f129f9623abe62f071267de651c2aba9856df03755f4524c92bd80db5ec2f505e7f149907ce5cb11851fa3e4ff96bbeaa6933d7803fcf383c2f49462539ec16675f846200009b565b62001f1c610b608801357f0ecb64d8c6e658e3ee132a2fcb1f517b0525132484d229264f2a6f3e5064a3a17f060597dade9a2a6ae1ec74ea191a254b86ba3073381f845d9c3799283bdf2d63846200009b565b62001f6f610b808801357f18966c3a921a9ef46997e455daf359bd0a11c81a180ccc4fe68db9410c46f2c27f105c1de1d08a6e772373033c987337fcb5a41157c619c8ce6c93dbdb0fc1ca45846200009b565b62001fc2610ba08801357f0a6267abbec6fadfa17b1e94f3967c652a10c25f0b8770dbbfd36901c8f4740d7f1e7bad20ebf51fff4e12a73d53c5ee8864096f51900e54626aa5a89c36d7ec44846200009b565b62002015610bc08801357f0471bf36873a78dc70bf625419e92e9342a3e849b3e68b20a6ca0be22f2f93767f1d7daf7a9a0240f731d41fe4acd0d78068dba9b4b901abf4f42ae665c512ac17846200009b565b62002068610be08801357f05ac0828adef89d4395358c60833a17dee5d338eefc3943f1187e3e0e11aca437f12856cec20928c7d799a7caa6e1ed16f3741ab7ca085661b5ede28451718c81a846200009b565b620020bb610c008801357f08c389183259d1ac40a6b337c8d1ab3c9ea666e41e0aef81c68a505872870de57f2216e909da41c1f31f06b492e641a07128a9fb5ba1a109cee77d0be8becd574e846200009b565b6200210e610c208801357f19fef99ad2389b992ed2a8dea46b82ecdc8fadf4caf664976a07787a5e6abb097f049f45e9b91347471780f75e7b76196b65b4e2f2593ff961e3861c37a8931352846200009b565b62002161610c408801357f21167fbafe494aeb33cf5baade6b971f6ae7e13f01b39440c156fb4526fe3c697f1559cfa5183ab23e65f2cb7a507a26090474d168a61b619831486b11b4add292846200009b565b620021b4610c608801357f0fb813025b9b435e03434398d251d86828ea329f1f01fb13323dcabc0f678df77f09bd971f22d037c7762831850df47f3e858833e5bfc3f05bbabdf31ce65c657e846200009b565b62002207610c808801357f19ec3d4489dc0a2af05f6fac119817d69a089548b0a85342821c0650c5814b927f206ae61a382823205048bbf0077d42ae9c78e5eb386df38dabc5b62819ebf9d0846200009b565b6200225a610ca08801357f28b9d0d75535409de211296068a49e9b37f56acaab0bb9049c4202bdeb4294d77f1d21950e938cbacade69427b5e659f61db5dfe584b882024f8e2168f763efb7b846200009b565b620022ad610cc08801357f0f16fc07bfee34468cccc2b4a255b1d32e31eb1a3466df5fc8c28ae233705a347f26e08eaae010d92535cf84c21dda436a90b0343df3c75a9d4f231f4d59cec3a0846200009b565b62002300610ce08801357f304f4e530ded08da5087eff4c7b913ee98e7be5750dbc478e780ae6d1c17e85e7f1fbba0394233da0c5b012ad8cc8c1f33d7e34828ac8c103186c03d6814f9b42d846200009b565b62002353610d008801357f2ab398884ef069a4f01a4f11c865f67784a6852e007f8ef04bf84b8eb4dd7dac7f1a0deb63766155a8e5f37d9836f48175690dcdfe28194db9428a3c49e7a335c5846200009b565b620023a6610d208801357f0ad8b168a52f41c7f0de102fe5a1636f120f39d54bc111fd61712fd226be66db7f16d971d4064aa18ac191fad93c7e37e0a4b286eab94e5a8517ed407cd9d20382846200009b565b620023f9610d408801357f031318c0cd059b275a165d0b84636644fd43ae7eea0a147331f48717c3056e357f0590f5bd3521abde3f1956d17f07f310fc627eca1657c41e1f52eaabda70afbe846200009b565b6200244c610d608801357f2c37eaeefa47b282010a069e9e3c6af82f8977b45a327398c059127bd16118357f08354e47acd01f01adb60c34f5009209ba107b14d7108b8e1bb1cf1cd3ff9ab9846200009b565b6200249f610d808801357f2f76872730118d39aa4555c700dc89effe3d48a2cfc787118631283dff0418187f2418f265dbb0fe4ba90e533f51a47df2c600fc586d453090b7db47bc3ea89a20846200009b565b620024f2610da08801357f2183657e7c5f038980f4095dfe8973e41772eddadedfb864505ef2d4880a335e7f2ea6f8b3a3203b463f50f59ea0853fb9a40073edc5529369ad78095208ee0f6e846200009b565b62002545610dc08801357f16d68970ce10f54b0bee82c182472e3951aca422824249fab1b793b7fb0fdd3a7f1a49616b0df5240ddbd4dc6e87d0666e88cc3fb73cc0d76c89a4bb1925fef0cf846200009b565b62002598610de08801357f25b035b55f1ae90f7a98dd3c127c6411d79a814119d7eb06e86b60e4cfbd2d387f27031186e0acfee74044b971098cca528583835b5eb3f74c21eeac1a6f8d516e846200009b565b620025eb610e008801357f0496a5085a290a23f911047d54d169578a373396a7cfdc7d8fa54a61e80b1eb67f01fd6a1df053bee19d7d87c3f6b62872d852294c277c36d2c0c239b51d32d051846200009b565b6200263e610e208801357f10baffac2e241a021db5cddc61aa5d297457b8521d9233c550fa462f745a034e7f26c2e0dc5564c3dcd16183feb3f0cab61a0910ac17bd472a3ac4673ee89ea98f846200009b565b62002691610e408801357f09a7c63f157a10483107f6f7898ef1021378cdfcbed7905d017821797a6724e17f04662eafd11b9609b007bfe14e285a8b1a2f1116efe8488ee528343d710ce9b2846200009b565b620026e4610e608801357f18ebebcaaa9afa575d42339c2dcf9114040c60f7895ccdfa0a681699a979aaf47f015699042e27d2e6e7437b68a11d0ab631538f4555fcd17a7f11c4d86a453353846200009b565b62002737610e808801357f294416851e0eff384303a25978b7093a004418a1edc04c7e7f266208ecbab07d7f24d7750d2ee81a19b8ef285f5d09508dcb93a8d78ebf88f1957ba3d02e0116e2846200009b565b6200278a610ea08801357f29364d0266e23d2bec39a1a9006e844492851753797842f829bf66a0a0e801a17f09d4c49ee1e71770018687a9654ab77f903fd4dc82f0352df2c9da73973d2826846200009b565b620027dd610ec08801357f1f0be112ffda01dd18b04bc0c403126f2b24fcdf1cb188eb4008a3afa4f2ce287f129442a02faa5a1d8ba7c9f496eb5e92e5151444afb5bc207d586dfd500dbf7b846200009b565b62002830610ee08801357f0107bfea6c4fb8c68f5a1a706892d1582d367925fd186ada8662eac0781402ff7f25d75c3ea75d2a8ec5d20c8a0b14cf9993230ce7e63f804ceab3ef34f46093fd846200009b565b62002883610f008801357f0f1784566411ff4130d60a895445702754ca0a8a5ff2e80a1065542b9ba53fba7f1439bc05965f2fccae0876a87e35036d097ab800752a3c8c3c1c811faefd6d45846200009b565b620028d6610f208801357f2db6f0b495dfe65e4e710cae81054559188e1846f3a2303a0fd21012988c527e7f07822c0df7aabd5c1dc6b5a7e8d741177ee36fdc92112dc64453658fdb00c783846200009b565b62002929610f408801357f1c83ac0b65c4574d65f015487ea9d27c82a94a2b73bf83e634c664974792898b7f2ffcbb9d967092c221fb1c204dfd50dea56d147d372bb0e348d038eb7d9ef0ff846200009b565b6200297c610f608801357f1fbdf2665fddd21373a61398568d063c677cabde0cc50f6f33483838407c134d7f0e34faeb6d150ab54eda2904c815649c82805f855f2083c28fe6cb0ff8578075846200009b565b620029ce610f808801357ec3072b699a22702eb34d9734453310ffb1319d24b224f62ca9d35e1e2782527f12cd81d49a925055887c4a205558e6b7a4c1f55d74244f9ff3c2f1de10f5f88c846200009b565b62002a21610fa08801357f04458d858ffae9128b77ccac602e3344c4ad46e619b955aa8d64912be020d2527f0371ea95ba8bb04f8bc9922df985b2017790454752bd2d22fe54c6bd5033b4ec846200009b565b62002a74610fc08801357f18c789d558a7c23822562b9c1692a7d7bfa3ac1c212edfc60ffda160f26cb7917f052c79e2e418c7d007be03b2cf3df7c68cb2f2a4d21a63354a574ceaa43b5437846200009b565b62002ac7610fe08801357f0c147b8b963c43dc50df6bd9041c4ca592b3886b95fbcf53dc74871de854ae757f1df96495327932f9a223e386d881813dd49d6adfc48e877c6bb780e4ab9156af846200009b565b62002b1a6110008801357f113e903638ee7124e3506b439a4654e1ec850dcb75cacbcedf75911a73ba54cd7f17219fb1ba2eac772cbf4ded774fcdf89c8b7e3195d6bd58805c2f2c82882038846200009b565b62002b6d6110208801357f1c3e02cc4a31ce95ed2c2ef30f0af65d06b19483042952dfb1ba08201890122d7f199a2cb4beb43d2f1441131d22e23f3240a2522a71c465609172e4acf4c42035846200009b565b62002bbf6110408801357f2da6ce62c2fb245b95b6b441b3163889868bda7a5ed7377c347a12755b0ce66f7e10932892546ad2198d89cdb4dbd4e6fc0346a13c0f50ee5935ff521bed7678846200009b565b62002c126110608801357f22a46e3137f4ff0aa19b301201520b6251b9c768b302029314de55e2050973a17f0d57acaca4ed9f9f570e64498449379ddccf8adde8f076c0d00b39e8b0a3e58e846200009b565b62002c656110808801357f24b2671c809a6d394b2657876f247d65c153c454a0276dc17059baa1060b347d7f1bfabb96cbe59b43e83f8839e2aae1dd1d663b597aa4052f39fe5a24dbfb7ddc846200009b565b62002cb86110a08801357f265a9c9fc9f0aa788984965eda62df7d0760501ae84316cd0b710aad41ad2fe67f29e1d006a0d9a15cbc41c55e6cad8138ff71d34df76db7490762717a4f51d8e9846200009b565b62002d0b6110c08801357f1eb7d30f6459fb594e12e4a4237bb3c54719486c0990ea5e49b7a4801317c6987f14000a09f06bfa8b9dfc3ca0b74f38af49253ba162955f528592651740de07fb846200009b565b62002d5e6110e08801357f2e77b1189f8e4edcb6a1cdc99b2cfa0e3c42b5ec245ce331c51085debbb970067f198f55714c905831aa302ee79aa28ca76ee07f12a568f37b16b0232b682845f7846200009b565b62002db16111008801357f2fab12fb1cce2a8b5265b876da15c3c3186ff8fe9e6520e20c39d7c49bb98de87f01e49ff36f3c15d5c6253b08f8b9469418c3e8fc5f9ebe677064788e57f012f6846200009b565b62002e046111208801357f0bf3695abff3afec48218ed8369057c2eb433722dfb40a89453d29c41cd49c517f222f3dc6852ec9c27a633ce243e1fa8e970bf0a61aade74a00f513eaf08292e3846200009b565b62002e576111408801357f0106ca98d9c2ecccb3bcc8ae319b390692819b3bc8a23bc4822ee0d3067864b87f15b8777d7164ee84ef7d6dcb89a27769fad6d6158f7678602c967e41c7079e0d846200009b565b62002eaa6111608801357f1089795bb29e7213e2a704ed04059fb6d94c76c2cc1e35c102b7bcc9a182477f7f05aa750f93064d5f7fbbd6a07c7c8918160bf2bed0f282983b51a2a8cadc2f0d846200009b565b62002efd6111808801357f0fd32a8034eb27b9af5032ce4eb320ab7c1e39492457157c98a40c826a9ac8ba7f2c1174ccfa991881c37914adcb0efdff66f2353f0cb346eaa18306e8fe7844fd846200009b565b62002f506111a08801357f0746afba5b66065b5de499200b8270da0042c9924652fa4c8da8d5ffc513042d7f2ca9f47a7cc0424193364e503019d152f630e09eda625991030d8d450a4ddeeb846200009b565b62002fa36111c08801357f1efe36626f29ffe7c3fe3e42969fd23fbcdaadd4036105cae1941387a4f2fe637f01796a0171c59219c20fe1912011e1c287ab7755e5a51e2f2bc084292ebfbbee846200009b565b62002ff66111e08801357f1530b27392c906da62b314e451feda68c4eb1b117204579b6f10df66845c5ff97f0f8a46e0d890090d3287e0320821d2a05623095018d89d6778254cbf5475d1e1846200009b565b620030496112008801357f1bf694f39585e38fed24a84e77d9f9aa163e857f57e70412091c848378cfa45e7f05b2e0fb714ec91ab33b01abc4a07e92ba582d1a509fb6b989a939b5b0303093846200009b565b6200309c6112208801357f245c3a57667e7959d2aaecd45120640020222e170721ce4bf1b543e730bee7be7f046df8091a67f6ec0023f52fb403f18401962e122f34785a00c3a1916213a0e4846200009b565b620030ef6112408801357f24fe842787b9087114af7829ed75e3462034ee3bfb09358393e39f23691b7c507f2a21222bb92c9b5402395bd4bafa7b296e308c992860333e7e955b84c120796e846200009b565b620031426112608801357f0673e6a81f5e7c3073d4190cc8d2e0ad779ad21dac63b74fec67443618d894cc7f02450bb6f1d873b45ffa87a3be23b7f732f18d29fac2b93bc2221802129d7754846200009b565b620031956112808801357f17bfbf3172714b26962de28a00ca42f996247ad4458eb7b0253df5addade8a647f0910d33285dc12ed77273327f7578db625c48a66f35550023d8e235b5e227d82846200009b565b620031e86112a08801357f25359ef85736bafa0d99c5a15cfa8ce0196747f8133840fd79ed9195a4929a797f0e476a822460fae9c861926ae69f673687451d038d13d75ee8b9f03544c374a4846200009b565b6200323b6112c08801357f1b0b84b3cfb08ed472a3a6eacde05fa6bddb3786a4146a28e30fffc4783911437f1ed7f97e3bce9fa55659cfc4e7aea5b512a05f0d98b81e04c0f8cfe78863ab0f846200009b565b6200328e6112e08801357f1f08e7cce9d1eb755d192c3efd719dd791d04bf51fa85a9703f3e49a4fb0ea7e7f0fc28007b5efaff19428f4ad7451eab00bff7e188ff669ea6eb9feee85896ea5846200009b565b620032e16113008801357f1bc3ff7b3cdaa8e5ce581784a8aaee9b51587e089104c116b276c7d0d32cb2c07f2a1c76ed7f1172f71c38fd206383865da9c103fd675525fdf48add8407a97780846200009b565b620033346113208801357f256d6ad8ab007af18ceca2d2229005b7f4c06e01c6000b5af8df69c83f56cf4e7f2d5875e2d964742fff041e8bf597a59a67ae66b84696cc2e19d0306a90998c65846200009b565b620033876113408801357f2f1777e9f3d2528c904553463205c0459109f6b7545261c43b578e905e1cb64b7f257ac26351a812276ed7aa70384a49d9e450cf3a409b15d488c1ac9ce303f80b846200009b565b620033da6113608801357f2e770d52fc360a2cc5f2a02bbfde62816d3ce35f8fa0ec39d22a485f3821bac97f2182fb2b0ea59074c833334fba4032feee05d3663a9cb2c01650f9c885f6e56b846200009b565b6200342d6113808801357f289c0075c4097476ed10342b01479ec5b2d1e85cb4c92919aa8d69e856e7d5347f1c315ef5fa42a3ec31c832a52bb1a559bd827138ca4f974d2fb4414167563edc846200009b565b620034806113a08801357f0d94e223ceacd9f5a420d479a456efe691aac6aa819e7077bdd579a0a4b481fc7f138620e5d53330b9047604053a6cbdd62fccc529d414d0117057cd3289f9f75e846200009b565b620034d36113c08801357f132ad6d8e881bdb280a95cb37228574763ca2c373d466bc151b0228b50f6b3447f2f8bf3dbe7693a9a12c7333fe462b714641f173245d0a0a0d2247c0457c5a4ad846200009b565b620035266113e08801357f1ecdc3056fe61d9ece1237a727e02f67bcf02551ffef7aeba2fd1ea094b94fcd7f21abc08cc62357af4e1b3bc78739de8a98b11cc768cc324f190401d785b6905a846200009b565b620035796114008801357f108030b8abd5040788776c61d17a9e52e81c7ca16513a1c976f977060de1a9867f253ab7df49af8b9b96cc81755bf1163ea9b841a835247d208e8c1578a569c1e5846200009b565b620035cc6114208801357f1b67ef8bddbfc109461e7c26e9157ca9df0aa2b1ea8c4aca1f366c4f76819b917f1ae8dd287ef4f5b839e566bfae94947e41779c7a5a8f2a177410f55543982dc2846200009b565b6200361f6114408801357f136c85e860fb33e289bdf91d20a6a9ccb28e7390e27b553e0c0b9c1a529ae2847f259c84a61414877a8c4c6f23ec1021636b93352845cf45afa847c55598599b5e846200009b565b620036726114608801357f097a17baa1f2490e077fab9bb1d2a38cdc3d5d1622606ef4233f1ae131a30a3a7f2097a0f487ec517644352f670cf140f5300faee1d2c0e58ab1b21f011a8ecb71846200009b565b620036c56114808801357f242492a28e5981e8b871e90c843f1844b1ee6df18cf6c8b282310dda126dfdd77f0b4a3189d0e9dd5228cb200a63c994866be68d9c0b7b4f44303837797dbec31f846200009b565b620037186114a08801357f0f03b22d1c9f4264030612c85b86d97342a12aa0f27e26a154e6bad8c888db927f06fab14138d24db5524dbe0c35ca033edb05c8ae694a08c83c0f86e61d1ad33c846200009b565b6200376b6114c08801357f272084a06f8a20c996aef2d6e3028c20c9c3acbbcb6ac3f9563a08150682846d7f2ddffc04d300c69ae317b1339151578c2401d81c29fe4039229b092525a1f111846200009b565b620037be6114e08801357f0d15544de9eeeb634fbbd1756889e445c6847590c3d9879a9a9db4451ed678c57f2b58d2bc80a6be2b26c525844a4a3954207b914728ef26df6f9d9918d2ee1d25846200009b565b620038116115008801357f2a29ff74867a4f199583e90a27e97aada342b08dda4a23b86774fa20aef770ec7f24924ece831aac9c1a413e501d75e0881da3a0eb608663a172082b51a5c40f70846200009b565b620038646115208801357f11530a7440956b616a1f6815db349bb3759dcf2b76f89106ff59f038d735031d7f26049bb794a59a5b46e4e3a719c61c67c343078b4387fa846ba678d4bccd4ef5846200009b565b620038b76115408801357f0da2cb0756af215287451385ff2ab69dbeea16c8d583a40d995579b2299746b17f0c2312c430209a54f45caac5430221f2874a9a457b5fcc7e179ff0d8fe27ff0d846200009b565b6200390a6115608801357f07299a3ff435c5841ea3daeed2e1ddbd8b2ed55930cbbcc3208c771b00b2b6207f16555c1c1dbaf9dff2c43c91f9d1884666c1c1973aa7625a7c54500a4519ab3a846200009b565b6200395d6115808801357f05bd73ba75664bcdb8890837e1da461a1123c14836c7dd8f1c615804a6c7f2a87f176ce6a38e7958fc38723ae1943cc8779be9d8df6123582ed31a7dde0a4966f5846200009b565b620039b06115a08801357f038f2bfcbf3b6d4facea8aa27e73049f0c0c4f242f9ac8c91beb7f66fcff60b57f03f706af0667c5da4e185b6ddc32e2d1910d4da1529b72a142ab91986b77ae75846200009b565b62003a036115c08801357f217225cb06a7be90e6ee185fe1a7bf3fa883f607102fc9d61b4135d15531de9d7f2ebc4bf51a2552cbdf4909aa3f81f468c2dc2c64e176229f680e65a84cfe4699846200009b565b62003a556115e08801357f17ee42ea7819a9cb343b559baa46823812bf4ad29637c67f510550c77f9f6f217e5c70f7341505fa0f2314a9850272b6573f9364a39e2c348459c5e568cd9c22846200009b565b62003aa86116008801357f064a955f9ee2231fbee963287902af565223e8786068d30d1b521ea4ff66f08d7f241bf8b526d558f240fff1db9aeaff535e40ca4217fceeb957b31623f72a2aaa846200009b565b62003afb6116208801357f05e4acde14db9fc922afca50123bfb9bca88546b6afbc1de2e2c06ebb93cecc27f1d0b0a8422665ba7740ca457915120a1e72b0c22e59acc4dbe30c88bdecc4a63846200009b565b62003b4e6116408801357f0168c04a6dc6e2bba1f21dada4b7318e67af1ea374c4ed5b3ab74494eea4dba17f2a8015c8aa2c2c82b73691353c99b9d6dcd3c16f2d1076b1c8c36e11ed38b771846200009b565b62003ba16116608801357f1e79668e6440f06fd126d9bbe1d32161bdb43a7cda6974635e96449cd6d4d6547f0bb1e1e0363d78d8f0d1a7831cb063e87f54fed0003bb95c9709843be5434a1c846200009b565b62003bf46116808801357f012cbdded9f46fdf88e6a5f84d113d3bc7f55a2990405ff9331c4e8826d6d16a7f1d77e3680ecd55deb1af74a41da29e4b9f960d51b78d3cc836b887967246f1d6846200009b565b62003c476116a08801357f21d84bb0a5a25f241a16d7cc41b6bfa094317f7df637a448c9028d10536f1b1e7f2d6d41e778ac5cbced6ceb1c5f87f2a769744386c18e72679de76f5490da5527846200009b565b62003c9a6116c08801357f171e281056f14afed62865592cfe5ba5623bc0f985d60cf996a358bd6b6e19877f0980c1dfff4b027341d89ee53e76590bdbb7c6a54f359bd2c3de7094e77ccb8a846200009b565b62003ced6116e08801357f122c0e3a84e6cb36ff413461e880afa6d8cae26c92691a890b710edde4b90f8b7f1ce11eba738b86dcd2e3ef2914457438b51b3c66b50946daff141f2432b52f11846200009b565b62003d406117008801357f2c13fb10e3f181cf5ed20dcf22237600ec97d117125f19ed7c1a5e7fc0cd9ee57f038b77a26146e7fd74fcef32bcd5f5849948a6c46b6c7fd57c7c854e17cd28c6846200009b565b62003d936117208801357f243ed27d2cd66ef7402915bcf1e567fc7f0599a5e6e62189ecc9125c6e2eafc47f2431be551eed2890273d6c099ecabf98f3d3470f3c2f9ee426f9d47a4912c316846200009b565b62003de66117408801357f298e53c1074d4f5e5bc241d10013d1c1765c1be36a9e71bab916957e361ad3cb7f2447259a87b8fa4495a100ab47e377ccf266a011623ef64fa8603cbf71b52de7846200009b565b62003e396117608801357f2318e21b79fb4b7f7ff0bcd0902046e84aa9a4f212d6ecc4a3404eed960db8bd7f0b3810cf39c7c9eadafbf3b6e57eea8f3321f7a95a9df9904ac529a2d5c2fc88846200009b565b62003e8c6117808801357f1bb49110d33d19bda3de77199ee61099db2d16e5f3fc05acf12dc32065e0f1777f283e1fe044818bdf1243dcdff71c7e9813c1a4990298fdf6a799ba3675a8a0dd846200009b565b62003edf6117a08801357f1a39f86a7c1c7ed9c297c07bba3b17b5ad99413ce55b5198ab52932b06f0de677f279db8a8338168d00a431a5b0a1e2d5d3df16da5478a12fafde68919c5e53e60846200009b565b62003f326117c08801357f216ad54edcd157ab1c2c1e492fab5ff3351503b5ca4071ed07634b22a1f0dc467f1e996a75da5558c99b4a74febb7bce30689b39c3f41a45904c190b61f0fec66d846200009b565b62003f856117e08801357f118579fa758a2f79c1ff3450bc2bed548b69336efcd1bf200aa118b9cb8f99e37f1654d92b18b1afbe6e7883d8d68369dccfb041a3817bb73649dcc7a63d799a46846200009b565b62003fd86118008801357f068dda4b1392902ebbe819a19157c9f7f820281e15904f7ad3e11a1553e6697d7f27afca164ee318beab0efcaf2195e13cdbdb252efd318795a579df52ebb9e834846200009b565b6200402b6118208801357f255ab3ae7702594e30ac6cad32106ac0980b56d3f197bcf2c7121e2f2393d9087f14df592b96846d81f5a55dfa1dae68392f0b27121e727515200834b61f7a7913846200009b565b6200407e6118408801357f1ef46e66ecb8dcb49c7646c443b0bb31e8851ab0e90d230b8eee1bc4b1f963547f1a308f9b3c5781304fff5dcfb71b33ac9fc2c3184a6069f9e807a4084340fa9e846200009b565b620040d16118608801357f1b6d11cf910d7701e6c971c55bf1c78ad2ef5f69437734f388b71674a029f2487f249e6a332976bd1c4b09b8bec34b2d5664440266c1e23a34d201636c763691ad846200009b565b620041246118808801357f011b5e26a9994e01f622f25a03f20e1f0a34f87932a576d8c834aa3f4a76d5dd7f27f1d17e0565dbf181c44e96f4bd1c615d006aceffaadb874a372044809238a5846200009b565b620041776118a08801357f1486b1e6d0238eae713f17040c2864f253920f19c0abc9c08ced0765802f02177f21a157969bec3685134c58df3720e59bc5f3894e90ba30b1b2212a9a75a0f514846200009b565b620041ca6118c08801357f0917828d4582b231f69fce5f99fd21e3ad711f904b15dd8ef30e701d2a6669087f1edb96253ac77649c10165ae2a7c71a69f16773d367ec6cb9edfe89f4f6e8780846200009b565b6200421d6118e08801357f0b220d568de7f410de7bd0001fb268860f2820893bc00f634f6995d867ecc59c7f03c12d321d5c4b34ca17b8bc4930954a4517964cd3d8357651dfa9279cc70412846200009b565b620042706119008801357f0dbbe13bd5936ccefd3d27c058a3ae874fb31fe3932a978e93b6c11e21f5eadf7f1c8b92e12bb9d6726a8f785c55adcb4545e59f31106d0a8424cf287610fb9351846200009b565b620042c36119208801357f092fbd11bab6c4c55dcd5231a97fe452c6c2ea4e810111b0d50577b1776418377f02440562e1cf91ed7b56b50906c78c1d29b41661ccd233c28d3069a5103cfd02846200009b565b620043166119408801357f0c1bd8ae6b59363fe5121bfb239a9f76933008d4981ff6324d67974c376c3d207f1e71dd4686e0185aebfe1bea9abe7980a91a3b6018619a1b125d4c01a7c6dff0846200009b565b620043696119608801357f181bffab485d61d394db6640aef9b8f430b12d0fb8efa4634559d7a5f07b848f7f13f9d11a85313c0c0b7f4deac78219922c0695e94f73b78b96f74c7408dfae1b846200009b565b620043bc6119808801357f0962e31aacdfa35a86ddd862c59332a8620cc8303e5f4a8b4aa2d1c563351afc7f20e6d862f5fdc3b0e78725099333252c967a297e299034137864d8262ca3e7da846200009b565b6200440f6119a08801357f2674cc2d153c8d375cbb698e04e59639f70c65950358c824c9f26da7de618b1c7f0599e6051654a2517637c7984f014d5c2b8990e1f36027e7d14bfb79464c6a6a846200009b565b620044626119c08801357f01ce9351544634189f68e065b1f7271a71250a73bc2d8491b012169f2e625cb17f02fdd841f685b8612d6f7254bd8f39d64efdcd85620b3b69e56271e1dba5995f846200009b565b620044b56119e08801357f20ae5ec18d30f13a92be70d90cfbd6b0163fc284a6df99d73b52c2dfda31e3da7f1508a4459b8a95ffd1afe498038841269a323c4c3308f23c43a1f32bee1963b9846200009b565b62004508611a008801357f1b02cd85cb501621edf1c8868aea986c69a6723f8cfad99472896e39ca83be2a7f1f6523703ea5334cc7102aaa61e16f08ab9a708c893af05fe9f21144de120657846200009b565b6200455b611a208801357f02ea90193c63eece36a7f555b8845e7c6d56e60d248ddaec9ad161b5b12d39cc7f1ff896c462588a399437789e7cfb360673185b4c3aa309196f05c345b441e480846200009b565b620045ae611a408801357f084daf4122e13b011e90d0c365520ed7a148d5245bc5028935f2d2f2bf28d0c77f0f542cf5f7e7021ada82ef53aadf1b542a856ce88c7e52e5f47642078e5bca86846200009b565b62004601611a608801357f09f46d7dac3cb7c42532fd58fa2b1974f3f8ef980525a1ae2cdcce14afd3d2527f2ed43b4d55eb5da5edf0714953e298e41d321d2e07ec3232c5caab664fc3f7e7846200009b565b62004654611a808801357f088f8e3998c5f9dfcf99352c47f26528976c459f239821d91041b452a9ceeb357f2ea2c2df826395a8eacd2c8ce26eaf45e9c7039b232eb1dfd4f090f326fe8db6846200009b565b620046a7611aa08801357f2e4a37b4b534da6e91a18d631e503bc5c2769e32780063b6f8b4690c48c175b97f0ad12b8a67614ecec2052758a836159f959c64a53cb71880f6ce8832b9a6a38e846200009b565b620046fa611ac08801357f1bf7f1fdd91dfde9efcc9f126378f331986e6e45b37f20004fe0a59191ef03a47f0ca3db8bed089de18fa994c0bca30d2bd933f0d44d2f6865c0a29f73525ed657846200009b565b6200474d611ae08801357f239efa359391515158c85a07c76b8d660c10a4083fae5263700f017428c9ffb77f232321ffbcfdaf8ae61f7747751fc4f8aa12b44adb5c98e3dd172e9044cbd8e1846200009b565b620047a0611b008801357f19d8a7eaeeb17d84522c1a6cfffc23beaef8795edcf493d3cd7a2f5d1044c0387f2105b2d2adba4da7d860e8758004d456893dc819cfbeed185d1ef252092d7bd2846200009b565b620047f3611b208801357f2373a67b771986f7d39b9c515f00bb385efe431411b6259fad8294d763a373d97f0fd01df77a0ef17e398541fa03c9e40b2ee6a4ceee7ffe2c4a14696f68a3886e846200009b565b62004845611b408801357e388035a0e521c2c60470880afb20afcaab3e19355ed415ab1a117b4783f02c7f158871085d1002f7370ca53f509333abb8925bb671d234b49831e229a8cd704e846200009b565b62004898611b608801357f03457e581f452a99dce8433c58ed03d2262bfb4793aadf5edf85ab64308503b97f2f89422d195f889b8cb823a2ccd9e4e590c39ffd02e56b8c516fbc2459da023e846200009b565b620048eb611b808801357f0d7885be50e3f4b6ba616646e770b29da36496712878aed1396e22e6cd0771957f1f1428cc98cf35e6311ac3944d1222a52fb442068114882ae33268497e9a2294846200009b565b6200493e611ba08801357f271fd6238d80efe67a4ca554508fdb439797d42c377edeb1cccd75399cd3f46a7f1ebc359a8d8baff4445513978aefc6b011338ac54ad9cfa4abfe1db7609ad348846200009b565b62004990611bc08801357e0b12a9096f685a63cd13b91094634aad9f6c51b2ae724862bf43bdd78659897f0d4035cf4a5e4dcb7d4fd1ba77e0cc1d4afc306e63ba4d6afa7defb404095ebc846200009b565b620049e3611be08801357f1b7e7cc2c0fb14bd08ab8eeeb3c944b8d5e6408780c72d7d0899bdca5d908c947f2e0919d78236648bf0ad99a7f22ef371417a33da4a1ff57874e9e6ae8117d88e846200009b565b62004a36611c008801357f0fd184b64fd6c22c16efc99bc083803ce1aff4384a082034746dfb8b629f6beb7f123fa9b2e5e947e84be92ee99693c51d5c967e2ecb81054b84040ce2d44e6516846200009b565b62004a89611c208801357f1b95a063bd820313064fa3798f05dd637b400e409879c82c7b17fd1f6adbb4097f0e97fd03cf2d8b9907cbcb791b684be5c3bbef378208650dc7d02cc192037b26846200009b565b62004adc611c408801357f0d137537ec8e2bb459f6cdd7299245ce14edddadcda517b356f9a2959ddf182e7f1ca3d5085f6b505c0de0f44629217d4af737c96f04d52c8f90f45d294a044101846200009b565b62004b2f611c608801357f11405164cf68ec560ac54f55307cdbcd851c6962f21db5a4cb58bffc2b9becd77f2d7f0bfef3152e08c817bb0d2eabd370effb83dc9065d0259e360077100b67e8846200009b565b62004b82611c808801357f1fc7d65013d6873f9241914bb0e28c0283a70ad8785f7c9f146c55fdf00035b87f0aca923a20411dbd757b42966d3cd0ae54edc88ffb978f1b072f29580d6bed9d846200009b565b62004bd5611ca08801357f05df4053ce60632c04ed416d77b4a1fc047556fc360d0d2cab6f9ebd5792529c7f0db53c219fb7f92df78c65ea09319fdda8ca06b1161087eacfbf32449ac19c23846200009b565b62004c28611cc08801357f1a0c3d2dc94915f5f2b361a812690ef4ed607df239d9c956474633c391b590127f0f1255f5d54444e0031ebbd3d141157d8181954a56ac19cdc27ce9e00003a067846200009b565b62004c7b611ce08801357f186e182d4342c0f5c673ae6d63e7afd2fdc08e74474b947d7342e9e2218a8a787f04eaad28266391acb2fb66f8ede31d4f557a1ed4a2a6b6aaa2eb19b9d140d725846200009b565b62004cce611d008801357f0869519fe24cd73a7138e0c1877de1e0d59b94ffb728e738212caecd22bdd40f7f0cadeaa9561a7bc3f2e39a4a45336a4b5cf34e63e9b189210c6c761b6459e034846200009b565b62004d21611d208801357f079806d2890daf6c6b02a1f14b10882c0ba3e5f0f0a37227528c71b5b579b4b87f2b01fa7e452b40286c246aeadd40cb33db14870556a7492acd7415235e0c26d2846200009b565b62004d74611d408801357f0f1ba75bbbb4eab3da876c3617a567b2ff54ffea4f0aeee694bf987dfdc71a637f296a8d2214d404241f001bc7de826b04ec73661293dde7109dd428d4822a4a1e846200009b565b62004dc7611d608801357f23e2b740acb3074b2e8f41a5fef219116bbc5c9127f01fbd4dd498d399736bfc7f0d72e504acfbe0a0a26bc118a9481b0177d9d292109c407bf61deab35ac8cca9846200009b565b62004e1a611d808801357f238da8e683e498016a7a1af45f1dfbf097abc014e445d202d85dcf72a4a5618d7f21aa16d8cb36165b0073f27251c8a0090837a08ec0e74067338c0c6a291d5697846200009b565b62004e6d611da08801357f1d950813ca070f631b1b5f9165005333d06ae83ff115bbb2de160eeab5cc5e9b7f1b7d81677d6fc2e1efef49510ad293d0e1381de1503a5a2fb8a655bc44725068846200009b565b62004ebf611dc08801357f05adfbcb82504bd4974de832e22738470b9a24f8de83dd944760b2287eeb120c7ec6f0bb37a4b6db76b4688d1ff8932e17fa149218d651b7da8e8e4147793177846200009b565b62004f12611de08801357f2e3d52a69602c59223bac709e24d7f7bd788582c5ad62c3beccc166e8ad33d7e7f11fd94538a39899cd6e31d77caaa1233b3d64bac0ee64c9393e8302397287068846200009b565b62004f65611e008801357f18503e71b237d79d875d901947c056d2db254d13af5a6dc9a6bce0d40e1f05fe7f17d7bef7a5100f506abd9f517b2c7eeb6b4b2030fab9b14f66e7529bd37a1be0846200009b565b62004fb8611e208801357f2796bb8d5ff9b01eeaeecc0271ceaf597a68bff3f28993cc027158e95ca63c497f13ea1c5523eb6e48882571bdf47b76910baa81f16677cd3d5d44b5fb143fd676846200009b565b6200500b611e408801357f1f2e5a62adcd7ebb20ccf0eebe26cbb75f37a4d6abc3feb0f66c68d5e5ba7a227f1cff6d7dda3ffc6d3de85e986f48e87ce53da0b665d7a300bb68d2017157bbf3846200009b565b6200505e611e608801357f2b1b766af88bfe37a49440ea44e18381429194d4d59b4e3938fcd718ae49523b7f184d3a8016b3bec7ccd0393da582650d90016eb4d146d1bf3fbecf628f43d07f846200009b565b620050b1611e808801357f2cd72078b21e5ff8e7a8a4759e373b63630d03269b27bc171708a8c22c21468e7f1ce4a3c8d26675194204fa8c83105efd9189eb0da7978f993e429a2ff235d850846200009b565b62005104611ea08801357f02aa0b1e12035a37b4fe22d973cd4dbe32521c9d3d165dc4653ecf81ae1515c97f2454702f8f9dc787c0ca1af619852ae4876d8db53601bf985f68a8ea03d0dab3846200009b565b62005156611ec08801357e2feb399a991f6e75f1899d1c24408d9827ce3ccd0dfedf3f341437d6293b0b7f0503d7079d49994079fe2dfc8802fd6bf48c52618a8a374547720f8dc8f2665e846200009b565b620051a9611ee08801357f2727341cf869d30f847a32cfe50fbbe9fadea96cd9451b7419f9e23df941758c7f178c69de603e85df04aeed296ec365b69507c0dd7846b90491b8233f9d999cb0846200009b565b620051fc611f008801357f19a04b6e207cfa48e9619e0552e3965d38893bc3e0cd084c75af23763872db547f0caf865202d9453b131798ad0adca0278483efc6b65f62e03f15e7c3aacfef79846200009b565b6200524f611f208801357f29861eb3be56d8dc377aa94cc462e9e4aadebac3829ea61e7bfe6e5e2b7120a37f2593b08659781f8d4d09df51c467aefdc97bed094ffabb66bfe43c232e6f97a0846200009b565b620052a2611f408801357f035fa9ecfa27233672658d9177a5401d688add6f0f2e6998695328d7a9e78fc07f11409c2edebf0248136a988effe662905b2f2f5b06f4c13b4210ccbd835c2654846200009b565b620052f5611f608801357f0826e10c440497c48e0243b974de71f7baa852a3400c1ca401ed857a74a8ba827f1f2901460bd6a5286893b2b248a08be06f18115405e282576e6c78b14227f2e7846200009b565b62005348611f808801357f2ae9e5cd9e1075688e2fbbfccca8c9033b4a855a9041b6d601160ee567f82e287f1f659082d4b7dd2a60b0a555cdb6cca2cfa7d1f82ca74b01a528125bebd430c4846200009b565b6200539b611fa08801357f1dddc31b690a661d0db39c99614d637722c118c35654cb583c7a6785a98d6d297f2fd163c318f3150a827e6c3816c3e3c823524aa013ddd6578b2c1930ec6d9869846200009b565b620053ee611fc08801357f0fa37d15f86047a0239dc83494be02800c58bb1773c335ed9652768af745f8537f1eded4d31455c7f6187804b31dcbe1ec9f5c5575031c1096d63caaa3e06be92e846200009b565b62005441611fe08801357f1f4b03c13a0de33a29989c7c847b1c942382da7a940b54d952dcd7d4d586d83b7f0b90986d090e72da329440a87f2c6db1adbee43ddf650f920c698a3134f9559e846200009b565b620054946120008801357f27c1d2be99a06eda8f1149490829333e3e5b217ed1026f6384a581a64de578677f141b29136c3560327a96484eace5a96ec44b4ea25a65d75440dcea3f693f84b4846200009b565b620054e66120208801357f1b1217d82539037806dd16f7587ef3105a0ad1b7ace4634146a74ee01c94f8bd7edb6a4342a98422a444f2e9e3bbe103dc2915e1cc9cb6488d21b1752b66d4ba846200009b565b620055396120408801357f23716b8e3b987aca5d8ba4324e09477b51bf0e9f23c139f0b2cf710b2d0f28867f1c08961719c47bd8cf3258eaba41f2b4a168dc446834557e1d595faca8e24e57846200009b565b6200558c6120608801357f1b23fcd5e530823dc0fcbd44e3caf08253b4b345bb5c48a763998fee1a7908587f17bde7b77cdb403825951f7608567ad8f90a12d587dbbd91a063fbfa9531df08846200009b565b620055df6120808801357f07189b487b6290c0b938c42b93835bc78eebfa4a775ec0852987acf383caa93e7f19a87f51c26c48aaf697c8e9160eaca19269d23af4890104566261fe6e9ce2ad846200009b565b620056326120a08801357f260ec04a6496acf6abeaf87281dee48193998ea0936de6b6f59fb30166c64aab7f1486ba0502380b48b25c0d064d9924b1673775a21b56c95f46122e9772fcbbed846200009b565b620056856120c08801357f2fdf3ccbc2abe1687aa51567831264e46c7701d0bd4e03f3c167486507e006ae7f157962d773bc8e484e74a07794a9c0dc44414808caac7553b2396c2640f31a1b846200009b565b620056d86120e08801357f1bb5f7b2c54b441d78314f442ccd8fda449cfca9da374224943bf755e00818467f2896fa264f6b5ad5cd60ab50131246152bc633e22a34d25515b72fd935ee2310846200009b565b6200572b6121008801357f0d0a9042ab9588d2f85ed51dfa1cdfcd7a57aac9f7be9894824749d0631477e07f1ef831c30ab6bac4c47c41277d16fd7e6e5e1e497d4ad648bb5216eed62a9456846200009b565b6200577e6121208801357f302549746a12663fa87097b138340d296c51f852743818321d9a963d8c33435d7f1fd2962dbd84ccbdd31acdc4e566dae31651789374c0b301931a4f2f96ef57e7846200009b565b620057d16121408801357f2094d3ceea891ee766ed13d98c09be0245c42e17fccba7ab68ba0f894787cafc7f1268dc09f017c5a5a4f88b4092b91a66286d3be086cc8f83e1181838ecd09ba4846200009b565b620058246121608801357f05b1e09f3a6eb172ab5b51d183bc9991e58f6e21e121f81543534ef86b7c08257f1c3bb12eb99e26cb019e70f88c7fb25166ea8abf8e6df7600da93e5a1e928f98846200009b565b620058776121808801357f040ba490bfb915317dc883ee967d9694f76a0a82bc1e4c93a2436646bf424bbe7f1fa86dbfd7d9ceb6d58a64e38a91d5539de7d420306572c7ee3b579ab191fb48846200009b565b620058ca6121a08801357f2117eadf3803b856ecd670bcf0229d8aac8422c21fa1712b8e2a45be0341ee417f2d14222f4530af0f5e7a21c3307912e852fa1f6b2bb2cea6be569e88610f0759846200009b565b6200591d6121c08801357f210c557cae280aa28c72ccc848d35b37cb2c069b7d4bc06b13cb8554bb52d5e27f222790d0ddeb5ebeed55b99aaaf8824a1644a5635b11b986bf6b35bcbd163c88846200009b565b620059706121e08801357f2e5046f503d3c80c0bc4c368a4b00b46c7f92e8ba70b169f3dec88c6c92dfbfd7f2e126582326cfde2ea885029ea5780b449fd5428f7f04141bd0c4bc2fdb5d44a846200009b565b620059c36122008801357f11ba82d34449649a70a0a1d453e744c99660cc40c4472fd0127f06cc1709eb827f17132a87ce6c92062f4ebc47f74b14693c8d2e787a91e854fc2eb90cceb074cb846200009b565b62005a166122208801357f2136ba53d57c4a5007c5997166976bebcb4958ac8a2811f189e84097662934177f1765c60e785be51f246ddb04b061d6443a5237bb1810aeeb115e2aa4b63a1d5d846200009b565b62005a686122408801357e59f31d19ba1acf48dfc54e1637f6ebfd25f47c87f777ea93fd0cfffa97e10e7f20105fbab032bf302f6c87dc6550a621280ca228b20f467a0e17423ae17ca708846200009b565b62005abb6122608801357f0a96e799780d1493a140ccf501f7991d239a20c1731bdec6f76a6e3d5c041c4b7f18f16573d5c4dd8a6211309899db7ccc661b8a5f8f35a7f51596324527cd9448846200009b565b62005b0e6122808801357f1a1e48439fb77ac0fe30b95462bd17e1b0c3d55ac3e217391515c9f7483ef37f7f175aa9b6fcf10ce636237225ba1fcc6f5b341472a93b028fbe13eabfe606ff34846200009b565b62005b616122a08801357f0bd301a9e5f71b3cef820460b51d7bf6eabbaf8a7bb9e02570b2099a4901f3dc7f091714c2d635ab96502bbfa86b8cb821a7351a30d2192f49c38aa6d294715ffd846200009b565b62005bb46122c08801357f2911d69a58d994ce056efae870150ccc0d941052c827d1270afaa203560c07cd7f29eadef8d274f335d24c707f22bdd35ad93f66ea824c115986b8b89f0ff0d1d5846200009b565b62005c076122e08801357f20ebef0d55527114f7b9993a13dcd6cd321d4e616b9bf250cf64d982ec886c937f0a2fd9e2e2275a90e75e0d99925a9e4d411bc4d95342fa9afc6fc80e326cac6f846200009b565b62005c5a6123008801357f155d369776e03a8967d3d0897b5357c820da12d3342406c07d783c54e6fb05157f21715fb3122a2188856abb85fa215a54a5f1566012873cd89da88facda92ec57846200009b565b62005cad6123208801357f0141f813a4dbebadc44b94ab52251946c3e7f39f9fcd1af27e68b0c7fb6a27c97f299a5697685415dfd902454a9b5389801c518fcdb88be039ed62e4739cb5d229846200009b565b62005d006123408801357f11fa6b809ef276cea84a94cca9c344de1a80d3e1137ebea262af10fff8cc45147f206362db2da8b782be9d6f046d9200e23e159275f87935d74e73cc040ad924d3846200009b565b62005d536123608801357f03e9cd7f8110c91a78750dcae6719dbbe8ff8ddb0d6e9e87b20c3dabee3d53697f1fed7e6fc8d8405c7698ab23d9366f712c775b6560a2c75a8b8133202709b111846200009b565b62005da66123808801357f2c183038b950c6adaf7b0f2e6f3d309430fd44499206c20ca3c411f3200ebcb07f298a16e82e02f6702e5aded171259f99b1ab7a680abe0d94f30cdd0fb2313073846200009b565b62005df96123a08801357f28b6dbbbf4efd40d9fdf63dd2184bed73bc2c610f7e04c7a3e780d3aae1a35ed7f26be38dccf143b1e2ce7cda792d9ed7f881f88eb1720e6689946c284ba003b6c846200009b565b62005e4c6123c08801357f1aaeea61a93330f2628576fdb2be32f93e9d4d9db689935df11cf8c612ecd0297f11cbdae71047efb126194131c01fbb5ccf4b04ce5fb8780e4484b4da1cf4cbf9846200009b565b62005e9f6123e08801357f2ab50293aaf6c6790b6c77a137dc5ec2362a72a2925636af14f1ec15bff057447f0a3da878ace03e0d1e13ed8856b3c519f61f2b0aa27e35414b066831ea78ec94846200009b565b62005ef26124008801357f1c930e5734219e82cd3080dcb3e52fa0f7326b7b3cde67620046daa7fac7b7bc7f1a3853b126913f1316da4be4c0c40be0bcc57eab863c4a1cd5110b2cae53ca9d846200009b565b62005f456124208801357f2ac313464d3868075f5a1e48f3ce523a28ae089079f4c78c1f99060157fe913a7f1dc2770c0e3097fba4b6cfb50eb7876e48ca301d4bf71ebaa7e23a4abd7336ab846200009b565b62005f986124408801357f0db8a4e2db8e76aa758343f2645ff737e893bf39d2c25ab9037e2c54e0561d9c7f0c39eae9a3c71cdd37932b0b6672df94780e29e3f7dfc58345ca6e065e8e5bcf846200009b565b62005feb6124608801357f026b1afc38f64712f82c81a4c39d9611ab2b59188e45d6e5898313a7b9dd16bb7f25947d2b6c40e6fa3f4406e7cc919b9b0cfd77312f6168d3019b855a9e4124d0846200009b565b6200603e6124808801357f1123bfa460ee2a6ce97da87435b4208cd27d8dcee4425abb5c29df29945b14d17f0ccbfe9fec0145f94f994dc60d7bc640e382e72213fcbe7cde0cdb6e49decf41846200009b565b620060916124a08801357f183801ec0415fdc11b040b9f6f2ad7e0b9cbd002d70da19b3cb032db08c07dad7f0ede0ce14cf8649ac5e55c59c19edd18bf151c7945385f0d7c0fb9f511dfe18a846200009b565b620060e46124c08801357f248fd813cf8ab6971f81270ae79829045e0ee3e339e6ebf7bdab3527cae628467f1c740286fcb88550011bd3c31bac2727b484970aca53ba5ffd8cd48ad4926cc0846200009b565b620061376124e08801357f0d1bc2897e2d9cc879a6bf6e16897969cb7f172419866005a72f3ccf850b182e7f13f9dbd0e74cb3cb47b89809bb20c8626560362a4a1839849b269c63a16fa118846200009b565b6200618a6125008801357f13291bc64564e57a9563b7352846f1079699c5af21f17f644c248eae0154d6797f1bf9d82e5d7e707175595a433390a3da299e8c0219c9cd92b1c57f58be2375a6846200009b565b620061dd6125208801357f210b7933a6bb3eb6b520ae259ab8ac4ced231263aac7996a733d04c3e54dcef77f19008d14a5c3ca008d8a7c452355f631494dbf3f239d64a51a26fbf3e22da9a5846200009b565b620062306125408801357f1d3156d0576839b0d4aa0fca00e84e390d8ada62462d2d637c96e56a4b0f6a847f21072035f324149a4221ad0d2c3b054a4f4c1d76b8d126990994acb72d87fb0d846200009b565b620062836125608801357f27bf325f8840d95045f86b6f339f0b058303171b15316b36205f8d2f835c65807f1c0d36c626848c91f97da6e9bcc067957709ff1b0e77668efefd1a535f83aecc846200009b565b620062d66125808801357f2f8a964e774d9538047a448b5a058e6a9f56357abf324491e7eb07ebc51600387f2ae38fd00efe36ecb36e3fd67eff9799daa1631b0b2d5c75fa3938a9d79db147846200009b565b620063296125a08801357f1fe45ed13494a5d2b295db9fa42cbba205c8387e55b01277ade5890f26d0caa97f13b40e21ae8fa34e8363c96ca8bcab151936ca9e16cfc92d3a2e456213a3a037846200009b565b6200637c6125c08801357f2c751eb543e8debe1f0a001453e75ba0e70f2cccd528f7176fc6eb4439d4152f7f182e56ad35ca6f67bae2aef753b8e724d2ee730cb1ada36d08ab2fda20a38347846200009b565b620063cf6125e08801357f18dff3bfca77170149fc4054f6c776e9a6bd6fd6e3f635addb40ef49fb080a067f07655850bbcf3fc417746b4db0254ff9184f21d40c46760e5cfb06058f120c1d846200009b565b620064226126008801357f1334f3a1816a29858c9e61e344f98465f586ff2ae303e53863d2747c68388ec77f2050a3205c461c6b12a34a695ab85af8b534b1395c5f443f5218e220339e75f9846200009b565b620064756126208801357f1b848430b420d1130f5e914e6f787cd3aa5813da8b9a527209faf049b1a93f4f7f181a651127b6cfc2301957c13b8d62335896b2a4beb79c71caf8067f34dd953a846200009b565b620064c86126408801357f258a116e0f377c85502efb37b6083a0c3ef782a9f11df84abf5609f301c50ff97f0a97c562723e6ca3dd9af067a41251a00b41dcc4c916bee1bbca8abab1e6a246846200009b565b6200651b6126608801357f0b5b407cfe7544cc6611cda9c8b27e4c10dedff2ecbf3ea732a89b4b608ad0597f1c3313831bd6d2793c04411cd3d0d8280a3b76ec907dca4c952d4d00d312f0fd846200009b565b6200656e6126808801357f0a8190418c820df70d68a4a9dbd6665a6d516422ac8a1d6947f8d09c4b8979727f28834c69750228aab379389df072e712ad8ce067c018df100de0e8b8adf5749c846200009b565b620065c16126a08801357f09fd32bc1069da4c050866a7de9ce241f020333988a34dcfec8c14bd5bd7dfac7f1f67287612d7feb5bdb4eb8b07b4f6cdb1c42c373b6e11c5d84e421bd823a2b5846200009b565b620066146126c08801357f094b6bcb871fd6239c5a6708933e4e4af9b708d7c67b427b5070f7ada67089447f0c30b7eb61278dc45d51083be3b60b4f86e29a0b8e6efdff5b13f9952add6933846200009b565b620066676126e08801357f1bbe7f42b34404d13c949f09d3a764b7136fa763770af77a9aaf80c9ec2d4e6a7f0e000c53ed2525c2ec13980b027eeb2576b0bd85b7c82890cf76eee811f49fa7846200009b565b620066ba6127008801357f13ab6574bc6859ba073e112a2f015133a2a8735cfddb80f44ec8f57b322c40a87f2d6df902cc7e08e84007d44a0129751336a7bad943b70ccae6f3262f571ff1d1846200009b565b6200670d6127208801357f182d1e9f6d7022395f8a90a47e9c9856b4853975c276b537a1c7c3f45a298c0f7f01edf1aaa13558ed49864e9d17d574ae69f7cc5e2b214f07f27e92d44c49a51e846200009b565b620067606127408801357f1f64b135216c0deb5c7c2953ca77b118cdde148903711e3c1888b435ecfb9e817f102bbcd188c3721068f5283943a816d87a7b075cb8742c53e0e0a6ba71587ac2846200009b565b620067b36127608801357f25e635a251cdee3ca1610c3a9cc59cf591b2055c73c664fdc6d0f48757510d7e7f1a35ffc8789f3ce05ad10a635bb1b940f578647674295f5dc0b64e95626546ed846200009b565b620068066127808801357f0b6566624a182a3d7e4dcf504dafd4552ee2fc43b1da7e06ee3edb05ac8198567f2fa048dc1e076220fe02c6870d8ce18091cecc921f41084ce585f786a88cba6a846200009b565b620068596127a08801357f264183cac08dc31fdf154dc302349a9d3fa198ae3cb10a08d9c5d150de962f907f2b0d5508cbdec97ce6828a345f8e9103d57ae3ab95b876cbfa337d95873a27b3846200009b565b620068ab6127c08801357f19e11b762f3a0b63fe78f0a60a948787870fc2927094584e885c4b7d3abbba617eec3c2703dc5c0c3cf38e8b21a65e367c8654c00a3d9db6d3a3b68e5b015465846200009b565b620068fe6127e08801357f1f78abc536660183601b35a3342b86b60635c64d9bc4cbc24db77f5d27d4132d7f052c2a5c82ef6418938e93c4b8ac614676fa898f0e5ee167b1afe4194c6ad97a846200009b565b620069516128008801357f03dfe7bdcd4038f266a6746d0f0b7c1aa84061b92cbdfa68bb8c9c53d65cd6807f138f457bf64e1d4bd0179b60b8255f9f7a7a927b674f59be4fcb2279abb85fb3846200009b565b620069a46128208801357f1886b5eb40146964c5f09021ec6c8a4b4236b5d7cc74d9f4f588bc26432bb6467f0ae06093e428dc44cf56bdbba99a82b405a6d2a6577eaacbc92660d71974cde7846200009b565b620069f76128408801357f1acd3e3611faf6ec395e5c8458b621873e825306884003f88011ed62e22f7d857f2563ad87d5f6393e195b52d9d361669582b98b08e0a6bb4d442a02ba00c7e95e846200009b565b62006a4a6128608801357f0ceb77aa092dfc5a0aa998a296f55392d3f9464c81f46c1927a3b171931b5a687f1eb6d91587f9f236b6bed83b3d8ca3a93c8f8314c366c2e38e73841b21c03c8c846200009b565b62006a9d6128808801357f03c779ecd322c76500c9004fe1a20c18882f00f01b86ab477ea2889f9b6e68317f2049e459e5faa54df50c2f5b901e8951c50499928a3c6f3bce1c813c746fdc14846200009b565b62006af06128a08801357f237fadbcdcaeceaa42031e868770d2be3a8c09f7309f6c8aa96b84aaaa1ea2437f06641548c96c74a60debbf94e2fbe3a853332603079030ae534a83fe0f2a8c8a846200009b565b62006b436128c08801357f23771026012fa45441fe1e90c797de39d15e6d1b5c75d54041041a6821d816377f057e037d732c097039b553e66f21694e89499ab79710cbe653387604146665f7846200009b565b62006b966128e08801357f15984f36329ab6ffea4397a2df24100333ca2c61aa4344ab969ea11bd8037da77f2a965bdf39c455964209f20567c006eb6821786e420bcabecc6565b010543567846200009b565b62006be96129008801357f237e4ec984cbb248222d2b1937220df14e8f0ea5ad826821aa4ad9e0e61c58c07f069090c028b5960fc365aa698b4a0d31de025c0c9cb9373207c6517533cf3b8d846200009b565b62006c3c6129208801357f0f60a6137fb584f2f4f4362d4bdc06e8979d58c3803fa4e13512be9bd6a9878c7f14249ecd312537e61e012f903c5332836eeb006d42335733fb2007de7af045e9846200009b565b62006c8f6129408801357f1438c66e60fda5184db15fa72369c27b91c0602d9f9661fc8a1d0fd65d1df5757f1c11c8eac31d62e63c93c3ad71a7d809018e009c5e48af98ed9345b89a2a03b3846200009b565b62006ce26129608801357f08c4e59639f83d4ced7a9a4caffd81214e41efc81316ff1700121ca488fe43537f10a227a6b483ff387c41ca572a7dd0fbbee40c788aab810d8946b30ca61e3b76846200009b565b62006d356129808801357f0746c4bbe3d9499f08b7849d19c388e2a8f2fd7e55fc9f0d81dfdb0f81cd3b2b7f18c25afc6164eeb0c3008d0cac23056957555411ca44cfb59424dddf9a768b57846200009b565b62006d886129a08801357f28ebb74db2ba0042c252a5e6c57c7a4a8cf1c3ac719ae91cafae7dd650d2c20a7f08844368c1a08cab9dcdf8f0adc9afe2cd749d11ae0f1d1fcb5687651c58817b846200009b565b62006ddb6129c08801357f029fc6a154a83f5f3dab934be5fc3f1bbcac9d1cca7696b04861464bbfc9f9f87f2572bd6060635c96d5aa1cd3b76f9d704ed161b376d47ab6d97f765833547c60846200009b565b62006e2e6129e08801357f1ea7c005b2cb44445271f27739c4d90ddf71c6c9851771fe85a66457415724ce7f0ce21a504ad6eaae9befe4b5b6f177f43fac75d737defbd24fefc2bde2070b28846200009b565b62006e81612a008801357f24e8111703037ba03f39f68c05a68c7f3a1e405d15e99e70f31a1827bb6901a87f11dd16b7dde68223a74419fb74bef22c333e5cb73b9be3ab9682bd1ba9cfc657846200009b565b62006ed4612a208801357f01dce812d96b1d944759f84356535fb6c6727e27cb32bbe6c390f78a07d9fee07f1a08bb0f9bc53f72a5928242caa164b0cf9aeb5c8a376bef32ab004696a028e6846200009b565b62006f27612a408801357f2571bdc3eeafa7ced4c7a0b8e3e58d97c803507ac59be5314d9cb4ca76fe7cab7f1a4433b69aefcbc0152fe9f9057672905ae050e4e9c9238b326db5960e7d2b5b846200009b565b62006f7a612a608801357f089c3f9b492a85dd0fbceb74cee1fa8815c656a6e8b18e5b68f6e7879b1615007f2d094026dd915498fbd54f809ff99a95430365db8e1c2c3c3c9ccf891ff82403846200009b565b62006fcd612a808801357f1671e111f17ff56de1ff19fff1eca4b5d8dcc6c7be4e262915a675e8c987b73f7f2fa8faac15bb086186a90c989e14ce7ddee42b61ba39f52cc5d26fa591b4bbee846200009b565b62007020612aa08801357f205ee63b01ede1c756850a06abef53a0ab9c21c59b48ea2716ff844f980626617f02437cb862d0704c47b95b7c7c4d93d4246f8a2bc0226d5bb18f84de8c52450a846200009b565b62007073612ac08801357f1c7c52ee3c6efaa95152b77bf4683a6110c217b87646aac48ee87742cd6b41b77f2aa082679e8f86849d6cc9cf8e15c38f85276b6334ad10c0474ab37600190a10846200009b565b620070c6612ae08801357f1206792e0811b95ce5babbd4a3e85db76d187e749d50863fdf85f798c621a5627f0ce8d530bfceebfd398d45ad950aeb37b748db5deaeea1c320fe9ebfd7663ff3846200009b565b62007119612b008801357f1c78a33a61bc2e4f2f055a03a0ed7088711e249a9fc09a4751c8797b860c00947f15c74d3490218f427fec500289d7a3e90859fb168d91c39f3ab5cd07423eb6c4846200009b565b6200716c612b208801357f0d45870dd2c312d4b669645f6e1a1d3bcd460ebee6bae1a0619256a13992a40f7f1a25ccbd6afa6a52b4c552e9d01a7887337198def4f83d589a6a2f0e15dc98eb846200009b565b620071bf612b408801357f0813933da10aa9c5c3928bf2cca252d43377f5804d6ff2d502f99667985da2b27f13732cecf1de9ade9c95fa7101088162e8cbce8e87157e82a1968436b1d94eb2846200009b565b62007212612b608801357f24f17cf128b35411b1d38f5c69a0e775b5ddaae58faffb866bed1c71ec5b79dd7f14f4c35f62dca005d0e121db34e59494a9f63e5223289ad8e6c54098e717e60f846200009b565b62007265612b808801357f2ea4f4b375afc8976b9700f73b04f2f1c2d0be6ff8045441bf5c6ba6bd2ad88b7f04a7bac474c62a3293780930e2f946c06b55fa8c4ef633a2a08b442f044cd97c846200009b565b620072b8612ba08801357f1a9e76361fe398a837e2829987b8da97fd70e224b682455a352c128635e5d7f27f12eab13b0257c610b0236a12aee62439972f21000568cb15db675a3d88002301846200009b565b6200730b612bc08801357f257a5a90c59372d6995a4a48f524bf0570195115d8b87c4cbd23ce02e799068a7f1cd43e2b7b99c82f38ab6398d898f2fd9938c66c61c6b8c832af85e1c40d1e97846200009b565b6200735e612be08801357f1ad7fd808b2fb450958a3edad37db0e7a5b2688ee2a2307a462efa270db2bf067f25218c82a51058163d381928dd2b4aa7a730591abcea6dec0fc66667b440d4c6846200009b565b620073b1612c008801357f258171926a7fa77f4f824cad222ba1cdd5a31edd944e2f1041e8638e484d6e5b7f046433f08d45cea2d3c11026ed4ad5abe1eb512ddae274fd7fb3b8f6ce250c30846200009b565b62007403612c208801357ef4c7beb36d4fe156c4368d5e33b9743a20ff54191971283c2afc02a587c6017f0d31c88838df7732025ca876180de3a8d9489e814b5c9e64e9015722220893bd846200009b565b62007456612c408801357f1ede6f93200cfd7866ade0af9749cb89efff093d7e56bf633f629d2fa3d9ed257f2a16c4d9b8cf67b2425420761b3347688b51aff09ea82ae9b8610ecb1cbdec05846200009b565b620074a9612c608801357f02287756937049efb04322b5ee8b1d770d05f06156e3695d4079c1237a695fac7f0773f06d11408ebc91063b2df99da65d1de1501dd6ddc875cc0ca19f91468482846200009b565b620074fc612c808801357f155001993af7f10eca01b6a4a5d4cc88717db2ee0e051dd69e52159d06c2c8297f25e7ee2ad80d292d9a3153deccd573dc0cfdcb1d831011d444ce9146fd391af6846200009b565b6200754f612ca08801357f12279da335df96e9a6b30cbf8bd66a58052566195e1936c55d9d1bc9f65d50887f1d4f08505ddf91bcc8d094f0c4da7d539d59fd0a92ce6b189cf78f4862ecd494846200009b565b620075a2612cc08801357f1887501778ee269f71358e22616a9a1c9fa0ef63f9396d2f98e872f0160b36777f19b335f1b04c087b259d4ae6cc387b3aa5aa31b194f61c413715fff9a615c258846200009b565b620075f5612ce08801357f19d733009816ccd20ef8d34e82296a1a3aac2d208ae7c4cff5345c296a578abe7f052e802627f4934d6642848a0aef356d0eabc0252b80860823cec15b6f596b0a846200009b565b62007648612d008801357f157fc5898c4ab986d2aed86855c61e259f2db5434628a39856a01b5ae5561bde7f25e766c48c0a83424d1ee298c2e54dbe5252fea65dc3fb0001ba7936b723cf8d846200009b565b6200769b612d208801357f24a665cd537095f0bab0081eac2772d82f307bc3ad3c80459554be54a346b8067f2ff63d185b143845eadac2b4ba9d943dc7ffb946ad9d70350aa27c5ea6307731846200009b565b620076ee612d408801357f182bf02943944f033231acab5c650bd83db8a08dd10ee717b096dfd8704919607f12f7b44126f9b034f032e19add3221db02685876a86db53523c6c5ebb3524bea846200009b565b62007741612d608801357f0f119ccafdf0c788a9d6debc53f73e333e9c80ee5ad0b683e2879430650d04327f2e7ef4ef433a37e375731c30abb43569fbd27f2e9fa310999a1ece6597ff2ec7846200009b565b62007794612d808801357f24cc6f33c1c0bee4b59d19500b37a32e3e4b6c2e173f0200d8185b59fd6bbfa27f07ebf52e681a4772bc099da6533613f84463e9858c24ea3421f9fbb29593f963846200009b565b620077e7612da08801357f22dc01eacb61f4649695e1726236fc78d5aea2e51c815dc8cb1fb817c5d8fc8c7f285d035caf1d87af13a3a8939abe6459ff74eec0cdc7fcfecd00d486674459da846200009b565b6200783a612dc08801357f0cfc11d9d40d4c0f07c650faf147c5c40b65286b5adbaccd8d1f127ed096bef37f0b909eacec42baa2dbcd7d2926dd0331e5bd0ee02de2884120a1699df861dd8f846200009b565b6200788d612de08801357f146ce607021b95a9d0cb7e768267db211c1c50fc15ebda10e0d2279cf6fc6f6e7f0c84b8d2f322c314da967f51ed99edb1d6e73ce7af5ddca29cb97f5c08fcbdbd846200009b565b620078e0612e008801357f05283b718718525b1a91233e24b5d8d449939ebd6f97bd6f8d1af51501e9a2b17f0c5741330e175f3b5f3f80fdfdeab299dd70826cebe3dc6b7a5b90ce357f090f846200009b565b62007933612e208801357f090a7347036f3fbfafce361f7100f08a1362d3bee548db9487388ea488d1d84c7f1eb31831331a6192ced6566fafb6279c8253789aa635529929616df522ec9c7d846200009b565b62007986612e408801357f28c9aa8d6df37c5873c0e056ebe65c17a1f6ac90b53b78e86cd5606ad8cbcfe57f27c2c1bebb37c4398c13b4c7359b52258878a8e98b47b3fb2669e611dbc509ae846200009b565b620079d9612e608801357f25087e09f1e0f2b793f9e8797287ed14340fc19eb981b8b7c62c06cd34d6b1bf7f277b2b20145a45549de4fe66d30e3e53df60baa16816e304b9b7fb651f968fbb846200009b565b62007a2c612e808801357f10c78fd6555943327fc36abe38023b32feb9291a07af2f3915db2c37b0b9eb537f059790980cbd29b529ac0735216497080a8082a87ab9b6d4c1a05f940863f2fb846200009b565b62007a7f612ea08801357f0df084f2b11c905c66b465e07510953440e1a138058dda4f2d4a75f7351c79f67f252b8e4e90b7c84cd4c65220d299f1af9800b94574692924ac8eb391acbcc481846200009b565b62007ad2612ec08801357f1f71b6fc9029d9171be5e39acd20438d170f6725baf39c6d48962b9fd652c5fe7f2fb49094de89bc5b9c5e71cb741a1f14787dc3e751af96f711263d64b6e26934846200009b565b62007b25612ee08801357f08a0656d6f5c6838723b3b46ed5788e56ec4a57b0a98b8adcead77a75a6b202e7f246f8ad1e235b805ef0a76e2a22c5be07cdfa7aed146bf4e1df061c95f84a179846200009b565b62007b78612f008801357f22826d89b31badd7fd52a29e2e9bdb44657488ca35981540054447bb0634ba547f06ab5b4363d00468e7135bd940b1f0004a6ecca02b45161f725d78f2ebf5563c846200009b565b62007bcb612f208801357f0ed56ffc9c8eeefb954799980687077bb032342b87763c8dbe8cb409e79b25277f25e1ae68bf70dc05bbe499d2d984ded619a871cdef18bfab23dde775ab0435a6846200009b565b62007c1e612f408801357f1e6e4f2f117577877eb9095f2a8fe13a67ab4a7467300a0dc0093bb566ddd39c7f15eba3c9872754b0bbc8de8cc7c5880c21dec4c1231d283b2bdbbab525db439d846200009b565b62007c71612f608801357f2ed8a5a8433d52b9ee7ecd59ada2df0487b02f3eb69045fb77d21935c18e0eae7f1f43202578b9102d4f86b28b8d84bc46cbeb34d269313bd289183d6514c628c0846200009b565b62007cc4612f808801357f1f0fe9136b772f907111571fbbdc0341658f5efa1b6a564feb92c30dd4d76d537f0db7960f3cf0107fc1511018b68b4449073bf227d55498d46d339c01a5d00e55846200009b565b62007d17612fa08801357f2102a73a932dd1eba2e270e0183913cb656a2d1d50cade5c18a582a03708c8ff7f0f2d39a464407c193a8de4d68be58576052f78faf35b49ec84b90d63a118b3ee846200009b565b62007d6a612fc08801357f16c14617454742bc3423a0ff103693eb25a49d8c066acebd4e8599f4207842a07f07f923b7ae318e2c835399ef4a2bee81a083b6ab3df83958ee590edb18a207ab846200009b565b62007dbd612fe08801357f11b05f9cf7ab387851fb041d117de0ddbdf731e9586e093e413d950a5c4c60867f2eb30e5202ae237191fffd23262b62f3606ab1e570c4cc1848b9638abd836928846200009b565b62007e106130008801357f1457f55f10e9976d6d0653fad5f3e788663b9908b6d92fa293abd741928662147f0a421b29fdff54a8df07ec9d1895704771496c1eadd1957359021279f8d7a31c846200009b565b62007e636130208801357f21cfcd5c60193617a75fceb62e60e5ac9e191003754d5610aae1c70d25b6123b7f25e32e9dc2aca5dd6caef6dcb622f5016f95e3a7abdd948d148d197fc2e7e087846200009b565b62007eb66130408801357f01648ba5227341072dc3dca1ee378b1c3746ae4e52ca8efb67e42b6fe9260a037f1157244484e21e5fa6b8f2c8fd31d3029d89c38753e9ec646ff56b0de391fb2b846200009b565b62007f096130608801357f1e817dcd3192dca8132c7175214021236a49db39c99881a3a96441b3be09878a7f26d1ce7c0ab468d08cad0dd8a6f45cdbd358afd9a08b7663c4865e372ad4f737846200009b565b62007f5c6130808801357f22ed3e2597a845c2412ea8fe695db481b8e17b786421db6d50f9ec93f5741c877f0cc43da2c34fcdfc51d0620b530b094be9dddac0fa417be671aa370f274146d4846200009b565b62007faf6130a08801357f1bbf1faa9a03b7197ca3fa6e156fe0031446030c3ea02020f8f1717ef7cc37287f05d3148e9eb26cd2f4f7d975ff80f5d29d951a581864507489582626de018ea1846200009b565b620080026130c08801357f18e7e5c7a4fe4ff2841cc3cbf98ca74e331d333c5a3979163c6915fdaf5b3a1a7f1694f479660a22ce74302ba3cee1388e6411570ea4773d6721d5602ca8f37d54846200009b565b620080546130e08801357f158f2ebb25248bbe2012c4407f6473130697a19184888693e6c3f761d0638fa37e215ad447228ad936ada1d68c31ae1809f4a4a4f007721ef626fef78bfaa121846200009b565b620080a76131008801357f1e698d64702e20f761d5a20c3b0337cf57341338a6120477df7a89e9bd58d8197f1e0a881ef2fde2704852b1b7644d2760eeaf60b68f888845b87880f4633146c8846200009b565b620080fa6131208801357f109f867a30e7d448fa7bf6a8c8d25e5e899186af4275c2759bb1cf18855355477f0bf6bffabb81754dc571cf390eaae495527c7dabe9bce517699505cf37d6a7b6846200009b565b6200814d6131408801357f0b37abe1183166bdccdb2797591073adf394c6ccc5dd807a8a410c02ffa136a97f1f0f02ecd58405b7708b9331c013d9b029ad2747c7a1f213aee3309047414211846200009b565b620081a06131608801357f1797f264d299f6c70874db976ae85a3582db4872e2d827e4221dc6d17fcaeca77f17f415da8ff8caa8613da9ed8c650c6753d29a3955bc672e3562961df8cbf69a846200009b565b620081f36131808801357f167ab9915c9f9f3c67b2b35bae0cd494accf568f76e2d5ed190b8a70bbc8c05c7f2dcd59b5790e0ead05bdc9232fd8a65db2b19449a8eea3452ab77c51339e21c2846200009b565b620082466131a08801357f3001decab594f95f92c11c21205f93209e110b5022d250268c2c446edfc081887f19842e50d864e5f025993c0bf63dc9217eda9b411508ade191252e30d149c2e5846200009b565b620082996131c08801357f28fdfd33fa07084ecb867bc1fb22e8014601bc898d807d24e68548b86956c4547f0d5e28d3d61bf3e5ee5d30872482c7624ff0d6c5775c63c0b30fe16a23ff6ab8846200009b565b620082ec6131e08801357f05b9507eccfd4384f8c1662478605165b95b59093ef474f5b0982dafc8510a727f289953d500db10636a4a0e0a01aa7809eeb6978e54fad5091a9f801af6e780c4846200009b565b6200833f6132008801357f1d30a7d89b1589ad0f251f152d40a6177e8de116ed8ea9d9c68e3cc6bfbdcc427f03e026350e87a55a8a2bf088839f7c7e62b8b0d7a4606414f4ddb88f8ed373bc846200009b565b620083926132208801357f056c52fbde1f7a714eb8c9f769cb7f3ee1365cd02bd3bcefb79a4d66ff73bf5e7f0d0e97cc9831d241daffd2a5c2dcc72d619e2b7c91503ce96f8032a06b92abe9846200009b565b620083e56132408801357f1652c228e2cbb550eb61d5dd7f616164a2a5b403046ca3d1fc117c38cd0dc4af7f2c0bcd1408ded37e0737d4022908b0de9eb447e67214bd4e87ee60f448765431846200009b565b620084386132608801357f2e64e841a4b5ad63c9198d7284d1cea3d2814a3036a46af8c7d9f6ae4dc2ce5f7f16fb941f7ef9799c97f0f9d9607ec5ea2e19836a51c84c877fab3c9882a4c419846200009b565b6200848b6132808801357f16f933ca7211f911ade08d7a01be97ed3af5d0b5a6ea094bf252ee1000d540597f2f77649f03690613e4aeb9d42eb3046ad4c595ed4eca9e3357818bb926518a9e846200009b565b620084de6132a08801357f2edd33a81bd1f61af98702f798fa8a6579ce536235893710026bf1af5dfd742a7f2d4a0625c8d076a97eadc3baa3f3841467f4031ba9b4e8bc1358fb94bc24b36e846200009b565b620085316132c08801357f27d9299a44caff1fac35ee417833f763c86c634cba2e4cb8649a374889b36a6f7f2bbbf0fc0cef19d29eb5d13d36b158d026a959e85cf1fffeefae2765e3a983a0846200009b565b620085846132e08801357f2e22830ef4c9c12ac6bc3384c587014665866a30af1c6e035e4991f26198cf897f23327c870a0f5ad99cae1e472495b4e5b38f4f172a37e509269799212ec55ebe846200009b565b620085d76133008801357f056f9511aa68b16ad7acda430a9d04c53bed3828040cb090c75cd7107649861d7f2f7e77622872baac70a7170488b468a6a831109903b98bc1a8e3064b71e10ff9846200009b565b6200862a6133208801357f2be7b97c7c4e5f36fe10a97347f9eadec6ced854e2f63c4a0602203a3fa8e4097f099fc0e047fac95c6a00c02fde65eb2807e7ebc7a195dc920167f619120375df846200009b565b6200867d6133408801357f302fea6c3f1f5a6e9271f745f4e104f0420ee97d0ef022db217345c550827a977f1d2ba1c27c7e755491e0802311d1591366e55628770d4e316ee6239e46c14f2f846200009b565b620086d06133608801357f051f3752e3e108f0cb2a22c336c0dc29fb773845067aabf10ae4f000e8cace837f1fa1ab69fc084f4f206a8c276c93680118cc19310f7332ddadd06f41ee4a8036846200009b565b620087236133808801357f21bdf951238b3966a0816f1db8d863da890dcc1c50fdcecaea4bbc8e52e0df7d7f2f9044ffb5ce4b977fc8a543f00ccd081e27656d19b8709586b04a5e2e0d36c0846200009b565b620087766133a08801357f046a0b58f880ca7ecc47c5c3aff339ab7375bf88499cb2b5d67994bf38ff4ebf7f061b41e039cb91efd88183a4f577ab537e35c00e5c524a12fd1ecb67b5a22981846200009b565b620087c96133c08801357f07793c960f00f42693f1260fe9bf98eaf2a57cc81cce98cf0fdac17c3aa2acdd7f107b48ab7d5ba28e9d240bc2643bd8260bd0f7b0508751ccde3f92cfc696267b846200009b565b6200881c6133e08801357f12509b47658ae5637736add853f23e84545a4eb2f113eaa258dc25e9bd47ad597f144c4e658e9fe5b71e2c2a14ce5c8270e79026c3d97b79802a050ba06ce7a6b5846200009b565b6200886f6134008801357f05b94c2477fdaf360bb713768a2fe356b705db2f8ef35f0125b4328887a927c17f2561dfb144c4eadf7bc5999651e2b260c024a115dfe871f7ce1d73f07a58012b846200009b565b620088c26134208801357f16131ed3780e464ac787bb6165cdfd16116b5c3f3e09b98b74131170b44d41e37f15c6bb73bc13d496efcb6af40e98ed67b674d16a0b50f87b88d3ccc531ff92b4846200009b565b620089156134408801357f220ec264e3f26eb01665742575ec65e870544429e24b086c5690b00228518cdc7f1cc5e7511d40901fb2fef5274cbb22f0d54f77ac001847ec8b795d524b72cbd8846200009b565b620089686134608801357f1ffb8d943cb4844804dd00b6ce89916c18913a45abff7362dd78a00eef0f0f567f243041a4df52568a15fc8ee56906313a8e19ebc2890cdf834a6c132241856aae846200009b565b620089bb6134808801357f08c2c6fea3d7045502508ccf706bf232b32801e9bcd400ead37b01a8566733267f208f75fe49d868058fbcecf24ea6e71ef0c12ca2204c3ed0d78d8059c274f68e846200009b565b62008a0e6134a08801357f1d3c9beba88eb35583ebad38afd82f4c42689412424692d4b262e4f780fa54c87f0a8cd82d3617f6e7e41248c4d90e2324cc3aa05594b9e2b26d0988f079610aff846200009b565b62008a616134c08801357f249fc2592818327f476416168f7275c6af3ccef7b8642611e5ddde2820301bc37f25369e02c6d7dace1ec4174c1fb0caf20e5cdc0f75beabfcb77f20a8878a1d7a846200009b565b62008ab46134e08801357f1a43edb861ecdb7e9caab0b16ff9d71f4ae2d3e091b4fcd3b6e032214ac79f2c7f04cfbf1ef25c0c4a72295db4fc171e1f82e687fa2443e892a5f3a66df5e80c07846200009b565b62008b076135008801357f16a457629197410eb1c9d17799c9782657715a69acd68290baf999ee269460d97f1db2c3d2a2dd991f4096961d32d1564207fc093b0f1629053d72736589a81f94846200009b565b62008b5a6135208801357f183022705103464448aa3464046c6b26a1162dfcdf9d41fe8f0e8a306de05db57f095bd3f7f5110e3eaf26eaba84c12735c625ccb24b2e0eebb910672d6d6b27ca846200009b565b62008bad6135408801357f254a9977738a45f60d70efb5b570c08abfc2b12bcc6c59ab6ef5dc0649e304ec7f1b8a4e2cff0d8bfbddaa88523c896fb901addbc463e789510f7ce1c49a176fbc846200009b565b62008c006135608801357f09472bba3a69e60265af57ddb706ed695c76034c7a2ad73a50fc70579aabf2347f0c15f8eadb984a5fbab48534d601d28c60f91d03e66c80c9c64760380f321fae846200009b565b62008c536135808801357f11367a913d42fc6ef7cb3f2017d3d69d08c8ff92851e9613d3ef059ff735b2967f071f7e9ab97a5a25525dcabc9f55f1ff5325dfdef3693a672bcf44fcb87d2764846200009b565b62008ca66135a08801357f0cac207c9232145785dcd9f98d453ecd7f22b6e5de8c9b90edb2247bd32b75fe7f13c195fa0b389ea0bf9d4ad9f21d257a24895defb72d3113ceaa43c9f49e3df8846200009b565b62008cf96135c08801357f080a11d5c33e54d9084a021c438e1ffb814e874c5f58010a7e39aa43362941167f2abc58ba25e56d39cbb8a78f15cfffea8d2eb68c84080613d54654a082a9651a846200009b565b62008d4c6135e08801357f28154032461bbd3a81363e06e6ac6335c530712b1f13a5b447ac619a9e0b94297f07d39208f67b09af5f731a2fe2e3d960f67d82d00c7ec20c4167df29a47c7f4d846200009b565b62008d9f6136008801357f25312f1a7739d2f562fd1e12d4575a49314fb7e8c241eb8894df3ae6486ac9097f0ca312a5d461087db57537261caa24eada584e611a55571db278efbb58610322846200009b565b62008df26136208801357f241f61a40cc0cb1a43359d97554cc142c05c566dc146a99673b590cf88f656e17f021ff076eead968f4c06df67bddd992d9e96943cacce20dca2fa50fe49643b8c846200009b565b62008e456136408801357f2d4d37fc16e2f1eda5d99404f4b31b96090652f68d170ea5cfaa24616d52b2a07f2caa0b2a82a5faca1e65d48e2588e2b66cfb0ac496433c9b55449d783ce91c35846200009b565b62008e986136608801357f2e2c7cf5dea448b6e31ae5e62aa0d5de64d130fbbca94828f25931659f686ef07f0a1518be8df7318428c7aa014466c679449c82d9f72c2336335d808db0505697846200009b565b62008eeb6136808801357f021af6e770ba9b628b0f82b9803af42479910dd1d7b82cfa58694bfebce87a147f06f09e9572c4b02ac9c7745da2af2c79467b6a4585d26d6a54c7db2c6c7697aa846200009b565b62008f3e6136a08801357f0d690ddcdccf982642ab13664bad4a1b2fa3e3c096052c3e7277214c218263f17f0b2fa4c248e0fb47de76c523173efbf5a3088fcf115779dfe4c633cfb9443a46846200009b565b62008f906136c08801357e26e95872156940de3d2705ea4454e2a6eeaf11c9fc5dab15fc3fe7c76f66e37f1529f440f38e9ef8256471e8297df71444acb08f3329290d9febb498fab4eb40846200009b565b62008fe36136e08801357f0e313fad5bf59d0bb45e6e100299ada6b1a42fab6fabf0f72a10b8e2e2264a247f287064c2c1468a509f933d15b73af7b60eebdb0b7c65607566c2576d6aa61f5c846200009b565b620090366137008801357f101434b0e157d639ea12df1f90713a096b51346a7159067f1d22a318e3c4459e7f26a3ffe7a66cedc034a3bff1999cf9df35daa1881e15e403647dda03b9a1da40846200009b565b620090896137208801357f2fb6bd3b405f1d1ae2e15c1e7c316ffc2483500373706dc86328bf6dceb661e77f261bbaa3cab0b9968d150c37775480aac67b1ce2be5ab056ddd285d5231eea32846200009b565b620090dc6137408801357f0241cb7b920032daeef92cf1389f055d3f10bc159e30df1d28a74576f402f6f07f07b522766e7553b400cbb79d93679076a9f748d9b8a81d123381434a8b7bdb6c846200009b565b6200912f6137608801357f01ac8aed2df6dbf46b20583a317417ed6dfc7788a19fa069bf37039a6a3bbcec7f1a16e8e58bff38ada3646defa86befe98f3633f513e35d024e09d2e4664d90c0846200009b565b620091826137808801357f1f1fcf05f3aa2cec046df304e4720b87b2a7fa754b217aa959042c8b548f0b457f1f93338c08f4e100e1033a238adbb23b7fde9852e77ccf0fc43493faaf2b2cd1846200009b565b620091d56137a08801357f06587de7dcd015cf65b6dd507c6a676dba1148807938610d6d0b450b422ff7c37f1b1fdcc2eb5dd8ee92e528eb9f631244dc2be84bd74e5f51ee18f7bd47e5d5e2846200009b565b620092286137c08801357f09e60ecacca3b715b199d118acdf7f5ac99ec4245f0188d06cbc4b7d2623de677f20b7c453e7768c48d78d3b7f8a4af081528202570a1e7d5f83d3dd21f8b2f97b846200009b565b6200927b6137e08801357f0b0ea56f83dbf8c09920c2604acb62f16d60ea6bb7d94969610b3d02478237dc7f084f04e1b544f983178ab8a8f662c9bceb12606a88498214d1e7883aa3f333c8846200009b565b620092ce6138008801357f2df4a5b2faf940c40d9a6980099420a3e15e5ac3978223edd7d7bc647f83b1d57f0eb17296530574f69ba91ca1e73af294cd4e1bd0eeea69b20550eaae4d8dd45a846200009b565b620093216138208801357f293522a0c41e593705d2ba1eaa80fbc39a6cf38484d3e52f1f59cd4ff44305627f271e5bc1246e43cce4b9293ce119d67c18cce7b035fcfb796640206ae64617e4846200009b565b620093746138408801357f1e25b1bddcdc7945bbf6dfa53c0f99288ece5e39d4f9276ac937daadbf8754007f19916a91e5c9972296b560ad68be0a328602b283615bbd50274d610bf8568aa3846200009b565b620093c76138608801357f0fb1f0d4184772353d1311436c4897eb952b17a3b945e447c8b657556d4cdfd77f1ebb156a241818573f178b3dcfbdbca88ea6b5be075586a2c920a7dea1b4623a846200009b565b6200941a6138808801357f1947d9950023e69d42db94fe18dff81a2e818830db287c6eec46854fd7b484537f11bfbe55d66cbffc3e8fb7c0a5ad2acbfd776b783400199334aee91516ae8a9b846200009b565b6200946d6138a08801357f2cdbf0791779d3b240df5415f715abd9ee91ee8980ab8d7be704936f85f53d1c7f225ea5592c02af21a4d7b3b6418281f291ddd0b1141302387f8b71837dacd47d846200009b565b620094c06138c08801357f1e50ab433659df534c07dc78b1ccc5864c63e595832d2ad444b31b73abcc3e7e7f273a2d138ef61554fd3b06a3bf7e21a5167905ae13b9f0af92657cb027648499846200009b565b620095136138e08801357f200b028b5bd13e9395d476c4b79dcb42e114906183acd8a5396ea144c5f4039b7f135fbb23da7584ef184a5ab46a6d164111a4d42989c689b00bfb5c3d65966347846200009b565b620095666139008801357f092f06463467534c8a52e89d50a291b37ffc3991eec76a6276ac03c1ee78307a7f2c1a83e20ddd2ba868dbdf2632d0be14bce7c5ced6e2393f53840a49f25a0281846200009b565b620095b86139208801357e5badaf8c375f843cf302bf038a5228b07e75796940c06ce9d9592c6c7f6eec7f29084ce08b8b0184f5fbd09859e3f1882d112149b5758618ae87c853d89e858d846200009b565b6200960b6139408801357f0c5dd7af15d9f1e8b8d6f7a376c427cd8760bf5e854f91fd5ac36c4c68fad38b7f294ccc3a4a69ff4bd5e6d529175e8835808be70759f3ef2409eb2d2d10721480846200009b565b6200965e6139608801357f265628a1d739fa1fcf65864823914b7268eae2345fceb52ce12f85c006db3f5d7f2b3c002f7e8a74782cb3c927d10115ad4afbf9bab93c7798a2fab904622a20bd846200009b565b620096b16139808801357f0183b2c99ae2b6f8d03ca6436abe23cd93a0a54722392f2f9fd34e996f0a414c7f10a2518de253a372b54b44e5d6f1029e6e7bcaae9fedfac5fb15674246afb1cd846200009b565b620097046139a08801357f1365bd298c43a8196b32ce01193bfeb03313d5eea953fe51b53be13dbbd84e6e7f14d0da6157567a23aa55ed7bd732d8420df60c629b076e7cfdfe071f7197e68e846200009b565b620097576139c08801357f1eed6eb7a04a7335248b20fbeda3dbb3757536694a932b3cb11c2a0ef41d84047f2ca4c0166e65c4cfa94f245155eb626a29270d7107678d85ebbd62623eebfd29846200009b565b620097aa6139e08801357f107b4f741964bc7ee79f6f3aad1d9639fce50286a557d078bf6369eb581101aa7f266371b77b1012df5dd414a5c1385182603f653244541c34a14c7c4e3c4c6335846200009b565b620097fd613a008801357f07985193389a2b895f370b8a55261ef7aef141e97c5220c8eb8230ef36da85877f239dbac2354b658541f66362ac0f7bb7c83780b109e74a273fdf85e612a26cea846200009b565b62009850613a208801357f2c831f668ca513852f8509ce6c3871bb4bddecaa4378d9d1ea04154dc8c6008f7f26f75a0ee6ecc0ce6d37b088cb361532df7e272965a9891d33599952124838a7846200009b565b620098a3613a408801357f1a441944cba61676d773b8432368b2662d889f71e9a67b539ad0e73ea8eb01027f2a77c20bc86e4ee2cc2b04ccbf87cb5148800ded1a2970ee940dde362208ff7b846200009b565b620098f6613a608801357f1bf10df495539ee989e9959500701ceabb20c2f6156d3120b79eeed4098b23d97f193c110fa717f85d9f9b4c5c7e3460f60cc62a3a58593f06ac8c8c7063f30aab846200009b565b62009949613a808801357f301ce62430d7c1172286410f3295e8d48891ee25a62793dc064c33a5357c51537f1d1afdb55b22cbc18b400db8b82dca14802713e6976c01eab86c5f87a2ae835d846200009b565b6200999c613aa08801357f16be496270429e28cbe40d15f148b33bfe369c088db04530f4608c9dd3931cec7f06439f78cc1aaea012b30e5e15d0bc8f772e6c0f4338211a7a3828f91b4026a8846200009b565b620099ef613ac08801357f26ecb3ec8e7e444ec9fd1792acc3c5e210b45a4f10795b22a8f2e4c51be4d1dc7f1495c0cc3258f5e340b93cd6967787e87cbe2dcd06cc7cc84f257a301cb56c94846200009b565b62009a42613ae08801357f2624f9f47a313365ec5199e560e79fd09a11f82efd0bd83ed660def5dc53ee207f0a98e735e3f42cff66047b9260602e2b4def7801fad8d1d19fe65e1e0fa31840846200009b565b62009a95613b008801357f2170c9c188675c01f6bbe18de9a625378d5b3b3ae5a772e29908bf015f5534f37f0f03648aa3d3a7e4ace196e5dddaf7438abc664772726d3d6f37add7b09945a8846200009b565b62009ae8613b208801357f0a23fa14ed30e0d3199122d831725f5be782426d34f94867ee1daa3c886450347f14dc141cfc307f04e317cf8bd666f417c4356d79c264f106723b0b4ad68588eb846200009b565b62009b3b613b408801357f038d76b75263915f65b595a9d5c07539be853d8f78df07fa3934526cd4c175c57f29b25101b86363a65b76d8620333f487611291680f7192993b2e3eb406f24163846200009b565b62009b8e613b608801357f04e275c2ff9d7ae4e30c479cd3c1e6d783c440c08a4c297978fefd70bd89d6f97f1a4310c44a9f9e23a820bc047d23646594e4d89d24cd1958e8ce0c6e51f6db57846200009b565b62009be1613b808801357f1e22ec00471f0350a76662ac5cdfd8a30460a7ab9d49192f49c55bacd35190a97f2344a7e68654dc67af0734c6ac5ec7c48b2a79ea7726ec72d4ebb02e2e4b949b846200009b565b62009c34613ba08801357f01bb735a0a14dc5f0fde70519bc8c4bf3727b281735c4a6d1dec1b87b86a66ef7f0fb1974e2926f795f24721d1b6afe70142b88581f7c7a29a1092fc154244edf4846200009b565b62009c87613bc08801357f1f1cec3aae9a6cde6fa5f1c616119e416a963173e8295e243b79252cb8c9ef657f25ffc44555826c23289af8293ed9c7b172ee0f47fecdfa097b20ff017855596b846200009b565b62009cda613be08801357f2b864b1d119e739e28ce8de68eb276a2a3ee7fe70a7d7655ee61f96ae65f0fdf7f1fcbfadfe3e31f9332e7f84bc94da333ae99e197815abc3294278cc9145fab69846200009b565b62009d2d613c008801357f2313dd3a23790f32d3b917afb1efae8d33918dd0732af9fef7bee1a4f774e8eb7f175d67c6dbb1a7d7cec20236bb62ad64653ce5b0221ec46dae92b5cc1e5ac47f846200009b565b62009d80613c208801357f2eea6abdddf087af73bf5fcf752ded097b868fca3b32b71cc8947a96da1f76987f17062ccdf01028494c82db9a6655a6e14b3fa206375035b47eaa9c3dfcdfbb30846200009b565b62009dd3613c408801357f1aed476a785a48afa3f66479c06dbeb1a1e031335162f794e64fa0dec4f342907f0e60a532928f3aae034c60d1ccb9be6b4d3ec682e8bba67a8865dedf317cb947846200009b565b62009e26613c608801357f07bb4774a53e5cfbec8e84a552be692e5e04b1dfc8a129deb9deffd2a9f3da807f11120bef4ba5ce094e4002f2650c5c6961c054fc8ed888622a06ce96e96e9d74846200009b565b62009e79613c808801357f0ff152c0d5d409ee04e359e87f1e5022f849207b43a0b9f5b7375858ffec00ac7f0fe82961072e66ace5b082f489c637b3e62677535940cba5fdc3d0f02008a564846200009b565b62009ecc613ca08801357f2555552982f8704d0c35b00e3d6f1bb83e4c1b8c1fc34068fccec8d366bf242d7f302ccd7ff262082334e9e577166bc7a1b648baf44deb16a4f255aae6ded82d49846200009b565b62009f1f613cc08801357f060d80675fd9b9219ee119b0c1c0c31b3d603230a9a499850d4d9cc763a4ab587f2d57856dc693cdfb5a1f681f5bd04037b7da76b2aacb3900cb758f4e5d88367b846200009b565b62009f72613ce08801357f062c995188118143372c8ad68c8bb7c64563d0aea30a1b15976ce2a9874b12c47f1cf4387866201b8a9c8fa8fd4c1176e3626194b1cb9cd42fd133e4c338842eab846200009b565b62009fc4613d008801357f0fc8d2ca5d194a686219c9b944f18df96cd4835aab820d8e99b99e2b626b3e0a7eebb4c140beac0f9307969f1aef3b364f4d99b726b7404ade0c57da6657ba4a846200009b565b6200a017613d208801357f040b9e6e94663e0eb833724fab9be9746b38e199139fb075a325a5f80a44bd0e7f263f8ec2431ee4751279b0e01538cd8993e5ffb183afa976d9061860a60545ce846200009b565b6200a06a613d408801357f1871ee6d97ed3425f016b3a816a5ed7fefdc28839bf2bc0d4ba641f1d69275277f1d5492b6cde0485c71e62c937f637314c9b4853b59f883750519da5613e6948c846200009b565b6200a0bd613d608801357f12f55b189572d5c771a54ba2e6af92c3910070c6db28f3ccfe2c46bf0abb43a77f13626e8d126cd7476e3c39b1899dfeae7ed36b934843d1353879d388fa833c43846200009b565b6200a110613d808801357f0190f25d4813fc1708b0131dc32ce8a5f15f7df5343f0903af8f56828c7289c97f205dbe768b6a3c6abacb2e2197866f439308ba8f45e089f61d7588bef36d493e846200009b565b6200a163613da08801357f0d5974b26823d643d11731d6a215b7126da9a410883c6ab3a0eca62d25f68f897f013a5b2ee2932161199ee49e8532df19885d1b50afc63b02959f07bddfff602e846200009b565b6200a1b6613dc08801357f120858c0ba598b6c694e7629e9d5b17cb72b31e758e547024f641aab1e9c7c1d7f0ad6690fe1ee3b617958bfd1be9ddecc75b96c44e4c7535fe6dbd9c9743eac41846200009b565b6200a209613de08801357f0c4b749e7841887c6f6479577ffc8773b60d364cd5729917e450c39e95c150fd7f0a0be46f6b1b5a7ed3ef8c1c46b50cefe60c3706124ce53686bdc4a795cba373846200009b565b6200a25c613e008801357f254deffe9fb5fd6b5a44ec4bd43bc2562ecba74f1d70aa05579c1cbf373fdb947f2e0c9abe664b05ab6418875ef82299774861a59ae1f7036331dc4c09674d1804846200009b565b6200a2af613e208801357f1974b0e319b3d4b261de2bce9d40f79244e044715252a28336086902639043837f2b266659b5f95e2eded26d5aef1cb76bde6fdecf4152c9726807822fcf610ded846200009b565b6200a302613e408801357f08456e1f3b360bcfb3ad57db7a86be169da9edb2087bca3c2706ade6c3613cdf7f0f7d3fb19c2279fc1e78e0667c2e522d0da7099aa4535f2432a581b15bff8ce6846200009b565b6200a355613e608801357f13ba63f372d5c76e0131a10bba5ff295c69ee2e5472788960bcfb939f6424eed7f0cd85b301d39cfe7fa55769fa6bece7d223b0dcd3ecdea949d39fb199fe0914a846200009b565b6200a3a7613e808801357eb42ab6d601028e57a59bce2d6c75f115a009465d7bdeacdcc574d1fe431a867f218b00734ac092ef5103eb36ff83bfd89faeecad4cd5666e3ea52f9cfdfacd23846200009b565b6200a3fa613ea08801357f05da29be3aef8fd775cb74fdc145e2ca6943c1badf8417b6444099028e912e427f18eb0b4f58de2fc6d210f4c9a462c242a76ce4b965bf47d7c36ad07df4d44497846200009b565b6200a44d613ec08801357f10793f442fa4b4b948c6df750d035146674dddc8ab9385d9878299851ab498ed7f10cd151458cb6900062963d0f529574fdac9750c4c33481ceb4957dfae677461846200009b565b6200a4a0613ee08801357f2de3724a0fe3837d3534677933a08426cca738419c6bd98dca8cb0734889a4d57f2c9ddf66e76671cc8c687fb24d5d038652841a5706c13cf9f4cf6d1c90f8fc69846200009b565b6200a4f3613f008801357f1c8da4cb641b4bc55a1f6c787022443fb8d167695fd1bc39951357fe74b981567f2aa2f3de4680542994b2cb86e6a1a4311e6038f5b23cee4e5796b833c1595049846200009b565b6200a546613f208801357f11817509261c0f868fe0602ba2792d6a445920345e7972070e049f536acb82577f0bf598aa44292222bc634d46b8a7fc055e334d9746b8935814a940a9320c309c846200009b565b6200a599613f408801357f2b8b904e5fb2e9361911d4ce7796c084402e7e40bd5c947938071ad30e90fceb7f0793d0bb9a7fe55488cab106efebb35a794a76625476ef995100393b322530f0846200009b565b6200a5ec613f608801357f032393813abafac53f5bfbe3579f696323066b68fa56921296053b8d4dfae62c7f076bacf8bebe94c4b1221150bf9ab4d94f664c9363d437764c0fd315edba85df846200009b565b6200a63f613f808801357f010363fbf50b5285bc2e1deb34f0b017f338c07b1b02e0c4f7cbff6ed26419e57f2325bd331cf4e804b301a2e30575e310f66d7568cb142ab8441f5465c733a2a6846200009b565b6200a692613fa08801357f0c89cef9e1c0af9ac4c7fca4ebfb2335b5e44807328c8150fafdd32e2a36223c7f1f66d87ed592094ecd3031688d97315c242d60cf3c9a81e0f03e06ea2499a21b846200009b565b6200a6e5613fc08801357f1d44d94d610fd8d2fdf91c066fdbeaf89f834a690c18fb62dd7868f8729acfb07f08fbf76376d87ab4ef4402d2bb0801780c5649ac787240b912b5566dd1983be2846200009b565b6200a738613fe08801357f2d71aa68edcab11c3761de581ac0b18d7c58e1eb01ac0308edfc432a19b011877f1f6bea3807a2d2fc1e8051e07571ca03a0d95d4c60729dc05b1f0ae8db1265ef846200009b565b6200a78b6140008801357f2468cad111738b57e1c021a39c454261c04a0c6937fae5233d78d33447b883177f237e7a888c88208201a84e11f9a4786b1a2614a61462b68ae6e1739dffe14fbf846200009b565b6200a7de6140208801357f27750a5db60d02e59d76db1d0598709c61dd1946a75c01583838b5c0d57787a87f15ae0b0c9a136203a72b37f5dffd64fbec9576217f693e1982e7ef23416ab5cd846200009b565b6200a8316140408801357f0f0a879337a85c58b2a977e117a2ae3e343fda51167c7110c97730ba8ad18d8d7f1a2c7310ff4c6317c238e28151488e26223b02b4c90bdc380e0cfdefd4b41cf3846200009b565b6200a8846140608801357f29e634b446425ca9e9fe33dc84e5b63637bc3e86cc8d698c3513fac173901ac97f29ed18db90ce613490ef7292594ce046f39363d4da8959c0a84369f10433be5e846200009b565b6200a8d76140808801357f08242ac51e01b0dffd3b24b6dfaa272c21dcc9f29c1e4c3bf4ca1b675ca956ad7f291e357b63ce023fc14452a9312a33056e1207381119b0c0a023f8f51268cb9f846200009b565b6200a92a6140a08801357f07dcc879df996d22e0586cbe040952f262385ac82520ac6a34c08d27789a058a7f11f4d6ff01170e4a1fe7334acb63f064978a2fba915b3b7975b4dd5ef4e09452846200009b565b6200a97d6140c08801357f2cd3d93285a8d6ec37844e557110761071076dc1fd4fe84376c4702e21ca03217f1d046aa49f6d9ee99a769f76da5bd932c3bc859345b970f9ce03fce00aa6e617846200009b565b6200a9d06140e08801357f19e377cd2c624d5cdad2df997c9f25b99ea30ccc40f5ea055b0bbdaae909d1ff7f129a20bc07a085ee703c1f6098e199af31b8f17456cf2f8ea510306b74e9443a846200009b565b6200aa236141008801357f23534205160e3fa8464876cca6f8f116b0b20e23c4783aac474b1687479c7c097f15b9709211845160001f6f6fa3f1dede6718e0f3d7360bd06b96780e2e254c3a846200009b565b6200aa766141208801357f27ad024e7f801656eb88d37753af73b242b35ed868b2f21c9ef9d0aa5e0b21457f098caba0be47d3a2fb03276d275504aeb051458e68bee5509cf5c8bdb019fe58846200009b565b6200aac96141408801357f123c8bf5d54ebc46892e21d0de0b229155108147277ec794c445e9defc9fd9787f08ba08f89635ddd0c064af2c0ffb071a8652b8f848868a64be91bb33a12928fd846200009b565b6200ab1c6141608801357f084d841cf92e2d21cbea21a098b503eded766dc0d19e877d546e8fb44d5d87be7f2e399b18fc61d2369e0054967f8bfaa274fc4c4f8c2d458f52940a622af074c2846200009b565b6200ab6f6141808801357f2140b575c0fa6d07af0f4d2900f4aa8b870f23b729b123c59a4f753f34be13227f056f7b94d675613add7283b3ae620cb219e77efebcba8ff4cebbe03e315f0df5846200009b565b6200abc26141a08801357f1f3a1704d48e6d2d2c9318ffb6cea9cd7b7266adfe4ae15ba3d44a2575670eb77f2ee2165ca8fc4061fe8542083a24401aab7031d2be26e29a960aa218e70483a2846200009b565b6200ac156141c08801357f1e3f9159b0f2d8af77196c3f0f9b5fdbd629e2be883f6f26f5f77b64b1b956c97f1ffd2a053d1dc60b2c475de824231afcf7d08c29ecbb669489a85a043b254956846200009b565b6200ac686141e08801357f06273f5d0f1b43a35f048fcc4b6897a096ad79d1a986831c32478d9a363980797f1e16d18410ecdd4dfb021ece1021ad0ea13574033f2abb92c4283af5637d1814846200009b565b6200acbb6142008801357f221aa59f7c0c19ed21febe39552ef1eeaa20861648809c8d8581de8f171800707f0607e5690d540e4b5caf2e417dfb25db28bd02fbbf379d095265a854b9bd5830846200009b565b6200ad0e6142208801357f20d15c5cedb440ff818514fa9bfd2d7b7d6d74715ccfa4daef3cee4a836936047f08697483fa5b2918fbf135648cef380a42a5963c21de18b13f42dd79747d773e846200009b565b6200ad616142408801357f0673987b005092a8a3f8b3a947066c7ee78648598c6c390de13fa432d6f672fe7f1e6113b45efcd7a50089f5a4914155fd08728722812486e8a4051cbd484d7fbc846200009b565b6200adb46142608801357f0f274452b267ca55502a74903178ff21d52ff3e75c8a055ec44e56fe1c7f0cad7f147f7ec080d509780c7ddb38d7cd2df33363af1ee2b295befdcd68c1b2b4e1c6846200009b565b6200ae076142808801357f22d1a2105b34427191602ff3b8ca1417fba945f8b3e01618f294466ef8cef52a7f1605a585560ebd688959e86eaf7d689bb0bcddcba10df7b41bc1a731a349b052846200009b565b6200ae5a6142a08801357f2ec540296e311e516f350f458501adacdedf9dd9acca0bfa5d884fd85c8025187f23d58d32a76b54a4034ba7c99df00cef131d23fe0df461f3bb32a4085d91fec3846200009b565b6200aead6142c08801357f12aff8d5ccad742fab3fa6ef9a99e57970a31fb4c9fc5cadee372f4421e751d87f161bf04a5dbc88835d54a96529ccc2e662c40acd48c9636766b4893bb2b31582846200009b565b6200af006142e08801357f2e10fe5cb23c60c9ed5599395ac9f66c3aea1d0e8f3dfd603eaef5faae1808a57f13d057190b1b4e96769f1e7a2a5ef25ac89bba2e23c8caa193932ce6be37b884846200009b565b6200af536143008801357f29b99ae03e247aaf41c068271a5a84ff1a3822ba65ec98cc502b61cbb485f7217f097fc39e934f9d9850a06b7387de52dce0fae28c18df8f160b123c10c95acae3846200009b565b6200afa66143208801357f2f734b93f3274f11099b431377bae8a583c0f283c4305b62f0c72364b0d84e6e7f1e4f9b19ee69eb6050c89e47f228351b38b646c8387fe1b76e52b1fb30e4f320846200009b565b6200aff96143408801357f14d6964faf61cb87380d83f2f18391bc7bc0e78d85f6e90a60f65929336dbfef7f15b0cd919176f96691f593bc7d234de1ea517df937a9c3d318ab553cdaea159a846200009b565b6200b04c6143608801357f2696f8eec360c90f91261f938e7bf8385520cb7bfa18850cd135c6922aff35257f120665fa9ab0d01836a99b0a27e5e32d1025b76316d599c122a67b5f45a57cc4846200009b565b6200b09f6143808801357f23b98b0c8651c4959dafb0f5f007f28a738b38f90e43f8a2265ccfc28a77b4a97f1bb7dfd15777d173ff4ff9bccd5c60d9be1325bc3d863740f67b1378d921d0ba846200009b565b6200b0f26143a08801357f14c799813051f45f044b86e70c028ad6bd465a396ab5113e8baebb45a64bf38d7f258cec08481df40451a3cca4b93e0ed9a38eb3ee3488503d5c34d00b64251032846200009b565b6200b1456143c08801357f17cc00fe22532da23cd73bcf437397de52af459841f6941660bc132036b791ed7f010987c1dd7a1464be1bd3507010074c4add436de329cf674d29f19dfa78de96846200009b565b6200b1986143e08801357f2bf8bf2d72dc867e71927d71b5993a20cabee6c0a196486f1c8d9497b993043c7f295a17180c407114827cdb9a547ac14ec847696fd27456db3711246ca73ebd5a846200009b565b6200b1eb6144008801357f02f58c279e1420a6ed82dcfdd5f5324c4f174bd6a4eda6fdc88985f8fe7b6c7e7f2194cc4cdd0097a55b649323f74cbc54ef68cbec231d168765379dc878780b06846200009b565b6200b23e6144208801357f07fde3fb41f7f8d8bd07edb1b3a4bfe5a435f67a8685e0a742974b318a6ac3817f1bed33419e3153aae127d4d3083dad776a42700243597ee05010c01dcc3b65a8846200009b565b6200b2916144408801357f0af09ba5b4e888546008c9fd6c32b4cd007d3a131c8fc34f1ba67e746a81918a7f1d45f9ada690b0b4626e51330f894e99cf5b96b66dd1ac7f0e720c4ed88d32c4846200009b565b6200b2e46144608801357f23cc6e2e8b076452f31cfc89e7d9fde484a5fe1a3c4bf235f86638f2c33fdc7d7f2b831b6b35e0c4164efc6d009a4e8bc738205d244d5e14dce3a8a80594e68ca4846200009b565b6200b3376144808801357f010f9e702ecc8f585280c7267381453876dbcec6604d4f53731737b06a2fe2067f2c20716754f891aa944f0abe2f29ea4d13dd053e0cb00e747a2d3ff649499ce6846200009b565b6200b38a6144a08801357f0ab99392f800ea6f8e7547a134b0d357fea27c7187df2b4fa323296a92dc45927f01fc3b17e6bd7a5b656b97f50f1713803cfa6d403c5256b5f3a4975ccfb3e475846200009b565b6200b3dc6144c08801357f0e1f555c229da8d1e25e283980d331104eef1f3d3c972e70841db68799fa1bea7e7fa26462952403540197cbbc3eefff47c30c2189ef0876679349b66a2dc7dd846200009b565b6200b42f6144e08801357f27b00a0718c141c50b461c0f9095ee3c55c11cc0894f3f31b8bbec8a10c3e4547f094cf72e886f9f9379931cef9ac9c74308514ca8778179e13ff96b2f7bf70523846200009b565b6200b4826145008801357f0d88acee372f63dd83dc2fbf50ff9cb6e110a86cbd0abb8cad98620f3ded1aaf7f2a42d3a9c2a7fc383045e9ebfadab536813c84eb0dd7a2d9cca3958e9002da80846200009b565b6200b4d56145208801357f0531e1cf32c0899b54a6e2df98c86f4268d884d3ac251c1af0595ec9881d5f227f07f00fdcc86a9e4c126fafc68d448ddaf783e98e02aed7f6826d4383cb7fa229846200009b565b6200b5286145408801357f22de5def18678af827ef20c6d8f552a32116f49d1e5c13cbe58dd8c70799a77b7f0a86abeb96939e8d6623972191a2a0c01e80725026cdc950e9d3ad9851c0436b846200009b565b6200b57b6145608801357f07c39326e78e1e3899043eaf58746a05c9a6f5651044c6a152db6955367627fc7f07c83bf354d8a10c1330e075581c26484e38dd10de596b661e29a9407c0c5434846200009b565b6200b5ce6145808801357f11df4000307009000f51b9b8e67af0520c4b4c945ef451790764fa2b6c9d7d2f7f011f68442c7efa4ca356c8b42b83d7f6f41956470ed8223b56b9e5fb221aafce846200009b565b6200b6216145a08801357f1e746e084e89ea2647be874aee9dac7665870e5afaa735c2cad5cc6786d617107f067eeb15e6fbde7e71547f75192aa474b5df8fd15e7477c14f766a0407389155846200009b565b6200b6746145c08801357f0ab8320a5938fa0bd4486e1893e4ef2dc700d025eab72ffa0ff7ac5426ddd7a77f0e8be2b9e0107f47a45baecf960cb0d829564b25282624fc71b1cb1aecedd697846200009b565b6200b6c76145e08801357f0c711f800a5d6b06595dd7157eae89bf567faba4ad78f7ccec1c95843315f14b7f067dc783d707e460f574fbfe3305e6a17781537a1c2e662035bbabb0b0552492846200009b565b6200b71a6146008801357f04879c06f3b64555b114366e71ce46b05a7844a6bf6e36c8f2eaaf3f5a5824f47f028d5107a585e19e307f0d198add3f6f7086a8cda41b07a3cb0cf6eea12d1dfd846200009b565b6200b76d6146208801357f1766fd600eb39b6e951550317d405e1f253a34285fc0b06c84ce46c8edc5888a7f10699c78c76ef96afbccfec601809ec25651367e7654ad8809ff19e0b3d4e55c846200009b565b6200b7c06146408801357f2fede96b5f3b7dba362af4bfa0037056a2fb8eb06ebb9d5714e17cca84551a2b7f1ffe0c2718260995ce34dd1fc27f8cf65efc4dc01a08aad5ad58744c8c423f5e846200009b565b6200b8136146608801357f264d8b1091118a2342884226bc816e3818c7055704697fa1aa3bb6431ae042377f300f0504245130eb91ab99a3ada530e685d8881969fc378b0c75d75b133fc719846200009b565b6200b8666146808801357f20e7e6590ea3184e14362eda9caa9a8493f80b10e885dfe92218f3d9248f6ac17f0c55dafbdd8ed244f1879145571b13faffeade9a1cf2a61b0b9698c4454b5d4e846200009b565b6200b8b96146a08801357f227000711847cdde751437ac7d8e8b69e68609a68cb9a3b869bf2463230aeca97f21e641f9629d8a68b74932f56a74895cb4467d39f98fa26878064230788adc77846200009b565b6200b90c6146c08801357f01b072bf2427d3a684c3ab1cabc33f1ef8d8776341da56be9f9b2a7b892f25747f0c29fe507ff03b9ed51f93db5dd927c00483f87cb2ec0707254e56a94f5425fb846200009b565b6200b95f6146e08801357f2edad483d4e63ce4962a0f2067d0a91dd1d757f527e8b5e3d9ea1d6d72ab09977f15aaed3cd5eb247fab7064631fd8a034c93db16cad271b58ba35dee2c7aa11b9846200009b565b6200b9b26147008801357f19b12eaf6fa030b558386ef494928145b971186f03d91dfe60607882da67c2377f2afcfe84859898e43ccbbcbd187ffbb3a30c5fd2defb35ff96cb9afdde1db8d1846200009b565b6200ba056147208801357f0909d5821f24fc5f64d3deabb3a8426daa792944c836e8c15c69b48dc4eee0487f059e02ba9ac503f984aab40489b7a8da8ffcfaf86099b290d56def1f5736b36c846200009b565b6200ba586147408801357f029b5fe4f51bc0b3b007c04cd0cd8fb6b6f33229843820d56e4444a2625fc0ea7f2472f6db7e6817bad513c5c631c7d06f460240acf97ddd29254c505a38574514846200009b565b6200baab6147608801357f20d473c2954419fc85871fba02c7eba5659705dde69fe24536d5d2ab948fcacc7f14cedbc24c657cdd830584553c626c95ec062eb953c0f8f8a2809004d187307d846200009b565b6200bafe6147808801357f26f460f53d48a0664671dae395c0d64d85017d7c100061d63c71e765430e42017f0a9a686a7a0f9a92245753e23bba906f0f18388b1dea0a65b2f8fd644af1a759846200009b565b6200bb516147a08801357f1c3e58de0a94d925e493f2f1a0319fbce15fd4629aa7bb54d6c9722deff522567f1ff251bc38e327e97aac61d840fe84819941158ac044ccc4b5083773802e5e33846200009b565b6200bba46147c08801357f13a2e4e444aed68a2db4b9febdc391c5d6db49d7c5d7234544aa8e46db58ba727f1433095ff271929c09ca2c9c7ae8eb080755de91bd4c2c6da7b6e31b78feb4ae846200009b565b6200bbf76147e08801357f2af8b2ce6e84384cd600f78a489b67ae7694d7cee32c02ff3e1339d76a26249c7f06591548007c2283c6bde89b9daa8bd0012dbc9ad615d90d937b80fba24c7693846200009b565b6200bc4a6148008801357f1812072ae373e778c7382a4a4e0bbe2b59254a116ae435a91003bfa80fcc988e7f07315b5559767e81e9f3509e93aa89c876773379415dad22976955d9ce90b705846200009b565b6200bc9d6148208801357f1ca6a6272db7bd9105345e7cab3c335d95d6d05bf049065cedd5084a1921170f7f06524c9230a9878d8671c0605a1faa375486809eda43d9ff166972ab4e122259846200009b565b6200bcf06148408801357f17a6448458fab9d4a08f2427531a9fea3e88e6b354271321b0767ee085a342b87f14099dd8f17ad20a23ac34cc5971bb486da058a2db153de3d18e90d622aacef9846200009b565b6200bd436148608801357f10431c14252127a4eeafb8878c4958c49799549a5ebbc929056995ee8a4548847f1332d66d07390ba0fce7529cb973ba7e7984557839ef963b3724c893f9e94e3e846200009b565b6200bd966148808801357f13b1e7ba5b4bffc6b4b5f698fc130d02d9ef74ef56ff4f83944b6095709954647f2c2ded45826d5428e3e8863a2d8c56628b7e4451b3380bbe829b28e688f6cb42846200009b565b6200bde96148a08801357f080c11400d121d37a910f9030f3e8acd41f24fee563a940b6df45a33cb55902c7f23c1a019e38cf987d9d1aeb13a0b4b486410a527c147b823cdd70fa1216224b9846200009b565b6200be3c6148c08801357f2475790407b474fd69817f00eb0bd9e9f1980d8d2722408de24d63efa8de31997f030237115202acb6fdfb42f24cf71c5047dc3e22d9c5411e93e5a9e7532b27c1846200009b565b6200be8f6148e08801357f0246969be1c78e4e9464070d15d2e46d585ded77e5febd8912dc2e26aefbb2c17f2eb5b95ee8d6866139969363400f0e80eaf7b580c96d3abad3797df1d1ad8fd7846200009b565b6200bee26149008801357f2b51a698c2033a02f64203f6a86f3d7d51f4dc76906ac922954e7c216c50703a7f090cb3381d894944720dce137be44f1b6e6fa40a4f3daa23dc84bab72997f749846200009b565b6200bf356149208801357f1c2740ad0aa06c131f77eeda0130b6246acb10731930145404b8fdcfe19d63d27f1a7b80559c9aa6d0aabb80714d292a329a9eb274c06adb954563df67d68a74dd846200009b565b6200bf886149408801357f15b8982c5876bb22cb46d0e4983aa63799dcb28e8a585f5a965bdb4997446a3e7f2a37164ba30fe7ba59d6ffbed85f9650061ae447bbd631649a84384b40f45229846200009b565b6200bfda6149608801357e4b516a6532dd953bb13385e63bd22d45f3069c89662421a7d3161140b67ffd7f2b8443b22a06155aedf5a81f777e30fef8b36bf159ed888dabcd961a5f5c6904846200009b565b6200c02d6149808801357f1a643f9541d7ae1dbb5f01c469c3792d9d8b892556e40bdce5526a74f7a2e3637f07ac96ce4b701c2cf5047c94379cf8375a283236478ce25b806e06f2b96eec32846200009b565b6200c0806149a08801357f203bfcfcc563d99135244b4154122204e550e6c3fa5d3b410714223a7b424f537f0dd09994a3aadea56e3bc425800ce880dae53caa8ac5a30ef5b386a053197b66846200009b565b6200c0d36149c08801357f1b4da113f9c5f3ccf9e4c16687dcd420994618d0a944c4568a55956cf1bdab127f07a54e6d53883ff256374c6bfbd3861e496b91136298fe97f0376a1aec7b746c846200009b565b6200c1266149e08801357f10a97d9ed9956c66d9a5cb944f92a7c1ec7e7f9fa909eff6ea334d549ea28f1c7f1ef3940c9f4ef67985e662c737f80a710ad523ffbbb4067395c117eabfde57b6846200009b565b6200c179614a008801357f255024a7482d28f664baf76f14967ae473797860e58ca9450b32423acc30c58f7f1b517c19db0de490670585e6a39066724f7b283cb9aa561288f4b21fe2a209bc846200009b565b6200c1cc614a208801357f0f8e4de3e82ef59ec0001c14e8b09816148a0d092d56988d955cea2aae99764e7f057365895014f3b984836439bf353e2ef235c1e70a2a3ed2e9b2f5fbe3f658cd846200009b565b6200c21f614a408801357f072bcc8fbe818e04c71906c5a18e981119b7bf06b35fb84cd8dc88179dcd61d17f046bec7701d85c6abc5bad2cfa2558dfa33b1de84609977c795c4fbab994cd1e846200009b565b6200c272614a608801357f2fe3a18ae2214cc23202c92635aa51319d4669bf40e3e7c60c70856f6b0737427f0f286a2fba380dc628a1f08f4ece2740d48135652acecba6a2f9603e2afa7544846200009b565b6200c2c5614a808801357f08541d837cee5c90b7b9b5b721f22b110b51eab240b63dbe03dea9d9ee0f168c7f12af6affcfd6f81cf0b18df2cf8ed398340ca225b3bdd928b461f2e12fd3c5ac846200009b565b6200c318614aa08801357f2efd9dff0959e00344cd39ad91bc24119d74695bc1f018961b0f1e86d9e934b57f0988437e3feed4c42361c7c0f335e360c5475b0f16d4040739e8df322e3f1dc2846200009b565b6200c36b614ac08801357f0ac3c3ff744db9108a5ec5186f859aa9e689b0946ad0fae2bc4021bf4ee6e21c7f23f5bba600e2ee2e45934c2c80385881c4b1e7391181078f3bb3dd72f734deb6846200009b565b6200c3be614ae08801357f2faa0ab9137e24590cf58a5cee44f12840929b59053ce8c0e0b2342ddad13d0a7f2f022c12c0a51787a8988d56568dd7739106ca49fb7ca4b37dda2fa70d1bff84846200009b565b6200c411614b008801357f183530d35da569a0432afc9c375a26ef10071821b4e9dd232d7188812dc12fae7f01f6134db46e2937e9fd0850ca0bcafdf2daaf52ea195c3113f6ae210bd3199a846200009b565b6200c464614b208801357f02ce43adef25597815c78e687432f9ce49d8de0f2d736ff987f050e7930bc4d47f03bc107699c1200863009145335d9fc3842da69beb8af834a32bc71515e9d2bd846200009b565b6200c4b7614b408801357f02d4eeacea1eeed4225b335207251ba2ddfb89f89cb2a731b2fa9fc03941273e7f19b57d2ba0be45b511187f08306f5ef6b1e0ad7a9f1a7b2998dd40dfef309ea1846200009b565b6200c509614b608801357f0757188548ee5f0e59ee95deba14fb011d2562a90f8218f6fe1af3ef77eb11ad7e3e6ef3f5f6d7ce354c8ae93c14b64baf39fe2cfa93f871ceec6cb571c05cf6846200009b565b6200c55b614b808801357f1660a71b5ada96be1e41562f41c0d9ab864fc64972e061dd64b339041e9accf17e6def49cda8ee2a6d44dd39380d0a07d733c366ce7d265d6f8b9935b3de9bd6846200009b565b6200c5ae614ba08801357f29d9cf6b47ab5bf1eac1615653046169825c4530bc6874563b19efb1d923c1547f0b82a21ea2a6849097ac1708b9befd2cf0d2a4af925548047ea94b5daa043b72846200009b565b6200c601614bc08801357f1eac4512d05372ee82a59a134051b7ad01f81977961384e1d6069921d88ff98c7f204008ff030a3b9a05ad6188626c324bb2440089c5e18144cd76f163dfcd1eca846200009b565b6200c654614be08801357f1b7d811596531cb2455ea700803e2ef411f9180784a656c55aef9d3522b61c717f1c8655a036636adaff6995c34eee337d4f4cbb6c9c247d47938f430210f86132846200009b565b6200c6a7614c008801357f302aaa59193b68731be88000c50f2da3a28d6a7ac0ced1669c290790f4aaaff17f0598848855939fe2b156fc80e6b34aa598fc79d2a2494eb17c948189d5df2b76846200009b565b6200c6fa614c208801357f2460f05925c932efdea4fe0f6a90d740e2f52b1a896355ab129b5b818207c7da7f02859ab6ff8506c5e52599b724649611c056409d2ba16051a226ddd2ca8a63f0846200009b565b6200c74d614c408801357f2ebf4740b2694984cf1264700b47f9dfd209537b1941290e375bc4c1d163fcae7f1993b0662c88963ea0ae58974e08fe9b0c5cf7584869df7e4b9ea62ef0a6e8a6846200009b565b6200c7a0614c608801357f04d250ab5c3125bc958f50a8c6054ce466cd27aa862c529d5dbaf018e752e1507f2123baaefa7b299560d2e7da984839c02d687229d2b01513f37e4724440f5b7e846200009b565b6200c7f3614c808801357f2ea98925fe0ba392d63615518045aa6215bcb711173c2ecf05caae52350f756d7f1b662f41bfeec06c8f9234995729897fdeabfa041e4e6c406161ac15b9c811ef846200009b565b6200c845614ca08801357f299eb88e6cd3208c0e200f4a5e328f77a88884c6b02f954124e33df7a6ba07137e4cdd844226c81f8e05cdd383bc5394665e252bce43de611ad1802872502310846200009b565b6200c898614cc08801357f0fc583f842c14947aaf6f4c11e361ce8313ebfb95980fd6fc919c5be214cb1a87f302eee8ea8b1d0282588e06046eae65fc52fb69b9dfdef590c44ae8227948f3e846200009b565b6200c8eb614ce08801357f23fd56206e46b9b1450f440ea6f147661076698a83c9540a954d54718f8edf5a7f03c76d7068108c9d8087c2852824fb8ea9039be07d904f460c34dfbff627af95846200009b565b6200c93e614d008801357f2fcb75041ba1c5e6a9641995bc41c43fe640776b09dd829803c675f7b0c261557f258920cf480259de8733a0be6475dfbf74950682f2f7f4eb0adc2212ec33f008846200009b565b6200c991614d208801357f2d03cfa0de34171f07dab8ccd19bbd663438bada1e765c338a2c5b51039482fb7f17f8bd7dea85d884e5b46c7cc2fecd6f6c210759a82893b53c1df49426960f8c846200009b565b6200c9e4614d408801357f2fbec1a15d292bf1a46c803900bb0818248201b02c69a7f7c58db68bf275f75a7f16cbc9967110bbabd515315607482b68a85ded2f8db9e4a61b93d2416cd503f8846200009b565b6200ca37614d608801357f0eeef9139754a8a961b040a60048ce0c4872f1c9abbbc3cc62447050460ea8d57f10db678f8048e0f28dd070dfc10597529eb08ee2484d1568728c0e8e62f4ab67846200009b565b6200ca8a614d808801357f1ae90b911a6e9569b2b36131ea046b1a77693aa6fe8ed1e80d01587180a99a1c7f2b52a3423a7ee541f56bba3e7272b3d3c58d50731b499ebf17dc3bca782676b3846200009b565b6200cadd614da08801357f0ce1fad02918176eb423222eaaa0c8dc6df4025503b3c5290e38908df1e47d3b7f1329aab6dc5488b3a0341efa1334110e61d7a2382e47eaf8dac50b7b93b073bd846200009b565b6200cb30614dc08801357f194e9141e766b58278561a4bf2e55c8d621a1158a590dc63406b82bee2a9632a7f2bf99079d37575347d3940e7b415bc46520710ddd1aaf665d94eaeee1050364d846200009b565b6200cb83614de08801357f0faa82883d0e834dae5e288bc89bd6920c4b3cd143ef96b15cf42f82cd7886067f0c8aa7fbe68bf52e0fe7c30c9034bb746440c5aa3d173c6de5fbe8a614e14508846200009b565b6200cbd5614e008801357ed92539125039fcab7c3f46549c147ce5b4bb20adabc2df81ae9ee9f1f673117f2781653ba059f6dd5b01760c09f5aae454b7095b54c2d3109f28bfc791a10628846200009b565b6200cc28614e208801357f1a91049ff0d835b63c0fcbaab336140c26d48f403c0e3db6dba8575e75cae2157f21c73d03da27eb63e5db93be6132e1bf9c08b05e70e56f3532a6e387d0bc2cfc846200009b565b6200cc7b614e408801357f303a164f9340f520ade67d38588f7e568b28b13a07c904b2a8286b00bb3660cd7f0da6632aa9383b9d14df1d427db0985f084d56e810cd0be9b56e1da8444d7c05846200009b565b6200ccce614e608801357f27f9867e3d6aa239f0d9e28e14b51ba0b9395df58d6450d754a284e3a794a1087f1fb771265c4f13a2fba26729a80b9bf76788a4ae5a2a5fa3c9f9e67d5dd918c6846200009b565b6200cd21614e808801357f2b0a25ef89f33a5f288cf29a7ac0ba4842bc6e1c22287cbd180768a71b3275e87f1b57b9eb0ad7d685d11622ee45ff0f3f2fb44cc0ee848967ec2b9cd53450f543846200009b565b6200cd74614ea08801357f2c76bffa408f9180bf3330817def192869cb900f6c3e1ac86adc7660fa7f90d87f063617a8ef7fcd3e037255b0028a0af237838a64d64f12aa56d71b1e892644ea846200009b565b6200cdc7614ec08801357f0f83acde68cb494099db4599d7ec1e03cc2afce26e59096a168f352ead5c79697f1d106921640f61f72a0acc16eb65fe6d25e3b8ed97b8f025d7fc7c1200af9721846200009b565b6200ce1a614ee08801357f01568659a7a88e33ad3ad2569e561954a58abf94071e9e2efaba2feb8112e1437f2efa852e70ad79afaca808d1ac81e8698caecea88a7247a37cc423a26230d27c846200009b565b6200ce6d614f008801357f20c5e799904f121179d49a8e807f5446f9dce9b11a1a328b6daff6fd062119057f1ae5fc201561db839bdaec22edb5c1d57bf59f4f4166fcde58997f079a3c2570846200009b565b6200cec0614f208801357f2840ef8294bc7cc49e9aac51e8f7e06d24dfbd1e03f8efb840a9f9ccbb1cfdad7f1f8a93a431824dce48f13d1f1168b0539e735e53757fe82c2b2ba39ed5258bba846200009b565b6200cf13614f408801357f208b0fe98fc1309bddc363a81a90c7e0edfd601b44a8ad97bc9368cd0b76cc107f28d25efa2b14c9740da51d2420788c69a1374d5efc0c04a982bcf70e199e3b5f846200009b565b6200cf66614f608801357f1d9808eb0bc64954a338e082bcc8cc076ff4ff17ef77eaa8ae4ffd99acd694157f09488e861ed402fbb32fdfa38c3faa86e402ed863b2a6a04b05a4cb43a3a7e3f846200009b565b6200cfb9614f808801357f1e52e9e9bc5ba888e9f187d1a5e9a6926679871f253d93094bba344c26076b587f0d63a797fc8e80ad0dea326e01c76811e836e285fcf8383dd6896c46bbdfa6ca846200009b565b6200d00c614fa08801357f1d9d6e53c4541845a12c00c589af5e41fb92f4239d7fa120ce61822b8c23558d7f27dcf354d46ac2ed0e86c374690a0d984c8c4785edba6b507cc4d96a8ecca5c5846200009b565b6200d05f614fc08801357f2bb10d2f440d249d594d146a9c5999104bcec5af88eafe662ac1837b63389e927f03418ae66156615fb7b3d08620f26b5e1050e0806135cfa9278df6b0c353f4d5846200009b565b6200d0b2614fe08801357f0e3ff7a9c499373dae2b0251890e5857835c1491ebc5d242802e41b7784cc0987f1b8d3e759e6a3014236b8d7d45e5a6692f05f8a211b2b6b34584c38313e8bb67846200009b565b6200d1056150008801357f0f9316548a985b80150c8b03683dfb7297fb4ab894cd99a5d5bce069644496147f0e76826ec1f20db9c2dc790d485ad2c75263500495149123c17d829e5abf0c78846200009b565b6200d1586150208801357f08002a276e98ec9790d2a2987627a13c502a753a9e5887d91c7597a6231fe4a47f1f78e30f866e9f5021485923372e43e696fd96e717715a86469f1f5894a12239846200009b565b6200d1ab6150408801357f0dd5c0b6bfa704c13f8728419d4e023966e32ef59ca55577f01fac9efc88a6c67f2a2175ebd0d4e0830068fbe4740d8bb2e2db5ee69814715f7b6fb8cc2b99fea2846200009b565b6200d1fe6150608801357f2b113272dceb3e09d911d38248a8f43531fa229e74ebddd4053fe5d9fd03e82c7f0fc116e6be0be047cbaaef29414f02b4d726626ec190ab46e1e23bda506adbc8846200009b565b6200d2516150808801357f121c351d0652cdefdbc6f041a9726248051f429c3b77306337d0f9c21c050e367f03a6770b3fedf93c282bd74dfed578dd5d1673f765e3eda998dee2bbd3e29ac7846200009b565b6200d2a46150a08801357f0adec722f523c37727ccfef571fe52f4fcf9bd9ea458856e0d67181bea88c5ff7f2899396380f1ef33800d67fa82bf5f5d5a960d8874358b81ef02252c7d3f2fcd846200009b565b6200d2f76150c08801357f08446d63731dd747eb1055c02cad49f41e36478db763800a6db0fbe65c904cf47f2e88987afbf3752e7b146055f55546d15a25100aa05f06b1918cf06d6b15d4a3846200009b565b6200d34a6150e08801357f04b6d70de6499499308c33542eaf8050057008ba3dc31e5e8ea503a175bbd9d47f27a93800914a6e1f8f04c0b48a433037d7f3239db183c42857c50f605199c77e846200009b565b6200d39d6151008801357f1c4b5be2d2fd757665dfb3cde13e44f15eb348fd8e3384dd7818d2d1b5817c767f1c6903c38cda159c72f068940d1e4ab7e5a4d63aaa794d211f5c57138a3bd9b0846200009b565b6200d3f06151208801357f1bd483594c813c363ce77779c85f0621531a1a72d5662a0eab4befa12b7eab2d7f027440944aeec94b8fa0cc9c7cedefb97946eb7dfce89e999ebb1e92b668cecf846200009b565b6200d4436151408801357f1c020e7b11b087ff09084f41b4a67228451b1939d132604241462f4af80cedfe7f1c3d9c84cf29790be617fdf2e80bbe710469b2521e7d124ea454caec3ae45c87846200009b565b6200d4966151608801357f1726b2d91f1f5055e6ba7970d169d5d2a2b15b93434382d6f8a1dda0b11f0cfc7f17180cd79ac291aa0ea9e2692908cf1824842d5a51b0043bc2d8174a5cc9fb41846200009b565b6200d4e96151808801357f2eee2c3ee45ddcbd02a29c09887833f4bb11025a84fe8dfca9223b6da7e999cd7f1d16b1182a0f72eed2881052283553120dc8657e66e333b37b2a185b774e84e5846200009b565b6200d53c6151a08801357f0ba8bca78017339d9da9b9d98e96ba94d61ee64959a55b653ef0335f029b66af7f2c51f34154950b87687c89efb8a169e444f1209d636ddc0f424e78e3e7b894b7846200009b565b6200d58f6151c08801357f2be61042f909ea99c86a58cd798b5a85979a9b95ebad4c4b87dac82d47b738547f2fdc9efafce4be15859e2d0591d1d659970f8f78dff92c5ca8d1adaa3dc5c085846200009b565b6200d5e26151e08801357f0ee5c5c0f49a2f2d9aa2363e42c59ff3c6fd2909d5cf6c3f0e93768b20e4a7757f15631121ab231424a31c03f186195c2ff7f280f81b45e64576f1acf7ef7ecfc3846200009b565b6200d6356152008801357f2eb13804b5f95b2c46c4fa99efc7718b3d81e5be5dad563b082a3d87e9d8a54e7f16c8c53283ce325649e61c07e8493629a58b5f79d1c8a3cba6a3fb8ca60097fa846200009b565b6200d6886152208801357f242f9d8b50b5020c62c8c518cd9512489a12426fab3ea5c00d1948d3ff451bbc7f0828ae318034a6d55bd3fd0fabf07e9dec6893f947f5975906546ccc1b98bbc2846200009b565b6200d6db6152408801357f1d3917ee212cfc455439e6dd8f7f43ea32334c541e5fad95a5ee411b93e85d987f111ba010d00553343b79c0c756b9bf4e9ca5b9f1b6d0ac18d4c986989865faef846200009b565b6200d72e6152608801357f013e4c17443821af04db469624a93c0b1217feb9c748b8007a3ba8a0580ef5557f02473d3b3620ecbeaf5937913a4792b38838beb1b958a2f0ab6ce65923c089ac846200009b565b6200d7816152808801357f187533c7f62896ce470806aaf78c19b6ddaaa1e87654f32d9af48137c45e49747f107e984b0236b03a588a9cb1a55ccb829f5215ca5a2c9b9413d220136e5a6c6d846200009b565b6200d7d46152a08801357f1c793ee31e859a4ba40b477c8f7a8287e05c24b68f545ddbe28b38272c87f59c7f0193fff9feb746aecb7b06e158e1d05b6274cbd4b8a1fc3717137fa0054eba74846200009b565b6200d8276152c08801357f08fb969d3b84003c4cf6a8f383cc2d668d048ac69b09d76e49d671de9bb441b17f15344e4dc4a1f86edcfee3dbfa95522617108b5005f2f0f5e4295262983eba67846200009b565b6200d87a6152e08801357f18ea488e7bedc1dcac8325abeac8fd4424d1c0b390682b36fbda9231daccca9e7f0daf494ceff14717f469418fb451f1cd51c946b07d64d8ece71e106eb529db43846200009b565b6200d8cd6153008801357f014d996f302e410b2d40078f33d8791554919345323bae5fdcd7c9447b7a1a777f2ebe9f5c121aeca03c4492b24581becd0ff95f0860b4eb050ef18deb0c48638a846200009b565b6200d9206153208801357f2ba0178312ec13e6812d32cbfd5e493875498e10fcde45ecbe446d3f9f4477f67f2efdfb6644edcfabbdfb7551de430ac2375831f577982717b37e11daa02bb9f2846200009b565b6200d9736153408801357f2f385bd316774dbf7871159b9695a5d0889d30eb54a7e44d2dd4d8096ceed2fb7f25fadd07f6f4f18d68ecb43ea931acbe2d39de233fbcac2acd94db3e51b505f0846200009b565b6200d9c66153608801357f1fbceca6152ddb70b4e8d47e1e282706abea1992b4ab420ce3d60d00941880be7f2bd0340a05335724ce4574e0e2e0640ae8835064c8dd1c85152550b62e34e33e846200009b565b6200da196153808801357f152b5eccc48fb43cb40f250e76cf69f823b89fa76e06b5317f5d7c9efde217f97f132b737cf506c3e5f838b15acd566be79484ec92cd7de4ce3b5458d6cf317366846200009b565b6200da6c6153a08801357f23ef9227ecac2a65b368ae23aab8a507cd18555499eabccf72c5aaa9cb1b36bd7f077d82441b95f771db12ffbf0a33ef224ae38f0689df6a1dd8612bfe90e94b26846200009b565b6200dabf6153c08801357f0b7c72d892c83c26554f6a88647f798315b7af786f2c426d7a7c771d72efaece7f2b2948ae6bf9d2921a78433d294342f4c3e0ecc5e130cee4b07c05d8fcf68b5f846200009b565b6200db126153e08801357f0ecbbbfb3e563938978b18ed57f0ee51003e040fd5db179d767d48f7ef2ba5217f05faa35c91afe3f8854d2eab5103e87f4be8209b26db75aaea39487c0665c1e2846200009b565b6200db656154008801357f2b9b02f8a8864bc557d5e04f1035298b985e2b2a24a338c0edd909d4a6e9ca687f1d31717cbc3257aafc16f60536846f82ee29596128ba58f66e72d49f7682b4ba846200009b565b6200dbb86154208801357f133f8c1feb408983fcc9fff9c5c2f13c2d0473d425e7352c549970a2dd33e9817f1032bc7660a9f9880b6ac113ea8fac532c5ee1e433525a0f86983c0402b1a838846200009b565b6200dc0b6154408801357f2a7c4a0a817ce01dff0f623c561c480abfe05b34b6d805111ef109ed3c563d6f7f01b108e8f0564d9877c07c0197c28f712d0c128d95786b035d1a06cc5c2ac800846200009b565b6200dc5e6154608801357f1b78c519c9a5cdc48cfd301cdc493ab75f22fa93ed5befcd8f43dd85bbeb698d7f3045900120bb0b45aebda02c5f281c0c72cd2edfe456aa282d9862e093cc7d19846200009b565b6200dcb16154808801357f0d446f9aca69a31e3e1166cf66e62e5fce4addeea8ff190c58cb558e84362f647f2579bbf36610561acbe096ec7088b0d76248d1ae9507d89bd8b92875b47d0b70846200009b565b6200dd046154a08801357f0469f31ef99ae0298d42fc501114c91d5716e2f395fe5674fcccfb2d1aa89ca27f2974f7eafb4238b67d475df181f63bf413e457fe841d3c8d3552c454d0a92aba846200009b565b6200dd576154c08801357f16ec36b2d5632e193486c2a7bb258b471280b6dea0e209b83e2a6969af8d33307f1cf856f7a1ccb63acd8c0006a2b5900f3c52cb3e17dafd3a06160aa3c59df65f846200009b565b6200ddaa6154e08801357f0cf9fab6f0da8660c829dbfdf0851c666b4157ebb0f56ee12cf313fbdff196d07f1b9dd872f7013db5216e24b2f20637263ce197f4b2e75bf248bda1ee9600a09f846200009b565b6200ddfd6155008801357f1bb85f9880022a8b4c7af9bc97b7543e41f20e22f520e73a81c82de14579d6187f2aaa306dd887087ea108c2c1958507aefbfbbd9ad222584b69f0fc10070628bc846200009b565b6200de506155208801357f1a115b55b4ffa198288a4892c9a33088cd216c5d13a58794996fff03a07f72a47f0c3fd3885f07dcf3d4a1c6a4ecdf2f9a4ef8a832645c3e548d5ebbc4fb417f9d846200009b565b6200dea36155408801357f0fed47a3e2204da8b09ae795f173de2ca193e61be58290151c35c5a8e2c640537f17211f6f2ccabbf9b27df10f341447897736d13d3030c1d042b61c2ae5af20f0846200009b565b6200def66155608801357f22359bb498d0f6582efa50da5f0717d7641aa383a7d867ff30ceb1ab0b38dcc37f15466f8d1a956650c69ec4021c16c84f8719badb3f574d560aaa71d0a1e881ce846200009b565b6200df486155808801357e92e81936977b08836f9f253a64c3a2a02a6f79e12e595cca67de6e6c71f93d7f08f37310f7ab67396084950b68dac0c7cc236d369cb091c6888762e60f2f07a2846200009b565b6200df9a6155a08801357f070a0821b662a8b5d27c0b6ae8f138951d08448880c2c692b5a27ee8f585c1327e1958b3b592980d212c017576479b4eed6c37a5b62b5e83b1146e303c60cf75846200009b565b6200dfed6155c08801357f1a1c30ba277b1ebae8ffe240c7087d8a4b7f87fe3868eaffd36e0d889474d4ab7f064ada5b14c5e49f46292b5b15c1c8d8ea01cb1102f6f1741163d2d0c8a86d78846200009b565b6200e0406155e08801357f30274f4d1e84d9c630aa84ae52dc9d268ff71d6d10082ec46e85a3322726b08b7f2e3b6bdd8bec74b5d2b07d3fa8b12a29d92d489c086906a49ddb18ccb98cd7bc846200009b565b6200e0936156008801357f01418889b5146359cdded8df59fcbd671121b9392a64c1cf0040c53565cfd9167f05bb88a02119c85b880146750c39d14eb51cd23aeb931edbc90bf729be421ae0846200009b565b6200e0e66156208801357f2d7717838c7b2b7ee960e9bdb403b834a4922dd72ab413728cb16d405345795a7f22275ecacd9f64f64cac4c1123ed49de31305498eb7332a3e4a4e22203574b46846200009b565b6200e1396156408801357f28f9c2622c5d727dee7a1b815990c8c68b823f01ea1b22542c090979adb8bc7a7f031ddf889cfd463a763e619155c10e29287f644c67c6fd35d9b37d992bf1a179846200009b565b6200e18c6156608801357f1ec32b1ab7a9a3183c378c4dd252aebad49deefa3c23cc5c131ae044b14347117f12c7cc7098bb11347f1fa9546976c589c242413242c96c84bc45a4aaa758baed846200009b565b6200e1df6156808801357f1ee89612c698036428c9275f9d0e4191e199a89f99a337d08106a3499b8b5c037f250ff7cc3057b30b042f717f7c1fe2ecde0d0929f7ac32e9324c64eaa92ea104846200009b565b6200e2326156a08801357f11d106fb3955829337429a0d872979b6c408944f5a34dd5d55cefb5f81d5fb937f09f3a6b8fb74ec3271bc7cfa34ea448bfb08fc7500c47390c646f0d2190b491e846200009b565b6200e2856156c08801357f2e366be6a79896c18ca96c7ec9f0ef7d716780827d582b10b471acb89affbdcc7f02c3b816406e83fddebe71bfdc2957e1cc3fddad0247a5e0f4bf8e7c2674d04f846200009b565b6200e2d86156e08801357f1c391e9098a8e9c2cf612239568a6445737649500f893182e1d5319394df5aa37f15ad08f16b84e76c64425b0e41f5ede5ba426967ca0eb1470cedcacf364c063b846200009b565b6200e32b6157008801357f2f6c555740aef6da55fe6e915a600736c52d24cb3a21495f4f1b4e468615ab047f20732bd3be7e86ec0b076623ca7262dd04b185a10323aa599862f9ad810d0c53846200009b565b6200e37e6157208801357f063587c348be67b680043a7e89677e9ab05ac1cead4d5793c56b18b9f82a8cd87f18be31e65564c1c8a9eb7b7bffb45daf6b320ffdf165e5cbb8d740af7663bbd5846200009b565b6200e3d16157408801357f2d1585e71e7a924658215ffd25bc623ebf8c06fd0b1f25c2585ffa05614a262e7f0d1525c66bd0eeef1e79fad646749f693e8ade933328f658de5f730f01307891846200009b565b6200e4246157608801357f2ed9939d6e5dfca6b2b404401a2ab51500640853fbe8f1823bec07e0d0d1c71b7f135759b6cc19b4123fc94a12db5468df1074bbc9045c1fa4d739673193296bac846200009b565b6200e4776157808801357f218d1b9c37b22243889371ebe3b169104df57f2202bcb370d14c301d86e3dea47f17c36f915a3e466f6e369dcbec8c58c0df9aae0f9ee6835f38206288d5a67951846200009b565b6200e4ca6157a08801357f014dc4c7eea667d3812dc540e45e8529fa83932ace6bacfa4bff6c88c3db1c937f03c7461d9affed331c462e5b11a422c2ef79010a4106c592ada34cfa62609701846200009b565b6200e51d6157c08801357f1f9d201147b0d35c8a23db448227c01fc8903c6490eb9412f6062eed445ec7c37f17d5ccaeaef32209e3d90dfbaed549f3092b2c7babcabb9d4a17941063a3fe95846200009b565b6200e5706157e08801357f0d37e34d3d405d0e903b769487fd2441d066e024f55dcd0175e82d90d26a833a7f10ca786671c05c31fa1192b938730e7a1912cc1dc6b8fd2254a01a5cdf4b9771846200009b565b6200e5c36158008801357f2e43c91ce5a90e6e3557051e6c7359fc3e67e7506cea14729fe478d392cfd3b87f04a30e1f2f4ae580c4de4a30459d03f4127cdf8abaf6f0e61235517b6a9a55f7846200009b565b6200e6166158208801357f2b80ab0989e076089903af8d42d21933282c2a5c3488644bf00435ce5890f49c7f2cf005af0ef062b5b501b6ff24e6202b338cd254de25bea24c5b38d6c35e20bf846200009b565b6200e6686158408801357f2b012acc41b8d9288fc4612406f6ea74338d5e87435ea0ad72f2ac8327c002507e34ed0d71a5188b21f48edf85a18dd76059bdbe25cbed10215542bacfef372d846200009b565b6200e6bb6158608801357f1195f32df06aa31358aa5818ac4fa4785666c160a1ae11b30f6c35a5a59442ec7f0458ef46f3bc113952891e5c093c69016194e43cd43842a671e6f3607b91b8e9846200009b565b6200e70e6158808801357f2e78a732e57e11a2c7bd0775504092f772f795e215ea8d0e747ff8b46209ae277f0c76419b906b818b3d383b51e3bb4e2b64a46f5cb809497138c94e6344f3203e846200009b565b6200e7616158a08801357f25c162738ac4ef0898424d367a683a034289d8122f8c7884a173e44832089e787f1e882722dfdc3876f1e5bb186bec56233b492e08f6ef3da4dc30aba26ee36c0c846200009b565b6200e7b46158c08801357f1fa07f05262d952f449d4d5a8be7b2156481e952e510dd4bb5d744db8d94a7007f239d8605b02394977b76573bf90b594f307a633ff794cbd2ce9948825f7408da846200009b565b6200e8076158e08801357f2eba209f1987070804b357ccd501a9b9924a9c829214628069c2b7cf01f377737f2b6abd1ef6c3ee49119e555dfe23b043343791718129b6ae431b1bcd427e710d846200009b565b6200e8596159008801357e96f581fc037981a93fb4d820eabc976661c475a9ec5c137e1faf231a8031307f096a49b4d86d647534ef20193fdaac879039b368ee6292684940f5fcb82615d6846200009b565b6200e8ac6159208801357f191ca0f0aa2701ed615c015f5089e980bbfcb4d24881cc1329d553bceea2d0757f17337180d8129047a4b8d2e62968e545a1b7781ae86083289fe22d3aef3eed7e846200009b565b6200e8ff6159408801357f0344465657dd1b7bfdcc4e4149acb1e706e53664531bd58df417d782e4949ad87f1b48d2e0cbc080acc9f6aa3f3e868be2edea12fe432379de537e307f9499467c846200009b565b6200e9526159608801357f122bd2c708fb54f7a990376199b6c1216da3e9dd707a34d3532daa4804de4a3f7f13d700dfb5e9d1eab66d61d80de11ba3d2c9baa968d73f1895209a038b953bc1846200009b565b6200e9a56159808801357f13b85ede92ece834e14a7f40e1d5536cce2f4336e99c0c3e113e98de626ae4b97f1f9c82d3f16d9615b18d6c099aed1689c60fa1c700bf1a0a88c200ce65873041846200009b565b6200e9f86159a08801357f2782b6ce52ee3f5c3ad02d3f6d9ed47de8036b05f6fd6c4d109da9ade28c74d57f0ff34a9613d3edda3f96495ac21fddfc32c5046328260ddee2c3da2a57258227846200009b565b6200ea4b6159c08801357f0f9bbe742a6531cff5f14951e91ada07cef93af0b3a28abbe2563f3265c828847f1a0567ab7ec19fccb4d9f2f2b65812eb9cdf101aa918744bd5412e03dd1a1603846200009b565b6200ea9e6159e08801357f0a4f8ca299c4de51447431247b6cf0fb0e4f305a39a8cb2bfaf895e29e49eac37f214cc1027b33698e0dfbf482239df7bd089f3a4ff3ab855c83b8c248595e0868846200009b565b6200eaf1615a008801357f047f937eeaa76d3bcfc17f68a3e56cd681225fa3ad7d3067282a3903afcb184f7f096840f5b82801ddef22266782c5d7ced947c678e42832399d202eb4db3dda1a846200009b565b6200eb44615a208801357f2d1b40ee2235f78958972cb074245153f29d66b1d7dca31a14615cf8778c5a6f7f10f52e46af714c92043401e65baf8448ba7eb93c963b6fe381db028e095bf511846200009b565b6200eb97615a408801357f206aea0901d9b2542f20548df69341be76b6cf39b64ff9544c2d8ef9fa14023b7f0840ce6d77e7ecad8aa2b99a8a768caa03ed99cb319c096556010a70a433735c846200009b565b6200ebea615a608801357f2885bfd660fd5bbd46ea18b35e282fe72a18e6be14b245567f1d13d8f41a08ae7f12367ec2de81fb233f389741b483d633961b22da05d68f2831ff81fc9ef683a1846200009b565b6200ec3d615a808801357f2175843c29adcc019a482e61d8c505121dbc8491b52adc2c31420b04df8a6c4c7f134660d5bb11b94ae7a7469def672d895a4d537e84e11d8701ed1cb1421ceb6c846200009b565b6200ec90615aa08801357f2fd8df4353d0b4fe9639abad2f8f7bdc4776b6d66ee5e681dbce12cf3e701b497f16c92f80dae911c14822ad794cc89c58d3f2d904405dda72626d3975c6f55e6e846200009b565b6200ece3615ac08801357f17547443b9ff0ef609a575a0db302cbb87991ac8cdef9211cd8edd2108431d697f2c39d4c4e8bf70854dc2f3ffc867dbae09cebfb76efc3da452aa47b4797699e6846200009b565b6200ed36615ae08801357f1b9e00ab4bc4f805c29f31f814a1f81abbbc7d00b5dc1196a3f5a954541f4f227f2e718432022363dcd796b5b31da888d9e74da7a98e31b8d63de75760d8873368846200009b565b6200ed88615b008801357eec0244365acc2b347ebe60d47cc0aa40d25b38f79d9dab9ae531814ffae0927f028dcb73ae1d7e583245bd9f3a94e923efe2b19260ca1980c81b1b28a192c556846200009b565b6200eddb615b208801357f2262efe5a2e2aac45fee44367cfb861f3635cd4716be2abe18a58ca5043fc6967f2a3f62d32580d79dcf165b1df1f1303bf9293b09a4fa1f39078743d9c89ab2d2846200009b565b6200ee2e615b408801357f09f432c6f6fbc823f8e3fbb5203c51feed065bf0067b4dff9cac28705e05b0287f033a719a5d4673e99bd3eda3cf47a096c2ff62945f0cb133d943f65d96a78aa8846200009b565b6200ee81615b608801357f1804725a0db8eebbaeccbc439da2a0c751d1e24a70b1ecb436926eb433caa7257f10e6f166e9dc0d8ede8787217ed30ef617211e91401452fba50939a90037a489846200009b565b6200eed4615b808801357f2ef34b7091366f659a93d35fc12deca8aa7199b95f35f50b7db84787c1608fcf7f2de9759895e754791a54b5989d7489a828d5505e2fd8a94073ec95225ecd3323846200009b565b6200ef26615ba08801357f30281e30c457051f22d1bfc78fa1d2684b1b9e3e73358b990b88262fadb04a497ea270af3af190bc2c386c34828854a446179a671560adf086fe572808cbe746846200009b565b6200ef79615bc08801357f2cd6760271b9fffac37a66b457d1320dd38dd6393a0dbe116af4bafd04eb50587f0d37d581a0b569e395d1d26090255f32413b97428435595b554a837e4a91fd4b846200009b565b6200efcc615be08801357f0301f2f0e47c50bee85587b98b24855e4d81214fdda8f6c2c043a212b53a508a7f0cf535911ee5a153a8d1564d50075762b74d0cd0baa5c26d02b3fa6d5b60d1a9846200009b565b6200f01f615c008801357f11145af1b642fed054a65b40eb2d5ae5380eaa3ab9f5c15a564b3db107e600417f1f0cc3c07a3057ab8986b01e2d764ee82c865720da0dae242b62a1c7e6038ec4846200009b565b6200f072615c208801357f2db9bfd4585f11f084496d601a5d3fc6a3d72409b751815b53112dbf2fe519547f21fa9f4feeec098f90a41cb3eabffa8ac928b614e823910062799cd6fc0e1dc3846200009b565b6200f0c5615c408801357f281676750a46b8a1dba66cef9a42651a38a12e81d0230aeeb6870f109cb911747f131b2cee45ce3f68b69076c612e3d82d52afec1455f4e99263c78455c5fc13d6846200009b565b6200f118615c608801357f0587deea3daa3c9d3a27f6686bccff89fbd50f626325c903af816f62053830af7f09a28e97e4c3b503ba1d3315205b9190aa22ff01bb62e0c1ac4ddd1b81818547846200009b565b6200f16b615c808801357f17aa5116990c511373fc4ff2d88452e8d9d8bbd359ce8c199e25fc417f058d1b7f130d10af73044f6cdf85a2f4d4107115233d709546bee8a4ea7f89a3dc4c9284846200009b565b6200f1be615ca08801357f2f699c7f76689f655e72bd0716867d922c1a33d3392e70aff2ed99c961576d217f2100aabc50f7f122e59acb94fe3eac6265e434aa219bb722808047ffb6c82144846200009b565b6200f211615cc08801357f219ea1b29b3e052f12e84cdf738fcb99a571eb687e83ee83e188bb9fa3a37fc97f173f9520ea928a616e27a63a73ee93ae29357d55a1a12693daf52774bab9b897846200009b565b6200f264615ce08801357f0ffd656a144b55de04ed09eb0345f277875773eccce503b267362e3d4ab9c1207f2b5f90a62b70d723de5c19f37692e667e893b5f5c48fa9fa1b5af5727ef20875846200009b565b6200f2b7615d008801357f2161efb2c79ccfb63cd9f4292b761227bdb2701160452221e8c22a7db09380f47f2696ce9cc2fc0567dac9b3b34c2169b6053bc17ff1eb18f4442ac6a9ac79f9b0846200009b565b6200f30a615d208801357f119b2578b719a14589a3e2b82cb980387ced258edc43803f211d6dd625966ef77f154b9b539653b6e14ee3d82031d4dc54b7f4c270959069e50e42523bafea6f49846200009b565b6200f35d615d408801357f26fa8566224ce195cf6de768cad6af820c8ca6e526051c25ddebdad2a9aba59c7f1123267f4032e3e1844746a7eae4ccfceeb97a6e7a54f42b23c78ca57d5a6c63846200009b565b6200f3b0615d608801357f02be9e6b17c0ae2792d82a0e7b18178fdef3c84cfd2857d60ae7345bc71ca5827f21d5af29e9dd1cfc5625f0de0b34f3090926797e4388084f28f2f3a149e38738846200009b565b6200f403615d808801357f0c82afcea80ad4b528b6cd35932e6b954d682c7042e33890c315903d6e3b4f8a7f2de8de4c27ffbb8706be12e1d532b8195fcda483cda8acee1a558fac564c3042846200009b565b6200f456615da08801357f12ee8d4a26992b8861aa70006531211294d26b5b3f75898a88ab955a85264a827f1855f511b000ca31c939ca078d7e10cd306902e580de5047bcae7f77de58fbaa846200009b565b6200f4a9615dc08801357f134abb45c9e3491a4d67aed211fd6930694826629e1871300273745c8fd245b07f17e6f6726347c3ea269bee90060ec4d21701692dc2981c33b8d2b7488e5cb970846200009b565b6200f4fc615de08801357f0f4b18cbf332ecb3e239b0079d1366cafc02a17ee979589c5a3c2269b54e5aef7f20b71d4e6b679123f5d2fb11ca5253ee1593140117257b040e5b43fbce635adb846200009b565b6200f54f615e008801357f19a07b69c5d3f345f1c0b18bf7b31f0031460df74f487552f3559481765006447f03e856f9bad4fbc67b40dcba0d9e3f5b3d71c15b88a910514eb35085b072759a846200009b565b6200f5a2615e208801357f16e4fe19d57255ee27630a5b69a271d4fbc146f6e548e2f1180c4fc6c7d6a1cf7f1b5c89f442d63a392975ade3be01a02c00b0f282030342adab91f3ed52c9eb2c846200009b565b6200f5f5615e408801357f22cbf5b387ab4d5bad047af810cb8760eb1475161fe8afda03ef7a0c990feae57f1be19598ba654706c4641d4e6c7eabb0460f224316b5d625e034ddee4c900b1c846200009b565b6200f648615e608801357f045131ba662ed2728b047b843978abe65abe7013a6df61983fbf0c5fa72178367f1a7a46085a3f8dd2213a889333e63a41270d48e9c0733ccf7878748179dd921f846200009b565b6200f69b615e808801357f2a89c78415dbd24b30584317f0c644a3f12dba3d57533f3fcee34934925431157f106667c5efcfc1fa594ec6179f0b5768131be830b0032686ea2e4d3ccbbf98bb846200009b565b6200f6ee615ea08801357f1d7eeebd95be64f354c28ae4857936d99f94a8e3dddb9a334089dcd52c7526527f2737475b80e172a6b5504d8da53cd339388be203f250ef44fb454f40a8d01012846200009b565b6200f741615ec08801357f1b7072f631e5e059e7b00d33042564a84c3319fba7adcc30430bc53882bce64b7f2ce9ec0a0724f4cf06dd33039130a3fa0c31b81dec29b40261f2578203c4d516846200009b565b6200f794615ee08801357f0f6175bddd109c9534d9ed8230cb284e3c7430d6d3d7445b63077caa70dc81b77f0ef2ee7b034acd2e196e19d35f460ff144a656d48d2a329919c1e1a089b7403b846200009b565b6200f7e7615f008801357f1ceddba4a43d1320e84b3bab7ae25371a9a843ed1380c697502a206e0d6712377f2f90d4a80363ceb017972482216f37e5a404f3f8e762ed2e363e70b6f4a8a4c3846200009b565b6200f83a615f208801357f0e2df9d22c09554e4d7c02dccc757ff71383dcd918e358467a36b4382303b7777f25003923bf9ee37604e3c733e1d1b15b20556e566669c9eb66bfcd06fa230fe7846200009b565b6200f88d615f408801357f0f31de628c9a2cf01969afc736cc2f11530629ef33bf3e8346de2fc59ab9c79c7f2a2bb3185d891a2a27281f9f53f3e888e610db940a7cf4c1a4540c2089657067846200009b565b6200f8e0615f608801357f1c34c4612adba2ebbb75b805aece173ca292862bc1c41e244b70873d637d67997f296c46539015f33bd2d89c89f0f14ec2555bd5e25c3f6cf5c98ec361603e1014846200009b565b6200f932615f808801357e8560d63404568b734f7fc49afcd17e53fde480d0a4a60d02008c511d1edbb97f1caf456b94b53ca647c4c5933e67ba7b32754958c672ee70299ab1a2e21da315846200009b565b6200f985615fa08801357f249e34f06f798ded7eeed4eb55375f0a9269fb7510560b4efe88c643ecc5ec9f7f0aec6d7d8606b6c35e1ea5bc6031ed55240dbfe6c85e0f796d939f42d22464d4846200009b565b6200f9d8615fc08801357f0ace825cbbb18b91af842615ac2051bc2b8db50df8f4764a179174155e24be4b7f28d80e6ac11e1a66dd5977b4e126e200cb5bc3cf315d4de8309f5041071613d0846200009b565b6200fa2b615fe08801357f2f36a722b4039115b5510e8b7a0758a4d31efdb227f2993e4d8aa80d071cf6f47f120768ca67cb9e9b2bab1842c270bcf6a69c0a66e3e8229d8ffea6f0f3b52966846200009b565b6200fa7e6160008801357f2b4fcda8b6d500281f0632d81b104ddc4499992fafdc75a06ea9b4f9c25296b67f2312ff4cc8628ce3cd2a6b002678fde0402dfa9b73eb8660a70edab88eeb38a3846200009b565b6200fad16160208801357f084b22ff4c71549351c59cf13bd253debcd1a39ba686fc5b4e464e353dea3cc17f12a9e02e8b033ba4ae5185f84041fbf39fb21cc05b7530cf62c1d4d47b7c30da846200009b565b6200fb246160408801357f244762ee6882f86fd48e22d663c624cc037c0be2fa9a5aa8cbcc026a2a39199b7f2d424c9f004d98545105d3937c2f2cb2067d5debc32d2ceca9ff895842d9a0e0846200009b565b6200fb776160608801357f0344056479e886bae71668d157cf372d755b9a7206821c93e49be81a5dcc2ad27f1a0cd9ae1a43b41dc60b4f0e6858ad86896c58994b13ea82d72e4820e06d0bc8846200009b565b6200fbca6160808801357f22348d01cd6c945110247dfb5590081633116a35dea2d13f5fc504ef77c413637f0b00610299ed93daf59f49a1b078f8df7e4deb3cbb55625723d5f086c2310425846200009b565b6200fc1d6160a08801357f01b7ae50e0fbe6416a4ff9627faf55ddce7a8856e577db9658c5bdc6e774ffcd7f2edb6a3f41e27c94a82b08a36c38ea18745ff004ad5e026bb969b60fd42dd055846200009b565b6200fc706160c08801357f168306348cb66c5923a1b0989e8b80f179b0f9fde7d525f11a4378186d8aac5e7f2e6e019b9bf6ee2b9169617c463df670c84ad9a22d0094d9c217b9d4f05d407e846200009b565b6200fcc26160e08801357f1080d20bb5f290860674d96b6487edaa9b4b902b346704f779239865033ce8ad7e1402f5409663a4befdd8a780bdb9f8291b4a12a0fd2c9325c289f1a2b01cb1846200009b565b6200fd146161008801357e0d73a64a6aa722401b8fa13e8bd3fab8b8ea7ef2485b460cb0be1b5aaff74c7f2cecdb68d7eadf6185b328315395bf29bcb9e1e53fd37650af95d056be48b2c8846200009b565b6200fd676161208801357f0995fd6f62ce7f8cc83c21dacd412318dd2155e0ed9e40f308db339f318aba5a7f1f39199065760ad0834687c550ac411caa46a118ce923efcbcf2c1ec488c81b7846200009b565b6200fdba6161408801357f1f1f4cebe7c7f00e69ec6ba19b3e9024ddcc9d17ffdb18a6c244c74f1c6958c87f2420e05134f9a873f36b6f6e91e60bddd8e2a350ac073801a00f179dedf6fe9a846200009b565b6200fe0d6161608801357f2ef1d4bb1fb82943e820c359ca14e943e648196808617cdca97aa1afed8147a37f198df7290d353613083a851621de732ca2a6be8f19e39e1c9be67ff70200f461846200009b565b6200fe606161808801357f26719b9882a9ff0abffa31dbe2bf203b7566d59a71fae5b3ba2cb9cd6093cac47f15ea984ae42a0aa566222303bb57e50104e1d69b12df6f32fb749e3a43a27da4846200009b565b6200feb36161a08801357f23332cbad517f1ce7e51a41679dbc44deab4bffd78500e6205c6654865aae9007f2da47bbc7761af742924a299ec4051deccf14451eafbcdd4ade6c556f97de903846200009b565b6200ff066161c08801357f272d206f3d984a0e8241fd98eb162d46af773950c7374e21968b2182594e972a7f13346d8ba8f875b4deb88aab35bd0ee6054da2803c7667f709d8963ce5629487846200009b565b6200ff596161e08801357f27488bb8270642e8838058b2861a883229e0a92911515026570241b0fa57175e7f1034ec96dd525aaec683ac856423c023e8d2a60196e43ea56a689576516851e9846200009b565b6200ffac6162008801357f2f0686a9d9f63c14a0e3b0a287e9a0db4cd166315d593570c46871ec10e344d87f1084efc9cfdbf4bc50d1276e441d0631cdc11aaa65faa6017bc4beb909c0f0f3846200009b565b6200ffff6162208801357f1e7ed8e1559b91ea2ae7f02bb674406c0705016c38eb190be7facc5868404d447f2c7d6fb1c3fccf4e845489bdf204b25bae29a946ab3703f1b0267bf62a6c1823846200009b565b620100526162408801357f0bb9dbed871308f75fcf7c99bc7aa7c4bcfd497b174c5d61f79a902f6aa81f8c7f1a17d79bb3903fc0bc4488d4e1af1abee763cdac63362bac843acab4ab645562846200009b565b620100a56162608801357f28e2561dd607b8f5787020a518b2c4b8105cb9f34f77800077318383f5dbf73b7f2026cc530c7491d6bce7b6c95d4482110ad76500b60b28069c16e8e0e3af142f846200009b565b620100f86162808801357f1b92a6b41f90270817f6020667fc969f07e0d2cc14b5748d0b873ec517494e917f07042e2e8092d653f8799f91c071e0c89650bead64a1c5739697bb5c6e1572bd846200009b565b6201014b6162a08801357f0d8258de152da0a918d70692aab1bd06d24a2998a66c41975c14977d716137c17f23bb8cc7e7800221e89cf962183db043bbefca533a1f6d3638e85c3edcdaa4bd846200009b565b6201019e6162c08801357f0faca5d048f8d6c80b8d40e526f59d4f48873db4ba136c332fd33eda24e9a7f57f04154ff32ac8cc9692fc655cd843b7cc0ad71c9138220545938919906b519d11846200009b565b620101f16162e08801357f101d817feabeb3abf97f04f8912feeb846b782b6640ce7c1a1917611bd3a473a7f03654e289f7e432902c57ae3895060dc25661b7784b94a38918e108ebaa8990a846200009b565b620102446163008801357f0d9ef289210852f79dfa1dd7b157120bfbab44443f7b19daf2ca9d4f1951b6487f1b1fb5fb877c85bb3dcd062a452420da0a12ed1598c50b94fa6d54386c71bb05846200009b565b620102976163208801357f2044fcae197e34d16fbbc992ad86cd922f639f30fc545ad31aa9ed9db5159bb37f2d430ef62da22740923eef88c38b3ba869c67251f639c40e34ade860b80bc218846200009b565b620102e96163408801357e4b4964d346dbcf2c4f61c823135cd101cdfbac2bc929b7ded5886cd9b5be9b7f02fa15974074f5bc4702f11df6f9c364f177be9181a3c81a7d85beeb72b4ed7c846200009b565b6201033c6163608801357f10137c2b32800cf7738521d81fbaa00996618c7a3692895d14430d900b744abe7f27e682d1f9d58879b9a2dce96bd6cf8b9c891333e4dfe7d5e236bfbe78440eb3846200009b565b6201038f6163808801357f220fc3dc3a36f6d1c8ff40f9c48c45e9171be13b7396bab044ddf0343d888d6e7f052303058d4bb85a468d4b7816dd505830abd386ffc7ab44dfee48cce95aef10846200009b565b620103e16163a08801357f053612c6bc68c76d2d4004fed074700153bbc04b4eeee7a0690c3382417f33bc7e9a19a41facc9c0751b1479c414f8661b41677970f6fa8d0415f5882be6a255846200009b565b620104346163c08801357f22c09a13f658f47cf45c170acc74f0c5be59ce5cb60f52d27f2e70670afaae477f13e8d9582a21ff321e5ec175987aed5cd6395990b9565271a59dabbe8206205d846200009b565b620104876163e08801357f014c35b3da65bf487dba71aef69a16e09f9f28e7085efb7f58ada7192ab799c47f18a8d5ee91fccb2ac53fe3eee169b52346dc42426c1202c45bb90030f62cb607846200009b565b620104da6164008801357f18ff32001e4a92c6d6a9da18ab413d0ba700ab5908bf03eac65e39d44090a6877f1d9febea61c63f3162a4cb847a4c870cf476ca8f8d7c2ee610d44d49da26e1b8846200009b565b6201052d6164208801357f0c9d9982c7270f7f7c0cdb3055fd70993bec0810b3a13092bba27641e0dafff77f2feddfc43ec0f5574ca5053d7cbb6c789479350595e344631d80d66099179379846200009b565b620105806164408801357f04ae642e677af9973a72a6f7ec21318deb6ea2b6b68afcc014ed96032391f4987f0822802a8c62d7143d6b338aca7c0d02d0283a989ca9338aa57d2ae5896ec829846200009b565b620105d36164608801357f21e5c0e841bc46f24b103cc4d51e838645a7f89d2459f6d298737e30ae019d507f15560105c00655bf84a7df227dc90ee8c426de92d9e5a5934906b26289744bfb846200009b565b620106266164808801357f198d9128290961f70a768e035b01a9a4ffeaa20e113e4c2d2a664d7e88eb44a27f04e25800420257f8663b779af97b6324928cc1c9cd020133024d8fc6705ce1d3846200009b565b620106796164a08801357f07ff0e1633c3313c8500105066075ae6892fdbbfcd91efeb35352d5a3a6df8457f1dbd56e400a0bfc02fa4f0818d507f6f09901ff349232d1a5a8b408359c3779c846200009b565b620106cc6164c08801357f140811f94f902a1bdd36a853bdb87ca5919167b54ffcf8ec200c80b4b73883997f0a34df15d1254285da1f7007a0669405f0b780a72d9797721bb86d04dcd2da6c846200009b565b6201071f6164e08801357f1808c1b377bdbebb0d2bb57b667a047a0e99c318b718624493c323a5bee420997f0fde5e7f67728240b591dcbe4a3b8cd4e9dfb8a10d26f1cb6fcb2f3add5288c8846200009b565b620107726165008801357f112f328b06f4006c7a4353008cf944cd26d5a73ca1ca634ca9d435591f1e46b57f221a898ae02ad7ca601b17906989a532f2163f3c3158405a01e58927c49cced0846200009b565b620107c56165208801357f1bd0b14ee22a716d9e03a090e3cd8345f6c01a0af3295c57ab25be1a90d73fae7f22bca5347aaf4337ed79b2039dd7b951d7fda04a2c026d63f58aed62935c851c846200009b565b620108186165408801357f142b799d2638a1699608cbe698192d7f84a4497312feaa838ee7f364a29501187f063725973fdb4ae489f1b0b8e62dcf136fa76116469bf4a01afa5c14bc3d28cc846200009b565b6201086b6165608801357f25d599a96c1c4946ccc901d578b2abaebb606a207814c46afe7146ab6abeff977f167a243a11d15401bec733d303a8e2ffe9f2b36ee6fcfd89e6ab876f7c1ce774846200009b565b620108be6165808801357f2db8047c0bb6b11dacdddedd4743e8e3af592877a860e7d1786ac644d4bd66117f21bc938b23c00e41badf696917c1dc32270601f34601fc144e5d7bf45c094bcd846200009b565b620109116165a08801357f16d322e0b6d8f3a8896af4114485206a50f2845d958d4578fcf0664bea50f7d47f05742849a0599ef99fdeaa2a3dff107a6b3c4d0d1c680bb264c2f44faf96a217846200009b565b620109646165c08801357f0587afd3045ba3a1631edf45fa73c0252201050b9fdfb3f03291597e4daad46b7f2ffc25e4ff368d18c89e1b62e46780672fec2311596c3bd1feb4863b6196c882846200009b565b620109b76165e08801357f2b82eb785605530ede119bb59822ecda81a60abea00bf390b366e943848c423e7f1a5e305aee61d4d1c3c3718bc4a7d1ed961bdfd1129249b5a96e397ce411d00d846200009b565b62010a0a6166008801357f273a8bb509bb6c712debac2e617283f404e23c8290cd37478e0920ef72aa31ef7f2cb0effec34308d0b89c51bfd1b43bc1e465711f915d7d07bb0769ebe1e4fdc3846200009b565b62010a5d6166208801357f14b7d09e10764e77edeb47134fe5f1706c3a9bfb13a2224dbd601bcb4e2028847f0698b032678f65831bf1e00dc5846c89b3218bda831aea5f88605565f7d07309846200009b565b62010ab06166408801357f16e1a0ab98640499540db34c536808187e3ca91c1903ded5d86695db6240f1657f24c657a80cfc8650ec87004a3481d5ec1bffc4150ddf941040a9b2e7c80f5ae4846200009b565b62010b036166608801357f08ea158125e7335c30f5bd072c4e94745549629ce47c0442ad9de35a9e66d1747f15afe4a811925602543b902ae42e8b187c67d4c0b4ac512e41c52accb52b0705846200009b565b62010b566166808801357f19b463b526bea7ee4423cf21c8f3b967ca4a51f77bfb32ef5326763121988ac37f1ff4635ff3b78c86c4c1bc4c5f2229edde5b3242d668b31342625abaad6ebff3846200009b565b62010ba96166a08801357f2f39bc8c438de7ec473b80e27d942d04a356dc71c21452ad01fdc6bffdc007f27f08a23681e8f80520f562b6964ddb10f912a1778f51361e5f7197944475c4ba2c846200009b565b62010bfc6166c08801357f06d1ab998dea1bfe76e27997253b0a04bc2d7f0b9c7a7d2369d41c75c79968ac7f22f22ab175b23b9e467ab418729b0b674534551b8b303a6c878b0a722887babe846200009b565b62010c4f6166e08801357f089df000333544e27eaea8c7a17625ef141e139d7268c2263445ebc83a25bccd7f0b7c6ea0acb35beeb2d9b87a62d97de6951a29d7cff9f0378c24b1854631873c846200009b565b62010ca26167008801357f201371540ec069a0f0ddce86ab3d70e86610fdc096ef306c993818853d7dd9277f19fd875733a78759b4762727d4fa218e3a22ef0757550ce45f2ff8a68f1fc2e1846200009b565b62010cf46167208801357f1a7109fb07917dcc47bcd5e065910c683c4b2bd7b917d5e1ee1588aa9789acda7e2dcc07b34cdd6058930a4423a380d77d3a96e8d62d1da2dcf1b88c87f7c25e846200009b565b62010d476167408801357f16edb663a8deee0e3f793cc158155cddfdb45127d9958a245588ea5f118a7e1a7f0dca3e10daa4fc60ea5354c2b6fcffcf56eecf15e2563a7cfb8ac9a5bfe7e5c5846200009b565b62010d9a6167608801357f1dd6db8591102557d7c0ef19b52a68d9c28e23eca7c5c1caaf7583761621f3e67f1bf2af88ae1373709d3e5b6cdbd940dcb469a807cb64ae15493beeb35e3678ce846200009b565b62010ded6167808801357f0facff8b4c91008e261b31e04918e6531caba918ae504275666a2cd88de92b897f1cb9e5d1402956064e6ad21da60b100f34eca14da373e39ae966e3671aa6c3ae846200009b565b62010e406167a08801357f26b0dcd5a99071efb24fc98ae3de212a30865c67ad933ec92e5dd1c9866beda67f2d9f931644f6ee8efb00a4945e1dee829d84bd60ded7e9fbd3b8e3c1e4f4b1f5846200009b565b62010e936167c08801357f22d01746922e7baa0567fe4910991d564ced887d72815439dc0914df1ab9b4877f24bdd4ea32c1828a614b791405fdd44e1535f1ce1b18fc32493510077a242f93846200009b565b62010ee66167e08801357f25256aeeb4f97d020d52a088609eb678cde38d43dfb281e623990dce7e20e2d97f169ee305375412e48a184b8635351a10460c077f7bf4e9dacbe1ace24889e15e846200009b565b62010f396168008801357f03112182624b6ef0b3e5ecda8aaa6e15945381b6e61b03eb057815addcc7aca57f214707307e531e86437fc38d796c6dd6c15161c7f5b165a22d3bada74be85aae846200009b565b62010f8c6168208801357f04d9cc1ed52eb260a610a2c9798a587bda1774d0cd20b3efd2091988b723652c7f053301617489c978f3a63148ed828fc88400e375ecc4cf0b5ce4ba56afe055b2846200009b565b62010fdf6168408801357f25f295044b252458e94f8f46601578989b0c82a8b43f8caddf33e46540bca8fd7f1c491196078a7340d460ccce1bec1b3566fe7ef80c6e4735a432965d060b5072846200009b565b620110326168608801357f06b14c18e476514ea66b43b1fc7046d580478b81b5a1c29e42ccd0d8ae6152717f260e40aeb8592e14ba4aa896c84264eeb772125349b8fd8ae3f6a65ec48bef43846200009b565b620110846168808801357e0f7746b3f6110771366fbfef6090e44b92c79748058e151a3af681953b39a97f0deb7a18894950cf5cd5582f77524940d9cd4ac0a5817b8e24aaefd6bafc7e58846200009b565b620110d76168a08801357f2b688a02ad4d79eea84218bf161931187cfb93e171a52ed4b227506b449d11a17f23b8172973794fbae72d776c6561c617bdd71d95a7c220c8e3d174fa0f438651846200009b565b6201112a6168c08801357f23196cbe1dffc37e2cc72ad8ff7bfdf008a91f10c8bb29b32f3dc6bd0f6d349e7f0ab83e4c981caca99bd9614cb2f689687c2ce24f48a56b30a74852aea6516972846200009b565b6201117d6168e08801357f2d879b5be744c6e065b6ce32f28ec502a796f73093f6b3841d63a8b66f68ff9d7f2ed7eec6ef343d115ba64df3bb1092625853d2cba4be854f2e48361bc9de8df7846200009b565b620111d06169008801357f04fd6731d09d5f0c63e2160964cdcc9d57f5e5d132205e32fd80404a601ba2fd7f2740f7deb11bbfeb385ea079c3f8286501e270d57ffac7027ad6de4e219a24b0846200009b565b620112236169208801357f03aafbfc4c277875d6a526c0cd8df3f95ce1bc705991333b40ce9c04b1d1da767f14bb393a72eafc4d9a7df55946ba4ffce5bd0aa40cc95480a1d2812572648e6b846200009b565b620112756169408801357e7f61be2c31f0a6382ceaf2f08d2a6a115a9fab5ff1f90d4005a5bbfc0bf6ae7f12fb6be8cd876881661d7ce8fde52249300233710293878823f395da9aa553ce846200009b565b620112c86169608801357f0124c1e9ae129a4a09d1c709107ef2b48faad6d9d4ba54cafd10be5af1623f5c7f132cb8e3a732e75e8d448a95b785c8cdf715cf88aaeec86634addacccb00fbe4846200009b565b6201131b6169808801357f0abcdca8f26f5e2f7b07f66518432725078bd7fa6fa7f43a43a9b923264919b67f2ef9df4a90b761928b64da46fdc0ef1920fbd4b5b7b942b86e0884347cbe03e0846200009b565b6201136e6169a08801357f087e0b4d12d5de646dac9f27b13a867df892d2933135670fab4ce44bb08b02537f1bd2f3936ee7885ca2f1379507b63a31983c4f05b83b99e9063747adf9fc411e846200009b565b620113c16169c08801357f0b33b9485a2a09848511359dd82ac2c150113c1b4062ec0055f786d5657d14697f0da0b871331ffcd820ac2a7da7e54369fe9a3f8172b2e73731a9de334dcab62f846200009b565b620114146169e08801357f07417a3a73b0d439f4262183a6e3c4a2ec18d2ddc5183dfbfd6ff90d5c1634f37f0696bf398432199ce982416df611c2795696529df7ec904989777f8cb3cfd19a846200009b565b62011467616a008801357f0846a0672293f304083268eb008fff30c4dbee1dc9208b36890f56f639c92d357f1dc132892d95e56412d02bb043fc6fa6f1e58661e842e3e4411d2673d360c919846200009b565b620114ba616a208801357f13e3dd73da815140b59d728e708904ec963719149082af1959a6c692f9127cd67f0d68021e006e2bc7854af53932e8e734bbed2d5fa94435c8874809bbf2925090846200009b565b6201150d616a408801357f1f1f2270c3a58de2ee0aeb4acf31556b5007602a6cb28fefaf04463da623afb07f1315ded42b43f30fe014f33cc4cc10ef925fc135e4d36dab056596327f7dfa22846200009b565b62011560616a608801357f0a2193aab5c629d7c8ae7b53a7b226feef33b76db8b278811c90bad10b169cbc7f14c9952f1b2193acdd6ed90e8969cda1206789c78f361c862192f42d93d77469846200009b565b620115b2616a808801357f2ca9f694194c41b300ef7ec24b2bce0355b284a4a5499160f86f8cf236f71d9d7e8429f7e9c07601eb22b11e9bb82f6513624ac00d748ec7574b2bfca5f2f6cc846200009b565b62011605616aa08801357f0174d612f1ae695075fc1b0daa470119222c7d3adc02bb5602c00109f88bbc757f25023eca7bb8dce99b40f655f61a588e44995f5f98d36d03f2d39e59431fb2b1846200009b565b62011658616ac08801357f2164b04e185479d626988610e63385d42ca0c79e4d86b462a78404d7e9f526fc7f0c42c72caddefebbae9e2b66908fa87e7ca087b2a14ab7a4c41b447c4e955be3846200009b565b620116ab616ae08801357f2a577370018cf164e98ac70ea5f2f58d380e494b2ae5b7826154b786be9f4fc87f281011b4f2235227e7977d7be1af7d97c0330fb05ba654dd5d42805a4e6a4c1d846200009b565b620116fe616b008801357f1ab14375a9cf3317063b0d4d96dc265b2070cdd733275590d373771f68d0894c7f2f2a427ea793ca1439d41cc3da6110baf14ded2b1658d071c140f40063ef3201846200009b565b62011751616b208801357f175f9866bb0a1ff3969ec4e9cb403c3fb8050bc082efa092f5afd33b3715eb897f1dfe68ce14130b2a9c5bb1b3a6fccdb7dc2835bc008ec0b4bd276427cc2f1609846200009b565b620117a4616b408801357f1cb61344aaf75bced2069e8ab30aeb85eb3a44da754e661760f3dd65d635c8977f141f89a2dc0eeed17181605cb04974926f111ea28a8999c385600478bd3a74a8846200009b565b620117f7616b608801357f06cbf1a31378343476debd0b454933162d28f795286164fd491c52534b243b667f0a92ec312c8b2c69f0e6492bc18709e20e11d4b32d1be0440ea224dc28e058c9846200009b565b6201184a616b808801357f0f0aa7ee079c7e3b70b6ddac44f7432ad4d74fd8ca655b5612fd5510a7eeec6b7f1fd4f5dafc5c19dd63bac00262a87ddca7d246fd7e9043c950642c7daea18e25846200009b565b6201189d616ba08801357f04255a842a2e72e9461fa603d87d62cb0cd7607b86cb88ef4a50f993f43970427f1864193bc28cda7c61260f0f3f0659c69c04249246d90c0d0955ea53013524f1846200009b565b620118f0616bc08801357f119597fe3dd46cc5f3d7f92aa01e56f29bc674d50da88fa01ec3ec2842a73b737f0dea1218e6535b2f076ac584ba7caea51e68169bf6940cc0b0e7f37c9985d896846200009b565b62011943616be08801357f0bbb5bb82905cac33660856b0b931601ec819087f2e21cb8a9fc878c834020b57f280dbef226191b47800c2140aeb9bcb2bd1395db106e91a669aacb4b31fb9bdb846200009b565b62011996616c008801357f09dd60bc79fbdc0576071ee7fb7f7a4a79b7747915a43706ee78ff539b1bdd1c7f08c65129c4ec6a3af4a880f8dad45ddaa49e548e9de546ab0e11271b1956c10f846200009b565b620119e9616c208801357f275b5e43bb7e6bed7572071d26b338b0a4b7390f879b30b0e2606696508aa6b17f117e9fd07de48f2d1af18554c12265b4a66d69fb52be6f3e48d8ac88ddc4fb08846200009b565b62011a3c616c408801357f03e1e09dc35a9e2ff949ae90eec640d5258e2120774c59a4308fd785450e0b7d7f1e4547a3e44c1ba4f06588c8fa4a1dfa710edf98a05595448ffdedca52ae4334846200009b565b62011a8f616c608801357f2b2ae2d472d93e3d52b5a30f725047e42771e55a1d1028fa1231e6b58824a2a17f0dea8265ad10d2f10ad823687e32539846edbe942269e27fa66178b729999317846200009b565b62011ae2616c808801357f1a14b05bcedc31520f79646a634f101b2572deb06e6c555e4706ba04ed3305477f18e734b949d37e4b8566d149ee285b9a16c38719957bb21955ec6436b55ff276846200009b565b62011b35616ca08801357f25dbf4c1220995e304174d9add92424f4413a5fe7d50ee51e04b5c045d3d47db7f1fd686529517bbcd98eb50f6331fde0452e4687836f86868502091f8e475ad97846200009b565b62011b88616cc08801357f27c0ab186295377813a42a082887177c7f96f2e4f157c548eea5c22515076f017f0e3b7295a276130bcf5c6e0a76a2060641f598f4725748471efe8064741074ec846200009b565b62011bdb616ce08801357f222972110491828e15d805dde498f8c0cab67690c82bf0722f5c524e801f3aae7f1c954595d8d73af311acbb58ac9f63cf2efcaf4e327bcfd1dd9ef8c7ecd2cc15846200009b565b62011c2e616d008801357f028683fcdeb2dda438773f3803409cfcc7c7941154706ab8f02c969ab7a5010b7f2d9275730756dba42f17a57add6f9d544716d97a8e843686cab04639bedb9ab0846200009b565b62011c81616d208801357f1d83ade21114c0fa33e371b47639affca3d74aef110a69a2f0a144ebc9f3f1dd7f018e1adf199885e4d9b01753751883133cee22dbc73bfb3517e9f8d8a32a84ea846200009b565b62011cd4616d408801357f1f1e59e756a267be00e835b9f95a70b6c6c788bf0782ece0a5e01efa0038991b7f194fc4773d552147d8fc63a5823022e4e3de3895e9ac92a51c5cd998cbb3ad0e846200009b565b62011d27616d608801357f110f209eab79c128b99069b396a26d7a70674d3b624f80fcf0674d4d6e0120227f0198575ce00b0070acd3374cd7ae5a01f949f438f1f1edaa36926e4fc579a0ea846200009b565b62011d7a616d808801357f0ce6f5ee81770d065e5693c4c0523c7befcd3bbfeef9c37dc5a9cb62475682e37f06be63d6f32151f29162f37ec922b5ff12043c8f5cc81f7310b5dd3b54789ccf846200009b565b62011dcd616da08801357f0b8225666a1e58565bd26ff22b3c6c661b06f28ecad95052cd0bcbabaf8288517f21c29bf9772d71a0bcf9f1e0520d84d13431fa94bb606b5739a48415cb7d2dc0846200009b565b62011e20616dc08801357f2d07e0d67476f162e6eaf22e4f5e398eea4e65db36a46f797230c6cc600498c77f1ab477d305562d5addf3d1afd699a5d312ff9f1a2db44e3edf44ab6e654c059c846200009b565b62011e73616de08801357f052f5fb81c37bde6f7012c050e03d286b96576f6becdb345b9bdb59d19bade0f7f28caa9deebd4d7ef9f32186377df2b3d7f981a53460810efe966d1be6ecb2243846200009b565b62011ec6616e008801357f2cc60a2e9a2a31f74631f5a8d964759d5c7daf21d456561e18fff434dc35efa47f07c36520c91382ad81946ae8c1782cd0874fea10e12cb5fa309ce26b2a977d8c846200009b565b62011f19616e208801357f0e2007e6b39c290d0a55c0d3c095d1a319c01a4e563eef71a5d1e4871cfbb35a7f2232e759915ecaf2428d68f4cc460a9ca584bfb521980ca17f6e44d7ffe99807846200009b565b62011f6c616e408801357f13d2ebd6a236424fa520c5fbf88e46cc0498161d1a9a0ca9507a6eb5b70329da7f2436ee5bfed7111c3d95481a05bfefc8bbc4ea6df46ace813a3716e7c955276c846200009b565b62011fbf616e608801357f1dd0ae814236d295b5cf7b99ffc671a1fcefc0e49745a4152f9e6eb2133953127f0d48321fb38f89cb64f462737c2350a056ae8b455771465f561e6a5902e319f9846200009b565b62012012616e808801357f291432842aad75305ca9e043c651b1fcca99290fe4fa12f0c7c7de807f6726b07f2d3e3bb2f298714a71a08e398b84edee6f3e38082c96e07586343ded1e683285846200009b565b62012065616ea08801357f28a3ad7bf50334030b134869646b837e4058826ce8e7584da2e5f6753e50432e7f1b7cb0fdb38688265ac07b9caa1048495ed7072340837171a8d9a95940aa6df7846200009b565b620120b8616ec08801357f0790d2eb66d0bad6cd48ae11d68a7990c0c8f64f0e93f7a9b6b390a7882a70c57f2e0d023becaf51127cf3c48b769bc6d993f70be1f73eb9abcad0e27ce30f208c846200009b565b6201210a616ee08801357e09192cf5c9e96131aac47b4e4225b7401d8533f6c62cdb871294783594a22c7f1a9c34fa3a70c9b69f4cb0d5cb4c29ac334b955cc4f63d0e0d2d0f453304ae5b846200009b565b6201215d616f008801357f1eb7e6711a755de4ecaedd068c5278da5f04627cc1207d541e04f2ac5947f9817f1d7c8e8c371949be3ba85ee8693d4fd27514dd2adcc542b903a5b63c9040487d846200009b565b620121b0616f208801357f118e0c4e57d40f7cbffa35838e6fbd72849881bb2845b397e77ec9b6504815cc7f02b995fb5c5bed809d92510e9c94255eeefb39e131da0d724ee7466b113bdb65846200009b565b62012203616f408801357f08449fd23b9a29e1162067ca0699ae5ebe9b1fa59a8c7fd665459c15556cc7887f2ae45cb2bc270ac012242df9595b1e9ec817ab45122ca26b22e1b3a34e081424846200009b565b62012256616f608801357f10d32b41b84f8844b17e2c866d43c48342428ebfac224f97fbc863b999a562ef7f1f08bf7817e9f6220ae3a074da554530f9b16a8f24311163f9e6d2a82e68729f846200009b565b620122a9616f808801357f1fcb63e199077a1c1d15acdff2ac48b5cf6b25899e4a8b8bef6ce5630f40b6407f2c0ad34e8bf24f11c84152a9ffd30297e54495c8c8b2bdda4ab740e43cc49e31846200009b565b620122fc616fa08801357f1109ff237f5c2d97242bca2a6ade5089a2effe94c9d25c58f9ec8b34d7863d8e7f02d0fd23e886b3ea0bd59d747e0e97111704a70921e920275d4144328082c472846200009b565b6201234f616fc08801357f1e4f7c22ead5788b53604b064a3204765998d6bc1ea496b8c20e7c1c92848cd07f08e50965f0218be01973c52a546bec83cbc50733acdf2a58e472d833216ba29c846200009b565b620123a2616fe08801357f0769f453b0c158ac24606c947bfd91bbbdee5b750ac49046e7220762edb637a77f04a414917fad0c2dbca3319e19805491e581fc48db3590a954ce5cd8486fa4e0846200009b565b620123f56170008801357f0cbd690cd6291cd631591216a326a459dbc031496a271ed0ab451f3775bdd5ba7f1895afd2e44fdabe2cf9e71acd495b9fd47227a2d81336ad982c3f4c30eef167846200009b565b620124486170208801357f03b55b14600fd4aa1baea9559894208149f676a317e0fca988ed1fa02d7180a67f2512533bc33e976433cd2029ec45737d69198eba86d08b646168c72e86515c62846200009b565b6201249b6170408801357f1d97182997128221f281a2d9c17bbfac79953be6a3bb4318087b343c9ca86acb7f0bddacafd2fbcac842d15ef489327a8196d55fa48dfe048459a05bcb56981e15846200009b565b620124ee6170608801357f1f564f6d7ab2203ba62d33268dba79804533e4347846e6956385230b845d7d287f0f5fda7c04477edef7651fab0ff5a28bfdeba1d803d28f062ba791439691c9cd846200009b565b620125416170808801357f19ee2061df79802a8fca157482c0b4071a217cce52dcc8bc5491901f5ed76d757f1d435b595fcd27fe8844de2dcdb83ad89cb861ee9a0480c87f5d4ef9583c4f3e846200009b565b620125946170a08801357f1471c44caf7493f531020b416b33dc4beed2660f7f73ac526fdd23308b9e70037f13f99a6fd2b0f65ae0ce4cf0a7e3e6fd15f2e35fcc9e9b110ebc0f933f30e424846200009b565b620125e76170c08801357f2081129dcfa1d932d66b89f8bf06b00b613d2999c9404203c5d8e149c36214317f16ffa8d32ea8ead8cf3767186ab028cac1164ad27afbf2a939947c9fd5c3ed78846200009b565b6201263a6170e08801357f0ba0efe970a303938e17173d7ee6631d9fc33950be77bdf35c83af1fb3328e107f2006eb98363143334e264037f85c599b762aef6bdcc33c7a8b3bb3091507cb27846200009b565b6201268d6171008801357f1d9d1c3485831a9d2d6ff87b3224830f1f8536ca6c4740c5603a8dd4a7dbc1867f18b0f759a22a31562e85904203d9d6a83ba1176043adcb61163d6d0d78cf1ad9846200009b565b620126e06171208801357f2933be9190bc977bc1618c85b35415fe5614f2dbeb91e317e2c8b2c4befd6c1c7f215bc8b17502109b89d4a58919b0ae7300c46a824ca6eaf35dd9dba20d8f6dc4846200009b565b620127336171408801357f20932fba5075fbf9a3f1efe2b1d7ac5b77fe9f2f2baf3c9cf4f86479f2144de37f1e619750728741afb23f52a59a353741872c5d6426421270e74d7a16d2571ae7846200009b565b620127856171608801357f259f0140bab7846d84dd315268c00ec862fb269f75c84e5ce558b1ebf3accbb77e8eb75049ffa50be758c593a8fba19df88b0f818dd7a9531e295d35d9adb55f846200009b565b620127d86171808801357f0dfbaa6a4429e2caf1d7220ebf4cf816570bcdc5a6abd9a01fbe1d049dc3663a7f0521abe8e7217eced8cdd46c08b85cc321b792c3539f10f369b392c5ed545c8b846200009b565b6201282b6171a08801357f07904a8d1c6f9236a86c3337f5f831c6152a00d1f92af8c5273a256c8f0b7c807f16f5a1e277fc2184ef7974370b991e73e057eaec6e26600e9fd51e7e3d54afd0846200009b565b6201287e6171c08801357f3024a5c08a60869626de73879da8396cdd84386936f44cdb76f22101697c82237f12c821b301ade8ea5fdac7b244589c9d1d0bcec181c60596ea242ff8d82d72c3846200009b565b620128d16171e08801357f1f763cff1cc6d7305012925815216b198d8b88ad837e3873d84852713dd084507f14939dca305a205f34602d081b037851c3002ececb797b0ab11e6a6531ce51b2846200009b565b620129246172008801357f05d34a27d65e582e933a55a3a291e5f94eccf4c8315447f439772973e845a7f47f12303d8854c0bfbad97b98810dccf14b90bc8e5288f86430eceba07d2a155cc5846200009b565b620129776172208801357f113b2bcc9ad9ede20fca0605044e770cc3797bd9b06781532a273f0cb378de147f2a450404bec1d8a797164c7e1b88a92bd24ba38b37d87998bd086ede97a2fd5e846200009b565b620129c96172408801357f2e62592a3b347d60e5a03925cfefe1836365b1f81695f2b73f5f16de3114312f7ef0269cc2b2eb6145324096d7102a84fb5db91ffda78768fe40d270481c96c0846200009b565b62012a1c6172608801357f247f3307e3686e955e51798c9ebf1b6dcfe854c078c06b834e452c01909a97077f0e054042e6b5c8ee7346808a3a90fb026ddca73bb5850f43338123780eaa255a846200009b565b62012a6f6172808801357f0eb8557e64f3f43ce870741386501640319560a1b706e7fe234ca6705e66a35d7f222e650cf945b6788fdee269c6182cc3a6ef5ce720a1c0456a92e6679082aaed846200009b565b62012ac26172a08801357f231a80a4c62d1811a52b0ef16c023f6add37e98e932490bd5989224ad737ee357f1b6595d83a2e42eee99ea35b4bdf0ac0f5edcf6c54bf44e7d9033e29080cbb47846200009b565b62012b156172c08801357f087792ea6b78e45cb294e10b869d525d0f8c8180e99415c436b4b50f122486f67f18099563cc70e21435d2956117fe865b002ebe43c7105f34cb2466528652d975846200009b565b62012b686172e08801357f2e0e77cec37d32f3dcdb2541b4c0a9822faad7a6db6eb4832af2545b58987bbc7f1f84500c89bdb31129c0f0eba49ec0cca7e1191246017b9058aacb54736344b6846200009b565b62012bbb6173008801357f2031db6c4c38fd596b413686d849eca4dba3139f9abb71ef33a51819b402b69f7f173b9d079262d0baf04c12dec3203be0e5d2ec6d02cfde6a99ea4463e735953c846200009b565b62012c0e6173208801357f1c28bb5a3c17a90012c633c403e2e7cbf48fee9f9286683cbf0056ff2d38e0867f18663dbca3f5cf02bde128556e9df60d8020869a2f321374798ba4e1c4fbbef2846200009b565b62012c616173408801357f09d2afa7a942ddaf9ebd3206b683b798b752b158805dcddcafb805b5155a320e7f1bf5b26c2c7467bb93a6a4f017dc88a793e9d926cb06b9d97a0f7776cae3a5df846200009b565b62012cb46173608801357f1e5f1077b56465d8b9e6a7020c4f6d297883d46ea3848740ca2829e31a61af0a7f1865ee016db2ed37b14ffca58804f0a5757c0ef0e40785ae3853d323ec7fb670846200009b565b62012d076173808801357f0118b61ee2b687ad112e24466195f12a340833bb05b7b4cde84753c0798fbb8b7f2b4ec59209d196f774f3430f68ccc2aed67228269b7bf18fd7dc8b12bb93f89f846200009b565b62012d5a6173a08801357f1eb184fe10d36853e9f60f49fc45dec76483b067a99c5717271ddd3c46be432c7f2a2c02771b114031f1a1e41744deee922796fbeb21efd067c9a5915d56b4dc24846200009b565b62012dad6173c08801357f29107b150c9e158273cef12aca87c987aeb58dcbc6b45876ec47701244d42d427f0c338f0b41e2bcfcd5f3b33f4464e271796087a3d856c3a7ba5840dd1f9cdb60846200009b565b62012e006173e08801357f0985e08861a339d6f636dbda78f000a544e575526aafbf0a12fa4e5cffde941d7f017d184264127b590448f90eef5ad14ffe2e4bb6e911a40af5da7a1dc90347e2846200009b565b62012e536174008801357f19296aac6d75bf4abe22bf6a51da50635e09b0a5440167002589ae7e974669e37f2d8526d588b6a240311fb02f4d32f5a821f71446828475b1e3d7a5b212cf630b846200009b565b62012ea66174208801357f2c0b35ebed33ee07feba6e127e27a86d577e4095d0ec44b695170530e85bfb7a7f04b7800359c39d9f5f6e8f3e604c246d611b1a4a528cf3643999dd7c69c7cf97846200009b565b62012ef96174408801357f1ba5ba20de8f5e80116ccd692f10bdfa6059af3225038ec47fd6417e6e73e9d27f08379a5802fa3c9fb86d957ae03c344d681124ce0136a6ec0050b6d58f6780ce846200009b565b62012f4c6174608801357f1abe4e13420398c8799e345e27b7a3f83499d7f44bedf32a0bff44115ea041a87f2e0282f5dcc9433c503c28d72db7aa1c0f14a694a0ce43d82f78c9a454960a29846200009b565b62012f9f6174808801357f0bc8bd209258ecbb1d0a1424921633a9c9acab94c2b04c75dac6e7a4c64f91817f2c3e65604d5318d7a820310b2050cb9078e2548e1f305d86c3d623b846e452b7846200009b565b62012ff26174a08801357f0fddaa87e14319b4c0756f554b1fd0343b2e3038e418ea05b6e7efc3b10938d27f144c38d55afadf8aa4162ad9c59ed14d8ccd57cf885d5573b6ab384b0d572116846200009b565b620130456174c08801357f02e1a0e005ba3184bdf6c65303147fde77d65a72f8d820c51e02744d9f35cd0d7f17ec57d9507230ad5eeb25bedf2bb6f29c8f01e85623795447e8b85de185061d846200009b565b620130986174e08801357f03a100a4ba6e2781c095a4feeefe9791b12f27a0b1a55b1cf359b80e1cd066217f044da45dc5f773dec920c1f803838b0dff406340f6ed15863a617b7d88a515d4846200009b565b620130eb6175008801357f2c8c44b142c32f24aa74ed72f744b12d5974f1324d0a26163614d3ea9bd99b377f08562bac85a960e98ba1e5589f75f9813d0ba7c566ff03050a78953576fcc715846200009b565b6201313e6175208801357f1e05796baf91d9347cdbfde267fa6f9b2f3236a6adf33b3a6ea947fbb75781847f13fbda5331baaf5ffc0439b55ce3acd028d6285313a92bdf257d20cfb31e382f846200009b565b620131916175408801357f1f66c8f1cf1ccacc753d6b28333af4c55f521217cf9cfb63b3a6e9f2b280d7987f04c1ada5d8520550002aae9aaedaa8f666434e39ee2d5db409afbfb5feac4038846200009b565b620131e46175608801357f01fa86db99b83bcbc6f2479c429d5fd6178919559ab1d1f3e68b2009646898417f1d5c682360bfb997b27aff3148ff26e372fe2b8e5b2ba6696eb82c51e99182fa846200009b565b620132376175808801357f08828dbfa18ff0ea0b8f1560dd7107ef4f555e358ff5a225aacf7ceb2a8983507f2d84d095d163ee482396f69443d87ac09ef1683d57dd00dcf9d797011018b37a846200009b565b6201328a6175a08801357f2941d8aa5a3be8222fd3b652c1de058737a940f7664919dfeb93dae3b34c01f47f06ce3ffe2bde81002182bca4b9363ee8cfd1be7deda535e9a050935c44722b80846200009b565b620132dd6175c08801357f0422b583a6f2561fa9d006a49413576f3223af1d1fffec8ed1a19aa477453e147f011545ae94847ce1c564f76a6c9a33d156bc3c9a19a78a212a540afb3c6a74c9846200009b565b620133306175e08801357f1a2f65187c08496ac530b942c3d220e27a6188cb1d7412ea4b7c51e2628f96767f288c60f16fb44adb6f2d01cd46075883dc6a899ac074c1927f2a895ac3fdc7fe846200009b565b620133836176008801357f024ee6287b324ede7da9e871a3ba817e1d4434d739a240f2b6de16981760ad547f123a767e9d822bd676959c8760dc11d9d27abb914a00c30cbf0fdcacbb07cb42846200009b565b620133d66176208801357f05b1460d80a27a36b519655dde16def7b43f1a6a01bcea3d1377207d630b59d57f28644bf19f3cebb4bab294ebf20e1b96f2bbc75f5cb6b34b2e188e3b4d184881846200009b565b620134296176408801357f17e65566947826a1126ebea5a1ba0d9118ec0af2678030cbe3123092812951347f1fe830e32b310227338930516f8264f3ce7a88c61f857fc1fa05d23cfab279d3846200009b565b6201347c6176608801357f18fbf92442ee92fa7db468ff69c3b28370e0a8187a5ccb2bd7818359e29844c07f2e6a13f7877f03bb801902d944cd5d5ea3fa4ab1d9088408cc0d50e1b608f902846200009b565b620134cf6176808801357f285a1d6c92a8f24fef7a958df520b23f60155f46ed3b61a9086315df7c8bb5aa7f0a8c80e7a97b4ce3511c64074629e1fa14931beeb99e5ad6bb0ade4715481cc3846200009b565b620135226176a08801357f086c368a47178bd9f2d71f66e459459202d55d2f612684763aa4d7ce72338a8a7f043e4d6e9db4f26be3f06f7340c61c0fbcaf55c243b7f74d973378facf4e6134846200009b565b620135756176c08801357f1ec5f2ec68250b0b257759c31c97a64cdcebe3a395dfb7711ff97dbba199ebf87f2f0b3db9e0f8f3b844040bacb0f1ebe949470fad3ae11f058dbfb02df03fa48b846200009b565b620135c86176e08801357f1f4f4ed0877d6001996d5f3f92efa161ade6943fa057b0a9d26316953b6b6abb7f0732cc8458a3f4148f59dfb8216448242806a223e1e9d73f24f29a10e1083235846200009b565b6201361b6177008801357f0e698ce259890fb785015f2031a3f5d7582472b05e85c5ffd9a2f5744a8fa36b7f0fda8a6b084ec4be76c3593ee15bafd4146becb06050a070655bc267df5d2b06846200009b565b6201366e6177208801357f1e9a21b5418e574c29e3769f3efecd088a725a95d096d48b83c701f7eb13001b7f0459f1860d31b0216576a2fbef8886428f1f4d1ce1e04960ecd5ba737fb7ecfb846200009b565b620136c16177408801357f0bea0a723175e2ec26ea655f994f3072b9274bba20a9f9bd366923de8b4ba9f47f184a49183b55d28ec91f3d002daf6f2db7465e40fecbfd7085c7fe7127c5455b846200009b565b620137136177608801357f24ef90813b8a053c562f739c8a6c9ae04833c0b3e3a79f766edd569f6a5e821b7ee9d2d178957e44e7a2bd948030aa218f3765cd659cfe7d92c8f17a65bf9c5d846200009b565b620137666177808801357f026021690cd5b2e4e740ec0a74791c3cf09fc45f72c572696ad08a1ad60391357f14130ff4678e03f923033f2b2932af51306c6e9ec8d4b9bf18a40e105f0ce92b846200009b565b620137b96177a08801357f2cdf878df572c7d461f0920f12bd1e1293128d2612edba68c800ab8571cd0c3c7f08c8f22434a9256f218677e04fc5b21133888689118ede1f543b6aadc1aec4fb846200009b565b6201380b6177c08801357f24c3540bc25c6cd8202bcc1cbf512324b24997e0eaf44be1f9a73c67dfd13d8a7e8e0d806f6cd384cb3c67bbd9b5bd53629a3df5c69ece890fae704880216857846200009b565b6201385e6177e08801357f14fa3e3b1d1d8f29824045aef3f330cc154f25f26cb7f5ee27f7b305f317455c7f18f3b0c6a89a9ced5cd1fab54f1a0e3a45f4e12509821fe63f01dcc9da0f310d846200009b565b620138b16178008801357f2ebd8febd8eac02f0cb07300fcf70f7aed491e6aef06e270383bce91824d48327f256a001e025f52b71166b32c647d4e76def4f8256f668430e848f0c0bd9f72af846200009b565b620139046178208801357f09e43612e72856f73a9a40d753ae42904bb2e34b15d9128f8e513d2c6b67ce117f01caf7026b2921f579307c6dec537626aea65b4b69434c975055fbf9f33443aa846200009b565b620139576178408801357f226138d3c10cce66ce211f2f1cca2c5cc94f1182a35a64216968a8ffb300af3c7f2f7bc4b52d82aec78355f118fb4a6c281f45ddffdfb0867ae91b2f18f366386b846200009b565b620139aa6178608801357f10bb019b023dd57f490ce863687575003cef6edf0007e258440afed9a6e42e967f24c58e7e1d209837cec5d578ece323727db96895bbbfa9387bac28f83927bd22846200009b565b620139fd6178808801357f25cf18542e23293f35aadd95e2208b22cceed1bb203658948385db39ea91e3757f24ebb45aae5f819f93a3010b1f7854ac04fc74abe286dffb7a7340bc7aba1f30846200009b565b62013a506178a08801357f123337fa1e48a6f9a407cbd0f3102c9077df863b75f38e2a6e90e0252a893ebe7f2766b6f11054172e8c19d058204e693f41a8eaf274c8b6c43a29118a1dc02c1d846200009b565b62013aa36178c08801357f1f4170ff3b8942aae36f479dca1cc5390bdcaab1147a48c61bcc983bb7c25cf97f22aaf4e483fe3fc437bf75159c93180de1db46a94d42e96b6820f35a8e10348d846200009b565b62013af66178e08801357f1b50cdd8362370fad7a2d1e5f324bee20e3e3980dd400db2a30003bf8c5e3fa07f114e4d4caa7e77dadc557e07780ac3e8e61e17e7748c0f2625e5c43382461cf5846200009b565b62013b496179008801357f15653a113cc2b3daf7fd362daaefd00f380ba11b76accea05a1a18e38a91bb727f08d40d7b3e62b4b075c5d41de099cbf23192840462cf7d1ca5b76dad2962fd5e846200009b565b62013b9c6179208801357f2fc5a3ff51cdd3d1103ddc0b833b3830368eb61f7d2de0084ebf0f5b33f9bdf27f3037a3918d7c4b07515a4cc79a6ea86fc8184d86612650abba956407cd8ab0a6846200009b565b62013bef6179408801357f05009e0ceaa53772ba97f5b2981a042a979de451d1bd688274193a3a2c0bcf317f25d7f9f84923c38095ddaf16d0004db4103fb13b3f5d49b2e5b42bcb0d1cfebf846200009b565b62013c426179608801357f29f606f0c1511201f7c2a29318481cbe1f323ba160183652d2f77794571c64e57f13c0542229891232f83c43c974b84b26e36a2d2aa0fe41bb2ba52334856648bd846200009b565b62013c956179808801357f2d2b67188a0dc17ab36becbd9d0f0e8121313a1d27dd8c90dde1584b97ef11ea7f0b7938e5482b8b6bf59757a93d9596523e830aa26073d420199ca5c11e47c64e846200009b565b62013ce86179a08801357f2852afb2e55f5e186c1003bd88046e48b63ea9cb934cbd1ce1a15227e78c69717f04682ad98a7cf8a198aa4fcefd0b878c5b9b321cfe25502a02b99d7f24b3268d846200009b565b62013d3a6179c08801357ef3fc16ec6625c312302e7be3e8c17925e33e81237bb0ec32b5e3ba5ea41a447f26b51ecfeb8296d4189758c9a66b5d3c4e1e5b3bd340e827027a030793ab2f60846200009b565b62013d8d6179e08801357f13e417aed45b857f5c3f360f8f7603e6dbe2ef2e8115056d7c1445dfbff136a57f28b137d5b6721e89b26aba0e43d5207b796a88e5ac54a5dac90cd48a939b564c846200009b565b62013de0617a008801357f0c68bca9444c87a9817aa04c6662d2f89af615a60f68d396ddebad3ec673c48c7f0b3147134b7226d7c2ad0d498b7bdc8e5c053c08046d157d5515ccffdc2b957a846200009b565b62013e33617a208801357f1df3c8704d805c846be965a0a8c7653fb89c15d2debb40754ac33a3f820934507f296126a12c3d75029cb4dc3902224037050adb63f621d2392e03917502259fef846200009b565b62013e86617a408801357f0f774eb9afcb3d062c0fca90f602338742b3ed7432ab25a1e209ee03534c3d997f12712bfb9f57e98f321c992879fc8482fdfd51ad3c4e191dfed8d5744da3c5c7846200009b565b62013ed9617a608801357f04bffa3537704733c9fbcfaabd8af2e091925c3eced2e96da3cb5392e9372ab07f12441369c0199d5b3d3af3e3e44d3a33dd8ad372bd602d6e16aebb05d1299827846200009b565b62013f2c617a808801357f2e67328923eed71526b7c65deec71468f4c731937ec9151ea7f0c09d63465e887f064c62ef127732f1250177162412075a978b02518441487abb9de8f30ca7e9e6846200009b565b62013f7f617aa08801357f060d73a62792a27a84fca28e22d0754cb85e4427305aa3e2cb412ea77f9348257f246d165107bb0fd9536d138bbff50eeb6a22d2d2b4b13b70d1a6ad4905e97946846200009b565b62013fd2617ac08801357f2cc751a1fae3d151e3f95586ec184e9a2640c4770f575c410976fd3d99c9ce487f17784855a991a588659bef960ce07dd668d0d68f847717a18852ec23cb0d8cb9846200009b565b62014025617ae08801357f06b07c12bc73a783771700981c891e144687fbf53881d99ea87ff44bdfe1d7f47f05a16303b3673d7b6063a0594b3cf979f91a9100759c0b098bbaf3fd5aba5c9f846200009b565b62014078617b008801357f216b3b623312c850232db0b13776924ccc15a96476a4772405c691ea76033e177f207206c9ccc3754f5a0a572a3a383f93e416dfdf1774ea1703a4cd5a7de7c3db846200009b565b620140cb617b208801357f2d88bde433fbfb463902b41d956dead32297f4db5054a1deeb2ace624a7b87d17f1c39fe53c8da15830d6bc0134d645d1b519fe8c1297f69745e6164a5b46ac519846200009b565b6201411e617b408801357f1bb2a240d797e48f5957ff3f9c6fbc14c01ced1b4ab31eb5b889fb97b81bcfcd7f0d8db88cadd0fc374a675547b0b2a346fa50323b2d20fb13fd2aef90f49fc832846200009b565b62014171617b608801357f282fd33b785c25e6195eeed6f14e57413d96b6ef89c131b849cdbcbd9a16615d7f2975b8376543cfc87a57230ed7e37c4c7ee5209235ca19888b3351bbd7dd19e5846200009b565b620141c4617b808801357f24dfe4d9c55c337fa2630023917079409c065448fb3afbaa0a3b54c75c0783de7f0fac38159c21a0873602a96f9d983e6a68424a30ea2ff7473ef1a0508ee608ca846200009b565b62014217617ba08801357f221d10fdaf099567a99757126ffb5143d3fee8662b6f7a62827e27622d828fda7f281168817c011757233d7e28368db1acae855924e17d4df6a38d94c6f2cbfa16846200009b565b6201426a617bc08801357f0704083a4fb5a97d6b4053f0c51bd703a8f5b99a35051f7175759ddd49f445857f2c3ca86e5a7685b4c8a28d96398f8d29eb68a8f3b8f76bd4d7677b4539558df3846200009b565b620142bd617be08801357f30426d689ca8ccc7f4ea5afb9b640d4acbec7718b7a10ff9d07e658ae7e3fd997f2dfb7d798747db1fb28081b450ca97f7fe250b86c8b2827984c9466a6d31f01a846200009b565b62014310617c008801357f2f70912272ebf2e9f886a56ed5137147b7654b35083712e3de32bbd04abfba057f1a6e94694f71872b8bbc7a13f8697d5f4922a35997a2b469f1615cdaee89969b846200009b565b62014363617c208801357f2827566a169e33a4cba115b1d2ff30c9fe8d1a07e3214ebcec4fac15880aa5447f2af6a3016c9cb6f87202ee0feddc94c02adff3623748cf5e98aa49c93903735c846200009b565b620143b6617c408801357f0e54a289bc7455c44bc135eaeced5c35dbe9ad1ade6683870cb36c7afe97130b7f14508dcbb775c7b5abad3529f128d1b220a56d5d91263b2564e42fb39180d44a846200009b565b62014409617c608801357f1711c15392239b084a390aa8e7616a66c383e9cc1973346d753ea5f9938ce13e7f224746a9c30a4db8136603e34988e2182c1620cc1e85ecfe4ae252b7326d5228846200009b565b6201445c617c808801357f0f07ab97abd1fb5791f0d3e3dfa0726cd3b5a8590f0278bf4cb19c6d370c5a417f0cfa3caab2c582a0e05315aa7472285dbc638e0cb33d4ff7372c743acccf5361846200009b565b620144af617ca08801357f2029a86b56fc00489f4604063c26c8b19709e5d28180644de3dc5f7e22751d4b7f2e975c6d15b1ca8b7ca0727df6810a51e8345b99a5befd0e6e29e56fc3c6789b846200009b565b62014502617cc08801357f1191b671c90d0554e9e57775bdc2827ad41fb28b5d2065d365fa306b2f2cf7c67f118e0c38c36fc5d9172348ccab1060cf6e6165022a04d848303e8da6059d44f4846200009b565b62014555617ce08801357f140a06ba93d0e2d26f28d96edd427b915543bd3c507f399a56d8b55f6bc5cada7f287b64212e7c298ad7652e496af17b98184d78c830bb2d5673b03c1ea4c4f983846200009b565b620145a8617d008801357f1110621bd114df25c6476c5f5ce056094dad44ed03221746073ff6ee4b40e5dd7f29bf919505078b36f28138f5bc192adc65458ce8a860c98e6bd171ae41946e35846200009b565b620145fb617d208801357f12b719ef58a183964e096032ca5393c9b987c357c123a5211b7bf0370db7880f7f020d8256e2e8b060387d2907a725cf39ee6644746baaa29c59e73182fc38b881846200009b565b6201464e617d408801357f234f6f4a21ad708b3adcdc834d159fd136833bff5ead8231ff52c0775ac42a247f13113fe20416b90aaf9a8616b10617602400c26a9c5bbf269806df8a57cfb0b8846200009b565b620146a1617d608801357f296615370c261a0ecdf63016467625ccd2ad47ec93a5568d7ddf76629698e72c7f2cd1aefe3c572ef2c992cc52322f1cc8cced761ab131b138a0ec0b1e113020f7846200009b565b620146f4617d808801357f26a82325099f304aa8b818c5e7b07a5a2439b3e929233bccf87fb741f33d9f927f18a3cf3764174df6a9e5ba9443e96de3bd70d21c61ac1565b172d16e9339fb53846200009b565b62014747617da08801357f07ac61f1a99c3f74591125f707cef49c1abc3fcc1ee9991e00bf94d850b114937f0c2abafa572ad2b3199eb2330296d2f151a78e63091343ebb3141747f7d0847f846200009b565b6201479a617dc08801357f237288e3f36dd4d35e3e9929a7ff03b0db399e6d55f6a64086ee80ea44f8bed47f3035c252c84e1adffdf5e84636a8f1643ed8d86bb5ee7385485b6e9cb27b444b846200009b565b620147ed617de08801357f1b83fb5897e0a0ca52019ebd2b5147b1b6ea5bbca3f390ced6ebb4d860f455f37f136b469bd60fc2eebbc96bc9f0c8edc1e38ca44a6bff27e9f7ce9380f8fa9f5b846200009b565b62014840617e008801357f25460cf85ca49d6502fbce2744b5d4437daf50b70a2d09bc889747a392bd62407f1d512159e41b4593d1da962afa6ac08f1b16b1bb382a24c4d9b5d8e3338410b3846200009b565b62014893617e208801357f0373da3e2e931f40073c00d0182cf6848f26b2b6734edb9bcb89ebf651e6785c7f1d7aaec48b1c4b714ac72900f29ecbdf1b8f0a070a5ff7c29a20fe1aa9dbcbb5846200009b565b620148e6617e408801357f1eeebc3e793d1623ea4b7594dacf1261a78d4eea4fcfc8fa9479facbf280e5ae7f2adb202c02777e80e9717649e3140df4cf85be0220fb05d1c4b2618f137fc259846200009b565b62014939617e608801357f2ef6885773f152180cf204329fec08ea55fba2c101e1b6f53f28ab88feff7c037f0b4cf9c5c5fcce774a4e7ada747125d23daff7285fcc72761dc2d96042144211846200009b565b6201498c617e808801357f21ffa9b5e9b8725af560683ab21e32a389418cca97e454de5ed9e64e08cc2d7a7f011ef1314493b0a4bb7fd89ce1829e02e377a6a7e26de49f01d9f5d76cc26e8f846200009b565b620149df617ea08801357f0373e96336b0b65d6995ba9b758a8e1a5fb59ca2fb7a45518fa71f35422900a77f02affd7d7d04b1a9ebcb298ed7a2fa3f1ef0e5a4d078ba6e3cec687a41f9a8a1846200009b565b62014a32617ec08801357f0d12edc22959aaf932b7dac52a2e85d35ee6830532bdcf4cfc31fb377ffd1f387f1f55a33d913a6809f2633aa83d4dedd87cfa0f8b6ee40b86520b99d5bc6324b2846200009b565b62014a85617ee08801357f1b31e6a1def5cd6a5db3a8ccf7ec7424fb20d9c8bd476f8cda882bdf814a03dd7f2e798b5c003dc7ff8f94b64806542cf5b22897ec4d6f84e7b2db1ead514675cd846200009b565b62014ad8617f008801357f2c8e5124ecaf3d057a30e81dbeceef4a12ae820744a7f4050d603f5f544bfddd7f270d0410b830b458de02e4170f7cb8b1c0fbf0ef54760b71498b8a8fea0a314c846200009b565b62014b2b617f208801357f03715dbce57da644bb5ddc1bce171beb6e77abf45cd1f46a86c4bca07742212b7f207f21475d34f668346a7b79a80eee1779a701b9ba47fdf0183bf9723d10e9e5846200009b565b62014b7e617f408801357f2233458c95bc7cda802709ecb9e49a1838d777e1ead10ce9d893ba72de4475d17f17dedd099fd09fe45ad72ef65f25084b9955e841c295a496e6c6af3c119330cc846200009b565b62014bd1617f608801357f0d9ae21d40c9661b46db6612772b820200e8cb52a12197d200227e656bb6680e7f28fc71335ac158168a80f3722549a4bb85bd223b46a7e866c88c3af1c08e44d0846200009b565b62014c24617f808801357f1fe1a84a192e59beffc066a9dbf77998caf670e87fcae7604aaf0d829e3b5e137f214ff54f1647abc8554887e22efb68e90e8510d7b1a9b3d23fba7e86c8ed833a846200009b565b62014c77617fa08801357f2c6a8a7471b95997c94d6bf59eb48aa6823f16de295f8c2b82e4f73c140c70917f289a566062490ced2c23c89ca31ff7d85181cd27cf8e518227f671e8bc03d32f846200009b565b62014cca617fc08801357f21b89fb57e84591a2f6931e454c58e97bcf005ecceafabfda220107009912e1b7f1ad873ee50ab4b5d6be079ca5159e261fb0c18066be84bca6fb6a12b7d3c3b46846200009b565b62014d1d617fe08801357f2fc64f3ed09cc6c54d3af5a9f6165abdd61828c35f43b183a7725cd9e29894367f2ba38e8938a0aaaba1fcb0e2e7137f96df12d57a6858cd0ac2643b8b127e82de846200009b565b62014d706180008801357f2df9bd7bc109ec9eb053fd79682c001381461ebfc223da44b990fb073197f3327f14092c2c27447753247660f51a783b2d41f6e924271e4cbc99c57fe5b3763087846200009b565b62014dc36180208801357f06ee32985f386dd0d0822f3b78259af1e48b667bb24572ce75446bb7448597f37f2b260de30442327de0eade750fa55ef3168f15f85cac5a51445304148f34307b846200009b565b62014e166180408801357f28f4423be82140eefb5fa89ed287c377469b824725ee7b57e24a95d7100c85f07f0de8aae626cfd7eb764c49446a19d48ab79ba0fdafc9ac9efa8e6c0ee5ca23da846200009b565b62014e696180608801357f13e666bed06b85a7af33087751d6cc77c883f33dda99678ba998d8d2fde188e87f24f49b73e156a2070216d93568c8877177e5e47047cd8f8d500848aef9b21f30846200009b565b62014ebc6180808801357f2bd3edc93a92a848ca0a13da224ab15820f4770829e912923bbd35bb38f665487f05390b751ca85fe13d955a46a88dbf1d192a51c17698ce4565c6f611847c307b846200009b565b62014f0f6180a08801357f1d0fba01ec854bcacba4d30dc94f222ac5dc682125f7eaba8396f5018e4fd29c7f20b6bc4f7d9f44ee775a03c8dd2aafb7653a0775dd745351342321379ca18b50846200009b565b62014f626180c08801357f1ef915a6d0c2ab9eeae630186c30f31d0ee2b95e9dd9dd08f2eae2f573f860417f26ff11512926e4a39188de8b6af348bbfcdfcfacd0ff8717d066e9f7f4cfbcf0846200009b565b62014fb56180e08801357f2c48d9bf274315753614632a57fa9d3b13591622bc32b351dfc69ae0d6e0801d7f23328177357141600735b7f7185bda3bb1f64c3ee1735a64ad7158620df9a322846200009b565b620150086181008801357f17910b98c94d3d8e9b24ead5db5da1f71532467ce7ac78bf005de53f257782d17f2c8854fb247ce9a15c161d53079ef2053f03e32f4d9b566249effa07599b3b61846200009b565b6201505b6181208801357f1127e07a978597acdbfd09322be7cc64e5b6fec89e8e212e534fa35ad71b905b7f1792e5a82ab1e5e3216d8c83069d7951990ea38275caa40bbcc881dcc16589bf846200009b565b620150ae6181408801357f1906d31aeb90fa82dd76fe131d4e66dbf5dc63cb5b39e96bff590c0d55f04abf7f299d64e1cee3bc999b86a5dbebb35632366ece0f48d0ade901b2ef33b46050fb846200009b565b620151016181608801357f293615115099d4607bf62f97be94891979229e912fb92a6ba3568b6629d73f4b7f013f24ed48ffd9dc8f49e86d062d5a71d29b1cd8209f02efaff078233d66f6ef846200009b565b620151546181808801357f17d813b5e25b5b902d2c21eb228451b78d1260c83925acaa1fc5980a175afb8a7f301ce379686a519f647e10b3678fedb63ae04911da7dcf1f2f7921ff8808be6b846200009b565b620151a76181a08801357f259b9eeebc34b3aa83e086c54138fb0f3d73099e68a235196e56a385c38b36c87f1d41f513359bfefd773e74045b640cd34604a86a5d13403cc111f2ee01fc89d1846200009b565b620151fa6181c08801357f0e86e84acf2d4933e5d60374a1fc42cd4d05b01f99d7d1ad10fff538034942ad7f1ab2f1c662ab48e611a3c5323ef85a132a0ce677c0c5574fd3ebb2519c587c5a846200009b565b6201524d6181e08801357f1f990c5b0024a8280cac3718a8daa41db815603322d3164e4bc67f0c831a97727f19483b379237d19464a62192bc132222ebb9e092be693d42a81c8d25fd51c2fa846200009b565b620152a06182008801357f303b62389e7e947939994e0fbb7717bc40e2fb5845b2aab31c1637529b4675577f235819c77ec754ff0edb2e19a30b29dac69d0cb08c0de4fedc84261baf5a70e6846200009b565b620152f36182208801357f0a8929db142bd673c2286034f90b1670273d612161af3484b16443befcb040837f1d1cd5aec22cbf545b890980a0a78bd2ec3e302b3aa556d2b520472d325e77dd846200009b565b620153466182408801357f0d035c6315c10e1239ca8e78a2bc809edd988301ecfa06bf16b5cbbc5c9b973d7f18abc6a80819a0cbd7979c614081ac98792dfef5a56c5b3c628ace2df233f043846200009b565b620153996182608801357f11ceda8c850108bab46aba7e05dcbc15d0be6aae1894607426583f235bef503c7f0d7285d04f0353b6a0000655d636808fa33b268f4e1367ceb70254c0542bffa1846200009b565b620153ec6182808801357f0619a830137a5424277d66247e23f6a028894396398a50b6d23b99384c15b3667f17d8e24869cd3117f5c7a5ce5a331d8a9928321b24a9406edf35acbea26a095a846200009b565b6201543f6182a08801357f226c6c756094566d68a1b86c3a78424e5006ae3be0a0316a7400ed4e0714f7797f16bcc758d1fbb2ba68ef004f847eb02a7814101bd4704af6eacd93b79fd14971846200009b565b620154926182c08801357f01ded355b322b94a26638fbdbd28df8dc06ca14be57f45cc859daa22d2317e7c7f1c88d87c519c4ea9657574a35adc8f18e761b13fc380a3be7ed6de986a2ea238846200009b565b620154e56182e08801357f1684e5e717f38bb922be71a9a7e34cbea24e35dc36dc87d4cebae788faa051907f10d7fae437344a1e11805d2d836e83c9e75789692e3ecdcb7988f06bde016c2c846200009b565b620155386183008801357f1c92363b21cb973298c53d3f42b49de147003dc6de842a39b686b1bc07e917687f210c6acaec4b468c346c02f0d0f31835d5c6ec6beaa64498a3f75a1ba2dbecb2846200009b565b6201558b6183208801357f0864fa92343b76706817a0bdb16e6e8fa7c445267a3cd489e0848f0e2f1e9b0e7f30186827f839d23cb9059b9ddf87c3c9adb3ada580dce908a5eddb9515ae2f08846200009b565b620155de6183408801357f130013e4a61d0a53b32ebd5f41a01b5fd76c8568a8588b55b375fc8d123552e27f0e7e52f1bb736849aad3333c66582e79af240c4cd438dc5bb83d328d2c5d264e846200009b565b620156316183608801357f03048e3c0816ec30cc9aa81ae2af6eb7728ccf9ced80b608e7dc8858868ac1167f0e6ba09a79b44f5af4352c4aa45d59dc84fc4d0bc6f5101af8dedc62762ec1c0846200009b565b620156846183808801357f059051476b6e30bd9df77b8d50f058da0ccb1d2afc314e8bba8135ee123cc8ec7f1a64a88a42589a60d025d784f77f97269e6d498326ca1c0b652e8360f6a54561846200009b565b620156d76183a08801357f1ff9e543f46d628f38cb2ab1c8f317ff4a0ee926ff72897736b23f3af52ebc797f042846ab3f07b1942145e7c59a18248c62dff4b91cc8b507cffe88bcfc3e79ac846200009b565b6201572a6183c08801357f13a999156017280795945aacb62884601a879b664176fd35f97a62a0d02e81bc7f0e9c346875d8c170ab8d3d1513808fe1c7002d15ec6ddca5ccd349fc80f6dd5a846200009b565b6201577d6183e08801357f08f90fcefd3cc678b34cc30eb8f814cf201d97043458ff4614e9b04ca01ad05e7f0c62c2d76fb8ef5ea02688e9d2f4dad13624457b470314c5e72f8c61b80ca6d4846200009b565b620157d06184008801357f2ed155703dc3019b9f476c0bafc83c3cb7efc3b63d56abdf637a39bffe17c6c37f16482f6303733c98bd9de5fd53b7202424cfffe13a2ef9118536b915b484776f846200009b565b620158236184208801357f2f9973b06720118ecac4e460d4386f0977e5a195ffe47efcca6b23b51c4379847f2752fe1d7d55a5ec9860af2c39a874a218ec120d4cc2b828d022e9a49af06038846200009b565b620158766184408801357f2371f49a02929dab7eaf0061dc7364ad6649de3b2a4cfa914425d4987be60e417f0b755487414acf4b085b73fcb4b1190a6d7d686b3109bdb2b1388d1e0b40fc54846200009b565b620158c96184608801357f11c34cbe7910beaa2a4fb1276e918be09fd2af8b560e353018116fa5e34dcf207f2007d459110be56e3052a3098dc92b7dc604bbca8bd0cb4391ee0432e4b8cef5846200009b565b6201591c6184808801357f1c60a8210212d8766848164db249caad352820c087eea60c8e690e1ed1c639ed7f28c1c35799341fc5974275dc8ad26f14d68cd1515c6fd80177313fce0fee4ae0846200009b565b6201596f6184a08801357f0598ece918b38019e2492f30f7e60563d79d6e9dd732e7740349cd6abbb2cb7b7f18dc32ba05e23f087477df78c6dda71b85e581c47e0518f32b67e456589a7896846200009b565b620159c26184c08801357f0e34a58d8f2f745bad03a01d69a1983bf311712df266d38a470c93d3e5eba4827f1e4c3122665683d7c379cd6198ce7f653beee44ed023b0a56e80781ecfd8e07b846200009b565b62015a156184e08801357f01b6a06f55075532a93308a44bf4cd62231776442fcdb8ac74b344208071f07c7f1fe734ed198cd24cfec540917ad4a2550d8a6143be943abd96a2efe94300fc0c846200009b565b62015a686185008801357f25971bf44b950541cc0596f245344bdc0bb041c137b5f2b89394dd5aa6dfad027f1c820e7e37116e2525e91f838015834d9eaa65c6a2f3b81e7205cdd9bc07db80846200009b565b62015abb6185208801357f1be566aee098cf3a4aeffe2864f4b77e0f915b5f2c998dc476f768137664b9dd7f0b6b1114ff566d1f0a94e68ed11ec5cab29daff53d2903b0144f57145a1af858846200009b565b62015b0e6185408801357f1853df8df9aa75e586664333201ea51b25edee5a962b448dc31b80cecf25720e7f06fa46a1adcf0ad0ce1dc1e444a32e9e3a04debb4528592daade944a950835bd846200009b565b62015b616185608801357f2eb33dc52a7c86c7783761b2d2b16e6bf84c1c4f126b9c0e90c96db02767723a7f20e4e28f39328b3779a968c4ea6e2193de4a68bfbde44afd46252339593b8ce0846200009b565b62015bb46185808801357f21d25412ba7eb6fb4e1beb2788d44651e680e5b6800d4c68b41e1ab8352cb61f7f1545fcde6ba4d53296047515985ade0d7980d58e1491e208b0878278ed9a2c96846200009b565b62015c076185a08801357f15b4211e933a2634a35e670fc29cb62040cf4f69b04d032ea18b1fcc800f242a7f1bc7e272366afd3ec3fa205dad4a1a854a69799aac25f127aa27699477ba8c8f846200009b565b62015c5a6185c08801357f059c88e1c28d9ac8e0aee64273eea4a6142759c94bf5d1c3c8391ba03c4410177f28ac717e45f379d245fd9de38af2d8d61f8d04d8aa5dcf5a61002c21eb19822d846200009b565b62015cad6185e08801357f16537686e3f35ecc7051d38565dc5202eee8af34171238c3251df62d3e1303707f2d2604280a41ca25551df3db4541a345a884fcd138d37b8cb7ef70359981b67b846200009b565b62015d006186008801357f1f794a8ea969861b945850785e01a8c6a1b864b4e863a5affd49859b0a1fa77f7f275ac3fec5c1f0190de8b57cf6fbbce21390b2c2df3737d7e3bb94ab5b300622846200009b565b62015d536186208801357f1fc303a8b78b87749dc58f71fda213cde7b3b8f8f64a4687344bb07b34ddcafa7f14a0c81c7a83c3d38c6fbf715d330530132f3e25d9c2aca5ec8a04509c352bb7846200009b565b62015da66186408801357f20e70125cf978432a0f25dc641b9571b33f9584e0ac636983b65866259db4e187f1299e6b4443d72225866544915376400d1dbc874c002f7b9fdcd891040ec772f846200009b565b62015df96186608801357f2a42b508a7347d64dff1eec4f7b16f95d4923954e20349a7e6dec6fdfc60f5307f0a5c4bfe2a6651bab1508173f5fc4afe700a34f8d9caf305a10a74b490d2c867846200009b565b62015e4c6186808801357f105acd64e34607ea38f811488ead758441fc2521607112e9f55d7a03640f3cc57f17a2c127668dcc4e2eb72e2eacca347e6d795ac0391a63a39115f99933073287846200009b565b62015e9f6186a08801357f280712adb0f7765f6a82fe7960cd12adc41a260721c174d5ae28d84d52a74c447f0a3a7888b8a34e04e21702bf835029e6921db6bc584756299d7b57c29969e56e846200009b565b62015ef26186c08801357f08bffffe7474515a494358476bb489b4d7db7b2053671f5b5db5637479465d8f7f208dbecdaad59941414d2df79f3c5c4692f6c3f4c521037f286ee7d80d7dc315846200009b565b62015f456186e08801357f2e48b4e3cf5d21667efd6fa9dbf4fa33a8ccdbd5be218cc977433638992d56b47f2d8e05b4b94706c84dfe866c2914351088ae1e9a30edf68eb34614e9ca863989846200009b565b62015f986187008801357f18535a98fb4b45cc33c082b55b0e4a5b9a69a46f43e987a343eaf2c8fef6f3f17f2f1630083414a85602f85c3601a36f245a73d25483f9d96ff866d75eb0b9bd3f846200009b565b62015feb6187208801357f1769750ff7bb4f51b92654a004ce5a5faf208bdce452d372878ec9c9ecb490477f242a0493f213f9d56c99e944e70f6cba27cc4b6f33483928eb7faf8ae3f52b95846200009b565b6201603e6187408801357f18a47b0f3a60922eafd2f6a54b320b5a39071e308ec5e8ede5ca94b39a39c9137f09fbd07d82b6f2335e853ffa03d9f01d58098235432f870b8ad7ec2f7c7f9413846200009b565b620160916187608801357f2ec55ab10731a29259f8af5aae2814b04e3c3b43ca7f080b49c8ca11eca6f1cc7f1237e368d8ed0ac4cecb438f36fb84c20bccaf31909f014d4a0b34bc47417aae846200009b565b620160e46187808801357f11954dbf8bb52f767617595533a31baaf87f73d9b31c46035c1061ad8351822c7f0d855cc041986c4315fb6ea248242c7dc963d22f6028713ccbdca05626b3496f846200009b565b620161376187a08801357f2118678cbb0d0ca53321dab77a04c2b65142c88486d2b5468c33b4a68e7dcd7a7f07b7f1c8e0b6da8de196a7c143e46c2110d0b8b6087b26b8d0a189543163beb3846200009b565b6201618a6187c08801357f1f7f3b5936810eb507a22badf1a3ced6fdaf86b895b6614e6ed5d4ca07d010b97f01a1ef921c40d609a197b96654ee669451d5065e204b7ed62a69a4967fd949ed846200009b565b620161dd6187e08801357f0cb5233e73d5d87b469f60426ebf9a8452103e62ef9f133ed18cfe0ec8a175897f0809955e29e19a5b8ef7145327bc5612ef9118d2315db2a0a0ed67d7dd5ca9db846200009b565b620162306188008801357f1bd364959514e571fe2eca8c9a3136b230c820dfe21e4d4600c60ff00f162a5d7f274dd70d47c3124be4b7df5c2b191781769446613764c9713d621db832bfcb40846200009b565b620162836188208801357f27d2f7875d61de94c33fa73c684898f01494d255941e1c12cfc7a27624c45d9a7f05c7711ea7d8c623476247aa690f0b4fd9195df58e977f61c5d9e4c7ec021421846200009b565b620162d66188408801357f19f8e88ed694c9b030610aa1d9a749e28adb0f65e07988a29cd2c0c659f28f2c7f01b9e3dc3b3fd9cd88c53a3480e382a7b2c0df11d6bdd54d9204a58ac16948f9846200009b565b620163296188608801357f2b6be1b44ea316b61b97cd8fa4b1435cbf1d1ab5c9e323c51d5f043b3a9c362a7f21fd3ed38fa23301c5d1167242848d29f0e5e07b3e38a19e32db2af5c6d1e99e846200009b565b6201637c6188808801357f0c8dab06ae9919c3fc96a1b3309b18c7da1907eafe4068f7026811efe7d78b607f2c664e9300bd701ecba178dc8c6f55429d3047c12706421b2708d7b39f83698b846200009b565b620163cf6188a08801357f180d97e7942a55568090cff2af62848e0dc68d8d0584b2db0419c4bcb415c7ef7f18ae6571ab1c014cf976f77908582566395e5275e27855d31de4b6d5b1cb20b4846200009b565b620164226188c08801357f021fecc37d57e1764dad111a29e345ecf634828372cfb8b1df96557efb9d72ad7f247e1ed46246d2dd82253fa13b7eec90de2bcbcf07df7069fd22d828f031d559846200009b565b620164756188e08801357f19d1ef5908e61d479bf1cbfb08fb1610e719602fc75dcb72e31cf900cb0f6e5a7f1ad5dca30a949394c95418dbc816ec91c6d810a3904bb9816dc47d4c7d340973846200009b565b620164c86189008801357f290a72f8dc6473f824e20e45e0c7863bf9ef8c5062f31e7acb94a6fa111417ea7f0513df3dad7230709f038351ba9e4c2360a8e87743e6708476a642e9e9c5997b846200009b565b6201651b6189208801357f19ee386cebc0b7b1e4a4fb81c7369dbb18574df2b7d3306da69696101f70f59c7f010aadcae42d806211f1cb3016a53b6f675120fca4133ae89ee0fa2aba72e098846200009b565b6201656e6189408801357f1669a368250e439c6b5fe664d2236b0bb9b27c59883c8e39391d2e8b57c9bbf97f02449225d01fcb4a9472f3809684d0278dbb79c4b009751a32e25697f403e6dc846200009b565b620165c16189608801357f29d7aa9fc23a18644b87eb10b093b0ef54fe9f46067aa285f047bede1e8a154a7f269189f7fefb93fdebcb971cde1dec5b569869e732a21a815e5beaa9af133a65846200009b565b620166146189808801357f18826bc98a6746a8c733219bec4fadf60a98860dd4bac8f5e38e956fd4425ac87f0f4ad09e533332ec6cd6dde590089afc611178feb91763bc0a54ec3b87db987e846200009b565b620166676189a08801357f1d2be48455f1e9f2737df8af9bbd2206b5c270ff2b6a8b9e99cfb0901e533de37f2c27fd3bdcca2fe601b07b66fd54e720334386d7d0f30c3108d7a2c6b4bbd96b846200009b565b620166ba6189c08801357f1ab4190634ebc5db14ca302cea791c453c28224fe295c6ca8db05e4b7096eba07f1af9d764e629a4892e78560a6d85ee96e7b49b66ed6487c26b2d662ee4bd65b8846200009b565b6201670d6189e08801357f1de59790e0874985472d876723ec8a057ad510349b75cbbb06f802d2d72886ff7f2fce659a2a8281641710855b07416ad6a1b83b62552e02abaa4ba99b0426a64a846200009b565b62016760618a008801357f29055613bd72c826210c1d66c3bac135fb9bdd64d2da9de35c4272eb6adf7fbe7f079bdfbe0ef727f0c808ec8729165f03923fb9ba4748941b6bc35ae7aee6bc00846200009b565b620167b3618a208801357f189fea0eaf86428dd5646c18e1d1d66efcdaac18a08aeed33fc708280e157ba07f0d8971602da22b95df34dc37adb1b1761cf2cefe58536d4e326eb89da22bbb0e846200009b565b62016806618a408801357f09d46b7b2f843ec0be7c7e2ad4afff3accae0bd2cf033fffe4a0648fa6ffeb327f060f26da8b10ba60738769131897dcef5c595a999e86c61f1b1bf1989a851e68846200009b565b62016859618a608801357f0294ef78d411d79b750c2a56414258d0b5948550f8d0c0f994f353eb7ce360c67f15cefbebc0f69094e57639358d2f3018d40667daa7bc3ea3e7065a282b8089d7846200009b565b620168ac618a808801357f0ca179be0e32e8e8c7cf5071c85c57a97d5e1ed53ed641cd254b1cf29116921c7f05ffa03b31bd7c514d251cd01b18ea82678fb424281d0963485ef94738b81519846200009b565b620168ff618aa08801357f1dc6fe7ef69da3337a43a3a9caa466871e5521429964d71001d3651f6c36c3397f1ef583c296e59485c13a07632c588aa885402e51d2d10ecbabf10818db507fc9846200009b565b62016952618ac08801357f26093ead64fd1a934c490c4472c1243f4703eadb820f67b6914e03741448f9b07f2b90ad820857ba5acbd3f4ac10f5abb3a3e99ec3a0cd23599a3c6151b4df56e3846200009b565b620169a5618ae08801357f221304576c671900741ee458996c4e77b94897f1b59730f73c1e02952c72aa1f7f1d415640f9f7ce5c870e56342acb79c7062da37d03a97ba0c84ec60a5811bb0c846200009b565b620169f8618b008801357f2722cc6e0f477ebc67d2cae5f4658f053bc85259186932583fc30d757778f7737f2b16c2b3ae0a45fee9a591f82f809bd48674d237420f7c043022ad13e3ad4a58846200009b565b62016a4b618b208801357f08f49750d07bcde172e5a78cf7d3d0a737b77d3a9c777a09cc0e5e78358146367f22c1bdb19995a94ccece84a88ee43844309f6a2355c0f2db1f67b0e2407e9924846200009b565b62016a9e618b408801357f16273d053e8d955f8018a65af767842efdf4691fc7786478dcae379f9efeaf577f1634607d142c62e0c9878927d88ab97ec7b67944156ae0fdec7a3b714d54b5b6846200009b565b62016af1618b608801357f1c3582b61fbcbd35aeb4077e3084006f4227a9573e973a630d23f69e5357f8757f0502b1d539902397d70a1967aed20d52864899f359bf880ef0eae0dbdbb6e709846200009b565b62016b44618b808801357f299656f83c9d028b467a7e9c490b50a88ea5895695ff1bb5dc94a439eb45d46c7f1f51c7815b8cf9f73458cc74a33f03f7b4e6b1896a1ac852c592c286cdd1877e846200009b565b62016b97618ba08801357f2569ebce72ce1ec8b88b920e3a71f990ef8cc0c1868c4695620d1387fa60330f7f0e0c2e4ffcb1a25728ae4180c168d807431df1f6a5855739b217466face49de6846200009b565b62016bea618bc08801357f2506da6fcaaab77af9b0d6fb0370a348f189618299a96a16a11b46eec8796e7f7f2399121b7268fa5a3772b61f415d0e9435627b5698bf947f31ec648fefb8c83e846200009b565b62016c3d618be08801357f06df5a2c2cb53a945ade6ceacdb363dbb9521c865c72adda878453b58e51d6db7f0a5a908e7dc924c57766cdaced384ba852d5cfd71d7b7fc60c208df6ab29bbab846200009b565b62016c90618c008801357f1644b927dd42b6e8128a91589727fc9d0641ddf6df9070424bf790eb235fd8de7f0f6d77492d20d532604525820556c68f0294c95617bcb3bbc508b566e6f88e27846200009b565b62016ce3618c208801357f0cab7fca8d8b461689e36bbedb5de7c2141c2d295163b486468ffaae664337067f133dc49853e939d0493ab880d1d0d6b21eda563d4227cb2bc91c6fb9899c27d4846200009b565b62016d36618c408801357f16516f79a542a81c899039918ec605f351bb58aab4b71d43285da3b8c4d6a1447f0d977ce5995f0d3a5beb93af6ed0c9a1aa0d75b9e2692ee6e274c55166d0acd0846200009b565b62016d89618c608801357f2bb50be9d4aae8bfc5bffd04cb88803a1b243e937154dc48dc48692de1743d8f7f153fffd8c1c036e1e35445da3bb70627dbaca4873eb821ab7ca60dc2f0b2c5f5846200009b565b62016ddc618c808801357f215b24c053fc489bcd2dfd304123ca67c64f2b55bf118f4959e244374de735cb7f225e7824c4ed30aa1428f1be118d7f7d45a70430b78e7277b6393ce3521784fa846200009b565b62016e2f618ca08801357f2640ddcf3be37b4a99ccff4b2ad4b13334ef2b3d012a20ac321db20841ef3ff47f0dd7702abe391a3a05139b455a7105a274b12bbb016f20117b413b96df0f2698846200009b565b62016e82618cc08801357f17ac0729515578935ff67625242c093d4c6a4b2f6b43d9e4adad115aab72239f7f1aed88c1e13c6abf5e6cc66f4251b2b291bc15789444ca1fa5ba2815c9bde3ef846200009b565b62016ed5618ce08801357f1b787fc3bb6840b9e7b95f55052ed00bdde8c577510696f1aa3b3bbc862b7c077f1cd5fdc87899504b94d01e744ee89a72e456c41ddce0730284aac33809bb5f3e846200009b565b62016f28618d008801357f19f1b56373c91f47f4d23d97ad3504d8d14a66672888baf1b21f1fee591394657f28f01e746a15681179fa096077c82a4bcb710a8b158d0d0083483c760c350bba846200009b565b62016f7b618d208801357f059dddb7d5104514fabfc733129e8e5ff296a637afae603d9d5b1899b277ea3a7f05831a036816690fcc177c9c7d99c8e6f332261d5b5f4f06babc9390d21afcf4846200009b565b62016fce618d408801357f15333b12741e3862e36dfb484e723414710a6ddb7004a7abb7f437b039097c6a7f119ac47740f9c75b14c07ed5f729f96d168aceb7d52a38c39a0a8ac766f69162846200009b565b62017021618d608801357f1636fcb37b6b480488733dcecaed394cfe3bde113ffe945cc595df77afd1a03f7f1a43b8242762af8995a79da4b149da2b579bc1f2566fa36b6074377d6a1fbae7846200009b565b62017074618d808801357f1e6f98de9bd3892beac71df5308cf40da3fc798741273604574fb958f14404547f020923950216a77c223a550c202538a0385f994e8752374370f272f7d4e1d352846200009b565b620170c7618da08801357f182e7a0037a26a96f76b5a85657efcbffe0f5644f4d4395850640c0d29abf0c17f291e1cd61c333cd922bb939e186fc97a5b2a14664357016f810c49c2f9016934846200009b565b6201711a618dc08801357f2a70535100909fac795fad5496b428ed1c59b04691a2a295f698fc624df7483e7f07ac5db8d4779598ce8c99a369c712209c05bf8d60bf19f546aca62602a32df0846200009b565b6201716d618de08801357f22a106d40c7b25ca0e6af1ee6330928054abc7aa08e06a27355e97f450178ed87f1dcbee955d5cc0e704f5cf8bd0e18fad0c577df65d3ae146bb79a573c0547a51846200009b565b620171c0618e008801357f238d83cb1e501715372d924d9b77a96746fbc2de605e7a14b10805588ee1b9507f2a83cf68a8512498ff8929837b4e206efc512d209c7d940561d33c216fd5373b846200009b565b62017213618e208801357f258cbc2046106755e62d000b38b68a073e94b87a9a0fcd58b6dcc514b61cd1887f282a6c307fd0a24b15e333dbe63e0ef575e60dca3b9036c5b8c2e139b11ec86f846200009b565b62017265618e408801357e696ec70a2c43f7c47070eb1e93243d2b1a36f0f45f614fd4a3935e585b04a47f11b53b8f983e77490dd3701228166aa2f32acf1d848bf746768edbc406295c8a846200009b565b620172b7618e608801357f2a114aad49b4f52b5d870fa1242d985408ba143bca882c98aaf0f2af55454c4f7edad0a3870b95b863bad0492a9b8badb07dbae0e4721cedd1d2cdc429237be1846200009b565b6201730a618e808801357f0e10c52859f91322afcb5cd09e362cabb051ea23d3cb43686776b6ad2f084ccd7f3053e1c278cc1f8d0da5cfca2ef838a4406285048256d86ea2a98a7de98bdddc846200009b565b6201735d618ea08801357f1ccdaa4286ea71501e33fe2ceee3201465738c2a9f950190439eb45c6012c1ee7f2e3af9184db0ad078486047a3f11dd7d3bd037e9b15df45b44918f80e569ce9f846200009b565b620173b0618ec08801357f03040da5c58d08310b4b43b661dbe3c511ba61feaa516a4b17ed8d550f45c45f7f09e4e54bc10123b1f639df995b254257d9e3e915d163993aa36810885413a885846200009b565b62017403618ee08801357f06ac8bd5e19b72cd219451ca2ef124f01b557918571cf1123519382c220780977f01072074c5d127ad363ae07967b52caea2889c47fd3f41ef02dd715b8caecc83846200009b565b62017456618f008801357f02d2ef6d8d7c2344054b64f1faf8a47158a284f750048171b70c65abfdf1eaa77f1daf163ff67eae077f0fea249343c9b9a4a8a784e356c493acd917a6078d0341846200009b565b620174a9618f208801357f1066953da65a93e4f4d42eda6587ed72a5dcf108ab835698e2206f87e53adef17f0b9500dd6d283f03ddd063b5ac14237e7aaf953aa7a2d18540f3347f71fb615c846200009b565b620174fb618f408801357f04f99588f786cede8122f7f8e50e7316da1feda0ce04d5cfbb4bc55ff7b18a197ed10ce890185a315c67aebc7d3f34d055fee9c6a65dcfa0a5e8d26f24032e8d846200009b565b6201754e618f608801357f13e683da5bfab0f4c9f8a613defb5ced92965ee2dc6449df528599643b5554657f0eee73877c65e01d3daf1b783bd52d13fd2db24650bd957b57faafef19dd0aaf846200009b565b620175a1618f808801357f2b5c3bab86d49da203069d5c310e3c143c1cc44408826775c470348bdbe40c3d7f03d624813fa7e0ec12d027a62a7b2001612b5d9dd08675f0b5dd18de6b58d151846200009b565b620175f4618fa08801357f0b3df9b841fad9d642a5501e47a76325e2b358c9bc2827c994261a1b7e43d3f37f0336e68b7c7e02be4320d3b004b294f32295cf4160468381c34e6f7241d002f8846200009b565b62017647618fc08801357f20b2fcee0c5f463d05426bc00f8157f00658d25b36fb6d8a9a8f2eb606df259b7f288c8bc436200d4fe13d033529f19f6984d4126f7c0b6a369d801bac925eca46846200009b565b6201769a618fe08801357f02a7f2751f7199da665fc25bac5ad2afc26c3086003f01c27bd43fc82b331a4a7f2d97ad06a22d3856505cc8aa9b53d4005e70bb9535898757d3a2742cdbcebb36846200009b565b620176ed6190008801357f11358499faf4af8fa096404cc3d60595fec4f49346f6405e3e66c55facd1da747f171dbd094f1d19a86ff941bd3f985090429cfbb7b7bc15340e633fb6763feb05846200009b565b620177406190208801357f079b40ba9a5eab5bea8ff6b1720485ce7d838aa67fd6658970ab342911bc429f7f1d5b356d31865eeb3a33903191158975c10da865f497e39add14e94b93483c4e846200009b565b620177936190408801357f11c0840582ae7bd900e490db8eb5ef2bbb874c12510d911d894928806b6ea2117f2ba700c4c7848b675516d0a70397aaa3b6b1fb9d3c34eff5403c7fc46300b3b3846200009b565b620177e66190608801357f05f4f0ff92290d0ee32cc1f3240a8e82d06fe344760865b23c99d3d769159c487f16c6b0c5155dce5baaa9caaf1e75298d01cc4c68eb7de2d7f139c91acd8c6f38846200009b565b620178396190808801357f2d2edf94318c053d4e1c73b219db0f41eb488e45ab3fe25c75ce32be87870f807f1add3e4837572e3c262b97fa9907f8aedd8e3c3bc52e5029c7c8e0856e91627c846200009b565b6201788c6190a08801357f2b97ef171445392c63cefc0571a24cc5a49853a917c65b3f0a0c6f7f8fba1e157f1bd653cec7e92a17bfd624cba3bd74546f6d3e74378b879da0947b0ac55359fe846200009b565b620178df6190c08801357f1543fedd11a97d9c786ac09e21863d738d128ee482f9bd59291475d6d15c69147f0e1684496e8c1c339a10e55ec6282dabfecded51643b6da9a15ed6464b54bef7846200009b565b620179326190e08801357f16fcda4347884b8c9079b6f728f872f027b4e3b1bc577a0aa0ace8122fc781447f2f5aac011da746dd05e27cc8563caf52fba639c28fadf35f33ea7eb19420d1d3846200009b565b620179856191008801357f06ea7703c5a6318a6593934cbe92c7a39ac107166d7d5b1f7b45957498ba8a157f05c7dac39c9ca87330d5d1fe9b9854bf5b74f284bd2eb9e64a8b65d1f7eef6a2846200009b565b620179d86191208801357f2c06349a2e60fa3ef38cbd7a07ef9a7e40c541347b314afcc9fa3828654904547f257363e03578a0cff2f527be17d9dbb0906ac5234cf1e4ccf54f253bf67a4638846200009b565b62017a2b6191408801357f1f30ceca3f11dbdf331eb062f87b50302c619213c96934c79a124ea86ddfd2067f0288b82a319dd8090aeba4b81b7088454c6c0d9852cedf2ce4acf9d3c1e3ae08846200009b565b62017a7e6191608801357f0aa79de20ffa9221b45e0355c6b9dbb2c070af69f0c4c002f4a31d91ef08bf197f14c3d56d4b9ae2f2e37eed20c8d62097b0a55a1a80d3eecb7b38e17282013847846200009b565b62017ad16191808801357f18581bc87eef01ace910b9afcab0621f8a144ae0fcd737e31e1edc48d44270bf7f10b482953e3b2e285c3a8f2c92b5d216e4df258be907fe356f018389d970cfd5846200009b565b62017b246191a08801357f07cbc276a34b28d560a097aa854e3b0f2e866949c46fb1bbf0bb70cdfa2683f57f0ef3511c223503376da1e4c31089b7213422d514eb9b14b583154790b8d84535846200009b565b62017b766191c08801357f26783e45162859409bb28453b45be9060a7c631734fb366093177dab3af0ca447e404394cf92cdbe593fc49bbd8e807bcdb9e7240685b9918a434b196cc99eb1846200009b565b62017bc96191e08801357f169b187590f5c69f07dabde62b18a1294d8e4ff908b4eef5566f3664433dfac07f2024ef55839e27570ffea76be578796ac39a79e79fe8a1e7723223dad5293818846200009b565b62017c1c6192008801357f2a8a39c6516b6cc5442ccfa2c0dce6bafec11cf63a8de99432174ef0057c37897f2ab4612e6d8ebabb28ab96c42139d00995ebd57cec4a8d733944894facdca14e846200009b565b62017c6f6192208801357f16dace63b2ecd07f3be6ceffa8b300955b8ae6474ae34ee48ead8f7e5719d9e47f0d0018485048290480b61b4f753a0eb02f65f7f06f79840b1909a340f1fce9ca846200009b565b62017cc26192408801357f1834f5c2492503675165529bb735fc0a0e4de36d115279e97b95cc3473fdd2507f1ce6082e1508865a56a31a18df7213f547fabee81095dd85d9a98a61d34bb10c846200009b565b62017d156192608801357f0966b2ae21cb8b375d88caac0d97080e90537704c995c4ed6763bcbae4117d4d7f26a21050dc64828f57fde87f43788774502064ce0fa09367ab2b17d4808683bd846200009b565b62017d686192808801357f2761bc0d599500008682547f3a2a319a7d327588343234a3b582188d85822bd67f0ade2256e9478da17802d889aee79efea7d6330481ab4c2e5dbf270794a7363b846200009b565b62017dbb6192a08801357f106f9f6b5e8676f55a2f6b32dd3e8da93522f2b6005bf6fe6ae61896933596dc7f2991fe79b0f49806c73c94b16b80e0053e300c096541c43e537941f5ee780745846200009b565b62017e0e6192c08801357f275fa61479c90c75dfaac9f158585abdeab7a11dc8f3a5ddeee5e428cb8144877f0e933f3d34bd06da8dfb18317aec0ffc982b4af125cf62b1bda360dc72ac1d9e846200009b565b62017e616192e08801357f146d5ae9025218af9acd2fd66a13d3671fd09a7af42f005d54ee8330bfcd5c6a7f25ff7ccee8ca009ae111cfc9b1f108a04ca42ef3fe3118d7f0a1a1da2c70bf90846200009b565b62017eb46193008801357f161480559c8ab96bad80ab7b57c8a7b40be46d1d425bacabb5dbdc80e01e30a17f2f81a6bafd1d78af2f941201cb1147323fd7aaad1b0ef60d7d9ebd22eb2eaa0f846200009b565b62017f076193208801357f04d3ac9f8d7f69f71dfc90d11263728f8206da5f2a20a015879277090d9f6d5c7f2a0566c87ef4cf98b4668674fb0a28586f6f5cee31b03effc111a7c34e23aee3846200009b565b62017f5a6193408801357f1851abaac909a8b573054fb139807dc9735c0424719c6be55792a017b85e647a7f028660914698451126de79d78ba579ddff2c8f4d0e16b50cb1e776276b9c7646846200009b565b62017fad6193608801357f068d8f8f7312ecbf479aab836a35302b9f595f39528e8b6c003919e2b40f6c257f265fa340c6642ab1e4bd85923ba83e29f82c7c593defc02f72262f1351fd965b846200009b565b620180006193808801357f2c67e09e3fa6fe916fa40e4d0a776428f561d8de7809e717f359c75adc1822e67f26eb5cf886cd6174a26c9a9ef5a158977f2f04850c7655973d965ce1b0c01531846200009b565b620180536193a08801357f2ba72ec76d4645a87386808c12592fe0d55f3f5bd3d1da4fd474ee6426e11aef7f06f4516f1739cc02787893e0a21bb682f9abf6eb025550a59f159ee2fe1a6c9e846200009b565b620180a66193c08801357f1c01785710be7ba7bd64d2f2663a9f6679b850a18581ca6cf6fe2e68d2242f8d7f29d4a5e6159462f585f659b01018337db807c7f3191371d3336fe2436df2da2b846200009b565b620180f96193e08801357f279484672484666f3d49f6e75631cf3fba1ef218b51b257da4eb764b621c19dd7f21809286ae1ff751d124e0d5555cfd62058d88825f91cd9aef78d4f158bbf124846200009b565b6201814c6194008801357f1bf86e0f7d2549ac55daa39cb1d67b59284e87fba4b927e5e4fbd661ce9e97a47f0dabc6d79d6b63c92d35ca7bcbadeb3e89799487d3c91687d1bed96b0cb94fe6846200009b565b6201819f6194208801357f0c0532ed547636688f317d72121b9f02376a1a0f62a229082476259e00f776cf7f1ed0cba091b4c85f08b07a96ea966882ed32d6aaad365ad99d67a2a893175218846200009b565b620181f26194408801357f077a2c517c33e1575d6ca2fe1c4fca6a8e2b90cff3387ad3b5a23d77e3f7e5f17f1b8d4339ade9d869f69cde80f1ef44cb286f0cb13533c2939b1e4fb2ee2116c5846200009b565b620182456194608801357f0f40cf36fba9224088bab02c508dddbfbdf69f97530006fd6707659d8a3cacfe7f1872501ef61fc304853f32a3e997f30ecdc1efcb5aa4d10d8503b6012785f18b846200009b565b620182986194808801357f19b41720689ab82a9e00ec61d4eb51629515e648f68635e40cc242ad02b3331d7f05a34bcff9fe8afc7bd131a1215b1094324ce17e8b0c47930a97fc63e0d29262846200009b565b620182eb6194a08801357f17894402a1944a6ba52e176eaaada7e9e2439f59508cc15ffd1ae4cb549bd8307f2fbe233fb17c889e5da945ab82dd4f78be3bbbf49c27915f4d34c50105e6a560846200009b565b6201833e6194c08801357f24eec0082206c0dab323c68ab87e6a1688c7700b0bf8af41fc6435f9d1e3b2ad7f2cf7d3b74df5b08ab8d9e5099bd1505739ea9bb91b8602754262bd7943b00547846200009b565b620183916194e08801357f170efc6ffdc090cfcf0550a4ac1bf6d073937f42127a68199fc82eb62f45b6117f0b45ab8430756be36ac038a9a40b1a1fef3fb8931100e7ea01b49e2c1c6a4a1e846200009b565b620183e36195008801357ed1239f3c300ae27a51c24df30f970ba5c808946c8ef31061fed7d0a31334ce7f17d6f6751a698ebdc1cdaeca0938499a53b087347d82f6a94c48751e1fa46b00846200009b565b620184366195208801357f1e8003ea3288e75052397411a92c6bb303e7231d09f34dba64b2fe10138586aa7f2c645cfbe8485aede501b97abd807ca73b2efe5d9daa7959eb57b85ba8173f46846200009b565b620184896195408801357f0b1385c931eefb01aa46c79f7efefa4891271fb84121a2fe674e45aba12657017f01550af32d7fbfa6a157fa2d4b3434a1a26bd441752e444b3d04dbf7dc70c692846200009b565b620184dc6195608801357f115905f35ccf6eea48215f71f89dafa930deefbd1e2532798d2c246d70ed098d7f1515416d5c3b28805d268f2d83cb4f833760299f23cc7d7a67c0566eca21b55d846200009b565b6201852f6195808801357f12106b3eba8e6d5912ab6c94da48c469d40b0069f3b05c17dc64169706eff5e77f0ffaf6392345f1276736e5866dd57afc36c7a4c3e4423e6af4ecbf464a60bbf9846200009b565b620185826195a08801357f16596bb7a39c5d8fc179f64159e541d7f1cb34bbe9e5e320acc155adda8afb707f2cd53eb29d453614136149acf28ccab4ffc5ba4e1c622a7d879d8cf3556685e6846200009b565b620185d56195c08801357f261143aff31116a6834d480e58d3f7c41e86dc263f92bff102d04c1285118f7d7f0875c2bdb2b44920bb35e7e22a5dd84cef12bc86ffa68b84453590341a6e0b50846200009b565b620186286195e08801357f2234fdfba8c082a9e93676c71db4158bc1a6a7e9b0662fc305060df1ac6e1b967f1b1091595df957fd6b59d2fca79f9dc3fbc5a88e97c5a27a5a220fae3c209391846200009b565b6201867b6196008801357f2e2a0df3ab17c8fff87d9d5de1e9b2adea03417b007f9dcaa1c0bde673b3ac2e7f0f666fceb05cb50310c205534807b4d9192bc27dbd5f5ea57caadc7edf4a656a846200009b565b620186ce6196208801357f279f9b4ec68fb8500d5fb47fe2eb3e3fcabc36db3eb29e3356ed666ef0288ced7f26ea81f187fc33112af563d618b15054ccdc964f16325a674e929554dd6e4f85846200009b565b620187216196408801357f05b915e5d29783e5f6cf06fa3dcce98cae1c10bbce196e834865e0c2400fe8d27f1726fb8bd65733ec424dfec1dda101171ff99caa6ad3ee83aabdd36ed6c6a530846200009b565b620187746196608801357f0e1e2df71501b80523415a1dc463d3b8b991611576edebd1d63312b2f29d18d67f290e3e84d133690091e8cb32b17dd234d8291b57412d46cf253687b22541a58c846200009b565b620187c76196808801357f16703e908c445a4bafb4d80dbcf8a488b3efd0f5d767c383aebc2a9b5e84ca937f12859814a666539588df2471ef864628d799076967235f6e857b64390e6bca53846200009b565b6201881a6196a08801357f0876caf5180566d25d45dc8c0511b8b11d8ba41340f64b417d67cd1e24be144c7f2cd2991f0c87c4eea2fe6948fca92e5466574dbb8700f475dae0ddcb816a6ffc846200009b565b6201886d6196c08801357f2d555c9c12054e07582c3f1201a43f8198b97a0adfb3b1acb01ab06f6fe9f7f27f1c454bc5b2ab36e7470836d1b919082dd7fe537f03f1d99bef86c88533fbe35e846200009b565b620188c06196e08801357f049ad3c42745f6c66cf98ae3c0e6abea7aa4183ce47ac428195f4eba21ac1c607f2c0635fd4c5378a8c92c40c736be40ccf4a6e7a940067a8867b80c67881d4105846200009b565b620189136197008801357f021ce22d13d61cc52535ffb91ac2d71f2c6301283822302b460cfed7ed4a30de7f258286a95c6f4b29d7757689c034062cc495e31c93f1ed2466786606a491d302846200009b565b620189666197208801357f23dec90b85d6a6189594270a5d1c4096d385d1987262c349dbdc4b76ff244f9f7f25744a880834170b6b3eeeda9b5bfe54e310eb15d613170773d172ae9a8c9131846200009b565b620189b96197408801357f0d78b375544fae3f1f0387718904db5cd0cdf323b6fb980cd178689731ef79567f19bc3fe0cae848a03f535d306c13ab040d4bba83c1e29cd24f8ae910c000f92f846200009b565b62018a0c6197608801357f1d3f388ad6419298f7c6ce7961562f1350780d6d91649df442a487abafc157837f1ad904f3d2a42d34f850249490cadf6e21d872e9b537c23b12be9495df5b6d07846200009b565b62018a5f6197808801357f200e52e145e1dc98f3ae5b0f1c6e86b52073f4b5110d179fd7d3cf034fffbe537f19a0ea4d3b726ae3b1c8dbe3c18ea9cc96f079cc6c64ffa5f7dccb0f6e7dfdb2846200009b565b62018ab26197a08801357f18fb8b8bb5bb7b951ad929c94dc6f1f105f85f1dfd675ac67e758f7005cf74127f30283ba1e99619d9b4a6c2d291288cf572f1bda731e868c9c6918ddf2fc1e421846200009b565b62018b056197c08801357f110192eb027c39ec7e6c1898573d3519e8a8b4c8f9506aa6e00071b9326f42977f1e446b74b559150fd0f5ca4c30301e7304edcd9ee742c1934e7eb623179b993a846200009b565b62018b586197e08801357f1436ac7d7a6b94ac92ea7cd0acaaf3b0abac4066c55e1b8f0ae9f1aaf01df06b7f2e2089ff9656b7152f3adb108c88c68a4e061344fa14424711cff4db332e7c4c846200009b565b62018bab6198008801357f1deb1323dd3b15bc787c40aecd534e51d253f39199df311350ad168f25df67b77f05d97964134e61138d74ca65de62fe843f1a1fb5408b5e1774fafdf1fa2735da846200009b565b62018bfe6198208801357f0dc8f6d60d737269b10dd4cee2b10a9af5e40543e4071a25ea02e5a6c2b2bd967f2027a5cf9ff158ca3a5a9adb66724c41ce14b3782f4a779367261678f16690d5846200009b565b62018c516198408801357f2f52f92b23c5f84c626f2ab5659c0584f357b017a5601c2acb5e0be8215f74c77f2bbe849115c56b02a413ed46d088092a0205d771b373bf95956341b1b5713af0846200009b565b62018ca46198608801357f2b42fe98db37c71bc801dd43852701577178e17cc47b9cf50ce26885d353b5787f1ca37ff8685c6bddf565cdcc48d8a6313ebc236c1944caa1d7d9a840093ea8d4846200009b565b62018cf76198808801357f0e6f520ddde0452880b12d2a308abb972ef77ed9127560ae71fbb05847396c4f7f193d861d37c405c95fcc0deb8523d6b6c93d4fa7e6cdb282101e1cdb67671047846200009b565b62018d4a6198a08801357f2299d5bfcf5bb84ab4bdf9f3ca9634dcd0d220813343d3c3c73c3181865e44377f07adca7952244ac1eb92837ce0e6b420b7bf538381f12be79a3e2a7b809f3fdb846200009b565b62018d9d6198c08801357f14fadb95e0c9fa4808a0b67ab8eba3753db8adc68cb7e2566cfccf10468e36af7f0136bec452c4dd90a93bd568bba1d513413da50e3fda4d327aad5772aee80acf846200009b565b62018df06198e08801357f2c30f5a7f02c9aa1e14a187a1d0252d1676671a97cf355b92c3255069bf0d2197f0c4b1a7bc71b11e4207f5326b2b0ceb474f280d911e01caa1e43a0c0c06c5c9a846200009b565b62018e436199008801357f16efeb7327f7161c3fefc6db018f4064a9ab2c7ecaa0f9ca3523cd10aee33e347f1f8b920087e3697725f34ff3e3ede1aae833ac54e32977887232432c158e18d0846200009b565b62018e966199208801357f09ea7c88602acd40d2d6933613b2416b7b6c04d827e9f07c22d03c7d1d19b0a97f0e4ba59167d3de494f19dde25fe359b52d383092e1372fc47187e1c93b358b1c846200009b565b62018ee96199408801357f015c60dac856e9d884bdceb3d184c98a8bb43e4ed3117726f19dbb96dea7faf87f2e8ad1197c412ebe8d9ffdb783f5c8676c855a288fb37ca58e2b3c06a31d12c0846200009b565b62018f3c6199608801357f03dec74b3d6e80e0899c10362d51bf57202cf426718919e73310922114ba775a7f2fc631f7403afd7ac2d2fc84981fc214d1cadac3743fc9442200482e8fc4ea4a846200009b565b62018f8f6199808801357f1920c5a756122e194301e0c665eae7af6cab7c04ff3e8bea4dff528a6352e48f7f21e5c6b87af6423736c20fa2bb02020672204cc902a4eb35865648393f313d6e846200009b565b62018fe26199a08801357f243a266091e1fe163e37e2a237c00d88c8bf1f6c56d8e2b4c3fb3d91c27491057f195182328434a1e28db61e8903a749530530c7c1b19865d3a65d3af35b890548846200009b565b620190356199c08801357f0cab1c20ba567c317bce0c4f6b162356abaad9e47cb4dac82acc12bcff1985957f0245354f27ff7bb5dc08005446e92ea1b38e945d2e0358f2185c426120b75852846200009b565b620190886199e08801357f24ae6b8fc05d941a5bb1187da368b54bbf2060f793dbbf16e641505172f1a44b7f113b4ded2ab0b418a6237fc9d5f6fb6a99908e906f6ac6b602ab1d10ab9fac01846200009b565b620190db619a008801357f03ada7e56b15aa04cd460b3457c8ba0fe55ebf5b0097d48c1e0b8bfeac7e59167f1d7ed384815b92a0e2500add1ed0f37b0544109f5fe6c6bd9dac790662fd7eec846200009b565b6201912e619a208801357f1c1e8b2b4632a7448c0a0d43a1fc1cd603cf96328e5a7e02ce88eb0f5c5d5ddb7f1007a5260ac022d1153c0cf0de7825c0c792ed285e14e9a9517dbf4496506045846200009b565b62019181619a408801357f1a7bd2435319debf3bfc9bfac1c4a25e4e02e4873deabfcad99db815b45596477f1552188511c3c2f15749361fd21404786bdbda7eb01e4669e1b8e6384d94b0c8846200009b565b620191d4619a608801357f2578a8693fb276e89ce170ccab6d1d1a9ec27afac9d2996d28a3cc6f484457c67f1fcdb33b0b3e8fb505bdbf73f6a0037924ddad7a6e705173e478d2c2b1d5dc98846200009b565b62019227619a808801357f11cb69f8039ca3841b6bfb5f593ccbc1b5fbea062bd0ad3811f7987228c3f1317f12424594730bf6e79a08f24a7da41920e25c037d55962ead6450cbb7d3513970846200009b565b6201927a619aa08801357f06dbeef7aa30aa78732c14e999bfb2b4e8bb1d9e3206f20c31f5c4cb11e3dcf67f0b10f54c928060a1ba2c4ad5891e1e87efa716c42e1c9687aa14bb999827d399846200009b565b620192cd619ac08801357f115d6246875f9f299f4869266b1044454ab69371a39e612483f041983979e9e97f148b65fa5b82e1232bc130b1e52da4fdb4c0297d5de2bd80882f64b21619ea1b846200009b565b62019320619ae08801357f177fcbd1b4d9016f37dface4cee2883e3177bb049868389fa88cf14a4194a3ae7f021d2ac47171a445069465466aeccff05e05d884509f06d4ba5c60582653be88846200009b565b62019373619b008801357f2e122058fb2238b4e1ab204bd04a9370d241f9541a201096d685ccc5c4a791c57f2da06abf09a8ff670f6db5ecffe70c1f707edd7338c2bf746155893e6a863815846200009b565b620193c6619b208801357f2fc036ba0f49d020394cf562fc106c7d2765af1cb5a58e8dfcdd6d320d6881447f1e14e619af6ab43b31ed9d70d2c6f5e4e791fbeeee22760bcdb8c4d718ab702d846200009b565b62019419619b408801357f07b53c36041a0ce9220ec6b1b3effa7b6cf586e16aa395c9478d5db3e2e999407f24df3cc8304482ffcbfa3cc41d3b29b5ac56ea2b8f24e7e2dfb32a9bd359487f846200009b565b6201946c619b608801357f2ac89b2db7504a6c1fa853e00364107a2b6c1f6f83faccb9ec7db95443e17c5a7f079de57650a1c4de07d08be19971cecf3a523d33d0b7f92cf0ad44c407a729d0846200009b565b620194bf619b808801357f20c1afac12792bfef81bf5a53c63f1bbe648220ea96461bd323d62bcc039b8b67f13ae1aedda4f1302848c153e3ef414cc714074bd8fc3ada5ae32a42510924578846200009b565b62019512619ba08801357f1a41872df71d09ab7f5b6c7b716e4b46096e063fb43e1b483d948460560496177f05a198233093f7016646cbf74761bda6a23286d49b263c7e7cffc7f296d103f0846200009b565b62019565619bc08801357f21ebc22939c9bedca0be40ef3793dace2e1426bf24eb943c5732cd0602f8384a7f0d14ce8ae91efa67e8d6d97799691d18d005a71e7170b0ecaff933e68534cf90846200009b565b620195b8619be08801357f1710c7774bbe1a7caf262a148ab2a23ad76e11c7fafe0dbfe6bb806e344e3e467f171021e8014a8bbe518e55a36d8ae6965887bd354c19efbe4685bfed0d7e352f846200009b565b6201960b619c008801357f232134465ce41f1a8de9cd7e782c1e1988622910b690a4e6bdae6971342883137f035e88d2f43fcb3d7791f065fa096a27d2f3ee5c780b2e3646dce2d616ac70a9846200009b565b6201965e619c208801357f0f2673e1dc5a610410ee4c9e6629c096a5eb54ca78d4ae186218a09fde5796497f1231c65f02c891ebbb19649b47c941f9e447b619f77a10b07da2ef1c1a02e07d846200009b565b620196b1619c408801357f2da5ea5598309c9823834483af6a3812a6e18f815d54211b844c23d6281e16337f1e738dff9011d17701ad496c2c0ac995a8b5d7837fa5698442e3585f28e8f343846200009b565b62019704619c608801357f249b256ed3e82710a396162ec776fd2fd6bb199d6f7115042281975c105ff2fc7f10ba91aa10542a7f8cee335227d6775c87d0c5a5fbac95039f8bd963e2462df7846200009b565b62019757619c808801357f2a6ef4f5837792b0c0fffd802fccfac0635374b8d89d27573120a3e85dc9a05e7f150bece5826e8951f61f247a9850dd585299d4c0d419bc58114944d3406f84d7846200009b565b620197aa619ca08801357f0624ea88aac2146f5d86cd9b9034300cedc72f1bb8fba3cda1e56da9107b1e8a7f108b9202c5f38af06200052b827955def3b65caadcbd75de9c59037d8dfbedfa846200009b565b620197fd619cc08801357f2fba488158c3ff9aebfa9f69e1e46aebe1b4126e810611c90c7ded4f1cdde0af7f2f735a6b8c61959fde9908fd567c47414f0eb93a0be3fe595b0bda2729bcbf6b846200009b565b62019850619ce08801357f1b139f27ae83a181740cd82b1f0628e7a9c8e867596cf146953ef54e0d0f38f37f023f09a2a0a4dbd5b6afde18bbade20b8797eea7e07f9a4279ccd0a7daac9f5e846200009b565b620198a3619d008801357f242c49ec7cd44cd288657a16c70023df357a2788d6d956c82eca73dde22354d77f209ca233ce6d8cc36a0bad7a827ad0d938de374bcd27a50e436dbfd4fa5b5000846200009b565b620198f6619d208801357f2a194415b607d9503bca2c3e73e731710a684800ce5ee67a8639bc616f7f08dc7f161ee545dd2f7435d7200617dbdc492f2c964e8b08ad560a7a5ae4ae4eebf899846200009b565b62019949619d408801357f2b05b2c0721ed552051ead4249fe9c0438bb1ac26e7ebcb63b2f14a72b4aaa247f13ff3a41a3580863f9089ebcd0356f6d5df1cf23b060e25772ad264910777649846200009b565b6201999c619d608801357f08557b3db21e5df0a5a1836d49ac5ab0961f532ac44aa8e8fef3fa72543276f97f17b458235f270a9b6cce2939584a5124575202c1665b904b1b936d5c53fe854e846200009b565b620199ef619d808801357f0c8558cf0ac94818485871e617643aed2175f765a901b463910e86719c6c468c7f2e83051a72895c4520f51412fc266de7ce184b90866ac9edcbe009e393fa6660846200009b565b62019a42619da08801357f014d3910a9cf688b3532fda9b25d6d599548ab07d7b99887dbdc306665b1ccee7f272e33a4d98a0e0623cc131e7e9182c5d4d24250c8b198140ec324dd95a1c774846200009b565b62019a95619dc08801357f11d305f1da03f90361631acbc62cb55e0e6570cd6f26fbe3ab6e7ff4030858187f0a2547d6eb763f101479050d449c6471687a2b5263c917911f2477d2306c550c846200009b565b62019ae8619de08801357f1e75074486eacacb63555b237d94b649f523020bb1d352934652f2049651e92a7f1564ae507f6455ed918a9d9b00646936c0f85bbf4ed96154cec95205933d1b82846200009b565b62019b3b619e008801357f0fc619bc1ba582d6be238503fc96dfd7d974ce13aaebcd9335130d6adbc73bc07f2462bc024dab9fcfa1f9490011ba1e52d5e9b80fea2efa5c742196fa4c63374f846200009b565b62019b8e619e208801357f0839020968235bedcfd574d28cb700ec44a3f85a9c8733d770ecbe50bd8826ef7f27edf68308b809fc677652e62e5d7330b87733fc3cd31f837979e653b32c8ba4846200009b565b62019be1619e408801357f101a6a0f9e5e1222bb9745f9e06138921b94f175eeb7612c5ca54f84d78c3f0d7f2ead481ce6986b84bbf9fa91fcd80c354914af7dea23cb7042a3398256cb3d25846200009b565b62019c34619e608801357f1a2edd88294c8e00b402034491f1465ee2bd743df6ab05184b5811bd062251437f1ba71ba90a110ec0c75050255fa149ec67f69cb3f39615707679b711baf1d967846200009b565b62019c87619e808801357f268c2aba8a9707d3ff8e69f85939db186e27e778caccf5299c8962ac5a67ba7a7f141f195eb89019f5dbd7f63ef3b2766ff7241330bb135c8d74f4db03c324d136846200009b565b62019cda619ea08801357f18678629741d3ce43aecdb87820e35058d0803ea73bfe5120728c97727b86db77f022b1c1ded30fc98ad12b5738d784571d72f316c8e5f31217a17b2f19d0d5b75846200009b565b62019d2d619ec08801357f2f9411c51531e43e0a8363be24f2644e4fe3a53d653179b74041e6c0bc2468527f2e76183d1f185d323367648f4f584ac807b59e9b329af20eca4f187bc7d5b30a846200009b565b62019d80619ee08801357f0b6b78c48a8ee4e0c476fd550acef0576eeacff8b5727817f003b9fd14df1ad27f033bc676c265df48c2b0693c42fa2a6eda0a91220f3563ed3865e6424bb1d4ff846200009b565b62019dd3619f008801357f1ba51ba8f68f1ff553a10343dc9d2a6aa08b00be491abd296092fe5b4dbb38ed7f299492584bf7d306827da2e00cef024ac8e2354b0398404d3c34c66b96294a19846200009b565b62019e26619f208801357f21de0e9407183cf0bb89ff962d7f9bf24a10e14a4b1b14aa65284d076f2911f37f01de0d1f5159c9e94a8129dab53dc8e4f692cf96839ed7820b47eed1e8ecb2e4846200009b565b62019e79619f408801357f036a905d669d6809a70a9bcb906f5930d0d04a2068715526d2265758e114cdee7f1acf528fc08f783fb0fc4d9d8206fe66a83660d164f4f8cc2af297309177c3d2846200009b565b62019ecc619f608801357f1ffc0244dd166a34eb6af20a4fd9d6c2af24fb2845032b5d011b3499c6acfae97f06863a83db6016520ea0d11e3e1b5207d379d9106f375ef4f00845a95829fc94846200009b565b62019f1f619f808801357f181c88a5e10de3cb16e0858aaa7a64ba06177340b4cbbdbfe48cc4a1e2cf97ff7f0f537a013b28f2c198042ec709bb2e344f0da495222473da20bc621e40b89e5f846200009b565b62019f71619fa08801357f17967e560f8c5129e0b6eb3a1ff14793c345cb7644ffd3adc26abae2970b2dad7e7d13ad97a2a9c045c8ac260358a003748e6c01b05d976a4409112943782170846200009b565b62019fc4619fc08801357f2b4ac61de64afd132130db0cabc7276e2d76248d15d42c5196d22e7f35d260887f1ba6cb29108a44099964cd9b12ff9d4f8bc341278fc943c2dcdd6dae9bbe7eb7846200009b565b6201a017619fe08801357f08b62727721e00e7eaad1278142c6469795fc88021930c7306c536899afca23c7f1417051e84885d5c4abee9d135dc7b65ee5d4b531ce311539024a87b5cbb1de5846200009b565b6201a06a61a0008801357f2dc1eeebef69ecc473e8e89358805ec5dafae8f5ca47402f3879d514be25c2997f0f5250e75b919f1ded37d0ad58956008abdf8c0d6d5cfc526199e25e853b44f2846200009b565b6201a0bd61a0208801357f2d6f740472e14dc4f154a3f6183235c32e8236613b361f5d3c633d6b493cdde67f20c289585cef1a1a0935e13e906f89db836a0651e1ac54e29b5e6881553cf550846200009b565b6201a11061a0408801357f2da3992da44b0bb595db2c8e32acfb014c8511b4e0461263dccd6cbb32fc37857f1b514a4b1a0fcba057dab393161f82a8a5a84ab659e0cc156c6dda23300f6c13846200009b565b6201a16361a0608801357f02698f51b2126db3e9362ae1404e97ea630e897ad6f666f4b9c935fb37f86fd07f0fe6fdb6d5f39ce75c35257042299823f87dce1f42bf243b766cfcd46f24387b846200009b565b6201a1b661a0808801357f02c8b2805c7ffcc38632870bb9723fd9edf64a058be63f6bffa27ef23e71ed277f19303efeee72dbea9e5da71a4740eebf9ee057176413fc29c71dd5823251c006846200009b565b6201a20961a0a08801357f0d551868f88d3f85eff2595ee057e7693fc9dd4d62fbe79e3204ceaccdbe61177f300a8adc5b7eaaa1d687bb53deacea3b415a6d60d0346bbe3fd828cbc5332da6846200009b565b6201a25c61a0c08801357f19bead8867f87569caed693f886dbac91b0ff54b287b4eee0e351ce87098f0337f0ca69f7690bf76a6cf7d182edba9307c7fc8df0edf9d97bc8a1f72e6484c4030846200009b565b6201a2af61a0e08801357f1d09d45132a1db4ad0d39cd227ff7008bff15c1e36213359623115d7e53459987f0cf51cb113c5f36aa3259818aeef7a6089f20287d363c589f45d847ab1ca8711846200009b565b6201a30261a1008801357f3016bdb7775e66ef384df15aa33b2769928f47cef00b80963ff74ca62afba8ac7f20931f3f09e072cab33bb8e5a09693f2cb5dff4d5834a223f5602edf3793a8d3846200009b565b6201a35561a1208801357f28893a762c3bb5a8923a7ed56df51cad0d5b68c5e0a0599fde03a9a9dac511b87f21c60cc39f0ee27d8c4b7b0b0562266a5f61f9a456d2a7e8aab63d44ac89cb72846200009b565b6201a3a861a1408801357f1c0ef421c01c1825c633f695bd3d0b423f23ea26d754d78621709e0b58ed363a7f1af649a0f76b82e07c205048dd771a29194005c8a185c6adbb86ace920a7e5ae846200009b565b6201a3fb61a1608801357f1739c0f95974b7261bcc77cec5f16293bf2e2c83324effa68dc3869de8a0ee107f2c6b470a23aa828d5cd809ccdec5a0e5e3e94be292d3a91a5f507e1c76170895846200009b565b6201a44e61a1808801357f011831e6dfa69dc1874f50b56c565e06bb410fd02520884008a6155737aa3d117f0be93dace15269f160ca16eedb2947ba69f02bff73c6dac3c674a54c005dc9ec846200009b565b6201a4a161a1a08801357f0a9c1cfdcebdb7d28aefd6097aa89ef2e72aafee5080bfc998ab649b1664c24a7f117c50d9842b5f3d19c1c38184a3c1ce69b74257941e24f24231acc6aafd7f27846200009b565b6201a4f461a1c08801357f1b3f643119b86671c233cfdf08e22d8688c9ae90de1145a591418faec3a80fae7f0b973294bade21d07a37d17e57563298e7659012a5d0e144e507904bfacccd1b846200009b565b6201a54761a1e08801357f2994204f6fbe701b6bd336f39a2dcce64922aa357f6e561273440fcfcb3974d87f10aa0787292aa4f15b52d5473a88041a6ece4b7422b587975d0a8d2103bd185d846200009b565b6201a59a61a2008801357f1574efa61e0c311477cd12f09cb146e7e79d0f6e23cdea6ea3ebb6d9234247657f10170b3c7401f4e625413514e494f6de007260deb03e68b4bd63401622243bfa846200009b565b6201a5ed61a2208801357f118a597d7414933904dd3c6dff72949070183c958064f25be511efae1b1ff4907f2d7cb88eb00b4f6e701e84a015627009a2155cd0ac909c3d3fa9e610622eed49846200009b565b6201a64061a2408801357f1ebc3d27af8ec5c9c575d89aacff6e61808abf4427661feda912460d98250f267f2e69620e6932f604bdbbf53952aaebd2d4b7b8e4ba5a26bd08eae1b8eaffc37a846200009b565b6201a69361a2608801357f0a7872769fc043a6bc6de1fb4f244fe09749c63e481c9217151afc9f7d72bde37f0500f70a222c33dc308c67c3b59da17664feb88e72dcf4518d44e2d1a4ebdcb2846200009b565b6201a6e661a2808801357f283be218367380d51f6f8fbba04ddeeb5133ea27e63f90bcbb634d9db92fc0847f2a0cd771823a77a78ce6068e35e562e3b2773242527c5fabbcf78dd03ad86277846200009b565b6201a73961a2a08801357f1defdebdb8c76af93d40c88e817db496cfc3b1e1987a9a3a71776d5d436564b67f229c10ffc64711c6e5dd7f0dd2ab0f09858970d13cd0b390958e4e5418d67691846200009b565b6201a78c61a2c08801357f1c2884e4b59898e64427cddf21ddc8087a1cdb072c5acfe39b44f2ae6d94c5107f25dc8984a0df1085a66fa1cf5718dc9c6ac7f69d1b544b6c20baac5efbdc9ed9846200009b565b6201a7df61a2e08801357f2795dd009972e0cecbbe51b59840a4d3b9e2a1c8dbcaf9e6354fd9cc460952cb7f04174962cc25fc2e72341473826160735a130cb987f24d7dda8c88a4f271ec5a846200009b565b6201a83261a3008801357f27fe94211422987de79870929c7b3aae37ef3918aa738caab2b3cc8cdf0cafc57f02a313938a31b4dd0b21d3efe7777d88158d055590e8826bdc8afbac9adf2d03846200009b565b6201a88561a3208801357f08d808cf735fffd22b84333fbfc94ef16bb2eaf041a9f7df98985aa3c8f17c017f110ec3523e7593157375c63ab0798dcd9040a9d764d8c8e611836f1ea58fcb97846200009b565b6201a8d861a3408801357f0af288d6b05e3d49b36d5242185dfd097a184d46c996cdeabdf117090943c6d07f12b50becfadbd6f35dc8ce3d5ba6e55a5db70a5fd13c514c25ccacff27dc8175846200009b565b6201a92b61a3608801357f2938e27ab6cdb5204c55617ad053f633103d5326582e78b9251cb523b8efe1d47f156e0e340273b2000c3af23beb47c64b4e99116725a1135c8ae20fe0de436d7e846200009b565b6201a97e61a3808801357f1e8c517049a7db7d07e7c0765ad193d31da6876716e2dfd77123c97f9b7ca7247f1e778796fe66dc0bd49a7b721c9524bd3d423c4e11141bb013a4014c5b0e8d85846200009b565b6201a9d161a3a08801357f2653361b762f8dcf9b41136a45cc9b3bbb2e9be08a5899aef6503d60b83edc3e7f11cf7200ea14474a67fc697d3f75baf5432757deb3806ad5d8b2546fb4ed5811846200009b565b6201aa2461a3c08801357f2f29ceb016ab33d7da8e7f130c9d14821e436774d684b8cff793fdcadda910f47f0a058416b94c78d05e52b39d95de9666a3ae00185b9bbcf8c75512c65edab3ad846200009b565b6201aa7761a3e08801357f0e0c6b5a7d383414a3a0388a23acd5b9da153c746dddeafac9477bfb1cd6de107f0fb9807cae0eee763fd3423e15b6ce7a3acc125cfd4557233df4caac62365d9c846200009b565b6201aaca61a4008801357f067b39aab6d51bff54ae1f4c57e79040c365938f6ecae5db045cab5754ee8a247f1f7c8a623d34d72629acf6e4092ade68dd6bf8f7181a133285e9c258fdee03ab846200009b565b6201ab1d61a4208801357f2b56e0da09e9a1f2414ae2825abbb693e47dd7b903586203c76d4294c4f6dad37f02ccf53a7673d27f68a71b4552e842a3a25d782a0ea3df7f8c8956baa5efd3b2846200009b565b6201ab7061a4408801357f15997610d3d4315075209a803d7ecc388901f1b04ccc27d7f9c1b4d4bc6f87167f22dc9109023ec4bb628db73f7a8ea87e5aca4f31af271fb483a9043217002aef846200009b565b6201abc361a4608801357f23e2c02308ddf3451b1cc78f82d6f46e82fbdb17c4693b00ed4b3eab576307cc7f204c8c7e9f304c481f5c506eef20b6aedb970a85937fffe168cb3cd241906da7846200009b565b6201ac1661a4808801357f0d54427e2a1c7fa6b6fbbac3770dad91bd7d061f9a7f01f56ff212e18e83b12e7f11cb41e881cc7add7faa4607346d29a08346f0b1644b8be6980de4ff40f3e966846200009b565b6201ac6961a4a08801357f23ac83590d6b17ac8bd1b028e6ad0e11f8b4ecdd46cfebfd2619c1509c7a27737f0fad0f87713f49cf5040b1bf23074fa829ce0a39aabddfb424702f5b571d51b0846200009b565b6201acbc61a4c08801357f0a58b4f919e93f78b26afd01bf667670bab50e9a4cdb52f1fd337e546bf387a87f1a1bea7fdcb455ae2b2b11bd2eabfe8697828e905055baa8829202c9a986aea1846200009b565b6201ad0f61a4e08801357f07c457efc99661b8a827d822560bb358adc0e20be6a7e661b84a4023e568542c7f05b619a3243b59a00d52e90e8ffa6d49aaaa5e411dab54a1b85a20f2dde4fc19846200009b565b6201ad6261a5008801357f19d96f3825346ab26f12ee611f5e115ce09740c6bcb792cbf1b29208dd90b8fd7f28400783d2cafe2ae7bff453f1c64c14a22ecf6f43b3114c7175add4e66bf9f0846200009b565b6201adb561a5208801357f0406aa57ea2bafbe265f185dd20da2406904974ef8d7a369e18852d2c839b0e37f2749a4ace590c2aef662c44146033a40468e3b8bce01f6992d6f1e2f7c34a543846200009b565b6201ae0861a5408801357f22eacbb0f28791b6bd038a26baa2754ba2eebeb35ee1418826abf429cc215b887f2b13b513b002e82b5ee650e46b3c45c2ea0b8d26baff54473123f8361ae2a729846200009b565b6201ae5b61a5608801357f0ad4f10c9567f207cee6487599536d0626b6f0edf331bee2c88447b8e10ac8b87f04b99871774bbfecc74378a67f126930b95bb1b0363fd6eb7c5a24843969fddc846200009b565b6201aeae61a5808801357f1106a6eaff8309f6a6cdb436400d9e3bf3c4e3829cc6be3ad94442c98aeb93c17f0740095ebf44ae93d2aae28d904e3a7fb6321f53172e0f66e85490fcd10285e9846200009b565b6201af0161a5a08801357f2f39d6005fe2079f25dcb179383fd7846e5c3665fe98c1e9ba031462eef15fb87f08d2119ab383aca3ae4bfac0c2e7dc15d775c5f9e7e632b1d87cf30441a930a8846200009b565b6201af5461a5c08801357f0b12494991b43a0403d73ac2d73b50ebe6854755aa297b72f39529872705a9047f2557cd87fe67dd6525726385e88926f4046167600a194751d8fa35d2bff244f6846200009b565b6201afa761a5e08801357f1505edc396c17b49a44045c899da3e1b1d21c16897109821f60cc207e15f8c657f1033a1ad41345b9f6f06f47904834d2b84193c105870fb98d6ee277b9b3e9ef1846200009b565b6201affa61a6008801357f1d73a97c759caafd87f5f9c1268a4f62a60af5dce269605af727b6f3fca8f7027f2526111afdcfecefb33d95e70854873d3eadb1a36705482440a96a10a585b416846200009b565b6201b04d61a6208801357f298ab2ec710462f9e0db2f276b668d39c6dae2cb6652e7dd9aab0ffd2d0dc8cc7f0bdadd6d14bc62aa11ee1f786946ffb2271f78e9f112ced7653608a1f04caa0d846200009b565b6201b0a061a6408801357f08a93160362b8711645aadb8b565166f97e119c1f7906979de1af30319ea437d7f15606c301f1472c7aa550fe096bfb4a75b5482b09460926633f594dabadc5534846200009b565b6201b0f361a6608801357f0c1bbc5554b15482b09adc3e8d2ba6c21ab8c04a179eaccc3582c1d98bec7bf37f17a391c74f3e2379a81655f25b6cb7c547267a4683e4e0566a8e77fdc0737358846200009b565b6201b14661a6808801357f193b8e229730ed4f317723f301ca02c9b845a82bd6eae5050f08c7bd7df772a07f1c012d0460b6c947ef201ac3157b29c43d9ac9276a430516edc296624184dc60846200009b565b6201b19961a6a08801357f2fe3db80510e6a8aea0d92570586debfa4faf5f185c27a2ed59625e5451374c07f2018046599fdf58086e4db92ac4e77a219b64fcba4fc80153efeb1cd7285d69e846200009b565b6201b1ec61a6c08801357f25a79ac4d7cd16c391d6fc541ce8ac3a35c823914ca263684adbd534e27a36667f19bfe08fd21e33673bed07b003d776147b2e6443c917f21adb53650506d8f536846200009b565b6201b23f61a6e08801357f24e15741a52ff3016b8f4a70b5008526595dfb764e3d0bbc105903c2be8c6ef67f13585cf8022aa84f417cf8d3f9e58c9e1d90ccc83958775f5a1bf020fe962d40846200009b565b6201b29261a7008801357f1aa53406249404dff937bbb9c753052ecc9d15a28e9a6fd4613453e88c18d8d47f105496c497e389c243fcf6bc70c89fe649a85bd7c0114221a237b77635617ab0846200009b565b6201b2e561a7208801357f0318a436f9f9431281e0b39a9edafec53aa586c43f3ed662f0b6c88c78b14b707f04935feed4c96ab6e6bc3ea60da2eb221dfc3f8f881ee2f63e9e6db37bb21591846200009b565b6201b33861a7408801357f1bd031817c00292e9dbfd79a58afa098e88592da9d94ce97448cbd5c422a244e7f2d988795b08f10a46c3b4e6268bc8cf79b677f18996ad9f89dbc1b2bc200ef5f846200009b565b6201b38b61a7608801357f1abdbc18f165e5e4518786f693e3f13d7fbbdbe64830e46da93881d2a71651847f2865cb55bc573446ec1f92cd2c76232cf56461d82c075520fc39bd69eae1bbc4846200009b565b6201b3de61a7808801357f17e8936b51ab3d812a22bfe1a17a1c75a1f7a960741395eb5bbd89081f37a6fa7f203a1c8160fddb4af9bba7a863eacd1ca081f125cf9cbfe2fec1cc355834c2ac846200009b565b6201b43161a7a08801357f191ce5d22a0ba7446704c866e61257034893c2c0b2341e0e686c96eb6f18d2ec7f095f6cc24f87ff81a40339436201411e93fafb0af3f71d1a1394b2b475c440e8846200009b565b6201b48461a7c08801357f0f75473c71cc4d7f1fc1552c4efb9017cd4f6759398347e83fd5d49c523efc5f7f2c7b3d5493ea34aa1479746e695937a68548167c7735fa1d31e2f36f84529a0f846200009b565b6201b4d761a7e08801357f2b60baa8d1887b2970d9dba36fd8bf16d066f7a2ff1618f189955a756fdd07747f17c43749cc07567c6fa7e8078e2a2f93e451f6b9b081d7c4a21390fc78ad28cc846200009b565b6201b52a61a8008801357f03f4fddf49b9d5bbb5571413dad2423b98501e9584824c1a25261bab8c0fdea47f02267a3d3ec07753cfa7ff34d94c78490a7d01ca254357b8a4af72a9b768843d846200009b565b6201b57d61a8208801357f15e41285317e1c5ee7e1bc6fa6a580ed54de2424dba8c773bce35be1aa02e18f7f194d43da1a671a745487842d76826594325b067e37038e5b043351c89c4ec22f846200009b565b6201b5d061a8408801357f0559521a66ae9b52ee6c47a6ccbe40ccb2367f1fe316c391d38ddb5f461a82de7f2117050a8d77b2db17764eb3ee36f0f0d96c98f4786cf402cf75799e1baaec5e846200009b565b6201b62361a8608801357f2493cada257b888c95cebd635f0fefe4591132fac8f62704bcd8329acbccf2027f0bce5fc0b82b17266a13a615d65b92f72da4f707aa82c48369878c8baa67f39e846200009b565b6201b67661a8808801357f07dabbd62c116918350ceb149102ab7fcbd2bba3247b25324134f753909756ed7f228b3752d8ce4bf853e3bdfb5b87c7b399a9d0663efebb5ab16a6c2c48b5fa41846200009b565b6201b6c961a8a08801357f1bdba81cccb82d21b20c256718f5f39128a028e861110305766c8825bc012f587f03e7229639854677c6fb6b58a3ae34f1c0d463dc776b0ba547a8f0b8e11e5de5846200009b565b6201b71c61a8c08801357f0458d5b197deb749ce6941f9952ba82789de63fc87b688683a32e9990d8aee4b7f161a1e981b183bdb820d64943cd48f740dde044e250e45331569c4f7c133b0a2846200009b565b6201b76f61a8e08801357f304689724acf0d9c13e95dcf81e3633b6791111de1b0b91c903c2e3452b9fae07f09201167d3fe0706b842f9d7e90e30ad58010479fea232eaa6a88def28b2af90846200009b565b6201b7c261a9008801357f11de203fbd26df22267e864e5e78475c22b01319266211ecfe6bf2374dd2831a7f2c7a2a153dc7ecb403b0aff2419579ef12bdea8979109ce5e31891d2fc742bcf846200009b565b6201b81561a9208801357f12d183b69fe713cf47b67c8bdac6435065eb0b7c31d5b843511b45f05848d4c57f1651c4194656fe21ed4864540bcdf97d0afacc59560d0050891b9fc7140517b3846200009b565b6201b86861a9408801357f2da1165b7c83d7b1c392077dbefa3a83f0b30964216083ae6273406547874f7e7f16aab40bdd018e9b97bb371b4b72676bb89a64232e41bddabdc1bdff8854d175846200009b565b6201b8bb61a9608801357f2f843806bf9113b4dacbd3d4b04ce1dfd972c64d16254ceabeebd6e321e808227f0de53b9641f3702cb5d54ee67c8855d303c2720e07e894c8f42ea82cc6b88651846200009b565b6201b90e61a9808801357f0cac60ccdfc393b683c50b49398d9af2dd32f1a5bf61563aab687105185f2f2d7f06bda681f8a413732d3acbf29e5b9954d465cbe3dd1571f0bbc5b32d3afa2ae5846200009b565b6201b96161a9a08801357f1155feb34104390632d81b83d7bc5988769352cbf26fba1ed6bdc34e023146b97f2f13e1a79e01c57e56e467a9e1cea9c2725f0878f0561a84ba72269982a15260846200009b565b6201b9b461a9c08801357f11ff542429c9dcb8b6501f31da69359a10d834c277d943f71a3cef4d19f2fd187f11756663c215c3a7469c7fe2c5d4e9e82959ae7d2e4be50386a45a270c8172b7846200009b565b6201ba0761a9e08801357f0dbe7dd8ca4011f569fdd7ab51a5ca1df161f0b434606217bf5c98f5004bf9d27f247de35784c3a90e43db9c7ed17ed93619033795d9708eb4dd8b86daa33b0260846200009b565b6201ba5a61aa008801357f28b27fe7a6554adcfcade93aec48c99ec6f456c2a0e1efb7700f94da9519f6437f2e877a174b5bc790a119dc53b212dcc91c759221ac81c02e2eb5faf2876b09fd846200009b565b6201baac61aa208801357e5f86eadd8ded63b36c78c992041f92696e7ceddcaab7689d8a3babf9b60cd67f1a7cd25ddcf8fffe06563fd36d338a747f3aa8442ab2b2e963dae6471cd08824846200009b565b6201baff61aa408801357f2fb93e300966d1405ee88c083446c756d4dd6f8deecdd7d697843703246b45c77f1bf50ca6bc6c240846bb5f68c736e91ee0ea2ed16500d314ff7c736188c820db846200009b565b6201bb5261aa608801357f0eb84bf48d3e961ebe4dea4c5cf03c78da4f963d01ca4412797e97cd2ecd369b7f28ee6bcd6a99c8f9e208e3bfa07dd972205f03166d34b918bd111fba331d9826846200009b565b6201bba561aa808801357f2b571fde4e82db5afb99bbd8b788ca3068968582c401e977806bf291abf141e97f1adb447425fe13ffe6a47f9e714468758c6d57652be0f0e3bc886383c19d18c8846200009b565b6201bbf861aaa08801357f2e8db16dde13a2df22fa48b587215e797288203044de64dc1669cb12bb0438767f19ab2773b8f1951737d95343753efc05bbeb17786a096905a85d8c159a2c15d8846200009b565b6201bc4b61aac08801357f11d58260b82aa24cf319f6080b7d02b4b7d4fbf2c2c3c4b62a018fb5eea9e94a7f1dfb565b6d7836b46187f41ec79dcb57a831e09eb09c6aa20865055253dcf0d3846200009b565b6201bc9e61aae08801357f16443d4572177550c12f4004a495a8281efb119641a2f978ecc5ac4e2d71e0167f1efa771ba358a9d9ea310ba4e2070d95c13dc28e869bd8846f44ef933031b94c846200009b565b6201bcf061ab008801357eefa18887e0210cf30fc40326f71dedac89ed93233cc0c208281d2ca3dda0177f1d623b63fdb073a3debd28bcd38dee9dd6d8d4f624097540fb94bd8377f681ec846200009b565b6201bd4361ab208801357f1c46599b43be67f017499de6fc4889634239cfe5901965a825193a1eed604d827f2c7d2ea0631952d8fb7a66f05e1536d38743bffd50f8b0f893576a689439efe5846200009b565b6201bd9661ab408801357f1fcb11d9adbf3a5d2149ece3a17d3956355194324b3065b6cfed377e1520657c7f06cf3bc1e73e818950259734a0b0e92567911ed93f66655e9d554f4e2c6fcea9846200009b565b6201bde961ab608801357f1a90b798359ac138e6fc6b0ef1513e6c446507d9ecba20fa90f51f90889c9e497f014ac2b598be2780e5e8a426a466c885a1b2171b195980c0f0999314d2a28549846200009b565b6201be3c61ab808801357f2e27b85386714d254f8f3571d866b38cda1f76f633113afec800cdb198fa450d7f25909375682d6ded0ea9e54e2e7cb2bf372aee4a512f6f70867dfc07c3ccda34846200009b565b6201be8f61aba08801357f29a8773c01520744f8b7f0098896452114d766c5ca179150778c364bf12e4b7f7f1fcc5c5013315f29afa40470f0e6a6a34f31c2fcb822d6794bede16b617d8bd5846200009b565b6201bee261abc08801357f103330c6e8b373a005038be939ec7efc0a49cf91acde5e4b98e84bcbfbb093887f134849993534d5ba1bf28dae4c38ada6efde202fde7fcaef5daa4940b2066923846200009b565b6201bf3561abe08801357f03ca85d1107bdc3ad22ac42d2a568428293a74b44c91dd88c0c80510803173757f2c0ce043f948a7e55fc6f6cc0305eb7498bcee8ae3017fa773fc5266a018feb4846200009b565b6201bf8861ac008801357f24b060cb3ea13650c9c430e8ab0e246ca4c163ad4ae5de027ed07003b9451d637f04ba136778d358ebffaae08ba04958e92d2d5ba089b233a33fc357859f0557dd846200009b565b6201bfdb61ac208801357f12e2d0a4caaa070439d326c0821c9036fdffd6fbbb8e911c02bc498b60d1378a7f29dfd5e957f6788953da92d4b12af4ead7b0be24dc04e93101d3d4de301a43d9846200009b565b6201c02e61ac408801357f26e74fb54ce552045b3c1e2c01382510c793bc9d235575498b8194d54360d0bc7f051ce45968c69e89d9ca78392cac5835cf6f4c8b565f11c37bed3ab07cfa6641846200009b565b6201c08161ac608801357f269f741db60fa4786e14eed844f6c26844aa893b6c64bdfd3ceb1de8c9d6e33a7f1590009b32a9feea63554315229a208d623f1e37ffa80ad03ad9cc9d112dd26d846200009b565b6201c0d461ac808801357f1a98c87f87ea03f33cedbc722f384bb5f645e1c22f28d12e397ea90c7ad810837f1a1b3f8acebf179842db5dcc5a3b999939e75fe99bd93e0001798f664443f232846200009b565b6201c12761aca08801357f0e0226654a2b4b417c7a0a0e114bc4b766564d3f998fef488e997217439192267f07ad0358313edcefbab51018702fa48d47e6df72aa242f62c528ef74bb3d91df846200009b565b6201c17a61acc08801357f20ed22d2d3c507cc2fe3e78c2e7fa9e4d45982e11c4bc20ce206db78396b81fe7f2191ed4a561b80ca1f3451fa898ff17159492b3151956f77e75e6a67b471241d846200009b565b6201c1cd61ace08801357f0e33debe1a0355d500e0b335ce33786cd7bf77d1a5f05f0037a2d81bfc0787027f055ec3322ce3e404b35e740ed6d5172f28368e68457b608f6b5cd5186d7d5779846200009b565b6201c22061ad008801357f086469a8c6f7d86ed7ba3769166c47f055aed22507211e242de6205ff50b40db7f2cbc1eabe5d0c6955eb7eb4c165388cee610bff1b9255dfd1619dea8fba7bd16846200009b565b6201c27361ad208801357f1d185a4a8b8332f9848e9a5ad9cc1622eff61838a33790bfd83ac31527993e677f0d927879ad49c627f2570720349e2c7b6d4ed5e9745857dde9e075bfef2dede7846200009b565b6201c2c661ad408801357f207f43efb17930a302487c8d803294372db8fe468ffe842ad254c613a24bf7da7f1513cc1e1411f01b1bedd610516bd07717ee7ccfe716cc4490ee170f8d6aab66846200009b565b6201c31961ad608801357f193c45bb6207571f623526ebad4c15c9e043ebe0831d2b7bda2e719e483996747f05a2a2e5ffd85ad4da44c01d878527904d166a9e25ed02101d0d1ae0382a4c15846200009b565b6201c36c61ad808801357f0883ddb7dbe314acb9191cd18347bc1883c248b60858ee2efb6ced2bc7aebb1b7f020e53ac8bbb64bb7a3dd0d8800928f091c349c5e9834f649fa6ba7892ab540f846200009b565b6201c3bf61ada08801357f155d5babeb81c0516a2b0af87d6bcf81098723a63d3afdce84fef7fe547258f47f11768f38259a9ef163d27574f4a497399cd0cf2e81d7a6ef9a6ff187447c1de2846200009b565b6201c41261adc08801357f1a0fe0db5e52c17096d433a33642d52b588b9e16e97eb5b4f6af422dc5159e5a7f1f76ad3948f36882d41d9db1ac9783983c9110deb038d0c9b0c1adef0377c35f846200009b565b6201c46561ade08801357f2ae109646c1dc8f3b37f898b941c806df067afca57c80a31a78d6e815ca3a8db7f1e36981f8b147b05ea763bbb2d42b0d726bd3a42c4c82e8986e12fc1d9345c8a846200009b565b6201c4b861ae008801357f158d976e503da74ff85b72af44b3089b1feebeea8b120cdb0a61ef9dabe0597c7f2d885892b95ab56f5b32e58b33ae3e7b608495dd7ba87569601708793c641809846200009b565b6201c50b61ae208801357f068fbcdc2bd5b6685599be3c148ff0cecfc8ef01afed1c2929c3890ec98c04907f020247cafbffedef36150c74b0d4bbc60000243860a191b67cc0c12fe7dea0f5846200009b565b6201c55e61ae408801357f16f5ee3ca396f28a1349a83f9bbeb066405a25b8e4531a4a8c346ea6c86be3dc7f1c2d350f1d9b08384966df8bd2c341c009ccfd5f5fda8c633b8ff416e6bf11ec846200009b565b6201c5b161ae608801357f047c9cdf9d3cd1f6d1621d3823fd70ad58c55009323e1ee3e04ae771910cbeee7f091a406e095a2697205039757f3ec3d8e2e3fc16bda1a1fee8a058a43f205f02846200009b565b6201c60461ae808801357f2f8932fc5f6a036fc530bf2190dfa478e8af6fbfc4c6ad27ea1b06f45dde61877f249a810e372eb352f62fe27c69c54b0f73221d2ea9d3e5c873761279a35e65d0846200009b565b6201c65761aea08801357f16b154151e8f08057e51ac3eccc9f3e403417ac7d53ff9d66aca9c087c73ba517f1490b368e4ab5d966b146d519c02f95372fbca6d9bcac4e89fd56ef758192406846200009b565b6201c6aa61aec08801357f07cee6ba005025744b8721812055f8f1f659cf3cbd4b38b55fe2b07aa64ebef77f1bef2fb91a8fe880513cc1d7cbe55865c6518a94ef0e7c0010e3d78925c2c9aa846200009b565b6201c6fd61aee08801357f2c9fef2ec6919b5ec2f9af0e436bffeb7a0281c44d17920c000fca9fda21065d7f181404334946e5e66e1334496d9500bd2f0eaa484bdc11963050cd13ea477d08846200009b565b6201c75061af008801357f14a2a53cb963041606ec53ba38af5c33cef8b1883ffbe17e3b4ca24c6eacfff97f160e6a865badd30834578927bdb4ef428b34fe12f06c099c45e5517c35ba8c4c846200009b565b6201c7a361af208801357f03c9594997536a70324db86910af1a1068edb453d59860d4bd0a4850bfb9c8cc7f290c783565bb03b4e48832e959da920c9c4787e3ce76eff971dc803116116d2b846200009b565b6201c7f661af408801357f1adc25e287bd32c7d19378fd4dc4fa8c0392fbe0d040b33d026891d50a1e31c97f049ba28d45521ddec2272acdd2a9fc1eb713f78a93b9db74c664a83e763c3a8a846200009b565b6201c84961af608801357f136f0d56d64bdec0748f165ce18aa97eea72c911231fa45e7f3c05b28eda360c7f207ebbab71303f3567dc810b8f87804917e3466866f39fb8097694abf3e7b60b846200009b565b6201c89c61af808801357f0d013299b3ec0c3fa0a1f52728ff06f92e50736fbd75355a48f9fd8b71b75fbb7f29872662bb28574f5a3e42099a100e3bd0fe51e84353d80639ae66e02f3615cb846200009b565b6201c8ef61afa08801357f1290539a331c3f6533b377e113281333e4e42f9d2ab722a79c66daf4ab90e6ac7f2f475804bec59c8d61a4b7e2cb52e6f622bfff5dad702374279eeecd9c09811e846200009b565b6201c94261afc08801357f214fc47f052d00a28a2a32ad7b5874071375d319481bf82063683640fee268717f05332bbc19db30f96892701b3ce5cd6ceb353587dabe4783b7e2d4d3893463e8846200009b565b6201c99561afe08801357f151409d6bff48335ce549b8b0fa81ece749962636df32e98d4bcf0a3e00b49e07f268d0aafe4ffe15d336b4dde591219acfcd4d4ea45db5fbc45f93f98e7134abf846200009b565b6201c9e861b0008801357f199be7b73de050557c7869e9e1ea5e04cfe6e30d29b4cd7354b53583cbbd267a7f1f3c3aa16806e802a94217db25ff12f5a088c077e1eed37e810b8a0ea6f08359846200009b565b6201ca3b61b0208801357f215ac246aed35aa31ee4e0b8da53c1bf66b5e20261f7d2038eb430d936adec007f103f209b91c198143d3326ca1c0db5472fff70f8b4a4014d19b0a5ea3b065197846200009b565b6201ca8e61b0408801357f1b8b7fc2c7c5cfc57f4c4a35aea89f7338085d518d141894c22cb32b89f3a4a37f033ca3d6df608b312e7686ed610dea6d55fc62f6c1a8f7f0cf55f8cd9966e944846200009b565b6201cae161b0608801357f109c1290fe0a31394408c9f6589999375ad872d85af6e8875e47c6f03ebadbd37f03f0e370afb2a1a508a3a0dfd2c4ba0611db946791e09d55bed9aed256a54728846200009b565b6201cb3461b0808801357f1f055404d0fc2ab6640c8670a338c913b0b73d0bc93696fc1955bcf3e9861d6f7f0e5451b0017d438d5b71cbacf6e08074f6886114f422c259f7acd1bb17f0a476846200009b565b6201cb8761b0a08801357f2053c2e4dee26283f19c5502b96fde5afb194de793bd334622e943726b91ae4c7f16f9e8998e2b6e97dae21b18d0197dac98182963b53aaf3a6e33601541e8a16f846200009b565b6201cbda61b0c08801357f16d33e4817020af2548b6da9bd8bbb79d1726ba8e0a6bff5bf571b24bb75bd547f157241d77bd9b01647d55f4d966850b9f773c23636ec2fbec4e5346d08631708846200009b565b6201cc2d61b0e08801357f0144e4cec168d731d1a9f1b4146dfd90a7cab1640369fb8731e79851abc3a5007f213f335430ff9fe5121363cedced9b1fa19ceff439b7c5c714ca11c7d161c4d7846200009b565b6201cc8061b1008801357f217047980a719f71ad123426e1ba9dc3c70c9ff3b84907a95074d582836864d27f0678f91da06ea627ea47c2abe09c7ffbcecb235c1fc8acd3a76adefa79b21ff3846200009b565b6201ccd361b1208801357f112ff80cc2854e31c60590948b4d9db71053cf1b1febe46b75432ee0b724a01b7f287a91a33bcafab1c7afec01d3bc293968ec7ff2ef9ca4f5c381d42f23921d3d846200009b565b6201cd2661b1408801357f091c09e5039cc1f0785b4267c7e762d799967357be4d993c77f94e42990ea05b7f24ff112bb7b3d266915bfa588d91b76cb023d1c7fc989faa34dfa414df8c509c846200009b565b6201cd7961b1608801357f2f9f042a535417d085815d67ead5ca269d85b553190324a1bbaec8ceaaeadb217f261f7bc7c1c7fc0582c907a8d57ea3fa494247e69009f1a39385ebd6c8a6e848846200009b565b6201cdcc61b1808801357f01606693034d3d33e24a3d6e15165dca1f297255e986aca1fdedcb6cfb39b69d7f0ce63fdaf645e1de563adbfb04605620172b59ca76d78d3392a4361bae015125846200009b565b6201ce1f61b1a08801357f023f5f146e58bbdf221e19ea4036045348c1177e8018437e65d29fcb957abbcd7f05fbe8c3e150e6d3e6a10139047de2ca14271750117166ba940da96d371a2b89846200009b565b6201ce7261b1c08801357f0621b842a02df0fdf6bfd58506adced95b22e145ccf14f02c9f182b87aa9c4ac7f2c2087aae7e8c81f8b0648828b892df97ab711ba094c7004908f56985f7b91d2846200009b565b6201cec561b1e08801357f279833f68bb2e589b01e9b525f7f706775cbba68d49eb9c0bfb910879a61644b7f2ceee43269d4329941c34fb17d35530dcab3b90986ccce9a2d53c73d4267bfc3846200009b565b6201cf1861b2008801357f2172c9ae8be96b6951b83214003cf91b999735155c2e6da87a96f5e1facb72dd7f065bf01b4ef760a2cc3a6655f7865f7b0915f33df211e8a546652ef9c74efdea846200009b565b6201cf6b61b2208801357f17eee33576ccfe2c2847d76c85f1082e63fda3e8c0ee7c20bbe99526019ef2ac7f0d649b79cf13ae30f275717c40652b62a55f832bdd09b02dc87983e53a4b937e846200009b565b6201cfbd61b2408801357f0733ed8a880a3d0e3571cbca46bf239d8d2ad3f1c8b47dfd063acd38bb75766c7e46ce2d505402d70ea238bae9b65aaf1231f0543038871a8f78e46b1e2bb22a846200009b565b6201d01061b2608801357f2deff0ea11b6fd57dde1a1468a63fd1647008b1b10a597e4f9b58c17199737247f1ce3ec538732fe159888cdd8774dad7fd102029ad32d5e755d49c5f9ac59c3a5846200009b565b6201d06361b2808801357f20c264fedac43b000d34fda62e8caef1f900a2f7802d6c3bcf7a77d74b2022d07f15950be3f4a31283e34f5a7311724355196de18092ceadddc6d4b616372b13f5846200009b565b6201d0b661b2a08801357f033e991c955d6c5edd30edd28ad0704de9bb59de391bcd16bd98725f9cc271867f04a6cea37b0aafe509569a82d87e314af016f84d2e8cb0ccabf246507b0750d0846200009b565b6201d10961b2c08801357f023eb05c5a6b8422a6016ffa226fde78ee9a40b508c5a5c2105dd58d9fdce0aa7f11c18a1841686516ab28fcd309e4fcf4ac55b3c30e854fc6bf9df713c6d9b46f846200009b565b6201d15c61b2e08801357f1f55b09f714c26b07164d81b30018f3a74d1f9bc4b721b24fd9fb1aacbba4dd67f2d459d440d33c59be9d69c6891e0df0e0e403df117f35d8896a90c2cf85cc526846200009b565b6201d1af61b3008801357f1123cbefe52adf92a2c8f9e225e1bf3649dcfe4beca3ca4053ee528a2767f29a7f29d6311e2e8b87f3c0f8a8856cea4f63ae55ec1c48df644598d5ce0d8483323d846200009b565b6201d20161b3208801357f1608cf9f4c04051fcadbe9577dd3e063ee82c6e6c90bc8a220b6c81632287bad7e9d4974d919573aeded1ba924d622209b6e639df0ed549b8a11a87723f0a1f7846200009b565b6201d25461b3408801357f1be48b704688068e96411cf22bf54ebc3c351687185538d8c2b3b271812717617f2990bf1c3b26b1a183ec8589af06382c7946dafe4e40fc51f3a93f9713bc0712846200009b565b6201d2a761b3608801357f158b3313b7e3c35e7e3b41d886438261ebc5ad630c69fbda5232c14315baa0b27f22c4f2529d16b15cc4cfb8385565146a08386e20d8edf678ad7f7990475dbd0c846200009b565b6201d2fa61b3808801357f29a5a5aa75865beac10470d3aaad4906ed8ac07af3f5bdd702552c2cf019a3ef7f03e850d3bedda344f79792802647af996242248de7dd9392bd1e247c06bff7c3846200009b565b6201d34d61b3a08801357f2ac31e816721a96191d8953d522f6b94170aed1c68116c970bdda0edcc732c917f2b64656175cb39fca336356b68475a3ecb909b3db5cdfcf240c897fc0179552e846200009b565b6201d3a061b3c08801357f195b1a7ba16930b60ade1787229d7f5cf40cee0c5e70e3a1f092f3be4ab18c2e7f16c58255462abc2ea25bbcc03aca3abdad9f083d7074c6d04031869b72fa8d0d846200009b565b6201d3f361b3e08801357f13fb35f6e0dd860933f1a38f4056485820df319d7b3e433e0e6d2f1e555b35127f0fb02f7e5c446abd90cc6a021ca862d012aaa0cdd0ed785975fdccd8df3e14f6846200009b565b6201d44661b4008801357f203154463d056f234a1f84a218e8d6eb42f46d00e02a42b635a33f8950304c447f2ec3d58b4a49d0ff042f1610511d5040a15be8d52a65219a4c24c2db3e0c2651846200009b565b6201d49961b4208801357f220d8de94e495c0022c2a787df78a58818e34883925a6ae314b25c6b43f2f9d47f03e0f0b0a9fd5613cd383bff3884cc34e4edb6de07de6e432a571a1bcfe1d014846200009b565b6201d4ec61b4408801357f155e7e079a0e35b42f5a4bc33d8811df63804be8cd1c3b935d0ad6ef8ea95c037f21974dd2071c6c7f64ab84c0ef4028f883f2f2b75d3b8229ffeacadf7a7546df846200009b565b6201d53f61b4608801357f08c858488af394abc05e27326416e37a504c7e56199bb96ab8a4b8ba9df39c4b7f14c156820dab4a13987b83b46516fd0242efb35f1c59672eb48a98fdebd7b68e846200009b565b6201d59161b4808801357f02f099036ef0266138311eefd9630e9b9937dad093d48bdbf42c7e3f90aeb02d7ecc03e2d86d7bc39d717ca221a3b90eba3243d4ff12d14e91d5f191df9d1d4d846200009b565b6201d5e461b4a08801357f103ec8571dd0f8b9b858170a7c1d15e365dbc3e58882baa0c28c8c28654983397f03d3121b77781cc8927bf400b4b1cfc31b0d6c70d4b3530c04d9d8fb43b1d0ae846200009b565b6201d63761b4c08801357f01c5c32ac5591c75d7d6154c6327292b53be368585637d0b627d14988560d8ac7f2eb48706491e862eeaa5fffc54f648f54b20e128977e8e6c997732bccb5590a9846200009b565b6201d68a61b4e08801357f21aa616b41877872af504b72baf14088d532ea0fbe80828131021624e07c728c7f2d4887b2d9f431c077ebe9b8738364fb343cd00789b7662ac23a4940e2450e8c846200009b565b6201d6dd61b5008801357f28243beeb1fa40622b5226d43700bf198873dde54a8bab3d073dcd45f049eb097f2e47278c5506ab9ddae404ccef21cb19bb133dc392252a467f3e9113930a9c43846200009b565b6201d73061b5208801357f09156610e7ee3265cbefafff8ac2aca898b482ceb56115de2b0ef91b6475eb2c7f1b2d348a96b11076f31c43d6e79c23edbcc4aecac894eb78313000a6d7e54de9846200009b565b6201d78361b5408801357f0a9a69b888739077d0707602ccd81133896c01706759b29aa1b3c6e0a21569fa7f0fc987436bc8808df6fc01c88b16c2dd62e399990a7475bb6cf69077c79cf840846200009b565b6201d7d661b5608801357f24411303934da16b093cbd5dfbf076ff1eda2c2661fdf6e035dfa2fecc754c997f19da9d9671ed57576cdb3e7ec4eeb3016672bc64f234514bbc08948e48ebec22846200009b565b6201d82961b5808801357f27700ade71162810ad9bf000b99de3d2fe2cbef24e4a2d60ed735b17c929c9527f0f3bc765a95555d536f17643e19f8ae869ca1e1f0114040a1989f3e02f73ec41846200009b565b6201d87c61b5a08801357f2bf23b02dc476735131342a9c6941b5086af3ed2fdd63024908878db9a2f858c7f1a1b666835d754925c3a004082b37271200a16987b0c53a00db316922497c8b2846200009b565b6201d8cf61b5c08801357f1bff5520440529ccdac97eb3aa2641293bd140113754386d28c012d33a6768387f0fce8b94561a8e94c3a959d51ea38017b1ebb5bdddba911a7e54f28f8174f546846200009b565b6201d92161b5e08801357ea31780932882753aa79493d6684bbc97ff3748325def1c3f20c11bf09b8a917f2c40d04ec446a4a37e1c91b9f6b819659d8cbcf15538efb486f0059be251808b846200009b565b6201d97461b6008801357f2132f801790577163e40df086fc0c3f440d53d0286ffd128d35038454c1ce8327f2d4cdce789dd760720508224dc18a573f701cf2387580127249ad531ee2797da846200009b565b6201d9c761b6208801357f1fe4aaa87353324112937eb5eb9ed0dbb76ac175cbc220d97326e02db12cb13d7f1fd2be6653b9944dc1aa64defbedce0c9817b0a1b486a60a466d7b767963b747846200009b565b6201da1a61b6408801357f2a0ef98a0a98d3d35a4b8024bdc2e45776edb52800a9b59fe2bfba53b9c39df67f2a37f0d48092704ac00ce060000a08d24757930b3bd97c7470d21c88b742f2f5846200009b565b6201da6d61b6608801357f131a034404fb2f28731e7bd5243fca32567cd2701cec52975cf5542a6b34dff07f2474f00747f510f3ee0c3793b9844dda26cf31a8a970f3bf28e101bf0d307e76846200009b565b6201dac061b6808801357f11eb34950faaa95113687c58548ec976a27db3fca90bb2ac0267b72fc4a9e0677f03a185ff05c5ddca05eea8571d9f3f67f1a54fe28c9979a9a46371681d9c40e8846200009b565b6201db1361b6a08801357f1726206a895a6d2390bccca8514d39b73dbff1376e04578d19c73fe38eb358507f10c3029944cdd278a779cf99773b02e5f276c0241ada29edc70cef99230bd79c846200009b565b6201db6661b6c08801357f0dfbe690a598c26f3fbdad61f5481044b03441ff13f9266eef3b2cf8c639f51d7f0eed2296329f87028bb0b555253eab065cb2d938206288d156cfc0bf49626af9846200009b565b6201dbb961b6e08801357f291fbe5ea5654365b38a9cfc67571ca171d0409ae600576c2fde2f7ec5b7a9697f085fc1db38afffe135e2261f3f4651b80b11183d0e58759b47800b4e8b7a76ec846200009b565b6201dc0c61b7008801357f2b1468601164778c66007634097a0746b17af10c0d4dfd4ed6e360772f007bb07f0bafc84e14d7e4278f23987b0d898385f0ee5c79d4dc5f7e659d1027b23c852c846200009b565b6201dc5f61b7208801357f191d7ce4472c301ba4b162fe21180971117cfd29c88855b018021c5ce93479be7f27a4659bc6b33b80f474d17658f3f1b526a86246c6d6bdbf28ada8f8535e77c8846200009b565b6201dcb261b7408801357f20fcc287916b1372ec9e2c7a2f44558755798865296643d1f4d1741a79044fc57f24fd0401a0ce2238d985a842c6618f8968dc111bdd54b5accd5c91d1e5e7c99a846200009b565b6201dd0561b7608801357f17c4e33ee02c5771681d83e7008c82402e03b31ccc7d93b2c0a91d563cd79e537f20ffc6de6c85a0841e1e2c3fce6f580cc43f613ea2b0fe41101e456df2091b31846200009b565b6201dd5861b7808801357f1fbbee760ee3018ef7e289f46cb02728fb3df76b227de531dbe37ae0b1f4a4667f2bb47915ee3d76c74aedf91c9d1c55e112db8c02ceaad8499bee95b851bb873b846200009b565b6201ddab61b7a08801357f19f00cebacaf29af2694693dc74d8eba4d8f08d1f9b4bbb060c61ee09d131a057f20593ba184f49fb2da019ba70c21da853a8ba208b3a41365116cf28ead623235846200009b565b6201ddfe61b7c08801357f24e392df7a94571154a53b9bb0020c3285fe46236a72633d72f6f40e8364ee057f1c3e72f12e0c45138b56c5ff76807574eb46eef600df1760841b6f124174b295846200009b565b6201de5161b7e08801357f2cd4965f8a41cd6b7a480516734eccc34d5301fc0276bcad724bfa56a5f291cd7f219af933f57504d3262bb128ccb33ccb7710754686aa642ce4dd8b2c383a825e846200009b565b6201dea461b8008801357f134949646ee0d56a1a415f15d58618bc9ebb4cca51eb4b859ccb718ffe0bf40d7f1de26be739d7a0f7d9b752bcf87824a0214a6e9fb32764e90dde779740a83bd2846200009b565b6201def761b8208801357f07a913dcc19344481e154cccc13f3d046f57bb59ff13dc0017d6f4ad18610fda7f1d34fac4fdc11b4b650997d36ef2b17959f38d586b657f1d28384a88cec7e965846200009b565b6201df4a61b8408801357f273ac6d50c6a79b0e166fd830f990443f3d523ec8f323cf7c59a675d52a67d497f1c9457496a300d847f493f305cb44aace2301a8341f2bad5aea7e2f9c60f9690846200009b565b6201df9d61b8608801357f234b2975f6db68e5f8fead3f303a18a3afea601a0f846c69a64151f359f937d77f1913a70ae56c186e2743e24720a8a303db3c1fd2a72319799fa6257bccc6cd1f846200009b565b6201dff061b8808801357f121ad25b91ba553c2b9c976a935048a3aa1ab7b3b2e85062f3099bced32476f07f21d153f617603b6ebf1ab40e821b02e55af5ae1ec59548ca65b5eae09bf1c11e846200009b565b6201e04361b8a08801357f0c5aac63f691fae9b2417723b38e1084e0485773947de6ed3108fae7894b3bfc7f0b9388dd83a07e283a607071472b41bdd5b877a202c8221fce4119aa8c3d4302846200009b565b6201e09661b8c08801357f0da1a7527f0ca4eb6263f0f04035f7c9f9debe703281bc89753f04525a118aea7f2a748b9ad2cc8aee54291d3be2f455b4db323837b7f7d3605392482ad4184962846200009b565b6201e0e961b8e08801357f2f5be9ce19e175a68448f6e54c783d535e1a270b6963eab628fcd5c263b3bf587f2ac59396230343362e9f39ae079ab9a163d0b41badddc63eaab865f602def31f846200009b565b6201e13c61b9008801357f160136720a4137bdf280fef479b0da720bfa4af949b94001ef6bcdc0aecd4d1d7f05cec2752455019ba6de5d051f248d8233c329debad4f84a8850442033aba9b5846200009b565b6201e18f61b9208801357f0bfdc191b5863fb9b4bb474e1fe4c20e2c8bd2cd1a12e2e8318c7c5c3e5378a17f2d9d2ff7fd990fef3e135abab5780b1c8b3ed8369c2356c7e9fb7a9abaf393c3846200009b565b6201e1e261b9408801357f2918095f7d58a4fe0e84fd9707c9b04fe7fadf5a91dcee68ed31c438f9f735bc7f17610d603f7fc6236d84547eabee5ba5034028adef5ce45b3209da85d4fae6c3846200009b565b6201e23561b9608801357f18843a8f235f2e721fd241cd8d60e3768087e20364ec66d29b887273a795b39d7f23ae67aa08361bcb9216cdf126694d56aa006c6580b45ae21106d76f71f12f73846200009b565b6201e28861b9808801357f0eecb0d9952a080db4573e6dc80d8249ec1069110d965fed21cf6223df828dd57f03c291b238822f6b55c4880610b3e688e6847ea55f6d113bf774279ae2917da1846200009b565b6201e2db61b9a08801357f302ac6906a1a49346e6b89e2830271129b1b4f40bd59f52e1d7802ed4223dade7f0915590c2514c329dd0d74e5167b5f1903d844213a1d10f83e32b01fed6f5fb4846200009b565b6201e32e61b9c08801357f20105cea9424a60cc6645118333c0cff248c6167037c93eab0cddcfcccf729b37f0a606818534aa6f356b4b4d99960ed9a00dff77d66e78911887ec09071d2b1d0846200009b565b6201e38161b9e08801357f2511fafaabe997941e4fe32e62e27da46d0defa6a6d1a5169d10691e2657b9317f1fc0fa15b5243e4dd78a27e9f1f31e417ab98d6630fe7da4782bd8f7e2e4acf8846200009b565b6201e3d461ba008801357f1edf1ca1470f347cfac99329cdbc926c699b51dfb177e73162fda1d62a0a502e7f0c7e20fb2f4193bd4ce371e965b2aeb54f28e95d199b2e7446023dd8436ca458846200009b565b6201e42761ba208801357f20ee23aa607ae61b66c4b6f9c1eb70e13068a3ee9dfa55b0fc75b0c3d87e89747f1c92c9424f84f31fe166eca32a020d82350fbe2ad4924675af08a8796953f53e846200009b565b6201e47961ba408801357ef4f6c6af32ad84f868b1416a52e8af375538505c106af8e43bd5237f01e2647f224aac50a00916eae3099db719fc54e6a1fe407d175c016d51f5cbfdae22055b846200009b565b6201e4cc61ba608801357f24ef12032fe1e9a626846541972514daa6214a0dba3d0b63b32d1be3a61c5eb37f2862c7e26d23968cac4f02e879970d99ad3c3bb04479f2aff3384baf043047e9846200009b565b6201e51f61ba808801357f2529d55a6baf282f3ca2a43e0a96891522659dd2f45591a27b9d3053522d5a7b7f2daacc2197c807b924face3e535e766232e44bed8e32e4e5bbf400a50b00dde1846200009b565b6201e57261baa08801357f2a53978bda370c40286b7cf40dc8f00a2651949111c9ea8f528b005601842ee67f0897719ecd55607f4fe556e48f8f71ea69033b0668eb55db2f0238282a1532f5846200009b565b6201e5c561bac08801357f07f47bb36a4c96cb96b99bdee46f642223f1f7a3aff0a5f682b47b32b0c5a7d47f21f1d492f7c3ec40428066b9a6971548a4b0467cf0496a06ee573a2b42715df3846200009b565b6201e61861bae08801357f2cec9158c7a370ebc31cc6236ab17876fd1538beedbff70564f68fe7233c466c7f0894e3420435df7283e39a850e23b19cba8013c6e87b8f8c0bd3ffe59dbf25d6846200009b565b6201e66b61bb008801357f207179d043d4fb0eefd85a4ae51ea247203b176accfda63881ae34d97f128f1a7f0eae11b0259b6bb72e044a9b893d0fa2cdfae7ec53577d78f981e6a939c4e32c846200009b565b6201e6be61bb208801357f2a179c91740026bd66032a50efacf7e5c297b885203812e989c5495aaa819c1f7f234533f2911a5e84b88627a368c401d8383dabe35a450671c36a48839cd21ff3846200009b565b6201e71161bb408801357f2450a7ee672bd47765b13692bc62b06d1ece9d59053150279a4728b7bbfcdd407f1de86f9921c46b12b032dbdab2be1033f3f4a39e84b6e9992e7271d61ea898bc846200009b565b6201e76461bb608801357f094ceb8512d0460c6610aa35d47631235462b34ad3e89c938bb6fdfd8745ffea7f0a8a1271a396847f67ef8c71ea4e116ec975fd8aac411d310ce76f879bbc5c3a846200009b565b6201e7b761bb808801357f018bde492487dc07563448cc7b87b086910c35e38333b3e1a1e9e73c5ec3dbe07f27b92726a6e271c0dd24798718888e98af19a5662e0b9386addeaf10336f2d1a846200009b565b6201e80a61bba08801357f1de168237c7117ec988d0afbe94f7c23ea0f7dca855fe076084b389e642d19897f2ea2be6d9d8ad238a2fd24c661900d5f5425ad91814be0c73ecb9a992a9ec884846200009b565b6201e85d61bbc08801357f098befb02a91ca86b9fcfe1edcb3979edd28a14b672079dff2eea9c9221f65037f270a0af22fe815e31d7ef49439a14ddaf14af4194fbc5d7edeb0bdd38ed98f79846200009b565b6201e8b061bbe08801357f04e6a6a38a66a3e9ab1d00cf066103c9f70e7dbb8549be268ca9e349084bd2147f0b1cba1ea2b35d338cb2563bfc498d0bcdecfd82ef49ae990e142ce5ce85ddce846200009b565b6201e90361bc008801357f0d8cf2a34efc7b707ca08ba0c84e7127a8c6eb80ba2321f95a4a75d37c7a054b7f186c07e8d6dcf36287e4ff447105276ef8d8c14678d36b4b59feb67d199443ea846200009b565b6201e95661bc208801357f1e9a763db4c01f373948ebde884209940c5627ea97ac91f302bb76260ec53c787f1fac3cb9546f44128a7c3a941c49f87aba76b7dffe4d3d31aa0544556fff9d46846200009b565b6201e9a961bc408801357f2c6c9fac3da68ec9b279360a0b4470ee60fc4c3c374e30ca980408b3cad4bdb17f106719bb1d18e697bc70d478ebed378ba7a878c1992a2699c97fecb047fba5ef846200009b565b6201e9fc61bc608801357f0932b163ba1b823883712518e8c9483676047dc6ffb8be0ffdbaed6b919e9adf7f228c65871e7f07f453a7ad08cf86c67faff2d7ec44c7adc9655b0ebacc6fce9d846200009b565b6201ea4f61bc808801357f2b3d72f58fd2e3e6ea79e3fe0ec7d1386a88f0ae18d6e925bb1c005a8da98ccf7f2fd073df12c6c5976a727bc1545dc1e020d448bb3bd9af616459cdcd5417ec1d846200009b565b6201eaa261bca08801357f2fa2728c6f71daf468c47109e1eb855569e99b8576414fe3c062a8877638da887f02e3635adfbab6c4f87cfedda5e3a80acca403ee17803780859ea8160de381b8846200009b565b6201eaf561bcc08801357f2f282f29f0f0138fb952f61307f84a525e18fa22298e5d649d217fc2916d8cd57f272cdfa76a33139993120f7dbfdb8f009416b57bc65923ea6c315f91e361a1f9846200009b565b6201eb4861bce08801357f09ded040c151c7246618c10ae1356d478ec999155a6ab7a18f18e8e5ceccd46f7f14e3c31ede1d5d2d287f789af7c07611fd7206e7498574662bff259e4198909d846200009b565b6201eb9b61bd008801357f16e765a378fc4ed2827f0cbb9687c159a44f916215f5c00d218725ed86a4d00d7f297eebd4fd74a582307410e048f0e3b1ba014a6741a8ef14f37e443ab0b19416846200009b565b6201ebee61bd208801357f2f506b70c33a2891892dd1678d9c674405ebc6e8d1eeebbf32aa3722e2629c5b7f08c8ec6f7a5a701d77f59d4a20553c3d6360149b453eabc300b80011d47c2b56846200009b565b6201ec4161bd408801357f24155ce401257e5fd22a6de9418607170b64d8a573c1ed36a8806b63dc1c51da7f2f37215ae80f2af7d657a811d31376c94cb5d2b64f72160138465da99ab5c27b846200009b565b6201ec9461bd608801357f09fb7b203059ff995acdfcf2f302f3ac826898b832b4c2d7e34a82a838fe0fba7f0a1cdc284fa11881373f0c9bc34d72e975fee7dc2d58d52012e686e21e3b9f8f846200009b565b6201ece761bd808801357f21c4a9db90ed51e58dc3033793f97432d4ab6d0bc2ba5672299f4673f9c69f607f195298310de4c625f81b7a6f6a2e6db97bc993174afeffcd5dd9a47a15708f86846200009b565b6201ed3a61bda08801357f10162bd3ca80662ec613fb4d7950a693bf675fd3f63086bb14d2411ecff7e8af7f1cc471f1f84d86e5cd49e63c76613a95e2d8732d725bb8c7d0456895fc62702f846200009b565b6201ed8d61bdc08801357f231f81c61f5b188a3d4021d3e6a0d69d3a59ec76c8e131acf7af7815e64301767f0d860d62e8ef586a18e5997a70fa7379cb8c1f80a1197a2d8a055c49d8703461846200009b565b6201ede061bde08801357f264c0212b7a77e13b1042d8da619c5718d7f62898a79084875b6448e4ad2ed8f7f21ea78436b3580a505508148fcca490dafd896ebbb65522882ea0da0131d9bc4846200009b565b6201ee3361be008801357f082ccc0da3240c59c5f6636f65c866b95fe56895dd154a741c52cf7dd6eae0bc7f2669f21e147f48ba4b5e2759006053f08909c8a1b476baa73fad920883738c2d846200009b565b6201ee8561be208801357eee24d05c21c12c2ed57623b23aa28956c0ad30b4379d1be253a73409cd6a497f09482fc90f2a21b183316aa4036e7391c9a9950d919e46636750b544e77a8dad846200009b565b6201eed861be408801357f0b2e9598f3839895cdf8419e7b0f2762aeea05f1e5a6eb78523ee9515f833c0c7f0d317fd4a829d3dc1f85ca9d77d0d10c0e2fa422c3c1a3fe2ed85ee1b6f8f143846200009b565b6201ef2b61be608801357f08a4f851a171fb4fc2decf6c2b147590ad448131d4c1f16444d68499490579597f1b0c06fd3126173e8bcf304f89702b54874d079ca54e1a55d7c666eba6c7d65c846200009b565b6201ef7e61be808801357f1796d031e88ba8d75c39c45deccdf8ec7c6856e4c9e776087c12b1534f79bd9b7f035c0e6208f1e5b0bf56f4200d86cf6b22317aa0261da57c180d542da7d3a9fc846200009b565b6201efd161bea08801357f1e3e291c88680917e9b895419b42fc3aaf72db225541a15769c799d12b070b2f7f119b65006c94f4b605dfbeaa807eb4935fa161af425e78e0f437a0aa3412b2f8846200009b565b6201f02461bec08801357f1275b1c7ea442b7c3a7b155a407237f59f07530a9bdf900fc06d25d347ee80297f2b3d25044f735efd3f6b99e119c0f48a53c0ff990b83275552b5bf6750171c6c846200009b565b6201f07761bee08801357f298e1134a0ba10ed1b65098b7df4d9c1bcaef983059a5974495728fd6eaae7d77f267a20bb394dc628b91605f0b1cbff623461affff2d4096b34428e4a655f0d88846200009b565b6201f0ca61bf008801357f01ea859cac3638a638ee10e4476d26c92399c1c7c3b80e4ada81daa14e15e82b7f19be1de089395daff074d9ea138f7ee1cc9ce3558ab6d74ee1d26f706e82c8bf846200009b565b6201f11d61bf208801357f18618f887915c4ac433d361ff069b6ebcc8815d9be6f91c4427890c01fb664917f1c25e995e66de358c933dff0e59628110c1788514a87936de1e7202dc7d899ae846200009b565b6201f17061bf408801357f03bf8f9da5ab219de40a5c428925819c5814adf57b713802729a8b2783706d787f1510e18164c1f72db40f3264d243a97914161d9ca96375400fa2d811a2e52aa0846200009b565b6201f1c361bf608801357f1ba75b29e63bd073ef48b9c6f6d90e25d4f9e6fa1755adf5b3e35ccd07519a037f2fb5208a903cf2ac9e6be1e73d0b629b71f944114ddd399b55db8e4fbead07c5846200009b565b6201f21661bf808801357f125716915ce26aae2fd136abcfcd53b43ff9aa8b46c1715b0efd7478d16fdb7e7f129e6a3ef3d7ae77ba08e82a69fc147ac4578836cb75b5ca0fa573e26caa9e7e846200009b565b6201f26961bfa08801357f2bdaf987f4a0e315f96135844025df6721c33f2222d72eaa138a58aa9cd753b07f15cc055d2f17eb80ad24a9d61515d58b8265228e2729f4d41452b7480cd4ee1e846200009b565b6201f2bc61bfc08801357f0ba1a196f3fea6e139bbe5c4a08ce39cec493bc031272ea08dc558ef10d1395e7f153bdcd214dc31de61d989e9c7991409e5aac5b3045de139f6c8d1cb98e906e4846200009b565b6201f30f61bfe08801357f1d64ffcac86e83e2f271435316edc165d71362627353871c38c6455a01901ce37f1bd3a2c439e2f9f436e0fd545d96138167530d967db66f89511e443a633b2e8d846200009b565b6201f36261c0008801357f2beba4b7cc0a8a9f0278578b26988586539b89c0ba93e96f8a20518f4d33c9677f1856859becbb0db92f0f58a87030f4e1ad0938006b8d7f1a569b26db866b4152846200009b565b6201f3b561c0208801357f18d63e377d57048314a9b68ceb091d161fc0f55fb561b236148a5c0a46d8fb617f0517b2eaa602740e032794436d8a4feeb021befff1bc24c50b85ddff2ea84105846200009b565b6201f40861c0408801357f079e5d576de5117c0e4d22cda33c6af7d79a4339318e0bfc8c34794e3f622cc07f159de240667ca069958340a0f939b81fb0389a6afc97c3784df07a91a19418b8846200009b565b6201f45b61c0608801357f20a00e36d907d8734fc684ca39662f72be762c789447081cbe68a2abdba5da317f0b83e2d56c9b029c9ff78922f9b39aee694f1b7078ba004a075add18d3e935fa846200009b565b6201f4ae61c0808801357f09413757f24028dd2d9c4defd40b8f3baca21f6aacc717d18d3e5e2144f0f6127f203508ca9f6088681e6d6e71505e1fedf5355da9ab29e1b683d65ca780d860da846200009b565b6201f50161c0a08801357f2b9e05682dce4783782f43ad6f766869fd062a53fee919c7be156a7e07ea1cbb7f01bd2bd71e844c2cc36ed4678a0a0121619605dcc412c9c175c6be2c22a73326846200009b565b6201f55461c0c08801357f2c8390ee19f6121c00cc2458989999a0fbc88a3b09dfaee17a3ccf16d6c7381e7f1f61ffb6c13483ee0c4306910f6911b2008205aa39c25f72045e363dcbffba02846200009b565b6201f5a761c0e08801357f24827cdcf93e08d1b39d0e9dc9bef666415f2f4129515e0869b6b139f8b57aba7f1c30a9dc5db230e999d19e294ecd67c14994a65dd08695bddb7fb2ac26d51469846200009b565b6201f5fa61c1008801357f2077fc7dbf4c78b82442cef76787a7453352baf20ea244dea0efb50e014d60907f0eacd12d85f136bb628b25d7f57e99b2927d9fd039da7bd1b9fd3b532ae64c3b846200009b565b6201f64d61c1208801357f11d1719319cb87d23a9102066a561bc686360d86b26ffe7615a605730bdea51e7f0d7ebd468b06bd0af38d48d9a6cec7d3cab633ff648c4ee44989a9186020fbbb846200009b565b6201f6a061c1408801357f2e5263668bfe06fcda4e585f92386892f67dc079de22d20d0f449ed34348454c7f1b1ecf90d6aa2dd637eae9cfbfff89b934e748567e2870ef68c5015cd3a0cfdd846200009b565b6201f6f361c1608801357f1e3f6193b3f17abae5c9b3169d6bd25d0c1623bef1aa79df60e76d2384253cd57f1e25a2e255debe7eaf5e3006f8b30708cbbd6ac899592591a5a21c01b123169d846200009b565b6201f74661c1808801357f0f30f69addf56c7d0700190158f4a104138b52bc13ccafee6f2968d54c5a0c4b7f026302312a2fa7ee0a84184da9d930c24aa88622de9a70e2adca1d30d734e87b846200009b565b6201f79961c1a08801357f0a799abc5f10bccbdb40ad35cfc95a324fea61c094cf576f0e1ec5b1c7a0b3c67f1deae3055225bb57571ac87f64d97f3c15fa8831100fe33aa3a08cb1a2eddf04846200009b565b6201f7ec61c1c08801357f1bfe47255cf2e94e4f674fc2875f722a6b778e687724c9c954eb7647eacbb6457f1f544a3c4f38ce805622d114e17ccae4a3661f6b9fbd3949e1c9292764aa3b7a846200009b565b6201f83f61c1e08801357f2bdc3c009c65acbc0d52eac765e107d21dafa5940f93a2d2d1ef7e44ff6327777f2dd767db5d3fe1f5ddbfac1a50e1997a411eef7051a12bd4ef904b69d8abdd28846200009b565b6201f89261c2008801357f1ccf9a63389ff0adf41dba03ce8a18d0ba60e89edcb693cba5603e4f546687fb7f2cc17bb618a222b548785d3763ca4ce1649b5838151f5e8e2dc8dc7e6c82e2aa846200009b565b6201f8e561c2208801357f0e2910dab36f6f21a525b3d5ea2aa6dc50a1eb222eec502b3b26764f31ff83817f25411827657f9f00853aee17b850bc0ecccdfa699863fe25e38e65b0141d21f3846200009b565b6201f93861c2408801357f0a3559c9d9513192a5dcfc46cda27fec37ab6b9c8e5a5abf52931180377376457f2a329bc8ad7abcecb3dc1fd56dcd848202bcc3b70830e4cc9cdbfddda55091b8846200009b565b6201f98b61c2608801357f0ff8692fae7b5b34351ec130bd12481bbec5010ba8644ba7cfb0aa45e26abb247f1ddd8ecc22eba73c830a71c3d20a5ec418d356e6371ff22dbd671f871a57def3846200009b565b6201f9de61c2808801357f27fcbda36ece79acf979495ca95cdf19c415ca2d039bfef0a4871ea2147d22cb7f1174296aa9212e9c51e7fb48d10766c4367e026907a36c323c536c37952bdc8b846200009b565b6201fa3161c2a08801357f1a2840c859bd79c0f98d0e53e1fce647adfadc6c4bf1285ab6ccaccea5a888c97f04c9266c47ad8e75f9698223a58ecf3e4bc6e17d2e8fcc93a930530bec3e6143846200009b565b6201fa8461c2c08801357f107ff9aca23310ddc6e1479e66da2a64ff85ccd6c24cb8d2fdd99b1752a818467f223251e1faddfd4bf939c4643562f97c2dffb608039df0e26225520ab15e702f846200009b565b6201fad761c2e08801357f077dc20081f13d5c26b1a7d78527d33eb0ec344a6d83750b6cbd94fe8abdcdff7f18d4bc1412fe1aaf31756bf3834d081e9a38934d38d7fde05091336e2d257ed3846200009b565b6201fb2a61c3008801357f1321a7eb8e7525ed97e76d76ca1a439665a9dd8687cf149a24d94f6adcc17c7c7f242d849df4ec60b702595e828e33e50c9a2298236c253f01d504bb0e7e5f75ff846200009b565b6201fb7d61c3208801357f1e6cf931b5fced9453d7ad44fe0b44fc9ea9b551f20285a36af17e65a31066c27f1243d897c7461d0dd42bf53b0b05cb5f16ea95e0e4f54c6adc5d2dc513d64df1846200009b565b6201fbd061c3408801357f1f38a9f449a3712b9864960e56911f2721cc45d0dc5eed364717003aa457cc767f02861504c61d2eb3b41d7b634962657eafba9ace4e78e4a8817e1907a5393e66846200009b565b6201fc2361c3608801357f13a1b740c2cc217729ccc9bfd7f3688506f3a3e8efb57699b204774fbffe0af57f1a858dfc17246c97306917465582c4b1c5d164d95a6f21be294a04a2daec4b64846200009b565b6201fc7661c3808801357f1d7f81f5b3be7041f8c581f159eaaedaa8fd300dc93da5b31bca6a6f66fbc8497f01ce82ce31fb68dd4c5c76ede67f4e596d54f049b779c0e0dac8a7417aa3d13a846200009b565b6201fcc961c3a08801357f15899a30892dc668227bf93970ab8d4329d9e7f365b70cc42cf7cc0af9cc8ad37f1ac80b7cb2d108ce51cd8aae6db0c5b4fd567c52602f247521e5327a70090dc0846200009b565b6201fd1c61c3c08801357f0434898d750738c453d19eaaa789fed39e0ec00c01beb139f2d5cf31079370037f23a509908734c76bf4b48296c963015dfc6c8538835eadff57928f411bdb9851846200009b565b6201fd6f61c3e08801357f24b5ced90828e99b58af1cd25d1ca567ad6480c5d789879f1ed470bdf1b8e63f7f0336603ea53920bb7d891d2abc85d8a61e8e9e188edad9abaffecc4b54ff5ff7846200009b565b6201fdc261c4008801357f1be2fe2b3bd57affde2d9b2842aa7655cecc318f716e38d4c57f4fb2c9573d6f7f0443729ee6c8d75c046233dfb2b50806455f7b3a84cf3bffbed57d79c35415ac846200009b565b6201fe1561c4208801357f1673de01b017652b19703c305270056e1274981677d593068fd1713882bf2b077f1fb59746f5389dc65313efce9d13d7fad41197c471a5b0aa1defa9249b9590fd846200009b565b6201fe6861c4408801357f01540a7063a82c588cf7f94276618e90e882047ef82f94b68742146039e96fef7f0535f1d555aa8e959efd2420759596716ee5a6481eecd0cca27fbd7d519f20c2846200009b565b6201febb61c4608801357f20f67c0f8a9015381a2c0ce83d14913913a1d392ce960fe361078a0d47ed222a7f212b4bc0da5245499a9fc32c732814d43dcd241cfa2356b2b37895d8d97511e0846200009b565b6201ff0e61c4808801357f260120208b61bf419707a47418a3e6195f5368720f75ad17b9816e6140793fe37f05bf78af0a514787af6dc6e978090084775335816736e50227af2165cb46cbee846200009b565b6201ff6161c4a08801357f2fe3b379c34758057fba2a128584557aea0efc55f43ffca45b4ab6096eb4e78b7f111d21bc065b09958eb2cb7811a72a03ad66b0347b7183eb280760a56ac1272d846200009b565b6201ffb461c4c08801357f102a35956fc62f213352b5e0e9556a59b346a32e1b7a35744a52127d8da6e0207f05b74b70777240de3401c62a01639beaebecf4e4873f6413e1447ec068285d21846200009b565b6202000761c4e08801357f27daa47b70a51a74bba51c8c53cacdb6e8336f1bd1e020c49b0f6183446074f47f1ef07de84ec8cb2973bb737bb492350436274547fb37630164453f4e5e2e774a846200009b565b6202005a61c5008801357f241e2c21ed4b5aa88e2c47ae75cc4a6d2631c6c650c963d4274be438cedfed8c7f293dbc70facace54cbbe77f02f0fcdfb3380f0e0a2620578521883bb52c05ca7846200009b565b620200ad61c5208801357f05311e91ada5ce21e571f83cf7067650fabd05dc2c4b6dd4f272c367c547ea5f7f19462e683dae962cabbab6bd530d47aa28698cd58192079508e311675573dfcc846200009b565b6202010061c5408801357f256ce71b7a825d2534dc69214f4875530b653cefc5de13c477c1211dfec48a4e7f1a10a8cef92b72bb1ed70388c420cc36a7df02c5ec9b97d08851e859b49ce61c846200009b565b6202015361c5608801357f262fc4ff02994f307be8e304fafeb79f9a05014fc8613a8a888e3fc2bd35a7a57f2e3eff7254f5b8a0009576ce5bc355d8cc8be37b8728127d6cf9089ac06fc084846200009b565b620201a661c5808801357f2e084b7a0dd46344fc327385724db7933448d88537bbb6b7aa254014b540206f7f0dcbf7ab373a7803377308198744f595fa79be03624da789b7230b0fae9017ee846200009b565b620201f961c5a08801357f1f15936f2d5c9e060a12bc2d0703576861b63fc368bcc5ca3ce3662884dab1347f2b4fc4c5f32abd04b242c5d6bad788cb072b15823f32250fc2e7ed3c96bf7d58846200009b565b6202024c61c5c08801357f2c50db34e5e4deec2fd3d0529f816536c64a42c845ca191895f56a6856d56ada7f0f37a1069512bba41d2efc19adf26da0b4f170c78e9aa3d2fef0782b9cbaf296846200009b565b6202029f61c5e08801357f21df1f0ce2ab5faa7f8d4b002f9aee7dfe731d2e3622b61debdadb654186488b7f279188a8c616c9c259be9707805f59bb074792120856f57c7026e62d4e715072846200009b565b620202f261c6008801357f0157cf4c1a99618025314d20b83811d29a52a5882918081325d8628003721f727f2c5a8db38005d06bbea49156a46daff3785dab8c4becae455eddd7bf518f7bf2846200009b565b6202034561c6208801357f25c2aa8790ba3ca73c21d044234959da1ceeaca6a1204ead9b0fb6aa12df20997f030f8c9728a4153c376148c6e77f8ae5a7e5558fa973e6f76e3551e342c8f4a1846200009b565b6202039861c6408801357f26721bd17a19d0dc0754ec8fd97336c670ad291fe1ebf5bcdf0af00d64de94907f19bca54cecf8d92d709daf9838075c70471c380b4cce266dd8d750d5a5209b04846200009b565b620203eb61c6608801357f24c7bef8e0cf5bc1202f60f39838bb304596ec46c5c4b883fd1b7a4270d634e97f077bb4a9d5d5903d05de3c0ce8db39e1da0e4b21a380a42f1f6fff166ec64f56846200009b565b6202043e61c6808801357f09e3a57ebc55a64f021e33610aee7e9e60d885ed5912f66bdc999a21b37b72747f28b2f35560629cf715a086684435adc0a06d7c7ed50ae70467a2f3ff78af74ec846200009b565b6202049161c6a08801357f2785b2bd551c609ae7fed5b47d574f31f05808c1cfd46f77eb3fe05b3afe2cfe7f246a549adc4c21631422f32835ea0819773b06e24a91280e7743410114dae1c1846200009b565b620204e461c6c08801357f2d55018c9894a399b8a3f1a9e0b1134b412245d7d5929b67d845246e57ac8bf57f0889a05ce3a201853c62ac02919b4150d908b9122fda35f6fb1d675dfb995de5846200009b565b6202053661c6e08801357f26317688ae17ce561577f570dd555f5954892c999e12a5840e171e14354345817ed29b15a7d3662988860372ef73259afbd2dcb29b2be7d41daf8faeb17b7301846200009b565b6202058961c7008801357f06d553a5e10ecbc43cf4475f5825ce362e1c97d62394a4f81d5ff190dba9ae687f1e957ba456a961f9911ff50233518dcc795ab4051c3bb460e3359ca06b78359c846200009b565b620205dc61c7208801357f2c5d4a9ab642c52f52cd92c5dd8cc4964610ed5df9ca5242e8019766cb94d4cc7f159c78be8f23ba9ef0cbee7252a8566e28ad0ae694e74e677169a2162f97e5e5846200009b565b6202062f61c7408801357f0d2233903463f7a0a76098cf9f64fff76e5fe2f4220f11fe76ef36e4b79223557f15a3ee8172b51127a17f33f43beb29038c818b476c269339542d20aef04f20d6846200009b565b6202068261c7608801357f196706aa793a2b28a2af80861326b291d3380fc1687858bd36c1dc89a8205dd77f07f87f3a124e9611187b9d4930160ad6e78eba7260effde57adc05af9428e075846200009b565b620206d561c7808801357f2f3ad7d0279ce466ce7485fb6eda5155cf27e272ec8ca1fc90d452e01c9052bc7f24013d1a0d983b751424ba3d22959a04eb87d10e589b22b9550befffc8d89185846200009b565b6202072861c7a08801357f056c90caec8b9ae918c6f6f2c5a1503c20172248e8bf8b461ce2aefc418b5fce7f1fc70154e82cf9d26b92b021ca500d8901f44122af57ca41aacf30a32ca98941846200009b565b6202077b61c7c08801357f25caa8f1d008dc24052a85dd932ff3d0f30416a16479c18437010cf8b7b1ce337f0474b0421bd13ea2534f3091f27acdb6cf1154fb17e288858e3c398b5bf3738e846200009b565b620207ce61c7e08801357f2332a03350732a73ad8e1ee900b693374fc014d6d6f4eeb0c1dcf056423b2f6b7f26b6079550ee71c0d34ad316b823a4bbf45f1848c465ae68086434f84e96e096846200009b565b6202082161c8008801357f2e443448516c3bd6ca5f719b266e612c1152dd181ee9b0ba2df261b59875437a7f18f4b09ad5c46943535acb800e9d508daf8c0c4fed16e5cd1b61d294623cf33a846200009b565b6202087461c8208801357f156c54817e3db38a7dd3f40e582616f549d1c80a753ed6b435994f17b903cd627f13dd9f7769e0a3e65d634ee42ef757d328e2fc10c9de8c55857fd8055b28cba7846200009b565b620208c661c8408801357f16d037fe18a60d8670090367408edb2cb20f94afa1b7f60f6a16f8cbff91b0467e9ce8108cd71f3dc93bc364089f718af4bca3186a4e2c80b1162698e327e66c846200009b565b6202091961c8608801357f105981b12d5e86c852fbcbdc09c362db005e7449d1b2dc6efc351c56606c4ba77f2d000b871ec7af87513d69f6ea29fd61c3f6dd74890dc60129f974a59299bc77846200009b565b6202096c61c8808801357f153631a32ebe4918dfb7fee432696d3b1dd008d9bad910981fc0da8da7f2bf457f1e27a49b63e515012eb004d6c6542d27c0748f5e325c932b944d890bb85fe705846200009b565b620209bf61c8a08801357f2e95740c8097f00a6ae6e07db66c3c0500d4fdfb7e46fe4a2f4741c3a9665d397f18946852daac7fc399855ae074b99ba413f7ca042d73a8c6631814488a7310b6846200009b565b62020a1261c8c08801357f22ee74e0400514cfdce5547585dda880518e63cb19fa845d63b68061c4544dc37f22fd73fc86dfc4f0d2ff50674b6246040728c85f8a9ffead5adb6993e46f368e846200009b565b62020a6561c8e08801357f10d0154676c00cd1ee68c03ea0f04a5215588f41fa548bfb3a4ca1c5e183172e7f18c1840518a09c6d19cc6544667e5f4dc568163f3e804e31bccb1e13f50ada28846200009b565b62020ab761c9008801357f151cb557b62a6cfcafbb344748c3ac6390602377a773cf4b7e0a664e6c642bad7e8de225d80be63c53b5e20620a8d8ae8c37555308b02fb597ffd84de5736163846200009b565b62020b0a61c9208801357f12250cfb99b606df9145ea6289bd2385157ce5a1fff711864d780ec06402556b7f17e96d2effe9f37525214e1bb1be444169982daacee891dcfa4be1355e04ddfe846200009b565b62020b5d61c9408801357f193c89190b8915a4eb33b6a7ef547036086211aa6b993162485182f5a46501537f1e4aeb88cfed4bf15617e7e8054be423a5a6bcd91d53664d91620da89fba50d0846200009b565b62020bb061c9608801357f14f5fdf1132cde07d5efd2c713ab87044f3c3a38a13c4c495acef51b4ced57e57f27449e0b5821f618157fd7f522956efa5a4f09e39735361c4ff4b59b87d2c3c5846200009b565b62020c0361c9808801357f07c49cb265f5e2c1d5ba726efd65c8a097a69585aad478943be2394777a3e66b7f1ab4240776b5ef9ccb3293300d39c6caf32440a87424d15602feecf0df8a8f0b846200009b565b62020c5661c9a08801357f0bb03bac119ab49e0c09ddefdd4f3327e859c8072713b319476f617185aa6a147f272ac88ba247221c7570157629635f6886ed1a0c8880ba8fe9659c9aecdc8ba9846200009b565b62020ca961c9c08801357f19bc4e533ba9a52b5cd93f6e151619743b1bc3c17b93209a21053c63c0a46a7a7f133332491bbb391f35fdb1d3068ce4a4c47225ad64533a618e5fdbf271532e53846200009b565b62020cfc61c9e08801357f23bd05a6eca403e924cc2819325976bc0325eb2e9a2209c354b8c0f6119e38217f1daa621674b6f4ad32425fcea950c182172fdbbe15b928ef63ce33bd2e78e556846200009b565b62020d4f61ca008801357f2f9d0b16b43bba4024cab870da0e6f135d139be959f7d798935bc4ecd3386faa7f1f48c3cc02a7afa8be3a37144afd7894f25323d1edfc6a79c1c65527198684e0846200009b565b62020da261ca208801357f19ee1580386044ca7236e8bc773a189f51227a2d42108307f5c3fe6e7b9580347f068e0479a90bc80c80da8500722b00a60b98c91b5fd92841a3bd5ec6210c85eb846200009b565b62020df461ca408801357ea29a8363a9b6de0550fc858e741cd6cc95c340cecc1e3660fc8edd5e49ed827f2b854bdc6ef23eccaa645526f9bb6830edfe74d2ceae2b73d0c6d25afdb1a554846200009b565b62020e4761ca608801357f22b3dfda0069869fd17859a93774754f4b0acdf8f5105d9b785590444920c94d7f2f11b26c6b9990801db2c0bf6a4119f37d1ebd000c2cdda17689eb1ad88aa213846200009b565b62020e9a61ca808801357f2d780bc275da0ed9e93fc4091501690d94c82647360c042a0c346ab2609292fa7f036b19421338570ef95bd08df9414d7f2d6ae83a59ea225f5232892d53b86cef846200009b565b62020eed61caa08801357f0731cdab6484e51153ed51f1803ceb8765017443b6487f009217ff69a631948e7f0f4034567bee31f1a04f042dc76cbd21952619aa70617c630a26af97eea8ae91846200009b565b62020f4061cac08801357f09095a37552baa55f9351611a31677215d7a9ee8f164658c6497c8ce4ae8cd047f11e2b2941b9f6cd4357301e0138256cd17497afebd4ea52b448c1bd15e82bafc846200009b565b62020f9361cae08801357f0957bded312be30819c152bcccd159a13a3e2df9e30fc0a983f837254e1f237a7f300fb8f1101c80cc6f22884e207deecc233c0270f5e20247de83e65ada9b4f13846200009b565b62020fe661cb008801357f136cc9767c542bcfddf0cc8271b3db971397b74460a6e0dfcc05c6b3c2281a747f2b0a2a0bf2bf9d4ba2af94ff313e28a4c86b7dba5d99843aad7b14e886bfac02846200009b565b6202103961cb208801357f1224c6cf185409e672547ada10b61cc0fa17c580b240e19ca9269edf3f730aad7f01adc216fa733158f7783783273568e89cb8e7139c85a25307b197474624b3bf846200009b565b6202108c61cb408801357f05981b06b8b9c49cd85d9f30352a076492968a8dd1ca07dfef1f917c10952a587f06bbb08e374fca2cc06bad72b5cf9e3ded124ca396cfef152a73dfb64c2aa923846200009b565b620210df61cb608801357f1e3468588bf225e885051591264dad8359acc0490df2f7fb9c61cdf3a43f09d77f1b0aa9ebec585ba41749e37e68ff95da1bf34c5f03d6d390c46eb858bae63f5a846200009b565b6202113261cb808801357f01eb457111f23cf4895f97ddc66b98c1157d6c70ffb681ebd84dc1f2b48e1e717f2fce0b3e162fd644e0d973c6ead8c2d3c38a78038521c631d93e85fcd8c09433846200009b565b6202118561cba08801357f123b0a3b17e0d7cfb145cdbe8c0ae5b9201c2b5998675c392188f6d60ddea10e7f072b103bf00eae6d60afc1fa067fc2c893820f231d0b53acbfa16f6ef18f9c37846200009b565b620211d861cbc08801357f0a34ccf4fc1c131821c83d0112484679860fac3c1211a93e518f8667f73910d57f206c847f552562f6824daebfba78fd4853ec458b442e4f23833e6474362185f8846200009b565b6202122b61cbe08801357f29f29576eaa154e10fa7751888ae6310fda62825cf31741ef66b74e2b465946c7f1df2aa6b35c9c8e66c4574025cc60a63e6d4188584b984a665a4b43d42989117846200009b565b6202127e61cc008801357f2c8ed06c140ddf278c29226d467c74c764c9501cc9bfd0ebf7c6f31e6e4abd6c7f15868ec68ed0624f8fada7ccbf83ecf10dcfae4679a958824a76f43bac1a2cc3846200009b565b620212d161cc208801357f18c4fcd0aa6b2febd3a416d78cffb205d6eaf864a84a6b692cbd49633717c2127f1436a02f9307dc95cac2da1a2bd653a82d2b4e7641299490e47277c1b6b8fb30846200009b565b6202132461cc408801357f2aa0f6302d8d2449d02cc8eacf2258605ba45d642bdbad2c0b365712bdc68ecd7f12580cfb6a81f2b9ea5a3441ec7a826ffbbc52359c387a7a6bc7619c2905824b846200009b565b6202137761cc608801357f16daf77196999aedec84f0fc37bf7ec5e81e451b6814335b1a4c7d4b2ca668767f0bbd5cf82b023099f0fea7f42c19fddbe4a26821c17b1d6215495552e26a43a6846200009b565b620213ca61cc808801357f0ec21bdbba469bdf9006f1c284a3fa04834beca4834ccd7056beb03b19e531a47f116bd23df5213788c5588713869a4b8ba229f9f7bab385604198207305fc6ebd846200009b565b6202141d61cca08801357f24a2ebed84575fdeb04a16f9af904b14480e4580827bd6f575b747f85d1def547f1329c4c636843f7f869602fb06a2e761791b0fb58d0988a86176f2684e6239f7846200009b565b6202147061ccc08801357f2b4708740f3618c2476feca7c9c43d1ff8559b75aeef97edee25de7284634fb37f10f5e8d6aae57f0cd0b71a686ca7ad52bfb01cb0a9914655d319ec9b5d1fcae2846200009b565b620214c361cce08801357f0213222747e262a791635392cf9470de59b0364794b6d45b2b1a6a5aa6a0b40b7f090c9e3f1490d5998c5c65751bc1a757ddbd8b293daa98cec9b2f421e31a2bd7846200009b565b6202151661cd008801357f2b1c62f5db7308f32231e1f269a63a000748c9c5059d37c71e8bbc02f6880fd67f1540efa553c275832425d8aae33e974a6d6de97713d751a95bb3b42aaa24b391846200009b565b6202156961cd208801357f1178f851f228709db59b06d222b5e5945ae560757058189d06f7033e77cc59f47f1a67a6ff2b797aba3f4cc511f8b85bdc626b7cd9c10c8de927bfa3f5fe8ea1fa846200009b565b620215bc61cd408801357f169bc6dd49f2e6a3cc77dea2092681e29989bd674971786ea639c8b13aa575467f10cf7bd054f766664d81c7b2382890938e315a11d6b9207a50ac3c8a57a72fd1846200009b565b6202160f61cd608801357f14790f9187aa7c13949248e34109c6196928128baa75d9c9e9af66d83faf5cea7f2ba9f075beb7f5bacb5ae72279ca55623e26351cf3dec4c3500a8094d9aa51fe846200009b565b6202166261cd808801357f2fdb9cbf8d125a1881ef4a6da2a617bf24a8d4a91a1f46b26567bab9730f1fa27f2c06ec598ec1f7b52c6fa5483e818f54e1348a27bbab42d49e1ba64bdcdb2f64846200009b565b620216b561cda08801357f05634f79ee778f9cfcd2064e7bb5100f0f4eb94b03ef9984bab2bf5c3405b7797f28a08de17ac7539c0659d8b15b29a78e0fd27f185f15a8f04dee168f9e6632d6846200009b565b6202170861cdc08801357f05d5ae1025c1ab07374edebf303c493d15974eab31badd7cdf14a2558fb57bb67f1fa428cd108cc1bae9da3ed53a5cd8eb8f04c60c4f486050eedd2be61fedfce2846200009b565b6202175b61cde08801357f023afe9bb2361eff6b9e30f16daaace58e0b25416bef6d8cdad8588e89ffe2407f152049efa9754fbbb83c6a564e799a32685cc0f76933364a8f145f5ab486bbc2846200009b565b620217ae61ce008801357f29d11e1f3690869d3415a5401ffa696ef4a68c74e72837c02d5735936eef39f07f20bc5b007935abebf12828351d7e230635e1fc54d0ec045f241825d3bd5e643a846200009b565b6202180161ce208801357f097fdc29b8b25a8716323fc2f007c82727473ec5edd4336bfccfb011a728b4187f0dadf79f06a7b773f25a6d0e37c6a3c8bf30fd7fa86e15ec43ca2aa13f21f417846200009b565b6202185461ce408801357f1740631bcbdb1affadd5d038fca3acaa883c818c3a8578491e6d07ac8db4ff5e7f09fff57537ab5ba14c4f4b49f3dee68a3a936155a13f1c67c859fdbfceaf089d846200009b565b620218a761ce608801357f0d45c84f23697faaefb782c1a3cf0d5f6158e6bdd8525dc11f6dfeeb770862267f2b7efcd57895026eab99cdbb85bc24a8dea78f5b1554261df4c2191d72de372a846200009b565b620218f961ce808801357e3ee04ff078aadfce356d18b5f3b3b40d656c1e32c9a4beb6ea12c052492bea7f1d8a92e0cfa5763337913f7938ad9dd4f7715466f96d2f6e3a6b80b4d5bb9163846200009b565b6202194c61cea08801357f0ccdc20be180d3ea81721c4966842bf61e33f8bae0247857dfb23733d881d0d57f063267e402ea1641ec635a905efb78d3947d80f06be8481aa47df3c9604f8323846200009b565b6202199f61cec08801357f0a5ff1ab25191be8827d6093b74a727da34b3f7f7696d424887f00b6f781092d7f129858f0c6f5f8c582c0d565d5b0c6b6424a79715c686e8602c11da5899f61c2846200009b565b620219f261cee08801357f2f39eaabc729856a971b1ba79e01218ecba713c1e5d704eb48dd648a823bf0f97f2bed55f9395f828b8bef8e85338f45ec782bef199575ec177c71abad31bb52fc846200009b565b62021a4561cf008801357f23e658572d00077df06a4ae259d67cc58df29c2e22ed80ec0cd27478859e57357f1f051519d2b02f4ec7e7606b5dff94f0983d44e27c8441912982d7ed318a54ad846200009b565b62021a9861cf208801357f034c57497919c418ef1ce234cc489a0be3381de011e8cf44ff2ac03a53c5239a7f054162a8c38d32d1f63c4390098c15375ec06747503f8f4328c339da1a2df605846200009b565b62021aeb61cf408801357f0875d19a0e2b200df30cdfc996d9f9e7648406e35f157562a3690d33eb9cb9707f09f189233375a156e19c29c631dae372538e8d3c110e4075032fffadae7ac128846200009b565b62021b3e61cf608801357f0621c84f26c23fffe50601dcf1278ef441060966594fd16ed0fe855296fb54ab7f1e1c9bfb45671b0a876533443af5497e45160660f533cab6dfcfb3afb9a0c785846200009b565b62021b9161cf808801357f0c67eb2a1438eba2ac41b54672d6dbaa2e150034645b88d2d98fe138e02193b77f21dc7e58f66bc9f6a99ec18f3ded6c8b25be7e4991202858b9a7a2e3fe412a73846200009b565b62021be461cfa08801357f012f7e5826ac7ca43a332316da42bfe0bf2d7481186916b04f9550d565f0564b7f0ca25535150ab4cf22e37d0eba48c79f4fb3f63a07af9c91bd65ab4ade725d2c846200009b565b62021c3761cfc08801357f0ca7d8c0f10bd5c65205aa51eee9dc86d6f4f850f009012285b29577a856179c7f29ecd8971944e7eee04a931a92fa9042034b650d215c926dd363ebf27ec6477e846200009b565b62021c8a61cfe08801357f0827229a42cb8449a1d1500704298d7bd965372f181a21d7722161d0f2cf2cbc7f08dc328755acd26e8631fd9d7b29639d23d9c6c6be3a1de28f68ae653984b9e1846200009b565b62021cdd61d0008801357f19eb76444a55fa23495c95c7c66ad0aa7f9a31f275caef31c9f760ec4debfafc7f11935e1cf61d540e7f0085d8dbb15ccd96fbb7e75c16d9827b26fa13d72037c1846200009b565b62021d3061d0208801357f04be200c6dffcab62030ac1081080c919ef51638948587faa4a7ac37c61e6a107f157841000e2a53002ca35324ebf4acc389720acaf53daa7600b30bbe8b924c83846200009b565b62021d8361d0408801357f0822a79bac1bcfbf8ca4fc6a88cf248c196f8b1879a04366dc3584ad3e7a9d467f07a4196515c8d45d9e15daa1516dee857e16a95b747f95fee58eea3499888fb6846200009b565b62021dd661d0608801357f19eddb268804edd5661e5d0777423d2cea61b6be0128007248788da246714df97f2e6f54249c7932434856658e4d1bd3e6e78766f7c53d63cc2f4809b6a86def6d846200009b565b62021e2861d0808801357e8762d2309ee101073601f091700d19fb59075830b7707eb08d382a01b9c6ae7f0294efd567c1a9d438fef2e01635ba8aec2b499f2d27405a1b9bc422e96fcd00846200009b565b62021e7b61d0a08801357f133b49b9fe8ad21120aff48e975fc33dabf701e036678d348142ce13fc31d1917f2c11380dc05bc3aa38c554fd7dff9e8898852b456d77a52cb11f1ed146baab29846200009b565b62021ece61d0c08801357f127056577726f65ba955aad496bfb2726960675ad422da7a316e5fcb40ca01b97f2947005a8535a68bf72e3f394624dcd7c286af7cb82d285f7d9aea9e1a6da4fe846200009b565b62021f2161d0e08801357f2feb46d00f89a8238070d8ae51d906676e282b7f78860093d38b190c7f5338977f2a07854a2f1c4a72b036a9455fd818c9ebc9d9c41837442ba2190b9f7e617f92846200009b565b62021f7461d1008801357f23fa00725641a1f0770c69bb7ede471268b63172ea677c666d4b24eaf37e7c4c7f10e70c0fdcdba4623721cdebbc7180b7b8d7ea5b294e7a00a218cf78d53215d9846200009b565b62021fc761d1208801357f05956c036ef3106a5a0ee44c980f8cc9c9f7c88f3d974e4d677545bd8b7b51ce7f1389645b9ddc117b39ccdda08e5aa23286d6a31da81042e4197107809fc39bb5846200009b565b6202201a61d1408801357f1be6791590570fcd0e569e15235290bf3277b951b8874a57b850f8beea8fdbab7f2d281165340f948270184408f6b2a294717b5f9cb45d8fda72a63022bbb787f3846200009b565b6202206d61d1608801357f076c9d543088358763da67588a4965ca58c632bca8e988d66a6e96610519faf17f13451423b8ae5af952385cb36fe1d667ef8c36cb8ce7f19ecabbb95e0bda0e04846200009b565b620220c061d1808801357f207cab5032ec79faecad748c120c1725460e2462c1f03a908241c06d5fe8c5777f142f1401349355187465d2cde43f021841b3ef8bb26fbda5a3f45ce7661ae0d1846200009b565b6202211361d1a08801357f07d20ef0a7ce30ca3927c023271bd76ec4951acf8ec69cb25b2cfdba949abf097f2e01518dff891f714ed4f6dc763bdbe11e330bb6968758682c4a50c2c86423eb846200009b565b6202216661d1c08801357f0ffba211501f6e27c1c53a08d8a33a57bebf167ceef4399dba7a4529cb380eba7f25a49dad1009f5be343427d013fccf626b9e38879e9899d03a40014c282cecf0846200009b565b620221b961d1e08801357f2f875879a1a7ef43c09b1a21c5befcb4b054fd703a44491043b0416c61bceb037f150c827c915c6229deaaf505a2520ed5ef781d539b8d7cf309f71cc7c067cff2846200009b565b6202220c61d2008801357f12cdb30787e2ff69d7e30f3ca009ebaca13a8e83cb3c3362971d359805834c4c7f0d15f5a3855659dee42d0f4ec84d5f8d0bfa545a3e3e9229241f27b449ea7b11846200009b565b6202225f61d2208801357f155743d6093b952aae3e0aaeb9534adf2631a1fed37379640a8bd12c98dcc08f7f23f690566595976a3ee32f933a73a6bc4f9483e425d797a65030df69bee2c235846200009b565b620222b261d2408801357f248129c2fbc52dbc40fda6e2c2df9186b52fc475884851daa9da9f06c32a3e9b7f2c08b938361099cbb865881302f01b900ad70818f9f48b5e4d632598d812aa50846200009b565b6202230561d2608801357f0f52fd421421113c408e54881f7b76cb7f481cadbf2c94ba72a4c1912be0d4ed7f232391f1bb3feebeee3e2513b2d254e8b317d29fd19427310856925e9a5a6d9f846200009b565b6202235861d2808801357f26edad82bec6ce42c1b1b0997f4595015b68e6acf75faacc331cd1b82e2380a07f15783aea6df628f4f20ec3ed9801df09535e0b40382b8e7dcec84e5f18bb6f9e846200009b565b620223ab61d2a08801357f1a8b0d88e3a18d853ba44157bda324a1a8c375b48b520503a3a33b7c5c2d5b977f29fb5cde9ce49ec692bce80e12f1ff7f5a0fa3f412a7a3a696de38adba69f0f0846200009b565b620223fe61d2c08801357f21707537cf5e071a80b0a7e84811e97adbfed01265f570a55d07d26c803b54767f02245ac5e3cb8e5cb49c5d9d8456682d6fecd57fc3b6a97b20f102c296f2f397846200009b565b6202245161d2e08801357f1cd76bfdaf2e45c4d61a042867826261e193a5e0b89e823c65bd966036a99bca7f0aa1bc741cb248f8b39eea7f04a892c76822420196a57ffe1ebe1ea654025376846200009b565b620224a461d3008801357f28cde5590fe30e902448d485fdcfdb957224b2e415bd17f9b85f98ac06e1f05f7f019e96656e2e3aa867d34302a4011ffd999616e6a1a361c85d3ae5c4edb07e30846200009b565b620224f761d3208801357f07fc2e22b3fa44555449d63c1137175d3ae252d6c7fedcc931a83cf2da94b8297f2d96374b4dddad5d04e1161d82d7617548b18cd580154713d79c7f4272c9b684846200009b565b6202254961d3408801357f06fe47f03b732af1b2fe72c740e55b9dd2eca6358dbde11aebce289af2d433817e9046a47fe9f5af4f573d10ac4b29df3c4e7cc2c132ad79cd33393fd94968ba846200009b565b6202259c61d3608801357f14414a6063ccb637f2deed6d62760814426cdbe5058875a883d68e0e8de580707f18e457bb9a21c026b3da52f54665ef0b735012dc2244d844c047ef24d29e25e6846200009b565b620225ef61d3808801357f1b89696e594a44d3a829160c99aaa17152c84894d83f02564f5eaa02112678337f2f723e3aa56bb979da5591edb5330e4895c8f51693b55c0d04500d4dd510bf46846200009b565b6202264261d3a08801357f0653413594c39970bd6c7d44f90285f3a0d4bd5920a6f15fd2288b1923f2d4ba7f0d85ddea198303ff96368e430ecde20ee78f5bbd8aa94880e0d5679f84e732b4846200009b565b6202269561d3c08801357f1303320e75be90ce0d34f65a8139b7bdbce05b67ebfa69d5ede18271dbaf3ba37f200e91bff5f4153e18da3b6e4517168ca72824f98417ffaebba3dcf8c1909528846200009b565b620226e861d3e08801357f1123b6ca4e5d935a5271aee0f4cc176eec47baf8c689176689420acc86e5b5bf7f0a4b563a758c4d5a32971b87fdf3189eb23d7f82fdc3e29e5d0332ec60c0572e846200009b565b6202273b61d4008801357f16d25dac74cd37f4f139b0b52160fb970ae125016488885e02ee52c4b0970a5a7f2a080cceb2502c748eaba03bd5e5bfdffb370cc3bcfbad471ebf7d402c67155f846200009b565b6202278e61d4208801357f119e130cda12815c7d5589b08a69198ec26ae7d165e480a2ec0534ba832d0f9c7f20363940eb6224c5fde760cb49b863fc7f10cef9db780c0711ab050fbce5a48d846200009b565b620227e161d4408801357f2b8b5f65e31564b06a85e28a36fbe5d5fb8a3ec957a932cedd9b501bf4edc63a7f2be877e822080934b12a297e489ad63efc7db87406e3b5b08ffd849b1c235c9f846200009b565b6202283461d4608801357f07c9bc90f7a6de785b5c83bf958efc9b3bbb062de94713ff4cc9b95b3d087b7b7f1495d8affa0a567a58d0405e2edded3b30e3c95afc5398267b493e3b1f041e16846200009b565b6202288761d4808801357f2a5a98d4990689f80a6866959fcfd7ac719b1fe608fb53d38b418764d3e35ca77f2869aa390be5a8fc9b0a6d32e5c7632163eba17e90c30c924004acfa84964b08846200009b565b620228da61d4a08801357f229069d206a4175e76cc94cff70058a10ae46a14c7d2f09aa1a1afb76a2404f47f1f8f25017065985b9517692dcdeb43120eab9a22a67284aa77f6800fcfc3d8da846200009b565b6202292d61d4c08801357f0221c63f274acec7a7d0b2d348f7f8930c280fb4087b8502941a89120c2f25987f28bc6c2d374034241d967192cdfdfdc9f9bf45a428e509634534ef3272642f82846200009b565b6202298061d4e08801357f170d99381e78918d1dca7e97c8ee347ea5a18f9ae48f979061547f245506cd4d7f176dbfdc22786a18716f9c9d08a04161444d800c8045c6f0214a7d3b47c8a6b4846200009b565b620229d361d5008801357f2873812406ca6193be5e9c5c10fb0383d0ee139b1d652fb08c9ef8518a298c677f200bc0b69311037b569809c55a9d56319405532296d666dcde70f904137749d6846200009b565b62022a2661d5208801357f0d678a0b3fbde6091459a95f4270212b3f663d9cd1f33adf19059f714f8c5e757f108b68b43c6794332e8e58dc0b7f18e0aacf72c9fb1fafac48444f20696cda1f846200009b565b62022a7961d5408801357f0f3c27588664aee234b20a2ff55b8134be46aa03081b594bb126fee8a900c7687f0b23d2776d8246f2c933fcda6f4bc555977daec52fad5895537d20dc9e5c26f5846200009b565b62022acc61d5608801357f0f12b89ea27d6e7e89ab006ca9b282adba0214439f408ad583472f3f8839e1d67f1aa75e5bcfb224fe95b1627af47ddcd9d291a73fbd715646b472d896f60766d0846200009b565b62022b1e61d5808801357f0a1665eec0351bc1e885629f6cf25073770374a3bf038d167493f6a5ce7ff00f7ef2aa997e47e414e882d1973ed211bc727d4ea75eab941e2f8a867f2230bc56846200009b565b62022b7161d5a08801357f03b258cb48a86ce57eed1a18027ed94f8fe65b7241f157f78d27975e54ee35787f0f45c021a84ebe438fd63a0f45fb5369acd840c538943de07e959206e0984ead846200009b565b62022bc461d5c08801357f154af41bc6ece6fa3ed93549fd76973046ed4bcb3c1fa64dcc4d39c01068a2cf7f08562822fc9c7cb23cca4e85fa0ca7665afef9d73c077892feda2d8172877af1846200009b565b62022c1761d5e08801357f24698fa8fa5d31279f653105eb4c13744ec534c421d612f711d381db793555357f0b6b237ca84dbcc9cb9ff2e8366ac62037429d940b07dc7ce9d44f88a4fd3095846200009b565b62022c6a61d6008801357f2015b5012e42d32d774b08ba1e10cdca2693337d52cb24bdc8bf9880e6fc5d557f087feb09bd75be9322c38375a7abcaa4303f7ccb7397d3bbe7f5e8129dce6bc8846200009b565b62022cbd61d6208801357f067d23de2d61fb293204595ac04fe2674cad35515c52ad4b78d4f052c3ebdf0a7f129841f2c13568bbb2e6ffe290bebe49256efc0baefd17e2c9c58ef7cd2fa922846200009b565b62022d1061d6408801357f2957638f3523af6e23a70f25635672a5c447fbc8f1d356b01566679bcb75e7e97f074f2bf6f30164ae7d13439eb5e5ea3bb4c223407349ac70143eadf8959e2799846200009b565b62022d6361d6608801357f070a36c6e0318064b1d7eefe498911ae7de791a644bf4f1acdc73cb3becec07a7f133b0e430e0380cb6edb03c2c4febcfc3e52e45c39251a053cfead4b6224e886846200009b565b62022db661d6808801357f2b51bae0c578b02d75adc0bebcc4ddee0d3a6a78980499caa38a072b3bfacc937f28867b8b4c61f28212f247698bdbc413d8e171fc4978aa73faffaecf11fbba27846200009b565b62022e0961d6a08801357f269a3dc08db800c51b298b1a4cee190fc1d94b37a0b03b161609f5d47ff3889d7f0c52f7533ffc9fca35523c5d4068c8eab125a5c4d468397dcfb2b0bd0adf6f3b846200009b565b62022e5c61d6c08801357f0d3991d48ab42b2fc383742e37c012e90d841bf8d5867aeac2290e55107088dd7f03b516da8c9ce74644d467010bc1008b2baeb3fef6556151dc67fb35d18025c0846200009b565b62022eae61d6e08801357e560e3b5335778b9f1c6a49623c4334accea48565c6632fff1ed6e0fdc7ea1b7f0ea0c4084856c6d1fccd705000c14b2b024e048ebc8b1138863661a3eabbd8bd846200009b565b62022f0161d7008801357f29c98aa87e6e2d25781a74d12bdcf4bdc715f3ea82256017d27cd9e20cd3b8e87f1ba59c9a71ac20ed1235f7bb3ff95370f07ae9226d7a2d27d1037ea7c3c1e8bb846200009b565b62022f5461d7208801357f093f1b489e5a7676674f0b43f739bf5d49235cbec2b9cb1f6454f5b5f6feb1197f1e6faf56e812677b48158ae0db321eeb8f729deb92234225c5171b3750076cdc846200009b565b62022fa761d7408801357f1de0b3535a0d04d1753b3142ed3e411caa3e93141c3ebc493318e5dfef0d9edf7f215f9296b00cbe52772bfe89ee194068344ecea91d371ff7af93e3593943d80e846200009b565b62022ffa61d7608801357f173715f0ec6f04acefdf5877d1a5e148c0e86fdcc87cce3a67f5e982beff852d7f039903064ed7fcfff75d84d1a9bf04fc23b7a307f8515f757b2def83c4e9898a846200009b565b6202304d61d7808801357f064822d4c7a15414dc33a84d17bf19ba2039a7f059f3fb253b609c07530df4ff7f13be86df10db59802273db2cf14a4978840366db338101ce0421615f96035790846200009b565b620230a061d7a08801357f25795ccf6e71058f687ba389de1845707c5c6a45154b22c165826a942242c89e7f0a42be71192ac171d5a1032e92f1f6e7fdf9440fe7deb2a8e8685da60b19e245846200009b565b620230f361d7c08801357f248da174b64d908a5f8d74ef0b655d159608b1b5beb8473c6fb3a4cfe6bce40e7f02583666cf1db261fe24f772cceb0c98d1fa1a0a940e632613b8bdaf898bbf46846200009b565b6202314561d7e08801357f04c79ac3871e8bbbe03e9a39d416eb187aff114f2156bd785107978f0d6fc15f7ece76843058a3700e65feaa266072d42c0db476b2753399c1fb50b38caa3d59846200009b565b6202319861d8008801357f0526730fec6d6ff1f3fd00d03e2e5c79e16f615ebec4a6f293c787fb79ca656e7f22398a7aef27f8f72ee22402606ec952a72481583b7426d4f685b7c4c9c35d7b846200009b565b620231eb61d8208801357f1124c4aa5d82531dda7b8d110197216307b7441afabae3c9e75d010a49c0e9087f22fcb10553fe63a68bf210dc4219bbd799058645ecfac11c798e3cdf3478b509846200009b565b6202323e61d8408801357f0b87060ef7643d6896e66c60f1ad7ed46f01a317f4c5f600ac268821ec34bc5f7f05947c9a1fa58494f2f704857e958a5ae5e6c8d387551f8951a8017ea82c5e81846200009b565b6202329161d8608801357f25b1205802aa8e107414516d9de87999223557f0a128fc16c66728005c8631ae7f21aa75545e60654ae0d2936dae13ecfc28a6b84e0cc58b5e9e2d61281c60c222846200009b565b620232e461d8808801357f03d2a710eed6648cc86d865c0845b1352dd7d48e3aede4b07e7744d4de7f247d7f087a54abf2ff6e27e05f81d4c15d032b17a1be706eefdfd269bb634cf5228f92846200009b565b6202333761d8a08801357f170a2736a81044785148154faaefefc32313198fdaa54844da44f5ba1c4525ae7f0788bcf87818a0f2b5f0c34db16bff5d736da77eee6ccc312ba8b48253fc2491846200009b565b6202338a61d8c08801357f158bc8aa49aea715cf48d9174971049babb5de2f04590eb56947f25ab525faea7f1ca80c8ae4e8c3a8d10e2995be42bb558ac93b181cfdaf2ece580bfc4eff13ea846200009b565b620233dc61d8e08801357ec047d03d0d61fa0a5adfe91534faf34525b2a6f11036f741b7da0e52cd884c7f02128c828da77fda424b77d33eb2b8c22d95aceb84d144121b1532244de30268846200009b565b6202342f61d9008801357f2b127e09fcc693ea96dc7d6a5f2512bdb577d8f9487803c8661231ff0f90ea597f127f705bd10146415d6c4ff160718aa1da651f20755da2fb685381cffd8cb3ad846200009b565b6202348261d9208801357f2bc43021b3070cd5bc5bb7c526fdd2d645fac37a724ae7dd7480d3040f9f43627f1ea6a5abfe7583ece27f3020c6e3d957fed07a20c14042c65dfaedfcdf633473846200009b565b620234d561d9408801357f276a9ab2e73a51a817a32eed06860718cb5300130cd9f34c5f10945886f218f87f136e14d538a1f36b84d0e725c9d4d73200ffac65b0c2446920530183e3aa1682846200009b565b6202352861d9608801357f2e95c060b94ec9d4cb8e7288cc195835f4eec33a2c69ece87c191c4738454c477f1182359892b4253246d64b5dd26598c2e24d2456ada834a01667b41787b89329846200009b565b6202357b61d9808801357f2ac79e1218520444ae3388e65456561846f58770d3faa91846bd8f31b2d8aeb17f175ec4f829a0df5fbeadbc7f83f55a20cdd72263b01dec2c342b93a32ebe78df846200009b565b620235ce61d9a08801357f1b7ee6e2d22e386fb911f4f3b95e3e8d6b3991d47f9169c40f90352676f688137f27097ff98ffdaf0a5a44ee9e3bd5060ddb2004b4e24fcc104d42367f3dcbd6fd846200009b565b6202362161d9c08801357f0e194cf1922b9d1cac8498bc6260f483829b623567c35a0bc3fc08a7e9c808e67f2feb8914323d0ccad9be2c76044935c32c080c6f0d206e65b0099ebd2a813995846200009b565b6202367461d9e08801357f0325809761827c8d4beb86f171d2452fb3c22555f4bff6384be92da3be1b91f67f12b82177cfec0f1b275c43c7d832b5dfeb36a1ab38d019f08870e004b3c60318846200009b565b620236c761da008801357f02008941d721c158a5caca62e81eaf6521353805d0708a31f91337978fbcfd607f0176be7c458d109deda8e92237923ff97690819b9f042847608950a192ff3545846200009b565b6202371a61da208801357f183feb0c3365b30bd4855fb3a7313f0634fb86f87517989944e449fcbbfcb81a7f2908a57f4ba3c407a20eda5a6186edd79115d11289629289b81b1ebb2e005594846200009b565b6202376d61da408801357f0411e1b28fd7c9ee1682ac73092ef947436c59eeeb3733a32afb36ee4aa135f87f027ed08eefdb903b6b8ff12704cd31e07829d6fb751d87c356b2ab11009bae4f846200009b565b620237c061da608801357f16c76b18e5ce0bdacbc6f2c774d2dad76453a2e86fb735f56df0bcf698df94087f1fb328248ee1a2e0b35428bc9d4ea82b25adcbed29616cf48c79d3f5ff390c54846200009b565b6202381361da808801357f094e5a1347b0ef9b9b8a4a5b212f09a9ad7b6e8ea3fc72a6be3390744d00a8227f1b3935fe53f609a3e3c1fe5819bd02f8ef4cd773ae23c81590e1172c62005d49846200009b565b6202386661daa08801357f168b5b9adef761156b5268ca00d1f85b17924b47678800894733c18c9dafbee67f24666ab0d8ecb20b7e36ce05cbf506e0a3f48b10443abbd46c44fbf6377e5770846200009b565b620238b961dac08801357f0fa81c4dfc548f3112d99993d227ba41805cf30ecf97cf7949840fd15f7ff9407f1a782956ef80e83dc14c6d91a3f16eee91e35e38607cb93cbe4a576256eb21da846200009b565b6202390c61dae08801357f182cf7c5b26e56249d424553e97ab9f8779a5c5d01b96646ea4f0132b9ba90e27f028b23db2f99b76b58d5de6086f8a6589c9723e9514c5b5ed3ae2e93e6b49e4c846200009b565b6202395f61db008801357f03259cc33631f515d963cbae1e1600384358737807c1825c059ed1dfc97c82e87f1e6a846530d26c8a18ecbc8a25fd4bf93cec66dbee4ab9cb9603388e7cbc459e846200009b565b620239b161db208801357f23f51b7b931bb724844673c1a589935ae7a243c507a379e3e1e2d1b931d56f3e7e84ad03b63a92152c170e70df88a13c3e59b675b1b5ebb50bab15444288e0f0846200009b565b62023a0461db408801357f1d1a4a568d01060916ce1f330d3abde9b1bc7456606a2bbd3111cffa893eb6197f05bce82d87b2fc8bca800f603e97d7706a13bbb32e95bbe35e6d7a4801c0c102846200009b565b62023a5661db608801357e8244d7bd6dcfaefe72fd49c5f35685bfb6344611b535413bd81612e9a69ab17f0d71ec7d3d55df859e71525f4d72bb887b93572bcfe5b5186a5f022902ab253d846200009b565b62023aa961db808801357f1218971464f6853e1f107c49f94b54149225c067f682de2a0d3d9803da31d4277f0209628f3f1d393e795f3c97ef87f9a48e97f2517de5446296f5093fbc99a739846200009b565b62023afc61dba08801357f19abb7abfc4ed87a6c233d1dc805c4b74c5e7cb6f6e31396dbedc70ac39a5a027f1956090858a85f1de94ab94f76333b2b606de643b67a76ccfabefcff157dfc5e846200009b565b62023b4f61dbc08801357f2f8603c9b16a882e58d4f762072d80029d93fc200294d0a1f8337dbbf4733a1e7f19a43514d4b09555c54a030e89aafe6ab8c8fd6cd0da12aa91dd973767df95bb846200009b565b62023ba261dbe08801357f07fbf50f42fd2b9bda278ba7247ac00eb90a0d2fd16d8dcd37f16f56453815917f0191262857c26fd6751cb1be651f8bce2afc42cbd4f6dafe12327f8d0f171fbe846200009b565b62023bf561dc008801357f1991fc1e1e44761011be742c0aff702ed308403c099512ebdb3eed9ae7e51c4e7f164442d2ddb78463780491b0dbfac307a1424831c7fd9865efffc79d66979a48846200009b565b62023c4861dc208801357f230a3241154bb9747a4d81e4162c7551edda3c609b3f957bc08675fa2f4469e17f23deef365aeff62c9b5859374d777effbea5310b718eaad0a97ac05aab88646c846200009b565b62023c9b61dc408801357f0ca51cf9daa34e83923968bf035aa392eb49bff4968012a0c548f786c33df0507f0375508ba4e8deb0ca22f4b7f35f7fd14e122a86c841f61c7bacfa2e691f70d5846200009b565b62023cee61dc608801357f2cca8a4a6e6f334c2acc40263e51c0688847ed80564e00ff82110333c649cc387f114ee3213f733870ca9b26c01fc55f29e0963e61ddbe06e03e6eafac8eeecbb4846200009b565b62023d4161dc808801357f06a2a138e766d4cff18929bc88d50e59721da955a78b1433a4b32d530702fafa7f115e76a290f1e9e3cdf6edf061a93202815216c865f09d77cb87ae0e878a6402846200009b565b62023d9361dca08801357f1925ddf47db4466353be08a2f2ee889ab7f949a942c0b040009d2a611031c58b7efa873b6ab27ccf84832f2d441b79b52010aecf784e6f0f13bdd970589ff26f846200009b565b62023de661dcc08801357f2a1be7970adbfd22e9668851b749f61ad5103ba724409c24c94832b4efa44c1c7f15e50d830f34916181bb0a1974744247425ed47075320d39a80a0f3ace73125f846200009b565b62023e3961dce08801357f2965cacb5089d40397dd0db334c393d39e8a379ac26b18031c04398d2f777a2d7f11e1e032adce0bc342ca42bc30b79fb400af82a5d687db0f8c7965430454be65846200009b565b62023e8c61dd008801357f26df9a45a40b6406425e4a0bd13e21e217ad6c8e324772115c48c07182cd40297f0be5adc58283def91dad5e021a5b5d5bf048ad3387e18dae46e5f5970c54d452846200009b565b62023edf61dd208801357f1c0e5cd254fff75b0520669c518177a5085df9131323b2d6f5a93b44328e05b07f09c29c3a56c94cc8b35c048d6d31ac7b02e0c117c002c5333738152d646d43d0846200009b565b62023f3261dd408801357f1c9b820f2d39d65a44f297c449f0da12c056e0391625e4e99c79c202669566757f115784f40946705884ac4014415eba76e2645cd68d9a0e9801fb14985f54c3fe846200009b565b62023f8561dd608801357f2facd2101304aa1f704d147bd425228bf8106e55eda5a7ad920a50152a7affb67f168baf9608ff9e1c7d7ef42e9eb3ec86afc11f6542f92f623c187f63d999e284846200009b565b62023fd861dd808801357f26c600ff704d82c381a1c0214cae8c65ce9afe3ad1701a3681a390cc5061b8157f16272fd75a9dc1480eeba867e32251ae3ef7f921d7307b956de7511d8d934fce846200009b565b6202402b61dda08801357f07289d3d7c33b26539282bcd5675659aaf3d1bbb447e2b29de03dfab1fd19ba37f2dc1554bc9f01e3533a37aa245aab306e33aacdf4f552dca6a8c6b95f89b5fcb846200009b565b6202407e61ddc08801357f2b8a1804e7cf9c1850e38a15258f32546f3bc88e934df52c90f32692d2c44cba7f1d07d81f3b1646e03880387a15fcfd03fc9d6b8392929839fd208a888663f221846200009b565b620240d161dde08801357f16dcc0139285523c40b65dd09a984289a0f0ee2b028b709d4ab63954127835257f288b3de27be43bdfa5d440bf052b01685e460642a6492e89979ad4e05d30b25f846200009b565b6202412461de008801357f092f5495b591701bcb3098a8f54bb15ce004d40357a13b9d9434e2e06cb7def47f01d14360bf41596151dbc3da97e58dc005c18edb71ccea860c7ef6ee66081606846200009b565b6202417761de208801357f1241b3329282b5fa0314feef07e8ff5de0a952029e943b60d551b6c2336b62f77f018c3043f37ebc35f1e66f9e8b54825f4efc173cc34e65b733076c7f34cc1229846200009b565b620241ca61de408801357f0b4af147d120ed06b2c5c5c1fd890529b4e1fd24925db59dde9952b86d24e0a57f05eb7ca03cc0523c13164409039614a91bcd146fd0760fb3ca903d44e81a7472846200009b565b6202421d61de608801357f216e0329ce29dd2192a5e88c84b576af1591eb50e423164071887768efb076107f27de71af51e54330f2ffa378a83863513287081123e9db42f8c8c8fadf2ac4ee846200009b565b6202427061de808801357f13f254ff3cbdf96aa11d3ebf7ea86edd5e4065a9b9d6e56a74001458ed96a6577f143f39e8f30d49d937afa5e70860c35c5b2ffad4faa3de52ba2fb0c17a3e8c60846200009b565b620242c361dea08801357f0edb8ef8945e56f0c74b45f69096c9a46423ed0bb2885c05f1fd5ab66651dbe97f1becab2b4f562a6a832ab10262c6a99c6f1c654a68199f8662ba9c24d6659418846200009b565b6202431561dec08801357f2dc6e4fb605af8342c726c6607ec84d971514f9fbf5426ef475de25ba9b93aba7ef424583f2b00dfbdc039ab180f02be33315b69e9cb2884d6bbcc98f3536b3b846200009b565b6202436861dee08801357f0e33b650e68f81c8a2258b15f068492a1e72c233fad1aa79a4edb42846e20f537f2d66cfda40d389156a163e35bf07161182a7a606c86ebaf0c7b20ee692e01516846200009b565b620243bb61df008801357f1998a41371f0780ea666a05b5c262f0c87d32d6be7dba2cf00768829402484ce7f163e2a7901e338ba90c37da80fe47e54fca838bc19913a705d679cd49a77b859846200009b565b6202440e61df208801357f06287b55eeee0c45af93c4ab1053d78a5e4583c10a77315aab5e8c5c0611683c7f18e84cd58c9ffd79ec6850cdcd987f71b18886879cddc83e960cb79d66832998846200009b565b6202446161df408801357f17a47cd40d000e9bbf58389ead4970a8a3d00fca8f19fbfe260eea73c504b8957f0ee520584f9caaee2a083e7a12b1b5309d9137c9743a93cdf9c1369ffcac25f5846200009b565b620244b461df608801357f12660f3281804fb5cb6068032000d2fcf7332ea650a36532796701f55ac383407f0258790f01ed13029a33d8642e08c6d9db8d5f8142b035211dbc667c1e05c357846200009b565b6202450761df808801357f23ebf1141d6c44c62fa0d6ddeaef68ac87a19fba65f977540c7d8f674d02a9e67f107c9c6b7a54deb092c91888b7d35978c46f394a9db9c29d9eeeefcf46de96c7846200009b565b6202455a61dfa08801357f2ce1805425d6f78636c9c693cd9bad0d44bc316423d625246b20235aac9c8e217f016f47d9edc2182f1abc4aa9ac182ab6ce5238642c2dee7a33e2fa3974b21055846200009b565b620245ad61dfc08801357f1a3572d6b95925d43a1463a39de8e303403261c80c7a011d0b470ab38c7dfaeb7f057dbd29603538faba11723976828f09af0ca3991396c507c8e0acf6ceb2254b846200009b565b6202460061dfe08801357f0e902612c28121d9a8e87ad8cdc593c699268888ba55da2d98befe95e1ffa85c7f10b78e8ff3eac28dd6a952c3380455468f6eb741a53e2ebf0528dbf08bf3bff7846200009b565b6202465361e0008801357f065a519c63f1997f500a529cf364b980ff69e81a54e128d1c434ea7a7e1062af7f26bd5f06f966e1a7557097f59585268db2deac5b49599b5e38af66986f65af27846200009b565b620246a661e0208801357f2b1a811bcd927e5d0c643b333a6fd7dd9f4d6af1d8621e04b4077a565086b7757f199ee3a6d35b565c5a4afc71929939854ba4fa0ac8227c4aab0768522cf31d6a846200009b565b620246f961e0408801357f2aaad2e940e7a493292d62187fc5e68a8d23bc28ace1de27915761334f44d8f77f13e00a8f42b25576b4df5b45d8e11b840e2b20071229ecb43cc84c033f24f162846200009b565b6202474c61e0608801357f254f91438d734192600998309e5ba43351446d06e5cfb4bb4b3c90158d5ceeb87f0784bb18439989b2da614b064cd8162d883c32359462ec63a03bd5993024aca7846200009b565b6202479f61e0808801357f0447771a7055e04cbad45edf92a1a3d948f9df331cd60b4431b685909f7cecf87f2d9c161d67f7020ba6494e66396b4584522577bd25936c3044377d74438e8d84846200009b565b620247f261e0a08801357f28cee0aff6d2acfe8300146f2e84146c4ac828ceef4bfb1097feba18febef9a47f01bc48970eff06390082f11f228a32920221d11783b7a868135bfe29e4ad1b61846200009b565b6202484561e0c08801357f06c81fb665be481c45b207ec7a9b60cde5870b290ce91cd08474b47ca09b3dbf7f11fe3c8ec08469b6ff9247f9239361a9b53e0a3e8264f8d72268a12fa0f3794b846200009b565b6202489861e0e08801357f2f2882705074693d94937e4994c1eb47309b7a78a39784c491866b9ff91848737f2b4c4ae0e68ffdb1607f86e9292ff96c1ca92ee1ea309d1d924c2ce50dd95e5a846200009b565b620248eb61e1008801357f14b7311afd1fed1cc20f045d863143b259750efbe497ef385326d082eb1866d37f084f570657ecf1224856d3a18947c031a732a83dbbee00cc695a1785430a9701846200009b565b6202493e61e1208801357f16e04cd49f64cf2cfe1e7deaa7e36686b639576747c3bf0b52ebd24242759eb47f2ecbf1b8f6a93665fcb2128dd947bc523cef0515a229dbb51c82631d6732482a846200009b565b6202499161e1408801357f10c1c467695b0e11aff786882b5c78d732f1ebeba390bf2acf5bea90ac7c319b7f146e2664b1c0bfcfdb65c18cbcb41996c588eb64fe0b2211510480d3d810d495846200009b565b620249e461e1608801357f0c091fc4dd1a58ab1a3b97f385587e1082210a477d8a43298853cf2812ddb4817f17531165aa5264840ad2b0cef32ca760aaae7e585a8f36232494dc1d46c8b36d846200009b565b62024a3761e1808801357f138816845da2680276b3ca1165b11e94c4ff71efd2987a701906e585fc2c36d27f01d7c169dff34efedb9ed0e51a4dba9f7409b15e78ccec480bdd46534a17d043846200009b565b62024a8a61e1a08801357f261a5afd67e6d6bc05f1338d83dce3df7545bc3e0d09ef6cb9ead8dd4490b04f7f16a85f7815b6e698a77d23c5ee81897494e16f7b6b3ddedb49ee7914cb2b7de8846200009b565b62024add61e1c08801357f08a1a1ec3ad16a2e5116e7cde7f5dc5df701cbe8d1f26df29ed8f2db10d816a77f02fe04ec944c0cae2da7dec2bcd83f07fac5dfcb1da1b62a35419f424a372008846200009b565b62024b3061e1e08801357f08a6b12f29abcb784efcfcb1dbd54c0ee77e051e597b2cb62b44772de948545e7f23ff2e22136ade3951694ad3ee135e4ca9bdcf7940efb1c61e6b785438cd5de3846200009b565b62024b8361e2008801357f2e975f1ad0ab2270d4e6b105c7fa1323bca6b0c68879008cb2049183622e96d17f1e2824a82773401ccaf972c04578feb2d23db081307863b41bd06028d7fb4705846200009b565b62024bd661e2208801357f1872e941606cc4a0c72ee29334ffe78707be42099e747c06aa4130cb16f4899c7f185dcd80fc6d3f6e3b8bbb295f7347c794fa09b29fe600bfaeda93dd98351d35846200009b565b62024c2961e2408801357f0dcfd4bf301be159627536204fd81e122dd154ad2496a24f88fcfee1f00bece37f1a144d0a15e87aae72d96bd90fa95803e39a8d37b3a8eb3676cb3dc366a894c0846200009b565b62024c7c61e2608801357f16379eac6cfb8358d9073a9bed71201fb4a53b74693134a6873f07585c79aaea7f032a8f5e902ef25fc1f943713cfd1a78064c47328a17065c13bd22cad5ab053a846200009b565b62024ccf61e2808801357f255e0938a32d78dd5468912efda38ba120780466ffbc9c0e16f4234186bb050a7f1930037cd3ace875600f7617dbc601597c1217b9a1ea5809cabc257b5e3df697846200009b565b62024d2261e2a08801357f0d681148752226a8bdccf8b90e9eaeab542e0eb3aa54ef7965272b74a66310d07f0c4903e6ac227ebaf29272ddf9da6cd1ffee44d9868e741c9a2eae164a362d1c846200009b565b62024d7561e2c08801357f27c4995428cb2063085877f58c16fd898a5c87df397074b0f3eafd79df51f5867f24b6c58441282edb75aaf9750ef5903667dc88d27ae150fc6d1959ed09c6bb1c846200009b565b62024dc861e2e08801357f17b1db9d5ba49ec6d4171f8842b721046c96e6ec7bd79aa42474293258e51f2a7f1ec10384aad48aed514df68e644e14535e6d5e94559266a10c382a15135a5833846200009b565b62024e1b61e3008801357f22c4e8e67a04b56082047135f3b76b7456f57a3f1e2d3ef7c69f06dea64a80397f2b79a53d789187ef720242eedb66c89ef674a9c71d6b29944afe05d5c637f97c846200009b565b62024e6e61e3208801357f19296f5b661fd3cd6b9a3adfd286b06915c9492f063a2c698c53c162d298285b7f0684b49350acc30780a0d9eb519d0256d2fda5581172e82f6add9bcf7e0aff4b846200009b565b62024ec161e3408801357f2d6d86e46a715cc1903a8261b68c26995b854df2d8db5174af427375b21be8647f0a1a80a57551b4501b79822cb79a525b2814fa3f4dd32b642526656cbe0d02c7846200009b565b62024f1461e3608801357f19e787ab4164d28faefed6969f561d11d1e9cbb803456e7982cf2c42920cbc5f7f1edde179f7aead88f59fc1ecd5ce9347f9ae7b1d88db2de87bb6421259c78113846200009b565b62024f6761e3808801357f1eb7e3d06f977c6781512572749e2ac9057f4f585149638dac2d870d6d66c4987f185030182df5ace9e9da71799f191a7c496e60bef374636ea6bd21bedd6c45fb846200009b565b62024fba61e3a08801357f048aea9292f2b98e369855402f84e0b8591f5e0fd56a009d525636f6f03740df7f0d3fe95e7817c8aa44058d29c6b687d17496e294a478e7bd7d4a0d8f5e585162846200009b565b6202500d61e3c08801357f29db89ee9490f9738953672cc0fe958ccff8c02e8da4649698de49827811ee3b7f228c2fbec17a2b0e92d19a3ffa8fa4d9d3ff0910cf1eef56e5988ccd24375ecf846200009b565b6202506061e3e08801357f0aa2928e275d1994b4d0c1c9b13b6d570485d7c4e3f8578f48c570d78d6e5e3e7f1a8243781b6b6aaf3903d7100e4e1de30e2e5b7c17321a918229e7f66f507d57846200009b565b620250b361e4008801357f2106ecfc86bb2a8905667c64408765433aa74b385564699e4ef98deec41120b67f07674b5389a642eee864fe3de1316a09c083bbfe0b0de4d453495f0a509f39e6846200009b565b6202510661e4208801357f04580b2999e92f0ac2a70f55035a692a707e177ddcf5a5bbd1d46fe55db7c8fa7f28a8504056d0b874bdd0a8edcbbc08cdbb8e8e1d911510e41bc7b3f54e369615846200009b565b6202515961e4408801357f12fd6a4c423e66cea6f2db992d3dfd265055be600ee57ea53472b60b695f44d47f217100930b50a71e9dd35208a2b2b1f4cb77b6eb6df1cdf63f589fb987fed8df846200009b565b620251ac61e4608801357f22e368cc297292ec32c53fe45b0dcf520d898527a419a2a8c9f6221de0d1ff2a7f1bccb736676a1ecc5907f7b03f9fae7020599c47e48b2ab3bc8e5530104b3bf1846200009b565b620251ff61e4808801357f300b194c6336f7fc26cb5552fa593f10e2e99580fd4b2aadc2bf613f85da5d147f212b02da45d8f6ce1ba407f5f296f0796adb83f69a1800c91271edec581a1933846200009b565b6202525261e4a08801357f17b8a7cb92c01f4f5a460fb2419909316a77992e9c052fc5865cee122a4a44397f0eeb6cca8c4eca276806f38bbb1ebea5397e358fcce6bf57703ebc04af63f127846200009b565b620252a561e4c08801357f12efcd97b60958dbf9d79ae399d6b5c4e686a7cf7236fc5ad92a40a05f42d3957f113afe50e8bd63eac86306b1e5ef045e4d2e4aa05c8212ee87f90d3efeaced2e846200009b565b620252f861e4e08801357f1e7f6dd043da3661b2569d68f23af188c6da97ae47d84e358009e74a876a85ae7f0b760b406bbc7e465f78266d86818299f83c6a2201d05be8e2385dd166fe0c52846200009b565b6202534b61e5008801357f1a57c09de3c581df193c64e1fcfafe2757c213de8847258619d9a51befb1cfbf7f1ab910f69be2b0efbe2c94df3c836ae9a4aafd45f2efc4ff82792f1f817349b2846200009b565b6202539e61e5208801357f24958b2d9e470d56fa82cfa44dde33754bf776c8f895815aa48d3f6e806aa5a27f1df8312e576223b8d8d89196cc7d0f60797b80de54f6036c090fc9c67bbd5e0a846200009b565b620253f161e5408801357f10dac5bd94e083814e0edf39e33d96444789b3c331d9e009a915f9c72b73ae877f2ee972631af2d267708870588f07dccd1472ea5d58ffbe643b759fa08c48e481846200009b565b6202544461e5608801357f0aa28af1193887b7e54884b57e842481c41495b2cb089952e992c872baef63407f08e96fc3b65076732e1b7747895819d720dc8d7383028bbf1ed845eeefd88108846200009b565b6202549761e5808801357f193cc3a742b3f0ad72215beebd568b4e6d30126ef96b1047e3c6f1a9e2ce06b07f2f257d2e931939be7f4e23a7ff0e2967eb4b591da0d7a180212045261f1e56d8846200009b565b620254ea61e5a08801357f2754ca727320106578e1af220589cf197ed0cd8e7dd25cfd869af748db703d8c7f011d80e7b1a22222fed693d0f3826cd6d3db0a32b7e8cc3ca955b508ce47a5f1846200009b565b6202553d61e5c08801357f0dbe915cc207012dc7913ff809726b2de0a6bc8690041d1d4e7b43269e97c0587f2eecc9ed8b4b1206b709dc7866ab05dc2a9ce97e4a713249a34873f550b2d778846200009b565b6202559061e5e08801357f05d621200002fa6b77a9bba3525abdba8513b41bab9175b343dae45cc6f0d9367f08ee9788c07da0511ac0e90d19ecf2fdb6ab108f9342e1961915bb80bf0d92ab846200009b565b620255e361e6008801357f177416f0d2a6280d09568f7c0b2fdbe9f0139c6440090034c27800910a1765bd7f1393dd092195e020f63fa5bb2160d83ce3001b0b2b4563b21d2e0e025bdbba4d846200009b565b6202563661e6208801357f07621cb15752874eea90a5005af91e3e8bf9cfb135f6ebdd14f959e58936a2d47f18d2562c7aad4f1ff6f2ae8dea5a31377bab181b650e4971746dc1a563a58887846200009b565b6202568961e6408801357f19ee834d148afeee21f4ae5381cc155949856a84560aacda89c8a7869eea35d97f1672fca52a0a1a35d994f6c3d2010369c10c36cb5a9691d6458a2b8f35324e63846200009b565b620256dc61e6608801357f1095a76bc8afab3f026e23f4c4145e4f5691137cb07dc519cd1498b547f7882c7f0f916d998179e93e31d52d91e204914510486defd4a36cdad2c24bd5458d1634846200009b565b6202572f61e6808801357f13bd6669f6b75ddd013a69db3c3d2837ebdb7bee262b7f0424b304d4978430df7f23505f6706452e2d5c9ac025f12599bcc0c662b69a3253c04c35eb3e4c777827846200009b565b6202578261e6a08801357f09a3cacc805e598f0b7011898e1af929e6fa14093453e717c311019db72207857f0a46bdd570f3471b857de9252d191c7ce2353c2ab31ffb808108800f315c4dbf846200009b565b620257d561e6c08801357f15baf3dd3d1ed1f7e90b0e273d685fda3f27876586138e3d1643301c8d39b9f17f235278cbf810a76b3eb99febe0f73a924d5d5adb58563f40ea0683deaf1cdc75846200009b565b6202582861e6e08801357f2501fa53359e336fefd61d343085acbdc470c06f8207afd03659913dca6800f27f0349265ed0480c4b925f925e1789b096b9f7d8aee9a0399ec245fc6b7059f88b846200009b565b6202587b61e7008801357f1461d679341005073d038424e7f5f2b3706cea3eb2a2f9f7275171b3ef2c5f717f08f4a26aeafbaaa99454a3e00d1ecd59886912b7be0d96f8ed653b30bf2443fe846200009b565b620258ce61e7208801357f2d695a6d4a5322d6eabc2dd72472da3979972c19b8e5d81fd3ee46a284737d587f15ad0761e26e3416b026df4b114c7108f17763c3aec296f48f7aba84e9b66d4c846200009b565b6202592161e7408801357f1992ebe67845bcd3d1c723a9c9b79f561889c5f6dbf7c04282a884c0b651d14b7f1275b7b2b48b6272d3c1521e7d6f5ef3564f43505e3354a9683d48b4470e4560846200009b565b6202597461e7608801357f03d6479064dc1cdb6465761fcc82566abda073972bc17140c06b76412246631d7f1f151dd22291d1a721134926a09b4dfa6b04b6c6f72d63d16818a037302cc481846200009b565b620259c761e7808801357f22a7a8bf15fc81b9e55a4ecb47f95703deb72b0b07deefa9d38e8a27303a70fd7f18e0310e23fba3c151c1bade80d3c5415954b87db78ae29da89fcfbbd66277e7846200009b565b62025a1a61e7a08801357f087832e03d160f23764a4291e9e0135b55b22c9f62d54b158a1ff26dc000128a7f286892da1013f99ab6b12597c36624071f9b1da602c17508d05aa2db1a22609c846200009b565b62025a6d61e7c08801357f14a7cb1a4d11823da64ec82d9e84e1881980e8ee3afdc6c4cb4bdbbc9563314d7f091bb1da10b8b0de354c2e4e7fb95767a85436f352271f4b3704a2f22b242d06846200009b565b62025ac061e7e08801357f1519a7e475e8136fc0bffa2a46fb3efc562093cf28214dfcad75108f76a580b17f1ddca954ef9e9883e16963885208f8af01b106cedd4d9ccc3e0d15052c4bd228846200009b565b62025b1361e8008801357f1d12af31af6ca1f1f72698dd10966f6ba48ac1a98a6669bc168ba1de40fd54467f10064d2556d300d25a8920c0e97bd910eb6b94b7752dd6b25f7db45e31460a77846200009b565b62025b6661e8208801357f12d645c8f070390c0235ccafc23737b8c373044719b64e34dc84cc100aa68da07f0ed0eacf2893d6917da431308ad460ec1b3b25a3aff7ddf7d14dfd23414097e5846200009b565b62025bb961e8408801357f103e77fcd4ee3d963bdf360ebeb1ec10a82d4338238699c82f4389f1a89e44307f13f070ec51e38f70740b8e510f5f2204e2dd9ece16fa7034fb34c19317bc3d2d846200009b565b62025c0c61e8608801357f20931c812541064bfa7558dd18f37bebe0e0983102ca4e253125810d25d5b79b7f1332de6385c94b754aff1b1366fec8856a677878e1cc2292e3738b06bdde8936846200009b565b62025c5f61e8808801357f05b8917ed7daa0359ba7481a1b06563fe5d687371088e6f233f445624e5523c57f17a21faf52a3bb6b9d16faec62db68c7e70611657de783cf51d022c287553987846200009b565b62025cb261e8a08801357f157c22fbf0cfc53763734a469ff830f20e4a1903923fc8d59be33e25e8a5a2027f2c11aa52bd722ada912d86ab6cb8a8e1cbb5efc7aefa6af4637abc3a760c7aa4846200009b565b62025d0561e8c08801357f211fe2a1c391d53e361bb67d775f56347a11ff2c282d4a5fc9703d5ad84d6f6b7f24d389fd8d8ec6ead5f900477fd61954fa6f7c5baff69272796bc204bd057baa846200009b565b62025d5861e8e08801357f2018e2b6faedc79f463eb5fcfad72a56378d61d6a228a322b93543961fe290d77f16e4d78b84babaf7cad674fdb88f17e8f34151f0e6eefdbde2da5704573cb97d846200009b565b62025dab61e9008801357f201838f676ca194ebc0db9a2896205fa1db4cde8db40a1bad58cc259bbe42cfd7f2aff0182549808a2219ea38487c9eaa5c3f46af3298ef602bc87476e87dfc3bf846200009b565b62025dfe61e9208801357f21a9c26856561fa3bd139d4ecfee81c971a3b69442e6b7b79a85ea433319a1f47f1a0d70dd7a6def25fb4eb2d65997f3da2596ae54a042d1783e085aac9e5441cc846200009b565b62025e5161e9408801357f024d1c548f10c1a1bdf4470719963aa7185f99a9ae823b71c41ef03fee15c7957f0fd2c03743be43ab511722e50fcc254406907460efa4a8bdc3d926fb80d92d26846200009b565b62025ea461e9608801357f09ccba2c0a174c4bfe5e23f9d28a0e25a5a3a11ebf6c360da5aea9d043187d437f1c028ac7e8d890a7a411a466aacaf697cd250bd4f97be955a1ea0105cafa3473846200009b565b62025ef761e9808801357f0e564131f0f71c2b30916c3d1709f5b90e18d781cdce1709ab5051496306ee3a7f1e2cb6926c752424e64522ba1ece1634a233edfcf356979dea69a266643c077b846200009b565b62025f4a61e9a08801357f0182f5ab535d3cd771171f56bbe6bf12d8deb5236f4224cb7fee4439f6daae7c7f2b43006851cad5fc292152a2c09b9e565189f8645af9ee7319d7470b25bff75a846200009b565b62025f9d61e9c08801357f1ed7df5fca16db077f6140a3e656b8870c190d1e0fcd4d4e3b6ed2b734eff2407f12a6f7f832a8d2ae60bd46ac9c4db22b07cb1dd7864c4f67400ff3598bdb96a3846200009b565b62025ff061e9e08801357f0ac18a01af1cbddf0ff83acebc421ca25c351ad7def5518fbea2319ee132beb57f286504916ab971efbcb0096228396ac4e8b6a07e384aa54bc5d53a0cc6624d6e846200009b565b6202604361ea008801357f0a5f19ec38a9b890a32b6a1855f19ffc291c0b0dea104657c52870f296749c517f182088ae745c3b8d9dfc23c371e41d59d22d980d37dc3152614b14ee9d5cab64846200009b565b6202609661ea208801357f1a79ef0fe9aaec7be3595c1c5f0130a004671b6723e61c2151ed6a23c39f5d207f291b9c4b2c2a4c8524ff0da71508f11fcdf75fcb84994674e6832f593b5effe5846200009b565b620260e961ea408801357f02e94b161a740212985f20a02d2b136bc692a1074515e6a874aeabebc38371e57f0b2b1c381b2c8b467a8e2f1bcb72a1d8dcd69520af2068f787e14dbac6c0f387846200009b565b6202613c61ea608801357f0604193d9490369da22e5e1b0a1204a51336554b2e32303156edc36bbb7e176a7f11f05776b46a4bf9fa18914af598e80e2f119d7c824463a31f73b5f34691da75846200009b565b6202618f61ea808801357f15b3e6b0e7cc79b788dfa4da1f5fe20dd557482e3626e6c646da028112bf7e127f0be84239f50000b72fc50078c83e2ef483f7ed8d3c8816e7a93d41f5a400c171846200009b565b620261e261eaa08801357f05a0386ce2ae1976b42e398825e578e9c66a4e9d54a64c8b47f85b598e038a1c7f164739d81127de9d65be45db6b68efb050df3dcf8febc4b558e56a498da084e0846200009b565b6202623561eac08801357f294a24330a61890bd3e784b5f6c7a2315531c8e70fa5c7a2461c75ddaf5381c87f2aece426a61bf813533658fc67b0833ef72de1fb4ea3926c69dc55d5cb738094846200009b565b6202628861eae08801357f029ca6a7b436b789af037d9207e36988a9aca069d7811ac0b265febc4e8dfe777f084ff9e0ef0c5e791c70cce5d21b9dcc23c6f85ad3dee0c50eb8b73664cb85f0846200009b565b620262db61eb008801357f22b91595146041f0e0a30e44209aecaa6f64e719b25ebdd4a084bb6d954f8c657f1452ba30e33bc9f79a6b07dc2226819489866aa20a051560ca4a5084f4497ae5846200009b565b6202632e61eb208801357f1cc383c48251cdfb5d812b33ce7139f47e279575dae81d04ccc8fe0bc1dbb5107f150dcae87ea64545154fc71dfa78939dae36f421721bb2a6b126fc92bf0caa0d846200009b565b6202638161eb408801357f2d8797d4f29a0108c3793160d1869349bba4920403f12eb680f50152b5ca9c0a7f200d491bc3391bef1d82224e557f93032dde75f20353901a0786b1059eb9333c846200009b565b620263d461eb608801357f077bbb52a5a735d7831804ad9cd9a3a1f25adaeb2be63035c1db0147dd89f4257f177d1088c3bac62a0694b6593b501a980f5795fcdc6b8250937d71401a63820b846200009b565b6202642761eb808801357f0ed27a51453acaa305165e4820b027be6acca2d686bd3c69ae1c49da64e9909c7f161a3019c91a3c63665eb94badcc43e6acc39b17264bee430072b6b6013e9ed3846200009b565b6202647a61eba08801357f079ec52b7e5318ca1a6072f45c68b48411c33aafb8b8b71e17f3ac86a7ea56a57f11dc68dac0d4839755eef8525ac64bc42c554e30bf7879723eced57e49fd4498846200009b565b620264cd61ebc08801357f0dabe4ff209ea992b03ad787dae059f4d0eddd03905a0a12b16b1916a1e6650b7f09645935665e46abf6b9d19db9e8517b720510662b2e343abd74900db143e625846200009b565b6202652061ebe08801357f02474a96f570cc8b908bea9a1e8431fa156aced9ac36dea9f7dcc22f3be579e67f2af695a107dd88ef7d8a02fd0e066457985cc1f8e9880682508d3c4c05e164f6846200009b565b6202657361ec008801357f02a568977b4ac6add56039d1366034332acaf5910059fc1b2dbd9cd249e016d17f1cfaf507dc1fa9fea7ee189074ca1fa6caff1b0fb55ded70747c3f6b2e4180ee846200009b565b620265c661ec208801357f1bb36bcdbbde37203685b5d8fac5b898a9c3627df546b7faac05dd896bcd5daf7f2b5e659ca1e75fabc2f292bbb0f25f353747d873bdf38cc50da6c506fd0e8ef8846200009b565b6202661861ec408801357f2767ab7076fbe7cf90cf593cefc18d8f3834860029da6b53d1b2ba7a3356d0f87eb33e4ea5d4c854d7d54aae1b83ca530ae74c788e137587d47b3349ac7e75f7846200009b565b6202666b61ec608801357f2d4ff1a4519ba2c94c2fa519598742a6aff6da63f7f8f7823baa16804bb603677f0d3458b60ada6207b15a77e1689ceb5bb458c491accb3618c1fcdcf4eaed7ffb846200009b565b620266be61ec808801357f1585b761a01a8aaab5f14e3a13344c463b61b10021939790bff2bb602276f6507f10bc5aab29e74c876af7b9a987e431884a32e4cded29cc0ea4451c215db3c7f7846200009b565b6202671061eca08801357f137c6d857b44a9a732d39ab489319a806caf4762e63c4e98ba041da7784140667e6797912c85bd75b64d2fef3abacc5e29ea785719c2c010a6a20ee93051de50846200009b565b6202676361ecc08801357f1aee7a4aa782f4312911e0d206cc338d50616b94b6810e5f36116597ec04d7707f034b48473b76653605bafe3a133bc04012674ad88e7a5d0540fca52916e039e4846200009b565b620267b561ece08801357f01656f7382293299ca12b464695fca6e49f3ce79c718d626e33bf2ef9097fb717ec512d630c6c63944babcbeab679af8785e1fab50fae9fe362f31e6e33015fe846200009b565b6202680861ed008801357f23d50b363fc46f44c963fce51e22059cc61989bce7966bebd594e8050e9dbf1a7f1b60e4355a910600635f881178eb4cc8619ea83a81fa946eb9ac3cd0ab12f7a7846200009b565b6202685b61ed208801357f279ff76b8580d610a141923d7a6b24c5cd056620b3f7f69493b528c809d291567f1e14e1f6a4ec1b409e5f957305ecc6640f867e90d8f231ffa61c7bef8dfaf665846200009b565b620268ae61ed408801357f11bf432864e26a3842561ae05412d97d00aeb2545090c70fd0f8bf63e9fc7a1c7f1e6b4432e1a62fea100ef2cd6304997e38d87ed531eeaa13d09c4bc1feec2233846200009b565b6202690161ed608801357f0cb81b7d1073dd6fdd0b3dd5099ce60b52eb13a882d6d881da158aa32c32a9a57f1977be62973c08cf210673838818ffbadbc1dd56944dbecb266756d85b32a8db846200009b565b6202695461ed808801357f19bf1f4e4f76ec5dc4a1ba3e39e4ca64bafc577ed3ddeccae3d52963eb49bc877f0fd3c449286a3960e18b9c174a6aa97c9cd214afc5ab4e2f713b47e50cfac231846200009b565b620269a761eda08801357f13f7e2735af83cb8cfba0765af8764064373bd6660ae557b443c433f42feaf9e7f0ac39cf34da9cc504b01975b9ee9713542f6e0e09bf38d3d95446ae5c4987cc9846200009b565b620269fa61edc08801357f0c79cc0f4600e83f0d3ffab07b9ef26abcd5c2571817b532561a3b7465be504e7f0df535d02f8dbb3d2d4bcc6262936563278c6f082e265917fd0cba6ff8913c8a846200009b565b62026a4d61ede08801357f073a1b8e9bbf39a216a9ca5cb27b35e50d70543b16ebf95af3c814b6f1dab4f77f2c48fada5df677f8521cb7136b888ee823421dd1fa01be68235c20f2dde0b679846200009b565b62026aa061ee008801357f15a4e9b8d763bc091de4ede33138c47a4215334a35711bfb423cbb1f66c74b4b7f196989c7698f122645983d68939922ed4d010903b7bcf526d5d4a633a540ef80846200009b565b62026af361ee208801357f2731f4b21fdedd677bc50bda8b7990f53399a4e6b8d399326ee77795dbf633ce7f0814f5a87a9773b207cb152f2b1d04c40be96d082aebdeacdc518740167bbe58846200009b565b62026b4661ee408801357f10bfbf6502b89a3a05eca52d7c643d318fd6935cc7b5b5457042a273015aa9637f2bb8c2966d3a8e3fb404f196908c218e3ce57485831fe934a85948d1052931af846200009b565b62026b9961ee608801357f2986b36e362656186d2c1b91ba95e0fc738fba7f1b0f44c3866b93e79164a9687f16fc94c1639158b1b92f163c2c174820ac1170a33a9dd32d2905f3c0210b15e2846200009b565b62026bec61ee808801357f2e20cf43e145c63d64dc69de17daa19f8dbd07669f5f93d5a7d04b7f585689dd7f2663c0c7c0084e8fd2c45308b632a6e64627902d36472597dd957339fba8c01f846200009b565b62026c3f61eea08801357f10040dc9b26a6d8df0084f23516036d476eb092a0072257fcac30dbaed5d7a767f17339a03334cf0ce2e87014e21bee0ee232a1cc6f1f5b70f8c802d7aa9a4dc96846200009b565b62026c9261eec08801357f1134441a54045b6da39763faa107c6e1f609cd478d9d239566b4d4cf06b8623a7f1b6e9270a9b163bc9c639eeeac2a054608e8b5ba54064252fcd0c9da2dd1a9b7846200009b565b62026ce561eee08801357f2eddc84ab1267057e290ed404c09e44a416c010c8425b1e98b33d155eaeab88d7f18a7933e3fc305181456e9021537af652a40ad143244cf47ed1fbf1e0f33dcc2846200009b565b62026d3861ef008801357f2298dd1774db087b12a4885a046cf3761a399816de696ad164d2070b309f1cf57f2965a0d9920529a2f7696806755c2ef572a1b7f30fd93737d6f876942a663f6a846200009b565b62026d8b61ef208801357f0771708dbe1e8591ba64624d7b92b22c336dfe6adced7848fbe2d0465a49f8387f09791be74a1b4917f46424d7fc323d3eeeac397ee3efce465c8bd27fe4a83215846200009b565b62026dde61ef408801357f1dcf9c356d429ea65831932f7ac4150f01ff01ac91e0171a3e1ec57c553c3b2f7f05e3a6e5652f522a3f22696e9da5d297cde43beb105a229343aaf373cff59f9e846200009b565b62026e3161ef608801357f03e857f8b0d62f129dd64eda7f2f5449c0b9e99954784afe4fa05232a29060897f012b79e660ec19d287f6c3a28014af80356287dac161a6275fdd79cd0d5da80b846200009b565b62026e8461ef808801357f2bf86e67e8590f86f6a3253379cab2e7535a2ce8a15fb1ca605e1ae1cccc1ced7f2dc4141b7fb80a11e4e2018a1a93a1f87a0e40f20268a56265ca68d7ee16eed1846200009b565b62026ed761efa08801357f0975115bf89f774b44f3d6aa51a69ca068c921b9a0906b07b36e38d27ff56cd47f0abe3e9544bee4e7e908c6c7e547ed26cc8554f65ab51cff63844363a2c79ee3846200009b565b62026f2a61efc08801357f1e087ca0ccd980fe2e0e938f040ba95d95b03b2fe34114627dadeaf964ccba567f1dd1c27130444e56d28edbbb7b2f72a706a24744dc7801f8f0e83178c7b2438f846200009b565b62026f7d61efe08801357f2bb30bc0199f4c7b71d22e490abd5f7860c563655e93b85fdf98ff349f83f52e7f24ba852ea0b1c2646671ebd7c696cbd77d1d5e335c0cae0f6ce8a6ec62198491846200009b565b62026fd061f0008801357f09d18c916df0b2f609d56125d8e9726a2acec41570d1dbb12f092c38a20316a97f25a1f3a929cef605e4d0b1acf44609b8bb1424840e06d6fb175d1346e630f52f846200009b565b6202702361f0208801357f06313d37a2f4c10067690bd313bad22c9cf31641c1e2a78b93aecfcefe14695f7f1c7f7527cede1f584b786e7ea48e752e03d1155ffba303091a7f449999c23026846200009b565b6202707661f0408801357f21dd1509a443e22f4fdd091604b935d73399a6c9ec21063bf15fd2d4afb54ef07f085e84915c61c2a9473a1c896ecb0061fa1bc624a196c9d6b9a7bb70dfc5d17f846200009b565b620270c961f0608801357f0b1669042975b532f6d2f9b5ed44a738170a025a16372b098d65dbaf0a215db77f08245fb4d4e58ff23c95fdd5fce920adf530e93c29faf196bc2b54daad734858846200009b565b6202711c61f0808801357f230f2026b9a794e772026d4cada4f27cc3b278866f4ee1d16ae147fa1e3fa44b7f1f51b658d8673fa24198e84ff248d3b10f13b2d0c53bd171e8174332db60ec7a846200009b565b6202716f61f0a08801357f2dba652e656ef31097ade2bb2932b6254d19da91250e2bf2cef8f5fd2469272e7f012333e0c5d7cc5d83ce4c34afa687b6b40e4965b62bf2331ffdf624814bea10846200009b565b620271c261f0c08801357f15c11175014630cfa5c7ca6541fcb7a4552a1be696f7088d7a6a8891d532325b7f2f5834293af359f2984fc240d066751342f8c6cffa03eca0c6751bb5a151ceaf846200009b565b6202721561f0e08801357f0f389626094c3490ae012297115eb072882557f7abc641658361c2ea1c1b2a007f07daa63d325ef458ef12d11c34216598fd707442ad568395cc9bbe95288e24fc846200009b565b6202726861f1008801357f09584e04b401238da64b3a856c648c602283a22ab93e382e9725b5bbbb9203797f268ba2530341f1058a1b428320b0eaa3faa86f3f49f943a0709445230206836a846200009b565b620272bb61f1208801357f0583a3d8d1d4a5c78c96928e8fbf2cee5de02e2d3438f5ea815a3b949d528aad7f199dc8b6ec81c9408b6c54de4de44fe2135f3bb27e5278925450b48da8f7ccfb846200009b565b6202730d61f1408801357e5b3cee9c706a151a584d78e44a3b7fd0eadc591fcd343005e6218ce26725f17f0e77581d004aac66fa63a1756d433121803b458c08e5398e600ec9cfc2502d6f846200009b565b6202736061f1608801357f0614d1562e0406e45febb3f86c728f092bfe153c2ff241508576fe0562c3f0097f13a0a76dbac2dc9483e566d466ac531f6bc0c9940a0cf1f9da9c13f6e37e8d72846200009b565b620273b361f1808801357f2f9f6fc953f8626788d497a35d265ed0bb8090c8c164616094ab112bd0a34cff7f038e23ca5c10b9ce7de73430b968b97fee4ad335af1ae53d072b25d2a645bd38846200009b565b6202740661f1a08801357f27ea63dfe57af96bfcd54615d126e1aeb765345789ce90f71bcdb1fef53288a07f21adb7469796af89d1ea72df014318a7014168593fc9fc0f5c05e37623ad4f82846200009b565b6202745961f1c08801357f19098d069f36a365d40388e1f3f18afd02ff8be0f847b995718d6612d042554e7f0e1457c0d92e8b8a077dafbc46920a298e6c2bcb210c47d17869a5d4a4031608846200009b565b620274ac61f1e08801357f2518799a53231b786b0de84de1d45a4b13def94e929f5b54e9889297d901008b7f12f25b8407c604065ff5f4ca65b39e826e13238cad96f6ea02e61fec1338f077846200009b565b620274ff61f2008801357f1bf38044a9d8e2286eedf7fb7802f9f22b4f5252c993ad7bb08145f543d615cb7f125781be581b949264a1fc5d9c59b167c47571bbc44ee00a69ea6e76579ce544846200009b565b6202755261f2208801357f02c68a807a300e02e3c6d40eef08de2f93fa34f1d9331f21cde406145a484dc97f2347dde01b863ed08b0668996cd54aabd4dfa8a0de5d9da479f9c95f92b87f43846200009b565b620275a561f2408801357f067c92c749cb8f059b77ce23f78f4276bee68d9987810064f41b4bd595d4d87f7f0573c36cc6ea53d7c58f9dc00c86e4035755ba7c5158efc1034af186c81d6dc6846200009b565b620275f861f2608801357f195d4ab43ddc10db4d41eb82de68810586f6a9a6ddb7f116d611f2f6dadc190b7f2a244a9c6378f1957ea069c2d2048e92a6b1c1b86b58be121b84589c0d81509b846200009b565b6202764b61f2808801357f2d4f379aeb508109377621f781d516b36b562c3701586c7abf91c354a8e616977f2c8e3b1e523fbfccfde33199ab1bd6d62fc5576bddd77a3ca84861ab530be2e0846200009b565b6202769e61f2a08801357f0de12405cae1b7df8d39afabe20ff4f22419cf5db9920ef8b7eece93f525c7df7f17f13e9e6325354fce91059e4978907d0351cc8e7fdaa849666c119113634fa6846200009b565b620276f161f2c08801357f0ae8eb571f1d0b8ef760a7355a66adc9f9dbec8dd33df85b43d0121b06f8f3827f06df7e4150c6f5e54a26349a869fe020c12e5cf300dbf24bc95a88eac12a90e8846200009b565b6202774361f2e08801357e61e6098d981106e837f7676ff416a8cd738cb8b53aa05305b932468a0df2a87f149d58b6da8fcde9255535221c833e8a148dc80daa0c394476842a0d1ec2503d846200009b565b6202779561f3008801357ee76bb9d8d89b14ba97cc8878bc113378dd6d1f3bcb9e22f4af91161aea6ebf7f113950cafb8df1032a11814a04fbf56e45765eb3ff9f441c979b051548eb39cf846200009b565b620277e861f3208801357f1403cda27061c501b4b6942fc1d382f9b88d85c85ceeeb4ff4d52e3e551d095c7f2638f0087f4b2e8dab85d70a47e83796163747869678ebc00dbadc459aac140c846200009b565b6202783a61f3408801357f0b3bde4260fcd7aec2f8b116d316fa05fb8ad23cedec2a10f38e57bb7254c9ba7e809329bdc619a4cc267c97774457fe2bb1ed3cf461bbdc8dbbe847de286722846200009b565b6202788d61f3608801357f0d5d70d5b71a7dbd2ca68dd25d6d997eec2fd237969289ae801208b974daccd77f1cb7eeb215884085beb72dcd5cb553e1c70e4e9a0078523491d1a1d08e36edab846200009b565b620278e061f3808801357f17fffb8f3494a7d1ea469e4efb72d31eb1dfe4202ff1d24de29cadd179a9871f7f288c6b655e390c39417a5ff4e0cef52ecfd5e12f07ff112a01287d794b464ea0846200009b565b6202793361f3a08801357f2639e77f9c02be1514310d6606f829c5ff8ad2b1841d93bcf4c360f4c43070a67f08c3ac219498a041de77cd32cf22011fe4067e0a4f2ec03176b671c176850129846200009b565b6202798661f3c08801357f173ec1c12a71b5e3328bf7dbb4dd21fa4cc01aa43f28a3a2fb44ac8b1ab653117f17d6d58cee5770eb057d240a2d4017397b57ae8a63733f766edc6e287f40a202846200009b565b620279d961f3e08801357f15a0c30b320163feb66cafdc9ea0430646de11ed35f2abad6d6f6a69014e05257f1840d92d51bc02cbba44fb39defddf25c49fc591dc3bed816d3ff45ae21c6f42846200009b565b62027a2c61f4008801357f0f22060f6fcb317335369ff2ee2ed41f17fd06ddb354c131231b32280aae7f747f151cb7971dc2e91ad419f9ff547463d5b4b379cd8d8895a78623e63847f6819e846200009b565b62027a7f61f4208801357f0c64895714882aa913fcafac1da431414362f4aa1a0ac73183b117d3548c7fb47f1a92d55e7d6170cdbb9b054360fedf95f06f1bcda7983162a2b1e398b142d1f7846200009b565b62027ad261f4408801357f2347db25ec489808a112a130b1db1cb068ff8efa0868c302a4a238562d025cc97f01d4f540097082dc3934de93e52ea0774d1b96f58c3af38b7df01932d32b98ed846200009b565b62027b2561f4608801357f1cb018ec6deb7040858f7273b63504c1b22d4104c5417c58ee9037f4539a12b97f225a5310f8dc73662c9a832fcb4adf7959cbb1ba50016c83fe6bdb235860b4c4846200009b565b62027b7861f4808801357f2e85baaaa278427173e7f7d644f55790a0655cc64e67f6a4487a69645a8270147f0ead8cf4e12f444fcdbd1d27c679469c16c638e25e898d130c4b92abc0c5ad96846200009b565b62027bcb61f4a08801357f01bae4318dfc93deab0012a99fab28b753474c00f0866a571a089909f01a8c137f2ee64b53050fe544b378bd65c152743a384495abdfc728d78a8a3c2b79ac4c60846200009b565b62027c1e61f4c08801357f24d4e6c491bfa34afe81ab8d9b3cdf7597c5924266ad9b7e0d7692484889cd407f09a6c69c5c592edda0748da9f735900a9c62bcf1f9158f643d736c86ee48f791846200009b565b62027c7161f4e08801357f22e02a472dcaf930643b41638baa00f47161e93841c19308726f3d47de40fdb97f2a9550858bdaaec9664d9371b59ce1114c6ac0db7b4302c26bd8896adb9f5493846200009b565b62027cc461f5008801357f040aed7ad92e888168d0eb35df53a672405f2aaa4d5955d414d75f5de456b8947f2241b1e4d60e1f9c0680399dd190daacbea8c48ce8bc299271778703fb587ab3846200009b565b62027d1761f5208801357f0993bf58953065bab6e7424a05f789af257b80926157c0ef36ffda6057f676c67f05629f33da20cd23f4753975718d1e60e7be70355fcb7d1cabe222e8adcbef46846200009b565b62027d6a61f5408801357f01e7efea398a1a5c70c4c903673c470660eb3544107da98dce98fe56066bff747f1811de05e2ec70bd644a2706fe16af5876fa4b0677ece8d212f91456638f8335846200009b565b62027dbd61f5608801357f096fd64c5f37c01da3a8d64521f23d15133fbbfcaed46e42847badb6d73742f17f014368c4e658a7856a2ba477d8882e47054280b2f41befaf8eda708c3372debe846200009b565b62027e1061f5808801357f091fa639fe97ebcef75e526fd01f4147ee45db3324cac793562be1d43124b3667f0580872c42f71cd6d5f44c2b6a80b498e63bfa7a93459ded1b984307d405385f846200009b565b62027e6361f5a08801357f066c79939a583331ac088a5be854b3e54dd837fcd24472c3168fc62442f324d77f21c3801a5191fdb5e222e1d30b624709e7004e62ca15a22ddf5bd4db9e42cfa6846200009b565b62027eb661f5c08801357f0e891bc2788394aa44bb9b6b112f18d3a434ba2945969533b5a6c53fbfdd598e7f28aedb61f39f3668d93e19a038c26a8b6a62a1c297cbadbb21e89fcd984f1012846200009b565b62027f0961f5e08801357f303cd7b438b7f0d93b043a53e3f295ffde655ac4976bfd7a9ff57de4813d30027f20b07f9f2ef62906a094d5e631810f283e7fb1ff542de84c6efdde22e67ba201846200009b565b62027f5c61f6008801357f2310732633eba0378eabd4fdc9427894fe7e785ed77f5d229d1b784c10a51a997f074b7510637a530d1b5e1db17b919232dd39b38e7066a3f4f0eb029c8611abf9846200009b565b62027faf61f6208801357f270d7108c19e1f6a04c3a4d17743ffe75c7fac68e700b464a9e4c107f07167807f2ddd763fd3b0e0c2895a371ed4b86292938a70a0f330a55a6eb7f6dd1cd5901c846200009b565b6202800261f6408801357f15a064fd35afc70ab15ed104b1b24dd68bca6883377ea341565cb939dd428c057f240c9dbc95298bbbd3246681352a189575340770a86f7d09895f3296e3a36c97846200009b565b6202805561f6608801357f1618c08e50364b70d1bc88ea4855d0651751e9e6dbc05cce1dda15ea4a561acf7f2cc9f21b47c38229a9e49a79638e7402e868a7d0a3b0fbe2b768c2de44c0e75a846200009b565b620280a861f6808801357f15a2e6555f217d7f1fc45c4126bd12e26164bb849b1e200c0c3eb4f5433711ee7f2305458ff3a839f104581765aecadcfa8bf4759cb92aa9effd889ab285c4b299846200009b565b620280fb61f6a08801357f1039d58f99d88b1aad9939013b130e503e58ca719a701c34883619acbd69f1d17f15baf4791b005b6125a91ea2031e8a01a9e5e9c29244e0911167c19ab2743f01846200009b565b6202814d61f6c08801357f0ce73b9449bc742bd21603c7836df9472e764eb898b91b55e4d5eeb8c7b8ac337e5857c0d9d89174fc5caa54e7dbfe07db7b55a473c44acf7b161587a6bca220846200009b565b620281a061f6e08801357f0bcf19b5066ca8d624b9ac47e86882e90b29835ad096ebeef6a953410f3c25f67f113d1fd45f4c0f72b4000c3a22d6525464e89cab3462990422290a24d6387308846200009b565b620281f361f7008801357f1518a88fb59d19b7dbbf9e2a25ba09807f252e43c60bda7505d448ce32df3f0c7f01147321adaf50fd33a1b054bec250e50eaa77c70833dfcd272d0bcdf68ec5a7846200009b565b6202824661f7208801357f2b068b0771fcf9ae24e6d08cd18fad335fdea8b1a44650dad668996b8ad524717f252956be8b38b53620890f208717fa09c1c5632d8f7c6b4d1e418b1597b04614846200009b565b6202829961f7408801357f29b1c8347ab9180f2fbada9edad2949d8a9fb3d91468fec4c8fba45fdf32242b7f1b4f167e483a82ec2e14933b74d96b5ad88f953b65f31b33d324483ca3e0380b846200009b565b620282ec61f7608801357f068b8fa97a4e4e96b3289e1191137321e814aead77a6b09e98f7500560efde307f23be71b9d6cc930a7b518ce108388e85c75273e3840e4dafcb5fac1f3e79786c846200009b565b6202833f61f7808801357f1095370835f173109a8492a0b6c5052548c00e6400dc94fbff3d2004b75401ea7f238f6c406235496685a86b93beee43894c9faffea6a292c0988b20496da79fc1846200009b565b6202839261f7a08801357f13da5409f6b00153540e0ee35cf7851ddd285b22f6a65cf464ccc292ad128c2a7f3011dd9b944178bdea9ead89896aeec162db31d4f16c053906528cc9aba5ef2a846200009b565b620283e561f7c08801357f23150eeeb87566b1b54bc6c969b5ec6d78dfaf06b94371687bd9381183d3e7537f1f93dee646847652438ae60b93f2ecd7d71fe6bb54405e4ffc55adbb871bbb95846200009b565b6202843861f7e08801357f13f58c5562cea2f18a3b0714c4ac33a308ddc7ee7300d5f29bad84ad0c96f56c7f25f334985af280478a62887f7bdcad490a8811475a3728c7346af85d13ec9892846200009b565b6202848b61f8008801357f1541aed7eb33e2662959032a25dec325f867a7c149b93586d0b0e5b4c0fd2d917f285dc9a3bd64ecc3d4b68c4956fa315ad3b17ef4e9af9a7f14b921401a359172846200009b565b620284de61f8208801357f0bd793adee198f6533cf508656b3af23d9c28e39df038b3d5e6b150819b31e087f0bf8a696d4214ff762b0752c8d61e40650085268d2267a8721ea3bdf006fcb33846200009b565b6202853161f8408801357f10ff03a035c9d5b21f778354d86d0ecd63b562cd7848ce8d55aaaa8edeaf3ad47f2effd61c0402d42f42c9ebadee8eea3956361f81a435bd7812c4bf95d7164ddb846200009b565b6202858461f8608801357f1f8c7804c6ae14dce919ec263669f2e21bc2e3f47e52810623def46c605728987f0cac93eb0f5a71d8116bd0eb5c1dc06f975a751d9b3e9a2fa809e67ddb8b6b75846200009b565b620285d761f8808801357f28d9ad44611903ce32b773b7af3657384dd5ab83bbbbe246d2b9a6184641fe5e7f164b4797cc9990774354570bc91ed71c140809a3f087ac82dad30c79a6c3f028846200009b565b6202862a61f8a08801357f08abcf14bd361c276e9f2f08806f65669b55b0f2886c6e12263addb1e4c2ae737f1115dacbdeb8538b8cfde136e90ffbb8a498efdb661e43345459224cbedaa76f846200009b565b6202867d61f8c08801357f2a61617806b8b1b6cca1d54424400b0bbda87722dbf38ea9780ae6164ef152037f16db5e325f926e9b0ae1107b69b3788559d92450b1d8c52d76b23278f3a70517846200009b565b620286d061f8e08801357f2d37e80fb75a963f4369304f8018c5f2266fe00f70b3f534bdb887caa6039e167f196d2b489874a099bc44794718d01f08882c401d08402f0fc3a73d479468678d846200009b565b6202872361f9008801357f08d96f22e010f9365e77befbf9c296a7384cb51aa3455f62d3b0207126eace1c7f1ae00e383be418af5dc5867971577770dc8acada2ed2bb9fe54a62bc1e976c34846200009b565b6202877661f9208801357f077a9fc61bf4122906adb26f94bd52a67f11e6efe369d1e0e73a24225408ef637f0171b96cc3af6e5619d1efc13298ec06087b2949e94542afad90b900528e9229846200009b565b620287c961f9408801357f1ad5c507a6c2771c4869f0ce04d228c34d0d38564020e077864ce505656195847f015dc40b84c10f76502f8dee40d80a946d5d16153d957e63daca191763d6c194846200009b565b6202881c61f9608801357f03574fc9d95b9542b529ff94dee47dae6904d0109138589875d4694e495294887f2d7e95c65b092782fbbe516df5ba52700a6e1548bac121fff1e2d06f29deb496846200009b565b6202886f61f9808801357f159c31a44494d405879940881e92f64345d647157234f1a2b2cc3d736bcdb8d97f1b129bc1cc2a2074bb3fa3c8f215f9e96c8654019b0ac60e88948061059f480c846200009b565b620288c261f9a08801357f06ea6a462558ff722c64637c46d6b75a10759971501b21eb906b7d5d694472be7f2ada083dde01e42738678fd0913e47b4b848285e3414d187033d34c308c8510f846200009b565b6202891561f9c08801357f1e66a4ffdf0857eef65110d52e922e6c09c65875f1a90ae909b92080b02effc17f26b690ce982f9c7f8bc67217b78adb18f15a9b21c494d3e704e82b0e7691be33846200009b565b6202896861f9e08801357f28a2b36ee05523168b78b025deb68152f272eaeab69fc6f62ce4b66730d41d747f0aeb06997fdcbfc365dafdca2f1493235ad53c1bf8602ddb8bd0d125c112a5d6846200009b565b620289bb61fa008801357f21000ecfb03d8fd96a067b90887995e4937c5bc99f90fa627744a27a166e66ab7f2dc8cc373524da8b306bf39432497b020299528901691a1fc702bfe28bd2459b846200009b565b62028a0e61fa208801357f1975dabd4621eab36f12fe8ca2f0d79e70075e8611bcc7ced5e4d4aef1dc86e97f2f8f238e0bbfe03c277492a67c0bb438911b04ffa83c5b46d447cd0850cdcaeb846200009b565b62028a6161fa408801357f1db8484b7aa5d9b06a64321e132b220d27f4d785b6f85b70b541bc0a5f364e4a7f2e562a2449aa3ee7e0b3d5627d4e24f9a1fcc392c90c258a00fe6530eb0b9946846200009b565b62028ab461fa608801357f2c36fe77b3928ae87142f242b9b80f7cb8b36f076f72a982fc8c079f0f6f28ee7f29443baa0eef429f507b84214a54fddd1b6e329225381b21fd73162fed3a07ff846200009b565b62028b0761fa808801357f2da3da46a803da0bd43cdc6afbfa5e42ff0ae4172cd9a2d741694c09b7b8b39b7f255471f455037cfefa10006a9b47642cd7298915b190897ae77053316ecaa493846200009b565b62028b5a61faa08801357f06feb79ca69e10f816389083a7a4d2467ac0332ea1ff9034c1150613e154968a7f3057b9339a36fb6edf3bdce16bdf8f2616c5ad9e9dbd4d52d14adf23793b1e22846200009b565b62028bad61fac08801357f15d97c18a1dbb495212d3bd73a25bf952945e088b6931d51e4a85aa7cefd69e87f306393d775fbac35cbf95e9c740613fb78c99b4899eff29933519b48d61e5960846200009b565b62028c0061fae08801357f197f12dbf773322628689f49e5c8c289002fe9afc804b0197c380a1a0c819a7d7f0e291cad5614e63031a7a512082c7d00450842e822cd563b7a08753cd51e5b5b846200009b565b62028c5361fb008801357f2c5b92b5dbc922e1401a251208f6bdc545eb4ca5cff37bbd0fc6c6ff084c2de27f2bcea367a0f80ffdab595bcca5a6888be74a795a7b2d8159e93c7afaf63350c0846200009b565b62028ca661fb208801357f11506982ec8e9c0edae8a6546912d1901d19ad7d12748a37e6184b19ac2b60887f0eb21e7ab21e93817a570415a8776304d5b6832ec067d2ee4e7a740f6b910117846200009b565b62028cf961fb408801357f0c632b5b143aa4b5aac5793e00392bfa9483798b4a9703664fdf66524670a9907f08d0716eba863e2fda5bc72983a684957cd1f30618a338f1887583a68d708424846200009b565b62028d4c61fb608801357f12fe983793f9ce7fc7f2a632371762a573d64211882e7a9f01562d5e2ce24c3d7f302aa41ff49d73cecc7bac689f68024bffd97d394b1b51d3cadb8f42b15894d1846200009b565b62028d9f61fb808801357f1fa6483d3f746e02fce527faa65953fb27967ec562be8e1e477b70563946fa7f7f0a1519f5c84c10cab4e3620618b6659b3da4cbe10fb211dbb5bc6efa347ea271846200009b565b62028df261fba08801357f11c849eb1673228442df3eba784a44391ec6b897ae2a3c52ec8dbee135eb301d7f1e582d5a6d3afe83f755a4a0cfc2590127c187d70b1144e332ddaf9bdea26cae846200009b565b62028e4561fbc08801357f0cddf4ba8fe895e76759ce2dfc70de63ba13b5381633cac30783113039fc5b377f1228b182aee4fa6ca53de954c6a173ba33d2382ff5cfdcba56e70031a2e009bd846200009b565b62028e9861fbe08801357f034ed33053cfb08cab8be1c0249278b2cee2572dfc3e88bd446e42bc3badd1cd7f09f99b2b0e7dc7f8178193201f6248e8d1488832e1453a61f81ddcbc46f0e394846200009b565b62028eeb61fc008801357f15c8fc79dcd94bc3612671318222ccf39896b5abfbe6315c7b67cda7bda2f6087f1dee15f189e3ce28a7990dc4b8853562f5e5ca3ecee64055f1fddda6821c4e14846200009b565b62028f3e61fc208801357f270a142f21d0076b824be1c89e0a195ace7465cf5dd3de44d1420699823822887f174880baa02dc72f4652efdcc88ee25f71c7833f8246d146f69ef155edf38061846200009b565b62028f9161fc408801357f046e53cc65639779dac3e6be04ebe6a99c01afd6f812bb50c24988264b3b48407f1be0891e8e23b04e4b9ed2de06b7d199f88658ad652f81cc374d1fbcde2a88b9846200009b565b62028fe461fc608801357f08c52d1399dcab098f67213b97d83cf9bcf8ccc1fa08cb06b2ca7e762c32ba157f1943aca5d924bb0d761f38d8bc687063a35c39004001b0eb51acfe8771bf2384846200009b565b6202903761fc808801357f26dc4a3f79f37104dd0c756811b108c2104c9850a367e683e527d7c7bba4b9d67f0bf2e3e68f249c64a7532a00d27f740ebbe2610502ff1d1074605810814a3bde846200009b565b6202908a61fca08801357f1602b2a72caaf1501f1cae2f7b3e462229675103d5db4605fb5b3c4a6582f4997f09c41d40d7fe5c6ec62316f61b4a70c259e2ec044d8dfe1e5d017402e742cf6b846200009b565b620290dd61fcc08801357f115e728dcf8b825531716e0833c18662031d58ba49f6321b5709c4867331538e7f114b7dabf3d87687d01c7c40d427d54a2f49af822af4b201217f8d7cbfff1225846200009b565b6202913061fce08801357f1a6d9ef994bb7208be47deb2c00c5b80dc05455f962839042f3dd87e34925a6d7f1dbf4294d671d6f3f4935de6ea468db1859d56bce54aa06ddd6c4fbf86add71a846200009b565b6202918361fd008801357f1ac3ab5e6e7db3142d8601766404fbb53ed0bad19ea9bf65f52b5bffe3f6c57e7f27d612ba4f5ec49f70ab4d7ecb0277749de1c42286ba42ab20a944c3ac8cfad4846200009b565b620291d661fd208801357f234b6ad753727088300de8f68aedb7fae52e8f26b124aeb4a8b9680e64fb24507f2d7519fa694dd4bf4061837aebc1183cbdd018f157c534593d1552c5abd4a458846200009b565b6202922961fd408801357f295b39f0ef4b5e6edbfb077adda6029a820a151919c32c0b13701308342dbd697f2d70f2b2f5c53e752ba07a02054a51b632cf061ced6e0d3dff132a5d2fde1e01846200009b565b6202927c61fd608801357f23a7e56d4a2ff01aa18fb7179f1c6cffa56295753fc9c06754a7de9b2f09993f7f03dc1c84740d2e60777db2a519bec769d272fac95cdc8b59e992d4b105a53de1846200009b565b620292cf61fd808801357f1aecc509e14aa9e7c7597419700332ab78799ea7ee4ee53ef23a6a614ea33ec97f0e0860927a6aff944bece1b8ba30493cb6348a046880968af07144ea18dd4d0d846200009b565b6202932261fda08801357f122a3efa5c0be4275d408140df6fbb5424c2b1a868c0329b32310a0e5f603c737f1d2432a23864139458126a8b22e99fc3ffd271d67a8bddb8bdca31f27eb4b9c1846200009b565b6202937561fdc08801357f23db9a0d1e3dcd69a0a0fe8f768559d43b7654bb80912e2d6c5d3f8c310cd51e7f21195117319d2a6160c88c0f34d86f684ea2b63b8e76a98fc89b4ebdbd02c368846200009b565b620293c861fde08801357f129d427abc19cf23153cf2783f93a9c9b0af55b5bf056d46f5e70555a26de3ad7f195f126e24a4f688a1e489bfc536fc7724bb6cb527996cc4cb294d2a2566dd53846200009b565b6202941b61fe008801357f0eabbae1d8040059cbf239766ae29af80e6175e8d0d336767b4339da8add7d427f2191b858b534257d339fa774a150f479dc01d5117f507556e545be397d09a8d1846200009b565b6202946e61fe208801357f1b5984703fa362b420adf6db7e9b6d4d5eaf34f7207aa1b76be56ee65c87101f7f1ea85ea75f48e9a5d0d6365047fac0979a002e6b03e1f77188e92225f593ac65846200009b565b620294c161fe408801357f2c991d0759bad678c14105ea9ad4ecbbb94cfcdc353775973010b3af1d53c6317f1f80db26331eb5732708931438ac9bdd9895a08d1de0947a80bf0705864e4c8d846200009b565b6202951461fe608801357f20efc45e60b05838b9faa03f4e6d76c47da39fd74386f1c86559ce1b7bbd22f37f050e67938a52b6ac21394e2a0feec53d3733b4de34be85c8d4e9cd9707164461846200009b565b6202956761fe808801357f1b2ed3a774b3cd1685ff6cc612479eaaf7096d56978ccfd9506c10aec293c6db7f1b0bf3deea04794ca5054956ee42e8e636de7e3ee83569d0c7709cec258307cc846200009b565b620295ba61fea08801357f1b707ca8f26c4d7f40dbda49858ee982e687bebdca9c8d04ac51f54deb4dc5987f247756aa7a190c98a1244eab6c60b902fd37d3b6b9c5e0e7a2129a4fe58c4ef5846200009b565b6202960d61fec08801357f1c1522cb25a19cd1308069b97b42f35bc1a4ba830ba912b3c263e727b1c0525a7f13ee4f0e80a77464f1007581eda185afa88a9584253c3099c3e3e3337b9a5ff0846200009b565b6202966061fee08801357f18a0a8a683e09e7fc6d402c43099dca07d3a1adbb55945e127c9c53be3deb0497f305a60d8b905ca9a06a12ffbde47c4c1807f608157cfb0f5efab4c66db3aae72846200009b565b620296b361ff008801357f2543f222856e5414b2f52036a9460a6b317da370dc69b6d4e3ace5ed982388117f2458c381f00dc582f9eb24b02e6cdec111a078407505f211b71e5ef484bf2ae3846200009b565b6202970661ff208801357f116538eccbfd09c76a1310fd44e561ddb8a165c7c897180f8a9d7973aafa187a7f2105fc83daac6b64b5f528db782170d986a2a7d0fa65327511b8436a814bcc29846200009b565b6202975961ff408801357f2ccf971af1b4dee60bf0f99b39a8e2e09ff55f5559d125dd5c5944ae6ba000b67f2733388189948f253b333025592fecb7ca8aa6119fea221dea6dab946c294bd7846200009b565b620297ac61ff608801357f04a6597bf012ec4bf7dcb6d9e06b7928ccdca83719be9eddb40d6113d371e7b87f07bbda13001a7c3868def392778b88dea0d27e87756f178c8bba83311eb2dafe846200009b565b620297ff61ff808801357f18a820f070d7d71c1442158f5550c36798ee28648e479b85110494b3eeb2a5027f2333b68eefd0b96a39808b64afa03254c6fb8685347db0c8370920a8f4b9a779846200009b565b6202985061ffa08801357e27e2a0f0c1b86d876b575d23233d6db453cf0b23d54ce83354094ea63549827e2f3816b989ab98046f3d6b5011df31139df742a95119151cb7bb4802714556846200009b565b620298a361ffc08801357f0682058f64f9075c24f00eed7f15f6231ebf39dff09f0f00d359e99e6c0686de7f0bbe87db368343972c517e88a5c7b85cf86fc2a04a2501b7d6d65f85d030943e846200009b565b620298f661ffe08801357f1d2a072a199dae1fd982e2ecdbdb15beb013f5adb1dc52ac15c8253c391e69327f1d12c7cb6c40ede18c14be4676171703c956dd874e51434c25293f3621213599846200009b565b6202994a620100008801357f07bf5c75f013e0d34a57dca8b5a9ac72c8d73a5ed0512d1b55c0de21ab1197ac7f0a63306846ec700885b2cadc3c75d3a7daf4cfdec4611cfee06f97160b71f067846200009b565b6202999e620100208801357f19cb0799222b9f542eda0a2ea50355cd0ebc34a8ea4aec1fd332eefd252d7b487f08177a45cd156f41f73366d55cc5464d401ec1ca95b044bbbf7dcf7f59ef2f53846200009b565b620299f2620100408801357f0b69220743db30e94d0f6d53d0a6c4fc1c2a79e82eb67dd28eef1952d546120c7f2e659ea250441a7759f95ffcc19f6d5ab434691e4577aaf99ba89ff2b0032293846200009b565b62029a46620100608801357f20a96ef771a8f38c205a39c87bb8590a94a9fafa6d35d96466a70520001c1da47f25d99ead2c75da115acfbec6433e1a4279f9dc7f38eb28196c6e6663028633ac846200009b565b62029a99620100808801357f0bbc029c854b2fd06266cc27be2edb81df292ceec91ccea4311de67829cb5a7a7eb05a1828b1ae8b8e1cefccd850e3ef645cdf14f0096b47a969842e49072e67846200009b565b62029aed620100a08801357f12cca0a5df77c07e9311ae46135ae1e5dd01c7ca2b019df8f73dbd835ef4d71b7f06a389e769894c045b6c1583adb190a85030c520b006297f1de225c51000076d846200009b565b62029b41620100c08801357f235c8eae7c3288b23775452afc49ae7abcc335d0cac55fb74a703d54645335ae7f0d01aafe33e0286662fb4026837f6f6ebbc3c709394f62d109ecd1c58e721494846200009b565b62029b95620100e08801357f3035ff14b7e9cb1c4b3ce6b25a81b0b8467958718d59a48728c2c90a5f10a9b37f1bf9b95af45ed20853c822974c3e2f16d537b79cdc6dbb4b446d1306f99fe8dc846200009b565b62029be9620101008801357f294f04fc35f73327fe2905d9ff85fff0a1f21f85495b0e7f5d9efdb1c0b55bff7f101eed1fad0f62d8bb8436156bdd0c4fb3cc79f5a1f5201578262a264bbe361e846200009b565b62029c3d620101208801357f19b20e644a82ea96a89f6691c3f48f757e78a8231597c73bb9fe96ac7625300e7f11b34a922ce741792a5c50c1d8c4fd3d294cd7ed4f4eba637f914e83368baf36846200009b565b62029c91620101408801357f0808f9ee3b76e33f8d3477a413d913af4382a7300b314598ed20b7570d5e68677f2a71fda2c47b897ded5ce8b9d9697b848f0bf62e5580a1c32c8fa5e618b2c1f4846200009b565b62029ce5620101608801357f10ed565f9859b5db442f2e371862b65e9f75abc70db37dda55ea602edf0aee837f0bc86c4e8ac3e61e5b5c4575f638ffb2398fbfb5d828fa266e39f716084829b2846200009b565b62029d39620101808801357f122c3628fbf01908a26e6b67dd1c3dd13dd509ccabba20eb6d8860860a45fe957f2c4b8e322bd8ee0c3952d5a2d72541b527d73bffdb3161bde69bea77938afdc6846200009b565b62029d8d620101a08801357f271ef36ccdd59ba6b12ea1f976704ee7d9931333c72b51f3d5dcf310a50d274c7f1d820ca7a0275f69f2fb27bf971a570bd2e9b7c652cca8fa06fc7d8a970e694a846200009b565b62029de1620101c08801357f2105856b9ba4ec79d616c8677f8d538f1b238a48c2840e21314176aa6545e2dd7f198e427eae7a87a7693015101cb2d6c94dcef2cea018e6e85d162ada0ef1e1a5846200009b565b62029e35620101e08801357f29f273c296729debbd55546cafa8fa811ef72011c08bff4db9520d97ab0437847f2efa962a7eb7e9ac3c3593e59951272f5f5a5641d48c59b22730ea711de8207f846200009b565b62029e89620102008801357f2f26129c4a8ec9a69b6520a6cff8d9a0478a3087b057dee75404f811343ae8f57f16b42490f7872ea385ee579a5b00dcd2bcbb08b6a30fce513dcd70abbd4de45d846200009b565b62029edd620102208801357f123c22e178083cb17f71e99fb175ddbbb552cfd555e129e3db6a9d613512b53e7f180ca8121c69d1014d9472c54190ec09067951a429f9556e4e0807655ad52214846200009b565b62029f31620102408801357f1bda728e63e18255c21fc45e74c4fa0a5177c50b7fb460aced9ab731da8b6df27f060f706b8f20c145ac0a08d73d7eb77aa280da6d929524f3b3bba43d297c395d846200009b565b62029f85620102608801357f1a213ba99c50eb201f1f19656e19eef70202905715292db70d73c1adf6246c047f0bd086e9a54224c073deffa5e7b6f92dea030aeadbb4d9e978e2575c1f82a30d846200009b565b62029fd9620102808801357f1aee5ccffe038c773fca21d1bf36d2e141d96bbd12d64d3775c15840834552b67f29f06ca9164f2f88d8eb46a4a52582635466520fe622a76db8ea143e7d38c988846200009b565b6202a02d620102a08801357f16ec68b0a9f498856f6f4e924c2124cdc113bef1bd55ba9723e53255747ee86a7f30060c112f507a1aa7ba221d5a8bdf7d43b6729785d4d1eab07b3cd4e2fe2973846200009b565b6202a081620102c08801357f1962e82908d42a52131cad76897c2859091a515d2ca83fff8b16846f74db47887f156ddb1ce740a6be4880d5077db95f6a6388182b8e141dcec9941bae7be2a663846200009b565b6202a0d5620102e08801357f20c9ad3f653ffba8491494d8c3eb1370f0a6e4e3e09120e5bf0e2f61ae5829777f1f80b1c8f0f612fa9dca4fd742bd7b0c3a635e37a0c5abd80a4966274c240b20846200009b565b6202a129620103008801357f1cb9e08511c917f2d984d323bd306fdd8bd037c6570240c895e9c27bd56bf8fc7f23892db38860a49adfbc583a90762427f2e6a8c35cc145425d4b0eafe0b11b14846200009b565b6202a17d620103208801357f0af25ee5ec8c094dd1db13df0af48956fb693737b2e4f0788fe49f073c8a72417f0ef53c6c1b46a34fc85c4df984364f3fa19342c59beb9ce013e6ca4b3d0611ed846200009b565b6202a1d1620103408801357f217919a7f90341e8c697f05788a3107cf45f7b7d86a6060851e3f9556caec9047f0ba000033657441728b9cc6bc42481b529741403a36de7638e7228b2fd67e613846200009b565b6202a225620103608801357f2d46131c7bdda25b43d26ab9e91023f4f360ca92cc810ff0e0e2406f553885057f04bbdd65ffb60c619e0721c72f711c316e5d535336bbd2daf833ecb640ce05ca846200009b565b6202a279620103808801357f05d7fc30d89396cb15e032320db2c923f1229fde55f10fb082687750c5ecbd417f1b86130def06e923e66f6438305caef9d886db09186111811aed2cc5c47dd2b0846200009b565b6202a2cd620103a08801357f1c63d379a1c51602441d139d9dec28fdfcf3e8b647cf9374ec9e88cbd8f89d027f0a4af5077f77c5c4bd8047b1bc049705e5cee61d3f1f8d94074d5274cee793d3846200009b565b6202a321620103c08801357f0d5056f979980567f3b0c9aa728600c434e82f8df2713cb240a8f48b360d86517f29ae37a16147391d47e2a3a9c63b6c14a9f9662253ceeba6d102811bdbf05f84846200009b565b6202a375620103e08801357f02467e641ce11eecae052502d1724a4b19f9767ec7b789a6e88bc2bada70614c7f1d3cbb2e75c0fa7c2656ac6b6d8a8ae0e4dbf43ebf3044cc035f056edd4cee6f846200009b565b6202a3c9620104008801357f1e77d6e1a869078b0832a4b16d90697ddb566ed94019213fde59ddf21638c8087f2997127c9a6657009033529d7fab4c17dfa322da90ca3cab99096f9238834d2e846200009b565b6202a41d620104208801357f0d2375fcd6adba364456fac8e516e7f4165bc16639c20f5bf1a617bca0cb92297f1b7197d089a435fe915544e6625622af7b1d6ab3b5c9f1ea37361aa283f3a39a846200009b565b6202a471620104408801357f12ee358945e1621fea8441b6a880f3b89229a8e9163f427636db150638967def7f0c5041c9415c0ebc9fe0b36810bd4b00bf98a224e17908a832e1be4a1d6c3fb2846200009b565b6202a4c5620104608801357f11e894d2025cbdc165892842542b908879a63bed174cdefc0e24451b87d4de007f1b8dc4c9de9f4cfaf5d8b7b3d65c5f738dd34f5a113292b24a27520dde8c6358846200009b565b6202a519620104808801357f0197ac8516ecf5f8054ad85b5c977194c2d50fec5e2a02ca5d3e62f257ebb9b97f1341f6c173941dc04a598044c48d1abdebc8b54627be3cbf8a49cbfb65f39837846200009b565b6202a56d620104a08801357f21782f474e915b6f7b11ce497489b5cd32395b11183e04b1c160f443f64f5dd17f128a03db80f12f91df26065a13c534571d00db1c16a1780696eb1930394c1413846200009b565b6202a5c1620104c08801357f196633c8956528a03d987856de127381120bc1e4d201de78cdc08b833e89b4a17f2e70cb5898bce0c0b6475be16b73ae4b3bf8a69f96a943a4779223b4ce741533846200009b565b6202a615620104e08801357f151c0b99355d5613a769230eb98e50f1932d4447693fa607cd7a83c86c70972a7f14749e7a13d79af439fe12bd5128dc19f6461874dce49bed31734d49fba6dabb846200009b565b6202a669620105008801357f091fc4259e6a18cec71c11ecbabce69dcb58b1b65a5dec0bf3d31be88327cd567f27bb8ff26c9816657a38d45beea0be982b5303b7af02a28f946ea6558c9a9a32846200009b565b6202a6bd620105208801357f15c17f7596daa2b773d9b3d1538a9d36a58353e7922b0c99d9d25deeae39f0057f24be16359af58ec31cb93cd3edbf01b4470507faddec55b8e86ebf9ef97835a7846200009b565b6202a711620105408801357f1d9fbb24952d29ccc024281ce5417ed76bb4240f65a8a98705f17541b18158857f1c843865e90e2be6fd3af6538f241057d919dcd34da8d120d817c96a62a8370f846200009b565b6202a765620105608801357f1a196c1e57a6cd9b8a26e3045ad1a971df7f6755ad72bcfc7d8342b4b0baa2477f266969f92e468e8c0d023bb1b3131b5ca5c4ddccefb62575309144d84a5529c3846200009b565b6202a7b9620105808801357f2d3284d64ab3beea1f78ba6709ce27fecf344906a4af188bcfa1aff3f76e06bf7f0fefd55c23cb5153242374bae83da18686a758bfa88c8d0fb722fd7b6784cc67846200009b565b6202a80d620105a08801357f28781c3fd7ce33a6ad7a9b6347fb78a401795f98de71d7b50b6c096f70a7de637f1e130a5479d09694c6d66f0ff2b3be1a49b4b57bca806b0977743b1fd5ef2921846200009b565b6202a861620105c08801357f056989e3d9c149f0293d82bd02b95dad4b3c3f267e6fdd484651ab1038dc291e7f24a21fa1d987f8bb3c0810d333f026f61199b40f07f2de34f9e9c974b64f9863846200009b565b6202a8b4620105e08801357f1969d4746718cb813ce73f6858c061acf6e736ea236b8703c23dd1b8cf3867d27e9e699a09e1d88cd9b80d21adbed49b7f49c91b069c9245908b3957b2eb4974846200009b565b6202a908620106008801357f0d6fb1fa352358a6a2f6ca7ebfeffdba7028a9af83a4eca911816be4203cf37b7f19fd1ded38635333f46b1dd340c967369e2b677aa6cc4467855404f0260a4a3e846200009b565b6202a95c620106208801357f03d181a75052782ae6c128f587ba2d2122e4080684b82564e57ec0fad20894ad7f09536ec13de47f04659ca7d502ae3a87404ba1245151fcf74fef20171caa0e06846200009b565b6202a9b0620106408801357f0a7126802b44c059aa17a7a72d8167222ee0ffd8f7cf6a0c86f530ab863e63b37f26993f5bd7fdc094bd605c2320b6b127a14808075d4c32ab8e287dcc7d40ec22846200009b565b6202aa04620106608801357f1443469e95bbb6576c42296087b1aadaad5b2c8bab3c876cb1ef1cbc3d470aca7f22ca1f33398a0770f369802b199524e90930f0f0a6f259414cf500fd5e683232846200009b565b6202aa58620106808801357f074b321037da065cef0d015f6c40d36c007d87a2e40167553b8c622cee3f21c87f0e5bd4f9fa1d064abf6ac9d63dcd3a0a0de03f8ccef750c06e9347d554c06d1e846200009b565b6202aaac620106a08801357f02926191d9a1d31aae28e91d48fa9ce5783408edd589588258f08f8556430a167f0f88254a5c59da64c20891e1566129d7965d21d266eeea26848a003066216df9846200009b565b6202ab00620106c08801357f0bebe5ae350ae2c523136229338227652cae89b51a650af7e582dfad368fce9b7f2baf0ef4e594ae5c86b0faf0028076cc6dbbe6a873837c042268a75944806e58846200009b565b6202ab54620106e08801357f276de23e1a139e48be9742c91406e0591241bce5521785266343562f7a6dd33d7f0563fd8e84d263aa9179311c130e6df8161edd2c0f628ceb8da16ce12ce10587846200009b565b6202aba8620107008801357f1a2aa2176194ae1e02055e5fce8ec842bd09fceb239bb560318a2e06bd11ec577f17b37ecdfdbe09af6077f39affebbcf4e80d6d5d841ca25004fa9326abefbe94846200009b565b6202abfc620107208801357f2a706e91d2e040a536be2917101d0fb2821953bc660e9cead45d4955abdfc4d17f288a7d9028bb426954dce5e6e18747dac1aeb956f643c26fed6176cd0a1effe7846200009b565b6202ac50620107408801357f050cc0750e2d6d78913ce7bea6353c24e3ed5c21ceebe776f3546b81e279985b7f0f83d42a3d1afc2de2dce34172d3548fc1c5c3b3742101c319e5791898241356846200009b565b6202aca4620107608801357f2917902eed9d7042d1d3bb44114cc16407e87d541f671f008ed6875a216c75247f2af9c3c649c7ff2f7ddd673b155c9eb24b253a53696de53b76886f932de11ec4846200009b565b6202acf8620107808801357f1244cf51fc9904f6564bacf338eb8be652fc1ffb9560f1f5d8342f2b667ed9ea7f0aece9e4fea0f49af37744661eae5da7f198fde013dbfb80cb5cee3412f4524b846200009b565b6202ad4c620107a08801357f0757e5321a112357bdd18183180f58fdecc78fe20bf64899764c592802d0562b7f2825d9ae82d55b5dc92ee934fe422b8488a9d94545568ba63228e167b93627de846200009b565b6202ada0620107c08801357f13effdb0891ee902186821f7258c6080a866577c0a2139ca3bc719bcdb5549457f30495be9826843b6a8a6efa91001597583f3553235301a45c9d0b693241ae632846200009b565b6202adf4620107e08801357f19703f1c3c13edf11d01aae953924dfc14e3368eb2671e328a0a705975dc741d7f0d218eec7790601797f5def39fd354e823b7c44c37bcbfe632e17c6ea16b35c9846200009b565b6202ae48620108008801357f21949c54076cbf65e243c2e5342d1e5bfa5ac2c1063d774d3762bfa0d80cae337f0279b41de067a93342c6d3261c029b02a8882bb123f222408832bb18d33ef586846200009b565b6202ae9c620108208801357f1f82c34a6e64d8c740a0df5a69af18b3ad4f8b412a98d360628d42aa9b1640e77f12dc505b2c815886cad84c1eb371dde73f0665d64b93decef45e39e1df7716cd846200009b565b6202aef0620108408801357f03fd158a06f8a8c68001a5ae491702d463ee4aa1d383f18d39b82f905ae4794a7f266a5342b2224e9694b2afa99f9cacd8fa10ce4d1560752a21ed2a1c04f6b6b9846200009b565b6202af44620108608801357f20e9bad2e9192805e4cbc18a39c41ad8a6c3b5bd092b515e759abd89d558fff17f0ac057cd64d49f981ccd150ac7397c8ef955ed218b355e11c8a068f12f64ffda846200009b565b6202af98620108808801357f15d8a21c7025fa34f9e415d856ef2280cc5f6e2985e1a7b2d2f82453bd26a90c7f04424f571f9daa081ccff7cdc89d36f107a4f07b77fee2280f15b7eb398d4ef6846200009b565b6202afec620108a08801357f24b1f4f9429c1f1dc7376c458e48436e9a5a09c757f011fd8b7251794fb9bf577f0e6eff5014995ace008f48b10d95e15dcc5e93dfeced73b37c5f4ac3fae02835846200009b565b6202b040620108c08801357f2e2845f57d3f7d062358becf7345d7de0ca19dda1531233caca996c97a84120c7f12f96464843f8f2c4607a4411f5773dcb470cb37501773cf743b7d0fbebcccff846200009b565b6202b094620108e08801357f152adaef472ba7f00b693c4a6b972e8333879816f2f1dd58baacdbbb8ddf8c317f0ddad32c07654639e92a210abab2db6338df58aa6f7a7749a4c6211c733ad291846200009b565b6202b0e8620109008801357f1f46836f514326ff74d61a9e84abdbe902a28c4c66968c9e4e84c1c8f3aab1d47f26edbc8c2d717a6830db1a7d7108d6cd1064eba56e6385d947dd3f0aa7e7cb05846200009b565b6202b13b620109208801357e9e92b925f518efd7f54516ebcb9cf4bf30d3157d5247c9535db3c6b35a8d2d7f19dc854809f013dc87bf0edca4a7e1d8aedcd2776ecc0ebad89ab7d0149dc106846200009b565b6202b18f620109408801357f20430fa5ba9aad1f09340fcef0ca0cf836129964ca270e0ed608ae080428e61d7f2b9be39288c361546497d8ca3d8fb93fb9f21fb0c9800b93af33f1f3ac381c34846200009b565b6202b1e3620109608801357f06b5970d2cb585de2dde928d099a843d89df94665b217cd97430d53c99489ba97f1653329ae2ba3e36f05a00975abe88efef415f1313d7bceed066c7e447f7a5dc846200009b565b6202b236620109808801357e8b5ab3549a1c89936cfbee5bf9a61d98fcc1a20efa2ff7f2da8a75095b476f7f15cc26d444123723ab86c36318f06f00ba9c826525466b9db98a68ddeabbfeae846200009b565b6202b28a620109a08801357f042f05a9d4095e1caa144db9b3520e2987f26e661ccad605b083566e17205b3e7f11945b0b503860b6ae1832233bc0468b6c2418b5ce22a038d96c791dd8b57a0c846200009b565b6202b2de620109c08801357f03190d83520bd70c55ea5c6b31006c967632c5d37076eaf605a9cc29e5b2c20e7f2f3a56440c0ab4d1e8b78dc1c3ec97923a99f397b035a4a822c6548caa823149846200009b565b6202b332620109e08801357f1ec9e98907cb74a25388a2a0527b8342c3dc647170137755fb935b20e2ccb6d87f0d2f05dcf8d4e9d57f9af093f9a07257e97ebc1baf22c49fec79268d0c0cad16846200009b565b6202b38662010a008801357f244bb0a1d723a9bb5d3361a8ac4056fb263ff413abe76aa0229fc02e940c3b137f15e97dca915fa269e5a6b13868792d77f0784244a6cbd5128081569c3add9718846200009b565b6202b3da62010a208801357f285feba1784c9ab92274d2f70b1f1bf591dc41a4b45d76540887721cc0da0d5f7f2a47ec7e8581d18f4ad66338d38846cdf51d3e10bf66c9129203a7500ad9c41d846200009b565b6202b42e62010a408801357f1d2f3fb7ca9054bb27339c5f3b3a6cb5691edafe21ed63eac8d5590724e654f37f288e605ca5cb1333b7a765b92bb753e6180c0f1c811261bdcf0b6e742e2a7d33846200009b565b6202b48162010a608801357ec3211cb12e992b851c5ed28aa0812ae39d7ace41209f85a2cda4ec50bb2fb17f0e2a34827e0e96941580bcdbc35392fd741c2377ed3a4fbc77985bcad18381d0846200009b565b6202b4d562010a808801357f1b574401eb08b2aad5e9dfc948b45476617f7fabf753f64c0f0b4156f49cd4467f17e1fcc44d6ac9650f7fdd02ae34a875ce9a98319604e3e8b3cf819e325fd5eb846200009b565b6202b52962010aa08801357f0943a613b9dfaaad7fb5e907eee7771748251af8d4e0d44fd7babb71f9f373ff7f219200fababafce0e8668a591423b7f6ce2efd2cc68ac10f237d6a8616f42c86846200009b565b6202b57d62010ac08801357f1b6e162edde8c64a29f1634b0e26021708307076217b479ec9765395788f92d07f083c709b687c214fca517da79a690f5c2538acf3263e6758f799a8f4f09f6660846200009b565b6202b5d162010ae08801357f2c248745b95d45f4944757585de83021aa18d2f71dd112c86450297fc1882c367f26c67fb0b2fe61a6a3493175f3cd6b86b45db3b4fa3fdc93400220c70b94bdae846200009b565b6202b62562010b008801357f110914f1059796c9fe2c471ad736e978465a4c66d927a6471bb434913c932a8e7f2a388a13cafd8e8320c5b58d3d87a6460115b66a8342f07d69a6b826791710da846200009b565b6202b67962010b208801357f19683853c2d7b1f8d32d84dd9af283fed376f4d59d9319cff03fe0f30907e3017f09b69d647e21d338d81a7a413c8a6b88d460707bce24537e3d9c9266baad3cb6846200009b565b6202b6cd62010b408801357f1bec7edf5d8127a63d72bb41a6ef2072de10e4b9e8a8eb047d0ab96197dd20ef7f212c406a6cfca90f5e943286b1c1c879b08f66e5733a21429ac2796d73114cbc846200009b565b6202b72162010b608801357f1a18ca383c9e7a4e582b43a0fffd61f45732af0608085e0defc7a3a2b047fe237f201f27cb0731b98a62abd05916f654a1c48bf25d83fce094f7e4b3451e7951ed846200009b565b6202b77562010b808801357f22502e8cd4a7f05f9bfc2de6be0bc6f17c39ec20ad59751668e526e2d18539747f26329a504698f5fa84c6cba1396580e1f01687d7817fd93e750f1d53ee1b24f7846200009b565b6202b7c962010ba08801357f23f8ba9f7190dd079d68fa2551dbfa1af4f6b3ecc75c93f9434141a1db5bf38b7f2e03d8796430671994e4b3d009c2c5771b8bbe47532f2dc9af2e6f21a58d117c846200009b565b6202b81d62010bc08801357f2c84375806b482a7634042e0160f537632eda916e331d49691bdcde7d0dbd1337f29adad513cbb7ea461ccf844cadcfad2e694c1676682f3c34de8fa73aba2afcd846200009b565b6202b87162010be08801357f03d3fd10fc00d03a97489c7032be251075e1d39f97f01db3daba203770ff85ee7f0ce5df70f6b6165e78c5280b2303e57a3d1ade76bad2e416792f1679c1efaf5a846200009b565b6202b8c562010c008801357f0bab7269d93c9fcfad5758ec74ae7e3f238069b4f818ee2926c322cb354825c57f0e71c016babdf16082b221d66bb1df3f5e14a68b6f98ac6b88206c403c405f49846200009b565b6202b91962010c208801357f2e63d09f5cd3711be00812fb0aede88b8ff74a7cf60e983ee66fc56b76d9d3be7f1ee2157877fe56c5f0359c9a8d696f6a5649c04a7c1fb82f1ac8b194f82a576f846200009b565b6202b96d62010c408801357f08cb75ea1ca8f9121fcf4e13f9cc0a51af68b1be1702c3fe6d019be14cc2c37b7f0d04f7bf7c31152575d57411781f6822a89958ae8d9761c53dc39f4a57ecc6ea846200009b565b6202b9c162010c608801357f2c26852476dffe9bfb36039b3e741811d4758d0ce66086a705f0145c2e6a5aba7f1f580466fbc6204d44306e4ddb3efdd3abc71234b9f772a26c9eeb1af23cdfe8846200009b565b6202ba1562010c808801357f1b3efac84942d9c0972b0bf8ee9761aa9dae55eaa3ff21e65c08e91bc845e0547f055593da1bb794e720b74fca39b33a55304d77fb677e919f09deea7856bfa43d846200009b565b6202ba6862010ca08801357f083447d8f8171e785d9bc737643fc7c422b4176481c52683ebd39fddc21f60fc7e03d19f8a398c9784245203000b083863bfc9576399d16a68147ec440b9af26846200009b565b6202babc62010cc08801357f23df150496c4bf9bddd272e5275965ef6654abf24d4c5a03b5b6d6b0f55b167d7f2db96fe8074a5f4227d97f082f3be62c4cd3c69fd2170345273c7c6b1bc98153846200009b565b6202bb1062010ce08801357f2a20c334814fc78490cb9a5e5bc9dadf6d7a3780e71084276a52323903fddf4a7f2f9f46afbc18282a544b7816f6d3dd9d5b98aec5fd3080e4b0e0b6101ea24ebc846200009b565b6202bb6462010d008801357f2a34465e2ed8cda74253c66d5e84a4c95e702c2106aec8b12272f75b8b4ca8847f22ffd941e3b6c46e54bcdfef9fe95286d0467e2035b4e0e680f0251cef603f39846200009b565b6202bbb862010d208801357f072a4204c74acd5de0b6545a6d5db6cfc9d0daf4ca4b3219fcc87921c250f0307f0ddaf27f8a5a925f3f9ccf70cf59b3df7d6547a096dcc896c8cda17f6841a336846200009b565b6202bc0c62010d408801357f206943ff56c4d5b6c45dc77b6f974765a73dbdf1685a7509e1083153c9dfdf1d7f160db728381df1f47c1b08d9f6658531cfddb0bd09b2202714f8785502974a78846200009b565b6202bc6062010d608801357f0f5c05f225918ba0da3c2ea15b081a9947adb2bf3a49bc10b31ad85d37f8df637f12e114a3a7dd099e25c88fb7a56245f383a87ddad40fdafa6603ec8028f29204846200009b565b6202bcb462010d808801357f0a96c8a97a7c75e86be8ac2256d333ccd752f8ae411582b523e510357413bd567f2b4f0d6aa8c767b67cac5fd73f293da38353ec4be06ea6a6db659b4609d4355c846200009b565b6202bd0862010da08801357f1e3e041c6db64e79db44b7a779f61957e77b0a78c75b967e9cdecac25497352b7f1aaebb48f324546b38e24af44e80d7962eb20c22aa00f521c0cad1763406040f846200009b565b6202bd5c62010dc08801357f020a527250e044838f4be83f6050ae7793c0f3273bc5f9262f0f1ea15f010f757f063a804b33afce611d6cd74e22165292bdfefcda386a4ca14716a617cbb6949d846200009b565b6202bdb062010de08801357f1c204a1c179b6335bd0f1025ac8351a28a7a487fa368be37250679abe0d2c88d7f1c4e924c1450de8a3a029eead539a5509c44472113d70bc15487966cc883c1ca846200009b565b6202be0462010e008801357f13d3c73b8e601189c369ece3aaa28a3eb2199072c3ec17c89a966e539617d52b7f0238e04ef788f52a77e73a6a7693720cf2d1ec76036eca4adeb2085cff0c3990846200009b565b6202be5862010e208801357f0a46d011c3b160717e2a44aafe96f9d9afe3b2e12e976ae43499a975c395169e7f2eedaf3a94fc7d443b1f5e469b74d32e31e1220400936122f83512a0a33fd695846200009b565b6202beac62010e408801357f2ac8b828e4866f075d217f3f110c7764c34514e2f91451d45d69b65a91b346e37f02353d338428faf381ce3f45751781ac97a0b84835dd7d734f033e826d82b3a4846200009b565b6202bf0062010e608801357f2482dfc2f2694c81a2666c612ebd7dc0220a20245eeb921bcc8fbb911161e6257f2ccdf4baf69887ea5f72fcc39833959de79dd49b6d53694b5c38dfebf9733fc0846200009b565b6202bf5462010e808801357f0e7ed1b573b359011a75feced28b3062aa12f50d83f300e967ae60752488a8637f2a42410c5496af5b458c4e94036cccc6519d34a0b34656d65f9cb6423adc37fb846200009b565b6202bfa862010ea08801357f1d8b226defae2d5610d2de8219b1279fb03064b1052de45135ba6c65c7c584227f182997c6b3b3e98dc1cbc6760fbaaa721f6660a1f809b51a8b89bdea65f3d833846200009b565b6202bffc62010ec08801357f0f32b9836f552c6b4f88c8bcf993ae8717318db41adbae2a8ac60298441335f37f2345b625ccb3565d2b7dcc89300ce6e9e5d8e9bcc3b4a57b05e206bda8e10768846200009b565b6202c05062010ee08801357f04b3ef26259e285cffe5d33431327d7faf813d546f83f64657e9deb3d19b3cb47f06f571ecc219bf9c0b9143d2333efdd7b04566aaa3080542c0a6390ba33d44bb846200009b565b6202c0a462010f008801357f1dd269c1925fdf18a73d994bdec3e7225669c0acccdcb1ba8cea8c67e796ed797f04ec782d3461e75d7ad03d202ec4027a6264f771d9e82f6c792ed8527cc3c3cd846200009b565b6202c0f862010f208801357f0e9932929d014d771e9bce0eb91dac1e3cab30da70fc0796b6f7a802199518b87f0ee3e34751167da616f0c1e6ef5946b230856841c91d3e347ea7285dce351118846200009b565b6202c14c62010f408801357f2bb98cc58239c1522b7a862cac4c29df8b9492ff2af0c3d700298c47cfdd40407f03743a2515650c2a5f90fd98bd7af04562e2ce183e729fcc4ef0c20bb9814903846200009b565b6202c1a062010f608801357f1ccfc9e9c16709b4f5968f9e47f57be2f534a8affdaa0ab6533b4d17eb4a800a7f1290da5b293090c458830eec965167e545910c3b091a6a271dccd184e3ac67e1846200009b565b6202c1f462010f808801357f239d6e359d954557452a283cd15e0d888e1a6c67e223975228bb7eae5c59bab17f1033cd3cfe540d5506b2eda54844d3519fe5983fed1366eee181f17c7043f84c846200009b565b6202c24862010fa08801357f27d33a2c5f10800bb1e43914486eff0266a9777993986fb9ff354119945594a17f1278a997ee408b15782fe96e558a6c6861ba3c106352d69e7f012dfd2cc9118b846200009b565b6202c29c62010fc08801357f0bbc6a95fcc45544f34a6ed4838b1814f606deb7547ce1c0af6c54c13e5b69b57f1c72eab97ba8fdebe904a2c3a5e875a9478d91ca874a989fd7cf1e25fc0539c1846200009b565b6202c2f062010fe08801357f0c390addfd4743687743ea3a86d49460916a5f1e549ad214ebc25609e7fad3867f0f6cebc25061719b9915042ca7cceac668899dc1cf8ac06587bd50d672ebab65846200009b565b6202c343620110008801357f0cd0e6ac06c2bbc1d8d82d92ab80b79f497079cbc38294722b40e7615c2dd9d87ece03160540f6873f88abdd5428f9649397392b5246093d740c1ce3033040e9846200009b565b6202c397620110208801357f16a33684c035433b46017d4b47be9ca921d79893136f270fdaaff6ed93d340d87f303e09bae6108f334255dcc4b987cd81f7778db1bc45531ad5cbc4e6ca7d8b00846200009b565b6202c3eb620110408801357f1a9035927a3d44ce6a5853fa299d0109ab1e3e01b39ca0cfd467c9d7349674a07f116f4ce7515d6bbbfe84293ab91fa75dcbcb3669d6d87cb2682f74a3e5317874846200009b565b6202c43f620110608801357f0609dc998d754e1b981e1fd12bab1dcf9639a5508cbdfee58b722352964412857f1b01e3578384338f2853a4213a1efb3f5829143e7dcf2196b13bb7dc72bae9ae846200009b565b6202c493620110808801357f03667da5e8944de9e7ef6141badea80c29f948724e6de3130df3df3df8f8df3f7f0c557a872b8a6b3d78ce37550ffea4de168befec56732bd4e416fdd77e999836846200009b565b6202c4e7620110a08801357f2dcab21100682fe33054b169d4ab01fa88fe3bf788ad6f65679c431275f2da0e7f2494082739a1f79e87752c2b97fd0f3c91c3bd7c32d4788f3ae7b89bd2048cc7846200009b565b6202c53b620110c08801357f0807a1233a101415a0d55b01db86ec6ade03fdecca915e431aa0224e94ba93f57f2332be5dc39ba3ac92d9146187e1afe2c9c91811d530c4b49902d01478faf184846200009b565b6202c58f620110e08801357f085393ec4c4358fdfb69afd5cd75245e1e021d02acb12a51003e258522008dab7f0110f156d59c994d6f8faad9b855ceb5c2c139aa63a93c5c2ee8dbb043127c1e846200009b565b6202c5e3620111008801357f27e61bb6dcd6290779c8846baef9a6fc106b6b4130cc7d87e7d464ea36c76e397f2468c178cf7c3cbb6b6ede16e306a3403ec184e4dc742740643d63992d5611b1846200009b565b6202c637620111208801357f14fb1cf2c70d567cd3249e27a1d554e95e46d4c73db6f65ae044f0d878c99f487f1257845579db4223a53b6a83ee3b9af70844ca3e002e6347ad5dd6749e38e59a846200009b565b6202c68b620111408801357f18a74979ef4df41ab35a4928b5dc78e845c0832387be6c586f8a9f96129b4f417f19d03ef636b20585e8d6d70d2a662d569063788b518e3c4f85ffd75718aa720f846200009b565b6202c6df620111608801357f10589e4375d5e5754d2ef34b764c729e5782a6a424ea116a6e394f3bf032530a7f243a2ef8f35d29185199b148ee5c7319aad4868472e395e8d9983d272dcb1cab846200009b565b6202c733620111808801357f16d2f25826a9b130d816f87139c376ac32644c50d0b2004eda92cbcfb6e176857f23982af007ea8915a2272b9e98acab82e58a0678c4566473be70cb69a8127793846200009b565b6202c787620111a08801357f1e458b142c7ffe7ffd690f5356dbb288a2925ab513bfb5f85ac8e10ac4433a487f26524714e00ef8ad9ead04dfec970ede64d5338ba08315436b5c7913e7adeddd846200009b565b6202c7db620111c08801357f1cfc711cbc21a00e8349fe106fa4ce8ac31efa8323181a05cc23e88a3cd5578f7f2a5b0e53e3ef93269deb457aa6faa62a372d50443e246b97a683dca81bb6666f846200009b565b6202c82f620111e08801357f1f79bc3a9b392c6b52a97a0ea76eaadf1c8c4bd1e5059a5aae2f4fd59c07edfa7f2d6f0273bbb9708dbab5f785dd92c11e03a64c8b3f7447aaf343e47b2a5380e8846200009b565b6202c883620112008801357f0e52d345fe386bd3dc87728e9a886c7b65c1c138b9e8122ef65c15bbbcd78c737f17f3a0ea11f946fb10eea7a68b4da240a4b37336ee19bec16ba946b137d7894f846200009b565b6202c8d7620112208801357f1da02e74f6b29677fe0baaa1d5df018cd505e221d3a42482b97b15eeaecd5f3b7f2f3e1b4f90e65a675b0795aa6d047cf7c752eaf047382939402df055650d373f846200009b565b6202c92b620112408801357f2ecd254716e21f43837ba67e81fc784c0b36403f41514e677cb81c4084aeb2a67f2a63691a06bed63e9af7d3060f09a59d34d4934602a009f22a57e72097627bee846200009b565b6202c97f620112608801357f1ba8160b0816e6c7476db41d661aece4c2c4e3f9f01bb21562e5cff64d0aa9ff7f249f836ab03d6966e6390f05f6371ae6d7b44beec4ef6fee3e493f355178f2f3846200009b565b6202c9d3620112808801357f09beccce2d5923b82cae6e290c46ba79607ebeb32cad008a3cb9a23054f6bbcd7f1f8844534ed7e76e0a2f934f714f474d65ff72dd6e94844997929af9eca78171846200009b565b6202ca27620112a08801357f144f1036bd8877417029d5070579e8fcefdbbb06419b66f8b8c5c557e7cf3e497f14c3c4ab5e16b1bca8f0f181350923da24b3087be201fee07af4c8c7c4e05311846200009b565b6202ca7b620112c08801357f0fd0b126d8e40b922139407022b4ec79e16a4c2c0ce565287a09063a3e6260cc7f14083ff64f5d1ba6f6f0ecd883b6ec38a60494ce55329035f68f93e178abcb06846200009b565b6202cacf620112e08801357f03b4165a323f30fdcdae7027547ad2c14451fa5fb2f344196c4e1d0dbe3ce82e7f19e4734480624a27d639991a76698bf1dc5e7a5dd4ddc387cdec8a7f113233d9846200009b565b6202cb23620113008801357f0f4c686e5c17b7cb5093e94c90b5c03923dcb3a4a9faa1d754a9cdfdf79ef5cd7f2a51f1ae36f0ece0b55d62f5ece040b7ad886e4d8954c56b56d998e0430fb0e3846200009b565b6202cb77620113208801357f2b7fd7155e6116192bdd4009d1186eadf86d392b12bd69610caaf068c4cbeb597f25dc7264d1cd2ba5b79abb75b94488a6966931775b7bd90b3ff273e4372735c6846200009b565b6202cbcb620113408801357f2a614daf8439b8d7c7fd0d2019306fc13f43fce9e1434774848b0a1755c46e347f05100f2b344afb75bb5e6e808e2b04b180d0762ce23f9dbafa470999c6afa72b846200009b565b6202cc1f620113608801357f188331840d41a5795a910ad7ecbb02b9ab037a98cf948ed928f5d2ef52d5997e7f21b206bb0404f02733f930e2b6d751d62034338650e1f2004efa60ac1783d72b846200009b565b6202cc73620113808801357f08eb5bf250afbc965a612e24b0427bc1a49b911d00c457f23f02eaabf4b675477f180d8f69482682728b9d1267366b577c59abed7cfac705d41fdf163d97e36c48846200009b565b6202ccc7620113a08801357f2df998f91d6d814a27f0d6c75ba3ec4e1833b1bff0b508676fd2ca2465a2cb747f02794dc72c76b30a4b4a7a76096dd22cf97d3df452d500129ee6521275933efe846200009b565b6202cd1b620113c08801357f09a7de90183d4a7e169c355e22d84dc7d7094144c17eeee44ab0a8628c09f5837f0c44c83ed002408608eba7a027d61dd47041c1e69aa067af2a4d6518ebcfeab8846200009b565b6202cd6f620113e08801357f05848f9e83cd68c804e118d2e0598820ac6cb9acd0afceae827e8dc73a725d847f199ad9d4ad227e46be37c39817379cf17e4233886a5066926c31aa677837faff846200009b565b6202cdc3620114008801357f09b73c50aa8113d40ea61a6cde44cb59015c2e19181c3c200ea904d995757e357f022439757c9f40fbca5589b6787d8ded75ece9a248f316b1fee609d22700f932846200009b565b6202ce17620114208801357f279479836811b27ef397e55f2ab14dbc40036675e1e88590c3d95c56adb6908d7f02f1bb8b4de6224b0ac2a9d56c655530896cb9d4741db1cc78f36e7650c3de95846200009b565b6202ce6b620114408801357f0bf5bedf97db0550de92dfe9183df2867f61c7c245591a70f585f539518dc5c27f161d113258fa7aba89e483b9b36c994b50ed6877254eed13eb0a9b9468e04e97846200009b565b6202cebf620114608801357f17dc06d80f14b6bb23e38b6f52685c843c746fc25d74c27c58f02ae9bbfc207b7f0d59318f8c3cc3b7f1cf1b8ea0acb46128790621af0a08f28d8fe58612ce88f7846200009b565b6202cf13620114808801357f305c965f2f918981fe04751b19c4512da890e69c2e84c143397c1c09bd3c0ca47f050e3f77a21301b4e3d0025f60b913dc2bf81b6c3baff8867500310295d8a4bf846200009b565b6202cf67620114a08801357f1aa11a57e6e9f9530165264d9464aeecaf75a492248e2305cecbc046bcdf6c6c7f1d1682cd98372bb9afe3ab5eb946d596b12072ba9d479f609e7d89ce39b3d523846200009b565b6202cfbb620114c08801357f090b7c64a7d5ba2694abf14786d49a7e6172838598d605bbb1dc8320ebfd52787f039d993428ef0b70da016105cd64f629241deb49779bccb63a607ea0727fd424846200009b565b6202d00f620114e08801357f23faf438e0d2db7ee997252571dbc2c33aae9796354474709e3c35d068911a9a7f10afb35b91a2874815e818463a77ed8991766c05970274c7af6b72a1372c99d2846200009b565b6202d063620115008801357f083dc69218faa6de4530b3b43288d8f5088e433808e56639e06693973e50029c7f28d8cfc499517c29009e136304d56fdba0d0e2fee778f221a0319bb1e6763958846200009b565b6202d0b7620115208801357f2e6d0ecee73c95f72d79c4a491714203b616d74d4ed43781154848d01df4e6587f283e4152f3d3df9d641319631038b683958825531082c058afffcfbdb89885ae846200009b565b6202d10a620115408801357f0d809fe25a92c51d91188f1fc337a7a837001b2b66d4a7b6288acfc08621c20a7e8a5f2b8b139ced6c953facb9b4bba31d19753b4476bbf50d3ae4aeba139954846200009b565b6202d15e620115608801357f28af393a05724d9f046939df29e35a2c73a62d7d50fb58e600533e1b942dd1687f1517cdfc34da4f7d543ad4840b4a4e27f18403c80a07a194bacb30f1664d4d23846200009b565b6202d1b2620115808801357f1482bfe64fb739fbfbb4078f86d59b6e22665c94b013e9495dbe8f516edc160d7f0779f3ff42d22a5788767169a0d3292c75a5b1bf2188c9a4f0fbbe539052df91846200009b565b6202d206620115a08801357f2e068274c712ea2da7b05dc497c20b8b763c142d98268f367653f277e35e664e7f090d4fb52c1c499fcc6820cdde80467d57301d2265a242a8ee51b6b16cbcae11846200009b565b6202d259620115c08801357eb7421d8a0579f8daf6b7e99cd9b2ff448ca2733314188f88fb0793f107da547f26cb90ef4815c280dd00994b76d628bc8f4c288f5c0ae7724baf49d15a8fdd17846200009b565b6202d2ad620115e08801357f11ab5867d5af4d5b403c840dbd449018ff06d1ec18912af2a6ac40fe4c165fd97f0513bf3190c9ad66e7be8f6b184df3299128cbcf185434a0a627a190aaf34a51846200009b565b6202d301620116008801357f2a8c3a210c094a11b6efb15a3507d0b9bf8dbba12a7913266d80f9da6053e06e7f10c28b30407d1cc08da3dac7ba1f9b496bf0ceee4d13060709fec1e6c1bf7de5846200009b565b6202d355620116208801357f1785734558de5927bb860b1f5d73d7a65fa4f4a2c2f7f039bf5b70324c69e8387f29efa131c633e710ac93218f2cbfea063fbc633b261b463337e4a6928eadc9ef846200009b565b6202d3a9620116408801357f224d7d1e27414408bdc0e8551850498982f3b315a97ea15032beabf65ed31f167f10333b05baf207bd02d76eba8b2b23fcaaab8781d9e885c7af5e06b5edc670d3846200009b565b6202d3fd620116608801357f1038f547dabb909451a7a89026eb181cbb8f347dd4858ff34100c2c537f7c6357f280b946213da3ec311c20853ecf2c1546c5bdb7eb4f8aefe6a9f16361cf0fa68846200009b565b6202d450620116808801357ec81398a90a2070317658cf79f0f3d61f475f655d4fd82ab5edca27867ac4097f05f4b8b50f0b8571c2cd58a4519d03add93ad717b6fabf3d73a0f660731f3345846200009b565b6202d4a4620116a08801357f1beb14e7df5238bcd62b6f38a32f0220633dec4944dfeaf649bf0b409e9c260b7f2f87031b92c29061e15aa92ed3873a302a0e1374d83da07fdfb250df53a4f6e7846200009b565b6202d4f8620116c08801357f27c47aeb5336b6e7f851d23b1c2d3026ce241ea3a17b16a6f2b58942769717c97f0f06345839039d1569b71dec04800d42cd3611859d92a87a9c4276105f277aa5846200009b565b6202d54c620116e08801357f2cfc7f44babcd7a7e5fe6a4321b9a064abb2d44273c92b487af38f9c8da642287f0942fbb463dd7f8d1404dd6023e52a8cf3e97c51016414f9efdad4f77f82d093846200009b565b6202d5a0620117008801357f2e20cd67d0935c42a509ee8fa76f5fda46bf0218162d3872a84543ca30d758847f1c1c5e3d740f119baf013e662c89b66c0ea32236e26ab5add2c6efe02e9b0137846200009b565b6202d5f4620117208801357f0a96b6f657625f77f2e2f11168cb9ea224f9734b9a4dd34091454d5ee2eae6cc7f1e73a217207c19c900e4621b0ece1384eca315da4d21d4a205a32c9fdcc30d59846200009b565b6202d648620117408801357f0ffd25748fbca9f0d4b5b75502be5ccd9a6408aa379ae1b3ce89b863bb7512ca7f20809af19603e82430888453b0ec30360fcefd5e03337dd53fb1cd5d9f94f691846200009b565b6202d69c620117608801357f0a1f0b53d3c9284515384c70a639fb8538c0020f77869dc0563ecedc805492be7f03df79a51504083c4c5fd9c2324f52f83a9c556fcd7c889de2c63eaf6f8ea816846200009b565b6202d6f0620117808801357f1bc003c8bdecbe7e3bc80c72d6ebbdcebe230dcdad95e84e86d0aee6856096c67f2d2ef253c7659a4343264b87920a4bf0e8272ba4ff792f6cd210196432162b89846200009b565b6202d744620117a08801357f1a576e5ffe8752a5411485495a6be445a111a94a02058d07c16d7837d095cffb7f1d50e61f7de871990dbf7dddffd904ba61960f7fe218e4cdc044183025756fa8846200009b565b6202d798620117c08801357f122b76b6ad40a2a9decc6a11f4cf310824c81d7bceb89adb9080a39b2f16e8537f04125f30d5a8a00f71daf11d21d80d2a04f1cae67a26296b9e3eab459aa6a57c846200009b565b6202d7ec620117e08801357f27d7d30221cdf3183aabbe23882b9fb631cb1c67ccff7bc227b2135dd7fdacaf7f0d4fb8f7f53520dd87c42beb59901be1d80826111a4a45ac4be1754c7feb104e846200009b565b6202d840620118008801357f019de9b99608c7b704a9ee3cc8e8499bb62ade11f49b585db8a7011477f4bf447f0e4f784179364151c0476886441df1eb574233c9b77d2fbf90b188282bf6d569846200009b565b6202d894620118208801357f132750e9d7b0e58d38d79a790ce7ed740b9af1550b96e5db4b007b60a3cbe50a7f2cc8bb7d3d8390fd9025977339b7e55a3a1ae3c58a23a5603f9c7e7f3242aca0846200009b565b6202d8e8620118408801357f03d2e51ba99532f9d9853665486c882df9defdeebc0f354564d812e1ec15e4fb7f01064100b5e92895cac7a28d1d8d3fa5cfdf3c4edf41d60379b35b9794dc608f846200009b565b6202d93c620118608801357f0fe48ea7dc4cf1bad0264a8e05b9b1e17697f78befaeeefdc07f26d5d781ed1d7f0601d59b0ec60c0cb3a20bcf03a557b093b909bc3a904148370e8eb76d23e24d846200009b565b6202d990620118808801357f16c4115bda4fbc6dc6e7f8418a1e0beb9b0a855affbd4d898be65fa3a1906a8b7f14ff93eaa8f57f30147531cd25b60bf48f0806f03d905dfcc90e47217368990b846200009b565b6202d9e4620118a08801357f12a3c4d7813a4480f9e9c338bd7b1242adb745c2f3a6603e8b56bff9c7c4a6627f0656e9d305c3d6fd0cea045fae0e43f4651c58d78bce1bfdc11176486ec9f21e846200009b565b6202da38620118c08801357f1961ce07b93ddfea2f8d9a3fc990600e07f37b5a97802e19b45b70edef67163f7f1e8e70fb4d0a1e0a9bb78f88618d2bb8352d436ee4a9243fdfb1a9bbb145ba12846200009b565b6202da8c620118e08801357f1b5f70e145b25f356457179f8017cca4c77ebf281a21b0d1454b20fe7beaf2877f218931d988a45c0eab8a606866dc777121ddbae9f954b6c18284d75cc65a474e846200009b565b6202dae0620119008801357f0c331c0938e95da4fe234c7c90520ca3f69d38952a5bc4fb97062bca30a736127f0d16ed6a22f94f825eb998c8318cd389e7fbe5aa2dd17d1ca02fab6fb8f9a485846200009b565b6202db34620119208801357f1e25a99c0abc302d0f27f0425f268ed08fbbb3ee5d5a6753d743400a11036cc57f0ab7df05cc1c29f6ec92bb7c4fa85805ddb40a6758e0f86192fc913ffffe6677846200009b565b6202db88620119408801357f2df8e64cc4e16edb2f18646369eb743849c04e2161e633f58b61c8e64b21b0b67f22933a4fe59e25b5db7a2ffe05b241ee742af6d54371df90d91722204c1b7e49846200009b565b6202dbdc620119608801357f0f99523ba4bb5d7da76eda3db5bb37ba0f0fe22b0ec11e35d1b6dd6b97c525717f112793d4045f193e7477388c7b5e72bce249f69d5bfa8e24b056b0d67f1ce6ea846200009b565b6202dc30620119808801357f19d7bc27969390d9be5f0ea37032f042abc33c1c9ca8330115635a7f033014db7f0f6fad45011694178a85b017f49b5702f29030f773efda0a8d0fe338fe4786e8846200009b565b6202dc84620119a08801357f2a4546103592a48e560a0f686698a17703cd29b2cb04a7917a7e65874a9eac817f1f2698c19a511c0693bb38d1f40a4fdf3304d3ab6ed630d03dc0a61ba01857c6846200009b565b6202dcd8620119c08801357f0430cc287b9defdde2cd31d5c79647d8d76cde9fd36d5b18b37d6b6fed7dbf767f1a1263c2f01eec962c620cfdb0989e1482395978c4ee675ff5ed20e8cf1e626d846200009b565b6202dd2c620119e08801357f1d9988e280e7472dc9a6abe03d19c8d39ac3fcbd82357b948670dd89edc41a587f072fd61e591109ef8d51160d376e590bcdd0880ed8d21de8f1165b2f867d35fa846200009b565b6202dd8062011a008801357f11aecc27bf75bef14ac6f063edeec41d84062c86339444a4bc6dee58cfe5e9cd7f269c74a154500d74463e79f3a63dcbf692d16c0f2ad6338f4859b562dca4e48f846200009b565b6202ddd462011a208801357f034e995ef17bc9941503250daf1e155741c3b02ae14b7387662e60f5915d12f57f10595a5cc448098789457af298bfd70a0f3b3be73a071fb4687012e38bbe1a29846200009b565b6202de2762011a408801357ebee60cadbfd06648469037f91bdf6f957251a6fa0ed22ff137ba9788d88ba77f1acf0f025e741a93240b3d5ca3b35380e2ade455ebe91c61d8006784a355c87c846200009b565b6202de7b62011a608801357f1c11cdedad852457a292ff054166388a9c6dac05f9c43e9871581d24768bb8e17f2a2455eafdaa86c56f01e91358e86a3ac70053e691faa4e5a6fe2d0ed790a058846200009b565b6202decf62011a808801357f0c01664ab3806bda51d033787c63ed1c106bb436861c7e3557a3a48a933915847f01a4988b558fcbc418e08672b76a5f7ae8dc065a5d1f3348961decdb2cf96e2f846200009b565b6202df2362011aa08801357f27ffb02e8013b545a3a9eeaca82453eaf4a96a5694080fe40fffe395a1c776427f2c5d738eabe5b7177312e9658539b0fac585f8a3485b66c77d5eafdceef55b13846200009b565b6202df7762011ac08801357f15574a623e235ebb676a7db0d006af9bd9499fb733201325dcdaec9f84b809947f242a85f8880f040c58cde59fa3c08e108e77652723f9af1f2917f33d9b8618f1846200009b565b6202dfcb62011ae08801357f1eb4d5eb456be61e6c4ac016f18b8ffb0935973d8e7170bd84f9f2732c01574d7f3054e7dd3ad85fc21e4c3bde2b9f46295cf594701bfe4b9b1f6a61bbf7fbd722846200009b565b6202e01f62011b008801357f1564eb327c2c624a84c7f8ecb1640cc2551740f70cb60a79922f55b479e865da7f16f0f811c3f9ff78342f6276d84de4eede7d44da102cdd3a8ef19f6b3de90afb846200009b565b6202e07362011b208801357f01b4b9ae53b940c224c22c46c1008caf4759e43731e458596b2eeb5fab2073d57f06a7005a4712f2edc491c0b7e4df9d1aa79f3684bdf41dee73174cc31a30106e846200009b565b6202e0c762011b408801357f094a27083215b58f18cd0994fe667585dddfdde91fa1a4d6fcb6c897632dd3457f02d13780625e319acc3bcf0a65c811553ab2b25d064308e735318cd0540e4188846200009b565b6202e11b62011b608801357f0a8767fd1b2855a8e90f2b4399e1b655b5777a2c4dc5387e422216f012efb5ec7f073e402f28b47be97277e6abf552413e268624ede270a74b9d9a317df4619b18846200009b565b6202e16f62011b808801357f159b3da924c4e93a2d974e8bf3524527337a8476765acf6e1eaae684c4fc320e7f1e1c75e1366cbe9f4a9264578d44660fef70c7d19bd4866f3f052eb049ae854e846200009b565b6202e1c362011ba08801357f184e3f88b4a2df2aeb23fb1f99b272a0c7e30e81dbffdebadbc524ca07c4cffa7f296c75cf9d199a76cd35b3e7aef8c76cbc3a73baa86cbdb2ce6d1499050b1c56846200009b565b6202e21762011bc08801357f2d73c18f3012d767515d3e98313b0868958a0365137642df49a7b95f5ca2a7067f128e24960a38fbf86959aa401fa98f3f692d2794fe8f6948fb033296c74247fb846200009b565b6202e26b62011be08801357f16cfad6b6fe39006eb87369e29916e3d8dc501a041bfc1a332ed8401855055ca7f02150b78938c5c0b956087f91ea52eaf89a011c5f57957f71f7e69cbba6c8dc9846200009b565b6202e2bf62011c008801357f012e8983b3e8674950daeb269505ea1c23fcac24cd4a8a2ea5de49f53b9803497f2385634f8f5e1f54194e6f5524e26988ba286030c37c495ace68804e3852eb55846200009b565b6202e31362011c208801357f30551edf66b26874c3545cdb3622080612e6946c4fb4bac1a1c2efc9f2f2f2477f20280e03208412869301604e9b162fbda389a49ef64470b8a7c0e53f016f6fec846200009b565b6202e36762011c408801357f0ad4434865d9d7949e6b414caa2222708bdfc155e6888130c98932c40e106e347f03bc9ad9911f6f4a3fdc9ab26d6f57bc3917e0535aded49850f3c9805d1d8ec5846200009b565b6202e3bb62011c608801357f17c90943d975ef6020c05f3b2c6f6d46fa0764b47bcaeba0137e718fe23802f57f1b99851cd183f85c65747afb6d3bac19e80eb799239feb2fe331e49ef7384818846200009b565b6202e40f62011c808801357f10d3c3ad86e8046ab7388aabaa9059a782adde0606fcd31d9a166694d66faa547f086615d491ec262efde9f9e984ded5a55ddc74e8e686a65131ddc1e723fc0e51846200009b565b6202e46362011ca08801357f26ce2a21952b919250fae2b18d05df22f8f49e8bc95ac59b27174ef529f069a67f060c118038bb3de62167220ff0e3a8378b21d6c51768f0fb1e5f4fa31a8cb747846200009b565b6202e4b762011cc08801357f1e5b18cf7c047050001b8f0f8dfabd8825ee7a3150cf146d9b27e9ae25c8f2d67f0b0506b3b50a6bf134afe70612a62d61b3b9954394c7fe3338506e9c9765e553846200009b565b6202e50b62011ce08801357f0f0a9a4633893647edd32638b974f33075b696a46077288aa434f51ec29e5a077f2f29960557faca12f5188d444c6398cce097073b4c671ab8f3f3d1fbff6c70f6846200009b565b6202e55f62011d008801357f1aa1d189d63cc2ffefdf44c42577002ad57362a2a30f718a056001c5c4b07a0a7f037908ad60f3aa794e25502a70f0fbfe3e7c8843f058fb50960c7fc7a3643304846200009b565b6202e5b362011d208801357f1c871a363c05151bc3335b5ab30d01b8fd0b0eb37d52b592067898d54a3f56907f2407e84ed42e09316592d8518ce8f714764c4b7c6e9a2a3b37a623a946391e13846200009b565b6202e60762011d408801357f2496569776298a665433f99f6f2beac2a6e4105560c9e15f561584e7dacfc3fc7f0dc0912313e14cc2777267919f70a7d1788a10512c7432d3d018cd5c60de6e34846200009b565b6202e65b62011d608801357f08653b5c87f965c366df0aa9e9fd8296191cea3c03d340d7a08ea9450a61c4b07f10edb4fdba301ab9eef472a72e5135672b31cdda8a0db0a50ef3d6efd3026d91846200009b565b6202e6af62011d808801357f01f06fcd5a488a446422be9ce609cfe3d1ec0748c1f77cca4e3180d9abbf39d77f010c525bf89058dfb241121124b30802d19b3b0b3f7ca97b544e35a042df82d9846200009b565b6202e70362011da08801357f091d8fd0a7fc322b61af02a0a25212c5e44d0e8f1e2c51957c814d2a477152c27f22292eef89ebac33adc945372d488ca62179198c4a0921e4c9424cf30ab30ff2846200009b565b6202e75762011dc08801357f22cc68b2d4644b23a2f5e3bb31a57a17d541ce98acb0e3139d84fbaecaa4ffd67f2c7e9145eb5b7593a287f1e177dab2b0f889682aec5de691225598e47fb79be0846200009b565b6202e7ab62011de08801357f24cd72ef8c38f263ed91456fa7005151b5cb8b5a679acc49b091ad43bb07faf07f0b9e5ce28075acac1a57affce462c9dbdee47d00e2411347ef6ed48267945fc0846200009b565b6202e7ff62011e008801357f187ef773abedb08ea7ecf1af5828d5d3da21a2fec5fae29e09ea04d24ccd56817f2cf5fea5792bd385980fab4c4ad656f627c3a588d8e7b794df4708346d3a7030846200009b565b6202e85362011e208801357f12a9d61ebdf35b1b8bb02ecfa0b8d575c3b3138ec00fdb88ce73e895e3dc93127f27d3c8d4793c3744734ae7dd07f28f7885f157f56cbdbf8e33f275b119da0593846200009b565b6202e8a762011e408801357f101ea347471a366917f01ded8479389d0bc6925aaef15cf8bbb4da6c220fef167f2f2d47c3c8be593bc8a28a07bd2776f8f0deb7c2bb03a4f199b4004a20a4abb4846200009b565b6202e8fb62011e608801357f2a436ddc90680861a5a55f1015c151deaeb41171377003804f455cb305c473d37f1ba32192342f5305d98d1d3cb19541a47ec1662592f6e32df6037a86a984c0ee846200009b565b6202e94f62011e808801357f0c79b9ca8a50656dfba6127ac6a92b59f6ca32d49863c59a8644e6d6b34b61e27f1f88a3e023dfddfe53775f303cdf83024ed2bc845d8a0de2b7aa2003721c594c846200009b565b6202e9a362011ea08801357f20851cf188211fe4faf9f5e9179d124bc2ded893e2e68707f9b11318f30768ec7f239657821d03a94e8683f3192bf076d42b2c7ed6a884ca2187774ebe87635b2b846200009b565b6202e9f762011ec08801357f2d92bc18421a6540fd935f99dc728124c482b03ff6e55e31c7bf272badf721da7f2cae39cd50ce4d7dbd38f5da7562877a5ea6a6cfc03a403f6d2b00f235afac77846200009b565b6202ea4b62011ee08801357f094e6e0ea7464207106bc33bfc1b2c6fe7a22c151ef3e25b470b6f521b3d356d7f2c0e5b9eb009e2c29a12e1cba0377146b7870dad53f571a26b89a40d1c29b678846200009b565b6202ea9e62011f008801357e236ad7b96f22e9bad26c8958aacbcf070d295d122ec75ea0dbf30614ed99c77f063c6fd99293ac940cb477788b2b64ed3851a8a0cfc7df15417eda9fa313f90f846200009b565b6202eaf262011f208801357f0e1051bd62f1318d66e3fe1657c3ddb5a65acd779528aa485980766fdeb975307f1e6b94fb96bbbf85c5b1aab45db78ab54758c62ad3fc447c93f528bf3d9dcb95846200009b565b6202eb4662011f408801357f0de23ff59529a3c8301de7c795a8d2f54906fb14d4a0b918cd984cb41b3409bf7f03dec3cbe4fe6d905011bf1ded1059fe08daa003941c6ba32dedd3ec724e9f58846200009b565b6202eb9a62011f608801357f197eff61f8e2f469b37fcfb7b1b7106c6fd73c8ea03e9b912ffe13196ba34e527f27d722136da56481cdcab30a424e4312482c9b29f467b26d5fcbf36ae8ffd9f4846200009b565b6202ebee62011f808801357f28afe0680eac949c5b4d8d95755760eb094119cc3bb46e193520531b68fa18867f0b83b22935133f20643c469d886b459b96f24ce4cf6b7441390f5c78d3f3e975846200009b565b6202ec4262011fa08801357f2f2d6a33cd05b875d9762ba1f1be7fa104572d646d5f993587dee438e6aa7df47f10b7a5ef8ced2b747c0053e9f278ee8a2d1f7cf14a052e4e9d6a2824d6bb5717846200009b565b6202ec9662011fc08801357f0b654cf4b429a5af730a258192f34812840c4d039f1c2861e9f99039da75d8177f2d8423427644d3fb13aa36b0dd904df1aa8b58f31fdcadd827f318c503313aa5846200009b565b6202ecea62011fe08801357f01e362410025572744c234347c9995daa2b6a696f91302a993cbadd9f8e892de7f1dba5d7e4ef9106a38ea1783b3ab43752f53998b5c765970efca46963e558970846200009b565b6202ed3e620120008801357f191609f05f23d3aaea40169cdd6fbe5508ba07fbf3772b5d217965df333773e47f29dd5f8e71bc24b4618b1bb0044d65b362d9b7844c410542fde74c1a364f5ea2846200009b565b6202ed92620120208801357f1dc4a6b45f1cba54a33f1fabd5e4a8c53ccd321670afdb022b6cbf4a198d37a47f1385e594f5e4fab4d30bae8c768a68d7ca1b86c294a2a20fff3d497a83335310846200009b565b6202ede6620120408801357f26242786e0bf715d79547691e938cec765f67a57758603ce495022bf7e64d4357f253c52ff2ed19f9438c62243145bb8e7b779f08a9813d495538a3ba3cbee9d01846200009b565b6202ee3a620120608801357f2266014176c666f42df8109e38538c88191dbaaaaeb8422242a4e7f2283dfba77f10b5615c32afc898677a5a0d634a957a2ca704f26ca8c0524ce5804966d11201846200009b565b6202ee8e620120808801357f2c534196d287a3a24a222c9655802fd9afea5c26942b738e5d77bf86a67835c37f09779a3ecfcf837d927b5818bcf4fa652881affa4619f4ac99826b96c2dc84e7846200009b565b6202eee2620120a08801357f1e85c72a059022ab8bbff6b02bb311884900fb391d9c2f28a4e811a0df124eef7f17c72e6ac772fdebc99bebac1129aaf8fc1b683aa11e7c30bb042b838577fccb846200009b565b6202ef36620120c08801357f165b376c90cd95d135f3c58f47abcc1ff8323d6c1d1f44deb9d681eafeef91137f1bf3f600db479ca3b04281706b0b53544a3ba4c004c4e3f7a71e1a9114ce46cb846200009b565b6202ef8a620120e08801357f29396621bbd693771bc823368c2bab99c3dadfbdd6eb1a401f6b794b5267c9607f1cc2f9965d1567e77cfe3807e69d19a14b5e1107300130da75afaed1f1e4a947846200009b565b6202efde620121008801357f173f047dcc5eb915b3652bf07764c6bb65023b450694b1eaaa3c71ec94bc46017f20b7b115554f4010538b8e0207ba22c6370a384077d863f74712abcf000b4c2f846200009b565b6202f032620121208801357f15704256c2d3948c0226e9e009ea194adea6af1645bc06c6bcf436ba4c7c01247f27b594a42060177593221f2e47f2d2b70acfa7513a7e0e8af4aefa4ca43b199c846200009b565b6202f086620121408801357f229c502749af16d1c4a077fbe89ba5284c65f31eba9ca0e6a5bf29287500e1bd7f22a7ef3f13d150a72fec71861bb0214d8a5cce1878262ab17048c84d926c47e9846200009b565b6202f0da620121608801357f0c31ac9946b62971c36a3c5038dc48d25b9316a5caa14728c32106683ab34cf67f0c208a5754432635c8374b6d31c1dbb10c984ea0a1907e70604c40e66d47a65d846200009b565b6202f12e620121808801357f1a68c6e9f69e626bebca78a759c08cdde0db85dcfd68d9867fb864ce21a569cb7f2f7578b7c247dd4917029a938aaf6b8c22b6a268e8ed64cf951680842caabafc846200009b565b6202f182620121a08801357f0cea5b45596524c69b2fd37403b88a8a36a7ec464c98d80bb8bcf6f0eb45f39f7f0b0fbe77fea81f2fbeb34ecd386c16b9f90e3f3952acf9b7d7a754ebdcc15afb846200009b565b6202f1d6620121c08801357f20ab1dc9201129e2979a17520a18020655f45cb0d70e090631c7145a54c336727f21616133d1e6a984ac536ec3e524da2add54a5be85b4d051264dbc7cc72e8e92846200009b565b6202f229620121e08801357ee1427816176bcf9d031bd841fd748ca2b69d7d80b53c2299d2f1a9e36ff7b07f1117440319497bf55801c9ae1a8f5a3db3506293b7c53da930685bee5c9aec0a846200009b565b6202f27c620122008801357e098dcb76a98b39482c583c0d18494f70b5d5285105c0f76a8577e775ca4f5e7f0f61da52473e47f522b9958ee0d2af0a292e050b5c61877ae475615fe595a40b846200009b565b6202f2d0620122208801357f1385ac97baab8a5c73c2c27982cedf73dda8f0afd6309ef63a58116d2ab5d1587f1f7f67bd04eafb5f430776e270b5535c874a77dce25f0d6758183cfb36853225846200009b565b6202f324620122408801357f11fef82f88143acbac7a52456a0846af0bbdc486b807d8ee5d9faa213eebe1477f2e83a5d9e6e8ce2a3715622e1963a679b42b30ff1e45a6d2cf7a764f4fd610ac846200009b565b6202f378620122608801357f244fcfd5708becae19a4da8c10d37685b0451c0d63ef2a73e09ce77ff7d17b987f04e17c6eb890d2502bba2645d53c262aa3024c83d2f306c284b22150bee545cc846200009b565b6202f3cc620122808801357f2272e38af3da821da366346768fcf44a209103d3cd94c014ec6453921caff1187f1ef0a1d298366833f3a291bcda5653194ea08e20482af87d1fcdcd53f039df63846200009b565b6202f420620122a08801357f0b1fa0c66e7632f11d44104a93b5ce6ab3bd9294a93183b6e96f77445d4c50847f177386ad9bb378e1bde632845a2ac52123513d68d09287472c2ec9cb4682f39f846200009b565b6202f474620122c08801357f189e5e5254166108543d65a24b12353202f3a1cd796ae5d73dfdeb5827c09e887f2c8cc2326830381bfd0cbf4d6c4b0f1200b5402aa43f898f4f9de64bb82b521d846200009b565b6202f4c8620122e08801357f19afde67ddee75808e5f1aa5c831daf4ec7110e21aff575b9e82fb99ab3a1a577f111edbd0d20d9cf19a88d7e19827074f08ebe162c1e6e868b31d587cf425e574846200009b565b6202f51c620123008801357f1e712d4c4575d03ca1294d6c9fe7b3c2da53a2d7a920ec1126828375ebce9d6b7f2753712f7375d7f25a6c0d817d254a4b70cacd30328d3eee7ef0299c9cb18068846200009b565b6202f570620123208801357f12397f22375dbf4db6e54ecbbaa91d037412e8769f1aa2e4e0bfaccf2e42cbe27f2298f158d9e777b5a6c2436ce952ebcd0d9a8ab003ba3d3ee0a46ac72bdba38e846200009b565b6202f5c4620123408801357f06b50300a48a5cd34a57adc10ea0afc69be0269e78a3881d86564fdf978ed90d7f03d21f76fa10b879e1e61874ab7763d58aafdfdc4a9750266184e1f0ee41aa4a846200009b565b6202f618620123608801357f13b92695b138b1165308f5f72fc71a914c45f542968ea08c67a009ff4a3391cd7f0b8c06080b76455af077f817807a10159446633b646d6b90500399d73898cc26846200009b565b6202f66c620123808801357f146105d46a709c7ba5fe6f81cf70acddbca0b0c9aa9c446b4264ff374eb590c57f2af1eea42c6f63d9bfae14e6d2878986847cadc3a13c97c7a17c8254fdbc896c846200009b565b6202f6c0620123a08801357f156c4b95c4124d1d38262cffaed08dee439e68d4ca98f96582bbb7af5e0ad68b7f04be3ed44b080422459c172ef7017d549ffa32c571e744a646211c2970be1ddd846200009b565b6202f714620123c08801357f0da70d6b562398fbe737b7be991ff546e483500cb07a464a02d7e2adab54b36f7f136db07a1d071e342677a03ccc91df3c837eeb05fc5aa381e08634a28b1b4875846200009b565b6202f768620123e08801357f06302c4e552b9eba96c38bf8f60dfd40254938b5a4c1e227d4a6f0694666b4017f0acf9193ebc2b3bd0d6dddb47d87831e9162375267a559aae9a49e7a1e7492b3846200009b565b6202f7bc620124008801357f12c0eb1d26839bcaaa4d42e7b5a49d3fb951408e517abf04e707db44d53fe2b27f04e9e9941dc482b44b55f463e1292a2cfa39674ed6dfe1d8bf77efc0aff5b9ad846200009b565b6202f810620124208801357f25973e3cc25d1619c7d4fbb26723f4efce21809206d1708a929d3639155792637f145196e520681e271c429bd2de4855f1af3a87a2fbb9db9c6ad54422754f0d93846200009b565b6202f864620124408801357f2df862a1cdc6945fab3320e8c50e9ddc5d0c86f6e68939a18de3db5782fe68737f20a81929dcbe6a22e578a445463e6b56718c8d760d78e33fcc66a52d3c350e34846200009b565b6202f8b8620124608801357f0d53e23a78bf0efa0667e50a010f6a814219cefa5c775380542ae09466f19aa67f1fcc1dcc6260aea19dd4fdf4fa3a83a5beca5f461bcb445bead1e7cec1bced06846200009b565b6202f90c620124808801357f2886ba14bc223f3465837b4aa6255d8803ad7ebe154c5f63c295bb1f296a15a37f02307109bb158c8662d7294955a371edff233c6ff217c3d5f092717dd64a96d4846200009b565b6202f960620124a08801357f29062dc1070a836d09fbd2bb3e5265df1f5ef9489c5a5184e5315dac07cc919b7f2208bc18f4e8978445c369aab950c8b976bf4a05dec24c56b15b71d71716005a846200009b565b6202f9b4620124c08801357f14df9108753298bd751811c5502e140e5e61b07977d8cc782227578caa8123ec7f2f403bf1f8927f14594a6edd89f62db9bcb386c3e2178db09a059f194466425f846200009b565b6202fa08620124e08801357f1a99bda8babf905b1fb702844db840792f63a4c0ba6c41eaa897db50167a33787f1fa16b24e78a53a4614f1b2dba8e2f26545ebfb82e38b3e7b0dbc671ca37b344846200009b565b6202fa5c620125008801357f256ec4a863a0dd64ee3d169c2d8966490d2a805ca5eec3116fd77a7df7b2b5d17f11ee00e7f7c460ed1d21c0afdd2a63f1cea722a3309f04008fa5d3b022991132846200009b565b6202fab0620125208801357f2196ecf29ab3976b0bafb14c227296eebc730d88ceb47d340a6b7ac7d886392f7f0b513fd42a6fd46708708ad8c73d895bc021e0c1bf46add03a58030c14b24cfb846200009b565b6202fb04620125408801357f2558b7320e241c3c1dc7cf9a40ff65277cc13a57aad95cdcf8bc61a06dcc654c7f26a85b415ba70003bff7ba0d1e72d2f0ae82b3985324af2dd345fb0b82192d47846200009b565b6202fb58620125608801357f1c50c894af2f3a1df517a5d3cddacd5d792342669ae20196bcad68cd711d1b3e7f26e6ebc78db8214583e5c9d7f6acf48698330d7aa797239c5404cc1d9ff32780846200009b565b6202fbac620125808801357f256cef750c334c3b7ab0e99f68cb2fa5c13cc065f505ae3cde11d58b2a3a96807f0a833081bdc81f7c893986840e821fcabaea485c47c7d49ff583b1a54552c90c846200009b565b6202fc00620125a08801357f1d142b3ae97c291859a12fafc9160a731b9def8facbb500dee8d0a1e8a2f18c47f2c66fb8156f2e32642905e71f8dfb7a701cbee11cc5264e6bb44f85f6fc52da3846200009b565b6202fc54620125c08801357f2f23d679f7dced10ee26217b7cd2701191307811796a3f132f4d6747e75c5e217f0d68dbd587e2e25dadeacad9b07ed4d1b1f65aa91056e7a0e540d5707a6d21b0846200009b565b6202fca8620125e08801357f057f461362610ebe7cd60605e659be574c5199f208763608f3ca32c11fd92fcb7f220e0e69729993e8f68a0dd8d9c0bcc1f1cf1f9cc56606d61265590fe0273735846200009b565b6202fcfc620126008801357f1656fa9d657b6fafaf959594eaf0eb3dc2051da32aaa60e98d096adbff30240b7f1b405634c6cd2e7d587edfc1dc4b46e639c028a875dfa53a3a7c65d2d80633ad846200009b565b6202fd4e620126208801357eafccd8efb38ba37635f0e65461fc841c26e70c4c0c72af86ee9451e9311e0f7e691a5331a123cc6bcfbf3f5a4ba349afe2e733611881faee554dd1eb288fc3846200009b565b6202fda2620126408801357f05f9c74e3d9d2afbe6a8992d00061b8cd7d3a9bef3031d1d6efc3be90ebee50f7f2ef4381b0a0b62fcdc47e35b1111d34da904a79c8e692d2ad5fb8c66e035e0ce846200009b565b6202fdf6620126608801357f10966825f77ad4bbdc604821fa213ca9a5a40e2984ef15b05f394e7cee01c7727f10eee3610f5daa283cd6f11dfd3e1664e27d5c1e3481ed5c8d0c0eb9cea72636846200009b565b6202fe4a620126808801357f20c719fbf08052b4139bf5dd4f663bdde2aaf67b26bbbba5e7ee158c74e203497f245bd82cb195672a87805c631aa83fd592157407833e96d922e1ced6efaf2cc2846200009b565b6202fe9e620126a08801357f0e13d21af1b441a7452318b333ece46ce7c29f53904c2d1cbb18a2308fc7658b7f21562dafaf0cd13a9da1c74c9c30a1f2a441558aaf8706e2e30e2eb2059c7c9a846200009b565b6202fef2620126c08801357f1e58a317f81f365055c57a3fdf4bb2be3f5959800eb94fffb40a6459bae4e0f37f26ecb6aa3c246a8fedb776c28f41b513314c7666bcd204e4c12d8ca12d7e9dd0846200009b565b6202ff46620126e08801357f14f35af1e55cc84ca9058b160c2c38437252fd8190e3360ad2623358769103367f0f45a577cfb8ae4902ff0299e7e1d124571287a98dd927722b096278ac73b815846200009b565b6202ff9a620127008801357f2889cb17fe67219f609e654eeaafc9de69da3d28282a50a452eb6c48c9f737b37f1e521d43f4f18543c509fdc23c1c200bde729e2196d2dfd7ab358d0130afe150846200009b565b6202ffee620127208801357f04d33a28577d269b10a7577ed0345032900eb114643f609e87dff3be08a67b947f0a8e75586f3ca40572100ae9a4a066844075ac6c7c35086a07c71d047e29ca71846200009b565b62030042620127408801357f243406112e3ca91079e7553cb8079e0211c7321937b1e5519ee6a4d73391f2077f069f0278679a35167cdf0f8ac84431e523240edd040f83551a77154372ffb623846200009b565b62030096620127608801357f22d4b1483c86ed33a80c2ea41751114263cbcd3ac5d68592994179e7e0382b0d7f17c2114a7adb2c8d1b773bb0681c19969993ea4692e24a923df3d886ebc42abd846200009b565b620300ea620127808801357f05a511690890d87971f6c4113057d6ea11f04aa4aa79573a7193c3ba63df08e07f11096c63af66944952224b105133dd1d5d417a1d8af5beb8c8257b7c3a121efd846200009b565b6203013e620127a08801357f0a18629880116d1fe9e3b81dc98db9a3c4ce243bafd2917841c529e73b4597327f17cf309559445c60faf1c928412ff846ce48eff9bb89707c464b80fb973cf2a7846200009b565b62030192620127c08801357f010ca53f76e2d3d73d3e9af2fbfdc573e1dd49340856edd27880be08c9ae9e917f13477f098b6b24c930df20eea7766cb5d50ce218acffea5dda4ee6d5f56395ef846200009b565b620301e6620127e08801357f2e14630f39aadf03065ed8c42f1380081c569660066bd9dbca9fd946e8f0fe217f18f0a753d0dfc4bf887872fe1580fa718783e5d185c3c22c449247dbf609f78a846200009b565b6203023a620128008801357f2edab9c751b325f26ddd6f7eaa1f8d03972d206637806688f967448e6af92c757f01d27e4c20b4117d70043133e5cafbac7dbb181fe18fa7d1f4a53a463ac8c955846200009b565b6203028e620128208801357f1e36cef71c60b85db86128cdd992cd62162e4f30b9d72c331500f06216b1c2277f18b41f8a9c8b0de7970222702589481ec2c97074f526e226a53977a57d4841d2846200009b565b620302e2620128408801357f1b1928a6dccdf7b296598b307c31a7e5ab7cbf88f1e012116fae1faeb6b86ada7f2b3408818448da749f634962f979d63212cf48244b2a6c47265a67da49cc30e1846200009b565b62030336620128608801357f16b81705c55b5dd162c414f6ace2b0dbfa41132a80b1f187aca77f5b505d7dcc7f178cf2dd941dc2591a22add59a1f35168b373ab8ccfa9aadc6ad5ca17b71537c846200009b565b6203038a620128808801357f0c0b0d1bfaba9215a1dfac5a1f0f955b8019675f5c3e52951e103bcf8255b1817f0d102a1ce7b175d699d7546cfe7634ce1c67423abfee2816e69e00377e641ec4846200009b565b620303de620128a08801357f1d081319523fac3ecb01c45cc4d7235ab7a7fa62248e8ecaddaa1fdad76d614c7f2ce017cd24448ae19f9007454236e8e3a4beaa12043f150239a060e99e8f0c7d846200009b565b62030432620128c08801357f08a6c3329ad3af0e56cb8e019ee257f5e3afa0d0403bb908cce32368dabcbc737f0f9f62821f07ef31f6550cc3e96720015d92755dc6a7fa0d7561efa36bc16809846200009b565b62030486620128e08801357f0fe19c88ec4dadee47b8688fbddc512edc042a66853caac2bb0ce2a1f30e91347f03ad255b1fa06b29dbce9b3f941d561353b0e140a0ca20b7ff459fb5a10009f8846200009b565b620304da620129008801357f26e8ca3d3aa944d49be4ab264e264bcc91651217ad8629caaa54cda99660e6cf7f0f8aa5189a4d43ae85fb1683a331b75cea0a4087259ab9c89517b035e0ff029a846200009b565b6203052e620129208801357f150eaea356b3b16c11a27dd60d4fccbf9595271ff6d2e0c5b319370a17f290b67f07dfea579c76b5bfa68fe4a16b6f85ff556eac220874a21602f1361ac7ee8e15846200009b565b62030582620129408801357f0263cfa96b9862b95b64b03d5e59d2fa9eef3996b8e7e8bf1dfd1baa78815c8f7f29240b3e9d6f3a7b7386cf74947dabee65d94d436691770bb88809714b9fadfb846200009b565b620305d6620129608801357f08d5d55d6e0d7e2fdd3e420bf9d0f7e407a19103c7d61b20f43b642f70ffab027f03fafda98a48c43c4a6d4fc8963c9dd76032f3dce9739fb4d8db728e48ad696b846200009b565b6203062a620129808801357f24eebad5f84b11e67c2cd5c9a86501646dadee0736e96ebb6d81899d4f0d51d37f104e8637e4f2771a10c75019dc2e8617df4cf78999dcf46afd4e7b9a618afae0846200009b565b6203067e620129a08801357f1d80925663dbb4e01497d8be22c97a03c519e1552e2eec858b21ca59f14238bd7f0b7c2a5840141529ce8bd347a22b1860faad006bfb8066ba675e08dda909fd39846200009b565b620306d2620129c08801357f0b1656f936323d5aac159c9edc8d5f190cab01dec371e3148cf27aa24fd5465b7f12a15eceecebaac0ee7e8bcf12824b88cc45dc3ff0e4bb26e4fd98fa996451f4846200009b565b62030726620129e08801357f2ab728caa2a18d5bb67786a3153da14aaf67cdf81cff373716bdb332da1f058b7f11c4cac72734338cf37ad6e99869d96b551eaa5fa98d0326f4e80bc4f5f5dc07846200009b565b6203077a62012a008801357f12addaa5e6459201137d8b61a5df7ce7edc9058bb8f06289c44814d446550a8a7f081b836b70fc573edcd20acbbeb4fe357b0f1585b08f080bc95851d7efd375a0846200009b565b620307ce62012a208801357f26a62f68fd5d9afb967c4d692c2542f3c7d91115ddcc18304b913473bed366187f2544315e9e40300641f54821323ebdc2e337256da713d022cfff4e2fe85616b7846200009b565b6203082262012a408801357f169df9009f552a117dca974fbfc0914a8d055a3ee935437002911159df41c73e7f24180c939522d4e0914efc91011214ff182616eb18c7511a5bbb3ba5edf5f9c7846200009b565b6203087662012a608801357f2f989832ca44f9bc35fa76800bdb7b847133bfe0ea18d88f29c7b1e965e34c617f0d521df41bd14e1ec1188bac093744c25fa74e930a72c184e28c741a952952f1846200009b565b620308ca62012a808801357f2ff9388108aad65bce75e39b21ebf28c9e7aa0cdc4fb9cb075dcac3eaf1f059d7f21653071afc0f86304891312f11f4bdc4511ec62f4c18c1112412fa15c7c021f846200009b565b6203091e62012aa08801357f157571516d9016e84562d7a57f91590e08fbd71c81ad9ced87f23aa63be118687f2b1c82b0214ad1f85e83aef312e3021db65be3a94a1923f2034295154596e819846200009b565b6203097262012ac08801357f11c1f640c1ea39fdae3d3618d413e4d5aed71d252185180867e1923d9e194d327f040792fa6be1986ccc0870e01362af854d53b7528ae1feb8de0ff80a450a6e12846200009b565b620309c662012ae08801357f2e0bd60e686ccb75244038cbfa05246edb1fa501d655d286e87ff0c3657ec71a7f0909aaef87d9e765030c42e9050816d34878d8ac8ec4746b7b24d772d002b6f3846200009b565b62030a1a62012b008801357f1fe283ea90e00a927d2b569d9d208893ad05a72f7f37e2627e48358be692b4567f088b984106cae6198aa71362a4e2b5a3c5d749d728ac588bf251dbbde9d53742846200009b565b62030a6e62012b208801357f139706d5edbaffc1000e578660863af2879cb0779813725a8b4bf1cf640921757f2f1d6a7b9af243e6eff4bac4ff845f05a97f6ec179f809c7f13dd43535bff243846200009b565b62030ac262012b408801357f0b37cba4738127772ad4242a454bfd5ca6232830a99ee66a14eaf76fa2378c817f2bb178142b22f56c895868630d7858f586aedacd50752276d83b0e03842bb1ec846200009b565b62030b1662012b608801357f2aee56a92a0d3129840182c222b4bb7198d8fe22cbd1cc50e0f4eee9425d62ae7f069d5fcafd4d4c5e61982dce6304c11cf167293c0c9ba9e06153142eea6c30b4846200009b565b62030b6a62012b808801357f1447bdf9e599dce3c800058950222e63252a03b86a237c3f7ca1fceccf2845b87f1d86d1454c8abfe72b13c50e5a98ec71a26816c44286c34ebe7a7f9c289c5658846200009b565b62030bbe62012ba08801357f1276453a921e62fccdd0324400bfbca1d825e5051f63658954d79fa2e051614b7f1a8da2a9fdb857036f10a84029c51701d5694ab49325aa3aaa778d8290e421de846200009b565b62030c1262012bc08801357f1ab60f5340db4803d379f461b6f605cf728fdf9fd22af0e5da91315aaf333cb57f2bf0a645ce3baa2b93a058dd319ecc060d5ae2c5d9127ecccab1e2db0a4fc1d3846200009b565b62030c6662012be08801357f27efae2ffbceb8493ea7423703d4bf3f26d3f65c59268a10c4b2ec25da23a7487f1dbc2d896fd3fe5e47544b9309b378b47545749b1c0851a8df0f8d7cdc3f20c0846200009b565b62030cba62012c008801357f1ff3166b3e6b2af86b9bdfea839ef11a15bdee8734df105a4310c6f8ef155aa57f24e08461970aaea8300bae9fe106234c55f64ec65ce01953f6a922658b7881c1846200009b565b62030d0e62012c208801357f295db85710056b698dff2d70f6d15c2a02a8bd6d83447015b301a41160e2d17d7f09b745d88626b36e81c6d5d75e353674af1a935d6bd0143b5b604506de30e980846200009b565b62030d6262012c408801357f1d8a2d99a7edab575b4dbc6ed35589b0b3d386aba6e2eeb3d4cded68e5817ec57f078a6155c66693c2cb2eee9bc35c8ae7d286abbb41197a498dbb814218c413e3846200009b565b62030db662012c608801357f0fb5c22c359fa634cc34e66dc6835a030fdae1d3e070a2bde7e25a90086d10cc7f0cc3e51bf274ac29021c15a1c4ebaf99e1333b6cf6f427c6fa857a978779b9ae846200009b565b62030e0a62012c808801357f08c2293a98ebface5f5cc9cee7aca93d12d54180b13f506f3364a25c202b773e7f2ff9c398d3f885a4802bee7dc3ff1f3a1738e566674373dae5fae287b731f137846200009b565b62030e5d62012ca08801357f1f552d6295758c8f8931afc29b6a202d64f109165b6ceab1758922e3001004f77e863a3f1e37616997481e2bd4f1ea737b6043ebcef00addbb12e9a74349fe05846200009b565b62030eb162012cc08801357f0bac6c5789494c53bf1aab8116b1ef1e42a94ca62ace78063d4717fdb8f9156d7f157a862d938fee42dbf42366844568cf01035c2d45c1bf0c875ce83d7ec2225c846200009b565b62030f0562012ce08801357f1ea9461e18ec6a6c520b377ee672d63839b521c6e72f8dd78ee1f861f8a82bee7f2aefe7ed0b8208f6c3ec681f7bfd85771c82b7db66ec9dab17f8fa3a9400407b846200009b565b62030f5962012d008801357f2210ad002c9c19b4beec280a265c508de4a1fcacc956706c81a5dccc5d16ed347f2883e5397993222a19a2305d033242de1c616a4ef41f45abec46b5b52555165a846200009b565b62030fad62012d208801357f268a7007883802e746bc667aa4a799c59450f833df217106b92285d74448cddb7f22610469172285ab97ad11ed94ce8b163fe649a854c0445ede6c456290212a7c846200009b565b6203100162012d408801357f048c2d4649ed010ddb64c969dba6ccddd194123bb0823ac90bc05cfa507a5ebe7f114256cd02ce7a6a3ca84d8c35f611e30c48c0291384374a7653aa4dcacda46a846200009b565b6203105562012d608801357f10633bb9b4ca6a41098a94201ec3c4f04dddaf53672795eaab83653b56cd09fd7f0213ca8c935e5a9153ffcbf936fe1eb2faaa7c2ff093664417916ba5812a590f846200009b565b620310a962012d808801357f206b32bfd1d3638dd7ef107fd6743c784fb4e5d9b476c1bdd5b44053587bf09a7f1b30c9c78d7582d9502e86140e312afbf52923c5c19bb11fc2672d0ac026e08a846200009b565b620310fd62012da08801357f2f59cbd01afdd2469801a3ab31a682cbb44838d5672d8d6fe29fbb3a616dd9737f08bbe217698e500e708b8c80a4d1d4d190df3e853a2e5066d459d42bfaa65900846200009b565b6203115162012dc08801357f207e18bd3d9f635340a8dfd44b6103ce2823d15175caf48d29921b3d77ad5ed87f15ca85a99e5a3c7c173e17c465f470c853b342fa67659804031ffafa23da2a88846200009b565b620311a462012de08801357f089291aea3ccdc6f4035144ca73a9c5ed546083447d070052049759c080568067e27e32263ff1e86a942e4604a9b3d7923140181b4a6c983c4dbcaab7cb4837d846200009b565b620311f862012e008801357f190156aea66cf442cda0fca5a931d2a1da62bfafc7be68a487236ef38ac932f07f034465c33083a038d29c4bd3c5ad3266f44a5b479a72cbfd0c1419d13a296b38846200009b565b6203124c62012e208801357f14f581ba1e30d8db3fa03f4943942f3dce16578e61bffd8602558a17e5518c1a7f2809497de80be271e2e3c6294362a5d5e89dce9d27eb5c71d9d760957001ebb8846200009b565b620312a062012e408801357f137f1d2798e4bc338a2403befa9f98968f8c404f7fd159b9851dd69096537d867f0f86a058f965b10789459b0977a59616a7b7f275d2b93fa01950357518d60f2a846200009b565b620312f462012e608801357f0f67a058d464354bfcf368ed5c44b8d0499c1542a9a323197362812a49dabbdc7f23a99899bc7ffc773aeba07fea3e8c137ed12d50500d7660bb6d74445eb54318846200009b565b6203134862012e808801357f1cdde7b264febc2256ed7dcb639560b44e1a2ed811a605dd77fb116517ea96067f0fce45feed48d7f6602426948c6be64866181fabf95bc4ed1cd135b9c29d552b846200009b565b6203139c62012ea08801357f219245ea3207c10520d437569b31e7a178a55e24df0c22f3227b6be312ea053a7f0ebb28e4784ced04c2092ba77e9ddf5dd1cbb0dc55232115a04f5e025bfa50c9846200009b565b620313f062012ec08801357f0d1a0f332f19a0fe0603b2cbe9ee20745e5d76324eda46eb88de7bd4667554437f084b78f1de0d9303243aecde7bcd27981436e153ec70d692d8c4c87e0afd5642846200009b565b6203144462012ee08801357f2fa599c8531ac688e9b8225ee30a1c77defb8a800d7ef08a57e7f7881a4df6907f2e3d3bacb60ed0307aa6551ae6bf1e34ecf4e863f2b416573300960a2bd06e0a846200009b565b6203149862012f008801357f28c18d5b985d26da36a87ef9178cb85c9910b694595ac2b9006c9223d9526e0a7f21c944a724be218ad2a8d3954071faa92596acd57e20fa20adaa3ba198e8ddad846200009b565b620314ec62012f208801357f17ab94e036e6f866da97c37edbdeafd568c7d870045fabe9dc674738346983887f22f7e5a53eb5187a52d738101dfec0e92b02a6d6b073c706faeb88c9a56b0b34846200009b565b6203154062012f408801357f24474c7c7723dd8ee83215584de3e315d085d59be874cf5c3cc70a991a44b38b7f09e74e9ec171ba5cfbc3eb007a99788c89ea1bcb499785841106183494a8e479846200009b565b6203159462012f608801357f30189ed516eca1f9a34949d2ea0a455b9f9387550fd746ed0486065145340cc07f1cc4dea1285d6ad986a5a2d85016ede0a36cd1faea239835f3f4a12c58dadbdd846200009b565b620315e862012f808801357f2bc323c51d7a255084779655840fcedfbaae75a0b1d796b8eee07f1d2ad73b057f0f63fb13e3b97cbd92429eda1aed2b09bb810ee1d050cd198d14f5962b66a8cc846200009b565b6203163c62012fa08801357f236b920a1d88f0a1c72ee571527472fd11f2d5a2c96de1e7c76fdd3a06fa34157f15aac056a93b4e6a9f5f661c6b95edc481e6778c1b4eaad03ed52ed62ec19035846200009b565b6203169062012fc08801357f01725cd1fe99ce2b8c9bc8f0298716c320e898115876412dbe1f6bc3976f27537f23ce8a802696f8d9c7d82beb742f7c00566ce5fb425b917b849d6f121c6fd8c5846200009b565b620316e462012fe08801357f289d89822437217b3c3db474413303923721d6f09b30fc48c05bdddd2439d76e7f017183794d97c5371dcc4c5781caeb4c58877acf38a543a3b1a2358218c38dc9846200009b565b62031738620130008801357f2ae8504eac5ecea861d732fd873d67f1a94edef2bdb62eebd10be1d207b0919b7f1644eb46b6cf4ac586721d2e9f770b883b7bff65efcbf7905778f067115a4883846200009b565b6203178c620130208801357f0e6b4f8dda7575e6c9f8c0c7593c0b53824faed3f440b76295ba90e0214528b77f1737250e63b81a24ec2014c8999cc877db771d7bed8cbd167c702bb5242a8151846200009b565b620317df620130408801357f21d809769172faf3f02c7022f4443645ed8ce7b23a2ddfb8d82d8dfb372e35227edfb27bff37330912753bbeba299acaebdbf201cb1868bdcee3330eac7894d2846200009b565b62031832620130608801357eba24303fb5503126fdcc7d118d0b5d661ea66f58d34239abd2f3c40ac066b37f23c175138eb6b8dd40586779e03b3e66136c45e34a61c6bd0a0a5ecb5ddf1661846200009b565b62031885620130808801357f1013ef7a073f32e30aa959199ac09943150caa7e94d9d7325a663d277a0be1d27e1d861b29011885d5a01770c3274b84bd0215e67e5d9123b4c931ce88aaf405846200009b565b620318d9620130a08801357f0ca29eab8b433338147d2554f2f37b971077548342befd2ae2409056d619d4eb7f0c2dd1b947eb1fb0f2591094e624172041092078fb2f224cc3459263e7ba1398846200009b565b6203192d620130c08801357f2404ab660fba068b4b7a542521da7497e0905db89432cf9f27c6e786e26f029d7f07fef5a9980bf1c6a159278bde224e868c1e51e7d3dac4fa32318ff5a1023f09846200009b565b62031981620130e08801357f14f5d68d6d5edcf3d5bf5c02b0571ebfe67ddd1487d921df5c28273da9f7b7a77f0ed5cc78ab32d55c0767a5562e090a46e27dba3887b1f18b148413b0846c20e1846200009b565b620319d5620131008801357f1ad0afdf1d8a50659323ba8c63a95e7a9729b7679141de4e924de9ad376f3d2f7f271a65b35f645b566c4b05f644ddc84cd859442fa1de48e71f0b5774ec3a2c31846200009b565b62031a29620131208801357f04024678d78b8657cf80b78010c5a4b259b52ec41699290fccb64028763a9b627f2f70b563928b3d3d5c782af426c9f43909c21b6a0918ae12683ba91ef108e524846200009b565b62031a7d620131408801357f21ea5613efa2126a0821f5fbf6d9acaa4e9c2c3571f309fdab018c66dd1a441a7f2d2557c98be1dcdc2c23aa0bdd7be4bc3f815136fcd29a3f2133fba8c3cfe5cc846200009b565b62031ad1620131608801357f06b805d3bfc1eefdc08efc1ecd31f91bac856be788e24ead145e8c60bb10da947f23a29f73e3eea39da64bb8a3ef786314e35ddcae985c31791d098f3cf3bb9409846200009b565b62031b25620131808801357f0cc14f0b8842a348b8bfd349131cad13ba0ddc74d510ad250d91c56ed686f2377f0808ed829adede4196b7faace025573a8055a93eed41d23f54a2dcf6c02e952d846200009b565b62031b79620131a08801357f232fa1869654eac7b0df5dba951c5f765d1826097bab2abbc9872e227af084427f18ffcb3ff2380c28f340e88950126f6270493e5e6bc276c3463d59db4e77d015846200009b565b62031bcd620131c08801357f124e3f7b8f8e612d25714fed04bbbd81b306fc11355c2865f50ac94f05066ca47f15afe1ffeadd6c199f3c110563ec1d60191a53d8df36ff3a72ccccf1468c2344846200009b565b62031c21620131e08801357f1cff5909e6b00b2299eebfe7776c8e989f53ef26450a0f8699d09d6b47b5cc8c7f20c0ca10e26f00302a8e6880498cde4842324134cc9ef936d64b36cd9567a4df846200009b565b62031c75620132008801357f1c64c7a77356e9a21a7df60f9cbb13ecd18ef7eaf8e58150846448b788ca306b7f153ba9a77d59c577bea0101ce8892984ad79b2ac71f798d9717c78d7735a03e0846200009b565b62031cc9620132208801357f03927172df5088c7dca510ab9f309b50ce4047f19776298e4c9214f205c239e07f29c8f72d656174f820d4e618496f8171df52b1d2f940dd1b41c1f28c79a9b12c846200009b565b62031d1d620132408801357f2d15dea70587da358e175d06e6065d835dec05fe35081dd65ba249e28584e9c87f20b1d8693ee42d4e4238fbae4945844981f4bf4a2e6b10cd5cc403b94f355dce846200009b565b62031d71620132608801357f095e1120ac20a3bffacf015c702e2bfae171d1b2874557fdb4f56ece7e475cba7f2c27a9c663e4b1e5d03981cf2051b0c4cbb797ba60f94e372fcf8727563d8ada846200009b565b62031dc5620132808801357f0d3f0493942157a66f875fa1eb54571b9a935edebaf411058d3e5e64da0ea75d7f1d7bb95ee938c0d41701aa234da52f1ba8a388f453d9cf0004c9a07a6b18ceda846200009b565b62031e19620132a08801357f0ff363b10e8247406dd2772238ca9cbae17e3160da2c0b5ea260f545a93d6f2e7f177a4aebd130f92f091e8a61dbff1ae1c5b360584dc4f16a28ae32500773632c846200009b565b62031e6d620132c08801357f259a8ef6985c2592e25134efddf8500fab66e656e3f6384626508d75c1582db47f1167da1dfe3876779953b5affa4e63f012401278519b774ddf4da3639addf9f9846200009b565b62031ec1620132e08801357f13aadc38d86d570531b4908362afea87977f245c6a034852dac8d01597e666717f0d14c790549b661e4a1ddf6478946ea47254d8e358580b0fd3a73a1b228f75d0846200009b565b62031f15620133008801357f1faa9e571652e4b10eecb0cc7c2f6a15ab009edb262bbe614a7ad74bc151641f7f21d269734b0f20aa449b7cebf644022182784be491f623dfcaa1c53048010acc846200009b565b62031f69620133208801357f0d50ba400115e69448b9f4cef250bca2767d6350266a9fb310d45c30c75de7057f14be80725f0773c74e458622ed548377d2538f83114ec218b5f33148addf588b846200009b565b62031fbd620133408801357f270ccc491d71c03dc0cbcb9a0b03fe3d730ab6f0cb6f0e36b5e571fd79e262ee7f2b091580b2d3dc82638350762997b4041b86c6dc9e99ba498bdbb473feb06744846200009b565b62032011620133608801357f1d8167c076819269a0f8f5b5fa84c86cf9294a1e4b4ecfef233e8a0c273062617f1a19e3b082f4b299d1865c5fc3c8a00e09295d864c6b3d3ea0a01f140b7e1a67846200009b565b62032065620133808801357f02a71b095ebb5a2db9e1783dcf0f68b871e6a431469df2ba775712bf74b8f1f97f107111ddce1f40d619a7f254d12d3282f1c7974f75f57c92a768a60878c354d2846200009b565b620320b9620133a08801357f279fa3a73e3c922a5452d7e0fafe18efb46ab784a316e0857e5a9ccc20ca1baa7f2af1dafa30c9f6506874105657842ff4f889a2d4b8ea81479f3db25c9100d274846200009b565b6203210d620133c08801357f0de3c86514e125045a4e4a8ced499ea06774c35ad789db92fb2c05767d7e35407f2cc5ddbfa5fa02892b6be310c998755ea5c05adefff9f2d5d2b91e2e5cd7764f846200009b565b62032161620133e08801357f2632fda8456919b9888d577741acd6ef0567783b9b6e908945c3996586295de77f292e4ed5f89e9129777a17931cba8b1d598daf52f38fb0a003e76811e80afe31846200009b565b620321b5620134008801357f1670164dcdba6d1bcb1718c6b1c93467dd4dc01d3cfc79ef32ea12b218b9c6577f14216b07e90f0b07db49068a03648e06b6ff2407ed9af95e13681090578eef3c846200009b565b62032209620134208801357f13f46efa876273d4dfa9eea12082d0c8a1989ab2a56e6f2c46569ab28e5d29b97f0d0b116d5c9f62d59d835828a6035f0b19f256d73a68e217f6baf5eb5e9ebe70846200009b565b6203225d620134408801357f201a5367838b6f52e10c65fcc4added37740b9e7ea49be71141b8f6404a1bc257f09a1227181ad74833f50826a16441d7e3e14c3a209204d5760eac3db91f03a06846200009b565b620322b0620134608801357f037d8484d0164081ad76cde48d39437c5f695240d1dc330f176bfd576fc350557e97f4e28407fd7c620b0eceb17910ea38b3dcdcf7e293c01b3dd14d4bb0c6f4846200009b565b62032304620134808801357f1c6128f8614b45ef342c3f6a296eaa23f5350cf66d749e2dc54bbe21e1dad4367f261f094c88b20c4513282b210e48f2920c7e09f212ed0308ab89270f5547eb57846200009b565b62032358620134a08801357f02bc5c5b47fdf05a00dbb19dbd6653a3d075a60caad6d85522162da1dffc58fd7f0ea4f76f17ce40e73d5717c1a696e850a77ebc32da76eefdd6c3a0a4164d4c97846200009b565b620323ac620134c08801357f2e291121a9adff9a7a0c7db276dbe39cb7b06f45c099869bcef2f82534a4d0a37f2b4f9bbe6a2f8fbb49f8412f70f2fedea6e3529858e092c1140b879640396f90846200009b565b62032400620134e08801357f2460daea63083618fdfffbd60908f03f18caf25447dee55091dba52ace8f4c6b7f0d87af31353a8b3033fb8f178afe3b5abf1828ea2098bd5f0bc8cbda7a64a7da846200009b565b62032454620135008801357f1e614e764b3a34acbcad66f2574cf12adc1eada594d332470251597281012b7e7f0a1ae1240059ccd34692da4b4c521099819cb6dafc08c28071c29c80a6c642d5846200009b565b620324a8620135208801357f095378140a2b72d50a446c2c1b46f8fa4cb59690c76c0277864fad58a6b1c7e37f1a48dcde638a4a9b146eff239afdd3e9bb47190a700b9c3cf6181243bd2f175a846200009b565b620324fc620135408801357f04e0a0feb6501657a73ebca6e8d044df9711921a902e25a8ec25b2746a6459487f08886cb875f63959e96034a1dee12bf280ad71cb03cddb9bbffadd08d66aff38846200009b565b62032550620135608801357f198a8299918e1f90f3c8086c20091646db439fea31eb99df31dff02f29d168567f199589a8c238d408612b5b8c3c07119f2308f6e3250b152893e474b381b666bb846200009b565b620325a4620135808801357f0b94ea40d7473f5fe921f4c98d2a7c7955979c9e781e8ac65fa4731ef2ce75447f0cfa940bd43984dbd67b17fd459609c1e96631a36348956d27601f832e001924846200009b565b620325f8620135a08801357f149166a8f911fef13258900264d69f1cd73cc0d910fa8edf056093a4d153a3aa7f16d6f14d77216921ce44395054a2fdfcb1384e5978e0f1e607bc123ff2ba28f2846200009b565b6203264c620135c08801357f11baaca18216458f6f7ebc724637785ac17266cc9ee81f08e2da43063837a7157f2aa840c8e83bf1176687a8a5dedbf0bd669bcc2370420920350f758f6f762219846200009b565b620326a0620135e08801357f226309bfd455af70698c4a421c32c4238fe8af64a12740fbc3b3dc03feaa13217f08883560491365eb1a4432c5ab2c9313bc635ba579fe389b0ab2d100b61bc488846200009b565b620326f4620136008801357f13f176254064cde81041e9e73e0bdd588a9fbb9b32f81a7d7426acf04df651407f2351392295ea4fbd8962765a1715f841537db118315bfa30da388b08da1042a9846200009b565b62032748620136208801357f186a1efa3ab54606f31c2aa3d48d66d988e9f9a602ec6e2b32c1dd4ed0f677917f2e4a082bcf4b5057559f959e9a1f2a8cf8e93eacc60401dac0de3a917de68071846200009b565b6203279c620136408801357f2a5af0b8097e5c14df80bc7fe3b484b746d5422b5111ec5c08952bb0622959637f2fbbee9d2fc77bf7a76e0b4d3f4b130128958fa68f5377f17745e49d914da8ef846200009b565b620327f0620136608801357f07fe2f0bcf5bdb8085155548fa83e276de09551dbf418bd66d53d349b15f7b367f0181619954107cd866350117b07b81e976bd4e35a61b3711e3aded156b124f3f846200009b565b62032844620136808801357f1be8fffa0d83dc591639f308a4ecac254c00c7763e8cf8be204af755ab20dd5a7f1575c47ea4d04a078326893842a649065a7ccdbcddc2ec018e3ad56ed6a99675846200009b565b62032898620136a08801357f24aec99c8196c6184f81049cbb5fd57818f98e3f812d87c47129da4ccac8f7477f18ff103268fde5d28c88417212f39383b147eeea9bad432896caa7ec1b8c39ac846200009b565b620328ec620136c08801357f2d2934099a2d05d29cd40698d6ba2865d61b8907b917c9df1c963917a8959ef77f089c97408740a4224aa9ae7cfb28cefdf75d5007c2f773b17f92b47c0ef93639846200009b565b62032940620136e08801357f02b83a103168cc5d84af23f6465b526c674ed49a5ce28ea64b7c5deaefd69f977f2b3a14d7bc9e43dbd0ea2d597c2c855e92950e29c4fa1314db6c4052364a3d81846200009b565b62032994620137008801357f0740b5b81d095392fca19bfde5df7a7e8cf22fbfe17deab28063463fa66217657f2d9cac234b9ec732768e8e794d9e9f17d69eca1c558b0db50ca2d3475944f6a8846200009b565b620329e8620137208801357f2959d4d8c64ce2ed2a81daf6cdffd6ed1a1005ca1defedfa06171ee5b395141a7f0b440fc1bf08617a1c63cec57f1ffe155c17b4801d1fbe6bd6d25117061279ce846200009b565b62032a3c620137408801357f27e991017abea01ad892e8d728ff3af23e32858aaf07ead6809e347a4e5e55847f197c5a86812d490316d897f934f516569b80142f521012e035600102c56b0f92846200009b565b62032a90620137608801357f271a5ceeaaf276a83ecbd740310da8aed38b0f666f23cbae49709de6a9ed9d7e7f0105513a15e7f052fb29e5208073b74781740414d88b0f5d0f14ef46aecbf06e846200009b565b62032ae4620137808801357f2430cc4e45c3bd562036eae13c39fae5160e36ea2fc181a3cc4cc2f37cb0eefa7f2911bcd06d525bafeb2a4deb242d62b6dc4146218ddd4b0961654b06739f699c846200009b565b62032b37620137a08801357f2d5e81a2a406449caa22b49e0b2ad9eab9aafe9b0506af892d4818a0a40bc6c97ec93f7edbfa07071c199f99e958c2a48fad431f364957f2baadd20844e19af9846200009b565b62032b8b620137c08801357f0d5ab3fc45073335912cd42b35b04eec8b5ca74c2f7a8c489bf935cb33566dad7f1620186cdd3643ef0e53ed7cc7863de660489ae3f35997f3b3867546c9d965e8846200009b565b62032bdf620137e08801357f2114a46d7d0607c766dba065d7c670f1241e9af6fda2c1ede45be80b01a12a607f0b16a98413d17573a1077d8ad21f8a226edf129a567b7e7fb664dd7857d7ba7c846200009b565b62032c33620138008801357f2841f552db800d267b261df84019c1d66d078c8a84946c311a63f3bebd0c452a7f04dab649c79ec8fdf50d56be89c9fcc37985276179d85a1b719e3f5afebd13de846200009b565b62032c87620138208801357f2a0923fd7b1a3ddf1b3d9b5af35a8cba335a2557cbc98ee12c96bdc3cf4a8c327f1092b9b965ca0ca15c425735f1dc2142e7f701cde9539e5e60bf227d55db9a4b846200009b565b62032cdb620138408801357f20bfde6b278c3d06400239f2e499e4be97537795a975702830175ce7327505537f2847039342e62d57b441011257ecd0ba51cb674d1350f4af7ea9243333091e5a846200009b565b62032d2f620138608801357f0602a8d8be00d18e8247826fd03cf13de99ca47e4a664969eab4e8f4760789f07f0c2b8583fca1869721c762475dcd037398cbc6c92248dd9c0e92d5c0f67d0682846200009b565b62032d83620138808801357f1ef02dd1d0520d53528bf09a7bf9badb6b1c2104f47bed06e2554a72b28c3c987f051a937378ea567b8829f3ec945f39fbc1b10a66fa55f8d1c1f353f3a21243e9846200009b565b62032dd7620138a08801357f1aebc1f82d66c9dec7c7410b6e92bda5c3cf70d0481db0b894b2b00b7fd7c6b47f2cfde80a426881b806962b86130ac2985d5e05098e13230d428342f0c6bdff63846200009b565b62032e2b620138c08801357f062a9be85bec878cf915482ee7f1e3d32e7f70c91bed4d82a3f676ba1a4a7c7d7f2200ee69916f311032e35c3b3aa74868f3cc5e91f2837e7aec05c196336c9b13846200009b565b62032e7f620138e08801357f2723ab7726d3b9adcce91e9875b624b1a52af27795a5cb8666635689e6a2a9077f18e36571dae9686308651c08f67a66eff3190fe4bcb3f5000e79a4294e566317846200009b565b62032ed3620139008801357f1e0288a6fec367e7fadd257071dea450401f4331f7a9fcfabedfd53ce224a5477f1de367b6cba5124cae9bf31a8991556c9175b946f75a944e1af556b01d086014846200009b565b62032f27620139208801357f18355fef105a265ad7b70846495f3c061351cd53058c0df36e310dfe1597d1097f0e716aea63f876ba9d825948423b8ff6c4b60d2c8674e50dd9b68be22c942070846200009b565b62032f7b620139408801357f2275e9db525aa0d13d5a2c477dadd67d4b6005d021c902f20022e2b4eae68f447f28cc1a361f1a4d440f0b9cd2913ce3a5f4196367b690b3ff8659b7779c04b4c7846200009b565b62032fcf620139608801357f2992050ffeb4127d17e42fb901aa7a17515fcb8586dd13cbbdb115963a15da527f041fa54f0d6547855db5a39e188fcde8e5c4dc8b245d45a15f912b8631e8764a846200009b565b62033023620139808801357f18112c86c4e99228a34407069f4666db11fbbe717894a60740907c1ffec3fcda7f1189231d08d7a12d4f4d7c6043fe0bbd379070f6fd19b454b3121fb268d67218846200009b565b62033077620139a08801357f082f75a349ec137a486fd1c5e73b9e85a53cbc09cbc54306b20bc005476f54d17f045e822105a03e3b44ea4e0458ee7616c95414cdbcf47cb3ef5e9b4bb0cbeddd846200009b565b620330cb620139c08801357f20ebf9b7699c09dfe98a5d27c22ed71b90df0ed63302639246f5de94625bdf807f2882e616ab0b94e8ca732f3986756108240ce349c2857306b9c42855f8c6184e846200009b565b6203311f620139e08801357f0c978ce6983d2f3e7fa6fd03a8e358ccbb27987f4c5f348e4a1b82fe90892fc17f1b6fef8b602d4eed0432586946cde4d4468c69517db601fb9a3da6a1285d7515846200009b565b6203317362013a008801357f1294ca06be7f4a8b26fab2d8c42230e715b63300bbca343661a0d8dfdb9117bb7f268fa066ca05cf46607fbc75098a6db1f5196b331b11ae47db1f5b3adc92ebda846200009b565b620331c762013a208801357f07e6bda14021a0f6bcdc05274fe61ca571ee2410bd95d5f40d2b08bcdc9cd5187f119f10a0cb1233a66c97c7eed2c98ddec3e787c2c7543d11d317fdbb36060d55846200009b565b6203321b62013a408801357f2236aa1ec94e37394c9f9decfcdcb2ef86de5ed600c121a029ba4e56ad4c0d1d7f1de3fd5b5810aaff898b0c684a7259952ad19cc3e38995f5f42b6efb4a736e16846200009b565b6203326f62013a608801357f2d294bd30ef2f6ae6ccb4c00012cf23111c5489d086bc08f1b8cba6d67fbf8997f283958fda0f8bff32f2e371d73baaed6fa7168df8758cf6d3aeb11c5169bd034846200009b565b620332c362013a808801357f19012c4ca6e84810da53733947be0fd302a7ee4f2003e5b3d2cbbe0f1c67b0b77f2cf37301c4b60c28c3e247d892ac29ee39679bb9cb378969fa8d30e9a6e1c6ef846200009b565b6203331762013aa08801357f07c8a41403e84c21c68ec5a2656b764f527aba6320870b4ea42580733f72af8f7f2e8f60f4d4893b156bde3cf97a880a20be62a3d0be0b82415b5fd9afdc8c38b4846200009b565b6203336b62013ac08801357f2e0b9c3941f566554d05b4ccdc758506cc2868c789ba940aea032fe7fb051b517f122864eaa231e66c68ee4868beecc1ef1ee40c0fc23d6c4a9ee9c74e385d2d36846200009b565b620333bf62013ae08801357f281d74d55fdcdf2a9a342226ab2d64dd24f0051f976fe9426397fad3e76608567f1dfde5c58cc9b98ea559f905ce94afb330a56fe14ad80f9056e7707aad22c206846200009b565b6203341362013b008801357f03889b58ea25262009c11824680e54cc68ea714a14c7f9a3ecd08d5a06f784d47f2b4b3514c3ee876c61c396288c9ac39e70b8e7928cf5370848b6b4f924f165d8846200009b565b6203346762013b208801357f080132a0d1fd973b261849db527e8d89641da18aa0ac9355f004e5094cad0e6a7f03250ec28f0afac305158059939d8386b8876ebf08ed36f64130082b29b093cb846200009b565b620334bb62013b408801357f0d7932ab5585ed912b89a2ffb9c7ee2d995717e2eff88ed98a392b0e8fc860997f2dd517111bf83a395422cc05b00d67173c883a8577b09513f14e75ea030c2670846200009b565b6203350f62013b608801357f26313d157ef44d85982af93ea2a7c0040825dc3342cfca67f508977f7d3a85747f09be562fecaccba631a3f31a600154df5802e40e00acea3f779718210c6ff608846200009b565b6203356362013b808801357f18b7318a720f07aa895c3dbdda0e89e58eb08c3f4d534dfcbb15d7fbd126e9eb7f0ac7ce38728a39fcc01d1f3b92a74a3bbd69a5bab0ae062eb520d12f7bf4660f846200009b565b620335b762013ba08801357f17f9f6e8b181014470704c46b2f69e5473501567e498c06225380464cbf579087f2944f6cd719399c32206f6a3b8d9aaefc05cfb0e3f5fdd0051b46989e9d42f4e846200009b565b6203360b62013bc08801357f16852aac0b662d4c4ab08681f0354f1627fbf579a39e4e040402bfea42736e837f01dc2ddec61ea6d6811f0493048df70c78786c9bb769739f220a53dcd61b504c846200009b565b6203365f62013be08801357f161552d65a5d114dfe8abdfc635605d1b512cd5436416d63b148637e050c0f5f7f2da6e93de2858e8b7f60775f3b63e16908264c2f269182134ac33ae527270e5f846200009b565b620336b362013c008801357f21d975324979caec1a35239647a8effc44a0fa7e5a6af406e8f63435926c52b17f05a2b3419420da66f590cc86e627433f34075566c15daaa5713ecd7c1b1756d6846200009b565b6203370762013c208801357f276816ca1b98d5406422a07d391c28a37b3c1b93b75d59827d2667519b1b7ad77f09d3b8285fe5cca260bc5467ee6ed620c2977fb6127f4974d39b4893bd22d12c846200009b565b6203375b62013c408801357f2b25092a66c2c3cb0267ffb840ec0f562bb010ed4d9d6f9be0f4700f015c56ba7f019206c09b0e9102271a2e58e24966ac7acac2e1003903acee2f452466d7cefc846200009b565b620337af62013c608801357f13eb629c03107bb3cca81559a35230cb13c0b5544b88a50666cef367297c3cbb7f2ce76ab49dc7d827958e8cb9eae67e2a213fe862b4c30124ce565b6127936222846200009b565b6203380362013c808801357f2831863c7c3048a144b1d8cd57bb79346729e16971065df6be85539d2804ee887f192d4501fa26d9baee15227ef037b09b809c99c3d1ff8eade3dacea7e883e415846200009b565b6203385762013ca08801357f2b67dd126dc03115c4f9fefbc45d09310c5c0390724675ed02ddba62ed0f4d1a7f28dd5870a7d2bb9a0de613a9605d925ba502c74ab5c7b461f04519b2b95619ab846200009b565b620338ab62013cc08801357f2fcda176dcc08b3ee663f02bb880998b57a7320c71c381868db2e86da8d301d37f15cf6759b46681ec731b93f743100b4a36d3a7f6eb8cd28ece1c75c7ca0d1ab8846200009b565b620338ff62013ce08801357f23f0fcfe99aa70b69fe8397e60164e2c54a8fda835aedfd07ddf669a2c25836d7f09e26baa9c173ef1d10cd4614bb7519339a70537150484d0f0e1a2d5ebe11d12846200009b565b6203395362013d008801357f24d9424632b9a1b2cf28d6e184951b86a3e20b885d4e8b4b8dc2469dc8a384d07f06b7a186ec17a2221cdf0beee114f3b98282493d2899b16204d1a1856183bff2846200009b565b620339a762013d208801357f010764c3b1d8b5a5be61ffff65516acfbed13fd3fb96cd307159ea55b4563fda7f147cba5513ee21d4107e52ab2b5cb75108ed69e9710121a3c25092eb0887f6c5846200009b565b620339fb62013d408801357f27f1034b2c8fdc1f2d7c1c2caf1ec9e7589c75cae0508829240b5e1b2d2edc1b7f2a65ef595b66219dc3e1f8b60b90038ba191490c2406e87a6e5ecf93d029ac62846200009b565b62033a4f62013d608801357f183fded045b8192704f362c8008b8d709c3b199ce4713999baba28a64332f64f7f27dcd5d0bc559e274944a92bbd2b2f4a4a8ff6581845e63dc7d6476aee03aa43846200009b565b62033aa362013d808801357f2df19109aa7207874c5031d22bf5bbefc9c2c0d57e796c7a3e9797a3b0b254167f24742d56cc3bbf10141b994425571295d8fcb70cc3f4d05e91c699b135a2b6d6846200009b565b62033af762013da08801357f25d5ee8dfc679a60861226e410bd2fddcbe323279662729e1dfc4f1b9c7cfaa67f0fe470d52668e799bc823d4ab6b6c8b12cbf49d74db663f32a86e87c02f91413846200009b565b62033b4b62013dc08801357f12ce54d941bd2477b55b5e396143301d7ee8bbf42732f8599b826b9d833ddab47f10daa01f7bed901e1bda97b9f2527cab020eb67d062ec51d87fecfe0ad4252f0846200009b565b62033b9f62013de08801357f2dc8681e23885c459221ac92bfabc34326d9b28014dcca207189724c48f1241c7f22dfb02e4e28dbbecebef4c70a10c632e7dc4c4facb4b37d9517569dfecc07f2846200009b565b62033bf362013e008801357f04f704d95a58b27d5b66c89639634f82dbf4d00c565afe90abaf58e1e919bd337f138f4a7ee9883b29d716ad9a12f0cfa4602f81152c5867322314be825a559edd846200009b565b62033c4762013e208801357f1126a66fc57180bf7aa44ead99a947616816ac7f06d478a57c8f1f5e36115bd67f10bdf129f9882d2e2ff79687fa5716088fc93fd19f59b4e8540a77c27aae15fd846200009b565b62033c9a62013e408801357e0ebada566855e75c27e3a4a3d683f201379a4f3919bfe48332a9cbde1a275e7f16b647b7dbcaf036d810fcf552972e4f456394b9ccdffc17aafbbb4ed9fb4ff6846200009b565b62033cee62013e608801357f1f1ab01d5997d9c5ab41d2ccbe7c6ba62ac16eca8c2e465d4a3ab5790a7be0537f09877e36884a23f3dfba1dbed4fc33148a5f77b592a3cba1afcea8e27e9816d8846200009b565b62033d4262013e808801357f2fdde5381f171291b7ac16450b9db5ba27e3bae5a9deb69246b047bd6af909ef7f1a273181302e7d90a0e2daa7276ce68fd6cf2c57539be9bc02f1a7f19b93ad53846200009b565b62033d9662013ea08801357f20c0e4de1f788572fa5f6a46b1d91e1364507012f7e966650ef23424344e3d9e7f25fb8f4cca2642ca0514f1325faa4a5086f78c1092e819835239557fad59047b846200009b565b62033dea62013ec08801357f15269a8568cfddb94f98207a07c1cf1fe97a8e1376064d919cfd426f5de1a6007f1a95e666a2da27c56941583dc966eb38e0fd4e253a479cca012ba35b18098efc846200009b565b62033e3e62013ee08801357f144e50e53768017e4be2bdc4275925eeb951ca68d35681b65c9385c9907ff6657f228069206951c7b720a100f75ec82133facebcef165e5bbec733275af419afc9846200009b565b62033e9262013f008801357f26e38dff36d78c4a1be7d1cea26ff0b0d2a8ded3572ea6d5f89ca022e6afeaee7f02cf6e471b46513ec8b1d015bbbac2f8c9da8e6a304bf69b69edd4bddb0dae1c846200009b565b62033ee662013f208801357f2de9ba0a7609e5f900c4d4e226cfdabbeb4e7944b0ef682d293a95447f7fb9ee7f23daceea92582dd593be7d66c0ba24bf50e8e36b6590fa7071e867affa749aa6846200009b565b62033f3a62013f408801357f051689b28941d1a28233e71342fb88669e60978971f52f9408819273d68564ac7f2a1a947ed59c04d13a4892d14618261e963b646558c843a72ed8641053cd1abe846200009b565b62033f8e62013f608801357f0707fa35bfea46e59c97196db8ef91dbc600428491bf9eb60159885b5d413f2b7f28a519dee06a5fb963d1e43831ca6aab6dc7f855ce492bd6ea48996cec622088846200009b565b62033fe262013f808801357f1ed6dd63b33794b030fe514fb7045913d1d6acf77dc3c2d441e9361aa2b634a17f2217fc9293b40d042b6e323431431d1c0e291c3f7b12d4fb40bf6b055e12137a846200009b565b6203403662013fa08801357f1305f37c024b0dffd8012197228f956cdeee03692dc9b763c0875604466d09ba7f01fcf292b958373b7c752b0c80d7250a84957154b7af9a931c4526a1934bb1e5846200009b565b6203408a62013fc08801357f02699fb85c5198649c05ae9f83509b4102c0582f18011a6d5a343252c376fb8c7f21012b59a3feb708ebdea2aa50b26ea062f2ff03a54f5fd14b0e20d5fad45e71846200009b565b620340de62013fe08801357f11d3e5a95d245ae8e2f71f942b2c5f3076ac015193cfe623e44dce13082ff36c7f1f4cbbba77b06f6e22987273e2d2c26d61b0f494b95a31e3db6916322811dd09846200009b565b62034132620140008801357f2c3a61ca0ecc7929080f3a3ae8224d6223cd8c4d2380072fd857a2cbf09070b67f14c502bc46008b9b163be532dd940465e2feae0a0934defbfeef1ef237b00fec846200009b565b62034186620140208801357f1a342a34c16e12cbf8c28c118bffcc0f5e7928240da726c7bc22d5af419ee6937f297f0acf4124ef6832db910169eecf5bcd0c7db885b155bf69299299898cf8b0846200009b565b620341da620140408801357f16223a935a52449db31e67fe7a6195d4464ffa13f5ce869623adfdc3c937883a7f2a3846b2a6d2a79035825c6a4d0fdae7d335ca857a94bb4a60ff20173a82bcfc846200009b565b6203422e620140608801357f2392902822c236087315dfa34abebe7f8bb80d513456cfe69cbdace62f22c7857f196d4a518a5ab471cc5d53780a076ce29519964247d8fea09c1c7aedf5934ad7846200009b565b62034282620140808801357f0f3b89285feb300cd47e321927b3414d90275b7cb1667e1c37186b1684f8d06b7f0f2b932ce8e8b619ca2afce990ceaf572455e88b90d9b15bb79c284537466d92846200009b565b620342d6620140a08801357f2dcab3eb2b1b1d4038ac8eed65dd32c83b540fee556a9479ed6a2c2681a2e1887f0ea71ff78490d27d39dcb55c5919247f466e1315fc8b459f06cb6bd82d985a81846200009b565b6203432a620140c08801357f28734d1410e61b055380b784abe18088db676a6bd87006b636c9901616bbe9f57f11a16cd426cb15ada78c959d492ab591830c2daf01c4bc4a107576d672af0324846200009b565b6203437e620140e08801357f10b154ee7f51271eb7205585395aa372fc4080a26c6bf00d7e7d730743a7f83f7f09979efedd4f7478c4be4685fb93787df634e73f7dba87ca900e5b931ddd5308846200009b565b620343d2620141008801357f29bc27bbf3a4ed16c87d7fd91affe19e4bc38a0da33a14dd2945c01fd32ff36f7f18aa52864315be2f4570193403d1d76346779ea763a61af468897f133178f8a5846200009b565b62034426620141208801357f08e7480dbc7525f5500a03bba7c9a7e21bc13a419d7ddf57556567a48951c14e7f10d993b24392a6f23affc3e410bf91901920b3f7cbcfa5012322cf1affae7db3846200009b565b6203447a620141408801357f2eddc3a184aac9daa805971f3d2bc9c78cbb890c6580db985083640c04ecf2187f266c1b0cc7ac61b682f06dc6ac87738300423e8757102124bed455767b392e39846200009b565b620344ce620141608801357f223e7e83fcf745cfb5c2c8a199f1c58021814e20849e3249311a96e804feb5457f16056930e6e3ca3bced7f12af2daa497899272fc7752a7f2e7daaba2c6fcd5e1846200009b565b62034522620141808801357f2a7607d26fdd2c27ad4b6d2b6c8e78f142e115000989a488c84e7fa51fdbf67d7f1485dffebd0c781509329a8436afe2a9cd5603dd8561a171458b6ec8ba5e3dc8846200009b565b62034576620141a08801357f09032ef862d34bf3cd51626f97791499f98fd5f98d579c727777449f3a1334ab7f2251dff557556fd70421db5619b7f17830cca201e49bedf2a7607c00dc04a2f7846200009b565b620345ca620141c08801357f11729d16b04d7dea2d4a33896877208298b65b9a4c908e3465296e84d76394f67f254c270b74dedb56a9a55237c1ba7f51e11ea2f9326d812165efda50e3613277846200009b565b6203461e620141e08801357f06e94ef580647c236b0b2210761195cc8ae8776b1a86c39145e3e9560b4a63a67f27dd133f34a0806700612f8847af9ecb628bc5a5d0c515dcbe40875e2b57a2fd846200009b565b62034672620142008801357f1fa02d92c574d545f34f8a9a7fa32082ed628f4e22c9f4da3243fbe442aee6517f1a4bdc345265582957436b70c2716912db806cdc5259620c85668a990f55eee1846200009b565b620346c6620142208801357f107e71b0c7e362eee8f2d1ca0f1b02a0a4046b1cc7a2d55c1ea62569a85be3c47f1d4967d4c23b1ae1fafade4a16cebb0c26323b9bc6711157381005496ba7ac00846200009b565b6203471a620142408801357f2990c8e23e89103ffe3d61bb1c8fbb666f70dd53a5543b92079899e5137f85e57f08ffc1a17f3fa14b29146a25a6e85ad86049632162d7acdc7edda4506c4ee777846200009b565b6203476e620142608801357f136a5f0445e5f94859993c79729dbb67bc76a4ff65073f63129c85ab9bf5950f7f24ee4bda160dc14b17260be06381bbf5ef7c9e7876ab6b3e7b15db7cdc0829c6846200009b565b620347c2620142808801357f0db1a43ec3988ce20354eeb863b38ca30f63870f9fbbe490d9dbd66d06df29e97f04bfc495d067737db0c105d801b8ec5b99ffb922824aba2b3c90a5a41d6974f6846200009b565b62034816620142a08801357f05b7435871bb9dcb0395bf7b590dc52059b54df13e2ffc755dfca350dde64abf7f15c38f00eb5f058aee8f736354afa7b7386d6508249badde6916742295d7df21846200009b565b6203486a620142c08801357f0f1441683356cc505560df62cb8a6a3a3d08e4c333886d32ab9554ff26dd32e67f1f107763aeb07d6224ce00eb36d26001043deec17a08ff15584fc6ab959341ee846200009b565b620348be620142e08801357f23d29de3834aff145d52258a8aa9752a8fe04e2b737eb205c4de8fe8a84744517f0877a5b1694b34ffc279c9cc6990cb0b07598df13b43e0916c7b14b28343b373846200009b565b62034912620143008801357f254367f92d9d4b8c2cbff3c30d98bb57d812c930dbf217fa9b54628a3955bf6a7f06fd0dd714b035980da9b5631e59bdb71ba7f79238dffe8e50bb315920dc8121846200009b565b62034966620143208801357f0c296cf9593a829a1e02de43ed6b8ad2b4a7ad987a50aee70de3468e5d01c7017f1d5caa283b345f377544b0dc90a0283a498ca9e5b3b45293eb20586bafff4652846200009b565b620349b9620143408801357f291f7daa6eb10cf1d5702c179892dff86add6242f6d4608f195e31f25663d0f77e61a672f423271b37c4a0f46d4b6c4d4d6aef1bb184c8dc68f0d7b34b67f577846200009b565b62034a0d620143608801357f2d28c04b87d07feb7b16b2ec82efceecec590e79d9802a014fc08869683b3b8e7f2bffb0b095693099677e78685c4333c8cf7ef0ad7720facc2a360d688ba1ddd5846200009b565b62034a61620143808801357f0c12a3101b6157007b67dd96aa993774d5032bfbfa579a5fea7937265e8b1d947f2023ff8c54d060c596ad769e1b371fc1d99cf2a2e086f92916837dde32a3ffd0846200009b565b62034ab5620143a08801357f1aefd976a1ba2c3a43c539582776b6add053cf162ec1c6b15439b77302e36a8a7f20fed3c56089ac7c4e61d65f34ad4a3a1e5b41591a349734dd962820e1ddeaab846200009b565b62034b09620143c08801357f1047dbae4c6524e4663bdba73ee9ad6b5300d798a6760b05a3849998c5b90f787f2600b230a3897a843b5a9fef20f250f38970aef605ade4aa4b689837e60c3346846200009b565b62034b5d620143e08801357f0f947a51a4980e06ce8c28772300a0a570b461d63256f72b303a72ec61ea80417f261853d4ea90597446d37818ecc7f45baf5bfcba471a38cb74d0a6ff33a3f0fc846200009b565b62034bb1620144008801357f13d0ffc6f7a308616590856243f50a848fbe9a288be4f6b18afc7f0858b15e3f7f233f6fe0dde8f708b94469809497b24c0052ed773c1b32ce51e79eb09a07fc7f846200009b565b62034c05620144208801357f16682cb7309d3d17a2ba35d375f85ae2e921638b214eba6eb3a6042e26c20e917f0a42c2790e0d757a6894aa62e3029efdf81c7f2e7ff036a047caa06297c2ddf6846200009b565b62034c58620144408801357e9406bf2b188e9e882115035fad52732c212d4f36181e4e5f2e1d0a5fc8c02d7f1997da769043e5efa95ce2f32b6a6a97a0aee27dc25cd713f6c89220978ba25d846200009b565b62034cac620144608801357f25770f8ec65bab33ce2f6279612bbc8f51e4e0c33c645338601a787014c99e297f0471693c6e7d2a8b3e172714f165f43c140e29511b3b9fbd5bfdd37cbecbc925846200009b565b62034d00620144808801357f158c57c491eb5f49f8ae6c9fe84f851fd4a799b0a0bd62fb9181560d52cd044a7f0e268358cfc88d7ed01114058333e7bd183d920834dcf93df5fed80217ad86e7846200009b565b62034d54620144a08801357f022eb676451ed2b01d670b4c8c4b89053b6fd3143b7b775d5a89c64e17595f037f1179f060055b31ae4de096753ea50bffd76de37f4a03d791375ef9890aadd1c8846200009b565b62034da8620144c08801357f155b4b84e3df46d0371620e6a35bf18de207a9b24a70407aa4b802926ffd288c7f0f066494aadeb8ca98f20cd7d5c8496c540b8985b981c5de308db2e83adc42e6846200009b565b62034dfc620144e08801357f2a25af08368ecd47d7b4dbab7a169ec82270cd71c7bb60b4f4e912ea38a8ef697f04719279a467a3641ea66775ddd116061320eeeb50c92d71cfc2ffeb4481d356846200009b565b62034e50620145008801357f19821b788866e3faa32855d598d847287eb0a34ee604c6793a30bd80aba95b8c7f0c21c797d651cd408ebaee03b488ce494ec7ab77f308c0832b3d1587d985f323846200009b565b62034ea4620145208801357f08ed02ad3f93e1fa5cc38b65944acaabe4d428d04cf7656c02de6ff5291b95ee7f29d34ae1196dd45a3446e945a637eff4f9b5ca559d75504c0a33b01b2ae5b9d1846200009b565b62034ef8620145408801357f21ecf4a3f3c4f35f4e36e69c54bc4f2013a7740108bdbfc983e37f2b2cf6fd447f2a6b9e1dd78a3d5e9c69b68f084dbba64c7c14b901975f8b648f9f1322746af3846200009b565b62034f4c620145608801357f2ef3a4a3453b6efa0d9e8cc4c60b33676694cb25ac614113aa135747bf89aa097f2a9bfd16d25dba1e36380efd034a73d74d45efa1df868179fb6a707bc3afa44d846200009b565b62034fa0620145808801357f117597946f4eb16dcb96068e17fee1804dc44145cced313cbccb8a29d82a29607f09745845b9b0b4d9ae4159d16e87f21dea9bfe64fa8ac0086f8f75fd1316e68c846200009b565b62034ff4620145a08801357f2b9ac797d9f4a84b242110aa33c600b22889b22a7e025d7ac33ecf57a2f021f27f09c3ba698be2d56ff65efe7e9d7feaaba1151199b215e3d3b8c46c157f18be33846200009b565b62035048620145c08801357f1114d005bea80ef28bd072cfcee52528351ab6d9b9fb5684e77d52377eaecf4e7f29558f9ba8f2d6cc7872ce1c9c3ba767d54fc8b34700b98f2d0363222aeff906846200009b565b6203509c620145e08801357f2e39110ed5b2010e3215a18863073ea4c9743156c2a9dec952283d55e90e17347f0ad352fadd1407913b7909d1f3b731ee88e76f92529120ab75b825b14bccea72846200009b565b620350f0620146008801357f226f33bbbee7aa65cd9c0c9ff760a9fedf0301dd0e29153b6e58793e6e3f0b017f1a8d0cee26f23a67656142cd39b09ac67593643e64f143c7ce38430d03b90afe846200009b565b62035144620146208801357f16fcdf1670a636b947642c59ef0620f61e2ffb4b513e872a8f36ef39c2937d947f2679e6e8d400aab35ba21671346a1b05ebcff377e342e640cf54f8bcb88144a7846200009b565b62035198620146408801357f13a41712b60df332b1999539ee55c4b18d847b2e2caf3474147bb6f64bde49b17f2c5ba2624885316f78bc1dc96b99cd04b1ba782df74e9be76ffe3ddc1672b7d0846200009b565b620351ec620146608801357f259ad08d3c2afad5787ff67b2c6cb7a520a551e0857ac361622f15a26f7f62e37f1b1a15ca6d8879222e7d09a938631bd42874f61f7d3d14be0becaae7cafc187e846200009b565b62035240620146808801357f2cff613b99dde236667a80d61e6fef7d78eaad554ac7013f96631014ee2b87227f145300f6162523aed69248988a341d1b46177bc7092d6720a142e455fe6e2081846200009b565b62035294620146a08801357f09c23008fd36120d6a351c764aac3665614172bbc1190e3caf4750d7e816c8cd7f2223fa0ea4e33c33dcdc50c2e2910934b9dd16ff6714e6044a0b23775c9e6621846200009b565b620352e8620146c08801357f1f2bec198051dae4f6fe64f8026ba8d130414f513a6ec248c39945fb2c9682db7f0a13b7c2a6106723b01f85dbc5038d13145b7a151eef28cf4ce4395764762015846200009b565b6203533c620146e08801357f1a413c74fc302b084a1591fa3520002ab5a2f75a86d451a29bf157985389cbcd7f1d65d15d40b5bcef397037d1d149a19423cfdb6657b640242f106aa7fa68f162846200009b565b62035390620147008801357f11343d74529277198c6f6b85073b931dd378633066ae65102a08ea17ce34c7fb7f047e73c4753c7a55c07ffe241ad1b47a904be4d4f00c14a01cb1d67a36b4da08846200009b565b620353e4620147208801357f05101290a6a7612fffd208f0a208ed50d7f6cf9767e881bc400ec0536b87526e7f15b6ea6eeefc17b8327c1448187c4e7dd8d6e48afdea9f571bef8b8d787fb82b846200009b565b62035438620147408801357f06a7e61befdd21d379c30cd5cb0398d8a64b946f02d815033d8b5f6cadf87e587f1c346b338b6f1d717c0b2f1294738e05ba960710c064001cc283f7b113744470846200009b565b6203548c620147608801357f2e4c50ecda15051a5ffbe1e1f98547a593f0f319bb12f7f5b7d94a3920a0d2487f22dc44a7f2f1c93b54922c70f16d42fc0ada3580e3bd3b306c976b2afc694867846200009b565b620354e0620147808801357f1f6cf6c83c9b1eec2d45dbd83814109e4fa45cde2731ebf06d21ccdc8653eb2e7f2cf73f9ebb8cd4226aa449167a560cfaec71f156b5e04f39d4fde5aa222e255d846200009b565b62035534620147a08801357f23b0406965645245ceeaddbc4be79363006f3a5b95dd1b9425557f6cb71a078a7f2bf3319638a2e40cffe513b56ad45c06a460c3c997022bd8094e05993d3938c7846200009b565b62035588620147c08801357f0ec5bf6a654f39782fc4cfd194e51bd0c6f1f926d0739ccb0177851032809f267f2e4f5f2ac1ca414192011f0c727dc4c07f8650da3dda6bee127ff0896e63a857846200009b565b620355dc620147e08801357f0e9996e99fd4de1d97cef9675eab11aae9e10b93d7de5675a85856180e01ca477f13639410a7e0c02ad73fdaecee7105484ad1599ca73ed1fbf64936eeedbb6f90846200009b565b62035630620148008801357f24ce3b5cabde2f3447ce66b17bc02f764344265ad3427fdec6da8edb9cdf8e557f2e68e686f124d356274a81f8bb7ceec86f9169ee6cea06a03e467d0ce5b2ccf2846200009b565b62035684620148208801357f18fb62a9e5fff3bd95c71ef1b7df724bb14ac1b8ba93dbd9a495dea4af6fc5327f20edda70208296a5eee6fda1d99f431b7f2d538907ddb856b1605cb21dc439f6846200009b565b620356d8620148408801357f16628e5597743e7544ff91a148aeae5ed9b96f0c10a9bc34a1a1c7e3becfd8ed7f2c8e7c7c1c3a5e7833d5fbab2f8e51ce57ea57b4e0b7e2d55132582170d4b86b846200009b565b6203572c620148608801357f2d57dbe981bdb25c266b7edf84f307378b57ad332e7116669ec86f3bb3ffefb27f0979ff4abad8971305dedec6ba269231c533664a0cd9fc5f6e22b54b10512cdb846200009b565b62035780620148808801357f2764373d55b60365b79c2961b8a9be6aa65e5b0d8c15ced9b82cbd7bd31e8c757f2ada098510a8bbd75b83bb2e9e2de6cb9e34575f0c9658eb0c898ac1e73dfd91846200009b565b620357d3620148a08801357eea6e4c343a15e5937e77664beffe653d8d97ca579ff0f1df0ee44430db476e7f0cd2a20f87c87990d2acd2217e9e42cc93afc1d3fcc74715ca6f7af7aa14c474846200009b565b62035827620148c08801357f1aba737da2d0066cd9c00627cf1d6a1f74c019777b1e026382e92fc6482bf85b7f0434cd604903f6b03d6f4fde85d8dddad8410e29d1783da8180738fcd13f4561846200009b565b6203587b620148e08801357f1e6ba918aace21ac9090c41e4e0ebaff9e44b66e2f7a814361290e62ec69370d7f0388c5bc1cbff423fedb8711e877f21dc34f1d2e033e26e5543d89cd76fca633846200009b565b620358ce620149008801357e89c7334753809c1d63247378e185f672dbc1b95c8d8a7dde8ea3a451ec114b7f0940a1532e139315c1ee832c9dd5a4d877bb4878feaa26dbafa387e374b7c8e1846200009b565b62035922620149208801357f08702142e684c000cfc5c6e000eb6c558774471688ec1037c3633d59e97dc2e77f237825ea49ddca23951854034621ee9927689913c18b2ce254ba5b79c99455d9846200009b565b62035976620149408801357f01afb42292d27ee69e0cadc729adc27c42f6dcd8b04d5175e7c5d2ce8ecaf2107f1ab40503e2d93cf7cd081a813489c6b3d87bccd7929da4fc1bb5d1d184569ca6846200009b565b620359ca620149608801357f1a5bbc606b7bb6501ad02f3bf3b1e60d44799fc3ae55951136cc67c7d606cfa07f2fe86d2f9cf10f8fd6831f39645f09a3b3d06c96b0e325224a11bab373b84825846200009b565b62035a1e620149808801357f13ca80e01b8d0f6ddadb663f466ec335e67bbf35fd99f4d1676aa7ca6a4604057f20ee384a256d19b3d1ee48e3a2a2b0a548e4a51a33b94d901ddd4a808e858b2e846200009b565b62035a72620149a08801357f01f1084b73135207715f2f53309d4fa4b43194f91a3a747a3182d0a6214f6e487f198547525d6934219e51e9c3c41317c929b73a7a71263f997412a34d892916be846200009b565b62035ac6620149c08801357f2560fa1caa5e6ffdc3b0938ce165199d19548396b76e3996fc794635452574dc7f214eb3a974d7799674cd832f8d9dfc50b7aaa292160ad239ec3cd4ae54650cd8846200009b565b62035b1a620149e08801357f255c56cde7deb8dad8343d157881726b59666ae2c91b291aaf9d0805f106f73f7f03be3ea77de6725a405b806bce8873ed7c4f37fc4fc8232b141ac086bfff66f5846200009b565b62035b6e62014a008801357f03d2707d737c1ccc229b337c00f600960fbdfa1e61ebb89ea6d94a103a725cc97f1c0d2fa3fce6c13270a8f30b7c5706ac8a773e2714a0ec5ebb1f47ddc597d6f3846200009b565b62035bc262014a208801357f0f87f0caf768ead34f711966a070989a746c869cc0c1dcee7d02de87693c255a7f099a3144bf2a9c48064fbf7695123bfee1a3418fb97bf760300310261b8a046d846200009b565b62035c1662014a408801357f1fb4711af2bd7e706b2d1a18c53c04276ea8059dfa0afafac67a2248bc779ed77f12c62b46dfaebc1f50e103663fc630b92437f60b7637096930c37795d4b95db8846200009b565b62035c6a62014a608801357f11f314cfc906e88f6403a5e88e4f601a9dbd6b55bbf46e5838e2af327132b07e7f0b09ff80f2e708e86df10c77a8bca16064ae2e5ce54c3bc14d679436f49e71bd846200009b565b62035cbe62014a808801357f17b7bfb83770921011092fd16ab19d239e5d400159d6148f2ff4a0ee96754cc07f0890d46a24580e20cfa54eeb5f96f96a95b8718b2b9513b59efba520c51c860e846200009b565b62035d1262014aa08801357f06fe88128ed548874f1d0cafc6ededc5cc1e8b14f63f35505e550482600344467f1e818f59d8f647acf1f968b738949c900c9a4f447e25d9e57712a2ef1fd3a313846200009b565b62035d6662014ac08801357f23abdfacf16d65994de369a9de8e2022991aa7f8db1f644489f7ce6fe8a4c4f67f0c69bfda341ed24f1fbdc6bc5dc0e4cad090e40decd9e2a4dd9096fd7979cefa846200009b565b62035dba62014ae08801357f25606ff83960cd81592be0332cdf613bb060acedccbe576c9c313b3700e7b3b47f24bd9f308c2a2a3653df364f625df22327219e8b2b88437badbd1778fa5ffe12846200009b565b62035e0e62014b008801357f2cc931f8b6f738b2f069b7d13d88f80eb02ca52e362a3342e0285c725d757e6b7f29ceb2f9c0b290b7bd1c96ad4f746892520439cfa2436615e3403e52097c7640846200009b565b62035e6262014b208801357f139e1768449e95f185cc92564d9c48ed2836458d4884ed0c8575d17878e923547f2d4417fea551e3b6b870d9db4a41382edb1802108175fb8b704eea59875e9deb846200009b565b62035eb662014b408801357f1f1522a2288a5904d0bab72858a5406e15ef7996b4489b824c841d2b757885897f2d841afab8fd1a7c3d1b3b678cc39a41bf984976371a2f448d15e9dcd1eaaace846200009b565b62035f0a62014b608801357f2119994c8c94976cf5d8975f05f0fdd398b80b1c90fb58b7d3e9a14715d4f5557f0886d1afd7f659ff53ce9a39e417fcc43d1a8f10dc713bd0169b0d72d008d0e1846200009b565b62035f5e62014b808801357f04bd73962b76134c381fa377d22d5a78b991633cf9c30b8c6adf8ba341337bde7f200c64e4649b8e2545b92f0b20e1b448f2c404057b826f9c7fa464fdb1caf012846200009b565b62035fb262014ba08801357f0632d7ca59001c718af44e86e56685db4d8d734aa6744306670d11446a7c7cda7f18b651633cdd0e0bcfa7a2aa07af9541e809bc60110a9a0a12f0bacff0b3c35d846200009b565b6203600662014bc08801357f2d1e178cdb5726c6ed48ce08847c2e1bb32082fd5515a428a6a0319e0d1003c37f0fb473821e1fc8271c2510bd96da5a4eb211927b8ee35b3a4d9d14cde6282aa6846200009b565b6203605a62014be08801357f1ffdebc2b0a9ca1db7ed4aaa0824b76850efd4b1197ab093f6f0064c4c59cc337f1198b05f41914f60a7b6312b6cfb1c6081b255b1624e741ae24e7bd37febfe99846200009b565b620360ae62014c008801357f19c0fb61eaf7282d92ccaee82200a0f170b70f7d013430c4e5185373e94865ad7f0b1c3fae71e3930c5b86fb3876469aa54a789afa41c353507c26483c3ed04356846200009b565b6203610262014c208801357f2c3f0f9508327e0cdc665ce33a0005248fe90e4c7ce059e802a1bde48ebfa4bb7f2b6560c75de757fba440654c2ca4859ecb3bb018825d0bde535011f7553bdf75846200009b565b6203615662014c408801357f2cc3897282453970669958509b4c9b13db140700ebef4b09c23be24ed3b870157f24656163435bad36df2f8b357c5e02a0a0016dd9c433b563d9babe218f02a3c5846200009b565b620361aa62014c608801357f2b94fa3933b1bb2f9e12cc13476e6eca43e51ee86e220a143c6a8b63d18827547f11c0e8d997acc70f6e39a8ed7e2aec84c95ee37bcd36ab85968ff47fde7866e6846200009b565b620361fe62014c808801357f1dfc785ebaa6d8d0ffbb7465bc0421dabd15b0191f68a1390dea22367a5470657f086a1224079e16eab8f6ea001031954fd76bcef5486a332b274a1d3101329643846200009b565b6203625262014ca08801357f0b7cf2de3e23079bebc541243f7132c487665e3bb0710350cb28c05a39011abe7f0c5f34be1782931161252399a5b3b2d021e12b631897532c1573dbbf2d212db6846200009b565b620362a662014cc08801357f18175756efa42b796671b0ec35635d75558fa008a8938c945fecde126be558b07f23f2ebff20cf57ad3495cd260daf08629114d3f9389d4900890f7369c3673e40846200009b565b620362fa62014ce08801357f2f22f6981d29ac93a9d95cf684b51dc8e3d2686436ea5fcd108899926b161ac97f090b36ec70201af21a13738ae946e5f771845e82d5ab4cdb4b73f19ef961d2ad846200009b565b6203634e62014d008801357f106ffefa1ca8ce928807897253bde1ae638801fc03486a47e62685752c0537b87f0374a1d1591cca9428c243b509b58f784930e96b82befb4c255a63ced94dc9c4846200009b565b620363a262014d208801357f21d18d556d8e5571d2180915a35ec62c4e60542023cb2a693208c2b3bd8521837f272d9168f34633f99479fe23415b82d98984ef36c9d84548a3c6a8f78845ed0f846200009b565b620363f662014d408801357f2edcafa9fea7c1249548d08ca77aa3a5d56bf563c55a49542526bf2c1a322a597f2a42631ac7ac67e4e5de748c8e73240b6fbad424a5981a92a16b56916af1d928846200009b565b6203644a62014d608801357f0a5426f75524a7a28affe962c2d571e846d978c00dcfbb3959c0317d62b011b87f2f575bd7094e4d77b8a17721d8c8a48c2801eb3ca3fb9115e4fac2fae703e696846200009b565b6203649e62014d808801357f264a754b1a15c14e44438bb0c6e666ba05f5fe4aa686f43531060368b090f32e7f0c887093cdf775b1a7833cf14768ffe6ab0e895aef4ef4149f41b0c0acc69957846200009b565b620364f262014da08801357f0484e53dd63b83afe100db8da43bc84e54a6566eee6047a6c3365384994813197f08cb2280a61710ead313cba1f6e07f34bf8f7bc63242b63df2a4dab7de65285f846200009b565b6203654662014dc08801357f06d39165154f5ce2a8d45003d32d7ed041e4614b04079538c34617b7a8924a277f0978cf4b9115782f1bd156310ce4b39e3e179a65da08b2b63496daec1c60b576846200009b565b6203659a62014de08801357f17f66f6fd507114205b8f571b5984b5551d25e526ca1f96ce73cd5a0cde5471a7f1a216d929eec890296ce9896f2a04c653749316d2b72c4763d24d638a526fc9a846200009b565b620365ee62014e008801357f106223d9f40f6ea48b71e3683f8f45817a7ca2114707be313ac7f24cc64743b97f10e4fe6a1c92b740342258d937310b86b596338e5ece585e2ad553c78b5a81eb846200009b565b6203664262014e208801357f143908aa39e70e9984ecc75a8d955c4f5a7f6224c024d57c9ff4afaeb38135957f19d0ce86bcf3242a1b36696ac5293b53c65b5cede1663226a24db18559c583d5846200009b565b6203669662014e408801357f1a623ed1843deb5f6e396127d3227eb1ca7e286257110152fe6425e5771024bb7f2eec0e90b04f49ff943312f6a6b52d805166425bc5785a4d93649c1089462dfe846200009b565b620366e962014e608801357f124a325b94cbe0dad1d459f81db243d1481773081217671cc1e6ef55827ec0497e4355d26e2e0bc60f4135041fa0d54ae41f7e852b9acc8315cdc13054ef9168846200009b565b6203673d62014e808801357f15dcf7937bdfb66672b1bb12c570f1df3a16e1f788deacd388602eb169371f997f2ecd9095ca6b8d722145234a22799fa36ce2c3a34be19b3deb0e1de355b303b0846200009b565b6203679162014ea08801357f25939ccbec98b43674b62a26bbb3bf473141ffbb7fd9d1372e75ba335965113f7f05d4dccb671666ec8b56b8ab1c54c1d839584a851a9b8f3eadadecd72d9e2288846200009b565b620367e562014ec08801357f27113b5a8251ff0d31c519f63f6d9d60ea5439439d520073b31b6160126342497f1b2959fcb1f5ddf585172c253a5d8263a5817ab08b383dc8609f12b216c46117846200009b565b6203683962014ee08801357f155a8c3e35cfdd7fe597f20735d09156bc251da8b45173398bdcd651841d95317f0162be819a513490244fdebc0c931a22dc393a7a324c261346208515587c0d82846200009b565b6203688d62014f008801357f2598fa85ee38d7c3b3e0afe54596b0eea864a476a8c997407d194e46888bc3417f184cd0c48031b980cb403036c358cfbca9a279f024796ba12e3fb77c72076ee1846200009b565b620368e162014f208801357f0610a03c1328537da1685da44386fcde702ad9de994572d544aad7e19c3dd7b97f1f30aed69daff1cee186c246e2236f831e69eeab997784dadab7ea7d2a474273846200009b565b6203693462014f408801357e8b61a95fd4cb551596a444b88bb1a6c28c2e7479e3c1468288cbce8c6793357f0d968102b4ef5cc6c5b027cb4d8dca8d0e756293ed6bdbae3789d5d45433e19f846200009b565b6203698862014f608801357f0b7a8aa31401b02b72569abbfec0e73381215e280e471cfadfb2b519dea3086e7f12a006b323604b4a89aa28aab0e38c8d8d44d9cb21981df1fcc4d4512b3964ff846200009b565b620369dc62014f808801357f18c7172260403ad64573bdf6e0dfec4dc17b6b5ddea850202f9996f24ae747a17f28b5d0693f82665aaafe2361f22692f5517738fd7a4e33cea54b6fb991c32732846200009b565b62036a3062014fa08801357f099050bdafe95b50aa3f71a2f47c688ec4e5175acad1c7663447b3198b4232e37f272d2174525b0ca2c5132650b5a7bee05fa59841ebd15c547686c890458ac224846200009b565b62036a8462014fc08801357f2411456ccd0000010102632c99873a427978fc1916990aea94234215a48d0d297f1b0c32c5ee7b4208fead2489b5ed813954283ed98a8a694daa41bfbce24c8e58846200009b565b62036ad862014fe08801357f2935b0cce8511d7b3adc08a5ecb7935446fb6525c57881d199a3c82ab29174227f1c6f40198d08139cac11aa0a424648b1bad7c919b6815a35ab520ed1e2a00dc5846200009b565b62036b2b620150008801357e99ebd8eca514e1c8e5346b37cce7e9fdefd913401eb513a06bceb07eb270747f1e31d0f35fc6ebbc39ae301664977e5d96868070510b73d5c26564c42e63e043846200009b565b62036b7f620150208801357f0f5238accabfe65fbe521e997b1dd34fa3058e71dd7dcc1684fcd446b58870117f16192c596546603b52c89c5ac6fbc4795ac842c19997cec4c001c8f7e0ebe40c846200009b565b62036bd2620150408801357e6ab6ac4246f97efcc113ad340041658a14ef3e6fa60772be36d830879ad0467f15b59cb481aac7e21b07cd7f975248027d7f63209eba0ac83103bd7ab7f559dd846200009b565b62036c26620150608801357f1e0afdcff1af426de28d3e3502ed7bf2512da98198dc606dec4e102b2f34eca37f13b7829f37de698f8d64637ce4215796c990bad68556098d7a93e7fd2ec83224846200009b565b62036c7a620150808801357f07cf5a07ad2b266bbefe7d4a1193d9868f9e6e078b3a1b4174d8419fec1912307f17e2545ae0ca09372b865db3d8b134b5457df4749b02cecab06a65ae717cf6c0846200009b565b62036cce620150a08801357f0c96cf8f054f186177ba6e91ce5096a5bf1067ceaf88eacce7a0d0d14495319b7f1e03aa3979455399e8acd8c750ea2cbe080e808185ead50ad596b689e21d669f846200009b565b62036d22620150c08801357f2376a7b194f64b5dee74fda542f6c0b544fbb948e07d145af5e8233af7f25a387f1ba0081f7e41fafed4d443aa7a01ef1c74527615413e51242de7e293bec4050f846200009b565b62036d76620150e08801357f19ff286c1a9013f622010393ffd1763df8cafc38ecf2b9bd0b6aa6fb6fde90037f03f8f58d590999c7d585559e3307af590263d47b0134538141f846aec611e227846200009b565b62036dca620151008801357f19eed1eaf230c45e5461126c7373e453c6f66afed2e65d62df55e05bf1b1276c7f2e663cc5afa1f379013e82608c554ebcdaa029b0b96a2d1a8e6a7682e4aa94f3846200009b565b62036e1e620151208801357f179bfe6e6475c21e3d3e75673131d3801b7ad07148eda1374b879c5c6497028a7f0dac03495b56fdbbef33b9cf4e581ed4b5e05c7c41df81d7b62f57ed5c106de7846200009b565b62036e72620151408801357f059ad5da7f8903e47df339574e1cf8c172a36f0250e5b3db0674eee30c88bcd97f07c2aceb0a2b8814e66b245f99c25b4ede7662fb8d7ad7a7983ad03394acc349846200009b565b62036ec6620151608801357f28c7e94c861e47324a0ea483b8d70afbf75e7b26cfcb9040638bd16c15b88cb37f1c12249da0e882ede0d827d0a93a0f1dc5ef692e2ffd6a97e1b80b2bec380a21846200009b565b62036f1a620151808801357f0f7ac8268fe8cb92777c8ffcfe992c2c6b45f80ac9cadfcdfb39b93a8919afc97f27224e8121ab9be180b01b23a61eb60b05644b47ee7668e130c4a987ed05173e846200009b565b62036f6e620151a08801357f2068703dbf584f4492bb0a5c452f1a1ee3cd947754151f07e8bb1cce5d8f534f7f0598cbc7cb3d9a19677467b6a53d344771958b7ca13c72391d9420657b5a237b846200009b565b62036fc2620151c08801357f06d3f810fa1de0c53c6b05232b15bcdc3804bb90e36e8078215d8a21644f7c237f301209afce672bbfbd7e9cca98a1d7b56253e651f60255e991f91da282bdcc01846200009b565b62037016620151e08801357f2911f6f6d280b9cbd2df206c46d73e254257d240bb537042e76520588ad104ad7f156007ab50496d37bb92f7ffb7c074ee882c6794f575d2d5c0be34a667c07fde846200009b565b6203706a620152008801357f10d1536f0a148305b247473360366f93d6d1beb914dd8b5cba186b46085447627f028d9d73593e9d9267bf662e9462c4eacb284b590893318b15ae59e039115d72846200009b565b620370be620152208801357f24042747aeb5c9d89a7f8323ed57a3cbd0447824a60ddd34e4d3b314f638c3bd7f09b9159df2819d9f7c01ae3c9e8a467df9e8378f49a28074ae712899738aa721846200009b565b62037112620152408801357f0da43d3440e81be6803a94677f4de352c8afce9e1714183b0e79f49edb4ff49e7f0542eb14cf4e7bfd81e144d4e126548deddb876902ff1774e039042a21ff6e65846200009b565b62037165620152608801357f13423586631438a4a387458caca96d1bb66c6a3210c446d62bb6ffb67f2923da7e6c37822106f993ac93d92153ec29189c8e409dc114e2c8aa1fde187479c5a8846200009b565b620371b9620152808801357f04491bbe57c9dff3db3a4d4ed7da8655ae31a2677ff42f24fe3d0a183e7d9bb47f0eae47b053f1bda0379ec790d7f7906866853bbb29d337d0204f0f8f0fc72094846200009b565b6203720d620152a08801357f0bf6f83654e1e6f169eb88c731a758f5d5f191f47b290eaf7c9ca67fe2f33bb37f167459a6256cb59984b4f9029e3bdf3d10a2cc2b172dec40ac31802de8e5bc5c846200009b565b62037261620152c08801357f0e9c15f1a2c57ac1acf97198b1eece9aec4c132b89de14e9f3d2c96c64af9d0d7f1a2c9ced41fb30547b60bd50b94a7aa157586f1a285d096043a6d3c0d2102e36846200009b565b620372b5620152e08801357f24be75348c7f086259f6d4a1336ccfb2f429b8b1b81d1eddf33bb65dd076030c7f0b276c7faa802bd59d44b21bdc5e102fc1f9e2ab3e7c26b41152507d6d804a7f846200009b565b62037309620153008801357f1a2b140734c55936afa76f5a6f47f89e32d02a69708b760ae0b23c329aa9cf397f16dc2ae6780e87a5bf85d1f0680335a5e822ba9c1f51239508a825fc7315041a846200009b565b6203735d620153208801357f15fd8f44ddf7f76c378fea89d182111aac15824b1ac7764a9529473ce43441307f23a409f616dfdcb09eb424ca0bc7b1bf189c4e648429b2f8311b14fc1889bb9c846200009b565b620373b1620153408801357f1d79cfd75c6d1a4cb94b5106e4a025150f93062f30b71b3f78a7b50a7872ba3f7f05e6beef5f16d32fdf5c4dd565ad655620679bfc14ee6948412ae01872b61040846200009b565b62037405620153608801357f2779c73efddcfaae75c382501fe305ae381cef19a3e6f38a3aa6772a0d15ae3c7f020735315819de1a92f8048d7731a76877126558cddc9d533bc5379c3436957d846200009b565b62037459620153808801357f0ea26b0d5ce48a4d84231aa1db40a895bfadd887547578ffd9c07a8c2f5cba187f05824d2d27d39302f5b91517e8fc93fbbc4ad07c3bbde446e554f847f04c83ee846200009b565b620374ad620153a08801357f2aefbf508b6fe5c956a09b750eb35853e565af77f9a2150f85d1b75cb025d3c07f0bd15d7972e68a306f6f67b465e7fc3243ddeddc1cd3001d103cf01dabef6344846200009b565b62037501620153c08801357f1791338e9f98d9fe6447d6c03820ea3ca7ae67a896d8a6e645c29aeb13e4357c7f263753152a11fe1e9cfa0139802d4df879e385b8f26b70d6984247430722e6be846200009b565b62037555620153e08801357f2c180b154a828dd2e927fb30fcc7bddffef9e1febe66192d5f7a29eab6ff9bd77f2c298e5d849842dc0eaf0380fd7de7b0d2da5608e38203decea786fc0ffb1750846200009b565b620375a9620154008801357f2300d6d46b280618323b79e653dc118e0da5d3b97d286ca99e621cba8e90ef727f19eec114f5c2c0482b722f72542afd80d009cf5fbf77ac093208fb741974153d846200009b565b620375fd620154208801357f06a6c1115f570f27642f6d6ea62e2f89bf89b50f03e7020222d7ea9b5212c3d17f1d6bd94f1a4a8a7ac39b61d6e87e2353762a9cf99cda534ed9f0803caf247647846200009b565b62037651620154408801357f18ea2b2b222c915d5179aec737e69602cae425b773219c2a4b92f9b52da622e37f2341113bd33e35a3395a74f85108d1e5cd022bf4e2d092252e03d7935c326cfb846200009b565b620376a5620154608801357f1ded06e8d689512cc8069c0784dd9976dc59414260d648539ba24c500d8bf6b07f13c64fba76cfa07ee0c3d4d0353f1744d8b01d71eafa0fb055b6b15e18e5d09d846200009b565b620376f9620154808801357f04e6e50de9df4884c591bede727b1b008243a49cb64f31c99b473733bd9ad0a97f04fb754f3cf6c80af941800b1713ee5059a91631793d6ff13965000822f58b1c846200009b565b6203774d620154a08801357f0f88e2072158db74560b2485c8046e71983ac77a1bb944b664335d79792dd1a27f05eff60dcdbdcb277dff02df8bd00451c815236a2ffc12361927a67b14d76c19846200009b565b620377a1620154c08801357f1ff4e8a00c14a000bcb76e6abd238234f33f1a7b66cc76cafbac9863a5d7abaa7f0f23cd8e6417f62743bb7800106fbfffa256a3f7c837ad24a497f02dd51ee9cd846200009b565b620377f5620154e08801357f1d665daad0dbc1b3248037ff54efa140920fe01f6c687991fdd54398acbef8127f18f1130ba22992803123d6cee46a1b979de9c0741b964a1b04de6bff7f4a66c4846200009b565b62037849620155008801357f05ddff55798504d25eaf6905ce494fc2d78cbc46a03a5ffbf56cf39f4f70b6077f0201ed75a0eeed1331a2e723c4dec17c9c40cbb7ef2f2a3abcd2f5f49ccdf6d0846200009b565b6203789d620155208801357f05716e86913b62464c197caed92773a10b0f4af95d31a08b18c287e0176aaa7b7f1835f01a1ee085e191757501c7204085f87d03364ec2196afbabac6bad745637846200009b565b620378f1620155408801357f2d85f2894c9f105084073dc61435ab9f068979311ab038b54664f0f3488345de7f156736a482e04c6ab9926185deeb09371f7d81dc4dd1a20c8e4530766f52fe2b846200009b565b62037945620155608801357f184902f23c86fb723b727b894d29c79de2eee3e3a1a9e9097ef8eb14bee936937f29a30015f4dc845afd5fa463cfbe4be733369588773efa162c165b19e1ac74a2846200009b565b62037998620155808801357e8414686a80da21ef54311bf9b7ff52e27b3c1b3fcb263587ed33bdad29bc657f1794f2b12d9cb101246ceb0bb51d77daaa85535c3763060dabd5460daae65ab3846200009b565b620379ec620155a08801357f1a5cd285ba3e2b3b06bad781b09713ec27ec3878f021f51f45699f9abd00c0bc7f27bda6a4e7a00c46fe69de9791b45c7361b72e4afb870b56fbdf1bd6c6842d89846200009b565b62037a40620155c08801357f0c7def9fc486023e8fc6edf0c093d8791e08ad3c60c33b5a327ce8e0804511517f038ce08c018e81c401302927c0a9e260aad161641ce0fce2c574d80e66187a79846200009b565b62037a94620155e08801357f2d3cd672a63418a6e6d3c463cbe3058d68655bbf126aa28877411c8dac2670dc7f26983916ff3075218d69aff07d57e56c71ab83a1fc2e6529364f19d330613666846200009b565b62037ae8620156008801357f14e71438217b949267a3d872aeb5babe40c4a11d1bffec3a1a17c4dee29c1f3d7f11dfc135b1bc20641eb903fc42dd2b830be1aee834e6bb4ec739e07e24e4eba5846200009b565b62037b3c620156208801357f22e28e328e0f6d40dd3a57cfaaf007eed4d219a7eb14a56621ab73755b1ba95d7f02a32f908c465986e24d610c45b96179a102855496f78c91659203523910c6ca846200009b565b62037b90620156408801357f1aacd2b294aa6dd29869f58c74c30a50fa179dc0dc79c727dd4b984e80d9ed597f0518001f11f6319ed8e237cda87ebfda6d49b487ff55354386a1ae809c84d313846200009b565b62037be4620156608801357f0cc3de492fb81d99d523ca75d476813e38d5610cf801029904263b69920507bb7f2cdb0ddf697e1d2a9bb864e8962927b8b31c17ae6eef9593ad178a6e881881e6846200009b565b62037c38620156808801357f2139e74a39d7426e49b7197d22f9d389336d0896cc2817822f8ebb4f9e35d6147f114fd21062913f792f0eaf45b62994dd5ae51b9274c4edc58ea1f5e989e689af846200009b565b62037c8c620156a08801357f2dc85c7df613fab1d2dd13a87bd030f5acfc41f1597b7b1b4e094d020bc57e447f2f62620eb7da40031db4d52b25c83bad623f93a9ce0555d00ba691e84d509a35846200009b565b62037ce0620156c08801357f3025736fe864280453b180e959c9e14e33ead5744bbf4a03954d2f21371ba8317f2e28e643644fdbb0f9d13e56be41cdf6885e4e5b949d80ceb72eebd56bfac753846200009b565b62037d34620156e08801357f1553a5d9d6cf1c50d52c7de30e1e370db7204081c580daa98cc7bae2ad1964c97f285372331809d2ae828ab4a99e7e4a629289612410955ebdd442183b55ed0d3d846200009b565b62037d88620157008801357f0cd47dc6abc09ea1e27615d536a9dc3259eba8e93959d47b951cecf8e7d12e8b7f08941b45e1ca05f99ade782511a7480d74a76e57e0f183287d55e0f0e3e13f85846200009b565b62037ddc620157208801357f268d96d0347b0b4f6e86b2e49a31134a510b8a0f2c8ff77b7d75fac39b796a5f7f1c3d40acab762ab9fe4d056aa8e314819faf31ca824e52dd09c54da37450c594846200009b565b62037e30620157408801357f0847c73edaeb1edab4531380f48d465b23de251bdcc1ab3d177e9761632ab5607f0cebbcc560c7487d9b39836273c842ba55699b8132b9e4d895927e06d4703e52846200009b565b62037e84620157608801357f2126d665dd7c76843adb3c5e0636827ce1ab0565f73fd1b67febe46fe452b8727f0430d52ba075bd4c73ee2246c52657ca729b1938e23b5ba5d4fd38c420094a64846200009b565b62037ed8620157808801357f207396ef2a18fda126f816eaea973668b8eb24e96e84a12f52ea102a92989bb07f0a55e16d00c3fc5c0b972be8bf2dbd077b29b277e708afcc793ddf8c6335b705846200009b565b62037f2c620157a08801357f1e53faebeb39c2192f91d2a2560361fb12109e862cd8bca5134b473567ad69ec7f135a788fc5f87a6b532a96cf40dbbda5358f0de6d6d588e59030fe12baf45d5a846200009b565b62037f80620157c08801357f0cd11b9beb046fb7032d097679857768273a0cfa3509a5975fb0c672ca2dbbe37f116d13e7d9f223010245e63204fce65315faba6374f07192baa7258431f66310846200009b565b62037fd3620157e08801357f0fc418168e2f46be70b90b25cee0578c11ca3981cab618d9cf23324e5a9bf9847ea368fe4d606812c05f6d6eff7d7b6043fae7cf3cf3f9bbe7c660c9d43d934a846200009b565b62038027620158008801357f2a53742f0f54e839b764bf6604a096a7654aaf21d84fc5a7cd794e387b5461c07f1cdf9d3274fc6c0430d3156330be87dc729b0fed6acc1910d5b744edd3b1a9a9846200009b565b6203807b620158208801357f2d8d31996c577d1808c750533c22c1f5eb36101789d8a4c617e8916c9a1a170f7f2300d897905eb795a49e5725914d6d9f39842d5c303cd9f0c8f35c152877d6ac846200009b565b620380cf620158408801357f233e50f7b7b464eca2612754090ecc5589ff7675c89810b468965ea8c2bbff327f14380dd04ad9a722a70dfff465afc8356347e3a4015ee44fd20585b7d1f320ea846200009b565b62038123620158608801357f01af75ed30ce8640bacbbb267b7a97c8fb89c71aad3b8be72412012dc25574697f25497cf0f59cbf38960a48ab7204fe764081e7a82605be5452e247594ad31f24846200009b565b62038177620158808801357f0a25c636b85c3393e675b984b2ef64b55b5eee149d168a971f378fccea28337d7f148193397fa5038b6846b8ea46f8fde5c005da2d8aaff528d5fe8c8c4a6e88f6846200009b565b620381cb620158a08801357f19d82f8c46fffdd2ddea712355947c321d75561899716ac875373b558960a4e57f0c8f0b946d505ffd96b9e0e5982a006f3f7533ea5bc8ec98b4bc49b31919c47e846200009b565b6203821f620158c08801357f2603c9585e17f96ce707e3318f07f6aacd29512f9cc44b8330b7e53f539716a87f182ea9f22606ab766cc2a048d77e404fa5656c1d59ec2b08c53d8d300be85d8c846200009b565b62038273620158e08801357f2b931fcb8c65c766dbe760c4fd96ba3f0cf803d00913c4b69e517e677a88caf07f1fe7737ee4559a9ea25303e24f020160b8f5b52ede968caa2af06f66772ffe66846200009b565b620382c7620159008801357f0c6f47e3166479b77252c90a727bc121459da927e6ebafb393f158ae26a4be007f22e386ebfda5b0de9cdcf37bfed75cb3e7b3ed8b1233df2ca4be3b8c5b509ed1846200009b565b6203831b620159208801357f267e1d46325c17376cfc5a86424b9a346acd1155e02bb495056bf8373500badc7f0fcf481b33981d4b1b694cbfe63ced31831cbce5365c8c2245d622eb654a92c8846200009b565b6203836f620159408801357f1dec6e562c423fc48120e6700c5d6b7140f4d01eb8a8b980a552b33c9731a0437f0b6515e4de4dd6c57404abc52f431c021b8ccab5e4a5a3fe80b0b121aca0b1e7846200009b565b620383c3620159608801357f12279016186bf2168a840575074fad62c66b998900d7b6a4dedf91ffde10636f7f12ae3eac1cf6be7f30ede49f3e5c2433d786f3728ab2df51c085adfabf5fa429846200009b565b62038416620159808801357f0eacd49a85e4c18b33027b00f71b09d14cab8c46cbf29d104cd20af42a721ca97e783dabcf7f7d1c8e8de689cdc4b1d9ae91c3f089fdef3adb79f989865076fe846200009b565b6203846a620159a08801357f1d2ac57630ae96a2443845847e30a2ff859abfe782ca8cb47418f1e3325881d07f289c8daedae165d7ea12578205b246e1394556c9b06d146964c41bcbc90e3760846200009b565b620384be620159c08801357f07637f5b223e5ec63e891600f68650e8b9d92eb558c2114a89970ac94d82ec727f27436bc66e36a41e5dc0ec5f07799e39f0a1075b2ba1f036dd63760ceda48773846200009b565b62038512620159e08801357f0f45fc6d7dbebea87b35caca360c34ac76aedeccf3ac1d5ea0da86746ca387af7f16f4e212e7d47bf94484fd42817a9e98f960a7ae4eb0947adc20bd54a17a4be2846200009b565b6203856662015a008801357f0caa15093ea6ddb4f2203e2d58d91dfa8ca196a89db6f291bf092ea847418dac7f12d6b3729da22732baa1f463cabdf8da37ae86fa9c37fcb460c8a255d675c7dc846200009b565b620385ba62015a208801357f2fad5679768b732c78277f245cef17a02753fc33c77cbe1e1f4d97a4da11fd867f1814f4dec642afd239991e13837ca3f8ad2f20220b86cea2284860394ba31c4a846200009b565b6203860e62015a408801357f23c413a31571ffc8e4e8c483395d221a6ebb41c476ed09e90c36160279d4bbe77f2bcc3c54835f0beb8a9737d2bffe9636ad02c3eaab2cfe80cb21901cd14fbf12846200009b565b6203866262015a608801357f16dc3ad2fd8d437745e3f2ebbfd052919bd725f8dc69340a78aee0cbf11035ac7f20d166137ba505dd1e41e26222aadf4b399eb0307aee10d7d453600a25307165846200009b565b620386b662015a808801357f133ec23911eb7198678b509d5a4515d8312a422430bc52e0c48eac16e0170d987f04bed232ae9cfab2f5086d0fcb8424ce788e098955336b38ddf0b0cde00e8e83846200009b565b6203870a62015aa08801357f2b539657586652005a4d07a5fa3c2ffa5cfe28996595606845e5afc6ee4069307f0d3985b176adbc072caa38e5b0d02d80da8ceab5a6b97c1d615c4500fb18101a846200009b565b6203875e62015ac08801357f17db48b8298ca84468e17b7bc7d30ca1383843b934f3dff63340a0449b3b1c757f156480558314b57855a98ba5ddc6bdc8b9bbb775fcf1918b905728e8fc78d4fa846200009b565b620387b262015ae08801357f2311c16c221f9abf5ec7c449ddf14807a7b381f7af4fcefb2c3a42590f6d5ef57f0c66c1dc729a0fdce312da03a40d2a80c92dd5a843180b1b1be2afc1e36597da846200009b565b6203880662015b008801357f2fb12310cb5c944ebf1663c3a933971234c29c09ae33c756acacfd02a7ea04c97f1e3731eb897bb7190b5fd80cc988dd5d97f2ae1dafe632f2b55eb640e8915251846200009b565b6203885a62015b208801357f16d43949fa7a118072e826e9999457959df6bbd4a5ed8aa334532bc32957eff57f19630478657d0210bd77f4ee56efe757c273f37d928220c372a3ab579e91f3ea846200009b565b620388ae62015b408801357f1dcb0d23582ee498128607e26bdccb8e61ecef93f611fde7a30bf2763ebe27337f2af7baf9806e7318da5c3eb00ae53a44bbbad88086e75d1a35baae49a9b55537846200009b565b6203890262015b608801357f058468ea10acbd36161982414247098de3a43f067798c04c8816ba0c6e1fdae97f2890ace84c9bac1b5a5f3912d8d3300d69fb701e8bb5db0df59cc84df93cd5a4846200009b565b6203895562015b808801357f293dd023361f9eeca9e2e76d26bde1e1e870cfb38df6f980baa416372dbbe8137e3149ec2483bb31d9ea4dac96fcc1b5cba882493422ce7f2644668d42ec925a846200009b565b620389a962015ba08801357f172bb09494e98d25aff2dd229aa18ee8f549518526eaa7fbe51c1a847bc690127f287918c61616d9efbf02989c58d9d5f6de0991090652187183d7373b429c02ed846200009b565b620389fd62015bc08801357f023ed99041a1481680843133a490aa2b100fc3fbcddfccf62e5cbf59acab24797f1f65707233846010f5fde83a3ee570f30dbfd76afde86156c4c2285662441061846200009b565b62038a5162015be08801357f220bfbd1c6206d219361cde2c9ec33d2144fcd644a287f6839d0716cb053ea907f1b02872c4fee71b16d07a00677960bc9b0094c593f61750c64eca09bea243fa5846200009b565b62038aa562015c008801357f0244d42dfb3ebd600fb4cb7de5eae2fc49501fe5d4e0f1b56cb599685826db717f10aeec389c1bdf934a229c9cd37f83ffecdb5638d8be63871c54a027b912d177846200009b565b62038af962015c208801357f07ecdbebbe17c3cf48c8a9598991bfd17babf7de1e4258bf26ab706b89bb124e7f266f5b07f0d324b9c702f58fd21f073d79f26265e53cf8400dc67856e7ebcc25846200009b565b62038b4d62015c408801357f07bf9f2a29661399cd39fde3ed447fce742bc60664fc8382f8a0d45ca7bc0f717f183fe340ffcc2eae99fd13b99515ace6e5989e6f0ced2ce00df8a388bedf8257846200009b565b62038ba162015c608801357f1d9504a4090a9b3033d3d6f97d071a0f6934dd6db1cfc19d5ea8c33a16c6e9097f07145f29a50c41b65b5bcd5530abde59df5d697aadcf1e9e5e8bd340763d6a84846200009b565b62038bf562015c808801357f0fcddf324249151ed3b40eb3c417230a7d85560e544760501f421542820d0d647f177888c44268e4958d62ca6bf1ef67b07979a20390ee8dc94b84bbb258b0754a846200009b565b62038c4962015ca08801357f0f2c62e647c4660f488fe59b6d1ced42d7c999bef3806626263ecdcf4c1f905b7f254cf888af29a0c6724b29cb7b6ec228634fdc85f654cc41fbdf693339938713846200009b565b62038c9d62015cc08801357f030102bfb4440a6f0f297c793a2d62e663c7e044bb9e1dd23c9dcc0e2e134cf27f2578dab3852d6967e3e7897e686d4a20cc550a65cf4bc2963f5771e4506d36ae846200009b565b62038cf162015ce08801357f0e6a2d29acc16c457bd28647ad9ac571f19a51bce21d0cbd93641730715b4ac97f1e24bc4c34ae65e9db56af422a3ed6d3d5fd9da24950f610bb2bab5eed7d64b1846200009b565b62038d4562015d008801357f23246eb6d9338f48096d9edb10d36e305e0533a1a42bdcaad70b2738c28cfa4d7f148eb3d5a235d4a6033df212e978e5e132ce488b4d0394345d8346a907366e20846200009b565b62038d9962015d208801357f1bcc8ef1ae0946b29fcfb7274e6cd68bab3904ed97c59081d7873a59d20b29457f150e87b1d622626311c1227bb3946d2a0734a1199564b340ae2019f13be1d4c3846200009b565b62038ded62015d408801357f146678034d3cf84390c4f625fcbf69adaeba23f773d4f048c72975923e2039557f0358a526868a5ef7a16cc0249f09facb696a3433d9c0b06e4988dae1095ae757846200009b565b62038e4162015d608801357f0d64670097f89a54ecd72bb426e5f8606633d1b23fbafe7f944e613d1033ec607f24ccc28e56add3865cad4be65e8094a5ffb52957760d3fb4c8023dd9fb97663b846200009b565b62038e9562015d808801357f17827985d0388a33ad64ea059be5ca4548fb114f50a807d17c12c59433605bcf7f10aa3fd011629523abdbce43a23de20bb47e12887ead9900b0f4d5d373afecc5846200009b565b62038ee962015da08801357f2927c5be6f71c6b4bf9d019d9e0ea6dd71c398bf08ad93ce9dbef9c7b5406ea47f2595eaf136b354b6772b6b0ea76f91db7f1e15bd82936b320cb071b70be05a86846200009b565b62038f3d62015dc08801357f1b7c1286bc3820cf4cddf750c5de0f46ac00d693024bf98b4f844d9f67ee96767f20ed03e0c586ae786546b7ff35b3ee1c8ca00c43ae4e637d5c5ab828b49f6630846200009b565b62038f9162015de08801357f0ab7f4b6c8d5da8039e3da7cce556d4e6f3d9604a9e0d351c878639e5e47b7947f2b13da12025818c52e4cdaacef2e75eb67fc6a06c6936cb85c653c5ac708ed09846200009b565b62038fe562015e008801357f08277497067f4a5e6591e6cee624d1680c0a0b40fec8dfeff9a558a7798258487f298003411680893f214bcc9fcf4ba8ae2ff65618e6ff339b9ea743ba58a6526e846200009b565b6203903962015e208801357f29b31c75d9c0f94bdc5a719e5d51905c1c6a52d38b1f385eec79d12b4712e44b7f26024f3f629ed766a54adbf43d50528d15e75e4b1326ba9593db0861a35de8cf846200009b565b6203908d62015e408801357f1d66e17fbdae4105c710644e47a20ddab197f52e9dbf868a9b23420b7c7bd6557f2b33b63d82a3f5adba79718bf0056cf3ac4de305b06cdb1c0e7c200ec5835d2f846200009b565b620390e162015e608801357f25d69b1bb418ace9817b9cdc3115f2a5e7efc57a48a7e3a5e410600bb55047d37f304e2533e959fc00dc0275502e9deae64a1aaab4f56b3acbe98eab0a361bdb9c846200009b565b6203913562015e808801357f047482d46c951d79e13d5ccab52229e6668b9d0facde1ac1ca64a8f4516f98547f212a75e10bfcdf56c56b6a21b93fb0eebb3b665f2ae38d0d5dd1cd0357f5260a846200009b565b6203918962015ea08801357f2b569267031f267557af52285be79d112a6ff13eb1b08824657514261da4013c7f0308b42904b0ef4cbdbee67272519bc63f413839d66258d6f370fb68001d80a9846200009b565b620391dd62015ec08801357f012b339c1391b59f8dca7fed5a6fd580d30b35a112db94b080ffb07897a768007f1f93264b902bee4579bbaf8833e48fd2f94824d2c302202f09e5f572ccb5f2a4846200009b565b6203923162015ee08801357f0f0dc7bdf7b9e1b637e14cdade5195ddafc7ce6e6eb1855767b45208036e034c7f0fedd40def2b49130f18efa5a9db319a7ce30ec6ac1049b3c108609a2b050c1a846200009b565b6203928562015f008801357f02b3b1e1ff0cdc21938a2f15a48dff1adb5c8f6c2d716174cb94d943609275a77f1da57b3f15e34875597bf0ab6bd9448059bc0878cf11c0bf2ee74b584c4609e7846200009b565b620392d962015f208801357f15dc2016c04fce94b08f6d377656425bdb137c4b0ea7d885c207a1395b0fdacc7f0563ca588f90c8265ef1421d92092f63c81ffaae366e64c83ea8f390bcd42914846200009b565b6203932d62015f408801357f26bbf34af2b6e68197b5bce09938c5296064c7692c993b87c281b128bb5f6bb27f2d2e5cac0f2a8718cd5545c45de2ddef6c54dedb99a5e84a4194b7bcbbb957c8846200009b565b6203938162015f608801357f2b899b6ab1fc0ce77b19cd23da8d7e7d4159107d1d609d515800df4550a338ac7f1f741fa846e72ccd93c8ea31ef6fd3b8c474be0585927c1f2799571e00e5ec15846200009b565b620393d562015f808801357f12cfd1d09f32057cabc1900eaff58c42aacf8c0ebd8df9b0f1ba6457792bf2c47f081f4591314e5e4b382406e369719bbd5a4b5296a0dc2cc77f0aadb49e255be5846200009b565b6203942962015fa08801357f145f11b4954366dd4cc5b4a5b7576dc05ce8db3c4c6250507f63a30af710bf747f1fab40f9564c0392c8b89b3e0d980ccc242a4c5055049439bf6ace579ddda808846200009b565b6203947d62015fc08801357f2ba5ddfe64d9f89b9de590d845f9373cc8ca33376b719554ad4d6ae127e347fc7f2d4996e55ed9ea2a353e1d4373a847f6f33f79afc5b8aab0120297f0717837f7846200009b565b620394d162015fe08801357f2c051414990aa5313292e31cf6318a5a181e0005f6dead3d0bd113f11e1f25e37f130be562a43a960a855d55537af4c0792ce1ff8eb8e34384ef3a75dc572269a4846200009b565b62039525620160008801357f1450c2575baac303edd185485ec775c0d629c15dfd703dbc95dc9db3892738737f1ffac7ba494a0c51a225060ad5473a454d1e241430cddb79ca390b328b8636ad846200009b565b62039579620160208801357f0e8717e92d877f45f88bdfd0437456cfb0f019ad3a3accf088814cac2885dca87f13ff19bba110a5fea6be18277a53ee1c7a63e6467d4ee8f05afe21b9a47e8bd5846200009b565b620395cd620160408801357f04a8c129f9ce7a21a57560eaea54ed2c2272acca44c3a8e9de8c518d29b73b837f113411f1e709cf0c0d16130e19a618aff4fd9524cadaadf2b1a71f1219ca411b846200009b565b62039621620160608801357f141ec480c776d08aca9b4cc425a2f05523bb66588a461ef7c2c5bc1fe87113627f24cba551b301fcda382472a1b4598d20b0cd3e945588d02d997a1887c50f15e8846200009b565b62039675620160808801357f1974abbdaa29bd2e7a796e9f89f8d527cec3ea2bc104f53573cfa79a271bcf5c7f155c61db69424dc709ec8aaa019e7916676de80f55578eace2d631572cafc012846200009b565b620396c9620160a08801357f2a1c9e66bfbb068faaece84b079c99ffeeccaff03a47f0bd35a40394cb82b28f7f10ba4e795dd2ddfbc0e42821497e7306071c2e2c99d17ff636712010a5afdc52846200009b565b6203971d620160c08801357f2bf1fbbf5818f44cf76fe8d2093d2280f52bc819f4a96826d80bbef3fc8ec6687f236bfc550819a98ad6fdd95f1e460c3f4a01ee7a44c4902f5576076673cdbf81846200009b565b62039770620160e08801357f27a8850addd83eb8d8ac83d5b68d8368118d27350806aa074b49fd4b7694aa6e7e89d048a9ad82059eeedba44e3db82e0d0eb927d2fa96e957ba1060d8348952846200009b565b620397c4620161008801357f24ddbe4bd656692e169d48bb13fa78e05b458c0855ef00be96fab142caa9bd967f188cc255a007b5667de6efc7fe91f5adf78f50d8b30f17bed73e57d609d48f4c846200009b565b62039818620161208801357f1be550e8722d78802065c650e60a9235ca097b8efa0aa8ddaea0c02983919b237f1f4dd7fc7d222cd262d5746bff6f01a536c778731f597bf7ecdd11075ed3e421846200009b565b6203986c620161408801357f2eb634d542c4c672ed25ff703987836cada84758c6ccaf30f434c34ef36e65ed7f10c4d7add4c4df735a80748d5db5df3e923b344e8b3f95663f1db93385a98930846200009b565b620398c0620161608801357f0d625c8071eb03f2aae3e5a1bcc1cc417004a6d971d114a198cea7f374aea0e67f278a66b962c2eda5c92db98195d76a796d17bc2aa0c8f443925895391c734c68846200009b565b62039914620161808801357f0a63d6e95578c732a67102eb336e27de2baa7c75c9b58981c0ef6fd80090bb147f042b0da62f1832d2ccea41e23fcc4f2bb9afb9d57e5aa54c05c748935467f8de846200009b565b62039968620161a08801357f0e725f5b32cd6c534b9d50bc5adbd0357373f79715f5a91ad6e764dd1faa8b257f2e3f7ed4f61efa50692d4f58551b2d54c8c874d7dad03f4cf211af4cd0b646d6846200009b565b620399bb620161c08801357e5d7bf1deb74172786c2b2a162a16e8aeb48499a17c11c4711f828dab57006b7f1256b336834ca9dff6f2c8abec872c89f5b853b0a4332dce9e5f697a4612ab75846200009b565b62039a0f620161e08801357f24761abea654f40e4218635b95d0e29582611d1f891f36d214297ebd1a53d8437f173159535d84d20f8c0091f76a1cad937170c1cb9188dc2f6527afd05007aac4846200009b565b62039a62620162008801357f1220daa845a6bcf37a316c73757f6a2aab3139028ce1ba3d663e2a91a78486637eaea317cee1e39aba15fae8d6d480efa6e66192d7f96344158b2e912432bb45846200009b565b62039ab6620162208801357f2684bf3c9160260ec875b47cdc560777edeb72f6982e5d6ed691b1d488916c447f0aab0b06e2a2209c4bb95bbb040af8cfb878e4477baf12f1b5ece7e8bcc70c1e846200009b565b62039b0a620162408801357f0f6706c56800cc68534f5d5ba847d1f14abc376f657313ecd4294d1aac1738147f13429e3e02c7d7919ba7e11138cf15318b898b717d1f335de23d3c2c1ac66d25846200009b565b62039b5e620162608801357f06f0f0044bc39682b8578ff4fc6bc07a1bf0f5383102f25b380cda651b4086c27f060989a78bd7b8c4cd54f1734b8d3b6c6e67ba2f9b004b73dc75df0d72be5d9d846200009b565b62039bb2620162808801357f23b65b0d1c284087126c70c81406b8ef804c6e3a754d1fc831f5ff10fe35a0f17f0bb7841feda9ee3dd1b359cd1b01d8c2751ea454febe4cff5d8eeb7a007dae00846200009b565b62039c06620162a08801357f13c2c6694c7f7bf40d3f64bbef0d8c9887a6d002b4bb64db5961fce43fb2b4f07f0f2fe843750bf19ddd18080ca6fd442ab51540ea39e9906427e02298ea7385dd846200009b565b62039c5a620162c08801357f0b2379c9eb64b02d7b6b5d47c5a1fe3b820088e4e3577279876e6dfd21ffec7e7f065201547ce44a94a3eba0b0f812c5a420927f4994eece8d0c849050f559f869846200009b565b62039cae620162e08801357f0372e7c9a6db8afa32dd76eb400a942924733ab619ce5903c7dfbc43f33f62717f27b84d5c206785f814174a1ba5d7c7a8bf38fe55ea87c3303b6ece4538d2e266846200009b565b62039d02620163008801357f13e5a2fc95a6d4571332e2079a6c14f1d2303e7d0d11c2254177d4e357081e4b7f0958a671e794335467f591601eee80da42f96d0574ad57d17abcba035f553cf5846200009b565b62039d56620163208801357f21a8d620649975a065092502bbbe0623e9254030796efc802cc61745ce9753f67f2406693b4b8ca74b4d457ae8f995e5a9242769e3c36b9ae09817d203e37f2f3d846200009b565b62039daa620163408801357f2095b19411d1f81440131747c042b5ca703951896cd88bad28aae083fbbd173f7f16c1b4bd4abf47eac49ef9d05dff1132363e993c50dc3e4b7ed362751aeef7d9846200009b565b62039dfe620163608801357f0de15498d6ec05272dddb9a5f4163e8e3e3452dd24766d1fb89354cafe0228a67f28778b0530087b7ad78c102a8490f06f4cf68a89519b1750ba359b449d0effd5846200009b565b62039e52620163808801357f0e4a0327297e5f38cea28645f62ede51e59018c906a43d55cb26e77493be60a07f1e45a440e3f57a8e1a9575252ceb851d80a4a9cce508f67df5daf7073aa0078e846200009b565b62039ea6620163a08801357f0232833718db63a3aeb6404aab896e82a16c6f278be961bf611c5fa2c714bbd87f21466e4f15af5f8e655d5b66699d9b42a875e6bd8fd628f3bb1f052b04ca88e3846200009b565b62039efa620163c08801357f067a57481391b9d7c5337a2607b8c0408fa05927cdf8fd326ffdf0c3139c0dd27f114f65b2bb7ff486c2c31247f9dea1c43b8cbeefad65e25cd88b2f43e909c65a846200009b565b62039f4e620163e08801357f2b9807a9e7b5982da230819dffe7c59f0728d8e82b2f8feacc83a7f0747592377f0f0468c994aaff5546a2cbe661b0d921ff01cf689b5fc16c26c970a7b0c0c833846200009b565b62039fa2620164008801357f127d7c00d1baeef6e614900c2bbcfac750f7530c46314c5a322e4cae8fea9cd77f0ee884b17260457e7a54f0f41398d331f352fc50f45ae1c0b10a2940a603c0b7846200009b565b62039ff6620164208801357f1c788e3c6135131009891f161afdd6c70c3d1ce66fb083269ae966766936104d7f0a3dac474a6297c5bb241258183ac49541dce62844056c7efe795737fe065ea5846200009b565b6203a04a620164408801357f11371226dbfeb141b168bb846c6945f83b0223b5d660328aa73ce8752cb8ac7a7f0880c982c906bf90b996c0ec45b13eb3bf44087b893a3ccc3af47854dc88bdeb846200009b565b6203a09e620164608801357f0724446e9b32113834cd1b1f10cf261e975040cdec734ed86945b51aefabbb887f2bef598b820ef296736398f1443d2bfc84298ad7f7925e8ba346d857e7370c87846200009b565b6203a0f2620164808801357f273ec11e0b087c8fd4a62877edc7dfe5a14343e1428e55edd97e10f0eaad5e1d7f13267ff1b605613e7a8d3a544f212978082f0c55cde7482b6f97ef2378fc1953846200009b565b6203a146620164a08801357f2ef714c368c3a3b2b794ff1d484389ccb2c3ef3bab07abbaf2f4c0c881c2aea37f0859c2e8c2c79c4f814b6fe118e242b891d77783016e46c2a8c5030d7bbbd1d3846200009b565b6203a19a620164c08801357f070e526ef44a83852c8f2b2fb541271b9783e5d82fd21872d37783d2ecce726c7f169eccddefd2ed0cd1b4f9a8edaa0aef93e43dc98aab9cf9b5dfcc9c68da3415846200009b565b6203a1ee620164e08801357f29c7c750198aadd49905c1a8b8f15864d6c9c20bbbdd2bcba77412909d5c43847f19fa5d47f6b67c81e4eda8b6c592bb03b5cd860044b630c94097b6fad20b4a21846200009b565b6203a242620165008801357f19415494d65455b835b9a68171a203af7ef0ddc10795c3a432f7af7919b094c67f04b7195e8c97872926f0b4c79129298d9dcf3cd21187988d7296b184853a9864846200009b565b6203a296620165208801357f21fe9857c01d5574ec9b6fcee208d484ed051957c88600a9493499e99d64cf3d7f0728cd7ae1eff12a4f9bb58e9719ea3e96b95d45ac722f7470b3b41a9cf77124846200009b565b6203a2ea620165408801357f2c142a31f113997f4bfffeb94961378d6b343dce3f98a58b169c19a6953cdd367f1751fc12a42a7a6bd9b925fa804768c83f7361d3c217b31b3a2b680b1fb17810846200009b565b6203a33e620165608801357f0b753be0a01dd08a6b02ee985c7761eb13533088df440374f40a2a4c329b21e07f039caf5cba3ebb3b555fb286bd25761aff2c9192318b4ae0c9399b63599e15c4846200009b565b6203a392620165808801357f038bab626ddb6788ca360eec731a68b5bafc781ca8446be0a71b88fb398ced597f08c761f4af0982582242b84eebc426be2ef07c872c4e136552ef5e68fe10f063846200009b565b6203a3e6620165a08801357f0fc8d36ef769142255358ef65cf35da35970d9a6bce59a979093482c0d6c36a57f24e9e63ca2058589a119120df825ec0c8f366d17c8f76cff824ef3bcdec40ed8846200009b565b6203a43a620165c08801357f17ba118272499948b383d9a46e519bc04d8ccf7e3d92a6ecfcf669e2c4b31c9c7f25dea0c4ec235b2597c2ac06749e614073b3e4e190fea4fff9a844659aae6edb846200009b565b6203a48e620165e08801357f0c0cc0054d6dae09dcf364558b22da050211e53a32a0b05c1184ab8a7be929007f093dbca9b5a147a873f09da772fa3eb2afe25da5fee83d0bff2ef394b9d4bca8846200009b565b6203a4e2620166008801357f2010715f9c596108212bc3bebac8892a96ad2a6654493eec316a3c769ad193e67f06facb6234ddb57695e9e2a6be164e3535992f06982c5592909630f17ea3c2a0846200009b565b6203a536620166208801357f0d181e7dfb7af9a5938989ed0eaca79a42bb6b20f7ad1ab0df68c235976dab0e7f215b75a1d44db3b3b1bb69d1fa1278455c3f3435156feca28e25bc89a14f257d846200009b565b6203a58a620166408801357f159e17cf716bf92a7c1654bd5748f59298c8eb94742feb799f518677b0e677ad7f04fab56da84d7a3e931925df15d239d0dc6ce8b87546fbe9961f1a20bea80d06846200009b565b6203a5de620166608801357f06d2d3f4310c02db82400168eda99b028207b2d166d0f6cfdd6aec6e5eee89fb7f2af972757ea1bf1055f1d0be7d13104c0ee179c8f79bd0bc25e746780da4099d846200009b565b6203a632620166808801357f281100f4d43e4879be1e66762cd79cf9e5911ad7aa867b4ed12e478f428032ca7f066462fc8d501ba22139ed5b6470ed99b40d3bf24a2d86e81f8391341f6f7072846200009b565b6203a686620166a08801357f07b1a0cb86f93cfa01e28c17cac2ea4b88c6e14afb9e38d335594fe7e5d391757f2ef882c78f6e0c43f01b0f87596eee812e2c4b9f44d891c6fec261f02786d676846200009b565b6203a6da620166c08801357f16dbc3495afc0b1ac04e2446fec02cb9f2b2bc4ee128b15df9572601ec60319d7f0e88099d3adc1ce8e6ce750c66e5712e34bb8e2ca4ad9bdeef90f1ccd2d17f69846200009b565b6203a72e620166e08801357f1baba886edd1e3ba95dc2663b7d52c337ad23b16804745f92b08a91b128291ed7f1440344e71ef8ef96b2386516a9ea6a975d720c06a3b0384817ae024caf97e69846200009b565b6203a782620167008801357f019e0239b00a25624594900de2ef6215b99ec974d0405a7f96513105c4ee07317f298908721e05947e4c67b24221f9e45999719a39cb0847affc101d6b75b8096d846200009b565b6203a7d6620167208801357f0407b6ce0c0d938b0d48f302809d3a47dbbd83be13b74572a17f98baecc42dc27f06a74605f0df1d5593afe22eed79876cf48e437a8d2b52fcd127895eebafe851846200009b565b6203a82a620167408801357f1401b56dc1e50fa247ea13b16a629a4cbf60ee9671abd6ff2d1ab825fdac1dc57f2a92fcc91a5a8bc2ad6b3459bc8bcf55ea1d6371addbcd178162633ba121347a846200009b565b6203a87e620167608801357f2cf3c6e7d17ee95eb6af4b4b8440d793294c23b95f0feba8125cd086a97e7ecd7f2a08fad97f35b006e92fc1bf0c2d341a4c7e9d97bbf2389fd757d71da2c16704846200009b565b6203a8d2620167808801357f165da8c0695d7a80c9a88812bd15f962bcecfd1c94d81fdf7d0747860ccfe8497f222d0cc0b1acb1698fb0e5cb2f54eea9bead1b6ef1ef151a474251eec4513994846200009b565b6203a925620167a08801357f012a3a93acd19f8d7af3bec8403dcbef52427f3249c9fef56b4326e6b0064f157e820f2a34d89a57f0ee911d75f880bd4a23090d203a373f84d05f78de551396846200009b565b6203a979620167c08801357f0364b237ef95faa00ded4597c9e52a22a30ff09844b015c03ecf5128f16ca4367f05efc28123b3ce1fb5a12ba3e558da51b8ebbc5fdf3016974edca2b1225448c9846200009b565b6203a9cd620167e08801357f15f133fde3b2b52bdaa58a5e062ae44c90cac70f93b7c9eb5140447ca19850727f24e35e64f69122b016295bff935927172aa27e4d92c08777ba982c0e94d2ecb4846200009b565b6203aa20620168008801357f14d46691aada3e4a681684fe8542e4bebe3ae5585c17e7c02eca252e67d4c9bb7e0e0d9998f94d77dfa7483ac19ab1ae6c02571d6816f01d2953a6f1f8381575846200009b565b6203aa74620168208801357f1b35bcc2588401e0efa08fed885a9818e06f7ce3a6dc15f0c694c364fb0330547f1cdb81983af2ed1ab4b3c7aa03e7d9b1fadc455c401a33a90c75217451a5e337846200009b565b6203aac8620168408801357f0c5c42c060563c63a3f3d967546ce59001e583d3b103bfb3e8948ea675f9b9227f1536cbe02273f56941d1685421b77aac40006b43c399923492446e0a35726291846200009b565b6203ab1c620168608801357f28b4f15be3a0bdb014a99b49340454ab2988bd71690b8a9f88d5e9a9acc71f9c7f19c2431178169ec0f068b94a5c70114d7510b1218a820ed4f8cd9aae8bf3dc35846200009b565b6203ab70620168808801357f12da44f5f09b5ef2c7fc66a81e1b0f931e85d2ef130b044a3375d194202df7387f2ee9b99fba180e10e4a93c712ceec4690a4c3e8dd132f93d64a9e4dbdd8d99fb846200009b565b6203abc4620168a08801357f089f8fe13546d775261895858118cf48bbabd15b796a9c523d5499ab1ea530e47f2a12eb2abeac62cff38727e2acf4ad2137d98e1dffe6554ea26658482199808e846200009b565b6203ac18620168c08801357f0fb186a03b4b78870663df646f5717f419308d2bd556a93e6b3f39df6e8724fc7f185a53bf8595d16c15f91eb339833ca0bd8f749ec07e9ffe5e0f635f635da213846200009b565b6203ac6c620168e08801357f1cea4484f033ebfd9780b18c1adbc04b21d125f1742d2edaeb43eb0dc12a3a657f13e51b23097258f71ee0499d1fbc8b10a7a5be857e7404576e6a6a29a0d2be75846200009b565b6203acc0620169008801357f236a0cbda3e437e631430ed81246c0df13b908be8d8178803f1429c177b228597f2292302b3eb0e09549d45d00a1905527f60f5ab8a65f06b3f8a8bd827331e775846200009b565b6203ad14620169208801357f138ef1d82d7bc5696bc48c005a7deeac3f9eb8196c2b9edffdb11aab3cc661467f0390387e7a717ad8ff809e8d1681175168dcf9c88f229f7c32be7ad5d348f847846200009b565b6203ad68620169408801357f15072fc6cafa593821efed5889c4cbd600bf4368d7be1dec38d401f663700ebc7f1cf552221878ec74de1ccab941c79616856077eeb43cf214e83cb3a5a1923ead846200009b565b6203adbc620169608801357f2c5df08b1199137d87cd7974c1c6b954088c67315417f0650a1b8d55d12fa8567f2f20df3994a19e8a18529d5a155744ffbe829d30fd13ec262f098f6166e6d256846200009b565b6203ae10620169808801357f1fbb1fd858e5265397e4c84aa9ce1b8cb1d6aae82360aa3cb9be80d05b5ccabc7f18327529e8739af37db376ad7c8d217b8e76d4cc0155dfa2c34d243435d3c9bf846200009b565b6203ae64620169a08801357f05791b37446f78a4d1b210082da59c147d8a7c1c110cf777989ae471fc3e3f7c7f1ee9a5ee944cad6e8205a1d47194af46791e6a489918553cc83e670bd56a67c6846200009b565b6203aeb8620169c08801357f2b9537145432a05c891500bf9a75276a938605cecdf26bb35c139ed7e93537047f151bed114101abaaa97639c2cf23ffbfd74fd525ca85b1e64dcbf5e713ba755b846200009b565b6203af0c620169e08801357f23c6513e41c8f34ebe902986c2aba62d93b7266da933839a87c4bd99899c61997f2c75d047a6d154726e9f852b3cebc02f7a2ac55e32150f67a6ac6e2e69091bd8846200009b565b6203af6062016a008801357f07ee9cc4f0391bfb3e5fad868a41bdba4b8e11faf649fb4e48d0fa00f957ece37f0903421bd9cf3cdc9fbe8efe607becf345099a89ef6b1d11ef590e494dc96162846200009b565b6203afb462016a208801357f0cfd0ae14dcb9b14c13ff071928ab6ddef213fbfb7bbba55d748e6dbb9facf187f069f04914ca48a027297c58160de3b2a4ebb53e7f4e522249031ccb11f42e538846200009b565b6203b00862016a408801357f0d83deffef77a2f09048cb2506e40a1afa3329dd0f5d4eff28fb1de38ebb920d7f03927ebb718cae8101fc980866865c245a92f36d62a0807bd8924cf2dbb59512846200009b565b6203b05c62016a608801357f2b17ec0677c55a94f6c88ace75be962cfa7377a42303e1cbc54a750117adecea7f0d711dfd9dfddbd15643f40590540bfd9222e3da1c98af877aa23e51554ab4d0846200009b565b6203b0b062016a808801357f1bbda6a60e78dc0d1cab81faa81c81a4cf8ba6a02b17e7bfcf4063dfe816aa157f1ab0b5ceab89bf16c03463c858589774ffdc3fda684841d5c14aeb54ca8acf12846200009b565b6203b10462016aa08801357f23d4afdad7d7865805ad1cbc4cd49c90e07f188dfd96e28f6c4e50e2b057e36d7f2dd6e7e2e69929ad616bbef00cc9487472a01ed3a8816d5978cc5d1a4d339ea1846200009b565b6203b15862016ac08801357f2304641c39233844d780a9596528d6ea3d66ecc09fe51bd11a7ee3dbe45c24d27f14fe02a6bb3620857ae7073aff66a90189c3490fe7ec4a1040cd3331d8d9c291846200009b565b6203b1ac62016ae08801357f086db310b8f65d6b46f652056b575329a5a96a0539624db633695cab3d90a0617f282650c9fc3f5ee7080e07c7ce1b2b06422c07addc6b1d5e5795b6afe2741821846200009b565b6203b20062016b008801357f092464e43a4ebfa9f38a81af4f27cfc84316d086190118b1a38ca9946e9bfd6a7f09cb7904a9d1e5648edca98512392eb8a01a55bcaf929e7527809e7ee27c2673846200009b565b6203b25462016b208801357f1fd11ce86699882cb1c7997eebef9fc3ca9c95e6213b3c019a264fd4fd6eb4f87f09d7e9b30fe0ce31a3b94b5ee4c5745e7ff7fb2b2d643db9ce5106afbd02d23b846200009b565b6203b2a862016b408801357f05eb38a93fc64750bbd750731f95b27e90f362644708c953ee85a76b1c4ddf0c7f2174b8602a51c67ef19ba627a119f66bf273295d80dc92112904d8c7b6428fa3846200009b565b6203b2fc62016b608801357f2eb1305c96be90600acfb7b68edd31cfb517d02f5dbe9498345b2f1c431f62127f2d6f1fcb50ebb679f37e4115ea640ca2acc51bec4929aa13d1346d0d0efc6bc1846200009b565b6203b35062016b808801357f192a75e47468021de498f774beb9b3121d80fc7155459f79c4eb4bfe5513de9a7f21834f18e41ea082b878e907302808b179010db88942ee6eec60a1e15061e858846200009b565b6203b3a462016ba08801357f13292e0e00582d09c24923be23fd443668d2c39742ae68252e2a24a1f1d604a57f0819add80c7029c2d7303f411d611053d299869c816fd96f78d1e5609fd4609e846200009b565b6203b3f862016bc08801357f17d6e5049ecb5910b92ea68a1c129830e9716318cb4028e7041cd2c0b09a72147f2a729c7a98e5019a4383b2a662a2f7fa91e27b38fc79a8e20ac729d2230d4a80846200009b565b6203b44c62016be08801357f239143f0aba779f8d7c158f7efaad3dbd5ef6a7968f4704fe1a89dad0aba687b7f1f9cb6f948b7dd74db4f3ee36c98d9a882ae4888e5a79dbe7f00535c34d421e2846200009b565b6203b4a062016c008801357f04e43d436943d6148cec55fabe77bd589ba9620cac588b285990933f73a8d55e7f0edb1566633447893e4dd239847624c644c4ab8ef599a825d8885e994c463195846200009b565b6203b4f462016c208801357f2ff06f95e0ee596db36f6362c29d925303f2cf43dc908bd4a9e937b33f36cea57f0de2cb27a2a8659bc6cff2799816f56226e6e0f82d8981ed20f026869c4a7196846200009b565b6203b54862016c408801357f18517a564e2132054006469aea0d0019180811213b706f6f553e6da3020eb6027f2d2fc54768cd82bfa51e4053d6a63f808f937d4c0643bd46a57177a8aad29b3d846200009b565b6203b59c62016c608801357f2bc5ea3434e00c4138fc85c33d38dd61fb966c35c12997ba6b93aa54fe0613cf7f0d90230e5246d49d9fb1ffa75ad848f4862cf0335a1205330b7bf499ffe414ca846200009b565b6203b5f062016c808801357f1a38c176668dc38e6458c0509553f6f4a4af8fcf8c0d9a27e8488e459b1bb9597f05852d13ad6095bd0f33e559ba300e7243a90a30e10903d8271bda5d7b9d12a1846200009b565b6203b64462016ca08801357f1149deeab825485fde51f121eb0cd35bb3ad80f3931c32fdfe3de9067213faa47f1627090b3a161480b4b6017e7c128a0d3e3d79e2e34a9a920625e047887245a9846200009b565b6203b69862016cc08801357f0ce989dc1e582855f73681ee95359197dc84bf595ae6c1c6d4b80796662356ad7f0c967e7de6c510a3dd5910b51c00ef0efc1ee997686e25f3fa9e11e10476dad3846200009b565b6203b6ec62016ce08801357f2ab33831c12508c052a132cc9d0467a6265cd92b192879f3c5391e00228c82d47f240537d770760897425f73a3ac66f9bd31a99f12c0e468b9aa5171ef5d99d09d846200009b565b6203b74062016d008801357f1bfd5937eac5ceab485ebfbe339860509a1d4cf30c3dcec941d77bc97d82652c7f1fa1b9536181dd9e7523f9c6e65e65212e5a8610118a2ed4c7a0d16742d8b13e846200009b565b6203b79462016d208801357f1fac157a8db6ff454ed1b2e63ca547d4373c5f726dc527538a7094cabff1cc407f17652845259ff51c401896282e459da118034d7092602ab5df3b59914804d3c8846200009b565b6203b7e862016d408801357f094ee5754317edb2eb33e8fcc7cce2e20b16a1a9993a6ba189d6e604cb261e907f24e3c604345f6e8d39efe86851e36e153a7889241833c0708018ce7966ff2459846200009b565b6203b83c62016d608801357f147d41ce919d8b2a077b61c5411817f734ef8278fabd58d47aae3531d50416707f13ecb10c4b371fd9c07d678bd6fedc52c759cf2920af13693bb1150afe7320ab846200009b565b6203b89062016d808801357f02f0bcf3080801e6cb7b6c97838416402b2e0e76cb6365067547754b50c2fb457f1b60503a400ef8c19082bc03073752e26b029931c774547fe928df80dcd2aaf5846200009b565b6203b8e462016da08801357f1cd249abb6e0db72fb8edd6d3ed0d8b0e368597a6e316f4ee95d8d0bf3453b857f1df44f70ca0d22fef0d48dd4792a6ff8433d9a130b2d3fc342337c13dec9a28d846200009b565b6203b93862016dc08801357f1e1fa92c83d4db8c3e5b1de99f19031d7e68b93ac66121808af1c8865cda9b2a7f25b4d31cfd79d3b7b4bfaf6c4e0ba80827577cb78d0004d41ea99f5f51e7383d846200009b565b6203b98c62016de08801357f02f7abcd32c43791970428b3d95879e3ae5f8eeec95d4343452fa752f869cd137f2eb0154b274d5cad06d875f2b6a785748ebafdf16859d99530a6aaecaa5e16d5846200009b565b6203b9e062016e008801357f07570a4fa636551fa22f3ae3a3c81f1163c9e93360a854158b3bc608c5e657fa7f2823ec9bcc3251d5318128738a624abafe77f1d4af3635a36ccabc7d2816b9c3846200009b565b6203ba3462016e208801357f2ba3006e432bf270ba2e00f8489935dca886839b2233b7b90fe335c67726716b7f2cdc16a6931093d50f1426d5fcb90ccfcbc5cb615838243b088d84109d58452e846200009b565b6203ba8862016e408801357f11a5b7fd9afe71bd26b653c277beb7cdad6f6c6fdcd8a5bd4db21b231008384f7f1cf096be6afa475e04ec6ef75c0e7fab711058ff5c1a4a2ca2aca8ddf58899f4846200009b565b6203badc62016e608801357f226022bc0d11f5c7e168cfdb59abf12c39aa88d21ab44d8e8f3ea275ea3158217f05b72f539399519a4a94e5d1a0399028228d92ab8c730dfbc474f5549c5d06a9846200009b565b6203bb3062016e808801357f2cbf4bc60ed06d88b32a1249ebb9d83d8532e05eecc4359c9d74e94dd7751fd27f2f22b0821eef1d73999910fcf4679ccbbe253334be00ce89ac11be51032acb72846200009b565b6203bb8462016ea08801357f03acd97f89c69b0460a5d7294b93bcfa80ef62e14a2404e18f3a5ccd90f241ed7f209141bd961d282b4d0980b45c46af4e22ada349887870e58087ecb9d612d3b1846200009b565b6203bbd862016ec08801357f2a9275312c26e2e39765817945fe36ff18b237aa4e7d436c4723ac686a97aaab7f288d989889e23a715b3f716473334eaaab0d081f33f641aef58493feec8c7d01846200009b565b6203bc2c62016ee08801357f20da9efdc1c6f00ea7f762e12635309d204894911ac8ad2ee488c41487f5a6287f251bda4a9cfd02ec08cc4cb90bb92520eff88d3915ea4f2c529c69672892edbe846200009b565b6203bc8062016f008801357f14b0e22439ca2dc02bb0032fbf14acc74e582550a1bea63056bbc12440810a657f01cd3fb8072f600a4e18138a16b072560b0470992b6d1ba58eea67eb6e890eb8846200009b565b6203bcd462016f208801357f06fd5bc27983949c1b329b30a0a113d2cd6cc1d5dcf7b51681f17fc300cb7dff7f29bf22fb6e8cad09e63662a2eb0be7df800fdd8523e79bedd70d3764dd844b07846200009b565b6203bd2862016f408801357f266868a66613789d50f4ca32654d296e7e227e7f164119299f23973cb68c5a2b7f01944650ddb341b712a96f8bd5d0d6959ddd56be0afcbbff656b0b044ce67c90846200009b565b6203bd7c62016f608801357f0f78485f363fa95e9fb35909bb4a07d907cd0cf0099868ce93090e5f864bdff27f1be94394b57dc67aca8510e4aa7f2f89a51649de1606d3922cda367d7b124ff5846200009b565b6203bdd062016f808801357f295a3cf1a2ffb48e7e86d6fcc1dbfadcc3a4328bd96917782eb1a18ff1d5a1ec7f23f89b9eb0b035cb1538c1883aa570056d85da9879ed84b197aa349788be31f3846200009b565b6203be2462016fa08801357f11865380351be50aafe0b354f35af312744251600a9e573c0a59d4229965c7367f1028f93e76bd7450c02e97bcbc74d87f718d7a3f93fd19a6b1ec8e77c73cf0e7846200009b565b6203be7862016fc08801357f2109d9935489ca3de8823c84d0e6c64bf5010ebe63ae8a3d2b4975343e39b9737f2d72207d33ced33b737e670daf79e079eb09fac09279cfe15f29686115496886846200009b565b6203becc62016fe08801357f2629fff64a0d9f16021b0218e5d50c8d39a50d29caa3bc5c39b307364afa40287f07b3587adbc64b210d8efcc286d1313a883c8ce0e6649e3d3c0c851d1de5a2f8846200009b565b6203bf20620170008801357f21566fe0c4d75e546c2866170bc306bd52074bf07877a2d83b4b2cfb8d1492217f183a7ec0c130832848ee668fd6af472ed4891492e87fc508a565c51ffe30a282846200009b565b6203bf74620170208801357f2b7b14b2fe6b83e710d722b59aa8bc0fa78f4b1d32a3a4ee6c5e7c061856819a7f2054c594565c3d0cababc140e9628e0c866d42c01d77e18ab4b1e3df47074c49846200009b565b6203bfc8620170408801357f2e7f6c00433fd329cd44ee0d0ef1e44877b090286ccc90d8de505640015e565a7f2ec521b1c836565c82d0e73cb131ba40a2f07ce4b97591841448e5e64126eee1846200009b565b6203c01c620170608801357f17dbfe69534f53be3a90aa177e824fb08f6a82287156a92ef7ee47ad67fe6ee17f076178d2d9dde0d5387d2a8f44ca64ad19f57a7abc3187f337e7a004b0cad993846200009b565b6203c070620170808801357f253bd977fcb60695f38c54513700d62e0ce48db1e8ece388cfc1d3753d0b95f67f08dc2d8dfd5bbd79e212bc74316cb244c60c3ad89ef13ee3633b6dd81530b298846200009b565b6203c0c4620170a08801357f2e038e6da4f35c76be9957c4282d5fa70f58e61465fdbe79b770069dd5647c167f28757821b32d3b6e01059b7e5673e6b96cf6de3f2cf49cdd85544524bb912464846200009b565b6203c118620170c08801357f11bcc9c837f8e75d0e4aea27c9a45163736d5eebf9310b99b69f146272d3b56f7f17d5dffe109f9636b0bacf0b59a0b1732a127bce30bad555bccdb2a6a7d70bc3846200009b565b6203c16c620170e08801357f12aebb7cf53d773fe97c9fa2fb04c8020179987073803448a5fa90f7b6788db27f1761a95b31134ffa771a30a975553b06fe896dd1c068144754320c603479b7c8846200009b565b6203c1c0620171008801357f2d815a8102f6c9a2c8d53924481d75578e0fb844a63441a59e2029fa04d9506a7f155924b17d0da9eb297b463148985ae25e3d701b95d9eaac63289ed4db5408d6846200009b565b6203c214620171208801357f25d26605c680c0d8ac791e0c8c2719253fb829b4e43c476af4759d397c70f40e7f14bf13bd77a101997a55e635cb9e6c5c3a37ad18152a13a77bd99784228c54fc846200009b565b6203c268620171408801357f03531627ae8f5acf4fd9e104195f4eee0acd8e4840efcf21a4929d9b9b17d1947f20c769bcf36a13e9eb8816dc25bc88b915ecf86406abe08fef18afb5280776a2846200009b565b6203c2bc620171608801357f01c42f7c333349adb715ab91371160a2b389050284d2ccefb6a9a6826ef62f617f0ed153470db72cd217566b01e4948194c197f542bf2ea081eb7480bd9aca0fc5846200009b565b6203c310620171808801357f30398994341d5a6c9f135d405259faefbf20967d186bd15e5bc66c498e9d863f7f0ded7d26bceaf204ec3fddab9dbd43a0631d0d915fe97008cf0dfaf7a5408e49846200009b565b6203c364620171a08801357f1d3c29b76220b51043fc29664b70586d6e79c8f4db022408774162db047345537f10aeb3a13092fdbf72d4920a5ab56ba3731c88951385d586cc7164c0d8b75cc9846200009b565b6203c3b8620171c08801357f2788017245ad9a837f67df609158d75e35212927e765ea73112481fc2a3fc8497f273ab8aa4b2ccbef46011440ee6541beb0cf494e7cda2c0b739f61e7267659aa846200009b565b6203c40c620171e08801357f201b787071425aae4518159e15f54556917fcb2c6c06a8bbc22d4b41ab4426667f252c6dc82db99e25d9a181b66a71c2e35fc32eeb2fc188ed41ba0402717f5cc1846200009b565b6203c460620172008801357f25a14921f6ca3d551f9e45d4ca0af9f617cb359fe6121d03fa09b34c106157307f145be47fd8671a159eacf7df593ff96e86b19696b5738f6fc9e969e860a5449a846200009b565b6203c4b4620172208801357f0c283242bfb7a2af7b9d830e5662ed92954d72c2a97c5af550169204bfc7449a7f101c912e3739273466a4c8662414e931c9ca599213f67ce3f53fa71b164c3ca3846200009b565b6203c508620172408801357f116f336f8b48aad63810505b3681b1981fb47d0be057bb1e142e2945556c77fd7f12e8c61878e91f9757ce8ac1aabe20c60286d788675e711c61db24521c604004846200009b565b6203c55c620172608801357f2ce30552b4c4ecab6b1bc2fdd749828956fc0c82318bd865328c3ce1cd4426c37f14515b72aadf48208a3640c64d4caaf457c8f796fb2cd814732c916133b80693846200009b565b6203c5b0620172808801357f2d3564fae1f2ad73b71d3f12726557fe82096420e12cdba26357f0a66c6697477f01736fc0ab3bca7f1aab5a69db8a86ac07e334c075cb1cc57b5fc08b85ea3cf6846200009b565b6203c604620172a08801357f17f959b3e8147b87854bc6fdb0fed6c271b227fb43ebe6fe89046405d238a0737f215fb1284654eecafb1382d4f7b24629cbb042510c586dd2c0df0a483bbc714d846200009b565b6203c658620172c08801357f16886480fb63b756f07af56c36e029a7537846cf40a8d5d8404ebf1a0ab803d07f16507e2907412ee3310cbd6086581bed7c46d793302f0e9fb9227c96a0d5b1d4846200009b565b6203c6ac620172e08801357f1cc457a2ec60b0beb2b08e66f471d9504b3a504593e739285d485e2ddc38eb107f1b124f8e0a111d9b19aed514a4a54224e5a7fb81132ff630dbe8b9b0e11747cb846200009b565b6203c700620173008801357f07fbfa7c3d8129a26de7d97f47bf204e5850400cc882aec7ab276f37227f3a1e7f0f7382a3d52ae539358956f2360f57c24a40a5303567bbd99358c04f82bdc6dc846200009b565b6203c754620173208801357f25ddaf689f3833479fd4fdd69aba566e78fa50f88b60a81c4b5857cbdf9feade7f07dba2d934712f9dda599090bea2910b642cf09025138b575ce68aca33f94c3b846200009b565b6203c7a7620173408801357f097ff1bef09345238b66f494c5eeba2915268bfc024bbb3ede72a6cd6c21a9967e867505c05a9a07f60b25a507918d158557202e169b4fa2abf01c24320fa9c7846200009b565b6203c7fb620173608801357f043843368e90dba14454ff5474a1f34608ad3373afa9aad5e45e315838bdf4b97f24c6374088601fc9eb658117fc4fd5cdc451ea57c0491737561547ebac894883846200009b565b6203c84f620173808801357f260513adab4dda18157cd1a056477356b9eddd43d0e28a4ce81134c0f355a7c17f21a04b288e980f429e9705074bc6542f4f026c015592314701e15231dd5e3b1d846200009b565b6203c8a3620173a08801357f143447cbbf357171415cc1c8baf0eeb5a8c20cf865fa8dc3b166033fb60213187f1bef67504d5d7509ca006ee042c54a7c79b23af485a26bc45fc341a6ec1f6aa8846200009b565b6203c8f7620173c08801357f1f42c114537bcc0f3890f552f8671a1b22507a771324e36585ed1d1c89a6141a7f2464a6dc1b67c6ddc890f9a1f28fd8a7331f62564a052810c5a0598d5661d865846200009b565b6203c94b620173e08801357f0a119bf7023172e53268c52e060580469789ba166fe91ebdb3f4c3d0ef158a2e7f124a40d671de4565f4b0336871adc41a5708dc891fd12fca5e921936ee836601846200009b565b6203c99f620174008801357f1806123482d98e3dde12f7464362e5e164751c6358530139c197b3da8737d3677f0ede1591b6a94a923e1c744e035156cc3fdf80056595562a61bf201399df39d1846200009b565b6203c9f3620174208801357f2bd6df342a7c88a7af781a8e560c0010061b72cc7b35cd56ae9bafd565d0b9427f1c948ff9e0f01e1e00e273863b2d413b304c2f233555ba591f4a14e44b23eec2846200009b565b6203ca47620174408801357f154adfddb350b34b8d69cc66f4bd70112be5cce14347252ac0f353c971d792ad7f2c9877c46bc81bd7eaaee38579a01187be9e4111a92e0a16f0e35a86f8d09be3846200009b565b6203ca9b620174608801357f050af7f97ca75fcb1dbab221b906cfbf3a660f9b7164862b393ab2684a9770977f301f3584dc28bc659d91fc14a552d3fa76b4badc9ce43eb23b6a2ba0b1355f7f846200009b565b6203caef620174808801357f0538876bc9da43205fa03ccae62a28eac0de7255448276882736dd6ea3cafbfc7f1794fb55305d24b86174061d952bb488e2ccdea0d7cecc7e4f0946395d884da0846200009b565b6203cb42620174a08801357f11244cbfcf71f1b2fa49b842089682ba8854940ef257a2a5655bf3869f55dc707ec774d95f1aa3f2d92063b77c756aeaff9ea222a1676693806ce637835803b0846200009b565b6203cb96620174c08801357f2a0037b0d484b62f9d32babd0c967244196f102ddf1ce19d1a674d4bd4aa08ea7f2836b72285dab78a20501048cb05372426cdcfe9b413879b830717fbaf4efb94846200009b565b6203cbea620174e08801357f0c349a539fc4da115669cb049f1d6319d8eb14eeaf707c8a0e5786b78357e0927f28d87d41c1ff175d4e414259931310a099b594b7b36a4bd7a436dfb9b0b27c6a846200009b565b6203cc3e620175008801357f02f86689ed9fc60b3dde4ca84def87c46bf9a092e48f23ff9e11342883d8b1f57f15800eeb13570acd5fe5027d4f5f7cdcf47d27d35df6cf7c4061c82f36137629846200009b565b6203cc92620175208801357f1ea50aa30d8fe1c2622faf758d8a97a52ff937c8bdcbaa764167913bdfdbbad17f17ad1e8a21305140abde3425eda5d9a7cfb254761af5824d439df15065473e1c846200009b565b6203cce6620175408801357f1df695e765811a2ededa6088276125a85e1e80200ce07113ef5e7345f0ab9ec67f199aaec1ce133fe584b2bcf4fb53090043e82097fb37fdb91c647b83bed601db846200009b565b6203cd3a620175608801357f1e5a66c35ae0a991e576998a0b58e7f2c6269fa3c61d810dd1600ce471aa32147f237a83d1a44ca075782850f9654c4200fac07bd445c985921a3188dc13045c36846200009b565b6203cd8e620175808801357f045ef04a3c1a3ff0684693f1d8c11e9ed025871ebb1a44eec6ebdc911c4757157f0a86485dce34554acd18cb09a4546367789b3e2bc5091f3d31579f3dfc3e527f846200009b565b6203cde2620175a08801357f017a791cf87382b122ef9a46a3110941e16efa969f02dd66e5921448beee30bb7f25508c7090b17670535b0a6546033ef728b96a8eb8f75af4124a9408b70d6380846200009b565b6203ce36620175c08801357f2b96c92fb8e34c312796d3097100c4e16c3e95a8bd2d2f92dffdeb2af4ebcd2f7f04739f417212f36224c98d916434dff75802b81682f11634d3d39851a7ca5d50846200009b565b6203ce8a620175e08801357f16fef6ee478643203a564527cca7a4e311edc03a2638268c966a77acaeeafbe87f22d246c7d2c90749753b8013cbd27893ce3ef77196ab86aded3cadf65da165d0846200009b565b6203cedd620176008801357f1c1afcf98bd3063579960960c643e5101f052b5d290afb2411a675e88d5cc4517e0cf2c26489e871f7d56bb7a95b1ef4c0f5f082e2eff2a8fe32b660999796d3846200009b565b6203cf31620176208801357f1f09671071612d2ddd4aa976d3298616e5863bb1d0398c936c394b56ec7be3847f221f780245d6fb81e777442611dfb873c89511bd66457ba3a8b172d5ed447133846200009b565b6203cf85620176408801357f03e0af1f5c1997281114033cd0114e63ecf60a717703ef4a53777cf270e79d757f1c28f2ad6423a59632931acd03599c5623150fbfa5b43e5ef13efe6c2680f883846200009b565b6203cfd9620176608801357f1c34eea698cf4176b6cb63bf74ff54cbd486dc67dc28c95fad4f1e4d451439eb7f1befd9ea844d30000d0f3f8d3f6e8e12f0e4543d52bc42a20715e64803381d78846200009b565b6203d02d620176808801357f1d7fb8417afe4e453c1b475b372e3f6f4b21dad2bb58f9362c88a136e0242d827f24644e92172747b2d361c2e28588e4362c10c4d8be104db8c07fda7be3c6d7c3846200009b565b6203d081620176a08801357f199e08fd82d2d67d9fa999edd77b9dc8b31eddc639d2fc37f1b39e727a1e819e7f24bd6c49b5ab118f2091fa6021a9c5cddafe88c93305a269ab26d25d1b412ca7846200009b565b6203d0d5620176c08801357f1498a32c0677835f9e49532b6af8799b1020c2c498ebd1179e848e9ee219b4c27f2cf2ddf4a41d3621ef0fc9e2482a8118a243f9df1790cb3e5229a2740d747af8846200009b565b6203d129620176e08801357f07607db6cc39db722e1d45e608c1bb124d44b0f2180c703b9ce808bacfff57cd7f158a4d8d5897f13b8468715687f762e1a7300bc50460e9fbdbe01a0066f976a4846200009b565b6203d17d620177008801357f24ed8f06ff70e4fc628d536d135c73e689bbfa18375292203de654ee808b2c447f2b32ab265a554455cf0622dff7a391898be308d5a50695929807a1bcca3ac7d4846200009b565b6203d1d1620177208801357f1c67c79f652ae68bc5d3fe2a74edb181d63af65200a5f091d1249032726718df7f2019ea5691c8282db226424c17789152ae066391adc1f82acdf36119670e6d06846200009b565b6203d225620177408801357f13a66ed44bd8d3125dfe1b76fde85a3733e44ca0bb3e844af83d0e5e056ce58b7f10ee3527a1044e50ef63ecb35a00ec134e5a3858b727a09f142ee3e180698d59846200009b565b6203d279620177608801357f270e7b79158b016630c78e787c592f96993f94624cead00502161de820b4d5b57f2abf4f7d6d607ca2d53aeac59f8662c3ed92b305f34b52e6d9c2e78f9bd5b985846200009b565b6203d2cd620177808801357f1657611a2d44076d8722e06d75e141586425af733e078cc93395526b242ab21d7f3040760353c4d9eda1ff6b0588cc98f5ce67d89ed59ab0ef1d09c48f6f725933846200009b565b6203d321620177a08801357f1be1310400d3eaf456e2482f7d794eb7a9cdf349b901b39e08dbeb3a319f89087f2f0c7875b84b2f09567c85fb930da4a1dab57d36d8a9132e528b13f296fe1d8b846200009b565b6203d375620177c08801357f0e6ea0e51e50cde1b3bd8bde25b08d48018c4627879cc8021b4e8c2a375567507f191e5210d2bab4e4849dd243d9d24baf43f91cc959e64af1d6ae27c25335cb67846200009b565b6203d3c9620177e08801357f13a711c030fbee73f7ada6780cc46894c72bf5605d9de884d3d0797bf30a13517f0bfabf04ea03df1aabd2886912d7b98991b25fa17855de9af3082c077a61ff52846200009b565b6203d41d620178008801357f2ae58188272a758d958f2feba668e73f5d34bc2b4195f0fe96605e6ea24f82ae7f20a8764dc06e5e44ca585d05494bcd1581c13284f9d3023429c709d9d2d136db846200009b565b6203d471620178208801357f2f4b81cb4d569d9863fd469b73efa8c004c639e381ec2bf63a6f2987e54659b07f07f1d44340a27be8d09087c03391c7fd3202e3a07664dc4058d9ee1554e9c4f9846200009b565b6203d4c5620178408801357f10465c233ff5a73ef35eddb1ac5b0bb5ca3dd5636c02951d410418e232147b3d7f2da3c75a182642335190216643621045f82dc043917ada2d09673cec2a3dc10d846200009b565b6203d519620178608801357f0c2f4df9a8bd5eabf084e85c6b6d74e7e07914fbcc01fa79112da103265452b87f05f3b5d86d996869c03c91bec3a0d7d23bad5772ccfec93b951b92da4483f5fe846200009b565b6203d56d620178808801357f21b49a1dece041625c0163b9d90e5793d35cade4a65bc95e05fad58041954c3d7f0177a1ee1a3eb369b29cd6676ce759e1a8a59d9b0581657ebdc001b6ef65fa6e846200009b565b6203d5c1620178a08801357f236a2be35b762055e1c135eafe84bf12151beab4557b57b578e97bfdd611de737f0ca4c215b9cd433415ff13f715ddb5215435fa1106349f66088547f99d41a343846200009b565b6203d615620178c08801357f217d42e66b92a49906d9aba5efe1d6af3537536d4874dd6568d1f62cfd3542b07f1eceaf341d2817bd8723bff85e392f92224d6d6ce73cb97d48f087de41de198e846200009b565b6203d669620178e08801357f2be77bc399852cbbc6a9f547d178882802e203a7d5e1b00e50549c631f27e78a7f1700d78299b7373153ff8bd6ec9931393742e3516048523bb0936faea1efe36d846200009b565b6203d6bd620179008801357f136b0ec66e7355e0181e914b40623039fed165c4c4f4497e458ee4c8277bfb157f2d7dbe98c192f9af717d7293dc733009cebc74f1016b98d85efe22531ef619f6846200009b565b6203d711620179208801357f214fc878870f638373ff7d645e369cfd795182c8ff8b6b15315759a5aca9be697f28b24d5e3b364e29c613f8a92fc724c7e24c53b0691cf85fcf447829ed03d1c7846200009b565b6203d765620179408801357f1afe06e3d100012abb573ba98be8cbb10a1dad6740537f592eab37d2636017477f2bc1d8c3c70a156d8e126b099c0b67d6f4e244eeb2b3a22ab2ed86413e85d6fc846200009b565b6203d7b9620179608801357f210a2847630752461b2192947ce28c7644f29cc90c16e853c392c121b9e8e3697f01d5e38ba7a45005e5a0743c9becf26ae5189aa502a9336c0b7abe606270269d846200009b565b6203d80d620179808801357f2062ab7485f773e6b76eed531ebea5d86d0b5de4c023ac7591179aed5237baed7f1dc43fbe8998a5a7eae1037aa91de9ed9e063612ab010004eaf1904a0062f572846200009b565b6203d861620179a08801357f1b36cd7d99c76471400f044259d6ddeb56e03cd67eec53a9bfec21b0f936bec87f1f19eeb67c9855eee393061e3aed732cfd09244d984678e34201b4cd0cfb275e846200009b565b6203d8b5620179c08801357f2f28b282671079edc9244d3a948a1b825e346aba17ea08b9f57e4df5ca3865c57f1075d3a33fd769992d784d22d0ccf222e13fa2dca0a2bae36da2e650243bcd57846200009b565b6203d909620179e08801357f2927c058f328ae5beb905094f8e2060184585ebd9a056da98731dd259f85698a7f1e577256a8a429edbcf274a5424a601cf0303506576b4c467059b92f228da98f846200009b565b6203d95d62017a008801357f28607f748c2c4624157723e7c207818209506b570f907994b91c30d62791e3567f03e8232b9abc434fae2e9767693ff625b3da9f202412345f38d1db45ee82807d846200009b565b6203d9b162017a208801357f217c8e32bcdbd3a17162c2e895b80d49c7c0d561e7f83a92dc28b787d038b1d67f2410f82d7e954f1baa5a138b914a2213cf7caf87003169b7c436a81973fb1dae846200009b565b6203da0562017a408801357f2bcaef179630e9756a89a89fba8d5e269e236702be675dae9dfc7633c4b9ff387f02c2d9e298ef6babbc6147594439a7154a46fc283dc427bed3139e7f65aaaaed846200009b565b6203da5962017a608801357f2f062d0d92783c1fd9004b8fd3447552ab991a08162df67846097c40d5cd813b7f034ce09b5e2b0eb19fd54f6074ed800040c66f7bda718f556e3bfccb71a76acf846200009b565b6203daad62017a808801357f06970d598157d4d07d0e87e9cb9c489de23fe010bdeafa0c5a2fcbad3bb17be77f03caddea2e9c5ec41e8af521cfeb9ff6cb915c29d46abe544eee47a37d010384846200009b565b6203db0162017aa08801357f0f971f2eefe8931d56692fda7f1de2bc01f5c1d0f8c548856d8a6a3905ed370d7f0a0ed0eb1d50ed9b0231ece88a3054d1b0323d8a904173a980795a43cd713adf846200009b565b6203db5562017ac08801357f26fa00f1422aa08b7381c9f03a55c1114005af6ad20b62f6f509509be922e3e77f221c815eeff10cfa04c881bb34eb3e0eb2376896db2954470497ef291c97bfd2846200009b565b6203dba962017ae08801357f09fa8365d84e545faf88001772c71086e2d08f26a6e475a31dde44a9d9ca91187f2f47d5c141ed5a85c92de6f8fce1e31dcced1eba3607cf861d320c9caf6f2f38846200009b565b6203dbfd62017b008801357f279d89d7460d2b6fe09c702401f61c75f6ed5abb5a29f99dc8af3b40ec130dc47f113bca97bbf356edc8b5fa32ab98b205bf0f72693931714fa50158c03520ce64846200009b565b6203dc5162017b208801357f0bb4bc94ba5ee6feb0a7ba0007dc7d27057b16a4833994fef808f0152df80bb17f24a967795a89c8097c71d60f46c70f615ba2e6248161f42f6d9cecebfcf5df9a846200009b565b6203dca562017b408801357f0f4617be42517f6276ec438dedcc93d0d2691526d5beab5e40d6da2bc595771e7f0d880cb56f2bfcf43dc78e65a82f716b8c074bca9ad04e4a987fcc68e1d2a483846200009b565b6203dcf962017b608801357f12c7c50fed1c65884e8f56f644f536fb8c2686cc884e516960c8cd6625fa00bc7f0f07efdc27195185efeb92c452740aacc6612b22f565675448bad8d1ba8e4312846200009b565b6203dd4d62017b808801357f250a288016acda700ce25fc6dad3d2e62634c94a3cc122c840b58ef0651e52497f22d9b3718d163428266933deec76462c007dbe2e5f07bb8b7e8a94e4e2f0b4b8846200009b565b6203dda162017ba08801357f1a9e2bba958582196128d5d473faf405d005eef86e4052d60486a65aa9ae01f57f0a8de0f824b7d45afe1f26c43f7e9e691777e85216d1cb6cd62109d38eb5fc57846200009b565b6203ddf562017bc08801357f2742943997940b342eed642ef5c4ce22ea828c49bfe6c55795eabf8693a829487f144b321ca89712409e42211827e05d0c15c57e095ad4a59948a7e58cb922b155846200009b565b6203de4962017be08801357f2d5a481a45adf5c0f519b339a52e06a719be178b35e2ea833d37907beaff700e7f011860226887c42bc0ea4d831848868243681ebdf976fe7e479dd82cfea5987e846200009b565b6203de9d62017c008801357f18515dbfaeb626f76d98c1f6a65ba0b968d8ddce40b15ff931974495fa840cde7f08e610910699e7823f305597e94baccec942dba099a18d46eb3c48838d0652de846200009b565b6203def162017c208801357f26aab3409ffeac0d3e1c6dcd06a6cb8fb69d5063e97ef9e9f29d6d34f37f94e67f1f62be891f9580179f031e68c769e6dd3d44b856df6c31a434fa05ba60131839846200009b565b6203df4562017c408801357f0e6b747c5656765a066ecdf66d7bb5c2cd49c75b24394c2d58629503feafdf9a7f1ad8d7f3d430892a63b80cb884f448fa3bc235da5d9fd88aaa6c2b705ea5eeb3846200009b565b6203df9962017c608801357f263961be16f129b8c7440e2e3c7ce1f799126865839ac31b737fe693ebeee39e7f1d48fcedaadea7c8cd4c6ab602d4c12dbc0695ce86df24d7f16f8e3ed4519a97846200009b565b6203dfed62017c808801357f1e0d8297be297ab5c6e8d0ca63c48f088851f32eda2b277531039c8562aff6017f08e2927adb8a78bd4a83ce8f71f3a58b04f8d978c2aa0700e4432f5fad20662a846200009b565b6203e04162017ca08801357f0a194ac9c443b586ccdd63a0484dc2e7fecb9f439ff6069ffa8d524de67c4c367f1206e521608539a0f617a87a02cbfeb1057d65efdbcd3c0f4820b4f90141fab2846200009b565b6203e09562017cc08801357f09ae886638d79b9239f9862486c0e2cb8561d6a51a1f2994cadff2aeafed46e07f0264fc3dbda6e5512ca0fb8244ea6cee169f4fcc9f0d36a015e156b483238984846200009b565b6203e0e962017ce08801357f2586031914eab4c104838561c141bb77d5dda4f438e6f5755e685508c0e5d2037f27272b8ba5c48eabe1e5706c070e5cfb4a9679de07c1a9f5ecd1ecd6420c7958846200009b565b6203e13d62017d008801357f1ba312b3e3b99052b9b998b29783b807455a7f403c15236ab9e85c6dfe42693b7f212d8c3037775915696dc3bc906c3269851d640d1d620fcfa1e92d98dce32d94846200009b565b6203e19162017d208801357f149bd50c1b035f6c3896aade31be1f516c4a1842f2441298d72b3a8df22177ce7f24e05bcda2451dcfbfb17d8682c6050fc831fb43318f29e00e99908a07e66b0d846200009b565b6203e1e562017d408801357f1e2ca5e1910a81dc54eab304640d12b3c8746c7f80077c6ffd358e931689a8687f29f1ca7c638f8e1194ce03561f6e0e72eca177e045bbabe41fff54e19041fb26846200009b565b6203e23962017d608801357f04d29f1055e299292a6e338ae02a06ae76e55a5f9df0453b0d715a2d053c38f07f2af2439bff6a32350103cbdf1e229ac824ca013b43fb1239985e3ee856142b26846200009b565b6203e28d62017d808801357f103e3afbe91faa5c285e7b16f5dc72c449c584b5eba6df1447697b06ddc4c15f7f154d6de5bd83cd3a866d744f584635be2c8e33c019a4ed175ed11ae48f6c1694846200009b565b6203e2e162017da08801357f238347c81e14619b82c4479123930a5fc5e3adbbda6e5d90f5330d4105e25cfd7f2307ec51d6d9e65485c1bf4aa4a86d05e5722246ea55497d104209eafab74cf3846200009b565b6203e33562017dc08801357f1ab1340a222afc43a9fe7bebc992a081b00ee4cfc85c434bfb8d033549bf08c17f1898a00ddbc910183f93f496cd951f7ab717512cb5e4c717a465050e209efef8846200009b565b6203e38962017de08801357f194882f6441a31a8b32cd16e3158b13cde4a2994cca24d27c18ea6d35b7793f67f1b1c81aa3e4f4af7da0e25155ce8ec78a1bdbb5b0d1f5d1c351b48def17120b3846200009b565b6203e3dd62017e008801357f1b47e30bd3ca1d7a6bfa07027af8ec2baa8a53d12ab7eb0eae578822544d1c5d7f033bd75ffea68b68e07b9db54803ef890b1d4ffc8bd2034295007fd6724ae11c846200009b565b6203e43062017e208801357eca982b2f8f04604d8fda390fc0245384fe306409c2bbff83803c93fe05e3047f099a4def987211e673043965287bda0ece98da65527734f8e90989ec40acaeb9846200009b565b6203e48462017e408801357f16eda4f0cd795a0484c009288d4184cd0d8c047c923d5de1e7e77b828a21f3557f02ee47b2f07454c6bf8bd072271d041ac942227ebfd9526c56ab04e1f70f355e846200009b565b6203e4d862017e608801357f224dfbc1d92708389b04ff9120dd8f11ff649dabbae60d55649a072612109f3f7f19b888ace8aff84d5b7ef44d2452cf788a2cb869b91436a00e6d6dbc30d5d470846200009b565b6203e52c62017e808801357f0556287e5db8a9a39720eee244a2fef53226624ba39abbb933def769c5ba005e7f19e930c82145622048dabe410814aad8f573b405a0c8a1b857b599eddd9d620c846200009b565b6203e58062017ea08801357f251c47a78e502deb5228c2d944d1374e073735d9a43fd083ecedd3665c3375517f10c0c2b978c030500a50822e67e5395827eac63e71d639bdeba01635232b1cb0846200009b565b6203e5d462017ec08801357f2c49bf794a4fd3ea1b9be07ed67fabfe31d3adb5b8a1ff7b5370bdca94c37d3e7f304a331b8c8bb01ab9de024de93a2f1955dcbe771ec0dac117785e8be6f0fbdc846200009b565b6203e62862017ee08801357f2ec4a5a2b73810232842db0a7b2c7fed5ec8db88829a3bdfc359ecdad17a12b37f2ed9db15f6265654d655399d0c9395826c2281bfc9454cdad20f9e53df4c826c846200009b565b6203e67c62017f008801357f27d019d9081f330962138f800038af66aaf49042e93ebfe1fdd279d38237c4d17f137da48c1579f8d7f4db6930eaf0a9506c8029184cb85afbb9b91f2034a46209846200009b565b6203e6d062017f208801357f1b1e09a57d460cb09f2b76f99f5299744986cf9b48fc73434ec841438989ef4b7f159ec9b9aebd02e04c7d5fede20923d06fa1d6098bf56537a2297b8ff2589784846200009b565b6203e72462017f408801357f2347ede58a3586a77e7abb0375636115e351c2d43df09c324a5db5da9d0867f07f19024dc9c4d3ab5bff2fb415fdfe0d485a70e9c92bb91200b0eef1a6ecc6afa5846200009b565b6203e77862017f608801357f0d8691465f3577b8a82fe7aafbcba3e0d06782d46aeda492948a662b810c99357f2e15cfa99e137631bdc3260d19cef71e474ae52b809848bf8726b20ae50633fa846200009b565b6203e7cc62017f808801357f032009bd9268b7c1db5a1e28b0ac2ab1aff7d1a59bce82694bb94e82056a26267f18cae16159933ced4ff016bbaa9323c9cf3c8e80e1f4e56ac42164f8c0cf7dba846200009b565b6203e82062017fa08801357f2a6c5b414f87c21fb8189a8453f71a1892e6be4c8b786c58f907d9e7ca65b3317f2b1c2cbab7269b2b7340def4eb46e18b686bc39b3cb6327e919af9aef4378840846200009b565b6203e87462017fc08801357f089b34499c26adb1f67bf511098d18ece29f8c791c26d3b94e0236d6295a60997f04803d78e5ff1db811151b315b178ec6b7ade8cb00838ecfd744ef60859b7e7b846200009b565b6203e8c862017fe08801357f1f23edc068ec39637f43c9eb034c42c8a1baee8a3ef7c0bee5c564a427c1d00d7f041369bb4ce319badf85a889738fabdfede868ed425345656f70cf5595446bae846200009b565b6203e91c620180008801357f27bdaf88e87e4b6aa49291a2146fb41e8fe412202c47c657945365cae28105fb7f2e916f9dd3191bf018c527982977265beaf7c790b9ddaec630f9278645f42282846200009b565b6203e970620180208801357f224c8e5739cd1353a1fda38b8d0317719a5933084e669f3e76b7301a95dd17e57f2827dee17701050c1467d1200d015487e85b7dbc48132db00b8e70a15677e8ee846200009b565b6203e9c4620180408801357f099225da5cd2b070b0718cbabf74af714e03ece252c05e8bc6d6c40a1679e7bc7f03f4edc0b0420c5f33c960238b811bd4b3160e8680b0d394b9a6fe347e318c83846200009b565b6203ea18620180608801357f1fcd87a4e798d509f37493fa2a0447f64f21e1d479c2614a4ae9ebc7d85f03037f1c12793f4aabd4e2d2dfeb79d7b34966e1090eac77e5b4f558ccb3c781bde1be846200009b565b6203ea6c620180808801357f1fcc516139e9d8c14586fb967566b372c402ac85fe41201bc796baa521d2e1537f16d95fa3be235ed42efdfcf1fd8642fa9a7d9ee0dd1ef6a73f2e45dfdb89fb68846200009b565b6203eac0620180a08801357f1c34294bea5932ca69ebb24de0224adfe6519219132f0e26aeb44c387fd9df647f2a0eb7c35b5f7dd7067acaf75cebae92fd9d970955b3a7d826b18a4cc7f40d1a846200009b565b6203eb14620180c08801357f2b1843fd761f0ddd6654d060bd437683fa0fed3efe8ce9ce3b185853268ae2627f0d2a171ec7b686d0f52bf3f349b20d74a276eee85148fc2ee9555b8b356acf40846200009b565b6203eb68620180e08801357f14ee2793899d76f8a85b76a04e08a4582d39f779f694087a684b6b79e111d80b7f053309fd0be26566092fa08a2a8be38fdf2dd16504a532d92ee4710998ab3698846200009b565b6203ebbc620181008801357f2778f0fb6933cc9fdf2937b2cb39c58915b6ae233119108341000ae2c96f95657f297e72e960d2e04cc11d17d73bdae31030cdc19866dea772dec4e31727bc37b5846200009b565b6203ec10620181208801357f1aa9fc6dc3f112500b5560261d29c337ab13dddf9322db18da6029a567fa8e627f15acdf0fc16e637e0758632275aab5ed8756a0ab04d28527929e8da06b2c59a4846200009b565b6203ec64620181408801357f28f078fc5aeae4c131fd9aacc8f476a25f9c4081cf3a9617e6f164e73e6290467f14b2e57b7a85db3dd5e00787f2027520ecca10b9540bb95de745e5755bd23efa846200009b565b6203ecb8620181608801357f23791038f6310303c79f47ae558d59868eeb1e5c99d36db84e0e98f9dd6a1b2f7f074ec84e4cc0e990cca29ae540ef829de5ee6da183cf2385ccca0ad359caae26846200009b565b6203ed0c620181808801357f205eba33f84df89d09b9e27298e26a47c2e62de4b0c497e96436d4a42ea81a4f7f0f2db6080e6871933a1297985bcdca63e2ea8f85ee41058e811e1187fde287b5846200009b565b6203ed60620181a08801357f05d566bbd919e0a18648d386b77a74f4cac52368d1344b03c895bdff332c72737f1ad00e0c7c86bfa434c63c6255d93d5a26c8f4fdeb8712dc92088d674ed108f2846200009b565b6203edb4620181c08801357f05ef2c710adb438c0b44916911d520e93ba13b65126a5b6e328c61f9d3db29577f02920364023891ad2f53d069ce7c4a97570609914507d89f83bda196c2aedfb7846200009b565b6203ee08620181e08801357f15bb62c7e49522a8fe366f65f9c67c5b25ce3cd339170e2976ddb3c255fc55e97f21623578a156385f27384bc78b8874de0668712f3be4e2c44ef3f01caf9beb79846200009b565b6203ee5c620182008801357f152d46164f2001a8bf1dce10d539da610e4ebefb746d2585a72b8f4dd75d18bb7f0dd5439cb18468c7f07eb868289203b592eec9e1743fd2f243b2b5684c9c5630846200009b565b6203eeb0620182208801357f14254a234ed2a71c50153964e008ad91867a0996aa5dce673300e5a4c656b8417f0f3aa103a4b0caab0751d461a2d7fb07c6b2e8ecb710c7a6f898c87633de62bc846200009b565b6203ef03620182408801357e42dd6c9acb61132b0ea66c80fad90c296bb3feaa5b2d155a52dc13ecdc6e957f093a87eeca900b41531be5f75144cf2e74af5e76cd9e6b4e16ea57394f3b6dbb846200009b565b6203ef57620182608801357f2872c9c32c1b84ecce00238719f3fdb0ab7b0281240a016418281696a180a3627f0d38c8e2edf480b542e3f01806a0221d860c471c7f6272d160de725adb50cb28846200009b565b6203efab620182808801357f2713aa3c1120318249320d367674cc8e2e09842ce4d02a1a83b1c259a23310b87f250c052934cce9a39db82a10a9c230a293a708a11f75524847f740158b9822e7846200009b565b6203efff620182a08801357f2fc31ec5aa00f974c278fe3158f12b5dcf310f94880c5690e17e5d1f41809ec27f139aa1453bc189b0c0a46493c79bd78be76aeae7eaafb182ed27b6cac834a1b6846200009b565b6203f053620182c08801357f13355c92c6bf2b1e1770adc50b4f38dd770c4341da9d7fb809b1b2da07a1577a7f12057fa27bba426bc6c941876cd268becf135e572520798cb094470bff32d332846200009b565b6203f0a7620182e08801357f059fb01a5fbc8a74f806489b5457c62331e9d43998aa3153fc0d11886756030d7f1099b0a430322681aaa7b91213d880e3c182def05a06801311da5c7b4a235267846200009b565b6203f0fb620183008801357f22bca6075055b0409f789efbf1954bdb367053bcd7ae7aa1a35b18a0381f5ec57f0d693cf59575dcf6c05c7f612a7aed28922b7213f81cb958d660f232d594dd7d846200009b565b6203f14f620183208801357f02f4aff64353f8ab74a5a8c4e545771c7f64244c6b7fc4b5dd6e5bfd589b46b37f223a42db9225f712b81e314ffe541a705b1b1cb8d4370306e0ffbe8c7a04d338846200009b565b6203f1a3620183408801357f28f697e0ad13615cba6e7c2baed9988490c74672ddb5e3ae50dc4057c29474957f06ccb4f8a999afa8fee4b68d87ef731f7fbc3ce3af72b5184ac6a845293989bf846200009b565b6203f1f7620183608801357f203f3d63a1bc3485a9ded04834ba7b01e6c636a988b03688eeb38f231a4bca4c7f0507f49ded6336c844ae1e7c3977a5adbde3244118a2fbd45277575921695841846200009b565b6203f24a620183808801357edd01db9cbdecffdae569b835cc75c8d0e915091d991556d4707ea5b84c4a807f08b761d91b8512d132fd53d049d0c5a4eeec998e2fac9bcb46fd7535c5950283846200009b565b6203f29e620183a08801357f2fd7e32f84287a8ace160994bb0e7897b59074179f77ee557c1a51e34d3cfa327f060a4d7cbed13081e66d347b6bfbbafd810f5d87464ff1cecdf743a070321c41846200009b565b6203f2f2620183c08801357f1f6c03df2218c699163acee8642fbfc7713ba4a589f6fa59cadf6f81a9afd3f77f0a571b0baac54331815a2b6731cf020c8e2629c53233c4fd5f80ed3d17f0456b846200009b565b6203f346620183e08801357f055e3f63be71de4555ad6eed9f376a7957e4a4e66f3264a4ef54d3d4ed9585957f18d1f16bed7877417809bfb8580a59db944016e0fd8f73e2d95abb4bd6d2fb6b846200009b565b6203f39a620184008801357f1b259d6e35ce58e3bf9a053aa07fd4e846b2c525acb550247d093c85d5d812537f0aef2e1f04c989a3239c6cca2dbfcc06ea60f2221393957ed5b4192fac27af4c846200009b565b6203f3ee620184208801357f1221e820db2d74ca0727cd33415633a6ff6483d2a18f08d0f6659a8021a57b267f05aff5122bf76847ccae9505a11bcee9c15ad11ae500223ca30adfad946b86cd846200009b565b6203f442620184408801357f2388aef6f49e5827b93575fd50512d7721f0af9c1df2c6aa6786317ecfd86a137f1e0b469b1fcc9c7018fe5da1fae2171f7bb6568ffc4898c87a23fb2a63cc4197846200009b565b6203f496620184608801357f0c41e244a68f3908501b1780c08bc6faf699848f2ac0fc34887dadf77579f8ac7f04db4bbb5b0446391c4f293e6b7ba150a6f86d496b563af1365b4ea3b4ca1b3c846200009b565b6203f4ea620184808801357f1e8a1af05595cadd39b43e7bb2b45858df6dd9e2d54b911d19cc80b63a87daff7f0dd98a80ac246f094645a109ef79497c7835d5aef3b8898da49bc079cf47b030846200009b565b6203f53e620184a08801357f1b283868cc75f2e6ce56633fe2c5d03dd29ce699f687f6c0aa550e92a919147c7f2aa29a3cc0519e67a197a94808d4e76506b40eb8d94045cc270c81cf3f673ae6846200009b565b6203f592620184c08801357f07e4aade0dfe9afd4f1bde87a2572d27c5de22ba63a18d90550519a1a67219c67f25834fd4441c9d17dc3e90012eeaf8cf356e66cb7b2d0e292e79aab19fa58d4f846200009b565b6203f5e6620184e08801357f01b3f4d8f416e27987aa9bd44701bd765426f1cc6f592b001b9be7879857e7957f2c1a8aae839910322b3354b86b7360c2e6e12936399108c82d5e03eeaa1dfd39846200009b565b6203f63a620185008801357f0d9028912ee58fe616effc5c4feab8651ea60f7aea33190c38748c0f4c41c95a7f24161340ff1d740179fca05ab27af539e279ba3e0019eecc31c95620736aea66846200009b565b6203f68e620185208801357f1449503ba03cdfee2d579ab1d5fc06aa463c620adf12229ab9cb6e51afcf20d37f0a2894ecd3bba8ce9ffae3224f9738175ad093375ae2723e56184d286bcbb5b7846200009b565b6203f6e2620185408801357f22ed89a325e166c928efa3acee157a709270b0bd73b9b9624ee6680e497a678e7f0790cd73392d2ebc007d56b8536d7d38c338472d5c7eac06f26a40bab3facfe6846200009b565b6203f736620185608801357f13bef963d0f938f6b9746694e4fc12fb2621d6428c74ce56515010fa67d4aa0e7f2a944c3ea2dfeb42693fe01fc2e7fd8e9798cd06e93646c4244e01a6283f7042846200009b565b6203f78a620185808801357f07cade05b2b8bac0320e9b1e19a42035950cc36416d805327f0e19b0e23ec6e27f1e1f22ff4b3bf4422a6e5eb7ea69c07917ac13b81f2a45ca702663b004bf30b5846200009b565b6203f7de620185a08801357f26d225157eb61d684a1259fe0e906f5807bdfecb761e1589798ba28c5f31dde87f26b12b155e4f78a153b9994586b3c7696b9390c3a3950d44204812d706585494846200009b565b6203f832620185c08801357f07358f9741f21e48be2b923b982962808bae8aa7600fd531ac619f6490d53b927f04da83fb24798be0e4b9d2fc22c7093b31d823753bb414d9ade09df3d3e7872f846200009b565b6203f886620185e08801357f2edacf912ee4ef1a578ed8a77858c4661bbfab0adac30d0003cf0344f5cc41927f1e129e3d1e817bcb5d3b6fdfe8c94940e1169caf97e1467c998aae5653fa5989846200009b565b6203f8da620186008801357f2efdbc092da309d6e476c8faa829a0a8b1f50e09181baeb8f82b26fd5b4b77287f2059b7ee78e118956d0214e3e516cec9f2fc27790ac22c62c45acb6c90a77ea0846200009b565b6203f92e620186208801357f20a0d3f399c7c51069be4f628717e3997b8c644fd3c58e0ab1a7a8d2f4e46b117f12a15179259eee271519996ce2da4543edbbad297cdf8353d958f869c4261a02846200009b565b6203f982620186408801357f0e073a035cfc24e35b9e6d52a5658d8045f98e1fb89663e10a4b120a23007f3e7f0c698ee99ca6f23dab73b059164737000ffe82d0d9287d679d9df526dd590b48846200009b565b6203f9d6620186608801357f0aee3ff16910c323863b771dd4c27463e87cee36d713131a21f7ac4e481bb1207f1f55d667907c2a763f811d3c89b0db3b165d45c00f6a1e705f1b7dbf767f9786846200009b565b6203fa2a620186808801357f26dba9533189ed96f4585cc9f2413b14a14484d05b17effdb57fa3ffd8750a7a7f017388ecc5996e416c7b45ff63366cc4cd82957364d8502d729599b5b611e287846200009b565b6203fa7e620186a08801357f249290461a446c4375ffef4fb896272c09bb16fe3204c3ad0cc016716db0d8bb7f10ed3229ca5c4150752c0a753ebc4d2b6c7e501d6006c106dc40c309d42a5e75846200009b565b6203fad2620186c08801357f20fe25abe9151d1af4aca87c979be640a4fa02bd7f7682441428fda145adf3747f05aec51b66d34624b47aaee5267e2c0f389c4a71023e95b84d2c7706d7b48f57846200009b565b6203fb26620186e08801357f16fcfed371ffb2ce62eebdc68de28153e8f4260e3534b25a966ca1cbb7e6e89e7f29f20fc2497f694826e404033e886e80f076837f063fb8aaf01a21f73088d0dd846200009b565b6203fb7a620187008801357f13ad35a7bb582edd7e8a5a3bc69610a7ca92fbfc4844237b25563fafd05d32247f16b6b6dbf951562a8d5900586637a5097a2a9be12781852ee9804aaee2ecc021846200009b565b6203fbce620187208801357f2a8a730a7cc406470b28ab26dfd2bb73ec1d91cc2e065c776e591aa781e9dd7e7f2af54aefd1c87229f8740f5246ffe3d921ac61af8da72f3a50bfecc69bb07297846200009b565b6203fc22620187408801357f11700693dbc9c204a1598c75a97aa4dafec40c6062d95dea31e05152ec1548877f2e40b3ec160838f72ed115d519cd8dec7300c2aab0e6ab8941979d5591fc5e23846200009b565b6203fc76620187608801357f147c84a7c49873dbc2251186ef6fa12549e60977ba7c465f51bf6aca15cf71157f171478be0d6218a6d3f8ba439abc06b3217263746e1c430d8e067d0f2ea13d8b846200009b565b6203fcca620187808801357f0bd60822d1ee3ff591c98cc05e2c720548d4ab772a1fa52199fa50b3fcb7c0987f08af17da71d9f36147cae99b336ec41279f6edb42aba812cd9b6824a328fbb2b846200009b565b6203fd1e620187a08801357f0ae65ee3cbf35bc27cc1733b756ec2c970e5980eee626d645591e477140a5bc97f255a42b9e0a4619f8984f3028a7ba3849f13228ffa799ec80b80add4393d852c846200009b565b6203fd72620187c08801357f27ec698f985eabf3011a9754958f0de815e59a5045e8502a6b50207e83e8bce97f23fca871ab23901f94d1b850b8c2438d2f70e21b3deb1ba053026d3ee046e9d5846200009b565b6203fdc6620187e08801357f20c43a420b9fcb28441123a51ef319649a09a20db96002d67b36845455e8402c7f2350622796a97ed12b07f43129d6dfaba3c0bcdb2c47ffcd988a2ff62ca69540846200009b565b6203fe1a620188008801357f1955e79a3d5d51a68d9f556662a0de239f97c6894729580d2357dcab44695f567f17aeebc6ec84e8315f00031fb49ab9559113374796ea7044a859ceb48a17b18c846200009b565b6203fe6e620188208801357f02f4c6fbb983d480f8976b734f2e2eb56c4df67ff92adf7009c9b962387d4eb47f28e2ae07369e34090baf7e7de94d823de2d173391a3ec44c281c094d2ed44592846200009b565b6203fec2620188408801357f24e7a96e95a88137d466d0f8d254c594453ef11a8c08d339b9e9318342bd57ed7f2a68e3932613391194441e1263263f5741e67166e792da3dc258a6065eb97af8846200009b565b6203ff16620188608801357f1e6ce80870fd767b45163fad55c68fb572e69be1b03e55b0d33fe625e041e8c67f12563c03ea57b535271cb4543ccf9791f99e2a68a31748130e8df93a23011c10846200009b565b6203ff6a620188808801357f1771afd02ed4cc5bf5c07a44483d7349974e4022097fff248cfd0a9217f8a2bb7f2ae3ce6d251cb84126e67de7163377d0c2b4c91db7c5b3e918204ce6068c41f4846200009b565b6203ffbe620188a08801357f2e1398aa1a7b827ffe60a16ce78a516b1d8637a087febabdc7e8ac72e98334eb7f11dc02ae334770c68701f0817eb2666385abd2999f3be1d15e9ad621ef1b62fd846200009b565b62040012620188c08801357f140b1f79604bc886d06191c1a38307bf5ddafe2d249ef2e68114fe8e05184e907f010224a9cc633211709464e73d48862a7df9d60852706aa357421f1312570656846200009b565b62040066620188e08801357f0db3e2918c3d09b66090fbf34905d4b60b90b94bd73e86f74e1dd4b3f3f598717f223b38fbaf6e0e4500f250329e5fcbe6dabba4d0e9bd4ba12d497a51b1936b6b846200009b565b620400ba620189008801357f1413e023e2c8e40225bf059adbfcc964b3703c9c16f558c20eaedd5f7685eb9c7f28546dbedefd69051fae393f2dc0cf5babad9deef913594ebd7aa2adfe7ccaeb846200009b565b6204010d620189208801357f1e2d6f5afd75aa2c7373edf6ff77465482044abd751f700ed95d703c414881097ed1815db4640e22fa26f6560efbd62eab4ae2df46c68ee62367db02c54d13b0846200009b565b62040161620189408801357f1310f771e5f40022e6d939e878ea987398dcbac6307074d50c9e885e3e2b76827f21ac149eecb7d7f4c1dfd9e09022415a73ba08b74be2664f9b1be9008711a09f846200009b565b620401b5620189608801357f194f084373cbd4d7b8e74fb69b6a6c469a2291f1c348dacfa11cca3cef245f6a7f20416d7684170ff759f44536844d0919266c003b431c14efdbfb6d02d1958097846200009b565b62040209620189808801357f21d383a79226b67b1abbaeb1de036666be889def5b8c1091a58179e6414a6dfd7f23cd8ea2406ba0af867dd969c9637e7c0a41223758c72c0b39cbba6c698dd07c846200009b565b6204025d620189a08801357f1f9faef84feb27c1e5fe1cc34073439de578b8741caa2803ed47d9f484db2b507f1706eebd76a94c64274ed64d4774173ba3bd8bc4526019b4a9654cda19b8532d846200009b565b620402b1620189c08801357f20ba8786cf62c82ba5b530bd1be52dbbe2b2ae573813e791fedc25aa4bb027277f17addacc789628fb3538124755a56c752f4fe1ea371b1b738b177792c3c3f4fc846200009b565b62040305620189e08801357f2d0783f4af40ee90b9f57d49ffaca02cf5541a007b3fcbc3635510cfb1d2c9647f265545c50c65512aadfbec3e635688d8cc61618089c3c9572f21d4961535d0f5846200009b565b6204035962018a008801357f29a79f86d445975d72f2dcb683453f285d1167326ac459ba27593caba07bf9797f2408d4f5ec7ddf5491b77418b0d95e32265f991fedd9a35ff83ff7c33a3e5dfb846200009b565b620403ac62018a208801357ecbecf783592fe57c8e5a449c981d833756941b25b466025d6a8dff92e295047f1043d75621916bccadf52ee7113fbeaa260735f6845d8e647d1ad04255f25107846200009b565b6204040062018a408801357f15be06f8e864cf53a23aceeb241fd3accea7f2eeabec55311973c1b0983808487f2e8e0d633814f35dcd8e787f76064c4c65acc659060b07b8fbf4dbece47ff637846200009b565b6204045362018a608801357eab48a4ec492b7e31f1341441bd3ebdd5e12a189cfe02a2c5c0f5a7dcb26cc87f1028bc1cea0598fd00ad19561ef175c02b1603ddf32a106dbae486ef185cc534846200009b565b620404a762018a808801357f261b2fe51755a5cfc00b2d5dee3931854825bf193463b3989c8c74fa1f5485257f242a68a5bbb9e91e8d9c9e13d66d77fb09f50a72ba8009a1432eb24fec4eb07a846200009b565b620404fb62018aa08801357f23b267abcffc15c7e762c27d81f8f0aa5b7a20e2a5370d6aedfe3479fb1126c07f1e06b062ab0c1cb5b4d10a60cda4f679a3478d1c7b1f48ce21252947eb2d282f846200009b565b6204054f62018ac08801357f162b87194227dcb171f458195641fbe66968f5cc3a3824fd6b8177ba53ee37ca7f2b3d4aca428059ee488ee7b2b85b20e6ff8599389c7c5d709b59c60ea9b228b6846200009b565b620405a362018ae08801357f0249c68c7bfd162bed57a3be55bf05e2d2d94fae71b8437bfcd921df93d18c067f03296a23bbd898178fd51452555a6e336fc80e82dc728a28bd44fbe0f491ad44846200009b565b620405f762018b008801357f0fe94332ffc7be6397f45b421d1ef12b654e89d97f00fce60db2c292090066437f2be0c0376efc8bb09f1871d0440340cbc69d6dbdc23abf754c6f44e6daa73366846200009b565b6204064b62018b208801357f1c18d2f2da66c8cc008e848a960a653bbd170d8eee8362e35a541d59dcd69fad7f0874aed6e9e46dbb8ace730dfcb0524763cef5031b546b953999c32d7c1ab82f846200009b565b6204069e62018b408801357e3129adabbc3f7e45d72ba315c4d4e343505d57a3ad75ae0858e7aab31401e27f1609e175c983dfcc87794b9d87ba1156a3a60aa9bf0afe5c57aee12193dd6670846200009b565b620406f262018b608801357f200f8f018b469753eeb00d9fcd8d0e91b89367dfacbcee9fd7967ef02670fa4a7f29380096e2e8cc93aeed5592ac66dd9ba7d19e88897a0dfbe81a82a232227a5a846200009b565b6204074662018b808801357f1c980d565af755aa72df89be6cf19fd7cee1d9bda2c89d5de6b5de82afc3797c7f1e43a7979d21a829a61384de44f87527f7f25ca6ea99a081c5d81e7943a26829846200009b565b6204079a62018ba08801357f1217b4967d715d2fb40b05bb694327f6749521f72ca18754f4740464f53375677f2c838a879d772b1fc96d32494cf8f5d77144018b77e65f53b501630448df03f2846200009b565b620407ee62018bc08801357f12dc57bab8fb2e5c6cbe1e2666d05eafad3dbd87e2b2751fb62ea421162184cc7f07d246607bbac8226c0ee39990848d9abbe3b3c7c88f3bf5062d9526ca24521c846200009b565b6204084262018be08801357f27bd22f8567529ff3e8355b21c44e3e76f930e10a336c742395cb79cfdb1d79a7f2a6bbd0a155e3ae4221dd9d6b983752cfcf9e3f85b8005d09970a548f09e124e846200009b565b6204089662018c008801357f01febb312e60396eb67959070af0c5dd2faece8297afe4ae99dcc95f0e351ec77f13a3b8f320b93271dfd69605711e6bff2e0a8a9c0ca349531753eb4e646b3c93846200009b565b620408ea62018c208801357f13c367a43fbc890e85dedd41b5ee74f66b77ff92f284798c3b7a57c67098ed567f168b0de5a15345513276f3e75bf8c43b286d7311ac16ca239d2bad46002495ad846200009b565b6204093e62018c408801357f197a52e2b82900b9121f1c965808f8f229c0750f877f98cba63ccc43e4eba6b57f299d30db660de8b476d4025fb40f81945a57e1dabcbc42e86876651d297ac76d846200009b565b6204099262018c608801357f100b305580bbc74234d948fa06af910216f623cf6cd17007c3f6f9d9cd08b1cf7f10bbce94170938cd009ec872851b25fb3b8599a36e534da54e2fd335f2afff75846200009b565b620409e662018c808801357f1478661719314de3dc5a2acd706b6f5a85fd13972829a4537355aeb04f69f4e67f2ebfbd22cda18d378bd97c6cb97aa68bcc1bd06e1f81cb26c2cadb66e0f1418f846200009b565b62040a3a62018ca08801357f1ef4c6337f98c22d3ab39c8635b2628fd86e9b705f39abb60b8b9f7094ae24f97f15b134d9d468e6d9355b19454bd9a8bd04bfdec64fb6f044c82c60291eab77fd846200009b565b62040a8e62018cc08801357f0cd4dde8b9caa2eea3a48fd2cc2c1c935afa4229cf78f186a6a6c7f5d3b676af7f0bc50e59f5641f848606d433395793bd8ae06aa14374aa2d972b2b092e96abdc846200009b565b62040ae262018ce08801357f15b561a5efadd3675de7d67d3b2fa47281ba48185d73fb90f8e7b925e7713ae67f1178f4447c684502534b669aa22aaad7fa6f121f6fabe5ec9e10b9c70a85c9da846200009b565b62040b3662018d008801357f12d11fafeaa85375c7cda3caea5ffc5e93da32af9824a4c7f678f1361c5b20117f0fa99a2f93de9a52efc5e54d5318e7b26cc5c7c50e6351763dfa6b8402bc1bd0846200009b565b62040b8a62018d208801357f2f14a3728d74faf1f0f31f40bfd45a2217b9e3fd615057ddec53ecb12a822a4a7f18418f7adb07f2bb3c23d7cbd05d8590f2f94c38de006b59c3a7080e4d20863c846200009b565b62040bde62018d408801357f03e6c6de32bf6e021bfa6a92eda556fa1c3fdde8ad2b4107bbfaa93e2f4f24877f26445c0eada4e6b3e076175a4fa01d53d402c20fc45de342a4a8074db059e76a846200009b565b62040c3262018d608801357f1609f14a7d8a17e7d22a9d9ef8ea614c557b3cf321c204f40bf1c89141182ded7f27a7961d11f1671efb5d97718664877c3bbde3286ede225a458f4712ee4d4d32846200009b565b62040c8662018d808801357f212e641639c44a93c971cdcd36e579157bd70c8a7c7934c997046cc31204e6d17f19d94dd90565cb78eebd9fb93e703823040166c7b9994b05bb3d8981a632a017846200009b565b62040cda62018da08801357f2c676ad3d960a6a70cadaa6d472ebe7d20bc54ed76b1e3908a65e9e21eafc83f7f27f69b152f60e0a426dbc301c41b346dfc984757294f50b697bc50ccdf3e797a846200009b565b62040d2e62018dc08801357f219bd2aae2cdad318ae7dab667195bf763da6d10f2c9168aa031955744248e057f278f3ddf74b068b0e3d644603baf1fb8766c57a476f24b61325ae16cda13b615846200009b565b62040d8262018de08801357f0905135047525f8e849372127b470969ccf6e7d58205e386fc88872b8971f8d57f21b323c7f1e8ecff805661c9b7480dfad66aa0269fa66f5007c20b081420fd04846200009b565b62040dd662018e008801357f14c26f6f046653af470461bc5846611ac67ab5683816805a25c4cbf94071237d7f03b9f4ee551a332238bf2341a0a1edb082f8ae8c0fa4d6f29815e3af265ba631846200009b565b62040e2962018e208801357f2efe62fbda501935f76d110d68401aa1c70843fe35a4f3f9642245ab76b294d47ee4386038e8eb0b7a383b4b0faba1bc7d657766781612ac6aaf51dcb4a09be9846200009b565b62040e7d62018e408801357f2831171051d916d02aa3d56e659405b5755d19e0740195f4f8412fc26258fef27f21fd0e806c22bcf0b5edc28d5e580472b63b270e95397d57fa155b2a92b82d0e846200009b565b62040ed162018e608801357f21af721ac7760352332377915caa093982e0adbd607fbffd08f0b94d65a4c06f7f0b0e240c4f54d2c74e4159c74aa26ce15d8ec79fb3ee8f0a5b0e87bc63c42834846200009b565b62040f2562018e808801357f1d0202839923125967ca7a7c012a8641bd99230fa57da27e47b05123ffa36c477f1d81b5287edd890af91e747b92b3dd80a987d12371d040281275846960e2538f846200009b565b62040f7962018ea08801357f1883343c4829730cc845bca48be012755eff7cbc94b5b9f4271f886fec4c98207f2475714f48bc12f64c00f47a2007af3beff5b8daa564b3e6564289f691656f4e846200009b565b62040fcd62018ec08801357f131592bb2ea108f34a30c3912ca49f71d5a2632b1bfcc2e489ceee3c0fb6854c7f2bb928e8e83f562d951633604c598d43530535799146556018078d50b8d0743d846200009b565b6204102162018ee08801357f2e3d4ed1c47692379b69116f0bcb70271e567e352b146e24231b3c8cc855832f7f1e5188c8c9b6a8f2b593b4ac5b8d464e6255608e1df6b3e432a0e1b9e5472629846200009b565b6204107562018f008801357f2cce3ba6759167cb974b182a06844d8fe98f5cfb51b69e2705e9a12dbd1d8d0a7f0d6e2a98b08483ad67dfab243232c21cbf3c9e065ed5ad9b9ac1739918449f1d846200009b565b620410c962018f208801357f274e2e21f46492e0e124b303b038268e4013e15f0d5e430da95f69487dd8994a7f2e1631402bd74c3b99c81b97f8558e2a73148859074f45e4fc079520a1f563a5846200009b565b6204111d62018f408801357f0f9995de6dba91d8ea072b070542d5871a1a83c59ee634a3e84c9635d7a404e47f08ea6c202e70b7998f610c2fdb083b399a2f1015b07ae39c9eaa3e0220527db7846200009b565b6204117162018f608801357f2bc2b8682d1bc18f446a218ef1d0ae8de39ccc79c96cc259732e9c1774016c2e7f1c8bec529bedfaf6f0ae4b85474c3aac79dfab621cf997b0bebf80720e23f657846200009b565b620411c562018f808801357f292a056e87e11b65abff0e6e0bfc9c914318b5d3ad0c21f12d1e812b8c6abc8f7f2c212f716c57a7ef2bf4a9acf6dd09e9c8de5b3a48392ad4728a57861ae9f2f6846200009b565b6204121962018fa08801357f0196221f541cf8ce76119dd31aed6426f7df5d1c7d820dce595ff2d0f812bdf47f0f36adabcd60300e269bb051126aa34da630159542dd1178e9e60d61f2f8644c846200009b565b6204126d62018fc08801357f183be1d7d7d965c4f7a200e6048776354acac42fa46ed2105dc57ce069f89c287f276f18c0de1a28e7134a8264bf5d966916698bcb7861583ffc3b7a4bec61ab6e846200009b565b620412c162018fe08801357f0174ec2c4f9656a136652ad7b69b8a0a600dea0cfd07376fe1d0eb3f5ce0bf8a7f0b6402c4f64eef45c813da2b16d6f9d9655425b80e22619ef27552d4e7431689846200009b565b62041315620190008801357f2ad70e8a755fd1addf66c4350563d3a11292330693acc8e633839964a87cdb8e7f034079f5893b13364692e7a9b87511f1543c122f9f6fa6179bfd634723d8e76b846200009b565b62041369620190208801357f1631af2d5036df414c22fd0958d1e38c236c81ea470182f8174129202ba1baf77f07404b1da71e0decf1942c0222f450f7f39bf9b492c82c1051cc0f31b8c36930846200009b565b620413bd620190408801357f0a9949fc601b27aadc45b728cc8e5efeb263e4972429e69cab76df7a56ad53497f06043138e74c353013b16bc99db642ba2e73e83c7fcb8635d1608dbd30c79448846200009b565b62041411620190608801357f16b362e872d5df9088515d9c563b57785734a8cfa5abffc55fd00beabf0c269d7f1707f3adb6be12882692bac30bf88d26359e20ffa4361c882589395cdaeed3d0846200009b565b62041465620190808801357f12e5cd7c26a8990852f2c07fc85eeb4b32a86926587b932c3ac2f16287b2dc237f0a8c8c3e182ffbc9adea09cf8731dad913886025f840b4098d60ac180c7a0467846200009b565b620414b9620190a08801357f2e174643f4828b35862561296e7cb65c784a2a4df493b65490f68f4d0541bd8a7f2aa3fba423fc8228363d0d035e9b8b54937af4b148741935f2bdfc9d351bcbbc846200009b565b6204150d620190c08801357f2fbe6ed223b041e50174ddc0fcd55cf4b305de64765b6ba08ca5a9b55524ef407f07c86955ab10dbbc3eb4efc4791dbf3f3eeab9ebfc868cf7b96930f76ddae2c0846200009b565b62041561620190e08801357f1a075eb1026e514a19bf61f2707b7a69846b1ae463f5c7bcee218ee89a2e20397f2e9e5404cac0cc54cc1363fea6ae7b22bd19c0109a4ae2bb3edc48e5d2dc39b1846200009b565b620415b5620191008801357f10a9737ff0f5a333fa5166e880fb49e9a928b783863a98d7839ac617a344eca67f125ea890d356867664fff8c4cdbf2dddd96cbd96714e44980ba68ca6477aad1c846200009b565b62041609620191208801357f056a256477bc8f3328ddb1154f74e01e226b6d91ee2f06fd55912733ed175dda7f06939d0a5aa3dd77ef54f4f69a643fb7a011a8c23ba1a155cb19ec6c2fe5a4e6846200009b565b6204165d620191408801357f164dd3b3e0d0f0e1584a366b9cbdda2f6904c70916c0351a837fbf0692ff0bc57f1d6ba547a99b4a469e9a9eb9530fc3c794cf18fcc4225d9dcf3028af7149a924846200009b565b620416b1620191608801357f289abb57f4f2fc26d44565a52b126cca30025a3b038169137370e4569e1405127f18a97564134ab698c402d68cd2134197dc3562e0e6fc2168d48957d11b955926846200009b565b62041705620191808801357f25d61a4c2f352e382da779d4fe3ec8d6e5c679b45dec1e27e0b9381f64dd274a7f19fb348bf92ac27322736ed2d1e7070f16ff7ca2cbc2630376013f8224a26c83846200009b565b62041759620191a08801357f07429e1fc684d760b540ff839658d181ce565579ca6faf0ac44ece3aabc035737f0337b1739e86c6f82053db5f67ab8a44b8a7e8bfaf922f76fe029f0350cae3ef846200009b565b620417ad620191c08801357f0d6d35a02d3391af19af4983c786ac80147feb6fec18fe31a1d5f55488b7008f7f254154dc141b833bcdb337578fea7fee745743e20b17d55fd9d9c55923cdd9f0846200009b565b62041801620191e08801357f1f0bd5186a77d491f773af98ddb8d6996d9e1b52be2df119f8660bf7071ddff97f0bdebfa5f18646f7d4eb26d88bd239d1617d909cd81abf3376ff2ac69df44ef5846200009b565b62041855620192008801357f194cdea4b5ecd2ac71c62d77ec29c3369c521432e268c47ac78ff91e94109b717f0185ad453839cd6cfbb9d689a11407434962640d6784f02a497015f60ef92fe8846200009b565b620418a9620192208801357f2a6b2ea64edc434202e2c307bfb71a87de82d4e3ee772ea62da3067798f359457f0df78ca2d303f599c99bccdd4ecb0a2a5a8da9cb9665afe7a3ecb7f4cba3d77c846200009b565b620418fd620192408801357f0c526661f7b7527a40ecbecf246ede8030686feaaaa672ef8992f7184be169777f2522d8e27168784379d1ec76833e36fa309d78c747bb6ea5f4fc75afbcba9882846200009b565b62041951620192608801357f1f3065dd7a121b633d77b5a484bfab1fe332f15a0a2934264831d7f4d13e51fd7f1b2aaab10161a16df4ab70144bda0c23c47790c486fcf661d370e2f0fa1da745846200009b565b620419a5620192808801357f236816a4f6a8d90fbdd3f4fad8ae2563a206446eafce8cd91b1e1c05e35fd78e7f2801d8cef681cdcb32e11fb724b6486b5f50eff927664aedf78c19f6f258f5f5846200009b565b620419f9620192a08801357f076e76343d58242a335e7f5e51964acc477755744f42eb064f96e56278bafb637f0bf8c87e237baf8da9a0e1c91d69ad7c2ceae7617f95f44b09d640dbbd8d62cf846200009b565b62041a4d620192c08801357f22485c469bfd0eb0419558b03da8dfbae5aec013a75487e17d367802027052f57f24604776f990dc5a947adc32b88062325c7acb1df473940fdca02f9f145befa9846200009b565b62041aa1620192e08801357f1b36830580a183c0af8cb9542fde5726d568b1c046aefeb16ebf0a6d9dba73007f2bd7574d0ab621771ad330e74501af6840017d8029d0ff2ce7e0ea180156fc1a846200009b565b62041af5620193008801357f031f94d9df36887b5f304187e70511e51e1f8d9ec808d0e3b8c9b618c8db98357f0f6b1697face5cbc5ccf51d0a30990ae8b7ede905de06045d0579da66fe807c9846200009b565b62041b49620193208801357f184554c6f5724f6957862f54b6b877b2bdf5cae30f16b887e42a5db0e289bf667f1b697137712888f1496bf1c8af6787c7f30a6fa2c69120e5b395d1c80cab7bef846200009b565b62041b9d620193408801357f0d86fd48421d87a492e490b34313bf6112dafa0cf858c9e3330c01f96d101b4e7f010601fb14ac80abb5407a96212882c3e26448e9abeaeda1f70bc262d127c6b2846200009b565b62041bf1620193608801357f05b18a2617e50801d9365076e56adba888f48dfadf674ce39fd0c24c03ef8ca67f0aaf5ce213d7c182bb42f37210ecb6c7e3e4c93f9a4ba3b5b531ff8a9087b92f846200009b565b62041c45620193808801357f19d3511fab8ddc0068df2bdab35571dc0d4a66f4bc93be2c7175de7e74f243c07f1b21c90642577b34c085705bc44b2b794f1c720f932a5c4f71724d35057673f0846200009b565b62041c99620193a08801357f180f4cfbbe6e24d6b8f7215df4133e8fddf864f313e5d313c603dbd180ff0a617f0802b4fcf4de740caa153231e6293d73a7a845d4db173afc6ea95555b1a16d37846200009b565b62041ced620193c08801357f1057aa42166f7c7017fafa4810e2e1b6428f99b3ce377aceeb195c95a93e788b7f15b6041dc23ad93ec88e0659e25213a8ded0f01d09f0fcc657099010436317ec846200009b565b62041d40620193e08801357f1b988fcdb023768519afacb60dc9da4507b525bf65e7e910ff85b343691ee74a7e2e51367035f9ff1de3b8a93dd6780ddddcabeee712401b4dcd93b0df8fbf3b846200009b565b62041d94620194008801357f0bad7fb6d3134b2eec8e3eb5787ee2274e98daa269dcfe67a204a63f425c0e587f2637da3a883eb630c17a1547706df047202c558905b422636b47981e08774db3846200009b565b62041de8620194208801357f27cf511e35d0b8dfea117db17af6f185b8db1f833bedae23eea5939fb0b2cfcb7f07194793f07991f6077640cc43fb9ad356c81fdfb68b86816835357e354bca7e846200009b565b62041e3c620194408801357f29fac341450bd149fa3bd8d66a0ab7120ec8797dcd724fa8291e0e74101e51c47f2469fbd68f42752ef2a357a29a2d0e1c2d2b647dcb5dbab3df7a18edb8fb6263846200009b565b62041e90620194608801357f1a5bcdbf7e3fab88ef9345a70fb46c47f3266462bc5afabdfaf8f905472372a27f225f727ad87e8bcbdc4d56d8602f51751530ecf99305002cbf79163756c0ee08846200009b565b62041ee4620194808801357f281d2b7ef101c08f21e1370ffe28d2765dd88cfbc99b639e35fefd20fd1984127f048e5cebec2854eb01530d74022c0d413281d989e294ecac7f7e174beeacba00846200009b565b62041f38620194a08801357f1114368a5be97dcddc68e52e03d2aea566ec922de2df8f430ef03c380ed5a32b7f27799c9024c30a3956beecff0f734943f92cdfd7b9b467b6d6658230edfeedb2846200009b565b62041f8c620194c08801357f22a6875c7fbb81b3e8ba0eaf01f3dba2c21017d9dd9343861523ab91f96271ef7f1ed13f389eec7fd02448e7126866d07680d1084ec8b02fc39e3d0c28c3b911a5846200009b565b62041fe0620194e08801357f2ec99b2ef7918b5969cc3da8cd92f9f7266b149d2a9ed87a3f50e46a0a8f05f67f0ffebbd0917fd3182dcd8edd06a35eb025886cf50b6189fafa6e03a66134e9a6846200009b565b62042034620195008801357f117f57b2bf74c2245e0ec4a0d0b2471d5958f37a43397f7c82246ba821e339317f271d943ec253d675f16e416da979d7309bc6ac99d0d9edc3e850b55eef74c61c846200009b565b62042088620195208801357f190875d09d95f3c4bf889832bc5e8fb0fe2c56db895389e2894d06e0ae02559b7f108e906cda9e9cb8581b1af353120e0c0705ca1d801b27663b4a1112aaa0d99e846200009b565b620420dc620195408801357f196f2f13360def84c6aa2882ae2262da27bc0312fb99e80953f271a933a7be887f2649e758c5cf03a99f378eedba9733ba0eed9eb822ad4cee252f5016c25b9314846200009b565b62042130620195608801357f1c76db0ffc12e9a52ee39a1d4a4b007f4350f9ee63289fd2b1afac5bd53244c67f18b17a0786fed9cb16f6ebfb39dcf24804bd508dfaeeca54977176212d8c68f4846200009b565b62042184620195808801357f1bdd3087032f5e2cebf13638c5953d92f3bea9df8d48bad62d818f0e1fea79607f1510b95a6107d68fd5448497d1f85e108391819a3dc8eb2e80026e43945db659846200009b565b620421d8620195a08801357f0118522173704b56b64a383ec2987606100a2eea9126e7caee665c52ffa1e5097f06346d15497e65269ff7eb592e83f3330d34c484a81c0ce3ad6f8820f7f2ed38846200009b565b6204222c620195c08801357f183dec14eccb86ba7b10def7da2221d669f419840024963a477ccbfe1e4c454b7f0ab4e4138457aab494624b2fab5c3f766a5825ef21e4393f134d3aecb08460a6846200009b565b62042280620195e08801357f111cfd5f7284377de43a9a7092d55f60d5e92b547ad6ef882f9de966d2b8d5997f2aca1f0a362611a164e3d6996ba29d77213ea59e0d9ebb12498771de35e1e24c846200009b565b620422d4620196008801357f1ff7ed07b2bc20c3d7fc63b50d9b70960f91f7f9c0ec6111443669f17a2a9d257f135cf0b785a253f7b9a34c59f8367c27eab5b7edd776d690782578cb932c3f8a846200009b565b62042328620196208801357f12f29dadcb2b0fe8e15ba634e6a6bbfefc757324459ddcfc0fb1339dbaa34cd07f24cf2b8e0b40ebc83f3f6e080389f94d82dd5e9034fad211dc96692c9a2c2e45846200009b565b6204237c620196408801357f1a1829accbb2d9f4b18059737ea3ab6a6d5943f263bd772d3c97818dbea575487f0aca127a58af1e583192d8e5a9ec7d640df221755c72ab1ab37be0e933faa588846200009b565b620423d0620196608801357f2f7e359b7ecea88cbe2d8dcf1c4fea428a5e3600e8ce9b138c40e5667b1447127f20d8713d71ebe856610ebc516c58f8aea3f20ed38c3964162e51bfb693c02a7e846200009b565b62042424620196808801357f10cad9db8c3978da103d138a326cc1f2808d45cf10cf275510317d80721f1e837f24d6ca7c39d4be3ac8db5ef439b4805cf5541fb6f6bca50c4117dd5652043325846200009b565b62042478620196a08801357f29ff8227a5c4acb2fd62307007793e927780b7a4a016f16dbfa7dca6c179d0257f0e15be45fd975b0f0d5175aef7ba389fc2162251be7bb3257ee63a222ec79be6846200009b565b620424cc620196c08801357f094552a524088195981c3f25f164e1dc501a6238546d820012be3be11f0726b77f2ddc79e091c5927dc4a07e004b0ced45fba884ecc33b4fb8e121cd452f4c8927846200009b565b62042520620196e08801357f05b6fafda6b1feb2f250a0453ce7112fead43b41c2ecc2bcb1c17274f1d6edb97f1f578632a6281c4a52ac2cabb12fb12623ecd54825ba16a60da6896b86679e39846200009b565b62042574620197008801357f13afba462d5ac379d3ea31c878680ed187afe6d082e27af89e3feee1fb48a6807f226004327dab48ade455e6023a50ca5f5c1a0dc50ec5115e9c07fcd6f5b21675846200009b565b620425c8620197208801357f1eeb6501bdf0062af438b0d3675162b00db7c6f1aa1048b1cfd6ec1d672c1f9c7f149ad542d4d8d1f9630b25483fe921cab2ff122aa9995bfd43b09ac1ce84f06c846200009b565b6204261c620197408801357f1f33396f0493791da656946d289c0afcffc039cbbab0ac4ee701d696ef337eca7f272acc685ce6db7e8063b363e22b4605347f40da0074db618cbe6d1cb7c130c7846200009b565b62042670620197608801357f01adaa627dc97b018c7f526dd9bf7279d498933a8274b3a84808c10370900f737f0ceca12f72a611747d34abb426819ad00672cfa9d2ea247e4786716cd1347b9b846200009b565b620426c4620197808801357f073a5d9d946c3d81f767652a2d02a7767ec08efecd850d4f66fbc742b75874667f0e4a2b5a5b66b430c6135e75fc46945135ea690b6704c644902baadbaf71e73e846200009b565b62042718620197a08801357f1ac6fd2b081614175febd04965d882dff565f4da9c1a57762926bddc1cefccbf7f24cc6d7a2fa837c60106b9eae8239f608e9dd249c21e1fba64e93bcffc8e86ca846200009b565b6204276c620197c08801357f09e27a58ff217c0c509b4d1feca4754773d2c401e66bcce43af114010809b7a57f1d7bca76ef7a368386ce658f5a1ceb5808b04b1f7250392f79e9a7a9f9ed4577846200009b565b620427bf620197e08801357eaaa796b4fcb226bccbd8869da4247e7ffcfee75f8f2b7606a60dfa37496e2e7f069034e8bd1bda3f702b8a5f2924ad10d66494d1d80e026641657ccb0b36a946846200009b565b62042813620198008801357f02493de244be0b6e9c84a299988548de213954b9fc612948d4f6827f41ca4f147f0ed05596f338319a2bb564e538c4075b78918e8c1547aa82d0e376c11ea078c9846200009b565b62042867620198208801357f2370a9f740ba17645091c31a528522ea21fda4ebb46750b9ffb76cc920ff8e5d7f075ca1050ba992b82f7dc0f3914a9b0e687c377f272b711a24505aa438874aa5846200009b565b620428bb620198408801357f0527786589abdb9d07e0999ea11afc21122b6e5cf5f5dbecf2b06835751d25b47f10d434686ff96b523dc88a6ff2bceec6c87f4e5b1d20d502a33baba9609f60b3846200009b565b6204290f620198608801357f148749ea3c23e422ff0988521dd6e6e8444a92fc34d17e0db56ccf3b7366c3217f26f86b8f419e71a2cbebadd1b062a0d2d7933c4c0e0fb869d740188d1fa45944846200009b565b62042963620198808801357f224de4c559b47b398f6b7ee09247e0669432835f65502c1a90c3ce596da8be647f2f2bafc5c33920ef9daef81198f35e4ac5d98a0523eeed2f6a98a28ae3cc9eff846200009b565b620429b7620198a08801357f164112c7fc629feeba315c0b90e604eb583932a2b6b1d6b16afbd974cefcbeaf7f0a312c4c45fc044ad9bc70fd7e2e49b2c6f00df42e5ade39f15235c88291b414846200009b565b62042a0b620198c08801357f2b3ae1c467cfdbb85d7ae33abc20379daab0687ff8b8dcccc0d5a28bcd811f507f18ccaf33727567a43498865b5d6ee982b65e630b518cc3e5ae3ab08ac43ffbe1846200009b565b62042a5f620198e08801357f1bd79e3001093fa592083a73d2bd078e95939c5fd0cab09785fe4c6f699012387f1dcdf057c682ed49b4d4c90f92305e4db78a5624434d613db47822d15865ce74846200009b565b62042ab3620199008801357f1409bc4385117e63c127744dbc8eeba2631b1ef3214d6995de2ba30629e8d4b17f0930fb03fed15604d2e1f535b003912da8ac2666331d5a0e172e8521e496cb7a846200009b565b62042b07620199208801357f01cb1afca9a6142f3153caf0af812b6a2e5a2f2800eaf9beb0c653073cc03ac47f19813a22d505d85857d47b4b51e26e9e1c2a14e120a781a7a932ebfb3f8efd2f846200009b565b62042b5b620199408801357f1f883902f8bce5b018abd6ba074d941d10c198cb65a2d4726a0884d8d92c709c7f082d82f3a4aa4857d357ce9b236cdc6faeb387f5feb62adefca33a31705986de846200009b565b62042baf620199608801357f08ae6dfe6b3c8cbfbb1a24e1e39456bd6f89c2cd2aa2e57186292f9f2e979e0a7f23a1b47d6f3cbdda40428365fa3eb84d0ee8ca96c000863ece3878192b7a7670846200009b565b62042c03620199808801357f24751966f943c28fedc1d0a02a6f0914afb9806e2e7ed3264352e03490fcc4127f23b338740032646f55f2998799eed66699d124b4b59032fc82d97e6d9aed544b846200009b565b62042c57620199a08801357f27df4af01736b1eb70456a909fe8152d940cb99e61ffb2a95e6e61c14e304ab27f113fdb2335a7611dba63f6b54ef920c9ad503cea262e5bea2603dff8c405fb71846200009b565b62042cab620199c08801357f2cbc686ec9b42412cdb74cead72650c1f4b725843777406d52f898d6ba076a3a7f1171f83f0339f777e3d60cf36faca6aac7b7dd7c227c03c37b307ce86b505751846200009b565b62042cff620199e08801357f0252bc54d9c88939e1a5a0a29dfd4f67e7b6b7cde1e53a6ac0aca90eb86df9b37f05336b347fbdaac41ac8fa7c77bcf80d83c2e863ba5fb1c6f8160acd5c83cd3d846200009b565b62042d5362019a008801357f06156de4f940c50946e00c72f91c2803ac04319a21b6a74f2275cdd666d164907f1b6770a4f66814693e9f007863136ab2904c0b84b05337e1fb3fbc714cdcfbd1846200009b565b62042da762019a208801357f21047a651e986382f8b47fa31a97ae41e07f9c33dbadfab08165db27fc6a5d0e7f1d7ad32238fd71a7a8da7d0e0e27399b2f298f1340d55a4371c9c9d9dbd58104846200009b565b62042dfb62019a408801357f1ca2b9a8507d6074517aa907bdc778dbec02d51a5499d7f764af6f1d6f7186f87f08fa85053a405e97a56071577df2bd9b91d836a9b80e1bea425adfe168abd5eb846200009b565b62042e4f62019a608801357f09a997e9b469464825946ae6fc0820c006941f4708c4afad413e11baac2bc5587f0a2dd740c4466040018879d51b45bf9a2a26a0b778723688246074af0f9855e5846200009b565b62042ea362019a808801357f1d74083eb6c91c6c0e3f1819e262945dfae77f47e7d9e460ead1bbf6ff92d3727f24264a69d9fee1a7144ffdf19009d33838569140523d84167430b864db5c715d846200009b565b62042ef762019aa08801357f27c931ac9871f994ac18d066992717e0d19e0b8583b7eda229abf345637ac5337f16fb5f88e62440934ba7a3fd481b91e99b2f75c47135065eec596e097cd5ebec846200009b565b62042f4b62019ac08801357f2bd08e901810a163dc2f68da6ac7eda213dd77a3a8b0235f8364d3e12753e0b97f285f21d1f13f2eb1179d39f5e36a17f42dc228d2f3c051bc6917a6ac742e3c65846200009b565b62042f9f62019ae08801357f030a16ae5722316652aba35dcc7b04b6b600c18bc7fb49cea075f8b7455de6907f0c73ecbd772a5072d5b0a41dac4d677667d1c03ca19b4cd59a983d3ba1793baf846200009b565b62042ff362019b008801357f1fdf3b1c1683dc91d458a2838ad71932f5824017ae3831232c2b5eb654f5cc827f05de46b089edb498f04bad7c6e80400fbc53390b099dcfe3525989536b3ca34c846200009b565b6204304762019b208801357f1f5c3c5a2e0ecee820173fd08d6c9031d22d3e9d2752eb9adb64a14edbf067207f2c398c944a1e1cc9e0e81c29a9dc7ed6bb885951a2d9a574e5b8ab6931ba8144846200009b565b6204309b62019b408801357f2eba5e25b64d7d56eb31f70f2b6d99b35e7c3c32a902e9a21e00900e1cf941217f0a599acdf722e723197d1031d566d40120a4457d55228d796dd4138786c0258f846200009b565b620430ef62019b608801357f22a74dfa279a263209e8868133e07b731b7aefea961323191fc2fa72ed20a81f7f0fa7fae27ba949ea570905eebe815b8d25c92064306b6c41d06f0b75aa8f7a0b846200009b565b6204314362019b808801357f126d18c7289b8745fdae3e2c6816cb0da8de202f88e626e02d356531fa76dbc57f12c53bfd9c95f7af317b2e56338d99cd721781e5be9cdd2d2315fc8d1592d9a6846200009b565b6204319762019ba08801357f21fd3c63949e2031366bd8144bb0e16c1b8d04781f313d8f1863cf771f1e78f77f22675dbeb0dab72ffd326f3612b1c2dfaa078485de43f53792dca23186d1bc1e846200009b565b620431ea62019bc08801357e9e9a456c5f9b7cc46b71928e0d4485f8aa7ef7ec7dcd6b858d2dfb0761d6417f29211eddb1a167497eb9a338ead1eb6d66b5bea5da3fec53601a6bb6f663d5ef846200009b565b6204323e62019be08801357f1406a692f1b862c3d344c20ba00076879b8e4bcd4f391442cc3f6fee14c67cdc7f0efafa8166207e6786bb5ef98c4ca9a5fbbe337489c00b7865c9fd69df9947fd846200009b565b6204329262019c008801357f25b09dce8bea287f656dc3c2d0eb1f65fb293e2eb0567417cdf1de3b6bf8eed87f1641eaed93dc81cda4fd38c284f402ece847ceb5d0687e6a0d6e18f9ae6d98eb846200009b565b620432e662019c208801357f21df13a50ab850044be92eb987a90436544b39c5ba42a33832ae191f54c02b8b7f28e500f9275757d737b52c311b5d29814f41e3ba751a157aff1bcae5514fe1ce846200009b565b6204333a62019c408801357f0da3f43658e7586f3b4400a4ec101947cefa7ce28ce76e5522863108708fc0c87f08d72f0a0c6c039f4b0c2bf984ad1b82ebffe7645ed35a6cd5cc0b42345ac63a846200009b565b6204338e62019c608801357f1228b13f45dcd01c4c59e6722d1d45a509305c8bf7d5478b716a14c6abf146ff7f028802f81fcfbf7b41d81ff9d6da0d7d8dcf3f812300a1dfe0a9839f26911658846200009b565b620433e262019c808801357f175418307a40b84f989892a660955472ba93643e73c3e85733971e48ebf0e2aa7f02bd131d3223e6a1139ce68d02116778febf689882c1bc7f4ae1a17057740ca5846200009b565b6204343662019ca08801357f14e3db91d52425d05a3ff6d341f678c33ea74b7b089d2fa219017dd30277cd737f23670587e25e46864a1fcf04f3022c3ed28d0e612ab7ac9ec6e74a5a87a40b8b846200009b565b6204348962019cc08801357f229a4a7dc6fcf326100e1c1f14a7c644289ec6f3d99f6bc8bdd359cb98b285277e7656af50d92a11da5fb66b7b95999e2268eb6d89a1fe63b09ce0f6b96c85a1846200009b565b620434dd62019ce08801357f2556c1cf708a084511b238eaf747bee3784b34d1788f36ba6eeae60ac0fc4ca27f1a7747c2b9ff1f6dab6d1a9974a656c9b48e5177388b20f6bed896c3f0ce5077846200009b565b6204353162019d008801357f0abf0d4165e311d7a29030fbbb1753635b73e7c882163ef1057bd9ea5197eca57f02806426d0e7afb4a7cff1ed2d22a1516a06148c43909ede04127cb9a18cf160846200009b565b6204358562019d208801357f19d7cc173372047f11246897144f24fe4963609d13c22b173d5903c039ee9eaa7f03bb208545221f97b6363a1c5af539081708a9971e93e1d4ee49956325857f61846200009b565b620435d962019d408801357f1150e13d46b075544b82ac7e4eb370f88912dcb886edf3c98427f0dd0a22324c7f2c91430cdc97ac5e1f7c37671c39e4b76f44b759085d68e2c7dd462d47fd3d1d846200009b565b6204362d62019d608801357f033dd4be27e7f4b16c6c4c0c8c19589a7dbc3c6419cd4a967ba74601d2ecd27c7f0fd99374802a07bd612ded15c273dcfa1eda1c28a21755e39acc1747a1b8afd0846200009b565b6204368162019d808801357f13106d3095893c2300d286eccdabff7cdaba464e5402526a7282284472653b2e7f2ce600b9af3187ddea1a982bf20bec4e4966189a50b07a42955f6cf9ef20c2a7846200009b565b620436d562019da08801357f065034a49ebb12dd56ded29422c59edebecfb1b62ee95c568e1f49feee29896b7f03fb487f469268168ccb3659fdde3576c22edcad2025edf8ecef80809bdaa6a8846200009b565b6204372962019dc08801357f25085171bdda6ada02266c7b4b1bc6573431d728480a91b8b8bbb7489d985c647f0954a84c546c9dbf700265b7cf129013a8d58b55f7367b1a58f350622cd2aeee846200009b565b6204377d62019de08801357f115c9e323b441a272410992c03523fefc829e7316d1351a391b9e5d61e7052377f1a1f22cab4d0f2fd198e0f06f390894963b3d6217859e34f3005b0ac3bb58ced846200009b565b620437d062019e008801357ef241e825e64f45461a4a3f82b3bf372c3568be0a27072a4976eaf42d3f95307f03be63b387a46c3aa626226bf0969717957b69800be6f35cc02ccdbb998f3593846200009b565b6204382462019e208801357f11f59364775442252e7f6654042dbcbe52b8d869117ba9d320e9e8872613b12a7f223855621293b489efa1a624acded44e5f6202690474e28244a1a0a284d3f19b846200009b565b6204387862019e408801357f283de7ad5186e66d58fd7a290679f0124492bb9050b06562611c89ec84c8920b7f2636f05b2b294e3bb2a4f39a8166c9c9f3354849d387ff20d1ea2e8a3a735de4846200009b565b620438cc62019e608801357f1a68381730f92bf09505a29e92dd9bcebd0fa68553d58cba8e3dd33bae7ee8527f163086ae81c2b3d0522db64ddfafca4a96d23507b35c0399db504baf31866a99846200009b565b6204392062019e808801357f151abb6368f8cab685edaaf20b280cfd8cb6878f7e6b8abb9fba73ad75b87ad77f039edee4a721d9da5b0f092aa87cfbd597bad1b3e560038c05182bfeaf9348fd846200009b565b6204397462019ea08801357f0319dba9a1ea3195473e0b07097c36ccc7c38fe9984450aee9fe730c198787677f174848ae6fdf276e6276fa57eee1b9b33e21878bbd715d9ffcc827b8555bacbc846200009b565b620439c862019ec08801357f132990bc34406dad3a4f75bd544e73bb3eed14a31404a3cc145cbfe077cd1b2a7f2475bf44d2bb6e7936378b6435f1ae930dfc688c2fbba2568e94514826f9a8c7846200009b565b62043a1c62019ee08801357f2e4c9c4e8d5d7fb6f2227597191382b077471401c973a01686d6ef4316a662ee7f0cc87b564eb898655aa389337a77884c26404cbc5f65cde0b767d30942ad62ec846200009b565b62043a7062019f008801357f100fe903ecc58ac2fe3e4b059afea4304baca42fc34ce25c92f2a3ac13aba99b7f22830f56ee719e1cfd12f2c685574eceb8aedfd1d7c0c899c8c11217b1579e3c846200009b565b62043ac462019f208801357f0efc1a236c2252201027414607ae84ef149b020f6685a9b30615a0ddc17d40507f23449c0f028b9332090c39b199c3b1e0bbcfa320a4cb7de8b0d58cf913d68f30846200009b565b62043b1862019f408801357f201e169487d9601078a59fb74ef563d75f09259eac3179728b9f939d87ce65737f0a5bc262e5f758a83bfe56927e7b4bfd70cd6ffd8f473a6ab079cdb12734eb89846200009b565b62043b6c62019f608801357f19540a3dc7c5bc2689876950412cf1030d802af8fb5ac83be44d72da6e1339177f2a611e627b2ef9af3c8fd57ad853b78ba48818da8ec21d87d72b8c94101b7604846200009b565b62043bc062019f808801357f12dd51037cff0c2c167a8cfdc799bc41b9a9f65e94c5aa46f805b47a405aac8b7f2c307df6a190ce9d868e6ca264c8c0c18741333d85be0169894d057bdbbae3ee846200009b565b62043c1462019fa08801357f2122fb8315544d3a6e98687881818e7962d5c46d9bdd5543911190d02d56e9787f0b4d7165acbfd1598b7e1573e13ee988829a2110e05ee21c54f8d0d2285ff919846200009b565b62043c6862019fc08801357f238febc4e6a1d3de6b45e69d54bdb81dfafabe4805a8bc42fd4bed219d5533817f30464d4938d0e048aaac3b3c3cef553c404f38990952d473480fc8720c860eb5846200009b565b62043cbc62019fe08801357f199daea52df5c35a017ad7ec1aaf281875b9b3e5c600fbd90616aaf7154310d97f126059bc87cdb80e340a544cb9503d9168f66e9c09aee099d00dd6b9022bd8ac846200009b565b62043d106201a0008801357f064a0708664fc84a420719141ec68d98a94b6eb883e8b5e8734957dc420b59597f06d71e8dfd476ba02b0947f96c74a65c001ea52b8edd984cd44f3a1531c6d2bf846200009b565b62043d646201a0208801357f24813e1d808a43e3941d81e58c4cf58ff03942a63859bdf76aed0edfcd2599f67f069604063609180c598c593afefdd8635585b41b2ae601cd5700066509c76123846200009b565b62043db86201a0408801357f1f60f82c15cca22ee77a5ea04110d1f7c0292f09aafa27d27805ae22da65e7af7f1b31f07a7b4360c56f7acca34456d304606c8b3da4a06bb912eef0449cb094e2846200009b565b62043e0c6201a0608801357f1959c7ac2905ad8cb8791e28eb320e3664c1d87f5862d5384e4718f46ed6ed967f074d212bf9de7a96fe4ac69fb75b7f6c06b91597f14260e75108bf99a90652f2846200009b565b62043e606201a0808801357f1293fe5d9c28dcebab70caf9aebd442266b037fd0eedefa8d6df813d39d946c87f21e201e544c4306e19b984fb3e608389c76c986323e38360d2d14a8addf7f3b6846200009b565b62043eb46201a0a08801357f06f7918152161b937b639c08a2924bb49ca4bfb19e4eb726c59b421575c053777f02d79d731985dea7db10048745911bce0be4db80b26f1ff59fc0920a17981fe6846200009b565b62043f086201a0c08801357f2088a8b6fe398775305bd21db316d3a05bb42716b4d5a5c980562493341f28417f137a4102499cc7a03d2bd316725b0c81628dd1b2a76b907d01763d81eadaa665846200009b565b62043f5b6201a0e08801357edc7df7268a927176fba837ab7bf871531cc45106bd925f135c55521b5096237f1ffdae84868918cc80feea9a3885c5843548ba18b703efe0dbf67f49e4a02141846200009b565b62043faf6201a1008801357f2beb578ca29b9d8c29f8497004cbf98fa0bdd323d476298bc8085acfe337d7bd7f025da6d746eceaaac62bfa6fa9c062fc0c86cfc1746f35c2f0de752b8276c9c5846200009b565b620440036201a1208801357f0655d7c744cd5e12c41f3609478f944ef7d5c268f54f37516bbe6b9d59837b547f056363f0783f373f04b01e585e69712fedf3f4c70ebf4568ca9c2daaebb8ba3f846200009b565b620440576201a1408801357f219ddd202324835272f9963524bae2d3348a5a3cbe2b4a03b3b0c12182b8c8a77f1630120e78374999cca5ca6bea9ed74cd2a27a5a7a2e7d50cc4396fbca4c7b2f846200009b565b620440ab6201a1608801357f182d549a47d1de600a4b45aaa06875ec2ff330ea941c50fcc1211811232357717f21aa8d7d2982c677e84e041a4fa3df6fddb4d6d017920d1e0733089032cdc123846200009b565b620440ff6201a1808801357f0f002de779b24659c7c8f7fad20fb7423f47ccfc868815d2d5ee8744650d47a17f244d58f568206f4f264d6a17d36672017a79e75456f32da71a178b8d627356e2846200009b565b620441536201a1a08801357f26833cbdc7acc763b3200f974357e5d7bfc5c3d340f9c84940e3fa29d6cdaf4b7f0b56adac37675590d71d0a03722ebadfab0bb365f1b0b38d9d3ab4abc59b3611846200009b565b620441a76201a1c08801357f24b95f9be6d227f1e8070929b9a98902ec96637bdace1b92408efedcf34337887f1a61d6d1086638a7d506df6a6b74c3dd4b6940946a098b7889f0e2e581b3c2fc846200009b565b620441fb6201a1e08801357f18959cdbfccf0aa080e8713fbb15c65fc9ecf069c959df1a1b3368f0efa43f7d7f14e44e4202a63330598ca4a4299ea77c63310042cb9414a5a145f5ee9a8e986d846200009b565b6204424f6201a2008801357f140819a51a89611a356d9357abb67faa245d7c0907acf7c8c6ba5fcb638097107f22806963649421594c5ddba1e495995d5468c0f3067b5229fb150dd20ee4e10d846200009b565b620442a36201a2208801357f1910f0d60c7bc90493f387362a46d6bda3517a00c17a67b9068c7846b15955917f1a99cc5b4703b14e42b7684962f62dbdb30ef0ab7f88e36eaee677ed736572bd846200009b565b620442f76201a2408801357f158d37089131adf701382a66383841258692feae1b82345baf408828ce1f2b847f224cade51a6c603b3475f0c37d233ce22bae2fd92cb8e5525f74357a77916f2c846200009b565b6204434b6201a2608801357f18b2c2b8c93dfef968c3867d03f21d9f30761775a2d4912a7ca6e6797f25e4657f28905f3914d61db9b8ad747ad86f868dcd46f7184067f6ea942d419a23fa523c846200009b565b6204439f6201a2808801357f02f9de79e4452eca06d751417ced81b81d90aa75a7f04ceb86039b6e143047457f2e2c81274056c41f0ad9920532dbe231fde064d583513efdd9f809b667e3fe1c846200009b565b620443f36201a2a08801357f048d8c56d022177c4b8f95b0ea0e9efc937e564963c106f7781ea3bb82c35ebd7f06a3bf828f222e8ac2a904546c734e42f7cf50c1fa9fb97be5eed19bec5c6dbf846200009b565b620444476201a2c08801357f0ddc6a380f880ce986b4254c8d4fdfc12932829dd176700493426fb754e54eab7f020a560ebabd0b1eaba21b7dfa4adfde1baf9d1ceb4a11bd746d9e067f2aeadc846200009b565b6204449a6201a2e08801357ec86b4b1192884b760359a2a4cbeab0cd4741a1874becd1327cf945d66a049c7f278f55051039bdbb9517f177eb41459c93c6f8e79f7203b3bc7f4cd71a742924846200009b565b620444ee6201a3008801357f2737ca10529a7be9e34ce7d2058e947c6994b4f6169b8ed704f53fde928dfe517f1269011d356e700be5ad1691f1da77c291dd239779c25f30a2c79cff42ae0a16846200009b565b620445426201a3208801357f191e05759d2487984486d1efcb8712776e9b796c081b45f2531d9931b5984af57f14262ee25ed3340c1221aec9d8da0d6e415ccf9671616a677db0e056d6249447846200009b565b620445966201a3408801357f28fc5ab7b449314ce49de7537be54bfa6c6f631c486e474ecc69720d8a528ea17f041d6af2c4481e801a1a5ea832b525039a20ec7286c46699c133256f80c7cd5e846200009b565b620445ea6201a3608801357f293b728106a64b676ae12e15d9bf291bfa0321ad72fe505bc35489b84cb920127f18b31e31f9346f40f8434f316a175a6c93795c1edfaa1599d8767b06f31e9bd5846200009b565b6204463e6201a3808801357f08a554598d586cc5cb79ce22b3602dbf38035be70449ef020db7d753abfb16a47f22013bebd907ee095bce80cc8980b126bb734c8c978f3eb80c5131d651a2af5d846200009b565b620446926201a3a08801357f2029f371790c15459013ce50a984cdbcb1ddd2bd48a2e26e1b5a5a59c977a5b47f2ae5b21b4292923c349ff54810d006d0c7e42d907bfc681ec1130f9071c52ab0846200009b565b620446e66201a3c08801357f1e1de66465bb8c999fa622ba9e2f1d1196953cf6c79a07caa4713811313ab88d7f04f16d82bca3a373067ac67151e867499a93a877a314af11e05b72cc3f1a4f85846200009b565b6204473a6201a3e08801357f01bd02f799bf9a85c2b29df4b3a8931209a1665967a8108fa2535f7fc78bbcb37f189f0d167378703a15a21fc748383dbbc64cbee1d036ca51384a1e0eb806e4f4846200009b565b6204478e6201a4008801357f13daa38c87940f27303b05a80f3690edd94d45b2db50c70dfd0a9cb0de2074227f23a9049e9424a8feb8db365511150a980fb6b7ab71fb44ae9ec788dad4bd81d5846200009b565b620447e26201a4208801357f19e6a55d750988752e6252543d0e08fe607b825f3e8005fd1419294b193b04467f0f9bc6cb602d4455d1ed4ec1902d2e81221641a51adcd2515fc9215cc7a45b20846200009b565b620448366201a4408801357f25505f4c13920a91e9436449c0f5239c45e2ee3cf89d022f61b631f6f0f40ad47f2865954356624467ea6b761d914f2056f4cd6336b8f1590cc888589f841f43af846200009b565b6204488a6201a4608801357f2aba99c8c2b62086be83cab5679d0dc0de3f734f5ace97f3154f759db0500f0a7f048e573a4d173062ffc24fdecc4c82009461502319ca1cd35ca295199ec0d678846200009b565b620448de6201a4808801357f0c0e6b39d17087c8fb6277f4a79f47f0b44814817b3aed74e477f41662065bc07f19f3fe292b464c8cb264a44b695158387dc8bc7a582a1fcb6a26a63283269cc5846200009b565b620449326201a4a08801357f0b70b77c0dd19f89e666622857eefa743eb6711368303d87b66f63b9048950bf7f21c3c042fb8e45059c6c07673aea76d86001d958aca72d5c23600cac3e51a8c6846200009b565b620449866201a4c08801357f1907f2813abe3aa80b95f43fa23054a17db9281908fb796a98d7aeb3fe92e3a27f0f1bea858acdf972533c628a679bb6e9210c39219b3e20d1473ac9885e541de1846200009b565b620449da6201a4e08801357f0ede73964a35c59aec69b8715a987802f18daf4f95f2b0e6bc4a57be2795d4827f11a2626c406187349c7f0e1a4d9fdf23e832582f4ae787114c13e0ace2762791846200009b565b62044a2e6201a5008801357f2a76af652141fd82741ec2b7853488b793bf174b66188a4d6d5cedd60e7b3ebf7f209d7d1f392c2bd57057d07e55d35e357b4b3da514cbdde395143d8b829f26a4846200009b565b62044a826201a5208801357f23cba292c76c1ff4f904e3b6ef0a2eb37a9589c832cbe1c456afc267641cadfa7f0b08fbe954479ec0f1995e80609751bc220de4ecb695870cfd0be57b9edbc8bd846200009b565b62044ad56201a5408801357e3d1013fcaae046f78432a0ff130c0c2d4df10c2fdb03021755b9450c337fc77f16159bfbb65f77766b9da49b90baba5b33dcb25673fecec8fcd74f2a5afddda6846200009b565b62044b296201a5608801357f25c63bb426342597f8042aa25adfa8bb3070ab57baac0cb751af6df80d1530607f240a77d79d3c3a69ce815b262afd70952f907fad72555992de517b917c84547c846200009b565b62044b7d6201a5808801357f0801881d40ae9cac17e53bb76dc77951e89574675fedddbcaa254b29ce6e55177f069de8c644b63de484d3904b08486c97e3233e536251482dd6bcec91a0910004846200009b565b62044bd16201a5a08801357f13277675bc6c40da90f339129059798ec174ec17f8cb80e5040bee890670309f7f1b1599dc699059e98fca5b07435533d6bc6b7ac360b1461474a0878c0d8fcfba846200009b565b62044c256201a5c08801357f143560fe25ef4150daae109f1b08762a6294ac3c9c2e75a2317fbed099d419be7f1c9ab57fda231c1e41289eaa4679067113cf762bd1ef36935367781f8772ff80846200009b565b62044c796201a5e08801357f28fcff752129be8070f39a4714751d282f8d76f937e3e99f780167bc6517ee397f045aeaf9bf622c5481ceb799ea34983ac7f2975c1a3674df442816ecb68718c1846200009b565b62044ccd6201a6008801357f127b2b54a57d8e59c8a517252aabc1f27912a7bc55686666fa2c5282da6c517e7f08c68d3e68e08ffaa935d72e5350b7728b22d4d65a9fa8640e7a4cf98d99fd8b846200009b565b62044d216201a6208801357f2b0b69d8345fe5010ef8b5eae267d33b4295e180d0b4100897fd328989216d3a7f08f4c346fc5165f41f7ecc6c3cb6df304427258d543c7f93e11903ebdc415ef7846200009b565b62044d756201a6408801357f2e101b541a70f660f0a31125839d140b1638de3462828180b1996c1875a6f6597f07e05e31e04864bb9aaaa8c46144e9c074d607b7d782b9cfe21b93ece3bc9852846200009b565b62044dc96201a6608801357f22b1b142d2fbbfead162a6a06dcc57a0cfc6a89774bebbd7102528892c30f5247f2efcc6ac738901f44df2ef70d6f4b7f071deb7d797213d222303d86bdff97b8d846200009b565b62044e1d6201a6808801357f2a57421927a641c3a8a88b9df15023ebdd74691ff8bb4af99bfdabe205d453d37f1dc8b9f6e374fbfdae99316c9334c739c200636290e65b6a39e8cc626a18ff2f846200009b565b62044e716201a6a08801357f26884ebaa1af04f1312d9b9e6867b5369074f7c4ad140dfa173b34e7048760217f0409e3ab79ea66ddec571e9c1bcac678164fdc74db64c6618535ce09ff79a459846200009b565b62044ec56201a6c08801357f1a09c308465437019ed0487f6b29e67f1c0c62a74c775f73e2a1653eee59c68e7f2fae56c933a4ad129028fd3e88109e26d5efcb35af60c972eec5b0a3534d9037846200009b565b62044f196201a6e08801357f2bf6178af5e3fb549867933fedc20d8eae57021bab36c48d6d0bd4ac9b511f3f7f0989d168bc3105ccfde30a1c28b5bfc680baa9fe44591f214864831f8f01a0f1846200009b565b62044f6d6201a7008801357f2576bc94fec11fd5bca4ca529dc6bc340693a704fca3ee4d56ab768a1506cd757f017b85a5dcaf5748f7ea20d445e33c5922f356d688f28b4c4c2cec476719a051846200009b565b62044fc16201a7208801357f2f26a4e418ab7a0fde0b2d2e5395314daee8043db5ab3cd4ba4b7906f85c41257f1eab79cd5b834a1b4acd919858ae7a1025ae123ab747422598c73cd66dd0ba19846200009b565b620450156201a7408801357f26ba0b3ddad429230d89c5b65dd58bbcaacb195de7c415ef9ee73d782e1f74bf7f264f1e1ef4d383202b7fa61c1c346c8f233bb5f376ac4d8e3aad17336a048726846200009b565b620450696201a7608801357f13b5dc30c11403a6b4da555ae400127209281c1be44e79f5fb485ce5464bcff57f28b795b8e4ca8c130462c1a9b1d2f0f42217f6a3e96dc8b40a9918c5d922ea56846200009b565b620450bd6201a7808801357f01c2b018ca2956ee19090a28bb72c77ecebb07b17dcb17b79da992abcb261ef37f17c720b93fd7c28b586085774254f567d58ea7fa44b6703f0f18495c8225c062846200009b565b620451116201a7a08801357f15e205d39314475f04d4dda13b9c0ebe30a81b0cb336652cdab9c8d15c8e39dc7f1d38049f9ffd84b6e94e57f353414de1bcb799c94c121723cf4a145a592b9bb6846200009b565b620451656201a7c08801357f2bc72ad3c5ff0f909c18eb7367f28a3397d62f4adc57cbae98576c698309dda87f18b4792429ac3c4e290c0c50ae7143d4e815794da549dc900610a7f3d3ebada7846200009b565b620451b86201a7e08801357f15dc4976fb7d692cdf9ab4d8224376d4da3075576d5de4dcdda3bf127cdb64387e4257f0554f74d05c56354af3fda0b5e4507de63d9be23ddbdbc18bc84b7f46846200009b565b6204520c6201a8008801357f0f753438fd609fd793eb7aedd5dd2d307719599c9bd70731a6c5068cd59ce8c37f1ec93b26191e08954951d199e7f8fb823af6d4db579ab3de4c6da59509ff1028846200009b565b620452606201a8208801357f13770b4e6cb7dd2f33e6121a5293899988bb78e3c10156aac5f3173dbefa9eba7f193c1e866338f4f4399ad463b7e9a3be8a8a0853e5e57caa33f287f8383f6c49846200009b565b620452b46201a8408801357f12d337fc06dc87904ce293e07c5e8f21b2f7799af73fbcaf9e654684515d647e7f1c27b9032360b025f600a38b5efc29fa41309f522dad329fe879b7433dfc19b9846200009b565b620453086201a8608801357f0be4518571c87749dcf6aa416b0b8bf3b8d0abdd8d8a38545b3ea392c0066ae57f2a33d5db36128ddcde943acccc9d100683eea22d01e46e54c668b3e763dcba36846200009b565b6204535c6201a8808801357f053fac9006109abc7fb021eb069e998717bcd7435c6f6c22dbd1dcfa44aa68257f19e8c269d02d05e79049a777e3f016bb905b036a59a01d797b1b516a9743dc30846200009b565b620453b06201a8a08801357f246e2c4d0355e4df57b1b869bfaee7a3d6d776d31155c75b3e1700a2b73656aa7f106645440a52119c535d2c4e3ac87a4e2fb512b305fee6fd77de8573af6f90d2846200009b565b620454046201a8c08801357f053e779099ee822987ec1bce314ee824290ead7a42eddb8aa8cc21891cfc64267f1702f6b6d4ee3fcd00c572915c1d06fad858555e5bc956aaf7dabd47117963f2846200009b565b620454576201a8e08801357f10f06bcf23bbd2e29bfd26b0a8fe8c04ab7d126386022d8d8267c2b825cff6987e6cff058b84da05e4254c32838a650c215c835ac9d49aa6416d41de7418269c846200009b565b620454ab6201a9008801357f08a0557453bfc479b6d0e3af531397c2ca659b5a69e0e8873b3ebbadee4476717f1ff488eb70338c30daf44b1239bcd3d90664e1e944f18d8f31f9f58547d1c0d3846200009b565b620454ff6201a9208801357f114329ea1161d223f118dca1d10cfed9d0ab46e759fc90189465aaa1029a995c7f0b0f0a19f20433e5c503a66e8360034f6befbc55d7e1153a73242f02156f777f846200009b565b620455536201a9408801357f21eed51719d89cb19265d87445e862d05432dd5ea391be9a238a5ec354e9b47e7f19aa93fbfe1097dd17d6787e279f6baf91deac8f7ffe2f527522081d8f7657fe846200009b565b620455a76201a9608801357f28ade766c44c462cf30052bb56f45b624b30c30ab9192eea07c27ccf09d437597f2909f1739b165ea0c9b78d022c5a92bb42595059984c27a1b4e80e8cd88f82e8846200009b565b620455fb6201a9808801357f2a56a8b6f404d6fd4f16f4947ddb009e9a1362d096f99df65a3df30b5d578c337f1c8bb68f067330c2a4bc051fa949b31f399e02ad36e21ab999c97462e6ec7d03846200009b565b6204564f6201a9a08801357f16e9533c8079f55da9f0954f91df73e82738ed7d99298969db6b06848dd6b9787f1e6464cbae9e30f8ab036fed155677af593eb66bc046678585b6e9abe65925a4846200009b565b620456a36201a9c08801357f1073cf6ad06eb31275cdd2093c127e321a90f43cf8bc67ff0fec288c977339797f1ec2392a533c1e8a4cbf969664f97024602b9c92e00a184638f0d54809e1cbac846200009b565b620456f76201a9e08801357f0b96586c097e35d5fbba8229075715f7bb5ef4646a4959b5270711afdbef39a17f26af26a7b4104b4d7e0bc44f6b3a752a245f12d09f742c66a6de51cf3d7d8919846200009b565b6204574b6201aa008801357f1a200a5ca25279de67285c014f8f4107e33ee6529aef467eb323b7bb9a2c8ea37f0b11dca3cb10ede61f5d4b609717d3cc92c221e53031dc0bb52bce0d08da06c8846200009b565b6204579f6201aa208801357f013db27e611e3bdda3f5485ea8277a29fd3db938f885a70af7cbee5fa29d18687f2569ab6125973cf9894e4e01b1bf4adfc34c23402c88e0e9906e85c0b4752720846200009b565b620457f36201aa408801357f13b3a54c586e7fff0dac2c688009bd22874b6b4c83414b8e981db15257aeb6f77f2dadeac5a9c6e17ebff82529c0c4662766a5422085bbbe0ab29421fb04aacc19846200009b565b620458476201aa608801357f0398befbcf7f38bc2377cd2c26d8bfcc6c17309f16b2a97735bd59446c6de9b07f20258fe12b815e9bd1a1c85c5334d5259b51ca6daa398813b055a591a42ab447846200009b565b6204589b6201aa808801357f2e5ef28d9aaeea4b2fb5f43f3e2cea339c7a8426750401f002759d182f80142c7f1f2039e3e3c8ca0f44dd3889414dbb2a0c108e0315b2a644d38c12d9e68a07f5846200009b565b620458ef6201aaa08801357f15793279d095d5aaa799fda0221f74c2eebe8f3b3302db86b39f597661a178077f1227cc96a7c34de8649e2e2170e0f14155676453b64e5f1cb2fe05b40c6c474d846200009b565b620459436201aac08801357f18fe901c8c60b27d0a6975dcbeb640f762a5de03b779643db5ca8ba47c3b0f1c7f19594a68e0c245943f3fda9285bcba44a00cb731ed580fe0cbdc0644259b56ea846200009b565b620459976201aae08801357f2303bbf0e9907ddb67f9afbbede8604991ef4090dfcbb3bea6917a7d07c247487f0c3caa535cae98424f90eef00fa488bb2f0ed3486281f3130df705615ec9d867846200009b565b620459eb6201ab008801357f1c010b20f51fd5628b71cfdd1c293dae28aa9f6b1c732020a0f6d00574588a4a7f066f329d1f7a61caf3fd4a1f52fce3ad1b790bed0f911ad9623041c699c07220846200009b565b62045a3f6201ab208801357f215e7085a2f29d0c5ca89104642614f62ee3915d162d11a136cf84d30dcc88e67f1d4fd2d5a12ce36e69309f32c2b5c4a5b4d9a5ebbd644b416f7e1ef92d70e2fc846200009b565b62045a936201ab408801357f1473cb16fb10b84c4232952a774d69a91d3d82a17967ba0444437e99029e121b7f121ad210edf750a51ca55db0089af43434f9c441ada97a76edc00af1d891ac58846200009b565b62045ae76201ab608801357f2b4f3391ff09ac451ba3f4f3ba512493b101d04b8ed60ba1d076b99d4c96c05f7f1469eda2b51ce878e4a97894f29267f8b4cbdeab8f7914c910f2cd19e3179680846200009b565b62045b3b6201ab808801357f28996b8b7c54779a0e8382c41bac6c110de3788fb3d6f63c7ead299234ffbb0b7f02297e4dae9885c2322aa4f9e70640cdcef0165ef0f1381b7ec12d1d586bb9fd846200009b565b62045b8f6201aba08801357f0ecd3f75d75167d9fd5a47ebc2498ab074dbc44fca1e33167c37d9a7f37fc45c7f078a59d8cf5abe55400678075e2871d21a9392b4e921a92d0b168dd24b6d92d8846200009b565b62045be36201abc08801357f223762c877b46bb980e0b6607ea4fdc7a5a3c70e0a5d0f50ab7ffe9be40e19457f1ac4bee7dfa42318970fc7646db96e75118deffc6b2be596f98ab3f2a6737af9846200009b565b62045c376201abe08801357f160338f9fda68296605b9c971ebd57b045ca19167adaf1d301117c5ed417b97e7f0e4e6d598bf983478ca7eb56bb58f0de75ec3561bce37a24660ced9977046b53846200009b565b62045c8b6201ac008801357f2b552560fe237238cc10f8d0663856f771b3e3c343034f08274d74973709d6ea7f2490c3604b0b678ce129b6315f4a1c48a9e8b7ecb98ebd7c3011de7e54aa219e846200009b565b62045cdf6201ac208801357f0aa423ec416c90322a93a9908de4467793f9638111d69f0c19a6063224c7da697f1103ff3d3dfffb5baedc036422452bb1d289395b1e86f0eb1c623cb22632374a846200009b565b62045d336201ac408801357f2afcbef0cf37c6248b4f600ce7b968b2ad1df85fe41c3e849040a79c192302897f302ee414482a53f3ee7c63019ab3e330a9b602faedd25c14fdd6798bf872d7a4846200009b565b62045d876201ac608801357f027147f7b839b8b1487f4c6b92e9487e7149a5f5b49ccacb492f30f3f7fc224e7f2c96c66062cd6e395eaaa6153a9700fa3f0b0d5c5abcfb58969347739662b1fd846200009b565b62045ddb6201ac808801357f2274cc0ccd25cefbddbb8ee290793984d8e0853cfe5a6965341b85860d3ae4a27f18deb1a04e6872e7e6de03660f5e30593b336e0162f1d09a55111690d7e2057f846200009b565b62045e2f6201aca08801357f1b1e54a7dc9b9fb0b1a09ca7f19996f807a15eb5439eab1782483a498a6a9ea57f133f5fdb324fedacf706dd1fa73062e5585a2037355d0de35c1e6cbdede2a036846200009b565b62045e836201acc08801357f273ea07978ba71e37b6d44c2a0bfb5e9d9a5d5eca1dd067ac1302042a74105387f1969bc6bab95747fd50880b78d0b9f03c50ef432dd68ecbfcb2f4f7b7fec4300846200009b565b62045ed76201ace08801357f0ff7a25beaf42aae46babc114065df490df5595788a9500d08cc86b0a74967157f18cafa4fa627a9d246afbd904e4f10e3cad375721f1ddbe109e6a94c2844a82c846200009b565b62045f2b6201ad008801357f1584c5448607506a31f4e54bd7c6fe20b492e790732e5507bf200baf11379a5c7f176878f3baf1ca7f418ae625f38beb7263c37c07efa8fbfa972acba1195a29f2846200009b565b62045f7f6201ad208801357f2fbada125a5dd578e2d2c3abb32e65d439c27964691cdc9ccaf4152ee0cf84737f1d90fb1e7e763992007b046b92201044609a74ff7ea5730d54c3ed63d7c74a9e846200009b565b62045fd36201ad408801357f08c46f690f2dd57e6900f3a8052354beafc9f22208bc205ee83dd4a963cddb727f1c7653bc16e311cf860632f45193ad065b3d7121ec43c457abd4deac39026e3a846200009b565b620460276201ad608801357f278b02a0861d2e642f050708981abdb7302b8019ebf6c21af5e78e77df64b23f7f0713d007934d82288fec842b4ec31abba425886e1f92153a5873c8bc8cfe5b1b846200009b565b6204607b6201ad808801357f0721ec5721cc032376ddee8181485f10c7e2723aaa5c64d5b289ba92f5efe9c57f16eba110826d2d1501d3b89d24749270e096765a8b68222b8f1935af69c34a73846200009b565b620460cf6201ada08801357f011bc9b9eb47dd55532d6b9d17bd1576ec5e60735ef533833375592b610813577f06ad714b6039de547a8834b994b77ab40f38c3e4a0ada415ad35ea92a6780e08846200009b565b620461236201adc08801357f1630a122bbb8144d430bdb2412795d8994d0bd1eb6c4f6fcf1d9bc83f4dcee9a7f06454e7300fa8a3526b0bf8f4a6e9255b048b40f0e11956d329044253ec21022846200009b565b620461776201ade08801357f2d14a9fa05384c9ded7ffa1a03f4da0bbb0fdf827c11b4bbf4116100b78f00d37f27e53195148072f3a11f0a754b35eecde9fa4db3d2d8567f56f1dee67ad99b94846200009b565b620461ca6201ae008801357f0c241647717a82d0c78dc8692ab7c0737b34038316b5158a71428e4f69de01607ed6266c7e9a1b6413c84cba85f9158d0394f1fcc139e9cd01258fc6ffe4a601846200009b565b6204621e6201ae208801357f109c06b03b0e657ea378a987ada1b9ec598c6a2c14daac101ded3a8dd8e12c037f14918319c21d288080125e1ac8f2e97467c37e8b3eda7a6b54287f49fb876b37846200009b565b620462726201ae408801357f06b3efaf9675737f981bc414e3c0bb347e4e6cf0d4586272792353c231d06ae37f1c05eb36a7156a341688826334255f155410c17041bac3155036f891f5528194846200009b565b620462c66201ae608801357f231b6e1f47d62a4bf066d41b6b06729db8743050fa5b5dca54fb5ba8549d86a97f1d47bb4cfabdfc0e2071d0641a3cf5d7cd62e30f5d8e347e65a58a37d4575cba846200009b565b6204631a6201ae808801357f2bb741e7f2ed68ead949d37cd01dcc11e08e1f7270f6acec80f75ae62c2e96267f0a6f9f19762c4fdc2c636ecce646a94c53aa9bd818fdfa705f20bb04dfbc83de846200009b565b6204636e6201aea08801357f21bccd41815cc853dc0f29d97d01bf61c05d52acfdcc076da9099ca561c73dfa7f245f022259c3e78baf98519325ff4a13af16284aca4d2079c2bd9fdcc25b55cf846200009b565b620463c26201aec08801357f01a93b94d9e078a3926bf3e2ef1a7f53cf459ef69ebfb56c4b7989c5c895b7077f1e11a5020560725f2aed3f134854b0a97713d96a22ad9299021ff1b9e1143bf4846200009b565b620464166201aee08801357f2dab6dca984611f295335ca6502c80a712b2f16841fec72c37f256d83402dc6d7f0eb0cd2dc4b6c52d49eb51791b1ec8178401dd5cb960a58085a96a07ac7abd2e846200009b565b6204646a6201af008801357f2dd0cb62f6fac627f7ee489e4757f7d01e3340f6740ad2896cc80f1fda2199ba7f0b7fe4fc8dc61eb1baace1e1b8256a199253d82dfa667bccfb7dd07946df6466846200009b565b620464be6201af208801357f05796a305f947b519ab4e62274a26159fdb8eb437334ba69ca5da806fea888037f1dcca663e32ea461325bd9b34e8b29cb90da1060ea37b32866c1b923ba08394c846200009b565b620465116201af408801357ec91686ab44218ce9af4324ab8420b8b0dff469252139dbee3b1f407949dd1c7f08444afad5ae5e854c74255b252b21162c4e545882610162e7c61c2b094633c5846200009b565b620465656201af608801357f2379d8233c7d56705aa312a8fdb539047ef37670b38acce0a0beba007d260f7a7f269360473dc6777fe690b08c1bf393ed342b201de7f18b67615fa0a928a40206846200009b565b620465b96201af808801357f0c61db2dfe5f979e8e989d84397601b9d92dca8d8003d5678a0680e8393044c77f17fa8e90f3aa9ffe3c8bb95894bb3fa3b81a47470d1c3c6273da89578b5d6604846200009b565b6204660d6201afa08801357f2cee3696d68a86766632edabfb123b6ffa845dfc07f0379141481deed88a6aac7f04805019fd2eac5afde3733a4f6d267e541e4b2b6bfa46a980397395a2a690ad846200009b565b620466616201afc08801357f1dad659143f77a452486d992ddee911b81f2d59ba2ed3aeddb0d1407ff944a4a7f145c976c957f2a9c9053bcb0e5013570f339e5b585647c441e0f904544353ae2846200009b565b620466b56201afe08801357f10a52d8dedea381f906d7a09b0ec2cb536a3fc76b43b397c4dade7ac45c5aa637f2ee0f85a85aa847bc7ebe75cc48c0b1f5fab93fbe43881dcefe8a431fb17231f846200009b565b620467096201b0008801357f07f1333d579ccc1e19049b3e673553edf810686a5ed117ea82429f5cb9bbf0527f0c4f26536f11f8de22e6c42a0e7b4b1b3dd67e09b656c083e7636ad2914c293a846200009b565b6204675d6201b0208801357f1ce727034a8f86ab5542111ce8e1211147a632ef01a41803c9821e88a1c9da0e7f18f028464e960ba06eb76e08748ca350897fda90f2b6319d8c7c0030f1f3334f846200009b565b620467b16201b0408801357f1fea61265e613d8e971e8331e05044b7f117fbfb7cbe47a99727322d92af3baf7f26d7635700a46a193634d6855afaf7434486d64f0b47d97ec3296e33a60fc242846200009b565b620468056201b0608801357f06fd217b5e316236cb815a75aec88e2479c6422471ebbbe38e4838a2e93f7a317f04b8a4a8951db5f6c8adb33245fedc9fc69d60b6406db650bb8fc95f765b9fec846200009b565b620468596201b0808801357f133da268634d7da4a7f658d5e6c00aa840a436c865c2f1eded0373bb46da5ceb7f17638cb1d61ddffd6eebffee1930bbd3a7ff9976f3eb070f9ac6d8bb631a7102846200009b565b620468ad6201b0a08801357f1dc3467b51e4614e0e07e9e3e9ebe6aa5bdf538c24a34b06e4e04db6e10bb77b7f0eb0b1ad5a35362e2d9bbc7d7f29af21d6579ed67ad4ff7a380cbe3c184f949b846200009b565b620469016201b0c08801357f234b8ef0732d690f78c61e579872e84d7daa91f3e5ea807acc2e026cf0fdf2c07f1fe0e3b3184053862c3290b6fef9909b4b4cb08182953c5bf4f25218f47b754e846200009b565b620469556201b0e08801357f193dd518c9ad4909540b4e0a7dbe558bdde217b4e13610ec306ff92dffe6a0577f02a33eb4660b62b3d99a4c8f7cb7d942553c33a5cad0ac2ea67f63173a966380846200009b565b620469a96201b1008801357f1474577b5a8db550a06e7b3106c20b8e07e5691ea6e47c14bfa4f25049d865b67f195815b4aeb1784cae201e4da889755265e71018a9d6cd13a79e184bb6fcc1f1846200009b565b620469fd6201b1208801357f09ff199bf5fab1bb629f8bf3dd6d3d40462424d6ed15707d4ea9258e1efb9dba7f2d9e21a484bde34ce16995aca95d186f6b3627bbbe4c4956c663b0c432ed7cd0846200009b565b62046a516201b1408801357f0e0f12ae7aaf55c83f17a3501d6b797ddd86b0720ce9c7b43d84576e1bb1428a7f020bf5b4be46e2cdd7e273184ee7a2a89982a61abfb0e188ed486a405f7e7d46846200009b565b62046aa56201b1608801357f0dbd322ebba36f5e01f9ce83ac5202ecb2727c8e78f2fe2bd0bc1786610ce6667f21b20da902b1db36d3f83a4e00655f62e5cc8ef3615e3cd02448f162bea3407a846200009b565b62046af96201b1808801357f114ee3e98ea8cb74a40bb9d662ec88913c759bdb3401b0105411b894d2b23c0a7f05e6af1d4bac3bc8ae9b3a8a91807deddabeec98c7ce8d19f1fc95ead1fbd44a846200009b565b62046b4d6201b1a08801357f2394a630ba903f66d33e095261d7d9f591023df0b3131dfbc331d0f5f4aa91677f0e7302ee47fa7bd750946dc07942cde4df00e613f1345c315c1229837c166c47846200009b565b62046ba16201b1c08801357f1e145aadddda1e4fd3ee89eab5e23077f09a55a1ff2ac1ac35dbc351f5227f097f1c7b909a7c2f63d55650bf23e3bffeafad4d6f413c3536ae5b749f2169a7ed1b846200009b565b62046bf56201b1e08801357f2bd75f4cb0a920e07a0f2bf128158e12f31585bdb325c3d2845e367710f6cd927f2bdcd36ce49d1a3016a2582c4b19dce392c9d8ac65d7c6561f39f40890010517846200009b565b62046c496201b2008801357f179f2b0bf64fdddb5aeca7d9e45920ebfb4fd0095c512f669166d9bea887c8907f091b24796f16de2273220fa2d0464cf02ec75974763bb78c87cca963e3d1dae6846200009b565b62046c9d6201b2208801357f0126efeea9c340d9151f134383d985657b4765bfe2ccf735d87c6226c46c79897f238fc7641e5638a476be34c8ff8e9c62bb6aa176a53669b2af09af6f7cd72dec846200009b565b62046cf06201b2408801357eb35b496e6b10978bf0857ad63242816a1be83815a3b4ca0e987e48e74cf2cc7f2d8c7f220cf40161862f8114be13778df5c480f0d1472e8b0fc8a4d00c11ef2a846200009b565b62046d446201b2608801357f0ba46068b27922bb09d8050d2e8ed81a9588ae823733046184bcd52f7d1841707f29aa1f410d0466dde38b65a50e2a2cbc2f2c36b111ed83a86c0e57d5a86a44af846200009b565b62046d986201b2808801357f0b35a5fae16c416e4c52ce8427c935657a05118bcdac0e0eafd3bb37b3b963ca7f1f792e81cdf31faba4e4bb8bd0f6455e2dcdc0534084b662ddff07526f136004846200009b565b62046dec6201b2a08801357f0ab2921ff8ff6344f4e420b229f78d5d78c69b323edab308beaf97417c87914a7f01fda25051ef53a6e773c97c01e0989d17162cb4535837cb94eccbd3e699b28a846200009b565b62046e406201b2c08801357f22f3f5e467902f6df65a7ba9aa1a07ea1817040b990f4d83b349f3cb5d115f827f0398259dc42f10b77ad5d6017025c59274496c19b4ff5dfdfb2455090917ad87846200009b565b62046e946201b2e08801357f14b30b8cc4e79e8576cf0edb21d2000f0bed64fd926c1695b1cccaff347ebd047f2f81b998485a2c72222b2d48ca32983904ce4085465507577dade76da5419455846200009b565b62046ee86201b3008801357f0a917f7f66516e82f733185435b11930e2859eafdda61b47faf5a2743fd207c17f1e1136cdd679b5e419075e245c72c33d43ae52f189342fbe240fd2bc49cebd5e846200009b565b62046f3c6201b3208801357f242a93708b76045f6a07b45e26dec21282ef4cc37bf7bb891273916efe7e4bde7f235e2bf79241d0dc2f834618ac0de8fa0064f8e48f65cafddbfece2738e034e8846200009b565b62046f906201b3408801357f0c2bab9f567535d7ae338b020328d44270fa30b191687205bb3f931d0dcf8f767f013f864696356dac9f81714ae124bd64ef217e76bbff3b192a55a3bd5d2a0eab846200009b565b62046fe46201b3608801357f0fbb408d3749a85e83886964d1cbfe2dd0ed7c804fb8b41d8f3e35eaa1c67c897f2809b7ae1b349bcf4aa2b53bd3ce40b7cb5470feb831ead977e70943c7d1b6d7846200009b565b620470386201b3808801357f235bd2e9c1b31eef96423d6b6fffac79baff1a899e75a4bbb1bc2a8b4224075e7f1bb0e0518d09781a55a0871c46dbdcc238dedd143a6d45478fad2bb25db8eada846200009b565b6204708c6201b3a08801357f2fd719b804fe290e4c0ecf73121ea8189ade22c83ebfd9c3f78c8632d610bb417f2ae4a32617c096f8044500e262df7378b648111817b92012af233f77bd7aaced846200009b565b620470e06201b3c08801357f1902ef0162230d920273e8918766a1e2b81c35ab1ddba988308cde3af05e7e5e7f09fcb57a90563f61b81c85c2e43748daa027297c05605e7dd65b3bf3814405ce846200009b565b620471346201b3e08801357f1e80333e8162d7c19da3f00ed1b3eb8b37f54457c91580e4817e4c875ef4c97f7f0d1a6f61a61b43d632f7eecd4d59c533ffb230a2e222fc9554807243af14f651846200009b565b620471886201b4008801357f2ac1229280fe45eb555163cd7ef7ae13de2c5fda384a540e8ac0904ee93d49e17f0565ad782899811e8b88a74741ee0d2e53e978da6fecb14a3b1301f4f9b4eea8846200009b565b620471dc6201b4208801357f197f7b8941addb9a84b1fe29613ab0a8f41059f58c2e6cf945ff887eaa75fdfd7f10f841be30da6dbd881edea548db94aae3d4f0fe1f7d9108812e781d00458045846200009b565b620472306201b4408801357f01df3d198aafd40a216ba1458eaba55ffd45016efcd317bc50fa842e81453be97f209c78f3bc9c654b70bdebc68a61a14c566928abaf9bca262407ecca2fd67000846200009b565b620472846201b4608801357f0c73cc93aaa713c5a79c4ae560b2c60c73785361058eae376fbc85f188c61e4d7f1dc9a9beee6e6472ccf3007b8c45a428b703e554ff31993d3a370b3519ef3dd0846200009b565b620472d86201b4808801357f09c969528dc454872297a2c920019a340cb7ed09ace117f9cfde4ac10842ca3b7f03dcab444d6096a62fefc9d55b5047301e2892ccb2e07e67e52204e2f9d3bef4846200009b565b6204732c6201b4a08801357f1339bcd18a14a2455f88b6bddea48a163d096f7224a3cd2efa362e8c6e4f0be67f1beb404680e478c8ab25a8dacf39bdf0c67a7ad029957fd2082c1411def0a036846200009b565b620473806201b4c08801357f10e983449b864a8c5542f78bfe5ff7258b95e46bee118212736dcf84a9abbe777f2532132b6d1eb089cfc9d5ba65e41395a89c78a4623888ab03e071aa685122cc846200009b565b620473d46201b4e08801357f15d0d08a4ca93dbf33ac4465f320c76d5f9b073e1abcd045392eb56f27aa07987f1ee368985ba7f0ff07fbaa54f29c9436d899306f9e4d2930344e34da336896bb846200009b565b620474286201b5008801357f1e526a622cae5768466bc78c0bd4e05b0d70ae93fb0fb748c88ba28fc94909a57f229c9f05e4d13cd9ef715cff9d54986fe7dbb61d5a3badbecf7ca75fa23ac2a3846200009b565b6204747c6201b5208801357f24d39c3b2be1e001efbe7fd482251765c9982cc0684b5b250963f1d2eac086e67f2747156e3a6d47c5413fc7b8c1184bb4e6679b7128b17708b6708eaa967e10b6846200009b565b620474d06201b5408801357f04f861ee23f110f0d23af3aaa64283f79487aa25ad15f0b0a80f13982a548be47f255d486490d1ee3b12c1bd9dd16b417d392a14f66c67b2f8a892e5d1b28b7202846200009b565b620475246201b5608801357f232d4cb3fd34e0142ea34355397d6b7d5e470baf505a836ef66c9b327572e70c7f1816d39792e91ee5b7e75521928284114dcf0e28d28e0d31a64391a792d93a56846200009b565b620475786201b5808801357f09a2c4f5f5fe100430ec4d8503dd8fdbd8e8bc44eed0e7665795f15843e8d68b7f200da77ea4aa7af99743c6a2300185eb4a5ce769ec540f2b8cf31e545db4c6a7846200009b565b620475cc6201b5a08801357f10cb73fb4bc25ca9fe2880b3aee7fef593ac2a255b37c0e9541a4f4d02edfa1e7f142547aab35baf9ad6b905e41d128de504d49dbdecb030c025587b5aeff7d5cd846200009b565b620476206201b5c08801357f07d1f388998e8a7df108a56d4e9a83fe83530533931e68f0a19f1aea3569b0987f216743471e47b73b82d06d31ee247942478043b878afc8d0cde2913c81607860846200009b565b620476746201b5e08801357f2955cda26537aa1d24190a88a23fc1cb26046aec32e34b979e805fff39a986137f3019f7abc387a26461b441a132324dc56edf99c0cf338fbf480f29175a20cf00846200009b565b620476c86201b6008801357f27d14e14f5205a74449878501e8fb68ec8047664f9d424afaef2c9bb4bfa5c2a7f295c24f08c543e69a6df503fbb37a6823e19c4c06f5d6e82a6c0960015f275a8846200009b565b6204771c6201b6208801357f20fd31dcba0b60621b08992de6563df51574cf53ccc4a01dfe32d3cc6775ebb17f1be1e05bb444486f10225dabc9006df3bb949783cc9a19a8d606f47f2a08332e846200009b565b620477706201b6408801357f18e706d46ef928790367f966cecc7edba2daef8eadc06f3d85aa93b6bdad876d7f08626b0e08ee6d3bb3160ed3dd669cd7d0cd63e60fcff53af3faba91b4ecb986846200009b565b620477c46201b6608801357f06e643f7271d07ac42a6c23a28e5f841ed0e4cf320ab663cb188a1717953393e7f1396a2a9b2546e8d0597861eaf9c6afe7ff887d8909ddb2c4bcce24d78bbb1b6846200009b565b620478186201b6808801357f13e9aebf2e82df3a1ef187026f19ca2ed23065ae1e905df209f18e5bc091d5167f2a4ca54092761344fa468a7e6f123c08582117d25e72e3909174a1b94f5d95c3846200009b565b6204786c6201b6a08801357f092e407e24e31d71cf7ff26c9c7cd684009bacf9fbb41628c6c39749ce454e477f21aa7df8f5a7104cddfaab7c6b235ad5c533c4043605837c3f5947cc9d52efe8846200009b565b620478c06201b6c08801357f069dd2ca22d8832347d4e4660e0e5228d6f12440a0f8187aba5bd52decd068bd7f030fafc07601785d2eda6f83481604049c2e0f4e125cb7c7d77a3d7532f2aefe846200009b565b620479146201b6e08801357f020f15213c7a1b56cb532eb58facd3ab9fda7ea1aae7d2081c9fbdfca0e3fc407f0e62e74a7f64c4ca51eb3521dc9012115f8d51d6da49f1d178e3daa9508f6db4846200009b565b620479686201b7008801357f0d7ae3c221a4acfda7a20a2714234e948be567786633f33065f66932bf31d0e47f2440476fed53427a44504b3c68c23c535ac594e200eb57abcda16c59779b7e9b846200009b565b620479bc6201b7208801357f1068998928c9888206f184276e3c9595a3f9d23ce11725532de474d9757e99a47f268c4e1ff4aadbfc76a6aa5587dfe833316319cbd5f0df80db997c9f0c006ad9846200009b565b62047a106201b7408801357f243fba1691f05f3824407bad156ad0ebf2e529c7f3d88a0d798ea1277c36f0327f24c6d822dc5116cf87cded9fe03eeb08e5222697b8626eaa340adf4bdd549181846200009b565b62047a646201b7608801357f01c975b4e89cea0f4c98b811a3987ecf3fc4e8dcf3c1261f0e816eaa4513203a7f0e66110a3232e620005b1ef27dda2ec44c7604c3860db9ca48f646831ad5dec5846200009b565b62047ab86201b7808801357f27728b03a688c01e7783a4447d751b50508bc2489191db6da7e0f63363b42da07f23467b7c08de85f43ba8e6572e1b083e2ad4cc84342b04007c6f0023f682442a846200009b565b62047b0c6201b7a08801357f25da43f9c37604b5038254abaa699cf83d15111ca6888117942cc1ab96a973877f0b516b49ac78b21b1248286be2bf18c4476e2472e9579187a14b8bdfef0e7161846200009b565b62047b606201b7c08801357f1dea4b8b946cbbdb23352af8037fa93378558da116646e84eabbed090a71a36f7f1524d0354aa7acd57637a715664f8bacd46cfe1d43b71e25c4453ee4cbc89a57846200009b565b62047bb46201b7e08801357f0edf8217386c21493f18d54ec8d1f840f9a4aafb5f3b8bcd9163a8adbd4eaf8f7f2c6953e2e533a626f4d37930acf6695c96109d38a296b6df0ae85e88d8654746846200009b565b62047c086201b8008801357f10f293bfc8436a051a7b0f669bf2e873efe78758ea94650f24bfc14be94cbd887f09340ccaa6b8a3144decf1b374cd3c217bb165f7c0fa51dc56b4cf35f1e621a3846200009b565b62047c5c6201b8208801357f0afe219c877a89a00a0d6c227b7685281016d9c2028ecfea89c8269a411941f07f288a8e01b0d9c89352af90780b5eb8e8a496b141117d53dce6a863555777a818846200009b565b62047cb06201b8408801357f1741238221dba91e27aaecbc518157b838ba1340ee16c4686f08438d6f38369a7f21f46333cf2c2f2808959bb446ba01e0b953607886c7d5541732769ee61e2168846200009b565b62047d046201b8608801357f04e553db3045e461610997fe19b6c9ec272f6c4ab85341a79e0308b002666b5f7f0b1218ec23d8581df642a0f4a524f1e9b00181b03f9e8915ddd00bcd89f6e85a846200009b565b62047d586201b8808801357f14b2985d8f1a289de234b2e228a34806b27d51c0838a25e8f546d74a3e3dfe307f2a4b7328f10e04e465aee5e87a195928a92d7f2a3a12db66a83cd1427ab8b774846200009b565b62047dab6201b8a08801357f28d287561d13ed213a3904c839e41c056e826057bc89139f9b1c9606e63024e47e3841e54396e16f2396b4105668d5021b2327eb79d3f700836c0703be424a94846200009b565b62047dff6201b8c08801357f0c4c391f3a0cae47ae6bdabaa3df828da5de7fd55478fabd44602ef3023326637f1fbae7ba6131d8607a33fb30b479d5bf5d8b4029364df559795515b1ed17f624846200009b565b62047e536201b8e08801357f0313050ad6c5498681292f76b5d4ed9b892dcb296a10766d5b9d05c483a6381c7f27e314bf2c51a62c9c69d81cced2b7f7464187aaf7846a843cf465520afbf888846200009b565b62047ea76201b9008801357f17b80ade4776f192353a5985de20af3dd97bbf99c0282580a28bb8c9afdf2df07f2640dff8b8226d306bada1c2ffd22d17e32278ccb742d7ef5c54a8737ea8d795846200009b565b62047efb6201b9208801357f1d64d9de77f3f11ecd882892e2bd4a0cf807bf8ef402516713939d6fb708e6957f26b9058c7a82c9f9e61e966cb3405e9c87f6bd8860d60220a1d64bb51c96d401846200009b565b62047f4f6201b9408801357f11818e07a042959cb7589ae22ada341bacaff0899512b273c22a7fe9741441197f2c964e0db818969f4dec541a5fa7e9912a8f3974f8cbcb60cd5cdd8825e952bc846200009b565b62047fa36201b9608801357f088618333a9f613d46a681c27e98b26ab5518a4687cb93fc348b7d5e35e29d9e7f2da891861dce5c6ef223e9a6bb9f7cf200a7ce4da59a329658895f2a6fb0da17846200009b565b62047ff76201b9808801357f25ffd47a29d81632d79f05a426a4d1e6d1a9ea02c37c9a66a2f5b121b7032f877f2842cec5b11b3b87122c505c6f6126b6381abf2a264cabe655e4425728057dec846200009b565b6204804b6201b9a08801357f2b0aa01bc8b38b85fb3b78b4b8948e2b886d88f35a1d16b3de7cd5dadf5f29547f13fd85aabd25a92638f96289dd5ba4adfe96cecf91b3b24ce2c33f0bc27deb78846200009b565b6204809f6201b9c08801357f1d506304e1b3a25e746f2e320f63a2b855eea5fd802021c3fdad6387100e83f87f10df7a285ebdf90e65a9363497d03062e05c9af3b3bb1387ab137561f76fd285846200009b565b620480f36201b9e08801357f296cc3edf9a57cc82e743ae581c7a493ac9b3ff6e389080e1bccbfa77590151d7f287916acefce532d806eff46c5f045062569ef924c725facac7014318c66143f846200009b565b620481476201ba008801357f2e04dc27e3bd966f8c663b320be647dca7a924f43d6702d9ba78bfc3ef719b947f0398852ca6652a4c7f7f2db5a3356743672706ac46371f7350d2398b92769edb846200009b565b6204819b6201ba208801357f27cb911c7554cb51a0f6ebf7cecc9682728b0d0cfd98cb7127cc111debbcae017f2dcdf77db3db3883c932ccb87cde0edfa30cf3d43848737c3440eda8502bdbb0846200009b565b620481ef6201ba408801357f1b8068b9d55b03f88335b8459fe4d10f912478ac4ba678283e2e84788b5d44eb7f2b200e09581c86368efc02374f434da6b93d463ffbbb0021fade94ba279b9501846200009b565b620482426201ba608801357f02bfa18db2c1a7f6cb99a1173ffe53b3f597fea6c0f13a6d39924465d5a04b2f7e11ff95fb3db1ed03ebaa75d12a1e14793095c02ec4bc82e928e5bbd7b73d77846200009b565b620482966201ba808801357f10f756a7727f7aec2694ff5f698612b73a41d0aaa351f371080ec4cc50e9b8017f03c587ff02d007d108d828a17363df06d5e63f602d9ddcb246ede9dcebb57e09846200009b565b620482ea6201baa08801357f24a16f4b1b41631e7deda76e095018b56431b5390e3f7eeca61c5c4994cbf1967f159abbd74e247ce8342b4d11ba1981e340d83ad3f2507fd21c475286e21c1ddc846200009b565b6204833e6201bac08801357f2ffd10c5c63e4d88513711edac11cfe9c8cce8a1b8f2b248cde175e8cf27d6777f0a07ed00b1cd9b573192b84609ac4c61671108244cce4a2e9a91067d7de80bf0846200009b565b620483926201bae08801357f12774167b3b381c1d4b2f4796ef2a914f716425ee90a0d86e4e3555fa99ed1fd7f16798fcc69443202bdd179d4c946316c8419e45626d12466631a1155fd6a5f15846200009b565b620483e66201bb008801357f25840f5033254bf19ab3181e6cbed77423c064184f02faa22bf733879de05b4f7f1bb4611db950924a922a3304e18386993e57c84ebdc05f3929db40842ec09ad3846200009b565b6204843a6201bb208801357f1c361c90ec672c3aafb3f6ac773305b6eb965d927a46f20ffbad3426c7658c9a7f1e2270aa296375112af0ad3f54a0cc981bef691b11dff87b43c34c2bd42b92c6846200009b565b6204848e6201bb408801357f197b2cdfc9734d394f101ed52367b4f9899b0a403c76b81ec887af81b5b0ff3a7f1642beeb5ae4057ceb2e4ebea0d0b9165ed6cb27e2b11a22928a7b3b1296f15e846200009b565b620484e26201bb608801357f018ce023add44b965a848224408e65073fdcb9fa070e981bf79b035849a168ec7f27657d4c57faf5f5b9dc48db05385886ad9d9fa5db69c8757e5af00d136e9c23846200009b565b620485366201bb808801357f25ff389868dd207b5a0ddb0c94a01bd4f0dc80419939156c935fe2242b53e45a7f093235bc784cb7c3237dca38f1a7a012a8426b4daaa856ce7244b526b84c8d99846200009b565b6204858a6201bba08801357f118dc6aceae483224200f55376ef8d56189c7d4d9d1f3d684d4c2ab80db47b057f2f7b8358b01ced6b1a9d68192b50a2e31312f77c81795e31fd068a23277857cc846200009b565b620485de6201bbc08801357f1902338044455c6e9082b203240d25ae6911c59ace3599e82b886a050b5b358f7f2a7f187aaa42db09d37c13272b09394e50833348a63e654260d68b3e2196089f846200009b565b620486326201bbe08801357f2c1951020b66743285251f7c9f8d2a36105fd9615141436ecfd35c396550706a7f01a4cbf4804ad2bf035c086a34ccf7e5f258f82fe6ae1708d16859fbea36904e846200009b565b620486866201bc008801357f2c738ddfb9657982a23c0bc7f8a6daf183f5132ce3be69f720971c970e7b18be7f2fbf6dabf7734baea52592bf7557afe82875e2b1fe3eb97862b16281303dae94846200009b565b620486da6201bc208801357f2b6d44feda4d992389bfe05b2ba87c5165843ec0c3f3e31c49dfa9c7ee21e8f97f104afd530921e05f6bc8fac9b73d9a3352524a127d1dc079804c2c0e96ee15c8846200009b565b6204872e6201bc408801357f06f51dd7afad90cc7ac008bc31672bc29d9d90bf3c68d534a10b02f1248fb9ad7f076b7edf8afe6f21bd5cd50df6ae10bf6f677243dc952633667816a99fbf70cb846200009b565b620487826201bc608801357f15618836ef7bbf418565185f3d0d295ed8c0493b2974714e9b9987433c3a35017f2eed4c73553781fc3b0964c98cecf3b4584052dfb761d5c5f9178f624898ec67846200009b565b620487d66201bc808801357f15d5f5ed74bf8cd3bbc252b313883bcfc9cce47b56d394f731b7328b80d3c84c7f0ffddc201d11a517a2a0a67052202a715be774426a9f61f1a751fcd3fecc44d5846200009b565b6204882a6201bca08801357f1a19132ebd764740364dca34c6e1cfe506dd0fe63703cd1fb4230680f9a7a0527f09fcafe940f68168535e834673ec6e18b7876e15bf201529aca50ed70a3931cd846200009b565b6204887e6201bcc08801357f01292dfd71bf2581fc6cfb99be34dc1359032756a91743d7b04c27027c3b78e67f05146c45aee28fd4f84e81463d374658738926cd4c9369e4cdd9a62f3d78ff02846200009b565b620488d26201bce08801357f14b1a93492d209dd3b67c0dc1968fb437f8c7f3c6da465b9443e6db356b30bc17f08f5fae8c5ef00ad037c3b1d0e49d399d73426e056dca4b2463d545bf56055a7846200009b565b620489266201bd008801357f2cbc5842a209e77ca29ac59942b40899386fb80a6f26e7e86ae7a1ef09357a9d7f2c45cb7feb689e7190b6fd9ca4485d13ab21aca332b7b984328dd889d61a3ada846200009b565b6204897a6201bd208801357f2276bae7bc7ea65e1507dfe81d66e4c50e59450c627a238d9c782aa7a412b0ff7f2562e0bc0e1a532ef544c3953371215357f878d529be7c43f70a12318fe9ecc8846200009b565b620489ce6201bd408801357f21e7ed2a875060a2b84b7a3f5e732ccfe3da8364e60019d0c7bfb26e4f9b9f517f07e86dda46e092a2f2bb2b55dde5ca33ab108b3e665ad15fc71afc2d9e1d5bde846200009b565b62048a226201bd608801357f18dc01ea73c316bedad4ba8ac783f93d72555ec16b73c20e38f0766e9512c57c7f19d1da7c24610d2dccaa1bda958c82f92feb1405b33b7388be9b4e19123edbf7846200009b565b62048a766201bd808801357f28e0f7d341eef532fbdb7bc9efec65834eb1f4f6f3dd31e5c2f62af3256dad657f03947c669951c018345a316de4c8e10da0a104129dd4616a534b59e63eb3d97c846200009b565b62048aca6201bda08801357f0dfc91f290aaaec9081a8029b024d7c75a46123303ba4ed239506a4b9e5fbef07f3054a2068de9126e9626af91c753cb57f6adfc00a12fbcd6570e42884f068ea2846200009b565b62048b1e6201bdc08801357f10e16515c9c620d0f89f2ec09257be2664c790bbb0a778498efd232ae02cf7d77f2dcfed32179f8e19c89be56a6d030c7c1c3efa49129349822d347bb4ba15cbcd846200009b565b62048b726201bde08801357f070ed7b697defc449c185bb9e45c3b8db9931c7089ad6082124bee78c08b53037f264b3cdc1a5955bcb5fc09b71b4c4648bd381945fd12dbb4a179b87abee993e5846200009b565b62048bc66201be008801357f073d72c809ab07e2c0d5c8bd2478d11975b88992323d739dd05c33c91e28dbd37f1be997f326919f343dd5a6f1adf843b5959d2f4c9953a15f36a4e5b73cb9bcb9846200009b565b62048c1a6201be208801357f176c2de551b89239b985bedbb9f75d2864c202aa61364e2a3dca3447f9e964477f26f50a4bac88c98539fd73039239b5a41b9c231a4b440b3c1d38f9f0d4566fda846200009b565b62048c6e6201be408801357f24fc93d3e45ec88ba84efc3a7fb0951432196927e06b0b69fa9587e7b8c1d96e7f0471d0aa351b281e88830f085d027753930299f43a16abd0fe751ff63fbe7ed7846200009b565b62048cc26201be608801357f27cfe2a8f88858351d69c44a8098533d93c718403df873d196545effa912133d7f05e5953cec762758b48580efbd8ac545cbd56f984119c5cbad8a13cb90782eb6846200009b565b62048d166201be808801357f24615c37bb9a20e08d9cc987628cae4a1424a7db211461f366127402de404e667f0c4064198e953dc587ea59f89af45e1f392a9febc05ee52d48c8f8fcd39d139d846200009b565b62048d6a6201bea08801357f058af5713bff551e19df9fff08977b5576ed6d5327369037df60734d4a40193b7f03a2e3281f49dd367aadbe08c970a8af4a21c4e64c8cac03af3d7293d6a5310e846200009b565b62048dbe6201bec08801357f133c01fca9dd67d09c437eb4db8f92fe08114e22df46570657e177c15265c5457f22ec315c9663d1be21dcffa75da3367e45d50cef379a4869b96bce065df62a22846200009b565b62048e126201bee08801357f1254917ecc05e26754116109c17e56d789a9972e7f27ad0da0602dab7dfaa3ed7f23865a0edbd45bac73112fbce1fa07f890efe3ddac6436f1c4a689861f86fcd8846200009b565b62048e666201bf008801357f2af7ee49307feed7ce2ca7b2ede0dbef5315d0f2ca84707c1aff863a4a2e92cf7f2882e51d2c636ef303e228746cb540c6619dba3742c91dcdae44d0c4c6a1a996846200009b565b62048eba6201bf208801357f1c86b263c2d39132f936dc9f4c786924a7fe1444adbea5369d3cbbe5d63c34227f1500aa3cc8e3c7f691c8c6dc0387fdd16493ca3fb40c7817a5892fabac1af4d7846200009b565b62048f0e6201bf408801357f089b08a2aff901eccde5853c77f522bdfbaf4c6c1887f490d8f93754e31673b87f032ca7edd3a03e364af1370021a4e01ecad71495793e28d50f819bf58978dd71846200009b565b62048f616201bf608801357f2b33053d9dcac1c2d0ae4c016180d2e61a811aaa5df61359ca523acae3a851557e1318420f04c51533a6a9ee7eb05917aec20a8f32be7aae37eb69296a8bce35846200009b565b62048fb56201bf808801357f0874b908ce767d81621c56e615df2f64b59b0851c0e4556a7d559ee0a55ae3237f272f05123279fde4fee3e07505fc9fa8ff8216d6c68c970d2157c104d7e31e57846200009b565b620490096201bfa08801357f259737ebb39b8125ca1eccf68713d0dcca2652dbaa21291f8c70b5efcf0f0edd7f0ad1ea065f5afa4c7f6d0cde3595c19140b85eaf63e9a1e6548cce2a4d2c694a846200009b565b6204905d6201bfc08801357f09f297f9d8c146c23a4f5038c3b4382df055ae783dc4bbd3bb0eaffdd5aafc647f03d38ac16362d1ab8b6d4319983b67a1b2a6c56a3cb3095be18b126a5ca91390846200009b565b620490b16201bfe08801357f076e8185a41ec2e35a638f784905a55ecf6fdfbb47f6dcbda8d1c0f65b13166d7f288db129cfb84ab01774899b9b996c4be0af793f6dd451b3ed1fdf56a00c2421846200009b565b620491056201c0008801357f08a5ad27327f59cd66679df868024edb8ed46a126d6fa2f05da794e1bb3e324c7f09d708e77e4615a458eb36f00049d727dbe7bab90b06a8e3fcdd70a987935cdb846200009b565b620491596201c0208801357f04e6aff53d9243fa56e7bb5ff3909c1ec05fda643e4ddbdc7801cc497b6b2bf07f1e2892ce6f4fa1b5ed8043f91cfa211fb9153dcc26871c0837afcfc46b16c2fa846200009b565b620491ad6201c0408801357f189a393d78bdd2097141165424c7c03eefaff6745fdae409d70eb36a3fa6e5717f1750bbd84be06c68527c5363fd902d17c7a981b5ddb087d7be55067c39a10227846200009b565b620492016201c0608801357f1fcc6b895b2a1657a81279adebf4e1d62d04a80caf1a3f326b9e328f525f5a6f7f1a2dc2ccf7ab90543f84c64ec87b264b3ae8b021d69f94250fea5952308b8e3d846200009b565b620492556201c0808801357f051e0cfbae7c5aa33d5b32ab657226dd5f1a064632d5451cf53b725a50ac87d47f24eb36b2bd70b15921c938940d5beadd3805fd426404ecde7f0c4099f69e1ebf846200009b565b620492a96201c0a08801357f2d41cf2e881cf1f9b18e45185f29a4dbbd8cbd3e6648766b3a5229dd27c46da87f2362a24b952217339b5ab1a50ae7667d134f5ec9116b6289350a0b0b2017b6d3846200009b565b620492fd6201c0c08801357f05d86f1ffdfa867e5cceaac96a8bd6588fa18755e1163e4b29af1922d4e066d47f14c7a1763c4e4d7e0e2dedc940a7d40bcf6fb72bb0b5c728c853a1f3dce1379f846200009b565b620493516201c0e08801357f2b51ec3233b21413ccc2038b50c46660ec7cd2a1b8a28505e8b600f846ee63317f12462a16a01af3d09fc15125aa47d8b122eb481090d5f37e8fcfae9ce5f830c0846200009b565b620493a56201c1008801357f0f1b515f88bf0ce4dfbb4255e3281d60c04937648debf2b160d9fae914d82fd27f12ac51bef76550fc8f851cc562eb6c8656fd97fadf7fc0c09431dfb76461cea6846200009b565b620493f96201c1208801357f2fe8b6a48f76f4ac560691598907dde74f7cbadb98ea3b1b0cbdfde53c71a9697f0b2c1ff44b995d4846ecb03f19f604f367bb1bbcef6a7ce7613d3df22bf394fa846200009b565b6204944d6201c1408801357f0e89afc3b5ba84631b577291d86641ab3c1dc27d4de41e551daf7aadd1daa11f7f11e0b7ff2339669aecf04d49587da24c309983ac5cee05de1809c96837c21d2d846200009b565b620494a16201c1608801357f14ef53ecb8eccd180c020a12eb4406d70bc31f7c23d93ca68166c867519015097f0b79afafb97938f9641649a5dd01a8b6b93aa2ef975d70f3cdaec3e6ec2210af846200009b565b620494f56201c1808801357f1c8211f4748235e420c76dfa6a62b30da80c0c59f4754daf32049368e92421597f301ba012c1a33d5d7d1cf7af27c0cd233bf81280a41c903233202d182ed11420846200009b565b620495496201c1a08801357f25f9eaa6acf3e1f635421adb26e4b3f33f8429421b5129ede1d8d34e8fd4615a7f07536923bcf7da0ff74af4ab2a9d1c2d725525d76ec224dda93457e6b89d7f2d846200009b565b6204959d6201c1c08801357f1033dde987da2e74fe7535d1c0975712b77bd7222b75ef432a145827673a38537f22dfd402c7a24f0565a7fefe31ebafb6f425230ef37ae49b22375be06616c7bd846200009b565b620495f16201c1e08801357f26e3fb0115ab9420c50561a0cce09e47ac9edff381a6b93c1d5c4a531228aa697f03adcc1a8085b8bdfdfd5b135a9c2b3c9195d536a7c3d05848bdfd8e4e34c90d846200009b565b620496456201c2008801357f21897b14a3250e4963cb9e8b807a09b8b4fb2253e54aa1e604ad27c093904ce27f1850d6a5993636b4c4ab8f32880dc8278288aab5a633044c480e5831361a61e8846200009b565b620496996201c2208801357f09698c8b86402b451c9cb089b3a6679fbed5c1775d01ad6c73e11dda4c4bc0247f01da8174f35ce6fca7bfa61f003e847db1b39eba34b2773eb058fd83e5998afc846200009b565b620496ed6201c2408801357f29140ff2ef6d26e0779d53e5449d87721ef9f87bdc06f94025899f0318b37a5f7f0174e5bb94dc11066b91be085728606ed97380f06b66756bc8c5834c0f562c2a846200009b565b620497416201c2608801357f1e31a328f739a349f1ce403e672aa77c0eaf0a525f695bcea8c1d92f14dd7ff47f0be3b167dd5d6bc37e1696fd121baf2e6939218b43801303cb0add80562f2838846200009b565b620497956201c2808801357f049a416809fb7e2d8a4d69bc56c7fe8b98f63b23a8aafba000fb5af2ddc626b27f1b8345be4e8573062e8b1af60682d14b9d7e9d97990641047864a7fd7477f35f846200009b565b620497e96201c2a08801357f11b0bf976c53893c8a0962fd2a9fcd0758ba4dbd323d76d3af4bb9035b8255017f149b06432f856ec85e977ce714b2eae3478c54b59bb82abd1bac05eab91afeac846200009b565b6204983d6201c2c08801357f2eba0a7789d5575dac8bc44aabcc313b48a52922b5cc5456e55fa91d4f71c2287f138c5bda992bfe6dbfa7817369ce6b8ecf254f9ed3218be5b60aca84982a7a74846200009b565b620498916201c2e08801357f16c92c56768ab911846886cdcbcfc68e6e5befebae493368474d3503e1d98a487f0ea2465c7e5b2e9f2fc1f807a6acc04ab024bb299c96fa93136a1d037adb8283846200009b565b620498e56201c3008801357f2d1dd63bff76aec8eac3845467b3d8cd85f85522f3b66f80542548c50840b8b57f144b5ad7cb600353e2a505edc88b5f8dfafd99cb18471fec328c9a0c5fe29800846200009b565b620499396201c3208801357f0b089db01a4830f9cc623f9435633ea4725da4d4a9186c611a1729640b40f78e7f23359b344b6051d5e73b7d7d18e639e3881dcb4e471d2a544f4f003f5631c942846200009b565b6204998d6201c3408801357f069feedb10ce1550a4d7511bc1a88201875b38b0365aa86ec91695220c13f31e7f0bd93321cb236deedc1396b4b76039cf8dbff628565026aba4f6bbd02c3073f6846200009b565b620499e16201c3608801357f2b9151ba5452dc5f6d3012d5791232d9b1fc8e460a4d98b16be6e71a7b9eae0e7f118661900047b25b2cc3a36bc43c6ecfba5e77c640c9889dd252b40594828359846200009b565b62049a356201c3808801357f131b74af10bc37de6f409d8335d539e0b15cd1b8199d15c0d552f6c7ae0ec6df7f28eb41ccc20cecaec69d002f446940191678383380666bc56572b2d3db77e4d8846200009b565b62049a896201c3a08801357f2114a001cdfa4506d12f07c031da849e512bc226d22f7bba84624756369bb8607f084d830a5c557c6f0fd3c1a9bd49338897e1f8b581494e3526d8b505d7689b71846200009b565b62049add6201c3c08801357f0f09ccb7a1234750486bafb5b9baec141fc692170dff3703faebdfe57c182b6d7f04a15935a0dc25abec4b10aa0dceae4e3256409b4b395cd7c974843058db6240846200009b565b62049b316201c3e08801357f19d6d50993dcbecd32411a8ce152c2e766ee0a41b57fb2459788a1768722dd167f0ad72c26d1e785b550d9ec765744bad2c9b4596661c63858cd7fa49f951fd57d846200009b565b62049b856201c4008801357f302c3e85a89ddea47ad10d8d5538fd1b5f69e57684a2d19b942be9a17e81e8607f061fb9ad3394f34656631c81458f19d27cf10fa72113cf1a545a5d3439d66c5c846200009b565b62049bd96201c4208801357f17101f44c7fb4286a5b1345e54efd395cd2a19ba169511daa4f02faf8f7ffe577f280e5508ef325e89e3d952e9ef022897e2141b80f6b130f9203c9559779371ff846200009b565b62049c2d6201c4408801357f041a50176eac430077007f7635d35f78064320046aecce2ccf1e44398d826fdf7f0a8e480ca85b304b35fe9fa024871d8152cef81da15c4cf291f0358a0a89939d846200009b565b62049c816201c4608801357f2d1a35ff47b4d35f06eca4f9f7da2fa77ae5fd1fd325eb5250f6070246d4a6217f17ab6df14378bed2ad8aa35ad254bd75fc0863fd717f28ed049f56fdf6c52820846200009b565b62049cd56201c4808801357f1b813cb833a1a1e049fa23d9562abb39be31bdc55495faf1030150dc18416db17f12d727dcb80d1f5dd9ba035030117492e72d16a11615cee8234ef273dabf3118846200009b565b62049d296201c4a08801357f035798f0d1929a0cb9478a38aee834af09cac411bb11297b45eb04fa465df27f7f12790e5237f743cf329b764783ea188374f00323cd23b72c1d6d45faba0bf143846200009b565b62049d7d6201c4c08801357f19c22ad0facdd3ff97a0ef48bf72d0422b625ce212994ab9f04913910a66691e7f06a118fdea9859c427227b810eac62b53740834b6cd77334d17304b82570bf1e846200009b565b62049dd16201c4e08801357f2a919c09deb424b71295a5aa511e1d633eb05425bb22f224c6a82103d7bcde5d7f0a3fc1cae60f6ad012f02d504887ff92aa9287a882871102bfcfd95062439c18846200009b565b62049e256201c5008801357f035f20e5ff43e46c87962db9311e860c75bb1c290b0b8c0b41e396933cb27c347f10f2fcdc11e0ade1a8cc4f0b3c8980a874bb9cb5565cce00ba817b743820c447846200009b565b62049e796201c5208801357f1c698d34b5cad79e147923afbccfa6245c1e2bf068feeb82269dd2644c9239df7f0853c3a706a530643d34673216069310ea164b2387af7bab45c67c1e72834c17846200009b565b62049ecd6201c5408801357f21bac37e7a067130c439a7b90734ac0c4b0fcc8d7ed9feb35003a8bc2c88d2687f21fa649a075869eb4bf2534704bb49d27747f1ea5b19f5e7f12ae2fd70fac2f8846200009b565b62049f216201c5608801357f3040cad95c7a0844a2f3fd8dd38114752e711d1ad2c77a4b87a868835322c7947f27593043aba73afa66d707e9b0f8c68fd9937dea7af90713f596778cf13e9da9846200009b565b62049f756201c5808801357f29f104cea74534200ac423a8bff04759cbdf8a3a21b76313e8ee26be445266057f0cee379737701f1235d63b597763dbc45e38fb5c01fb9adf6b54985040d9855d846200009b565b62049fc96201c5a08801357f04b8f45804e2724a9fc238eeae5bc0f645fb9eb0024ce0aa71e87e33800279d97f087342557a1868dd3c5c3b91e87cdfa0eac499e73e5cd3fcb1fef586448f4146846200009b565b6204a01d6201c5c08801357f175ebb81fc0e64d211d04674d6a62b14cbafbe0d2418848d484285acd05ebb2d7f0d9991803e879d2393d18c32dc9ad69713eb6681cb3e9da4a7925d43a6e310ce846200009b565b6204a0716201c5e08801357f2c4cdadde803a1e9546b41f34df55cd6f19f5dc021df57e6f60d21a426a5181a7f14f1f1f42537f7c43ff6f4f018c7e6172a4b76e4c047051dc9a8cc157d02da8d846200009b565b6204a0c56201c6008801357f2bfe3b43de620f71d446a8c21169a2fe6739516c764b5ec355b0fc33685f619d7f0e9e5082383f4c7b6053dc72915bcf69135ed346d5279f7f2f9bd1ca446965c6846200009b565b6204a1196201c6208801357f14738d75212a9c64ef890ffef004a76f7236ac9bb9a4ee7857588440cd345cad7f14824be51fcde8e6731db97f4297810d1d08e544cd5dddb4c070b7eda73d839c846200009b565b6204a16d6201c6408801357f084342ec0742f55ffe4e90c21e6c62570dbd183914bbf354bf8b86532532eda67f02ce9a631ea3fd6435e6519cc5cefe56cb7dd84acecf1dacbff2a6d6888a18b9846200009b565b6204a1c16201c6608801357f0616fbb7d6f6479e9ab4bdc1bc1d7578178a2e1e4c74330b214f026fc79913b27f0581a7020ec84fcccd95de3e220700bf1f56ee13e3f8f13163febfb672ab0060846200009b565b6204a2156201c6808801357f1b3d74f7abf2b8a6a0e99c2190ced605fcda5a4aea1c91357f95818ad80921007f24aa2ef20ed0a4dc87f15ab0b0d3fe765bfd9fb9ac4ca5927489fc57f94d38b9846200009b565b6204a2696201c6a08801357f21e1b03ad0feddb4b16434ad3bb240dc3461cd73a20b11ade506f071eec509df7f128f0f42978d40e29b251a28d080f2a3fa7a75c39b22a53c1ef9741a91c2e130846200009b565b6204a2bd6201c6c08801357f20d17634fcd83ae628ec6565083e3fe52c5918dc2f90165f2cf3c7f9de8ddd547f1fde8cbe1de01dad5fcf7f1d6be9dddf4de32c494189fd4598abcf62df1c1eaf846200009b565b6204a3116201c6e08801357f14cccdb7c90013683a061467c61ee521e9402ef6d5b55bc04ccab819c26a8aa97f17ba0a08d1a6acb2c26111927cac15d86f723444a18253e3ab296960d6bcba94846200009b565b6204a3656201c7008801357f2cc8a9cd10079bdebfa4e4333d4ffa2e17bad8afd50cddfbdcc31bd3655715167f15236f2d733a376479c9c0e2618380bf0399c16b4d9121d1d63d2b74d90ebb5c846200009b565b6204a3b96201c7208801357f2248daab101b1cfb4ed490e5b61b2561e6bd7b60528755376ad8282dc2f192827f2ab1c3474177760b3c5162d598059ab638d11118e0173404ec38c3fd2ec58cc4846200009b565b6204a40d6201c7408801357f2cafec463a61014ab9d7c2cc0e543702c65a372a6032bb8980268bc1a92e8ee87f08135594fb32bf4eb5c113bbd762f6bdc83264764f7a08c846371dfa5ddd980e846200009b565b6204a4616201c7608801357f25cedc46407a2fd04c459bb7f383bf5c42ee224c9821bd952af78896982840e57f1311a79f6cbb0ee4c9f72d2395ce340adf52f335cc86ebc984284be631bdf1e5846200009b565b6204a4b56201c7808801357f260027bd3f5cd47889d224144d2471bf1a67c5591a3604c97b2bb21d052e7bb07f08a7b91dab00f0ddadb736bd81c8c8676666aedc0743115740df771dcbc5f13d846200009b565b6204a5096201c7a08801357f2d7575e1ca1458b5008316e5c23cb098b14112b4ffa060397d0866c35694eb3e7f058f585b96246c0e9659578161ced5db06cf633a905f59cb721c309fc616b132846200009b565b6204a55d6201c7c08801357f0d78b4330eb63f6bf804c9b90763be59c3c524e13f7b62dbe0af916dcf7badce7f0c745041d697a6d1e3fc070fa4b17be0316d3a88100a99317c0e10284c6bc15d846200009b565b6204a5b16201c7e08801357f0cbbb1d830a7f5ddc3eda3cf244fabc8e54090bf7305cc0179875300cc1bb6967f09e54478878fbbd990f4ff09b6669d2c78111b79934b90c39f882ac251a60a0f846200009b565b6204a6056201c8008801357f1551b60587401efebc1910acefa8fa27c329fe00e9634e1a8a82c05a6dd7e99c7f2bc76248dab9c1294025c4baac42a41f10691248395600e656c800653eed2248846200009b565b6204a6596201c8208801357f0f13dd9cd775e69886a6e92f8e77a8aba60d8e17b0b9bbc995203a2908d191c37f190d881c148579dab58c890669421bdc078647e2348a13387c67e794103709c1846200009b565b6204a6ad6201c8408801357f22c2222df2597913a7086576970f8a19c2cbbfa885c55b0aee195a3fed068ea07f0eae028a653c7c8c9ee78ee1f37dfe94d3dc0288eac26481d8cc79365a27d3bc846200009b565b6204a7016201c8608801357f113b5958126d2dcc800730089d47d0acdc18726da1a67f3a42824e494a375a1e7f07a488b88da93b729d439188773499512ead33b083c0632178f90f5eea5a012e846200009b565b6204a7546201c8808801357e680ce6eadc1329ccb11e8bf5877acb3524949af9d7d69fa4bda418243e21627f1a86317bb27205608fd749cfcf23568cca08019dedf751d3c0124efa087f1ddc846200009b565b6204a7a86201c8a08801357f2348597629c12af094eb9b3bfb24a77730d46f0a469ba163a969ce398b06b9b37f0681057a609611a67e5436ae5776bddbab1a91522c4db6fe08588c6051b8d878846200009b565b6204a7fc6201c8c08801357f2539e7a6f724dec2b9b8b691426cadce9d82f47004406d7a50c993ac9584ca287f0979080a28f856072a94ec0994e301329436b590b912102e5277321488ddf060846200009b565b6204a8506201c8e08801357f13564d8c50ecb981ddda81498244b34e88586091bf700d4c322c63fc5a78243a7f1d2dea4b5c2f30ea093c87e8bd4e04034ee37e8a87999250d7a371fe475735c2846200009b565b6204a8a46201c9008801357f1896d7f11b6ea11d56c788fe5c92b2bc6edd28540cfe8ad65acbd1f29aca30ac7f13708211196dc98c8c967753947a9898f84a2427a5a04b18a2e7d72fbf4b1a3b846200009b565b6204a8f86201c9208801357f2548a4e89aeeedca15ffc61ba84e9489cfc1c506f2b46a4b5dcd735f0d39d3677f219b1f0447d03192e6c5175287f7b4da86c6fdb01fb2eb99443944462a64b9b9846200009b565b6204a94c6201c9408801357f2af3207c100111007a270b86e78a64837e166bcec66c26856b91284140b935187f05ef1c80c353dedb367723f04eb7274b57b244d20b411ca51ef87c781cd51bdf846200009b565b6204a9a06201c9608801357f2fd44b01d81d4cddfbf5df8d212beaff741d31d897ff6c115e32c24985b4ce4c7f2002378b63e3532164363f4bfffde7161e98ddbc5aee47e5ea3338c14c51cf30846200009b565b6204a9f46201c9808801357f0efc349051e7fb9ee4d84de30db79245ea1c787cab1ffd9a06bb798d8063389b7f29f25ffc02e33642fc0e942d6dbc1591456d1c5b2f46d981485874f4fb110392846200009b565b6204aa486201c9a08801357f0388c17c2dc955aa6a933a44ba4b29e8ac91bc28624920e640d1ea3a6150d9197f0671862c54976652eedb13e8e4b6cf2f10dae29d9cdce51f4e177c55bc49c84d846200009b565b6204aa9c6201c9c08801357f096926d8cb55a9cdee4483bb2927e10ae10c40c8f112af20c5c1c74c46e69e0d7f1745c6d701a3d662b6072f730cd5943c10e2f6a686c0ea31d14b250a3a61f423846200009b565b6204aaf06201c9e08801357f0686dd74127ae139266804a17274a4ee3ba1070d0e3692c7d9f43ca35081b1177f2a7680ce64a7173412eb3e817c6bed150a9ae502579514fb9f2fc9e1dd200b8b846200009b565b6204ab446201ca008801357f2858ac892077a5a5df16b0cbc175e9756f5c922cea5b3fae953068f6ff1cc7817f2de512565c710738224533a97d5f7f61447f1ec7e41b826e97c5ff242fe8ed7e846200009b565b6204ab986201ca208801357f232bbba9f6df04e8c479052c624a63d6face349d929011299b322611241bfc257f1c90d6bc5e5c90555c1e7c024feae2f3c60a8fdb787f47c476a175dc1b44ee2d846200009b565b6204abec6201ca408801357f21a054d253c0e7b3e4bb5df3b3b9db2db44b17662d9bc683a878205c9438a2247f24736f8e88a28d6103236af666281d18a25659f65c376d711226723c55d5eee5846200009b565b6204ac406201ca608801357f0b4033e174892cc50a641f32de8f23dc0820513ad885d0120685cf9925836bc87f1c36aeeda538f39cf5c9c7955939dcfac85bbce8ca627042a7b8fb02031042a4846200009b565b6204ac946201ca808801357f07db4d6ae2d42f63532c0296b1257ab28d662e0cfa5984cb3bdf313c84664b517f02c9dea0f227e27743badf27fb8f4dd8a23e92f4e851dccfb6aeeec5e3891331846200009b565b6204ace86201caa08801357f1a89590713a2376ca65b46eda2d4c2baa32a85b7e96114b8af0a60455338f92d7f13d813d9bc1230f962e8dd10cbf9fadad2b1ac17ab8c64772f6dda7ee1001b57846200009b565b6204ad3c6201cac08801357f198fdb80821e09920f415859072a8cfdaeaa4ac90aff825af5b769711ecc10bb7f23546f19a49eeb15664040d9c87f8ecad0ef72a3f2d47e61135f48a56bb86cd8846200009b565b6204ad906201cae08801357f2b77b66c05dcc69f4013a1de618c9abd64efba98806d020b11da5d9feeb2961d7f0e4276ec434ff179878d08dbf13dda1ffe4c3e553e019b59a634273026f5ccd3846200009b565b6204ade46201cb008801357f1c922b3853ee47f1364b4c76e7977a01f2383b1e46aef5f3300c80cbf2016d197f1f9190a6f67faf6e9d5b685f022ef1a4d327b33e8f597e2534385877dd8df458846200009b565b6204ae386201cb208801357f019a21b7c2594db8a7d49d3e9ae64b8d392313a72e26ed232e34be64f12c0a327f276d096791319a547b5036c468c1c438e09721b754217c98e3bede9de20f5d54846200009b565b6204ae8c6201cb408801357f1a4cc99ee1ee90de04034bea13d9df99aed13c8f3aff6ebc9cc15b541923016b7f2e06c4117a83eee09ba8ceacf1c2040a017883f07c575a61704ff2a523ec450e846200009b565b6204aee06201cb608801357f22b2b46154e73327764dee5b0770ee8227f9eed8d7678cf47a4934b63a999e5d7f1e54ceb32be1a433b3e90503bef107c4bb7f5fa3b125f8187c1e24daaaafee82846200009b565b6204af346201cb808801357f039443e78344094b122aa6201a9d46bcc976116b34fa056581ce1d994216b2927f1b15777e918b73d4b0713cfb73609108313fb58d159c519dce724c2e0e6df750846200009b565b6204af886201cba08801357f1fdbb079c73a3af9f86ef2b0fc04d60a35f2fd320536b22a2dd6a5fea27a69297f1fe14ecaa4d0371898489cb847a8a8f4fdb470cbf658b5746e89dcf1f0e1ed88846200009b565b6204afdc6201cbc08801357f0d91dee23107a1a8bc572f2bf015b11259ce556cbed2cc126658ee1ac1c5576f7f2122c0e1617f98480f21dc59055a933d1ed4fabb682c0b493b2504c87a723a07846200009b565b6204b0306201cbe08801357f206b35402273f996a0981b38335a11d5da7b66daa1a5fa467eaca1813a81d6607f024b4da55ba350fac05cf135b49af73f30401e22357783c2d7829e82a7ecb198846200009b565b6204b0846201cc008801357f108c41961e45d19c59b8b9ee9a2bc0ef4e02907456bb2f27054e1666d4b636937f126a40ff5619973fcceda574f61c162c926ab276e2314beaeda84c5aa5fd55d7846200009b565b6204b0d86201cc208801357f287725e3db68927350bc8d625ade306c11509ef3b7884b29e7acc0299225ad8c7f126e532ab90eeace65940c53bbb9314094c93073287a48e331c3c0333dfb9d69846200009b565b6204b12c6201cc408801357f2cad3b8ede1faee8cb186701aa5e8de9e5946235f52770f0b52204a2cb5df22b7f0cce98f475a37f64e1131c09a3a9e1f378f26bff1e6167b1c5fb3e4e3161f682846200009b565b6204b1806201cc608801357f039b8c76dad245399e513fc5da097a27f4dde9325e0b37af42e97591db6695be7f1f84850666873ac181048127293ba8805ec790c1550d121cee10b3805fe82568846200009b565b6204b1d46201cc808801357f20615a78e86af19b2319769cd1ce64c5cdf60ac75817bd2d025a61331b5c1d867f29a4d56f89a111dcb739e7a4a6531e6f186488f3ffe10f854337562bbc0f80f8846200009b565b6204b2286201cca08801357f2da70043de7b7e22dea88b257e2c4d618a5159e459b980871dff0e98002ba24c7f05fe96bdedf8f437153a49fa3b86482fb74e196cc60b4501762efe27426aacd3846200009b565b6204b27c6201ccc08801357f042cd499d0ca511a1aa9ec0694c17b34ef80d200f3d285aadc4ea44985014e807f13bc8405b4698ae369004e9f0478ed06a620fb379b9c08e786ff0495e4754af1846200009b565b6204b2d06201cce08801357f131a87b792341dbc40d0d8a72109f2685ca55f1edd5cdd94bcfbfdd2d01068a27f20b3a3f9d0a0871a7fb03a2b64eef43ab99a585226d50ae47e9705ea7ac4324d846200009b565b6204b3246201cd008801357f12324639b49e4b9f4b6eb28193f8252da303a85b2358973b92e1327c274c4c347f1c4effa0144901ce04956a47f041443410cfde7d433a8f7a4d0fef956b95d8d3846200009b565b6204b3786201cd208801357f14c3a32af206767b58c1b64b8d91e38013bc333b4f6a476ac68e17287349ab547f174057dbe0e0eed4e50bd9987d0870dda61af04ecdcfd5d3245d436ab7ce9879846200009b565b6204b3cc6201cd408801357f2ce30a6a7d2875624ff08ba70d1d4623ac435bdf4b19137a04b1c556ad5cf4117f2ce015cdbfde6c5c35f48d1beef89882a61240fb7426eeff501d5b008c433cc0846200009b565b6204b4206201cd608801357f2ab8bbd80d90401ad5e94711f40129d01c2c274854d8ae3b747f21b32d1af4707f0f7f862a3e0b9ad9cd9b1a51c5b4fe02cc4cb8844c30a1d157f1208543c057ab846200009b565b6204b4736201cd808801357f25c5802bb7460384da21859c30e373bb731b23f630a936d6d5795a9b4e00c7937e9a18ebf3edf59d58a81f6857111be029e79cb5cb2bfb07d1a9f434880733f4846200009b565b6204b4c76201cda08801357f0f7f1afe401822d5d887e60a5cff5bb9877522d3a183fb7529c1a55b06ca9fd77f1a8932409aac91c03609f1fc02a8a9744aacf97f04fb5f77fdf52388e92383ae846200009b565b6204b51b6201cdc08801357f03447779368532980866b2d7cab714a72c52156543a81a62527576d646e83a297f056e368118c837f4acaefffa45bede41948221dd40b61c28a173f89e5a6d5d85846200009b565b6204b56f6201cde08801357f2b6b6fd1a72717fe120350a6a1eefcc5708f29257b470fe40d5c31cd48f91b247f230cb66b4c4c829aeddeff0171dabcf95f55e4006a34f566f10437ab6c9a8dc1846200009b565b6204b5c36201ce008801357f254d4ce95af81c62536767e7f23ea94c3929db6ce28e6cfe5cfa834fec1267387f2bee2a36c6a18ede576b4c6fec7b75ed26fc53ceb1e645b60ae8964f296a1b57846200009b565b6204b6176201ce208801357f13020b28bdf0f4fae09e8f26dc536c7384df854ea104678ca09efd424c54637b7f2a2970d7b7693539c74072710eb48d5cc3f2517acc84444cd03d2d338470ac41846200009b565b6204b66b6201ce408801357f0d9070a9badeec8c8e984a0414c407d24a400633abbb1a129033cf10e9b588fd7f1b385f8d5808271c125858ec3e372a390644b9630a8acd5191e062a6b96702a0846200009b565b6204b6bf6201ce608801357f1d0ad56563718617a889316074ce2d36e03833f1a80a36358b0b465d751bc9327f0ebeeb86efa813c576685e31c251def17c3f41c6b1d6cac2bd7de812a4592748846200009b565b6204b7136201ce808801357f17c52b6d27b8474efe5298959e1e27a857bf42c675707a50281dcb96db0b799a7f16c073f8ed8979349a8e5f7e736ae8fcb5d2f73499cda36b4a2ea89961766b78846200009b565b6204b7676201cea08801357f2cf7a0c2ea181bf61db0a3676190a85f040ac5d4ce9c7743d8a9ea40c036013b7f2887878482d2c84cbca9f040ad37843ce5af776c98f44736e875881a4bf2a03d846200009b565b6204b7bb6201cec08801357f0e621bd9cc1d2326892e3b07e97cb444f088cfa38a1ab861e49eebd4440fcf627f16d65d197ec0f2cff8e87523910e3379a8fe104ba0e56465f2d0c3b9a0c1b615846200009b565b6204b80f6201cee08801357f23a5374b5f69ce193ff43636f0e9c2273a89597564a940c5f98acb7ea741bfa77f0a941ff82ef57bf26a55b75ca456d10970e9df46e2cff371e3fe8eb740f5257c846200009b565b6204b8636201cf008801357f259aabadaf90bb40918df32fed81a60061f6ca2ac8900348d40c789e5b9aab4b7f241a66d41e34db522f856b26be2e992796820d3d0daf99b66a1ac98c8584abce846200009b565b6204b8b76201cf208801357f281fad4c3b85cf1885f7b2490a3e7ad76d67f358e777235a543c8ac4d392b3e87f063818192a67674b4bbdde3c77eb1a85f56ce8bcb7a02c959252ed31dadd6247846200009b565b6204b90b6201cf408801357f155652b3ead439ce96307bbf496e4111290b857ded28344a3d5831837985b5057f1b98ee36e0dbecf40cea3421b5a6c118b9d6b7aab4d380614af411cb43e0ec28846200009b565b6204b95f6201cf608801357f21cdb9ca9472381fbe0e66fc865100b4dd734530199ce03e39c40c06b6d49c3a7f20502caffc15b04e8ac508c859600f675078d6041934ce6272180f853fbbf1fc846200009b565b6204b9b36201cf808801357f1d395434da58b51c3d7ff34e5fd9d1a4173b55db4e321d346113b96a6e5bc53c7f07d8fdd96a585256eb28e085fc67f7c1dbc8c3d872a1ca2cb366a8a10f8f8b11846200009b565b6204ba076201cfa08801357f253722cde13d3f45f5f6f65d583e3ab9100aea11e1bd319867b9d69fd52a18af7f27451b2f038c90048c5ea44a134f578c15f1e6430fe8c8aa36062198fd1501a7846200009b565b6204ba5b6201cfc08801357f2b0e7b5837a8f794838718eb52763babd7aa785f1e08408bc161d3ec31a15cb97f1b61095c966973c40655c6188dce05c64fd7a80ddb626203191a3d3c9c52899e846200009b565b6204baaf6201cfe08801357f19f7459e598c3f822efc89ef13fcbd4991312d9122d57b13c337c22b0b0fd1ed7f0dd3f2da61da222246d74897304c36523cd25cdda16f9663e834568c7de40c4a846200009b565b6204bb036201d0008801357f165a714786f2b1f480ced6b6facbafc487e99fd7bfe30a4124e78140dd58b5527f201589d99c30cc058baf49a651ae6b67ea85e7b34a00df2e7f6b6496b04dfc26846200009b565b6204bb576201d0208801357f1e418efd8ec627ddd16328b4094d6279cd44da3cca03847dad581f41075872077f26af92f52113c624044322b3a4be99c558b23afac1c48e3643d4e1caf4a6ffa9846200009b565b6204bbab6201d0408801357f2e21075d38b423dd9bd18b028121e9cbe8d2a192d7c4b39066e7eea5c3590bbc7f1cace8c488b97617bc76d2c7f3777df66aa50762779a091f6aefee6fe3519e95846200009b565b6204bbff6201d0608801357f0308bb737cb77972bd77496b9ba9e7fc65e1d77588c0d9bdd6ef218583ff06237f038f953bdc65a8ccf271e5e6f1a85491d9c0ab835d9fe4beec39fc622930b466846200009b565b6204bc536201d0808801357f17c3ad0ed463595f41ac8116089ece6b4e75798080fc04d66b302aeef98fe1c37f0ea8c794ea11b929b192ca19654a1a706dc991ce5964a7bbeb98309145fc7771846200009b565b6204bca76201d0a08801357f1738752c747a52c7125a667955276fb54db3066b5e88e005c0e20553db660daf7f1aa896ed804b6efa696788bb84b6ba2253eb145210f56c3aade64345dfdce2c5846200009b565b6204bcfb6201d0c08801357f0c9ad24ea3a14aba8df99402622dd6c46ff4a0f4f2b228b0313141257f758aa67f294e0ac3a9b3abcded83a5c49f18b7c30f566099244ee0ca50f2634210df8844846200009b565b6204bd4f6201d0e08801357f2a2bb5f18f9ae6442567c6b26a842985dbd3dcbfbd0df270e640ca54aa43039d7f199d1a149ee909ea859317519fe2a0cf6e14e177ff49164626484a315c52d815846200009b565b6204bda36201d1008801357f185e57787962bc1fc40f224d8f17057c8b4214d2bfabe57e7b8a995388a7ea487f15565dca520682dd32b0d37218cfbe6c4ccca8eedfa51228db9ba39898529e41846200009b565b6204bdf76201d1208801357f2e6c0a546f58d0d9aa68401e1c68fabcda2233d464aa9c4d309f81bdfb214b797f2fc8e2029e28ac7931fbb9d9f76a7c9dab7a2e580c65d675ce68d90af3493f9d846200009b565b6204be4b6201d1408801357f271a498036878691337c3f98d8aa0222558a72b804e04280f8bd0cffc84e91ff7f25cfa2fec3ff8f6a22caeb766a4f0664e557ea5841d7abc3650636b1578dd468846200009b565b6204be9f6201d1608801357f0871f480e2c587258c1249786d4f89b6a1512495cb098182fb43fdf8897521df7f2bbfb72b1824008902ac08c1a467e5a00386b0dbe013e228c7938c83c29d0d2f846200009b565b6204bef36201d1808801357f26b162f486084fcabf7274ac57cdac87716fab8b50df8a628bfa6e91f0e65d917f024e5d08792205b318c5d872477ebb259be0a81d46de0fd487ba6934c39d4cf4846200009b565b6204bf476201d1a08801357f221a84987d328ba4e7127b8d4eafc3dcccbc24320a82ceed5ffe15b3cdcb6d447f192b978ffd7777c6e81fd5c1e3b79248b1385a0362de489aabf6613888d2dccd846200009b565b6204bf9b6201d1c08801357f0240215a1b3f5e8b3d635b24f0e446c55a209c173df4b6834c6b36f0f23082187f1d04816c025b7e64dfc5b96887c10995553b133f0463e15852ef9ee1d4828f8e846200009b565b6204bfef6201d1e08801357f0849b122a75d4f845b78c2fb77c70cfe8f9841d3ece00f2b94d315f1200f1f9e7f13f55d2c4da7788d4fe89e886f121fcc8ca0bcab7ac61c99981947505db96a51846200009b565b6204c0436201d2008801357f1171ab0e4bf3f629a39a5a4627d119bdc27a6b3d80416d0e21ffb4b4e4eba2807f1efdb649962850f0d86c134c5dc54482dc80fd2dcf6615c2d741899ccc6e6925846200009b565b6204c0976201d2208801357f19493d7691f8418b51031ca4d8443071f586af9cf9172f093a810afe08b6e8627f2e3c490915e015d7801d224b3859349cff7dd1e8116d521c90dc4fb9f5c924b8846200009b565b6204c0ea6201d2408801357ec5be67ad8c4955df02c4b3d2741b11c5e1fdbc2ccb6c07d3ecd0a2b17f9e297f16e38399aa6b88c9944d62014b9e95a67f24fceefa330040fe3beac11d615b76846200009b565b6204c13e6201d2608801357f1befc4ac5c35f4c7048ff8864ffd61bf18baac97da086206bd76ae78472fad397f2199f6ed166a01a0aac3706e472851220fd73cc9208007a0ca8e01898ac09d8f846200009b565b6204c1926201d2808801357f0c56204aec5ac2d87c7659e0261b9470a165941a26200c88cd17ea89c8962efb7f063d0f294516093f8358b928509167b2068eb2922fd8cd13f7280863b99895d4846200009b565b6204c1e56201d2a08801357f2bee36580b80226c88ba9199f4911312e96f8f0be97a45d5bf35a70c1d1fdebe7e6bfc875a4881bf96dbc83361ff10bd6bd5eadac8fa618562bbf922c066f1f0846200009b565b6204c2396201d2c08801357f15d48218f69ea2a06ce7c8148fe64456c4b2c07bc719ced249c7943ffb6f340e7f23cc4dcfbb27db691f953d61a45b00f069e34756638acd0009f075f7b775349c846200009b565b6204c28d6201d2e08801357f219af78fb0bea03f611242eba92df63a9222698e2c717279df9fcf908081912d7f18bc376394de9032aa1b959b8f82e6c3e28a025067a43393b8f6a2265e849d08846200009b565b6204c2e16201d3008801357f2cf2932f9ad89dd3b8a9f66d6f053ebd0e09c6786576ab097f876dfee4be5f8a7f016c54f541a7798b0ec9e165c5ecc0c1ff817f7403ad5afd4cf08391c253a15a846200009b565b6204c3356201d3208801357f09b12428d71265400b02bd4017d6c56b995c54fcef9c8366826ea4a24dd206287f02860751193fc94e32a963ca714eff94d19035a224e2227b05b673b555176899846200009b565b6204c3896201d3408801357f1c4d1590f5cb208ef931612b906b3edb7ccb3a654dfe7dd7cf38dc1d86e4bb297f1f4b40b5c56225c6e21fa4db24b9a36ec283a6bdc71b773b1780d0f4e636fd5e846200009b565b6204c3dd6201d3608801357f3036636c9250d8f71286a17f05c5f1c45a4730abd2fb97b769d08f5e6dff6ce07f24b457380fbc1f57cf2cbcd5412018d253e19c6fd97e1036e8e1eb06ee9115b7846200009b565b6204c4316201d3808801357f2cdc912dccba8efcb74ec6376e1362e1fa20c02504c98be6048e0d7f856d54017f128a49dd99446926bb50941e285d8461af0ce346e5c08eedda76f1da0c0085fa846200009b565b6204c4856201d3a08801357f21e4dc99bbd2baa82635b4f4b47f7fa8feb4f1e8ae7ec7f08e059cdf0a92eee77f101a185a9ddf9f8202d05fca2eae6aaef2afd9e0c2e25ae20c6256eb76634638846200009b565b6204c4d96201d3c08801357f2daa620e052ef4465c5ce97ff056301e57f4005c70c9a971746868235c3b26e07f05bf569ef2674a63e7f1ced53ef9277d431e6247ffc03f91a09c5ca6eaf41440846200009b565b6204c52d6201d3e08801357f11edc00ecca51dd60f0db62d6e4d50423d09cd6dae9c6f9dc5e74fe1b861c7387f2846f7ace0ad74cb08b16cfd659ab945502ace60b2ef74f0ac16eb3d4f383174846200009b565b6204c5816201d4008801357f269f20b1cb37e78ed98926fe5709e7c6826a0c9eb0324b57eeaa929165af04527f2325bf06b9c49cd4c5a649057344c0dff55eb6827d01ddcfe13eb166b983e6ea846200009b565b6204c5d56201d4208801357f2165162a6db151c226c669e94d29ca7d3f852715c0d20eb31dbcfe0b07e93c4f7f119517ab6bfb0031de310b75332b24b1d3ebfcd4b832efa082941db3fb7c65ec846200009b565b6204c6296201d4408801357f2016051a445495cec8061dd3c754d07d2a44feaeb218b373366340a5099f13fd7f17931267c9f942b04b7863cf987e5b816e2727ddf2111851b4c537f8145c7ec6846200009b565b6204c67d6201d4608801357f162987824b373d339a6f1965e95c39178c33fb0133ca6f12029e8b2bee16a9887f080af69d81e30af09b628b250878e6a2667d088d3bfbef26ce0ae6e4296054fb846200009b565b6204c6d16201d4808801357f21d1e1a08e810397890242da5ca82d93b9a7c72d9f3e58b208a4dc408a678d6c7f088df0029c64143c57549b36cf956f12c25fd25f146f285cfe4a350d9b1c37cf846200009b565b6204c7256201d4a08801357f1dea2634ac5d7920d18e40aae0b9043bb311cf37873d7326d64c9a2b733763dc7f0b8b6416fba196eeacf3eae9ee054895c11868d95e60ab3a8c8134deeae2c032846200009b565b6204c7796201d4c08801357f04abd69cc193d59169d3a5d0aa0f69c917b67403cd0c9c531dfda27d5ae3932c7f29ad619453728297c16d55797214fcda678ecd8a866d033296c0b6b495060234846200009b565b6204c7cc6201d4e08801357f19d7bd0cb315cb0340b9f5ef1d2f613afb8f3b1532f08555a5117b6adeefb8ca7effe213792125dfd404dbb9e3fc48f2a4bdcb65933d1f23a2e668a06b217776846200009b565b6204c8206201d5008801357f1ef0f0613bd48dd17cdc11a7b063124e4ad9c5f7691fa1cae98a2ef8c27d7db17f01328c8b5bf96189aff430eb07cdf9721e4b475fd542320f7dc40435048f3b64846200009b565b6204c8746201d5208801357f24fd5304aaa2f9d5576d221fa6759a45145b7b510b283ca58e50169437f39acf7f1ecbe8d7a7ed9e6c9900a146feb23458692bcb7e52c0dd37d542fdca5e309164846200009b565b6204c8c86201d5408801357f1fde470a11b8ca24d83f06daf22590fb6454fa457560e856c0692bd4189cb67c7f09461231e4ce44e6b53e277c6317a17977a8f71ee878567559f0e4e07032a445846200009b565b6204c91c6201d5608801357f230c18ce5ae707daf189d62d9cb2e76c97f771a537b8bf3dfe3f6fc1a5be71bb7f26d9ad2c15f93f65734d63e7fc6a98a980d688cb55d55bf026eb16903f799b69846200009b565b6204c9706201d5808801357f025816d14a19a05286c2726c49909390720b3c81889d0ead5c478f1543a957567f09eb02f473ec20e22510463d37d66d315e232909cfe1e90be12f46a66b0823d7846200009b565b6204c9c46201d5a08801357f0d898ecd2edd3f58b091063f356319b0a5699eb123384bfb1279fa8c3348301a7f17e6ec0fac7acbd4443458ffae5dbf3b4609244869f6e1531d119d26ed2c2002846200009b565b6204ca186201d5c08801357f2c6e3855cc5d041cf16966888b4b54876adb360a32c48c6acdb0a27b102a9bd37f09df2cbd10e438c8cd85e5af01651fbf9baaf1f2d386e793cb529a6aa6c41749846200009b565b6204ca6c6201d5e08801357f280432cf8dbde71cb80b29ac017d091f287ef499d5c0a698f705998ed485f4747f27b1ef5025187429f82a50e7118cdc99c9f7b68b6dacd52fabdc8ff8b142a680846200009b565b6204cac06201d6008801357f2ebd8190a408afa69a3672c0f051c4bc481a269cab6a6abcd380b32e8dc292ed7f10a57688d4ddfec7095e99d93a7285eee170952fe8fa0f9343a34002688e8977846200009b565b6204cb146201d6208801357f0365d76326185dde575a702529ee9f927b09f7abc7c38247905edb8af704faa17f245a26f593c1baebfcb4587b99e8463c028555812d44633649bd2aafa229fb94846200009b565b6204cb676201d6408801357e9a660a8ceabb21d07e46bd120123e726989a524d7ede6c44abecca720155ab7f1551371aff695d4feaa490287a3349bf02a5c330e5643b39b1ed9e345dda5875846200009b565b6204cbbb6201d6608801357f0fcfba864b70ec34ea138ac7299d25374d1f3ede49e92b1a59a83f833010ed3d7f0adb33fde598de95b96dffd23ac284a7c4f14305e079362d3caadd848b1793a5846200009b565b6204cc0f6201d6808801357f14bb9ee3eb9d1610f28e3be90a9e576994c2fcea59bb6b2056093e0f8e98e9fa7f0c0d1b3e0439aec0daadab056bbf17595b9aeaf4a6be1f4c011ea2b2c737d279846200009b565b6204cc636201d6a08801357f24660edd63dac80b1004d667cfc15033fe9345b4ef99bcf283ba2f8580e77fc17f146feeb8e496a3215b013a651fc60bfccc6048d8be450dd1f2cc6f93af58c76d846200009b565b6204ccb76201d6c08801357f2fafe72220641dd5bd5197b8ed438661676d1b0336df7a14857e5bf59c640fdb7f23b6025998c2bd10dc49a96b7b2bad0f6d4b9d37da9c92995319dd4819da2f11846200009b565b6204cd0b6201d6e08801357f2f0446738b1532e1a93961f6351f2cb04c01d0b7c1b12512fa6249aa6b2545d97f03e307a65dccba3b0030074bb37f91717cc22e267a03db63561c86fbdd9265e5846200009b565b6204cd5e6201d7008801357f1704b3e5f4fb2f36c3b8dcf400655bfcd4eedf5456dc19da2c2ccafea29311f07e5c557f6510e2b8397ac50bfcf84d27362a1591e0351c3c7909ba6a79c9a617846200009b565b6204cdb26201d7208801357f0976cf4b84fdd3b5a1e37ab7a7f8e1187b6f44794b0fccac974d4737ceb6f5d67f12b0631afade510962c42866140991f4c40dd92c58e79db4e0eb30764d0a44d2846200009b565b6204ce066201d7408801357f0bc462fb645d461b018dbede853da2357872f4ee9e5d5f5a1f2fc9883b5dab2c7f0a7f882ea93616fa16d3eb088e6e9ae744816e47bb9bd351bcb45ce863fa1ca1846200009b565b6204ce5a6201d7608801357f1ce5cb606fcd3df23508d54c675a1cd9285e6aab8fdbe76ed1fbf3f578f1569c7f0ee96cf11d273e16fd863c58c85a1cec0410473ac392fbd2dddb75fd75d75c9e846200009b565b6204ceae6201d7808801357f0bb2bd7228b8524b4fdb87fd74069c27e4eca1fa096a2d57291b5941536ccc197f0113134425d70c570de08e9c18b729eceb8c2dc088c3d42bdfab6c3fc51df3bf846200009b565b6204cf026201d7a08801357f0b0f38037b20ffd2e41622e1ef6e9b653310a0911cd46a4ae8372f9427eca64e7f1048a970b19a1cfb73a6cc61a6901806adc722efff3332374f1e8b42e685ab6d846200009b565b6204cf556201d7c08801357e0d3324acde20fa167474f2ca34b55a7495fd0349db01f6a60306864702a2097f14faeed79447953c552c4d9a99bed7034af36f45d387f29e8418b8b03f9cc16d846200009b565b6204cfa96201d7e08801357f27819b4a46c4e2aaaf6e6a1ad05a48a3d884b8e2b7610a479ca6643c8e0b88247f22f7d4d0c3b73dbde0bed12ba1c4c733930c4610d320f6841ab9293a3c5d86c6846200009b565b6204cffd6201d8008801357f22e384bd73a6097248a8fcbe7e4f1ce1bac727c8d84557b7a4926996889bfb9b7f16747b100765b0693a5c372ba75131c23e860fa5bfa8cf5fdf66a44bcfa71cf0846200009b565b6204d0516201d8208801357f302f71e86f58a6550acb29e767f5e903fd02890011ef7a8bedf51b94ab99fb157f1b54fa444a08fe8b3a30841cc61e315ff2842e9fa4f70f32b819d348cad15b5c846200009b565b6204d0a56201d8408801357f087a13b42dc11988fc8d7f1e12a8f44324f38d2846b35ba78a76bf84a8fadf927f1a5cd0e20656bbdf7535bf22eebfafcd229002f15c78f2db4f0689b1e3b3ba65846200009b565b6204d0f96201d8608801357f13399828b766e8338d1f43f5513f5b08177b29aa63fe34270c304435f6cc8b007f1ae10f86b5337ce54bd1c8b30b1982ea6ffadc8d2fb06be967e1fc13a1746da3846200009b565b6204d14d6201d8808801357f1b4f93f0c6a0938e4682317479a13ce5d80d3d78e6e3146c6b256f76068073857f2065d80b371f80c278931a4904257ac47fbf58c361dcb4e422d78a2a6a9c2c5e846200009b565b6204d1a16201d8a08801357f0c3fc86226e89d0afe31150f8f616d4582a6db42f34a5623643ff0f3e5d8fe587f2eb60a5cac28e6361c34d470d75171636d357b92c6c11e51dd8465adb247c567846200009b565b6204d1f56201d8c08801357f1e4e697f647a0ebfa4c03c355837db28dfc72fe26fce8d4181f100f1415aad907f1422cb122a4b4fee36bec728014dedd754e2e940923237713c711ac3f85a1d88846200009b565b6204d2496201d8e08801357f07d91e8ad98e6f5b90aae13b0fb5553779e3844c964b7d3238db4e97f7e13a2b7f0be20e93321b2256963534078a9cc766a68b6a6851fbd1bf8f43baeda8018e25846200009b565b6204d29d6201d9008801357f2540ef447f9793dab773a24ab034041d13a5055cd08298da84bda40e184f2dce7f2512ce0c54dc1bdf035e395905ed53e273e89715241f91500abe6cc29bfb029e846200009b565b6204d2f16201d9208801357f0b4e9a57a2ffe9f041d2b73c97f9a37e91a7ee24a0a5cbe52b8c4efba10b8afa7f2a6a4bd8e0efff7e41b98e96127c4f023e58cbf6facff952639e99e88ef0f6d3846200009b565b6204d3456201d9408801357f136a86ca79075b1b07c8e5c7e3a9ce663aeaee9f07b0831ae30e55747a85f4167f1f5454dacc96a0c32cd0e9f39f55ccb63a3add502199bc6dac228d862d800a6c846200009b565b6204d3996201d9608801357f1978c0252ac1250a748fe10ee811f8fe281d069195edcd3a1902cb020f6813107f0e4701c917872e638cce8ce16a179a24133deb5e7e8e4e9e004c30f56b7f78a9846200009b565b6204d3ed6201d9808801357f1001cf9c7e999a1a29c20618c5634df056ad25689a371ee903b3334afb0dd2257f229ca0e2fbbe1f66502748251d700df02c287d19884845216e855fd853182a03846200009b565b6204d4416201d9a08801357f2b42dcf452e82a78a931017d49e20a5f26d3e4f8d850714d2b70d412c1da91607f1d75bb66e1816cce6a637dbdd00fac7fdef80fbf4725c9219f2a15df19354e00846200009b565b6204d4956201d9c08801357f29eb6dcf039287f51e10e6783eb4067e401f1a2e9853cb933ef89a2dd22fd94d7f034d9d9a036934848613c5142204392b5807c55fa28c9ab7496696c7e3f22d27846200009b565b6204d4e96201d9e08801357f186ba4c2654150de0f069fd6d6c93f2ecb193cf49d0091dee77ed9cd68faa4bf7f16a417982cb130804b6351a7f2dff88d4360ddbe9cd72c4e67ff9361372a79d6846200009b565b6204d53c6201da008801357e4ac1f3d2c0d9353da20e1ce4e6c4793223fff65b4afdca42a21f9007e1d7817f26146de4fd162df4098a16dd54bf98d0d96456c581e20e21c18461db3502157a846200009b565b6204d5906201da208801357f1e9ab39a459ca3f7ee2e77e9c090c21d2f5d4a7edca4b3545be0ea1c3ec51b377f16e9d3858700e6bb32cbf509761ba3cb60cd14786b79778b0c30dfe7eeda9e13846200009b565b6204d5e46201da408801357f2e7721f1ee104cc782a456cce40e5dacb783035caf7b823674b003f392a979307f22890c5385c85355524f00dd6e5176b30299246698b6b7cbcd01aa432074a13d846200009b565b6204d6386201da608801357f085699c5bd728a453599d4ff1e3729c35d5afe7d874bbb2fec6d01d0a62d4bcb7f08558b31480d269b85aeea45c22168d4c72abc8b4c33e2d7ca71083670f11b76846200009b565b6204d68c6201da808801357f266f6a65954b7ac6372377f9cd1e1f4bf291043b2fff366a33a6b3668a7fa8187f28e2a8b73c892ddc111d16824c47321c9e44fbf4de7e7db12f1248fad0364a4a846200009b565b6204d6e06201daa08801357f2c590bb390fb5e09ee5838ac426721c60d05b4646d8285e6c7f1166514d4f17c7f2452da2f3dae3f0dc95f76cfa29fda7e1feb0007c4e7658a5f79216edcef49a1846200009b565b6204d7346201dac08801357f1abd9c1c5da9992af40b0e82b23d93604d27f422eb9cfe7349933fccf9104ce27f12e910fccd59a48b88b19c1b1ef23ad9197ea330f72f421afeb6b50341725b6c846200009b565b6204d7886201dae08801357f10d6a34b4651786701cb89248d23364bc65e459c306f2bb3fcfadc258d2b468c7f2001500c50229e84cce0e10e796baa233ac5e0c9a406399bb9683c161c266820846200009b565b6204d7dc6201db008801357f2997bf4ef28e3c915be864b868f8a6c9ff82c65bd7c9cf0acab86d71912a4b2b7f218897b27ac6e434f3059d7c97b52b875b0f1aa4bfa6f6c8c0a7ff6d1aab1f0e846200009b565b6204d8306201db208801357f284227a60e3e63e3651959ad37563fa63ccce112066d5a6bf7b34f5bee91cb3e7f1d9b391a03e64e55b6e28ac766ebe32c85e0f7b0d72de5efcf1dd4affee06a2d846200009b565b6204d8846201db408801357f21069df2b2752b8102e18fdb2b3be9c680df2ca8b1646afb7d585da4e816426d7f26621ca81e62fd0b5568c6113d54b50125006312dfa04a4c1a0b83192c93d0de846200009b565b6204d8d86201db608801357f1cf093210f25bb029b33e8e601627d3c796f85fd25c69eeee1e3a545dc028baa7f2c331ce373ea3bcf7488242908e3f1c50b8903fa9c01d5b4f59bc2b70e27159b846200009b565b6204d92c6201db808801357f1cb7ee27d296ff2d52f4774e36664ceb8d8dfd49987088c478e997a30d7f0df87f2c6c6f9507dfa315b5f622f8d9fa1cc7071034da2296b70002614915e869848f846200009b565b6204d9806201dba08801357f2dd1130772fdb2db54cc926903e02981ed29ea9158c058d8b00b8c5edcead9667f2cc9138adcd5bceaf9274713d5fbe1548d7f8cdfb1752aa49d5c17722b34c5b1846200009b565b6204d9d46201dbc08801357f1370d9edd48eafb1e2e1f05fc3b43970b420e55e65d66022eb309a4076a4b8747f081e8017898839749e36e8e176b8a0f4bcd5dd859dee25819f9a852753800cb1846200009b565b6204da286201dbe08801357f13fc3802ce677a0f252e4b2b51a486565591a6ee5f5533eceac56c3c9a0f8e687f2c990efb1e24ad723a2bd947f32945b6ed26027ec7454ae681cf523208527cc1846200009b565b6204da7c6201dc008801357f25dc04dc9d715fd71943834bb177c7c2872a7f88ef3708d2468031455e47222c7f1c6d647004299aa9c61f2048e3056a362cf09c565c9b907b590eae02965c0f48846200009b565b6204dad06201dc208801357f16fd46ffcea9f6fde72e5f21bffdb8d7f655c4fbcedb121908f22260e28436767f0fd5a6e313aa3e66ef1a0363bd3712df059f460eec98dfabdca4d7ba951214b1846200009b565b6204db246201dc408801357f11cd1ce841fcc3cd3a6f8c3b29d510682c56d65cc3bcbdfdba4e085920a308a47f2811f0322e217d1b5248c22a1f9e82314dd069cba3bbc83f965052e06e1cf6f7846200009b565b6204db786201dc608801357f156a65f00dcbd5d8e8da9308e6178f97aa88e278555e4d5b0d65bc37676749787f0f244533764cb1cb3951ce080866bede58bf9e39167662ead83c1aae39b875bc846200009b565b6204dbcc6201dc808801357f0e898bbd6c5cf3715e4654de5ce1cacfe1917d7d67e3f6d5dfcc476461c707cf7f30236c242d6c4a5c6e58e317e5c5d7e8ae7171dcbeb4509111ea82f0cafda827846200009b565b6204dc206201dca08801357f2c42572a503f0449f2946ff1267937f3985ebfd7aa5a559c4e0459df58fcaae17f155352468ca90b7729a7b27aba6fc8b9afd13be5ca93d3302eb2610a30841288846200009b565b6204dc746201dcc08801357f0ce361f834428320be1ce619b5f41b08d84d162bff276ff738f91076526c14cf7f01434f36d8f56db7d90bfbc4228bcea50a2344358c999907910e0459bd008f59846200009b565b6204dcc86201dce08801357f12febe4fc311f8d4c3f0fbd80327ad8e0baa631fc37010b0305ddd0938a9cb637f0d21a4a95668e350eaa6262eb2e23ef68377515a4b36c09907d05af58587b9f7846200009b565b6204dd1c6201dd008801357f10fbb66abc25bc84409c2847249993183dd2efd1ebdf6039d940f472c11771577f06c23dabf14775cf34a005b2b89c3a43c6124b2fb98f315689df85b8eb0ee7ef846200009b565b6204dd706201dd208801357f1c7ef9fa0afdbcc289e716690a311d4aa7dfa6ddb344adc3063e037fd11a61977f2ed8aa21dfd881dcc3f1b9a3e2a906aee5f25704dcbe1a2c0628b37c6a8f810b846200009b565b6204ddc46201dd408801357f0c7df1adee36370ed1c7ec6408c42b712eef8905a958b1aff809ce689533a9907f06368c1502631e84e3660ea5126b3757379a5c42a6ba987c7d3dd8eb32f87502846200009b565b6204de186201dd608801357f08ff0474472e6a8864c3e5835e6780d27229d5e0fef36cf81c96f9dfa13dd3ff7f1dfac1eb385d6079c2d69b4bb7a251ecb8331a75d079daf7c2ef4a823355230c846200009b565b6204de6c6201dd808801357f0e2ac6566fce863deff19c04b5175d9f1db8df70d7896f992f12ee99563396aa7f170dba67507bba06b0d2f8ac7ccfc907af5bf96165236062736179b21fc5b2ca846200009b565b6204dec06201dda08801357f12859871ceb22f147c2acc113d3a3f2679b43e57bd7d9b276e6e5e0a5f7493337f0ad57b1e0f58e3d5f3379babb45cc85956b2c691e9d3659ee4d44c3e76d7cd84846200009b565b6204df146201ddc08801357f1dcef6af077e81d57a4ee240bf3d59e0821e13e005c0433d5765b1ca7b8c08117f2d5e24e2ede9fb335d1e657e9a77c826585e23268ab0a913dfc724e5e6b0414f846200009b565b6204df686201dde08801357f09008eb22d94386165709a4e82e0040340e3a42e7b393179416259286db75e657f1633e18b7c4e44a017106f9c2d3c9097b596be3c0c13c34b5a33f96fc4794351846200009b565b6204dfbc6201de008801357f24e7c1f1c3f2a6dc2832e6b7f1ce2d01c465c20fc7be9d871530006031d4ab3c7f10048d6f6cfe6635eebd819d39879a13f2cd861d39b9b0365793dcc504115cee846200009b565b6204e0106201de208801357f2fb20d5774e8205427c13ef4232c60df37ae4cb4821b0d7ffb4e6c48fb691e687f1d3dd85a144c079129f9bd58f6e3d233cded4553b539925ca4b2cb09aea5f685846200009b565b6204e0646201de408801357f232e9f6edfae41c18d3eca9dee77f198bb101388ffb7fea1cddea569c8a06b837f20cf373073f01488f1b4fa1d23562cac09871be96bfd1fdb43cf01bd02b5ee54846200009b565b6204e0b86201de608801357f1b678ef016af526f6851c5a934a05094bf42c5db8fb1533f9a9fde0a01710f5a7f07172077976bd7fbbeb353cc8de3e4490b0d2ccb71c9645963df00cc39599786846200009b565b6204e10c6201de808801357f0f0ca507c7ac514c2a75f2f3aa22905ecd8c3a29b4d631776f3d25373f3afa997f0ddee98e4684d9377ba98c2cb2cb24472ef350f222836acaa17cd323c0ec43bb846200009b565b6204e1606201dea08801357f2180ab790221080086b3cd3abbb9a0d4a5fa1671a86959c95ce92ebb0f1137667f176574ab711c8ea7fedc27f4a45ce40c093d25d67ef4c646b8ef776ab0c56b28846200009b565b6204e1b46201dec08801357f2dec7894889691e0200c21922b1dbac5b70038759b7c4609888621e10062576d7f02b4ce88ff698d75d88394cd6cfcf41d80ae0d22a102b3ebd4f4ac7adee49b7f846200009b565b6204e2086201dee08801357f03a154219c69a0b0d47ff76a2d7ff0e1c0f5e0597efacc8f1f732ed26dabcba87f1fb8f59e6277edf13f96d755906135ac93d4d8bb1f9889d85d509c27f114b7f2846200009b565b6204e25c6201df008801357f0538f0157391af33a5a215026b86454ebfa17a250c2978a8e88d0f43f381fa787f184cda7536e492ab57693ddadc51e10aa654ca8fa827336ccd4e9aa521d3d2a8846200009b565b6204e2b06201df208801357f2da8b8cd2bb9913b0fc061fedd5157b5e5ce01597149e247f19532d1f299fdd27f066cf22a17d1ba73620c8668559053036858edfe8425a6c1194479ee7d53c117846200009b565b6204e3046201df408801357f18e9cafa57c5fb29976696ea729bdcd5b64fef1d51c8cd8311ad6a59080c96da7f16a72db05741756a0a1fb2f2217f970908611aae00f92a9bb990c936df86ce9c846200009b565b6204e3586201df608801357f16857dc16798e0260f130e81bcf6a0baea8b776de11b27de37d73ef87cc8ac3f7f1f0f7ae5c5bf9d392d86b4c06aa1845c3f10d9a4abef0e1e29a891d1d3dff5a1846200009b565b6204e3ac6201df808801357f0e3023bee5253855dbac23413d100ad28688ad6ac8870baedb50ca1ef695e0f37f0e719f95b1a5a1b169d8028a11570e229554a3176c8d3051da56e3d29b824b3c846200009b565b6204e4006201dfa08801357f2ac9ce2e641cc15401692526dde999efc417c8f80c75c41498c3d6fac2b4c72b7f204e129c63247301b83f267863dd2acb286c4826de33d77000efcf973a479dfc846200009b565b6204e4546201dfc08801357f1d7efef9376888ef8cea3d03acb8006ed39bde7f7a93e25294c0129a9eed850a7f17c7156390554b4c3b6cf0bd042f82a0e5440fed799b84645573815eda33b7fe846200009b565b6204e4a86201dfe08801357f2e411df35dc937df2cf22f62ccd7444e1a05f03abcb3d4bd1b4b6f4957ee09057f0f1a3b4f48f3dd47623bfdfcd0cb242cdb3afc3012c4e4f018f5a891bc2b0ebb846200009b565b6204e4fb6201e0008801357f19c8fc450607082c380aff846eb94753d56bc9492d55d43fa8d6cad3c2b3b8307eb33e10e8607c4a3a57743f8c513c2f388378661b54ffefe696efcf07bb6c1a846200009b565b6204e54f6201e0208801357f044ad034ccb26f6a95ee298a335a84367ae5be2aa8812919c24374c1d8d8a1ed7f01d4d24280ca80a3acbd799a7918ba200474f3af879b2f3c2a17dda1108c9a59846200009b565b6204e5a36201e0408801357f1e2bb6d4cd7b68615fb9e9f0f4d8418e41e041b470ddb7158273d0a5b599e1a47f0e91c5b23117f746f691f4b4d37d0e050dcc90eace759cb5b37304f5de39a810846200009b565b6204e5f76201e0608801357f04e2d99c0d7422c65fbc4514330bcd803a2e9c1f7878f2b27ca8604a2f0137ea7f13c80baefd945d97189988388d7456860cdc87ab58130ffa68ade81008e78c71846200009b565b6204e64b6201e0808801357f2929f7eead7ef4dbcd994a86bcfeead0e8e75d5f56a9ce43db0d9c0cd257fdd67f13d845b444bfff1d541030004c1563553879eec9d435b9c9c271767785af4595846200009b565b6204e69f6201e0a08801357f2548753521434d36d09330d950ce50293bd4d34d968d4397a7dcc6eed8bdb8597f18e2ade17244c375d422e8f09a98639fb505e3520c5cdb07c772e41080996e54846200009b565b6204e6f36201e0c08801357f1d479a04e970e05538effcfb900e1312e77d26606d86f7e636b578cd74e0ad887f22c27f0cf1e866a977a13d4e55c6246d1ccee9310ff6f29dfc81726c88cd6627846200009b565b6204e7476201e0e08801357f1f5f84d3b93bf255ae8c1e50fb432b55bc28d1fcb8142140f524df7f92def4737f105031ef068a273f574aa8f4f00e4460cd026f32c286f1db7457ccfce7c0ca72846200009b565b6204e79b6201e1008801357f1e948394fbe44f6302ef45119a9f5590b82d26a8a1b95b99844c8259a99b6fa57f136d2510aa427afa903519680cda9bc39421f49000d31cfffb7ef5e0bfef4d7b846200009b565b6204e7ee6201e1208801357ece17bf5bac7f19244d573317c80522afb952890af1e90c4c0c79612c027bca7f0b179da482b833ec6b7254d9bdcbcaa63d0fb05c6a8a4c368039463d05e4627a846200009b565b6204e8426201e1408801357f1f2b71b97c14c014b7688054b55b99dad5a17fbcd40f23bdb087aee406ed6e4d7f1bf44d1415d6eefc51d55f75532226f048a6d045c128dd72fbaacd837d0d79b5846200009b565b6204e8966201e1608801357f2e337064fd40c8da2819239fbc25771dc6073a6712d3fbc5362d04df912de2fb7f14cb381936f9d862cf2119de0edf3cbdb413e921de2be8dacd3e7b0d2a44e673846200009b565b6204e8ea6201e1808801357f1e14683fe9fdc8bf0b47094b79ed9235e0fc31bfda4e5b93da02955d840cde237f1cc86e4e7504c44f189a29529fc2936f9786447a7f35533d51ab315377db4e6a846200009b565b6204e93e6201e1a08801357f2d4988b054c791ce6a4fb36c726eff7687147fc465c7d53268eb3cc60e6cfd427f2ac8d0c9a31b463770b282b8db6d984facd11d3c5aeb5462143b4db46f298ca9846200009b565b6204e9926201e1c08801357f2d549dd349f1cd3d3f3a9a5258f75e15cd75b79dd73fafceb4d21fb68ea17b127f05c3f90d320fcf30317d162f62c6445ad8cc3a9b705f63c235a11b86ab2ed6d2846200009b565b6204e9e66201e1e08801357f11ce6378d8de8f91b239c89d7fab10bb0be8a3d7eef7ae5ee6d152a2d6fb6fc97f04985e6de1042f41b13112eb40553af78f34c6e0f78135ae5ec700c68852d455846200009b565b6204ea3a6201e2008801357f168404c97925624e1caf2bbac3c80b1097892d26157faa9f0c8669db718289137f0cfc816380a530c4eb5eb191031f70774a97d699a1128213b48b9f2f541a4432846200009b565b6204ea8e6201e2208801357f27ac9f162064b9ae00dad5211687c4c5e58f684983d7d034a769576b4ee52e337f1ed847cf37c4689f357c69a424d06d7153dd30ed833c28e5248c865675482d3a846200009b565b6204eae16201e2408801357e5977b26c797b546447718a11c693e09304c0d5d30ec0f2dca8409428c474cc7f2edc24e919219b90b7130e930104c910039b088a02071454269aff48b3c5523a846200009b565b6204eb356201e2608801357f251da16cee72f8ceb52251c5bd2e6f2c66c8e0368635f980d439120a62f2e2f57f204a9f400d3c90997ad6d65974268623e20a0583ca0da4eb673d73a034bd5860846200009b565b6204eb896201e2808801357f17cdf68a80844b45e47fef967e9e57060ae777036491f32a76454a4e1d8c33d07f0d75dd4c3c01d6adcf83bf687f049d90d876839e7b6b2ee822b4cfa22eae12df846200009b565b6204ebdd6201e2a08801357f1b1fe299078a62a804b061f69ed83888cc636615baf3cffc35ecb0bb1449d9137f05065ac925cd6d46623d20655fc28fbac135d063ca8c4fe819bc21b752e2053c846200009b565b6204ec316201e2c08801357f1b25718162d5bc0b51c9f94139022c87046bc9caf22e4027d7447e99a72e21a47f094bbf9de290b1fb9c61dc7266e3b5f874c1b57cca0321202e2313410270103d846200009b565b6204ec856201e2e08801357f14789c95d9eb7ab558501b7d092ab1f6fab98cb64e6ea05fa033b0ea321cd87f7f28c1e34dbfab0b3f2d473676c14cd4f67f47b6e8636e6e85e045e9bbe4879880846200009b565b6204ecd96201e3008801357f121863c628d2fb9822306e96332430e0946759bc393f74977c0b3f44d98b784b7f083235e6ef32a57073289ccc825923bd7f783d11a45832f936c8ca9ffcd9d3c2846200009b565b6204ed2d6201e3208801357f037d5ae373382729710c1da5c427e00694894c4c1bcebaa435d01479270800c57f17ceb5856a66d1cc3892941c93c0c19e5cc96fd10dcda3aee3f6883d2645067a846200009b565b6204ed816201e3408801357f2edfe4a9e56d17b3d7fcc75f241a4117430a0ab9ccb3031c93146557cae3900d7f24d379432a1e255f7be9ad217825f7a258249011a872c67afd04059ac583291d846200009b565b6204edd56201e3608801357f17d04e50388e6dddabfcfaa6ba3308169a839bd3457980ca2132198d8b9eee0b7f23489b82aa645650515f6d59d25c8ee5a5d20daf9dc9ead8a34af73789b1fbb6846200009b565b6204ee296201e3808801357f070d95cfb1022b96fc96585642a7426d8eaa671fa4b7e3b5b915602fbf170d667f0d1e368ac62ac94897534f881f9b3bae87e2daa967339d8877967fcb44be3cfb846200009b565b6204ee7d6201e3a08801357f14d366d184802ea1c5a1807505ceda27cf55bc981786dc3abb7cace785819ed67f2017487992d45f9e02709af3e888ce48c2fc10d95d0fc75c27e08b0f397f8c3e846200009b565b6204eed16201e3c08801357f166ebd9176c07cb58b75b13b7766cf91c1c37fa7cd3368aee102de69407abb967f11a0fa85fc9624d0b624588b9295cfd6f298696041a04af00bf93fbbc9be4ec4846200009b565b6204ef256201e3e08801357f19ad7129e15da58f806cd66bd455ee14f7d855d83bd3fcd17fc7160bf6f2c20b7f302e9ff979fb0a9ed501b2d063db59dd817d645d3405c16f47bb2af4e3bf3987846200009b565b6204ef796201e4008801357f10b5334b076ee404a1e457509866a59c6f4d7bddf245366a012facbf442229297f1d4761423a167e852bba58f40fef09c1d0f14a4ae6817845a126b60aa44e8f49846200009b565b6204efcd6201e4208801357f1425d1888213b1573612e6b2f6f3fcde2cb03fe7f83bc4d3857128aa696439547f2c3ed042ad465871e81db11b83b720d979b4448129217d44458a63f407e2c1f6846200009b565b6204f0216201e4408801357f1a70a74ecae4561e3be301314f47a56c395cbc3179a84c7c362d9860d0b8bba77f1198d76b5e5ae175704f1ffff590167162b4802d63290b5ff15a010a1324742e846200009b565b6204f0756201e4608801357f15b6211b0283d6e0e5b11d7317991c0fe51d5703481a3048e523358b074ce1867f26aac3d3f32060bd3e2d4b1b481625736bd186056101a8cfa41c6862eee244e6846200009b565b6204f0c96201e4808801357f1e702a03366965fca626659b1adde928b4e21b7657f3373c3e651e4d3b42d6747f0e78fc636f0922bbd5df63d1ea867ae687947d47eb530c3453993692976190bb846200009b565b6204f11d6201e4a08801357f1f9fbb2a9ab878741911714caf787d5aa0bdc54ea45be8a82c871ecc89a8be4a7f0a451b31a34e0302a51c3011c0650b0f04b03ea03356624d87ed270855f1e375846200009b565b6204f1716201e4c08801357f0e55c14288aa4cbfe167bea449e1706ba967d57e636fb3c6c1cd14ceeb3500b17f16b6607f878f69271ee6c654f99cbc33fdedc6848fd19ebf0f7116058fbc6973846200009b565b6204f1c56201e4e08801357f092ae445d230027e8dead98b71ac7265d49732aafe131273274e4651247b9f507f060009bbdcd5d73c3552a603affbf149af270e48a5710707d9c6de61a950890e846200009b565b6204f2196201e5008801357f236ec18f79684c6bb56fd0da5f3e3a5e2745c844a1461efc2031d557acb310f67f130897d71377fe3dacc10f76d5cb7de8c74b117ac4bada70ad6fac655f2271e7846200009b565b6204f26d6201e5208801357f136a338d90c98d0512f94c879d125b7121d230b036b244a09b6392e9564702917f27c15e91a03dea65b43314a772860fc3e5b0256608748670c857fdd28bad9078846200009b565b6204f2c16201e5408801357f125c858c035b48b507272a3690fecf8c297f94dcae78ebe8ae6b0a783914a61a7f16a2d9080046e2ad4c53ec24c38ef787dd4c8a3cb0b748f1152241d896e429cd846200009b565b6204f3156201e5608801357f23b159b34d5e6b5f7fc40cc7608e9de148db0986d3dc926314208f8790c9eec67f168d9619cf7bc3afd3f910ddef8159fa22ef8ced9c617e1a28bad5d8db6dfcef846200009b565b6204f3696201e5808801357f0166341bf2b61e10f9c4af3647fce2d7c6ef8cdc0ee30bf100b9a0e792d2ae837f0647e37d12c467dc05f4b5298151c403219d178697a0659803b68e0db0abc250846200009b565b6204f3bd6201e5a08801357f1cc85b1d7992d340270372be431d8af5852281cdc0e6dc62f64ef85c1148a4567f14223f101f8ebdef829341232b03f64683f2320cef47bfff375c3bfd6fea15d5846200009b565b6204f4116201e5c08801357f29147491653c48b2ee8e9d108d0f286ebe7b6adf320fa066a5d249558fb0e1807f0a5fa3b1ca3d4085cd7ca3f899d7b83434a59b9b1fa65c3e28fc9e7c772ae85c846200009b565b6204f4656201e5e08801357f28c9472987ecf68cc6020e11c1cb2fd7d6f71f056159a1f2944960cd85741a2f7f139694e35439dd77a325a8cf5b2e42c307cac24190bd4036a73a821b8b070aaf846200009b565b6204f4b96201e6008801357f12fb6784f3bf65c546b989780d497a83236f652b0ce91a365d6d060d20dae8257f2e966227ab87054b5d2109d6132527aaf7436167fe828eac30737ec231115db0846200009b565b6204f50d6201e6208801357f29221e45942eb020f52b06c0bbb2ddda72dfb4aa78ea4a15d3c0d77ba87ae2907f2db1a1c691c412d959e5287394cd47d346e6576696ed801c589bba93bcebda13846200009b565b6204f5616201e6408801357f2c55be6a08eb132b10603aed2ee1785fc70c9db2d90ccb5a60aea8db361c584b7f074534915c323acbfb3042d90708386ea38e2a9e04439bf64a91066ec32ca3f2846200009b565b6204f5b56201e6608801357f089e6b1abf00b13b38431c3458746246c217634a9fb0ab36e0d2c37c7b73da4e7f2d693926927f1ba5aa1d865ce488460e2d99c2e78e69e2c48cee413580f9df21846200009b565b6204f6096201e6808801357f29f29589d3b6c685a9a8a91f7efcd80adb81dcb7f72a053e8f8662861422f6237f279907102eaaeb8f55f60a4c57029f24e4ad33b0087d24de951fe77885e3bc34846200009b565b6204f65d6201e6a08801357f1a5b47c70ab30a29ea7669d52df132cd4fc519f63188e36a460f41934e1883b67f2f5b7cd4dc1e4bc55da2b47a183dd4f12f501e8e9c5c0e6cdc06d99cf8068ee7846200009b565b6204f6b16201e6c08801357f1929b832f0fdc756be93b35e175a8e16e82d3741661a7579884cc10b25e973617f0dc87d492b09944f19aa7e4633838f4843f01c0619a04e01aff65809cbfdc083846200009b565b6204f7056201e6e08801357f2604d46cf1bbc594d0336f3577127e2a9473a0acb63c856bb6c693ad08f7931d7f1794a6ffbae5377ab2ccd9038d70665ba676eb233e449af20c89d167c9049650846200009b565b6204f7596201e7008801357f0301a301d3b4d2f2afaab9c07b6bff9efa8b506ef528b41484b22253729e3cac7f129f716853c471148f79664d4c7d01dfb2559286f57a5a8a4225e72946d2ff3a846200009b565b6204f7ad6201e7208801357f2d9503189ea1b056811dcc6025f0f7c804698ad6ccd9ab7f92e756f387f8ec257f26e24f4b97c8a72f6442df1a2936b4b169a269e1961bc807707825aa1633d159846200009b565b6204f8016201e7408801357f150072382bd9314ab7941a9b3bfaa0dcb2fb199f4a59150cef27c5aaa9e3daf27f0df42b3277711efe02b1df8b1998c7795c8ed2eb8331453be66dd3a893df4b06846200009b565b6204f8556201e7608801357f090e5a8f3f9606028eb2ba3f1f3c03c22a73424c9ec164e1b907675d01360bb97f0ae06f33ed4270b38efafac2d155336129bd535be067e669b55815fff85ad652846200009b565b6204f8a96201e7808801357f2c4ff93f50d45026d45b1c376b29ebc9c29fcdff0555d620f10dea29b4becd897f2a03ed12944fec47929412f1968bc0285a14da77f3b4589fe2c53a86a1ce840d846200009b565b6204f8fd6201e7a08801357f037cda7c0571e48146289a3fb5d91b3262dd2d916834e519406361057ff155917f193a904e9536b2f4a9e8f5e294c6702a225ba31a236b9d4931ee77da36c94fc9846200009b565b6204f9516201e7c08801357f1b948091aa7f228e5614a1ecd24be6006ffc8ebe1ecf49eec8a33cbe2c39fdd17f153dc73bce37b980c8e5168782ff6da2842020bf03120867c12157605322e00c846200009b565b6204f9a56201e7e08801357f1f4fcd0794c7e79366f7cf403be875a060c96cfc00b752d86aea62e57139db367f28e139cf0b368de88d4e046d01fa6f1664b25126757da8c2c3fcd0e53aefb662846200009b565b6204f9f96201e8008801357f1e44c894193e0579489854f63bd9ed3ab973a7d3fbfc38ec3c75095a5d970a307f0c5dc77cefd497088869d909f6f0ce7ff0f401a60893e69030b9b0b03759f86a846200009b565b6204fa4d6201e8208801357f0af93d216ad22fee36d8ca0212cd8ce177d1d17b0181f7a7a0043096e52957017f1244fc5d3efd003acab95f7488da5d735375f1579b8c698e389375ce68f9c552846200009b565b6204faa16201e8408801357f1956c73427fef8a170c1efa5b796b051c76446e86310083e67687dba4185729e7f2a3bbc5583e405ea1087f911d8a97b97288e7b801873258282fc730f69579a98846200009b565b6204faf56201e8608801357f03edadb1c5cc119513543265f5d1a85fae6bcaa15d36dd96c3f3ea86f4da61de7f2686ddcb479423468093b81346a4d13390686d7271148a40dbb5c813739c6cf5846200009b565b6204fb496201e8808801357f1f86746f237eec63d41fec1d255e96a8f5e5e46add37ff6a0c606a32e61a16617f0c010f1c8af3fc74012dc5e1a9749338ee68b8a9f3ba2abea15f8c233b1eb6f9846200009b565b6204fb9d6201e8a08801357f0bc3c31af0b59d83c4ea61ffd6d14a7299e4c32e5f4aaf6d94279e2d2398204a7f0c33bf263874d3a170c75587742e7cbc013e6af03406a08150e1090937f98d95846200009b565b6204fbf16201e8c08801357f05a7ad6259e207e183d1c67868abda219c8d6deaee5256f4773c5486eb14ed157f2bf0382a2f2ac5b1bd8d4d06801e1ef3deb63b25e4c9dbab144db495517a9248846200009b565b6204fc456201e8e08801357f138f1626a91af7b8da4de05e1f9630891c80fb82c46d68ecdf9a23132dc194837f09441ed8e41e129ded27ffb40263cd7bcf741fc5fd9a7df510fe26029bc2737a846200009b565b6204fc996201e9008801357f10d953329106548828d69d6ee4ab9b78196ec91d2f2ea3bcc6bfa225e223d0847f1875e7f2e6dfdd8a539c0dab74ad957d824f26f43d712ad75d9f05c608341f79846200009b565b6204fced6201e9208801357f192fc5103608d1822324acb11d5ca0dda4334e681e470bad7c03684d4a19eff57f20fa1056a8ade57b272ea7cb2f2b0ce54ee898f4b02d28bd0c24d9095a15a3ba846200009b565b6204fd416201e9408801357f03bae45327440636ebf5f3a89a7333c86400a8fee0c3ed0e0bb87ea4c7081a867f236755aebd15a61184bf0220fc87f2828f0e91d6c0d433fc74484f1a009a4931846200009b565b6204fd956201e9608801357f050b9d0125c05c6f482831421e0c591dda4256ad112b256101e7fdeaffeb92287f02cc991e83f66a3da264b950cf354d795450eddb08d25d689a0ced5e32c7c40d846200009b565b6204fde96201e9808801357f29ab8cd9a496310935ac26c1d03a393f7706b82e81d36c251c749a1ed240484f7f0565c32ceab4698683b593f0b703e59b71b2ea6b8314168a1169ceae258241a1846200009b565b6204fe3d6201e9a08801357f17fdbeb87f8feafa5fff437bed4b40fb8440d5c1fea68d018db8433713674a887f221cbc93fddfed382cfc86b9dda7e8e7a55933d7c4b6eb5ce7e2b3892bf72d7c846200009b565b6204fe916201e9c08801357f03a6592f0e7da611626685f3e6c5e3428b14299e821926124d7b17929a4deeb27f04629f70ede71aeb4b931fc49bc43e5731d2078c9e86adc5c3fff288676c54ae846200009b565b6204fee56201e9e08801357f1045f143fd63a06f02bfd4f6be811f4bc6d9bc80733781cca14e39401d8397177f2521b18eefa4091ec1016aa845c23985c9141afef3a4cf771c4b6ae8ad70449f846200009b565b6204ff396201ea008801357f123ca035384cc1fd5c7410b0e2914b1ffe83495766c98c1647fc82b9cdcba4e97f09f94d6472622c89eb1c9e97f38c0c2df36259e3a71d0d034a272c80c2775c1d846200009b565b6204ff8d6201ea208801357f29850f47522031edc2c2c8c2757200b9c151c1c195ee7d7c351502063c3679207f2ddffd9dc5beb264a9bba690f81f72974234ab5535c210298d0764e2c1dbefba846200009b565b6204ffe06201ea408801357e5ffef2daee64db121316d34a8a9789fd48c696b294ed9611b1acd53a3b4cb37f02c8b8bad4c1014dd02e1544dfdb989eb9430a959b0e36e6d836ec9c9a9adbb9846200009b565b620500346201ea608801357f201142b75c0ee83198c2fdd2170bf5f3095e18f13815620ad79ebc773903241d7f25b6016ce3fd3b32163af5b6d40c91c641064581a726b115e6e351f2e54de3a0846200009b565b620500886201ea808801357f0674e4681bce54f81b190a66eb994c2966b0e3d381acccf6db7dbfcd05cefc557f1c1a1fffb12b6fdbfb4c4a6197555f0f9ad10cea53656a3f744eb94ab0c2fab9846200009b565b620500dc6201eaa08801357f1e26afb2d4f115978749016be87f382a82fa22a3aff160f202f191196c6c7c007f3030f752e4436c3385704461db87d98979e9480b59eeb9ef2380e3ee17e88bc4846200009b565b620501306201eac08801357f14780c19530305bbfd5949dafcad98517c5721a746045d28d998343c47cfc75e7f09a6675c6b65433c75df50a259690b323532c83151299c6fd6f22a8bd518907d846200009b565b620501846201eae08801357f2ca9dd139e6ee50d1039b1b68dfc80c264095dcb94d55911c3e69f996f9ac0d67f1dd8b8f11ed84209cec70dfdaada631e4ebb5f5d2f844ac819d02fc58c4e3755846200009b565b620501d86201eb008801357f085ceccfc114c96e14984dfc121de5dc211fa222baa89b2ab5dd623e68bfea007f033c5ebb650553d1deb11fc430a75ca46b23e6183316a1c36f5e153a501551ef846200009b565b6205022c6201eb208801357f064252a6dac80c5a5f94b09e54c4cbc885ef5261d252a1f780fb1bc02ab377217f2190daaf1bec1431fc2949bbff31d686c0bc2bbd38c2cbb91ac33397e74c6eaa846200009b565b620502806201eb408801357f24ae96360d74a94366e5dd51efa597b79ab00b02d7f3e089557d84311e095deb7f156b3744716e930c7b131b94f01d2334533cba393387c24fcf8104f2d1e84be4846200009b565b620502d46201eb608801357f2e7e71d6199f7e5264295f52105431b76e9b1c9319236f1187088e279893dbe77f1efa67ad688d556fee000e12cd9b434129bb9787d1164915b268ef353d3a9961846200009b565b620503286201eb808801357f09b50e438acdcd5deca6885c12acb3ff8741fe9cba758c3690b70a86cd2b1a687f2bfb3ded31f9114f5a0705bbc0ed5e69bb22f03842c813965b6819af54b704e2846200009b565b6205037c6201eba08801357f2ab843f2186f8bc8379977bb6b4ebb625f9f93f91eb81e6cb73747dbfd553dcb7f1a58af6add0965a8038957a63bcb97f5e0a85e221745a0f63f2b592f3529993b846200009b565b620503d06201ebc08801357f1c0982c4e2e8b8a8dae764bd3de4e225e54f859465f30c2f52f05d13b6d588617f1250cb8ba1f095b35ffa42713084a62c585c16de4421af877dabfcadd047c983846200009b565b620504246201ebe08801357f15fb6e71eb7eebe0d18bda8977f117b37701c9f73db3101135c45f6116c1eb117f0ad4b1f264e51e45be301f1515ac490f1471a207340f43f5619c8b27d8638f39846200009b565b620504786201ec008801357f142f9ffdf2f943e9991560b71771aeabfa1302e9ab7bcdf96d01b724263830c87f1a354e376b9133baf8250ec4428823d2e39c579e40f69c5364ec8a73ce25991f846200009b565b620504cc6201ec208801357f2b7712b6591184fb9bed680b3df1e017565ad1bacca709dcda295a1e9f5211877f1cc1dfc7bbd19022945a16f2bc34e5eb2d1d7de7837b454d5ddb721b0dec1512846200009b565b620505206201ec408801357f13a49bb14c167055167bbd703022df2f4c2ce011e798129fe29ea41d391085ca7f208474322d436834fe73443a83fe1c71c9df589da9d4f40ff3964905d8fc04d1846200009b565b620505746201ec608801357f2e126a078c78f00da68c23c46d0085ed92d0a17b9bac7df65a20c031d46afa4d7f032e58f3a789666bc48fcf531b3ed729d7ed15fb358f05fc090305b23f33c2d9846200009b565b620505c86201ec808801357f0b47ad433291b84e7b076cb59cfb0d184a963a2a6d0feba5c037981283a21d0f7f2eddf4f293831318fca7d80c4916dd9e8efd68bb96c438947d2555f1f0877d18846200009b565b6205061c6201eca08801357f15701f9100cc15d2b5fc3502f72b3cad744c79b528dd9b75e019f12870fbf72c7f1c11c0f017a09bcdfb81c796608741fcb6f2030e42332029cdbafbaaed80da47846200009b565b620506706201ecc08801357f0ab97d44dff4ad5890324c38e7c28d6131378b515e8d9a630e6ec422200b37357f03fa6ed5b497c0dd18b601d84a142d801a84eb67c2824981dd09b2665002f413846200009b565b620506c46201ece08801357f14ef0dd301dba74662267ec6aa74a2dd9562d3d6823240de451e394f85ea73c47f04bc8414669c5832214936bcb2ab2755063375aa739624180e6f553a900e5d89846200009b565b620507186201ed008801357f198de462437a318e3fb58c6123649f7f7b76f0298629843000825d62f09a02fb7f209ae902be3629a2a9b4e8fd164d5adc85d2fcd2fb3c5b866c5878ec126e15c2846200009b565b6205076c6201ed208801357f1975832c055366122e0eebd8ecfd1b4df93055da170c60a1bd1cbe2522e67cca7f27198895e9425c8b189681ab18bfc558d8610c01b88fdd37fc97cff928ab3a9a846200009b565b620507c06201ed408801357f254bd7383db23e07f10cbee3eb3d4f4e0904d0fb09263a8d6c758aa62e9cea767f0602e521e415ab316b1a375126330635970a8e49bc171f757ff0b961a973fd28846200009b565b620508146201ed608801357f2527aa759652b0959849510c94f5d575cd808dafeab9a2801c4ebd00a966b9ee7f1d59aa75e25666e62c9b088a7003b1333b70a3ed2d1cc31bf55fdfc23e4d6aed846200009b565b620508686201ed808801357f22041710f0075227077e4d9a20053a8e47ad948b5de7d729309cb8854fc10d997f1236affcac773f2c2febcde34f2be02840d14dda5134045ea0a95ed7941b5c6e846200009b565b620508bc6201eda08801357f054c242cf00770660a4c4c810f7e1aad4e0e6752b6f00a3fc227f4d25e9cc7a67f06f6037096602e51f1b9fad930ca781e23e3ae0256b5b12f9400de01b1b7b73c846200009b565b620509106201edc08801357f1f5ff2f5691a56a640e16eac48f67d426832cbd679b3410626cff52aae5bf47a7f2e88d376dc838623d49aeac50352baeb377068f2291e97ed18e5277754f2bff8846200009b565b620509646201ede08801357f2c4347604f542d3f1d583d1547a064c6698ceb46b816bb70fc1391e3601e5ad97f20de8c427f8f4d49cbbd6a0da75ccba6138c83c27e9f396875348bef20912743846200009b565b620509b86201ee008801357f290deec44a4156160ae49dc7d7e33863441941773cd4fd46676e12d32cfc68847f05ef2d5eb206e0b285606f06e79f3fd37ea51d45c14237681f164df779c52f96846200009b565b62050a0c6201ee208801357f2ba24879ea6b36202f5ca957bca358504e54e3b97d3697ee0b490768b09246297f2531103054fbb7598d42160ad2114f205d3b7579253062646a3e26ebc8760aab846200009b565b62050a606201ee408801357f2cade4325c2fbcc6380aed368f0dc1d53be0299e89bf9ea36bde7015deb028fe7f19b82bcf88a7b339d1e982f4017f66ace3ac09c7d2f3c440dd5f4f5425ac3dd6846200009b565b62050ab46201ee608801357f237c9a2f5f812b2878a2ddbd4cc312ba29bdd1412b898ab0c771bafa565fec2c7f168ad51e56b30988138411110a97319bdf948415db6f9dd51f562a94708af0df846200009b565b62050b086201ee808801357f1beb590431688ea8522121922fc733825cb027adbdf5a506d2de2cb954f3b1617f1246600fa753232f1967a489c9096de4f90dd1e3c1581567217163b2071b61bb846200009b565b62050b5c6201eea08801357f133dcd80f6c5dacb94fca497da2b960c24146a300a203b79b869c8f21285434c7f1372dcfe3de631ff764514da6bc6b89ec4e7790687606e8707edb51efa74e72f846200009b565b62050bb06201eec08801357f1080544feba23f45f5cc5973cec1d495feff04040b366996385fc85d806cf5617f09055c5eb73e15a3d0c384d140f0eade7465f6d7c8850895cd36cdd615e3b3b6846200009b565b62050c046201eee08801357f1546b7a50b394aeca71e94a3087160a34ea511132bcac7cda631d4993cd6b9947f0127432dac87937142b191b3fbde0be0414bf03642703b6b9b451b15c7da2d28846200009b565b62050c586201ef008801357f13952a8a5d0480c2db9efd9b0376a41ce40f4dd615e532f5594a6658dfacbb137f054d48b4b3d1c0db97bab9d16aec17dac32ab0174ebabecf7267be903dbd6981846200009b565b62050cac6201ef208801357f1d80da7aa63eee2cdad01cefddc578e9f725aa3167f0d38aca64ee37dca3ba3c7f2d204035b27f70f8ee5877291da07ee47cf1b0b1a1f73089f50650f1abf4f18a846200009b565b62050d006201ef408801357f0880e3245fe98b7bb8a805b20515e66b4e0b5c28bb4c6e4a1ec298bef09d4e757f15af312e52411ef33f9e9263b10e3676fa1052ed2dfbaee1d81d52c6b4200473846200009b565b62050d546201ef608801357f1c3a096b22e08427c1225e4566f2c60bb5534bbad9bbd2fd2762e6fe451c7a6f7f250c696536bf4a0754b5bd1ef9f3aad4f6d1219586318ad7cadfe3a46a1bbc56846200009b565b62050da86201ef808801357f07cfcc5aa493dcdafe507363591c913174e67d256404b46a6088aadebbc365907f11d64f00f60a49b4dcd0e6560eaa0d39c5ef6204e5aa64de2287977c3a0c6d60846200009b565b62050dfc6201efa08801357f1af462d8a84636945ff25399fdb09ed52cc03bbbcfccf34769cc1b628c3f6fda7f2514f7f72027a41e222699d43ecea97ed3eb01a6a39cf46fc444d46a93492a73846200009b565b62050e506201efc08801357f2b2be3ab3bc1cff5bbfa5bc89f3d0acb7c6f1d9e47c1792742336315ac23c79f7f1693c6ff408df48e1fcdd9f60b93dd1f5ebafb93adab0b517064d56d6d061d31846200009b565b62050ea46201efe08801357f14ca96791e72d46525e9b496504daca5bca597a3610e864a802a4acfa5dbc2497f06444fa3d0c98bf30a2f7b98c72e560511c42e7543fda8e864be5d02e361a65a846200009b565b62050ef86201f0008801357f224d59cf9e814296a0b951748b05888a05924959e4a116adbf2af2179dcbf23b7f15dcc98e76e040c805a0315e08ad59d2377d201c6920dbc70964cec7c8003bc7846200009b565b62050f4c6201f0208801357f2feef2618d44c1088bdc82a65fd1a440a207994f196e9fb206cfc8270e69e05a7f04537b187859983647ff46bd63315c627dac706b409de0fc18e230075f7669af846200009b565b62050fa06201f0408801357f214e64fa4a3baf62802e4e372b1686839a6f1c5fa89ff90e99a96898eaba8fe87f0321a9a56e103f0eb6f5757f819877dca4ffd9da6ba460c6b60fe8725ef5cd8b846200009b565b62050ff46201f0608801357f05ea91607aacd0c29af8077dfdc50e6f94d06fc713c61c75710230f9d57227247f1d666045f6c176ae0e5960ccf82166f87abb873d7111c1ca26e5ce5bbb89eff3846200009b565b620510486201f0808801357f1951d71e52f9085267d71315f38ce1687cda4d87f62862575041949c5eaac43a7f105b7cb8039829242465e746037b31bbb25b7dbb5dde5ff6e7cf5522d45c24a1846200009b565b6205109c6201f0a08801357f04d854a0534177f137ad3683f841786a90970d0b39fd7c38ce5a9a8ac00da8f17f1fa67a5b9730e0cfc37ffdb637c0d3a2377c678d6f844c6a859f6eeab424db9a846200009b565b620510f06201f0c08801357f0de5adca72cb429dee3b49754dbc3d3f8fefbe8de81cd01d8be9be95f866e31d7f1a87ccbf944e33de276e0ff1b43d5c5f2104f57cddd359b8ad4a00cf4ebc0983846200009b565b620511446201f0e08801357f1fbbab1c49fdd8866c2821db3487d9f76ae2eafbb9bc583ad4b36bc37bc4e8637f13e6a234f8b2bfc2af0a3346cb9514922ad9ba58b80141753488dbd7336f9bed846200009b565b620511986201f1008801357f0a826d8d3ab3c860ab4313963946b3c2411ee0d4985f35c11337ec29e961cbb47f11059daf97a2d06c941082157e6cb2070298b6b04ca038204543d55f6988f31a846200009b565b620511ec6201f1208801357f21794fbcb93db14dec3fb0695e53d9cedd5a29b735c35ea9e21242c9171210647f2a5ff194f5cdf087bc232322f1338d9902a16849b01a6607e899a811a6e6a1c9846200009b565b620512406201f1408801357f0885b5adff15f870ae8bf094d198becdfea4c108ddbafc8434d5fea261185b567f073c875d9ee6305d08cdc736e6f7a61d8d841d7c609f6af5bc443c0170861ca6846200009b565b620512946201f1608801357f27453b7e2779865467d457dfdd2ddc6e239643845963cbc6f054aa4c7abed6cc7f0b28dc06185cbbd9ab5f844063ce8753364b07c50255f9604a05d80c0f1f827c846200009b565b620512e86201f1808801357f11fa03a650486fe6efac0965c2d9461bf9a2dbca9496a23fc672335009758d2f7f0e8ed5736659d857da3a335c464a6e0ae742f40d8976d8a8944034f819c2b870846200009b565b6205133c6201f1a08801357f14bc44daea8a441386ed5d731123b9d76b6763cfb32b05164820e3f0a3911a1e7f2afb71edb8ebdfc5157dff6885334e00bbe372bc7ec38a42eb6dde4c3cb604cc846200009b565b620513906201f1c08801357f1df17190244b0e48e90040a6e1a8ca1c6cc8073fa67c54382a5ebe8aa2a0fbfe7f02b068f79a29ae56ab9d58e4861b7c98bbf9f31437322d10e466475f638b8fbd846200009b565b620513e46201f1e08801357f1250115ee6c414e972be6de22f77f5f2a85ac301ced20916a89e01e45ab8b0417f302870562fa3697802cbca0bd74b0cf41d86fc1ff3ea7746c49dff0f53a7d103846200009b565b620514386201f2008801357f2763f0a48cad2288fdc2b906cb758d744608254c875a7322a5ca4a567b2874fa7f0d7ae70dfda8a831865d6dbca40be9e1e608e27f4e972aaa75cdb6f1e42468ff846200009b565b6205148c6201f2208801357f1bf6455db2fd01d9c065d099191e54c75e0d2da8d66bc6c596c530be7c432d617f23b445dfa1d643376a2a1f0e544d29dde09e538beed84abe5b2d93e8c5200997846200009b565b620514df6201f2408801357e077b2525176ddb72cf167da424ee615a6c0518f66e1a5791e25073824ff2ec7f2e25adbc3c5a5f268bb18d26948b84afaa2494e53a381d56913384341b6ea206846200009b565b620515336201f2608801357f0f145c2dad4505e1eb8e1474563290e5f01abf0f1a1e9aa51683063a8bed73cc7f112dca647ea6a1a6704e349a8b8d0f7e049d5a9fa599cd5ac4dcdebf11a394c7846200009b565b620515876201f2808801357f0c6851c7b431c88eb374d6cd9f8fc52999e2af3a80e7adbc4ae400a58f0d13667f0e15a6917ecd1d54c55b73b202ddde5e6f043ab4dc00be15341c0fde82d0b5d8846200009b565b620515db6201f2a08801357f1744083e3b9dbebad0c73c71f417d1e4555a6a7d8a4dc3920d3d6d02ecf76f317f0687b2a90feee55ee1a626f4e41a3765404d9b006c106400a6f2581a5cca3a55846200009b565b6205162f6201f2c08801357f18f0e8bd1d02d449027c6aec73d6990b863fc5621af523835b321596510c28a37f0453337906aaf9e7f7088dcec1730b63ac19185f761c0b16baa8d46f4e741e6d846200009b565b620516836201f2e08801357f26168f4d70eeecc09d95c32851990e9238c044ad6e87e717232d846789ba7bd67f2a735a1eb37110ebd4bf700d485dea6b62452450fe1fe3683ffbd5d90f96622f846200009b565b620516d76201f3008801357f30552903cedc206f9c1de3d686d734957c8e877b4dc738ebecfbad481ea387ec7f167c58d1f6a9865e04cc32ef00b7b8ff2948b1ec6c46ad965aa200db2ab8ac5d846200009b565b6205172b6201f3208801357f23223dd49958fe3c8df6ee1f3063e238b85d03df1941da8868dbe1abe74076897f184bfd83b2752a994a0b3b8aca3daa0b8b22d3b9a4b7571eba97362565793ca7846200009b565b6205177f6201f3408801357f1d7227549d978d9b7abfa9755b50ea5c8dcb62afde83a70ace976922e97cb2847f2757efa4e1d282bcf4035f4d2a2b744fabb5318f33394477cd19adb15ba7c5f8846200009b565b620517d36201f3608801357f0b7dbd8d657a784537dc8740db716e34bdf23d38fdd360428694fcb59eba01967f2dd70ae05b64f21fe364c43cb4a1927a6f42dcda3491b8b0872d4148f30ab112846200009b565b620518276201f3808801357f129238cebb7718864e9bf423ed5dc0c940755e3edab10e647660212e158cfd637f0c390c6e6014b59c2bf4d5a6b3fbeb3370197fcef9f8433aad0a74e4f722a544846200009b565b6205187b6201f3a08801357f29e297d8a4e5e3c1bf5c8eb3a1b3d44e77ca54b8e5c0fc2069f68e4652c9c9b17f2fe5d70cbc810ecf1718685ec7982b4ac2a6ad43358acfa0a396b73d2f7d1da9846200009b565b620518cf6201f3c08801357f28d2549822cf183e748b0f03b25d6fedbd882bf64ece4e5b615a6d28a0a10d227f03fae1be4542a4a3905d1e9b3b048dca1b2aad7608eb6213b8a9125038123e82846200009b565b620519236201f3e08801357f15686a3cb8696291d70683f6fb7306af37bb7d13ac39013912539b647e629e3a7f177033bd0655a45f797d0e198f5a15f0fd43063ed90d59152688d89aa5b1a6db846200009b565b620519776201f4008801357f116c3acd322cc3a70df4717a4e58739903371348393ef71b260bfaa8942018177f1c8bac1850903f88e5a7c6ec44e3868f8491a85825e743c51ccc3886bb7fcfe1846200009b565b620519cb6201f4208801357f284710878591d4247803ee012ad785521a61f7fb772c8119df31e08d7e06fbd17f1cdb2bd61980e2ca8f1349700aa709241d877f9d2607764b71663fe41b3c1a29846200009b565b62051a1f6201f4408801357f19990747bb0bf799d79cf93f008111b3528da3d5f79ac871fe621042dc3108577f2eb64747ef8fc92c0d176299cf08e27328c3decb1683abd7f119cbf8424b7e00846200009b565b62051a736201f4608801357f04a2838b1d77cf0c5af6b23cbd7dcfa495057827f080abdcfd7a5bb5564674a87f0686a7d9be3647816084eccba6032a85beb489f683c1ffe94ab22dc5c052394b846200009b565b62051ac76201f4808801357f167b499f78e4b42aaf09f2e95115b8acf369389fbcdd67c8cb0caba15d85e07e7f0e97491907d5229898ff875cafcede3d9e9d4fe4edc77843f4e06e51126f224f846200009b565b62051b1b6201f4a08801357f2c24432fcb3910be0966225e5f76b71a5e93108c86e7e0dbd47abf2191bdd6177f0112194f4f6bd6da438fecb565274fc4d4f183c6959cde4be5938f5bc349e6e7846200009b565b62051b6f6201f4c08801357f27eda1c698a96ea8e42c120d595b0b6333889a53b3bd83bdf7495b5a0a3063937f1a25bf0ad664f1ac6aaf1432ed565a9ed0c4219127eb4388d4b6f05a5ddbfbab846200009b565b62051bc36201f4e08801357f15b0f339335bc6ff9c7ff2f03942465ba8de0b9a445c1b721029a24f1230afb47f1d15f125d0f864dfb240d8383d3ce1cff6616adb0356d99dac72460cc94b0edd846200009b565b62051c176201f5008801357f092b4dc7cc4585be4215b752f88ce142722900a91d7513c44804f846b0a67ced7f0fc8cbd1a5a8812e29e3696f66a50eeae59cac9acde60c809ba080df829beb76846200009b565b62051c6b6201f5208801357f2ffc2ebdf4656e75f9c84db436f1e478e3481c00f866b1a75d2c491217a721a37f0ab1993367e632fe0429337a469cb21f9abac4c7c86282e87238fde674fce533846200009b565b62051cbf6201f5408801357f11974842ec09902b1fef752f12e8f579bfba6d96bafd2163ecddaba76055057d7f2bd6700ba0740ad2983c1b25b975958a3af6f6d99b17fcac08ac635a509f391d846200009b565b62051d136201f5608801357f24fa704026fb1aa2dacb54d2656c16db8efc58ec42739b20f807066389489c597f2e4814cd1123cafad461712efb6ba9f41c1998284827535f16250ca5bb25e89b846200009b565b62051d676201f5808801357f019a334af7211803de6e4a2d8bfa9fb58b1e346a153c04911e9ee55f8fd6f2577f11201ed58ecffe1349c5b641fb2e51ab5f57d89fd51a2fc08cd8454ab90f18e1846200009b565b62051dbb6201f5a08801357f16fffaf63b69e61a12deef3ed2df3ea317a9198099919fe53ae636c266dd7d177f03981487d4eeb752cca84b3f0bb5ee1cece5602637bb603b1f6edce37b4b599d846200009b565b62051e0f6201f5c08801357f012f471f217c9126adf3710ee653a13c6222308abed329814721ae00920ae36b7f175abea86b69c7bb46832bb89293dbb7f273ac5a0b9242403db772606f379613846200009b565b62051e636201f5e08801357f0af0634d72b5ec824ca077fad0b74ab8b11864d90774f2a7a2ec414941af03557f1d7da4b89a78ce21375c40467450ec02a481e9508f2374247872a37f28f231d3846200009b565b62051eb76201f6008801357f166aea484bc922189937bafd40b6c6f41769a88cd92b832b94ec1f750cf740927f1d129c7f8440b12a2fdb38593829a9cd6401ca83e39c605c1021038cc67f0f66846200009b565b62051f0b6201f6208801357f2d0635eb9b0410b7b8a653cbb241666e771c6cac0ce3ab9de5a92c6d968edd857f2b463d2612f9f9321fc26398e66bbda0c2554d63d961c85e2d9ca273bf73789e846200009b565b62051f5f6201f6408801357f22ff873ac392144e9cf4d0b56c3d9e49b1bb5dc2dae9facafe292ff20f2b7b6e7f2587cadf6641ebff8d37f2469b60af82c8dcefd100b7c149c94e6787b4e59e64846200009b565b62051fb36201f6608801357f1758fcfaacac152c0117ee13ad4b9bb01340f44147c7f0449fe418dc5305bcc37f100205c1105cc0ca85306b4498641ecf9f016fe74413a01e8b3b61cfddfcd320846200009b565b620520076201f6808801357f2a069566ac861658fe40590277ebdf33e41cd2656006b44a9b19060c17ba59737f25cd41cba4624e9174359de5a340b3f1bd2c808c01565601c71683dec99b80af846200009b565b6205205b6201f6a08801357f0dc62f99025dd64c0677206886c2c90e9cc5e2105b26a2d85a392210dafdc86c7f1785bd892a4a228d84b163f20e0bb140d443bc1c3243a3362268c1013facd3a3846200009b565b620520af6201f6c08801357f2d27a94de102e2b6ce5138108e394ce7983a7dff2d36e178381ff3aff5cf3f257f200848a5aca770699c147eab11b151f1e6c5b3f83bb59c5e929c240085f807b2846200009b565b620521036201f6e08801357f03eb2c8f7271150bfbe1e9c6fd046ac11e112aaa353b300e61fa0c64cef4c82c7f2f277675532e9586011c89005010535d67bd8910a749c3f6e540ce439c44093e846200009b565b620521576201f7008801357f12f2f756b0fa329d6e74c280a06d9e46bc551d28bb40fea4a4602124756e779f7f220cc27d177e58c16383625e0eaf8fed3d13f52362090b187175e6306504b2a4846200009b565b620521ab6201f7208801357f01c07e44353f91d0d4550384b56c2d9ec8f40358280f2549201cf92f31d94fd97f2651d996fcb5d55710c6bef150faabfee479e106e3fee9cd1bb520cfd2c81c91846200009b565b620521ff6201f7408801357f266fb182f4525e827c90ef53259cf14106412bb9e08a97e1a674bc82e2d0a3e57f056d2494918b4b8ac20ee34b1bc894d11c9b242644704762c86d5e8c213ff989846200009b565b620522536201f7608801357f09f6d4d7e0b03ee6110624bd4863bb8ce57005312cf2befb59227594d06a939b7f0e4fd3f61e3e2e702360935f00ec04bfcd2e14878a5389797ea533012868f791846200009b565b620522a76201f7808801357f24e93f3a81d1a00cac325542754ac7a05d82cdf09c310d9da531d2526a9bcf477f07d7d704d13bdf0cd8ca701b502b9cbb9a7a41ad6ec8f330d206f57f85d645ea846200009b565b620522fb6201f7a08801357f10adfa1f426fb8146062313ef887c10635b821a1793cd5f29b066029e70bbd9f7f04fbc1eb35191c0e3d245c236f1e285aede6e96bdf297ec1118423f4c372e32f846200009b565b6205234f6201f7c08801357f23ad4623dcec226cd40b1700ab0d9bfa59a45f3f0f046b3acf019bf4531b258b7f2da4a585daa44ee32713a5ba57c897e2e159fedf38d495012e7b6d467a7d301e846200009b565b620523a16201f7e08801357f25e775925c063d34008ab9e55d72fc149e5f723e96cb4825ce4b20cb0d0551957d8a388571d854f4ff52f8e3b666e6ba37caf7435c5131b1daa4b98da2a83d846200009b565b620523f56201f8008801357f18c8c2b97130c372ded4a105407c12af772faf8c8e6311972567e097070dae5e7f0cb163feb7d2322b7a35394d7732f41f4c84f9f5d9ec6b63e071f526cec99a32846200009b565b620524496201f8208801357f15d633c9ea970bb12b4794be395e5a2eda6ecb58565207385cc1f9c86f3097017f151887a1beef2edc04cbd1454ab1a81581690b2a8735052d042d1fb7bb897b4f846200009b565b6205249d6201f8408801357f292de5b6b60cc55d7f3a36a8005739f2786040a5d2ca6015435e6c007f4fe1077f0113c40369c7cf1a5375f64c306b661457b8cfe3f60ebdc958900a893c46586f846200009b565b620524f16201f8608801357f04c64e43066d2b0b50d1e2b843d7849af40b7f90594ce8b6666abb701f94429c7f1edde974200b087dffc8b130823c248707c655bcdf9c162c1070dc356f46002f846200009b565b620525456201f8808801357f275e30043b1b590558567c8befcb757f0ca95adbe3c7aea70d2e78499d1552e27f12a363f640d92cad55a6dc39fd12e48b25bcb55dfb3018e57b44da5fdd4ce06e846200009b565b620525996201f8a08801357f1f3951fafbbc2eb3da24f96def5364bcafd2e39df7bc5c4eac33f8d28e36e7ee7f29ec670f094272626c32b85d3abec2b1f616d506c9435f02ae6c9a0a08da542c846200009b565b620525ed6201f8c08801357f0e245f9dbbd4508deadfe01e7d90335180d6ff1b99ff53e5514dcc79693dcec87f08205541bd5235ae2279b99771cddcfcd8359956742a7bbc804a289fa0bd6939846200009b565b620526416201f8e08801357f140eb8101c07b8f7430dbf8312f12fd5bc10b280e63cd441a38ed7a982d7d0b97f1a43e966d10dc31be09b3e99a6a6a44b81c1d90d30fc36f0bf3ed609077fe45a846200009b565b620526956201f9008801357f2d9f796c404e559e5cf7a7ceefa8b70cb9fccbf5b44fe652d1032533abb53c577f1f7063addf614ab7037bf190b95ef05fbd94183c63c8a8ef19d9601062d023fc846200009b565b620526e96201f9208801357f1b97d36189221be1bc7c3b620c48a2766977ef7a4bd34b3a117a83c4227bbe0b7f22fe1b097810e23d11d0512562c2d84d88c296143f3b99d7fbe101fa9c9ac97b846200009b565b6205273d6201f9408801357f2dbbe4a0a6d291b2a00a45b4e39c176e0173151befe0a321a6881e96b5acb1887f2d9b0d8f5d2198d494c1eacfc4f9412fffa9a9c04878df18217ab93afbe2ce72846200009b565b620527916201f9608801357f20e27ce659cc7bf5fbf0d10dc0973049ba35055be51adeca847130999c224f4c7f27ec140e4a95cd262bee05975b2dccf371eefc291de2eee4885b1f90e4af3148846200009b565b620527e56201f9808801357f2d7d824bd403f747d168193678c7819686e99dc3988e6ac637814e2acae0ea6e7f0bed882b0d298de55bd78c2132d7d45eac51c02133266ecbd277b496597142cb846200009b565b620528396201f9a08801357f0bd63357a9414723cc78bbd306c7a183896329c3e15a4ab372542b350758625b7f210f8a6a7930e5e1f3822e47ea797dee2ccfee86b9da38404168ee551dffe6ec846200009b565b6205288d6201f9c08801357f088dca86f4169cf0794ef3f2cfbca843c5797ebb6276702f2e0f9a9e2fcaf30f7f11c3bcfbbaec6f856c5ed1e48cb27ace76c0023c57adadb52140a36aba0a470c846200009b565b620528e16201f9e08801357f19d8970798877cf15321654007984d62b31d1d5c7183e886784e534f719010437f24065c605b2e39704d36c8fc691004c6f6016e2f45b89509c419ed8ad98570df846200009b565b620529356201fa008801357f0e1bdb87f4c1547b2bdf0885cc25842a0ede882f9f7c74f3064c8db938b29e087f077ca4626eb872ac4f66195cee234112177b15f6a662498ac41026171b566c7a846200009b565b620529896201fa208801357f10ce1289cfa08a7cacf4638575f38bb04f07c8d6a4df4d4fa35ea07eb52bacc07f2f1f6951845ab2f664842eb7b03e17868427379aa10df82a40c154061cedbee8846200009b565b620529dd6201fa408801357f0209b6fc72b273fd133897f67691d3e7b59c1ef28a88ec586c4b73a6468c262b7f1a2792871c57e1aab86991f3d02c546f718738b56a0b95c6d81da3640e7af741846200009b565b62052a316201fa608801357f040909ab340088d3e9ea07c6053cd072e519b278b66923c4e5fdb13bb67192e37f1b382f1ee415328438c6982e7b3371f9b8b2e9083fdc860646f60ebb7c1e5b43846200009b565b62052a856201fa808801357f2ef055a687def69a1860bc829183d5f30d1e07382d2c5001b3794a4320702d9c7f289f3126520657c3f074ed8913cc345036b0f09b8765d7c52ce35717c5a3f8ee846200009b565b62052ad96201faa08801357f151ad8c44ace4c6bd1689f3751aa5f0d13efba8b41f50bfd7ef3a3556f39217a7f12544f2779506877c29d1ca7abbb918f845f17e94b6eb50d47f1de8e80b8dec7846200009b565b62052b2d6201fac08801357f121c122189d7b1ade63f6bd2b38ba40c30eed40b0c09e4445676a074cbcd4ea77f19ac90716c4db6c91d168cdef8cd8d8466345831d83feee0224d38bc7d358d91846200009b565b62052b816201fae08801357f2ddada8d2f5a6aa97001528654e204d11369b254640b494b2406c11d1c6b758b7f11784ff0c49f2b1bb1a5c25af02611cdaea4f1ee1d58e4ac3c106e51eca737c3846200009b565b62052bd56201fb008801357f1a60e88804f2927181e288fd184fc3dd0bd9983b6b4890cf00ba05ef7449e0207f237e2a14c1859f023322180177df3fa51f2654b59d35104fc11d3ab788f67eb7846200009b565b62052c296201fb208801357f1daf19f72db09d07021a786e951ce6156985cc6e1def4f136353f57fdc635bfd7f2827e3757686673e32390687496ff28d67600393ea2a2f4d9c5fa11daff716b4846200009b565b62052c7d6201fb408801357f2cfcb4efe6334a4f8271fdb25cc974cc8bc492c3d46c4d8136ac4937fa98620b7f191acd93076c97643bf0890ff000afec4c4ebb07898e0af0bed542a47561c789846200009b565b62052cd06201fb608801357f1dc00bd9ab1a04cd2c4b5990fa275e79b8249708da4b6bfd99660f5a8ac2d8fe7ea92e0e3741e6f920347063a995ebee24fa63d30a5deb2851970711fe71d40f846200009b565b62052d246201fb808801357f0e5b18e1228a076bdf3a2c6797f22f3aabb0f32fef80c4ad09020310ba9479497f0af4f2c4be3bc983b549267b7c370076f967f7b640bc053b21d39e183cf7e70f846200009b565b62052d786201fba08801357f2ce8f65eb6c9cfd2b2d8f088a16bd6408d7f483a917d0068c51e77c7a17de7ed7f1436020610f0193d7231d369fd64b22a3a2377ae5914055e41e49c44e05dc8fb846200009b565b62052dcc6201fbc08801357f23549e7f9c0c6da282bc714838082562ef951ea63190146ef186d5caab2b8d047f2f21373efc9e5211ca068986a86f113430fbc042c5d617a216008bc631281fe5846200009b565b62052e206201fbe08801357f068f79fec4dafdf0a7c9c361404adc1be20a003bfe379c7292fd8511bf92b7837f25c3bfc2df2e18c3f011c17b0710d5fe830744cbe5c9163bc1b6c1afc92c22c5846200009b565b62052e736201fc008801357f1434142aa713bf8af1b9464f2f966482979444f930e8ec7af5a88721a730f0327e6854d2c27efae7d5e9c8ee73ea92f223a44be41dc65d0c2a856ce846f9ae9d846200009b565b62052ec76201fc208801357f135836c3a823109754ee6d78f8316c9196b8f50bc72ea915a43bd94d874ef6117f0e5314542cbfd5c3a704eb7ac58f8fcee983547b890b670583de80afd811f7ed846200009b565b62052f1b6201fc408801357f12027282a83b04199eaae7b7a0910260aa7190024c8bd7f6a32f34d36189e44e7f18c30afe461aa8f4e42837749818b8a0c7917adaec585694b496468332b806bd846200009b565b62052f6f6201fc608801357f13d3bf54786b103c335677d5689fea80785ccd59796a5d5672edf52e21a495077f1d6eb03b90be8334ad7d7d50624358b4576ec72c849b7fc013df3ce451f1448c846200009b565b62052fc36201fc808801357f085da626f0c1f2640b94b8d60a8495f22b11cae2a7a23c78f6a4bbc33708287d7f06156a86295d498058b94031f8ca42632ddf610e4d2fbfd41ee8834bc7a55625846200009b565b620530176201fca08801357f0929ab44a22af3aafcd193e3d83d7365792e89dda83ac93d6ff004fcecc46e1b7f12c6286606900f39d7543ed145c350286516993d9b2bb8ef98ab5167a5c531c4846200009b565b6205306b6201fcc08801357f2e3af9d0046463425662429514e6b4816e20ad1e873c67cc206c82ad8abe97fd7f2be335dfeb3ffb4f5e750f6192ee817cbb70a1a7c19e59050c320c693aea8c73846200009b565b620530bf6201fce08801357f093e226227748173dbfda6ce4a1ca7a8738acac8a831e6df47d563d20605bc907f2522ffa22d4e9fa99d52d27cfdfa2f2376faa3dd03ddf11b0b78a54186c79bbf846200009b565b620531126201fd008801357f0b60b635a8acb69ac429934372c9ba73d8b359729c35e8d6b3018810a63321aa7e29a7cc62601fc12b30eacdeec55ce0bd8e78edbdd88b8499479cb37cd1f0e8846200009b565b620531666201fd208801357f113e0bdefd9d51c9d3c1f6e814701a46e5c2b80bfeef6fb69f9b8cb6647d08097f0861a2df8d2c42711ba2d287b4bb8313d01d4a91cae4b7b48fbda0660ef2cef5846200009b565b620531ba6201fd408801357f1204ccaf298bea363632f5d4b73ea0b3c41376d2568ed5783c879a343e97a43f7f2759cc9562b8159bc63859f0ab609e648345516fcb5fefcc741e0cbefe5bc6a5846200009b565b6205320e6201fd608801357f207c0bd022d4cda53ae32ea21eed7dd60af8e89e4cb1f4713a2b4973296a90467f06479854453b99f5f4997a5efffa54a2b3681016a816b1b60c24a139ee343c8b846200009b565b620532626201fd808801357f0b4a7c8cf7172aae5c0f3cf9971c9567a960e146d05e8f73ec91bbcd63fe4b367f1a83ee715d257ff810d129206873a0e54011fc393b16066e948dff617a38d73c846200009b565b620532b66201fda08801357f1ae0d26f43f2c56bb51108f6bb013f91d7390b73c3b52bbe51ce26bbb75e31707f1fb28af2a5d8895ffd6b55a2f2aacb1925f053d7f270d89f2a07a41e10158bed846200009b565b6205330a6201fdc08801357f1445578e14e15cee2430796825d96c49b7ffdec2623738981ce96d2af8820b417f0a15fcdc4cdd7ab768112acdc1ca256a3360c60ded9a665b17668e7972925a9d846200009b565b6205335e6201fde08801357f30492b3acf990571290c531e379244e02b028bf3850ea8a8167a160d2992a5007f14c11b4dab5da7e22ede2857286704bb7eb1c7df86943ac760e3dc15ee714d5f846200009b565b620533b26201fe008801357f1411853a59e83aa9d1b1c0bc82860c3d9b0a9844b7e5e70a003401067e2fefee7f12cc0101c9f1224fd49553f4eb0bd2238bafc163222c6deb8af7567152e6a6c9846200009b565b620534066201fe208801357f1fa57b73f14e652c89986f0b82569d6fa0625b3cf84750f29c8fcd325cc439d97f1756a07cdf91de2a11aa713b2d88033e63e6a0fc10f880f73b60bb07c2339d08846200009b565b6205345a6201fe408801357f112a94728339b09a3a989279e2ae63f3b035408ec10e2d84cf1b5f33850a73ae7f24fe6b01e75df3dde988f94cb204e34b2a740558a777465125f7eb12f7f974fd846200009b565b620534ae6201fe608801357f12f095c7a4a90c1e19eabb8d00f2bc0c1949c228b7ce687c20c1f0430c6caa287f1bff7734ecad55e37c98935192eff53dc8b8aa143bb532dec3c030c60b8aa15e846200009b565b620535016201fe808801357e91f8be4d8576475c289792f75db0d10ec3bb5460893c1cb601fb5f54b68e467f257d5d665c748816d7d2624547017b1897f4cd35613baa74091ec712ea353bd6846200009b565b620535556201fea08801357f29eced073827323e100ceef239edc18261ebe14c9e6d0606a4d3dcde300f6d5d7f17ebd5dc6ef6d486dade7cdc35e6bc569e3e6bd8c2b244e56e16915c6cacb0a2846200009b565b620535a96201fec08801357f1685fdd368e5c78e4fbd61b86f51a5e6102a25f20efb524ef46b89a118754b457f077aac31e5d2a1cfae3b26a4340b2be0b6de807ca7ba7544113e0afd576f7a24846200009b565b620535fd6201fee08801357f0992974067d4c73c1ad79dc90ddb3f71bac01bbf098610f9a3f8ccd3e8096e177f28b92eba329eaed28af0d378172d212761a3690e56a57375c37bf7825747f749846200009b565b620536516201ff008801357f2d4a53d5cf7b626289523ad823f0cc90c9e64c644b7af8d2502aee50c2ed2ade7f2f65d66bb439eb6a8673e0894fc7cd23a5fe4186e457028ab738b37cb5f4c6f6846200009b565b620536a56201ff208801357f078c85ebdc179a49fd0f0c4a5a839f70f6c4e89454be4be4215ff658bf4302b07f0f2475031f7f1c700f49f2ed76d796e3a9810091f879f7816df31ee1ab09d774846200009b565b620536f96201ff408801357f15aa180a0e41d180f51154f20e7c956cfc46ddfec28535c6f49ae34f7debf3b17f1da8d7a0c7a235cab0918aedbc4ae4bc47f9530f034ec79544fa1437dd6eb29f846200009b565b6205374d6201ff608801357f16dcdb806c6aef41df9bda55e04c60f0aa8da6e31ca17e9a5d213fc6cd6e91847f040981bab9e85752dfa99e29003f8aa38949a1944ea3d5bc27a37ae37870dca7846200009b565b620537a16201ff808801357f030913422047e460c390d821ddbe77004b734a241cd872db14365a48faf73da17f0deda212a5906b7b1bb448eb5b9d142f1769647b6ff768fc631c6ea8cd575e86846200009b565b620537f56201ffa08801357f2487f809aeb7ceeb9cfa5ec40194fe24f7ac2604ec3a7f4497609ec7ac7464cb7f0ea794e00d367f279eccc1583bf316ea7023869f920b9d0298bbcce2905211cb846200009b565b620538496201ffc08801357f1ba8c3b909c563d6cecfa86bf5e881c1b312c8bd396da9a305bb581e39067e057f1d0b6f2e8895dc9d905d8e9ce8f67006018c0ea09dd3010045707172a75a8349846200009b565b6205389d6201ffe08801357f05f3581446808efefc566e9dd4256a671820387d4247fbbd787a555d39c3ddfa7f0fd3a9b4dcf8f615b0d2ad8c127a8ad663ee6f8bc0ba216c92be888607c5b1cf846200009b565b620538f1620200008801357f015117c8c58867f2ec5ab61d4f2adecd8d56499ad958a6214ddabd4e1ec6a1547f2fdbdccea26bec066b300a518492797dae8801c8907601d8d744553c166b8c3d846200009b565b62053945620200208801357f1d593d17027604ce9351ad9d8b9c859ad4d5619b000ef8a16ecedb283516f5297f1009c358420f089861fb8ae0fcd9dd4c53e7cfafb68e1de16ef87a05877d582f846200009b565b62053999620200408801357f234e8adb06f9afd37fff45a5daabe23a8a2c027799d50d12afecd785c993ea257f08d8f408eb1cf51f5a07b48241fadf5fc0021ab86f7a965b529e33a23b8b40b9846200009b565b620539ed620200608801357f1b86ca6c9719935fbf6257876d9ff0217c1fef735204eb0ff575f37b7321ef557f1bfb2b643b0e1ca94a77166698ff22125c2bfb546b0756fef74cd3e9d1b13e27846200009b565b62053a41620200808801357f1b5653503ed4bc78903ecb4d48c019f368595ad75ee90aaccb4493e267424b1d7f17f26f63e69cf22b3af16ce2c8b07e3934ba42181051f1d9af30c1849a0d817c846200009b565b62053a95620200a08801357f165e9cf97a612845d7dfe81a221d9f6b0cd026e6985df5dfefb083f2c7228f4f7f174a046442fcfe7fdc4d1466526fc124faaa78f951932f14cb168d173048a62f846200009b565b62053ae9620200c08801357f28cc3e0c37b1051b3c47d796686061e93d6b817bee8a40825378162bf7d584ee7f09dd62c065d864e683aa50dd997afc5ab0c256af71ab9c9a1bf8ceab021a9369846200009b565b62053b3d620200e08801357f285aed90243a302244576fbd83875a2f456f75bb3cefa9e584b65e9e64c43b7a7f25afbd36e8cb45b78481275f70c0a87164d981d9a292ceec7540b8da5780d986846200009b565b62053b91620201008801357f06a4951966c537d27b562103825a41ee34af357973a8adef4d5a50d35284821d7f265949161022de4b6ae5a1c42fb39f63e39d13ffbabc7d3dd904d894153b6827846200009b565b62053be5620201208801357f07b786aee5a8ecbb0b79eb682b82635ad57ebee258024744d64f68a4ebfceab67f223e321bd45e57a6008a12d9ca92e833405a0301a5158d1aea49894b6128a8a0846200009b565b62053c39620201408801357f14506ad636735717ba5884bab909455a0726d31150760cc5d1ad5dc17549e99c7f204113b1e25128be9e6bfac6a3f13451e156407a14f1e08030b34e3480ac55dd846200009b565b62053c8d620201608801357f2dace60cff1203f3016266f129ad19207cf18424a42cf209aa66a8affe1aa7d57f2ba3951df69ef03e8978a88479441a3906f03ebab88294d647d5c18ce976df8b846200009b565b62053ce1620201808801357f10b15cf703963c1eb6504b3b0119b06759b921d1fba0b0ddf6a9c2d1550593337f2681e4e997c1c29dd5ce9c1b5ff78c7bb080f7db5eeb1bfea46111d843af2ede846200009b565b62053d35620201a08801357f0cca951ef1811872bb17ce525c956eb0475f7566eeec3abed3e34d1a6dd988327f03daa72e1f64636bc84220bd44ee502b13a275052c4e94d10d00fa472adf61ae846200009b565b62053d89620201c08801357f237594ea1cd3ac5ce5596459572dc0a16cb4d66a46a39f888341bc2e844f13cd7f08eee5b20e633d87c07e7fc26a5382b2be9a1f5701843cf82ed00581d90421fd846200009b565b62053ddd620201e08801357f022a39340f7d85a99aaeac6b6a79ab46425f8d7e7f9a97a500612b7ba885c8a17f0292d973519a68a059e860910a452a8906a7f0e31d96ccfde14624faaba0280c846200009b565b62053e31620202008801357f1e2579b182770647e69265e871479ada6c2769284e221eaf3dd7b39a3c54b1127f26e7d35091e965aa263768af6b13142372739f9aa7bc55f3bf8c0b5df81655b9846200009b565b62053e85620202208801357f2708bf95885e1a0b408f38ee7c55ba0b20c98bebbff4b65c090fe64de875386a7f048cb444bcda2fa534022d032d81feb76aeefcb6f45a1b2e88ff80fa50100913846200009b565b62053ed9620202408801357f27aa52e3c9696bf1a48d63958fcd677375a7d1a5edd80648c8c30f97512760647f1aec71994637a4a92f11bc60130b2c162a21a4d71ff050bcdf0ba9e4c910f948846200009b565b62053f2d620202608801357f2514b266cc1abf6f3deeee8e5eef6d1283f05bfa67a064876b5e1d72a5b9f6ea7f09ceab341d1d341866e6e05ea1fd5440992912dfa601aecc035e7f669a22e8ac846200009b565b62053f81620202808801357f1c0e0b39e40db9065d3112608d23a3701bff8370c3d010e62ad2416f01105a067f11d25066f791744b8e346d8b01c8aa26d86000f5591f04a94748f4ec087a054b846200009b565b62053fd5620202a08801357f09dd85a94c6582a0677eb563db404b09b1aee911f2f121e79c13cd8ce81a1cf77f08b1c14618cfd78bc1c849d01a36459799bd1d4453746b60794ba3a37fadf817846200009b565b62054029620202c08801357f232c6a09b80b02ce09f42bd1e566008237a921f9be2dc4a4bcb3a1cc7b374b557f07b1a2d1d067d010b31196c845d1df9889f11d81753e5a0ecbd92360ddf0340b846200009b565b6205407d620202e08801357f2c5fad14a479d44d3d5f04fc80c26aa98b95cb1782443afb067e1c2efef7830e7f2be100fec0dc381f55d1f72d01775816e4d89eef39f28cfdeeb678b0c6de2c29846200009b565b620540d1620203008801357f067074e675f648f86667ab699cea58b4e9277e183d769db369560f1d957e34047f131a9fa7f64d7fee1a323c6f3afeeb03e567192844533823bdbf73de78107239846200009b565b62054125620203208801357f2253f2fffe6aa738d16d5d168b8da47525e5475a57ca1a356ccd84e2bb20d2e97f0230b6ca7c1a7f6b56611a14eb9b3093832ad0da482c7494f6a7feb3426389c1846200009b565b62054179620203408801357f03220baac9e03a99400711f3fd11d36f9285b6fbe816c77a331e9933ea8623157f0b6d8b4560fec3c4b99c6dc62b5b3084fde798f42815df8eb85e8bbd689c3501846200009b565b620541cd620203608801357f1bb9194ca5d9533f396f3ca31352a27e1e3ef1cdf4b78517dacc40ebcc1769007f02c3bb223714276d7f4bb69f904a02c245a6f03da37bb425f31a8f62df9fa6c2846200009b565b62054221620203808801357f109cfcace43a4486aef05e80acfeee94058dd520b4b7fd9f2ff2ad6bb1cf5b1b7f1dcc3536922cdf26624ef1efde3aa6c0c03507cc993242bd8e281d1db922a7f1846200009b565b62054275620203a08801357f1b6aa8e1d9adc2dbcdab423d23c4aa26daf32c64561b0d67e768d7d562e795cc7f240172b9d5645f3860929ceff3e4faa73f54be73f54302a1349cd1667340cb78846200009b565b620542c9620203c08801357f0f27b586aa722ae9ce5279a3987daa0090ffb15e84fe9d467817f9b082d0b2417f0951ca0383f2214efb80de82b4b78e6e71c6e1ce413d6687998a2b22b6043049846200009b565b6205431d620203e08801357f1663f4de269621ffe6e7b317dbde1ebaba0a1403dcd060055982a6792ac64c897f24c38ed6ef4cdddfed5bd032e06147fd9f949279c874493033cc232cbb65c2f8846200009b565b62054371620204008801357f034215822c81d651e4c18a287422003eda91a5b71c5485250def7310c2dccb7e7f09da91096685091dbfb520c7a8ed3af4fafde06390daddf03b0d696c54396b07846200009b565b620543c5620204208801357f017c39f1be56e69db0671d6cf187a94cce5692ac08cb45f489c4728e33911d107f269d2c2813d8cfdfe07c97a07c67b3428a7493d92a539fd3cf772c62e4d6b0cc846200009b565b62054419620204408801357f030941a50fc7fdbb9a2a210b15cb2bc463d72818af4da08c363e5accd87a16137f19231750a3a035603323f4dade2834868ed397965411ed439cc4a48e8f9a57b7846200009b565b6205446d620204608801357f0416e9d359af1c5f66f2d6529351090d405a18e782bfaddb3d97b27a24806a627f28284131abfd856b28dcef5e336f08105f13bd5ea102e4902d362f43764a03e6846200009b565b620544c1620204808801357f12909512d43b44fe2ec167442cefa06d5e6db781bca54dce888c5e5aa799054b7f0781f0843795617b894976aa32fe96b90e6b11dae62f0c66ca4ac83b14b36f41846200009b565b62054515620204a08801357f0bde768effbc9c1fa50e955aa8b7c70a58bb66046752399aa2bf8110c471771e7f08d64d758bae305d5c982645f372e89047299b8a9b06acaef42ea111647fe874846200009b565b62054569620204c08801357f2ff32418c016356f50fe20fc51c26344a2c1bdac1e36fec747567f90111c52927f03093ba0a9aeb5c16c4f110e867912f579657dfa81f608c62566ab8c604d7b99846200009b565b620545bd620204e08801357f26ae3df4faca56eb73a6d8c3a7684f9f17de81f105490760acecdd85842542197f1851e7cf5505d90075bc7efa80583e59cab738c0cc7c8bfa49971aa18cf77e8c846200009b565b62054611620205008801357f0c6a840ecd9611976d85710d4eee9791b8129f3d048d7e1c4175836571cfb5dd7f0626ee14626bc12e6aed743bf2645a34b5b370d881b5bc997491cbc4987e4e78846200009b565b62054665620205208801357f219d30980dbbdbd3694fe595c7d223905881ba8062035d864187b6afaebc6cab7f070702169c0791c3ffed67adf051f8a7e29248af051e48cc00259b6719f1aa70846200009b565b620546b9620205408801357f295331a1e08a63a1489a375f8b69a61b78ee7d1f8c83db88632e08d10307ac2c7f29c7c88e52979969381c69d2b1bda21946def2201d5dded5d9492ad58aeeaad2846200009b565b6205470d620205608801357f2ef01ed41c4e39f4f5b20f0f1817a9746da302f6ece7e99112ce22b4dbfcde217f05985c310081cbae856e69f533c1362aca04471280b448bfb80859b963f61dbc846200009b565b62054761620205808801357f0bfde031ba3b38af4113f7e25aaca897880f966e8689dc30a820056ba53c79877f01c6d404df85b0310bbc375411bb80870850bfc1cfd478ed352e59230c8bbf2b846200009b565b620547b4620205a08801357eb0e257582da651d08c1d27881a022340fca5967753c07ef3547867930df5707f16bc2b773a0a869c697213a121648f2fd1cc430b8648ac7bd873d3376a1fb615846200009b565b62054808620205c08801357f1939b3e32f0b47ff1d2ff78d5231ea8b6b976cad3148d0b86687fb9550d965437f0b449a576baf1eadfa438e341f5dc444068db98accf0e2028aec0e5a2898e678846200009b565b6205485c620205e08801357f1fa83bfb6eddf9f3c851ca2ccc96f90bb06cfcf773dc443692a1691cf8c4bf957f16a30914254d0ac0843e9f30f03c49c593cb7982e87201362a97ba316d04b3d0846200009b565b620548b0620206008801357f079a2a95ca9ad76858f5d0c508b3d3c335acc5dc35a2a4ea94ea9d5abb150cb27f2c087c8154a2f48e88fa511a37dbf6ba6e69f59f7c1899498ece792c7955476c846200009b565b62054903620206208801357f0d7bb2655882afa8148b051cfaf26fe5e8d1fcc943649829c1c58bdea74d90e47ed131905c2896f24767d61571c5b562d8495417fd3dca55a7fd586b3bd38061846200009b565b62054957620206408801357f19f65d87bc84543e96b76807ec3dbabf78db886bf7daf731b96b16600839286f7f25dbd00e97ce0d402b199636a7321f862f09299f7507a1b306830a9b31328bc1846200009b565b620549ab620206608801357f10e676ae1f7f05ad1ca0a325d5878b15651da26e9bd3e4740163e7b36b260e647f1a23bfbf4fa049b7a6c4d95e8193122ad360aca2447709d2b37079aaf14bfd23846200009b565b620549ff620206808801357f195cffe8c682e990974aef350cb03ff0e5ec5d9cdc94bdc9b49540718ab9d4687f203eb2925400014df82d8bcc99b3f67e4112aba0de402d203f08df1376b2cb5b846200009b565b62054a53620206a08801357f24c9268534ff948ce7de0196cbafb7d50b2c3b7fd917ff3c1f0b3ada9c86aad37f2804df216ac354028ce3729e02de26aff7eb1ba163c3f0da908f682e82aa8fe6846200009b565b62054aa7620206c08801357f2215692573c4db40b5c299f894f152a2fa380de1d8b40e5a6986787de1e09ab27f1e16230e1c914b9b2cda837afb5f2f460597ccb0e3e13310dfa6f487e4b0bf2d846200009b565b62054afb620206e08801357f25542f50ead504fe0f5e5eac6c98b4f9974cf37ec7799401e0e04b72c259f4a77f225bfe04f71e5723fe1877cc27b6107375ffb2478b8f8433802ee1c4cf0bc569846200009b565b62054b4f620207008801357f196b7bb3309d5c0c10cf0f1467932bcbb603a6687ac6549bdedca263741958de7f2b3742ded8362c93f367b81ff9c4acfa207b9a95247b0dc6a8c4fc678276d104846200009b565b62054ba3620207208801357f2ce26a90b9c936c2c6d8432d0d27a1e80d9adafc253ca537a2f971d7be5393477f2161a57d222078f970569e2c48823f20228d5a17328af1304500f3e950cd990c846200009b565b62054bf7620207408801357f290a3d6051b361a6f8240875f35b5ae1d5cb4430a44bbba0fa8adaf2e8039bd07f074640913952c4d2965ea6c6061d1d2c6fa455e5f94c56fb84aba73775a6e72e846200009b565b62054c4b620207608801357f22a36e7be35cf2c8c01fe5f369f1590fe7d0bca2d805ded5c9626b1c31c6ceae7f204448c8e17dfe502ffeec97b082e38b1840c22b167c9ddabbe7dd976f503984846200009b565b62054c9f620207808801357f0673755d03e55136e83f1d8516e3dd330b1cddce330ea430725900e332a3f8ae7f04fb02addc15a05d9c2b9a625aed51df39b325c2b3e6b1f0c6f513f9c5b56a95846200009b565b62054cf3620207a08801357f0e49d011efed8a89567bb4fe030f7a8f5380dbd5303af27262387da336bacbba7f0d3e47c8006b62067cc33014dbf0d0af0c78a3526bfe5e0d265fe6901b0b97cb846200009b565b62054d47620207c08801357f23e32c2ae6ec71f05d02e4709cd8dc247247b40c09e1a69015ee1618957250357f2b38470348f92c1fb8de29eda57f9b1b13184456189d3a0f65c7bf88dadf2d23846200009b565b62054d9b620207e08801357f05ed1d4d05b97a35f5f99830c28d872bd458df25430940fbb25ba6f214ee8a077f1d56fd99ccaed179f3b68835d2e520dbce8c6402c1393cd8c4e1184b52966070846200009b565b62054def620208008801357f18d2322f1078f70eb3ca7f5b8dfb6f309424392e16c5d2166b772e94a01217a87f14d132ba938fd406d3c2c53eb0e3cb3c15d08f59951812a32fc90257ec790335846200009b565b62054e43620208208801357f288a2d3faa56023c0fbead4796df6087313ad3f099f20ba358a167c334bbe5417f22bc158678e84e3445ef47f669cf7264a34feab1204cf63559c872a4936cf10b846200009b565b62054e97620208408801357f2150ba2e90de69cb7d04267d04961060f303501be005029a50571ebeb506f5657f0653ccec26836297666b6f3372836f3bd8698f3ada498c5892acbf46767f75b4846200009b565b62054eeb620208608801357f05d8d0cd4841183d594aef581d3614751d2ff3d3563afaf16dd4f425b594ff597f05f06dd34ebc28a64fa37a8f16c7079d637fcfb6e3a380a6ef80952b9b99a3f4846200009b565b62054f3f620208808801357f24a47d7db2b32590a015f461cb7849db5166af0c23105a718982b67a4636408c7f257749c43d07cb02e8c5b8ee796fc3018a0c87d34c892ac0fa9c52c9b816cd87846200009b565b62054f93620208a08801357f1638c05b59e7860182e96136da5ca0a6638449d5b530ce074c7d4126e14214437f0ee24fe3e427cee72b32f76c55f80b3c749f25ad49887422455c2015e903b806846200009b565b62054fe7620208c08801357f0a685c90e4a3df0a668f7986bbd1491eac0a55779517ab1decb15644750a9d897f0fc1f366370780b97db8bb30078a23581fb5ff52f074f9e010b13b57951f3735846200009b565b6205503b620208e08801357f030fa89f036215397515b48ffe8f8511248c513197ee71863a2d13e996d787587f075698bbb9340d3f759c3c9426490c101eac0ede5a7d461eecaccf15a4d14d51846200009b565b6205508f620209008801357f16a27e13746b8f40fca32f8906c8ad75b4e0bc99a0f28b99bb28606f9e4efd1e7f169f7c066a231d786d10068d9aa914158ab42db716ad1d8d01ab1a6bc37a1ef2846200009b565b620550e3620209208801357f2ffc47e3979de31e63646d10307b8fd004b7c496c3e1e88dcef2b0f56b84b8577f07836c50ecd644ba07f2d3ea87887908148ef6b396feb80aaa2cdff5c071bf60846200009b565b62055137620209408801357f2a47d9b3b433bfdd67b485d34daf112c0f80eed0f3e5826bd5ff2df9f5d351857f054911b98112bbd3f71229918628e9da09552c90125a068d5253021038d49d55846200009b565b6205518b620209608801357f1b5ae8b298a1ea55d74bb03f80bbb2776fe343928a51700e991c9af7b5bfc5797f1b1d17b6a1edcc9e2ce3885e60ccb69a9c0bb566d1d071ea0f57e7370fb06a9b846200009b565b620551df620209808801357f08f9fee9c8ba74fc4ee03dd4ad2b66dc376a69f9c85df64a2861048094a5841a7f11ea3615afd14f6efd37ec71fa1d3bf889db06d78b0c76215d4aec9876afd136846200009b565b62055233620209a08801357f21fd3a88d2c465cce760af5f3f36948d66098cae12a105f633d583982cfae2f87f0644637313f513f050a75c6c099b52769a96da194ffe7cd7aebda500b639c2a7846200009b565b62055287620209c08801357f182c56c7a419e92b724bc9a647c9a27c908d500731212da5fc447e8506a9e1a37f17cd9eed6184bcd0f5e8002f5a5c1bc2a6b886cb7bf696f95836c71fc3c2e33e846200009b565b620552db620209e08801357f08ca4aa2c59b57dbca1066de9ea58893049bdc81a5873fad36eb90aacce454ff7f087675fa6f263673caac05dc03fec80b835885de7ff15fb03971ea751f77db7c846200009b565b6205532f62020a008801357f26ba6e670a1b718f368b94c17bb8abc15fc032a23c3f7fea96f9b9c60f0638237f16c39feb6e3ca56e151dc64565dee860c3c1f0bce5b60202ece23bc2c8eacdbe846200009b565b6205538362020a208801357f0412996161621446d59b1727c518ccaa67d80928ddd2de94142c31e73b181b8b7f226dd57d49378f53226b05d97c5a3b167f21a636fc50a96400e0a66bbc8390fb846200009b565b620553d762020a408801357f04dd3d18ccf1a82191e3dbbd076e972afde8a0fac6ab1b067ba8a5c56a4e48b87f10eb3c2917de6e25cd9e7e53fb357d7929f21f5f47b1b8c8245f77598114b7eb846200009b565b6205542a62020a608801357f242686986a3970c73a50f30e3ad81f9f10fc1a3de7daca52a3356c0d3d7f69a17e76e3517127515321231d51bc9a1863a419a23ec429eb1fb5608d3bbc3ad898846200009b565b6205547e62020a808801357f059c51f802673e633f45a3016ed0dd9f5220ecac7046b26015f7c5d8bba7580a7f239cd4aec80e92ff2374eb61c5dfcfc56cb42bbdc2a16ec1d2ba2e333380e960846200009b565b620554d262020aa08801357f049e1997136b0d02b9d34e59ff0c7c135abcd9131295ebbda88507e1a3d7df287f08ec0cf8953e6ebff73e750d307be489d9d16e118ec53d71473af18c253e1fb7846200009b565b6205552662020ac08801357f1a28f62e94895a3bf511360fc11fdbb9e147213ae38204f2d9b7dc80c2822c997f04bec7cb7c936793eec2ba7b3a4c60a65e0327da4904324f6229170d607c92a7846200009b565b6205557a62020ae08801357f245c07e8c4adb4c8fd6cfb037442482dbde6bb17741f3d6e30876444455cf6aa7f05e610c1d3d618007d6d07f39e83ae4898afdad58e3a143ac4bf3f546b64e349846200009b565b620555ce62020b008801357f28d111ea09bd64f1bb9dc2bdfe320a38a6d8100b81a6ca7d0ec672e8972c96fb7f1b129b75520224a76965e157eb0bd4b50b1bda4311e2e98c52315404e1a87875846200009b565b6205562262020b208801357f0867aca5b62b08e10f8fd1b19d87bff0bca8ebaedcab8fbe97b90414cf0c9f667f0d559c8eb6317b485b958d834a609853ae5d371371c06afd2579ba94ed02323d846200009b565b6205567662020b408801357f0250a6ee58e54e8f81f3078b69c1a15418f98c1d84901ffd846da1beea962f797f27720aab41f146db9aa9b4f7c1157d1bdb65785a7209301dd7cfd658f4c3843b846200009b565b620556ca62020b608801357f1c1b5bb4db4adc17fdaa31be570285c7f2a100cfc5b2db556fe1b884088c16497f15976af9fd9781ff18ca7d2afb40848600c750214c8ac0e4dce260a8ebe46bad846200009b565b6205571e62020b808801357f05fc1f39aff8d87d58630267301d9f11c682799c9d6647b5e77dd2dc4f04fbe07f1f1786c17afe9c95a1ec2e125561f97f3e0b6d80d8ae8882277710a51991fada846200009b565b6205577262020ba08801357f1b9b7de8c508803729298536d0ab1958cb0199510b0de459a6657c212afa9fce7f01280d67d055fa9bce672cc2ec3686f3fc9bfef4c21feb791908b0f952050a5f846200009b565b620557c662020bc08801357f1f6fe4bc10d71f2051c99e18aa6cf35289b3226d652d2b5dc8a4a41439f2ff6f7f01b599cf360409bbf62dc201c4926c63413f4e447ce89a05e860ba4c8f2b9b0c846200009b565b6205581a62020be08801357f157def9a07f0b16930871ec2741b062934f8d5fb5025df1346ccde754e316c907f26fee32ccafbb48a523b418f133080b2416ce225c294a33757f1cec593d3a071846200009b565b6205586e62020c008801357f1dc574c519af00bce2b2a7ce330502510f62c5e86545949af144fd1801f689637f0e17e3ac4e163934868708e18a4e9cd1b3688f230f5b985c565e60236e1a1d68846200009b565b620558c262020c208801357f2d2e1da5f57b8c5f3e61ec0f27948fc4b39238497ff4349e3b6cd9d83ee888c57f29d686e19b77e8709c3c2d051c049aa86085c2d548e289734e169d40dbcb1c15846200009b565b6205591662020c408801357f1a8e8da8c9126775f36b2630072d9f3e7b728f362f5093baa17f025d728ddd507f079e6c9ba7e1124f896cec33d885c02012b7fb064b7f489e1b45a2157187314b846200009b565b6205596a62020c608801357f0230378722547b1124f4967c8e1b58ed7b5ba97992c70896976cbc4235b24b937f16144b3c7d2dd7ce97c5fadf220e224fead1a4a23107cdb0878e9abaf010a216846200009b565b620559be62020c808801357f014afe33a198e094c52a82f63d410ee7ab346944be365ba31958d6d88554c4b37f16bcc0f818d0369ded0760d145639ec86ba01ee5b15612a9d408516d298a2dda846200009b565b62055a1262020ca08801357f1b9f3fe597ceaa1990614bef78ea4bd4122f62b5b1e522ee8f2d753c60d70f717f1a249f9b9f87fccae3aa9efb9ad251d414d59da84a9f6640a31ed5e611d7aeee846200009b565b62055a6662020cc08801357f2c549b19dcdb8e840fcebc4a5bd4a85eb2b29208fe132bc6b902f4942fd295127f29fbff0d88fccc4cc169249af6b9b74aa2bca4e81b9a4b2a130874cb5c1451dc846200009b565b62055aba62020ce08801357f14a1f56a4fd7911b38eb0b45ea21ae48309263b7a037f2d7d491ac6144c225aa7f0f253fb32a48f146b59f4869ea944be35e16031cf05625fb7c0f9a8fb618a444846200009b565b62055b0e62020d008801357f1792375dc0ba4f97b8c4133f904e0530e7b6f1cfd07771194ffa4fe90acd42c07f1a118ba3e0c55281fd2c0377451770366e645e66268095cb7a01d0903ce37386846200009b565b62055b6262020d208801357f0f544c9581bf3206dd70c2dc8d4778ad789e30fd7a16ebca92c2c6a6eae644747f0444572bf9d8b2639b204adb84fc9e1d367500187ae26bc5d9b72b31a10b8716846200009b565b62055bb662020d408801357f209ae086ecf54bcbeadff68504d757e0d627fe571040f0e8c9cc8a092df3b9af7f0da78b02dc60468be93d2d5ca10bc9aed970aae0526325c271037a899ba76069846200009b565b62055c0a62020d608801357f229cdf36b86c10969d715b3fed419f14651db3af76dfe1ea5bc65aeecf4054db7f1163082274817d3902109105a63b65499c405e2202a0f87d71baa8b03ff3a560846200009b565b62055c5e62020d808801357f075690d90b64ad523945dfa6be22dfc0c3a4fe9a163baad68e38253518d4fcdb7f13f385b34bbae34d5cc98ac53185cf9e0289649f86981e1c59878b58fcfac240846200009b565b62055cb262020da08801357f095ed1c4ae926a6f500fa13d6942cb9ee60bdc783058d4991e37101da7bec1637f2c6729ed56e8999158a8f6947d553cad91e057baefece0f97acf15831927a798846200009b565b62055d0662020dc08801357f129152d99d8f6d7fb70bce8c8cbbff1d5b99963c407fe4429df34c9245e58c977f0a6ac2081e5d533916ea507e579eb476a926dcac7e496c9b396af8f1b40f9819846200009b565b62055d5a62020de08801357f29d0ea62121e20ae72d5264d7bd23800616b18debbcdd7809611b11f52cd0a247f06df7dd731d4d0efa221490052f93dd7d19faa9b84d830ed70e33f29bcc12af1846200009b565b62055dae62020e008801357f1f03aab75a874a31a870aef0eddd34026338e623190b090970a3bf098ee1704d7f1758e149e83142dbf1f3d8127b50aeca0075c84a7bf62aa2f532ab4012cd4c7b846200009b565b62055e0262020e208801357f2197ad2a9b30b1c5503b798f95a1783fe73e33a9c8f04a2481475daed09e006b7f174af0afd6acfab480328eab073ec88a8a6f644bded6a879042462a959449c27846200009b565b62055e5662020e408801357f12900ace9d5ed3b80cf51311cddc6a57b080dc17b1a8c40c8d48a7da9547e7647f253224362a9f72d76d031808938ed707b1d0a4be4616183adb3f3c7bdc46d9c7846200009b565b62055eaa62020e608801357f1fb8c72457a39724afb1c7474cfee0cd6924a3bd359152cf25d866c5ab02a7b67f1c294ab5d9b4780f0a97b1f115141d6c03a6f714ae923e4c747f2ba15745b137846200009b565b62055efe62020e808801357f261c278f07667c36fdbe7a301ee1e5e9963b936eaae24501428c120a30a8823e7f046d91830059bc72f3aea378dc22d3abe9a761471b723a3fd17f01ec2683b30d846200009b565b62055f5262020ea08801357f1c8650ee779b4452b106a4d7d41ba587c42025dce1e09f1c1f0aa2befbb0a3ed7f145f16801a0e1886d0ab0875d975f058303db0adcbdce84d8c9b61243a7dfdf9846200009b565b62055fa662020ec08801357f0beac48b2f3a552e5eda1b6cd1d258d0a8f0f02e96ef70a8a1c4cd2cdd656d377f22ef860d832270702eeea933254022b58d3ae400bf20610e5bb0ac01a40cf478846200009b565b62055ffa62020ee08801357f274feca5c6c3472f93f3195fda773e20af0646098c80c8d826088b088602fa7e7f073447a7ffdde78e40f11beb4bffba1ad72d9a6866693bd7aabe45fda2102ed1846200009b565b6205604e62020f008801357f0b5b4f0c86185c1f4bdf0a199f3a121d126849d7e83547bcb6c46c3fca6a9c3e7f02228b6b8fd5125dcbd3e920afa2ec6382877ac59f631073f018632cd8f8ebd2846200009b565b620560a262020f208801357f131bf3dd854e7a98df42223a592951db8a3eaf866f26d2ccb3390a4ab77890917f2781e7f952022ff532fd073fa169b8be477f85f04375deca78143647df260f93846200009b565b620560f662020f408801357f15ccaa294719567cc402ee15a83b6c96e1351bb008acfe6439098d2b0bc982407f303cf34ae27ab094bc671af41e2f650a9a2230bbd4f3137b68dccdb4d2c2b524846200009b565b6205614a62020f608801357f2ce412cd48b52578df9565e8015763101a7d07252889dfae80197e92caa7ec527f2c8b5e819ac072e9e4d918f6e84a91a4b082609315eae2c6d8563a6f48b898d4846200009b565b6205619e62020f808801357f282bfcb1eb45e6ad4ec855e68a45e3713b1b5f2e59741a282448bde1a156e7037f01cb9af450e12455af09bf51f24966b25ba8f7fc9e70d92fe674743eede08088846200009b565b620561f262020fa08801357f14b28753e5245f9524ed3260e127f80c0012d487f9bf51b1cd88b6f3750313c47f2cee57b27c9e9f5fcddf6aba20ef7c3eac5845af3f2e6433f26ac0d73d81b966846200009b565b6205624662020fc08801357f0ee8675ad24a896fbd3ca7784618f9fd705b9e3564838a36a575d9e1580179e57f20e41190ab14862b83613f0837ed4c914339dd651d5c5aa800b6064f17b2094f846200009b565b6205629a62020fe08801357f246b8b6a9439cd6796eb0d22585c34650a02c4d0134e6d911f94f43defa6ef887f2e996c2528779230e41bc936ec6896eb78448a612fc68b77553ae2355b9df0f4846200009b565b620562ee620210008801357f079f526c14435120a8bbe8e87d8545e847ea56b11f014a9233418e35ea44412b7f19de1203573c2f24f0a663dfa58b2de989b305081bbab0d25ecc5e7fcbe437a2846200009b565b62056342620210208801357f05ed0b178b34b887a8b25caa6945a1c76e5655b88ed93a7719860173f08586d57f01fbb3de797a45ea2e86b17bd5aa8cf4d0bb436c47b6ad03a115df0121367b91846200009b565b62056396620210408801357f10231cf3409ff1ae199de8361626e0d37b457db22e35568c4ac497c3d7126c7f7f141393d44a2c2df814b5edb92b7e22f0bc73f0164c8d29837b14e1814cf86b60846200009b565b620563ea620210608801357f13ea1f4bc88aa9ee991f54cca1c51a232d4a2877b0c7235cb89c94bb42dea1117f1b7bd86b236e98a5e55e291f2f2d384a204bb3848f6165a357af88fce10eb402846200009b565b6205643e620210808801357f107ce0f03409155172e7e9192f4531e5e300701dba39b88435d6b09f27c8f88f7f1120656049565ab8cad9792354ae08883bd9d6d3278fdf68f889491653dca47b846200009b565b62056492620210a08801357f193dfca9eb11d214d32c73e0e3e25da3ec5c6f308ffd8cd857cc8c0d9d5124de7f14da3c0a0d456c11af9d045823d5430ebe160dd509360f6da8d2c71eab7c7360846200009b565b620564e6620210c08801357f208583b7caa6e622577b4c2cde28f4731fa0921929a0e5e1b3f473aff30567947f18dfe58cb7b5517a6a24978e1ce937c431ee891e5e93dde7e6d7a844251301b8846200009b565b62056539620210e08801357e99c62a494f2c55519c4c52799da411e6afe0ab0e35e4b7a1e1ebb0d48eecb27f079d32fe6b68b77e04e1e8f3b52e5be37b5cf47280e6bca6cece4361537d76ce846200009b565b6205658d620211008801357f2e87524bd3087a5f9b1a8e4ecd5190e84c192af0cf05df6da4334e57054dc1227f0f5e3b464e3afe738ea099eff404cf4fd8e24589548310a8373cd089d733c113846200009b565b620565e1620211208801357f21024c1f397b8ffa969d6b20002fa10d2c25a014f34fe7ea29e091857508e0087f1c50a91880ed17e99d3e163ee6c8a900020aa80cc65403a7f1a1f603963bda33846200009b565b62056635620211408801357f032def3ee5788d1fe1bce909134b59e295cba7bc16c76a5a9ecc3d8e96a8d2177f03ddb66b340550975d7af8359c2058129ea36f6fb3b45954adb176d8b20d9055846200009b565b62056689620211608801357f1b205fea6c073c01ad96952746f7b277702b636e5449bf4f9fc494fd065bca847f1b4288f211d622f12b1c3669f14cd81ddc4562daca806b4ffd82b87b843ea263846200009b565b620566dd620211808801357f2f6c040711c24dcb3c3511c440581f47a32cab5b6a8a3c349d71a1958436b0b67f1a21fc036278367b56991e39b969a8994019f899804c332be80c7dfb74c47f43846200009b565b62056731620211a08801357f0af9cabd7809a01e2894851e6b6ef2f15f958dce354e56f5c94fae338667d6ae7f0522f30105637251677af4e7f6274f78e2d93ce67a599ba2774917b932b46ec1846200009b565b62056785620211c08801357f20bac1ce2b483aa1c0fbac7612aa5eeea0a23518c1a32b43c0792cdfd1fc39607f2ac13dd41547c53eda5e872033d9e8209437a5f2d4000e9df0f66d7dc0066fe3846200009b565b620567d9620211e08801357f091f0613ff71f710ab94bafaccdf03120327b8828dacb0f11c744f8ea821c7c77f29b8f8deeb3bfe97f14eb22c9dcc8b06b83fc730fa7d58f221ba4b1d2c1fae96846200009b565b6205682d620212008801357f2ee0902b4eca06e2382a0a9575c8a280fc0e80eb477087c2c28dff1f877ec60c7f2510087630bf55f4b945225c57c3df363a5c92592a9f19e0af4b3ca11a18c8bc846200009b565b62056881620212208801357f118650afeaef61eff1398f04c2d1bceb44242112aa013c6fe5ad2877cc90fcaa7f165cba42b0123053a8eae64425c238f66e4c5f6af25c38ca9d5b86aaf21e257e846200009b565b620568d5620212408801357f247f69bc6045e18d536335be0e54660fcba76d601cfadf5fda60153f801e91017f2ebe87be99d0d9b1261c91f123876d1d7e2a2b30aeb6d8eae70d598dee001078846200009b565b62056929620212608801357f125bbdfd93353cd6f89022c124691a230e25b557d0af7330c8811fd943a724a87f26073361fbc6611178d1e965e7584c67568c40fefdb25764d936e8a96c37315f846200009b565b6205697d620212808801357f06f5ca56714fdff4521982224ded58052f72b0cd2756a66676af87481d1b69ff7f074e0ec5588a92381e9ceab7857f6c13c64d9d8d8447b9c6db46f2ba29770326846200009b565b620569d1620212a08801357f1b2f994865e5b09790af8ea965f1984c8995d3b9091a710973b1cdff36f2935b7f25b3701f24bbebf237e6c404f121b6ba3a70609d27d35270258a62c057825b02846200009b565b62056a25620212c08801357f227614aeffc54322082b8efe7423d240b1221ad95472dd8e7e229fc351154e297f08a6e3588e077124417eee99ba64f415701637c2093ba7106703a21156aab757846200009b565b62056a79620212e08801357f14cdeebe2bbb49102447ded3dcad03c1caf156591a3f5be2b256056a1fa05efc7f2e6c6ed7b47a2de3cf6db93cdd8cd5443303ae61f25fce19c4db95d95eb7674e846200009b565b62056acd620213008801357f287ea3c05d71582c3b8f73c1566dae7175f79932671b84dd6fee5470506d72ca7f02f60d49e07ca606a3575a4df3bc5176486f636ab0bb8dadc907957c4e5526c2846200009b565b62056b21620213208801357f27e4b9de2b8a4172127e3ea16ec56fed2da0ffd53bcc18d42d413122bd57d8127f2dc542c42e32cedb008275af18a92bf94ab9404cd8199cb67cee3ebcb2bed67e846200009b565b62056b75620213408801357f11d1df23bcebc4906a503032dd5bd15f16d5d7abc7b12831f81859e3ddbb346d7f02288b294382aafde0fdc224069ba6c2747c0e6aebe45f0cf0bb3d7a75623ed1846200009b565b62056bc9620213608801357f1adb36a47ea35b95dacf6e5b1f88e2b474eca35561fbda656b768db703075e4c7f282f0e4c39b6304a360ee07b5975c0a135dff6a278cf987e9459552feb2a9c48846200009b565b62056c1d620213808801357f21d3bb9266d04bf9ddeff5f39b19d325c0f0f7fbf53d95de753cc0cc8359ce407f111c59625ee746884d413e158770d7141293ad095c1bba19e34489d95495a1f0846200009b565b62056c71620213a08801357f1fe040c4959ad407662de041884c03ec81a7e140d7bd7ec1638251f86a61fddf7f044e3bea30a24d3ba4526caa5afdbe751d27b0fd2bd22b3eb4610a125d0d8225846200009b565b62056cc5620213c08801357f02a0d2a39a0ad281e2c41a1163fbb0a19978886c9644a3595c1f3a074c2576e67f1d2563b8e59a6de946865690956452a031021d8d34164afba56e398c6b767b00846200009b565b62056d19620213e08801357f12ffac5b0e3b2cf9a9a02700cfca7746d8f84bf118b134ee2f2c1d5eab3f73757f09dd95a5cc09df5670269b5ae749d616b94e5694b46796bb30cf11df47680eef846200009b565b62056d6d620214008801357f23b4ad8d570cbf151dfca0d364caace22458054e8411a63972cdf3dcc7896f9b7f26fb28857ea70a6171bd4ec587a24966a0a811afa20f476506e3d9489e3b335f846200009b565b62056dc1620214208801357f06eac04c7e014f08cc2f76a83ec3d83b1e2be87cbfb26eb6e7b519dd50b321227f271d021bdba5bdf164d673dd6f800018a69877246640d52d1a8dd4e80d1eaf02846200009b565b62056e15620214408801357f03cba1de18b8aeca62d8f4287f973f044ea49acdc8db857daae368cfc83b652b7f302a25ed6bfae11dbd8218aa2bc64cb69c966fc098b7009dfd9525b92d1d059e846200009b565b62056e69620214608801357f105b2e916134c781791980fed313cb29525e796264f38eb0e8d2f42fbcf0d4ec7f2d7fb193bc2b205f3ec6e04ebdfbb37e0c9897e951c4ee1a5b785f1daaa7d14a846200009b565b62056ebd620214808801357f0e1c14336e7a7f188e2f78367614f0b683e79824a5b8baee07cd2b4c1c263c9f7f2e09ab0624defa97cddba03f5d6c836e5629304e9bf0a1033a443f14fa591909846200009b565b62056f11620214a08801357f08ff03401d900dbd267a8d3c7a9d9f6ceacc0d43d84627871c06ae276cc2978f7f1411d3cfc50bdb3b7d5017b2c6bff67ae34f364da1c66978f04b3e1bc82e04b8846200009b565b62056f65620214c08801357f259b69fa3a0fa43d5a3bf81393c43d389ee55e28990942cfe7fd08b9b6557e9e7f2e1e50db6ee1773e24a8b61e53a8fe1647d92256fb71deadf53364043a8976fa846200009b565b62056fb9620214e08801357f1227f45f279c423fc7fbd6cd24f4738cc57d9f9599088176a6282f8acad704787f1af8d78698f63765bf3b916751d21ddea2a595e6ac3c564dc421e8937e8061ef846200009b565b6205700d620215008801357f1e344a128e96b699561893754bd9a0268f96e01127d62a781c0fa30874bd88ac7f0176485f84cc236f9c356c1b9827caaeee4ee2bf304f48e8556b837ab657e486846200009b565b62057061620215208801357f1e83bf31feebbe06cafcfd53748940295f128194287bb1c288863803e5f123847f1d40005131277c2ec2e1bbc66ca34182ec40d8e2970a6d475dcdcad77591fec6846200009b565b620570b5620215408801357f1a11827a7a6f7118b7bb225c909dd2739c6b381a45a959bac944902cd2ac02527f07f0fb4d2b9ad7b23b8385e160c391ee5e331224ca91687fe13433a04d3e87c1846200009b565b62057109620215608801357f059646ccdeda31919373993252b375d323c67f4abfbcf2d180495952703558a97f0a46ce43188f591f1dfaae123208422ccdc9ea2fe51bb409cba1f50303e88ff3846200009b565b6205715d620215808801357f1758ace02da8e51cd0bd513ad8f34f04ade6993af5a6dea0086df226a657e3977f0486200079e7ac8bf146414289f80f443438bfd946deefbb05f7f48d47380bc2846200009b565b620571b0620215a08801357e2382c087448c0eafb13ebd0251d34e44554bac8d35a82f2d6e3c65417c07a37f100acbbebe3dd3430b117f24fb10a2347b2b71a8ea114360cae075973e8f062d846200009b565b62057204620215c08801357f1e6b98831bfed16deed8bfb6465d837ac7bc8b4471231c553bc34d213ef63d827f1fb5c11694476a4b9d44e41bc506c4a65af52c569cc60b1c32dd2fa6d82bf8d9846200009b565b62057258620215e08801357f246fd767fea474e7071648de7f98bed0f314e89dfccce7a93d4f1b293953d7d97f3018cf7574aa4af0553ba34219848706b6fb5c801462e9b9f87f5b7f1d0c9b47846200009b565b620572ac620216008801357f0dda4f06d12d6384512a31de5942ab9ffa03b4db7c8e7353f8aa1d252c2f6be97f07ba64347c222c6da06f5dd4c93af706bc2bdd21fb4dcefa85e33f5b1f7db2e9846200009b565b62057300620216208801357f0106ce86368f04c53d26b166f0270e07f8fa31505ff4013bf2b4158b6d6e53bc7f066cb7b13796544c6c1c0263423678110b771c2b8c676439cae9f87997ed5615846200009b565b62057354620216408801357f27f7be6467ca9a155696be6a9d806fe2e04e2579b44b0751596d20d8ca7e8c1d7f0d8bb17723e1c66fa218a1bd9c73226ef4cfea063fb16c70e04116fabd51b62a846200009b565b620573a8620216608801357f108881433393e0ba6a75eb1bb2946179bb8962b8711943f5470e830da7c14feb7f0da403af84f8d28096d26a4dc5fd4864d2daaf7fa48e0adb97cda5c83e17b1f8846200009b565b620573fc620216808801357f0b74dd177fc3d20012f67e9cfd34e871f8b48762619fc6b3e789a55c8e0091457f29d679395e902c6a7f8479690366df7178d899cf5377cf7cda9b9ad3ac6c5dbc846200009b565b62057450620216a08801357f157ab853e6b2dcabf3d1780664e93a3c3deaf53a5b5e6e7b1c4129eebb4e69f77f20d98961b288de400d329f7207c8ba977e20aaf7422f0e53ed52f606ef703713846200009b565b620574a4620216c08801357f2dc017dd47546ef5cc419aa6ee283ec98a02e8015224c0c634c36872812f8b3b7f22b9ca2cfa2a71133fd9a7839965c963c1bf36fe58390dc7bbb5e362e78cf355846200009b565b620574f8620216e08801357f2435c11cfd064abc961930d326263451b5482bf4e54a233fe829466ae96e6df97f0aebd3bc6a1d43cbb3e99e7a0cbde74e2bf7a811a13374d3d8980c3e9f6a805a846200009b565b6205754c620217008801357f0545f5b0c66b8a254311ba41f68eac9da72dd0d5a605303bd30a60660dff81397f07703a77be377aef508a95a103735304d5e3cf01f5b2ee63337fc46cc069f68f846200009b565b620575a0620217208801357f2358b22c63b13c73de5cc9483e0dc7fe67a8c61c70fae489e390849e9b7240a27f2c4113cb196b569c199a58ca41daf28a8f09878820f5dcbf8281e3a9c5a1c3da846200009b565b620575f4620217408801357f05a77a8f15824877f7f46de8c53da9332afd5972a822344579b75d268a5d31427f1497d73837fbef54bdb739a642d0690917ae87237ee5dabfac3ff1a7c300528f846200009b565b62057647620217608801357f1835fba6ddbfea5b9d2aedcc1d141f80d7480f20d798513becd93032dca0dcc57ef25f8892ba9c1ab8eae37d566e3b28a8783f824141d8c5ff341ee94cfefb3e846200009b565b6205769b620217808801357f2cccbe317b4eb8d4f56668aa6e7e8e35470ae5caae865fa8ccce6630ee07e8c57f2a8778d7b5c39f1a60b488ebdcd39814c7902c4af1b1e6b45902e38831d6a4e9846200009b565b620576ef620217a08801357f0a3784a1bdd4ae5218f760ab92b3ba89b96425de58983f1f7784672496e9d4fa7f2aabd66b25be63c3e724a27ec978a3bc31f44f7c25e435d3a0cb4bd38d7a299c846200009b565b62057743620217c08801357f1d48f930463706dc55e49bcde12966eedefdd6396e1affbf6afef13206532ffa7f0bd2e70fb44d542a6fc97c0528477c2a18f5d4dd14a10e0f6d9c9c21d81d0350846200009b565b62057797620217e08801357f193f096ead84514ef88671929d34571c78249bd6062f2a6d56f82b34be9ee9877f02fc5faf80880a84779a9ea090be31b93d48a0f3d1ea84659ffa4f3a21bcbdd1846200009b565b620577eb620218008801357f23cf5bd6b75988cb3888ab1e7a3036a8cfde5c81df753f58f9a00bee8be803187f05c2994e60d7582655a6f81bbac436bc36d3a495cafd552f4cdae99dae90a374846200009b565b6205783f620218208801357f10e8dcf9f7ef528e944a474b1ee587713612adc7941354aa35b3bbd624624bba7f123167153fa86014a5c0c1e978cff94c3f2ae65cdef5e39129605e91313c4bd8846200009b565b62057892620218408801357f2b1990b5c33be88058bc28391191249399688dafdfea404a6be587f3bcf8703a7ef0cad46df691adf0472d7a6cb9c2e02a637b5123ff5a3005e5da836495e819846200009b565b620578e6620218608801357f170a54657ea8f0c9d48f2b89fba0bf00b3075bc6cb456b09a94a84715fd0a9567f22e5ffa768a911d03a0be6a3a69f617173cdb4f37a49f64cb5eb9c4dcfd94778846200009b565b6205793a620218808801357f0f2e05586dec65c557e89f9fbd6fe37a345e52b8a87c7dfc249638f4a08df56e7f1476c5fb00947463690d0a3dc6a66a4679c52376eb363e17e37cab23f84bbe30846200009b565b6205798e620218a08801357f0f9f7a5e2e6a6c5e1cacdd8b7473cdc7a485f222fa7090940a9c3440a6e759b07f051e2a217ab74a44917600dcf7bcff1543ecf87d6af8962e997b03b7f0643b31846200009b565b620579e2620218c08801357f0da6b42b5d563b237bb1bc002d9806233f19c5bbddc6a5f688b9c11d5a97f3987f2bf331f4a7b1fef8ed86972b167a68e0ff87d2e02d77a69d0c0f9f2eed9267ce846200009b565b62057a36620218e08801357f1459e7ca2752aa3b9aa2a3f73484befe1dc744b127df9261ebf05c64819ed07e7f268c4db6de20b71b86835f81bb9897127e4d19031d58c7d840746155b8bedfc0846200009b565b62057a8a620219008801357f03eee679ec538e79c8529c04d338b32d25918a3b6fc718363544ad5318652dfd7f14a52f4592046017a061d7bc6e7c5a68685b3de1126728e0e52a94369edad68a846200009b565b62057ade620219208801357f1c332868f8ff66e60f181ba316ffa16c045293a6a524e02976073888ed0fe6417f1f09ff0e38eff3240701c2c194216976677e54f55d82016643a841e637aaa182846200009b565b62057b32620219408801357f27d6abc0df1f30bc79e5fb7a022a9c6ba9e1bf50760b9b0c608432621de946177f2cf545171ddbd358aa9b6155ccffd6daea78f6038daf1bea62435de7e22d556b846200009b565b62057b86620219608801357f09d483232b17be8ab24b7f147923657fd2baeffc6268fa0a1ac7ac3b34a07a107f0291ceaf5ef8be01f238154b8438b3a4d571079e76406e96c1e6a931d70311da846200009b565b62057bda620219808801357f0e6983f5b62b672fa92c9ceef4fcd4e5b13e4300c4cdeb360f78ae7ac212fb227f20fdd688c0b87fae225ac875519b49d5b736c2f31e6c413666f0af6c4c652a30846200009b565b62057c2e620219a08801357f122ff98ee480725bea34d7a976d79836aeab7e6590d3c064b1d7c8841dff83497f154dff592efc81d0ae20491b60aea556218428c14f9e1414e38533f2fe86ed70846200009b565b62057c82620219c08801357f0ecba04fc56397f85d2d1ebae951b590b9e13858e09a55d9045bb1bf4215003c7f0152a3c8c12697afe3494e3207259edafe27f045adc753a593ec3afb178d30c0846200009b565b62057cd6620219e08801357f211697a03e09e6b93b57e644c8b21d91c72bd989763fd3862ed74ba5443804597f1929c910129ed1661b3af707bfa4de16ab7703329fe2d04b07f1b2d1f251da91846200009b565b62057d2962021a008801357e0cd332450ebb312afa2ae254751142aa073d7729cac9eb84cea9819951d1787f15c724d1487083c6d9c62bed348f114d2e1cef5671aa5646b3f49de9026a8c0f846200009b565b62057d7d62021a208801357f0ecc0f3623bd7fff6b86dc95708f591cd7b9d842596f7e5f4460aa835970fb907f0320f4bef108b253d7323b4c0da04f41016da261264c63f5de59955ae8bfcd77846200009b565b62057dd162021a408801357f1d54043aeae454d237d6d97f3c4cdab32208be653dc001cfcd2d99d5d645a76b7f0a0fbfc01a5a565b196b2df6d785533ede56af7a1544b8b9c13e5de3fa323357846200009b565b62057e2562021a608801357f29c646d7c29974582bfdda1c54f8033d8808ad5745ca3f04181596d09525517e7f044ac5e0c89534109d518ab49c8bdfb7999109dbf5e6670fd95f5b29eefc21cf846200009b565b62057e7962021a808801357f0ce4016e61ac5ef69ac6f64b7bc7e563aa1d07b6c7127d0729c7e7206233e37c7f2ae8139ee9bac4e7a64ac91ae658110b15ca3b7e6556d70db446623224648726846200009b565b62057ecd62021aa08801357f2ecab0acd4943d1fa2813faecbd790eec42aea00e7cc38fae2b9e9d471436be67f2aa6e809456da3e450e958ef2d1022b6e579a625743f25a9a74b85f4ae84f5e0846200009b565b62057f2162021ac08801357f0e0b56423fb6edf5da94c044fdb4ea3cf3173c67562c3a7dd56c25ba793e9c907f0ecf8041a478f1ecd28fbb82d42ba5a1deb0a24b29cc110338dfb956c8f2733e846200009b565b62057f7562021ae08801357f2445eb09b9d579b6f52d4a5d35f1252ab898898a8d706968d2f0b6196e9e34827f2a99304f59ab0b70b19fee2cd788f9d42dbaeb144d6854b44969a4338f54f343846200009b565b62057fc962021b008801357f1503b217bd40d7d015852a0407f0bab3f71b69280d43c77607c6c3fb5b85714b7f2752d69b760d1daa4995a7db30c6fbc3ab32aa3d9edc9aff8ec657eed9ef9b78846200009b565b6205801d62021b208801357f03cc5766c8cabc49fa5a486588c823c70ee90e91ac77d5a9bc9964a564aaf72b7f0f204d4f193bfe4dc8ce9c7ed1525f9225b97ecf20ff393f3e400ca3e010806e846200009b565b6205807162021b408801357f28a8bf3d60c6461c8bfed17b43c7031a0f97184dddd9ab18c3ee4affac868abc7f2001523c5f329efb0ca668f3a0d338710c217a142a90ba5989dca7bd37a62441846200009b565b620580c562021b608801357f0f424016983ef24628c274799b44fea015ec152ebdf905d0bdd5438cce9817227f1b1d4702b6442a137bbab055bece5cf5f3d1a0d278a714803907a329a1577a08846200009b565b6205811962021b808801357f25836a82cbff18c36b3eac90e79b3500b3640aa33744f0bdfbcca9ef1db714c97f255b41dca22eed01ff44386ef5077a5cb5c9fba988a915a9866183d884605379846200009b565b6205816d62021ba08801357f1bc0a6cae8cedd63a28af88b34b1921906904ffc93857a6b095fabec1820abc97f0783fd41d2ae50bdf68164f236460c03edab3d044936505244901891402a7c01846200009b565b620581c162021bc08801357f1560317a650e28bf27f31225c6b28e29a03f8e6ba2cbca32a04be2cda825d1ac7f12725269e06bc92f14848fb303ed89a0cfcba28686c814a83a7765e2348f2cab846200009b565b6205821462021be08801357f2662790ab13b73c09a249e8ec9418d7d6e83b744bb6c24e7d075a0d36369bb867e0228f75721b1f6309f966de8a488715c5bacbc0495c7688f656ebb67fcc6e3846200009b565b6205826862021c008801357f1765090ced62f52603d681224118dfecbf52515e76da888962c600408443ff827f0ea6c742ad2192d910f8eeb753d0b4dce82733d436163fe7c31edef048e19a10846200009b565b620582bc62021c208801357f059652c2c9410aa3753e00e302d5de789afc96891b0b0bbb2ff2efb0336b0a1f7f1412449ae8a11b59ec5d133bb0f1bf7db59d6dce4f5257783383a3073c2d74b0846200009b565b6205831062021c408801357f2bba58aad1ac568490207f253b2ee1cb7e4332f74aa62752b1a3888707a1c7ad7f22a6eef9f5080ce0bffcd619836fc757373d44951148980fa7f915a5a9cd8cc7846200009b565b6205836362021c608801357e9f6e18a1985347a6bef728842b0136f07c6bc278e216c8da552cd4963c90cd7f29bdfde05d4006d5dffdd52a55348d4368e9c944b4e6c9b353d44cdea8836067846200009b565b620583b762021c808801357f2655d34dea5b9981dd433705b2f77e380104a332e7655fa3d35cd8a6c1a966107f2051027cd89167de42770bb4df585d32e36a22c426f3a76383fc01ffd26884a4846200009b565b6205840b62021ca08801357f2ddb710b545b28928a0c3d717a0b917e5d72ca0fab88b796d2585942ba42759e7f2e4f9632cc2357612ca6a6cadd5c5c7e198814ddeed7622d4e74d9717bdae2e0846200009b565b6205845f62021cc08801357f0278df25c3d72263296833ec9bbb31cd63f0c318f183c1830d5477756f06a2697f08716e3c682068ef6432635ba2d129999b28bdb3526c24881ac78f6ffff219d4846200009b565b620584b362021ce08801357f2af8ddb4a805039f5f2eda622ac815d92836b4c05f53f279551fb317653c844e7f0d26a5abffe6a4802d52d8a3d75599dfb53181f4b88e5fb97eab9233b5ed44a6846200009b565b6205850762021d008801357f125a15860e220c01a9f4a8d0a2a2df2effb2eb48f74198078cc1b0911af49bea7f29bf3806d6cf0dab5250ee92186d7441cd0f286545163e27fb32af2db51e8501846200009b565b6205855b62021d208801357f171ea31b41376208f4d092d1ab5cc5d28e2db33722bad7023efd53c8e2cfa8ac7f1ac690fe8008875802867c576d1cf4fc1a919f59746f921956fa244fd9d43630846200009b565b620585af62021d408801357f29a5969225817d9999fea23f15b4fcf373f097d1046e7d3cd40fb59143f1cb327f1a0deccc3326e4b7c9be4d85605bdff5ff57274437a6f48e2850b19725d342c2846200009b565b6205860362021d608801357f2f3fb3e7afacfc5e0111d5f35fbc30f775cfb4a19a55d76c8d71eb3eaef87bc07f11268f04537e7f1e36028c3dd45bedc19fd659b474cf2a5832d83a89b69c6cb8846200009b565b6205865762021d808801357f2e7a37cc04383d6e151eac7244fec98c56b5ccd4e5ea38f18bff185e47cf55ba7f1abe02ca0a0d709e9df8652928a8e9137a68a564c93277e14fb8e82807b87370846200009b565b620586ab62021da08801357f27d82aafe21b13e7261505842e27b62339bf5d134a8d4c3c2a77e56f3b49866a7f0c2b51d86f4427e2ebf2770449082c35f1280ed931fde188c05ad23d042d054f846200009b565b620586ff62021dc08801357f0d003843a706980e9d87d614b6270e2422eb8fea4d0c561a33907a3d5b0690987f0613904c49d7218c86ec5ea5f8d76a639ca7f8f0d9e44f0aab0a3913dc0805b1846200009b565b6205875362021de08801357f0c0c504452d52a9f610e3612e32dfe8d4b72648d8a5aa8f84a361a8ddbbbcae97f2c0082bdca4af5b0a0d1cadcbe7972bbc30b8c001a4f495c8ea72b62f36866f2846200009b565b620587a762021e008801357f0452b9f010068a0d04cbe2114e62d401cb5b005c5e449daf163aea9c4ee9cc707f19f15a7fa867acf54903904dca665efe5b1b3412387e41865030b00601a75da1846200009b565b620587fb62021e208801357f049cb906d089018c6d03efac093ff20466d1054827f4479cafaa6d35cc744d327f2c97b858afe191efd458cccf33b8f3a54bce1b5e65bec1b1307756a4ccb372a1846200009b565b6205884f62021e408801357f120ee56dd994ab83ee82b7082213990a258bcf2cd9376d5a75d92c71964710067f013d683f87ed0f225fe8879b448ee1b3e1216fe616f4fa09edd3297673c60100846200009b565b620588a362021e608801357f1debcab0c114b495a45e0dfdbf12f8bc1ee46768165daab4ddcc55b0ad67d3727f23ff2410e0ba0b0a26933dacbeb05516a5d24ec52be40cff0e6099c3194efce8846200009b565b620588f762021e808801357f0ef6e791539bb24d6411df60e722e0acbcae55b9500e1493b6c28efc9069a0f97f0c442880ec99726334b4804810fbef2f092001e003dea9d8bce0c89e4723e07c846200009b565b6205894b62021ea08801357f30632f0f08f9a1002435e988eadbbc96842072a682b972653dcd588fe3eb685c7f1f0b81d2cedd7cffd019a3031626789e0c00b57372c0561443b23ece4de53002846200009b565b6205899f62021ec08801357f2b99b0f88b6c5d0f641c117798cee55adb7c76c95ab1a4499f17db1651fb33727f2e2be55b4acda9a0f765ab16558e16a3949e56b0110e498ac3b33881333d9bc1846200009b565b620589f362021ee08801357f091344f12af41706895271ca9e18b335cd57452368e3d3d11f7d8c7f543c9ae87f2ea314b5f7b9ff82f03d0c4483b80152c1b67c5f774e8a5b338ca6fecd09b2f9846200009b565b62058a4762021f008801357f17dda123cb812071c424a2b9e4ab9e3135fc788f467daac4d7b369a1f1445bca7f0e56d77d3ecc09e8ed4aa12eb4f553fcc01840edc43c101b278492f088f38ba2846200009b565b62058a9b62021f208801357f252eb6a810f41b7f127fb2404afdd943fe0af6e92e64b2f491508ff5a67e45ea7f040c7abb274b1c51b0034415f7f614478b0a8c94456c2be4f763f92ed67bb4d0846200009b565b62058aef62021f408801357f296fb4282d358fd8bd193e9f789f81b4311f5284026d9271b2984d941c13f4dd7f0e3d6ec1005ab433da876d2913ceaddb7af25dd23f092a0fbd992e37afe2da46846200009b565b62058b4362021f608801357f140b7463cd90897836987f097b9e048c9fdaa9ce2be7c0b11899b5467ce782027f2260c9de871d847c12182a4bd45434b2132a2f8a395a29972e9fb9bba8dd837d846200009b565b62058b9762021f808801357f2930733ab5a6c238cc9b1cae83af1a670ad61941942dd2b3869ac8219a78ac057f242c6d5101c77a39e7bedd73b0f806904278b9c9d875365c14cd1d103946f998846200009b565b62058beb62021fa08801357f1341eb56fec52d1bd0b4a92e071006e7b2d09bee3e50f91c0e2b8b1d7a19bb5a7f10a32c652a49179008dfc4f88017c8b027ea42b6a3971c025e94204d4e7156d4846200009b565b62058c3f62021fc08801357f1e901ecdaa908d29a3ebf7bb165ff5889aafccabf7236ab3b51226349e37276b7f157300f05b86f9557682f442138c27b0588bd9d0b9743545c8772d8d134af389846200009b565b62058c9362021fe08801357f19e9ceaaeb44763121177d6c17b237c02c27270aa3526da7b11bf7adfe646c747f2b8354f7e7326788af220c26763ef8637bdfa89cfa2ea4fb71d6b71a199349b0846200009b565b62058ce7620220008801357f0c3ffb2c78cf1d0fedda48f346b3c93c3f63328df3845509c76b8fa057f87ba67f2bdc7e17df72d065a3e9329dafc9dffc5941e4a6388ba43f8b4176011416ccbc846200009b565b62058d3b620220208801357f28e2b14110d773becbd1a18a0521c2df91a6a7abefe10652ac0f926b1ad894bc7f1857654cf91e76f2df6c40c03f3fb7dcf4031ac2cbe2a8fc70c684cfbf37b35b846200009b565b62058d8f620220408801357f1acb3e7180620de76902008bff920f6c9fa1422064f804bb8b4a45b1a01de25f7f20d80d3ff8364ff9c8247bdabf7669acd140e2bd3d88efbbed4aa7112102be31846200009b565b62058de3620220608801357f2796c0a3ea1f4866982baf1155d4b53a5048def44843f75ec0f971b1034e21aa7f05256982cc064d4f19cc585940e8a6b78f93edf2d68cbbfd599c1a43cb5fe39f846200009b565b62058e37620220808801357f027654484b2685141db3d3b598b5ff122f80301f3159b08ed57424e07a2ef54c7f199d6c00fac5995863a0a978493b68835e23804f3dd417edc14d38a5d0b487a8846200009b565b62058e8b620220a08801357f130c385478e33795f58b58def2ec3a31a27f59bea234be6716de1df4b1c482677f02b5b26ebab14a421c9e89abb8710a7ff3c4abb8003c19ea48e060392120cb3c846200009b565b62058edf620220c08801357f2257715dd093ddd0c049ae736dde920d40f5e780376de6ce665b40d0a82262997f2bdb30665da7a0af2701e03846c6f5131b2223363205dc7dd29ba9fb8da7aa68846200009b565b62058f33620220e08801357f2a031c153e77c3aba66444800d8898dc5851c95d5c24c8a96cadf69a640f87ad7f2f52927a202de83103fcd270b07a744e4c0cdbbd462fbb8197a4366a9ec83973846200009b565b62058f86620221008801357e8204aa71ca13512e93a2b12ce79ee692f0e290227b5dfb6cf1b98e3448d4ea7f0f6fa0b11a2eca74c4f4101c6a7635ad1116dec5c9ba9b2e450941e2ba4782f3846200009b565b62058fda620221208801357f0123ef98a5d595e7d9efdbc8696aa0f6e4563eb6d9c526b1f1a6bc462e10e9997f2a3b5f0b6c84a627dfbec9ad02958a9b564f7b158a856a8bde961697baeb3d41846200009b565b6205902e620221408801357f2e157a31439f21bab1928aba673d85a2f4f0ce9c820670847d8ef08ee433d1fd7f29c335f064fefae41f6aaf6ef83644a3a4f070b0b6b68ca7653fcbda752d7673846200009b565b62059082620221608801357f0add6711704d97135176579a62abc851764ba2d6025d98cf6def44a7d240cf817f01d6de9dc81931d547ade05976e1a370949b6ca52e557d90230c11ba67ea4c3c846200009b565b620590d6620221808801357f2b6e3d84b4ea69ea42f5e48e054721b1fa9123eb37886787d474afff6d8232657f2b8a920fc142f71e2a33e8deac2175ef8fbedd125f8c075ae28ddb49c0dab1d5846200009b565b6205912a620221a08801357f26566a46bcee35c4d649afbddff5a91297a4b213fdf37fad796c57c0bcf64a837f16eac28923208d708ef337b50fb8a1ad780b65e067dccfc5b0618a2b6a8b35d7846200009b565b6205917e620221c08801357f2a7da5115a1c218964d2db3d9ee7ac933693c827caab361568c1a5962e7f93287f0941e0a9927882ee0098786a22edc380a4d7d2056c5b2d38ef68164f44b4e3d1846200009b565b620591d2620221e08801357f18d565fd042fae3742197155ff10dec14ed099f63b9d8460835acfbc5ab504de7f02ab5f6e831cab46fdf54a50a388509fede3a61fe31fbdccd22024f633875c5d846200009b565b62059226620222008801357f2272bd10ca5f2280fe08704cca377bc1f0581a32708ab1105106abf71af6a7397f1c4797edcc94279e3a2479537c6867b586e5bdb0e38c1f81fac2a27380b399b0846200009b565b6205927a620222208801357f02b3a5230695c985b684d74b442e887f497d2b1584435b27411f874805609e6f7f16a80f05523dde57bb928f72ca2be8bb79ee35c5b4ca5a8a4273b3f2b218c6a4846200009b565b620592ce620222408801357f13a15bf8d8471d5c8032ebe111de18da75402862d2911a5089d9e8f3d48ec9a27f06fbbc28ba26a7f7a3896462425b6f71e2e58d0b08e6b6b7b07582af00b6ef5a846200009b565b62059322620222608801357f276d1cfceb05b975ec4f931aca849e359d2d3b455efb3136f0eba9d2fe01a2007f092bcd71641c4cb197c7988bd8a7335156225f6cc6bc09d95bbd2eee2bf30018846200009b565b62059376620222808801357f1a2f99995ac4deebbd622533d86a91fcde1ae1ee6c7614ce395754821d4a45db7f1f6cd65a49afb0323841e5db566f60106ff529683ba6c43c01d6bb02af6be119846200009b565b620593ca620222a08801357f2d5d69aa87e2af91d56246b195fb7e15f602e86f1f6d85b4bd8c273a31963fe77f2f4e3d47f0d1e760cde15fc29699969f5ee19266d9fc6be33e447dbc1e1143cf846200009b565b6205941e620222c08801357f11d4791a44d54b158e7eef90296a68061281154c65486a2c753366ba83834b8c7f070dbe947d4bcc07af5e89727e3bcbfc57710743a5c8697d87ab7376af17c68f846200009b565b62059472620222e08801357f2d52c769510a5fd06b09e7b163e79e31782703cd22cf6ecea7c3cc7b997feaec7f137020433cdaf809162a228f1e57a17431f6b242ed8a58f7f65408e5137973b8846200009b565b620594c6620223008801357f033d3ca60f6170386b4aa2a25eb68a4ec0acbfeebfe78bc3a340df2320c93e827f2aae451f723175bb16cf59736c72f3843a69730eaebaac25231bd7e9b1aab19c846200009b565b6205951a620223208801357f23e028038d7ffe66e3857856406f180e53c42def291d8dea72b32fc4244335847f01debc893a0c2c4cd861cb2b4ac86041ff11c556effc89c946c70869643a26fb846200009b565b6205956e620223408801357f0d99270bc1c2537276615f2f2107a207f518f381f2bea8aa3f69fa669508ec937f22deaf923383b34fab024874bd7e1b42c73169d05ec7fc2210d954e11172ce83846200009b565b620595c2620223608801357f0468f2c0b2d3146bbd5ca431bfef7b4a50e32a648b19efb431e1949bd03b607b7f0f9d5737aedceeeea5e2b748081bbacdb8e1fcef32372d4a92365c5a3e4551fe846200009b565b62059616620223808801357f15be6edf2955176e3f8c0c48c063dcfeb76baa487712382d5f462c9acbebd6927f2d2043448f4ef1bd1672cdfdd0bbd33da6b23c0c989732ef88fd1e4ea571c438846200009b565b6205966a620223a08801357f0853f803244a695a1a961550e090af2be523ce5699576421d389d36b9753009b7f1d676a764232151af551dcd400bb4ee4adaf3e682e6ffde4a34d1e7421be29bc846200009b565b620596be620223c08801357f2abc549ee1172437ebbcd9d09d20924beff45931d6c824015554c0079926b53d7f0f836e225d903771cd4dc8ea4a6295a67f681b5170df917330c204ecb5c5c71c846200009b565b62059712620223e08801357f1a0fed78268cb8b07894820cf1ada0cdb56a8f6654a0aaa015070355bac886797f053009398083386a241977169403ba8af0b29eef691963ec143be7641db95ad3846200009b565b62059766620224008801357f28ee4ff77449204c320c739168ccdda0b2c9ed264941eb048f7be92bdbb638637f0b40b577bcc92321a26392393103b6b863dde34b4f13fa98567ae61cfec9d2ec846200009b565b620597ba620224208801357f23d32b2e881055615ff6639e4d3972da8f2c19e9d870a16af199239210172d537f09b1ab9e8a92dfeaf2205e0369b4a5190b1f452f692972111ad6277704a52823846200009b565b6205980d620224408801357ef9e8b4355cad4f1bd27cbd6e9a66b29da7ce083edce305523f98da9bf0dddb7f219f26031ebc129ff97a84d6a1ae56e3331157d96d2620c1e1c8c9bdff85c1d8846200009b565b62059861620224608801357f083c913cf449c264dd4641324bc7ee4026484e4785fb1daeb00d11cd5761701b7f1ea3dcec096b2b7fe3af00bda0e67db2e2da88b4221854014873ae07239abd5e846200009b565b620598b5620224808801357f276fa8e1591c9620e2971abe9e8566582da23b18c49aaec49f7535606f457dec7f276f879e2569ebcd48dfcb494cd334707a56d27a9fcd9d2d993e24bd58086c3c846200009b565b62059909620224a08801357f10bc647cac6dd646c22ef67b89bfbd87b250961882968b2ea017fb2585321a9a7f18c540ccbb17aa66543faeb5f00ba1e049d9aa53444dd2d51282abc4e16d0bc6846200009b565b6205995d620224c08801357f2b06f56357ae9506e331d0b60862d8e9a2792e64ff769f79b84b5e3899fea71b7f010ec811e2702f64b12ff2d7cb693ff45edafeaa803c3cb243a0692306d41cab846200009b565b620599b1620224e08801357f1708ecdee7f01ab44770f3ff48db8675981e9005db4ff4ec805ab06da1ad957c7f0822488d2b8cbc1f3d665a376431a3432b347d4d08180fd0bd3d7317e7540b48846200009b565b62059a05620225008801357f23bc94e2601df83bc29f910446bd14db002f0b0c956ff2ba2bb241ec023d521a7f1810be246957a3cd6ba54f3888adc8d363d1b6d38f98b65f83ae0b7fcb9eac30846200009b565b62059a59620225208801357f2e518723cc5e5ad9689d31999e90a9624513f699c710cf6981aa695f2793234f7f19fbf9950ddc1a2c9c823e016eac83c55ced6814ed0e846d05e1fa207c1af5f2846200009b565b62059aad620225408801357f1b4cdd27fa889629038c420d5b7ce18edc1837a883396f1aded961ecc2e2a9197f231f40e616cfd612c2a1cf86a5c9b51ac25138c762b3f323da5bee837e48fe02846200009b565b62059b00620225608801357e13c2bf52c34ef766356cda53e70cad4b65e9698443a525ebf17f23ba63e16f7f0e17a43cacc347fd1b5d09e4df7f83a15a7e14af9fdafa90d0d5feadd19be09b846200009b565b62059b54620225808801357f1eaf06e7accb6edf02f0ba5479336612ea07f50c9136ea0943f1e19b50e503707f2e6d7c28ead9bb6e3348c356277c504695ad16f1287f2ae9a149b39b9b322354846200009b565b62059ba8620225a08801357f1714b0884b88bc98de4d44c5ba889f633163135b87f15cc594d9e4d186cd92257f216e4c865e12d5024f375408e68bdd0774ef6af25764ac7d769191656dcfcd6c846200009b565b62059bfc620225c08801357f1c30456c26db15a65bdb17823ba726f458517a60f68067b838feb3896ece08be7f114101b7c98fd0b3270f1143327e96ff1bceff3391ddbee96e71c589f8ca6f58846200009b565b62059c50620225e08801357f29409cc98dca5717a0c5b2977057b277017de11c031a8e72d34e9bdf2147519c7f27108369a040100166e6d1d06966b26e8f13998a33d8eeff1f225846f5ed8bf6846200009b565b62059ca4620226008801357f1624b7cc4150c342ef4ecccbf50427a29af8358b43a39f2ec4b367ac28de11027f2c02629245f5b07a9ce0eb5bed33da14bb6109ac78949a9e6e09a806552113ed846200009b565b62059cf8620226208801357f1fe9532222c4026d98ca8001333ba1740618179d9ced903f5fe72206eae72bd37f0c9ac8293a9b9fa4770ee5482df8680e5b26dc68fcf0bbf8908c8945f3c1de80846200009b565b62059d4c620226408801357f088ca277ded7dd850b011178afcc289eb9deeafcee858de5d22e283cdadf54007f263d98999923f2868453e5683b4f8c91e9231722240dfa37f3050266efd6a40e846200009b565b62059da0620226608801357f25f3e5a7f987a120cd2c580cbe1a7d3c57f412376547c584440e95990be413c57f019f4c42e29b471450aab38d9f1374064e421c644ada106adcf7139766a0d5c0846200009b565b62059df4620226808801357f01f646cc5435db05392b9ee1536b48b0e651c3fe2b26d68668105d6240b2c7d27f1914685e584640e56594c1706e098e2cbb64b24c243b8a7b4eeba07d739f753c846200009b565b62059e48620226a08801357f071a27678ed62d1bc3995010b0b5e688281d294a73a476bdb27635f8460a93087f05630618eb06fbc610bd99fb224baf6f8e42c72daa59242946286b4bd848350d846200009b565b62059e9b620226c08801357f26578f3734ffd6f926a15a5aa21dee00112eb2461b4fde63059de4d2c723044f7e5ded1f2c19f52302a58f53f4d873c554c1326596218adcc34d847ebe0747fa846200009b565b62059eef620226e08801357f0d26a93d7ffcac213e9d39160ddbd0857e69d14b09e45f20393998a20c24d2507f1e9508ce116e8c4a9b00f974e14a197de1fc400bfca953e7ba8c063de0e88b74846200009b565b62059f43620227008801357f027900a108996cffb3981fe7abd2ef5397870d86fbc86dd05f871d563f4eaaf47f25493953ee861b673be6ed4cd32936f6f051c1335c3c27f057392ab038054ef5846200009b565b62059f97620227208801357f2e049585409c8a0be5b068e533702b1f11ad4bf260a6c308bd6ef2b3be79d47f7f07e5114f9b964b0d370ca1f39cfae05a36199ee046dd499e1c688e53f440a0a4846200009b565b62059feb620227408801357f174eb24961f13a7465975e13d4d8c96e9faf79e51733b510cb0871a455dab9317f21b244b3c2126d1f82c3ae8605f02dc0474230f8aee4fced0ac5550198fa2aec846200009b565b6205a03f620227608801357f043edabe1f16a4d000334261bed90e934e0ce0149df064e6393535f42c0081ce7f1dc573cd54d692f7d568e1597ec8720eff6762e7b222ec4f4effc2ef2b948bbe846200009b565b6205a093620227808801357f0fc5aade70fe47a8be3318e08da9cdd8d027282bf974de1eb789342fbab802407f149f7b105a6713efebf2855ef21204075b709dac05e3cbaa8b739af5bd47cdba846200009b565b6205a0e7620227a08801357f0a3bd5177e0d27d3231fa626691080a1a170d99ca109d71e05e72803393b8a6d7f2b87f4cfe11cadb14afecedd1586aabf3c17935e4d4b0a2795adb147f6a4708c846200009b565b6205a13b620227c08801357f29b6a4f478dad85186b1b5c5da9b61661023fb6b3fd570da3ae5949915afa5047f206df7cef3eded225561a60e886a3bbd87e848783920edbb0ad6bea4019bc7f5846200009b565b6205a18f620227e08801357f2b1da868158aa0555e0951090fa490c0317654cd4120df999544c75d77509bbe7f2ce23385ec7fc556afd50fdc7f3d23ada385efe577bb2c4afbc07df356ec05a4846200009b565b6205a1e3620228008801357f062af206467cb681ca33749f00631b735f655cd325c7b4598f2e920b6e00e2df7f2bf731114919f02d312db9bcf6f544e2edc3da6148d3688ad099bb7ec4ffa8e8846200009b565b6205a237620228208801357f0974900e9adbac0d5a934aae6421d0fb324f019a2df9121cb7d10d201a7783847f1cb5818913086d04ce30792a78bc5cec4f8247a3008071ee0506642dfb3b067b846200009b565b6205a28b620228408801357f293a1f0eb876397d0ea02279cc8ea3ac0ea5c961a461b6164a0b30b704f24e757f01e460ad25dd492f8a2a71e18e570a7c7071632a6ab9b1150339f6ff4bbed716846200009b565b6205a2df620228608801357f0f26c09de120d683989fd45b7bc72534078aee0fa87d730a5368c2c6aa668fbf7f0c5fe487f3843e1c0981321f761ee1f700418f6d0bdf97ba6503ecb91099e751846200009b565b6205a333620228808801357f0681ee704d2c6a31a25787c44be12f3164924ada4900319a32c82e30444cddd17f2e79c668d4bf1bf5ea6d1268564d66dee405471225af854d8eea3ea959e7a018846200009b565b6205a387620228a08801357f254bb4724290fde11f331bdd5b2ec175b86d172b8b703226bb8aa1e7d8cc35327f22989ad2f4ce4f974d4db552d08ba50a8e1f554e45f9b7a194e5c8972694f9f0846200009b565b6205a3db620228c08801357f209f424638c964b2b17db9571be3b4e58c6cad13d0f1d125c35e9cda2662ff757f1ddc063a46dd0906abe43fa0d81b4877307eafe8a39cf6af15b79a79766492c9846200009b565b6205a42f620228e08801357f268494e8112cfff5ba5028872dce0059c43610c16895b8a0ef1ce39e08ff65217f11b7cd468f89e45b91798e6bdb54bec047328da2545b1a547d5296186011fb83846200009b565b6205a483620229008801357f2b219bcda3620b28adbda48156df40bbe93dd671a65ba202cf70f985ddc284bb7f0e4ddba518dc14ebac7baf747bbfb252702b2906d9501ab09f940f226df14c24846200009b565b6205a4d7620229208801357f14e6c82d11f0d92b3e24e204f2c7e5779c89b9528b443e334f0c27d67bd6c0d67f25e947ce505f8cc3d8d8245c28d0057f6f77b64d007d919b5fd539e1dd7f3d65846200009b565b6205a52b620229408801357f0e43cea5d7d22d985e09d87e0d2c5a632d7f034d3c10254831638841e32fc0b17f1a8f907ff9d496762501dc46f661962ea3c60eb23e18320e12adf13e2b918e6e846200009b565b6205a57f620229608801357f291d21c832cd5e3cf358c4c3ec3735f1644169d795537d4abf2514fd6e61cc1c7f0a4e0386db803c76668dd4e10db4b0409419912493e573cb8d43a93d49112c54846200009b565b6205a5d3620229808801357f2ef17ad0ebedd28dbc9cc104123e9b17221aa192a981cbc137f0f36e582833a77f0578f7d9ff377840e39a68eb37b4cf91c0f45a602e5100588c25dedf692192f7846200009b565b6205a627620229a08801357f03cb7cc9f922ca3aa8f38bedfdd1168b5eb8dca6e42f1af8e6931097b72f72887f3063e1299992f0bfafd96be317aaafc27e89a78656c524df462d67a42a3b2cd7846200009b565b6205a67b620229c08801357f1049e3cbd326f07244f576938691bfff1e584f49138394738855dff7e2b816be7f0b06a28ae801409c0d025085839a43ea980bcbba838c470463002774e282fd91846200009b565b6205a6cf620229e08801357f2716a8b32dc714cced7eba2454216771729e2cbf76fa0062ec99fbafc1c41ee77f027d0ace54a1121b28ad4f9ee643b8fea698bcc8badce0dcd6587787fc1465c5846200009b565b6205a72362022a008801357f120601f5a46f55d392c42f18638ddc8273adc8ffdd03cb788a46c47a6418f9867f04cb1050b24ccaadb495483c7965e1d39cab9b4f9959418f69fd92a9ec1a58fa846200009b565b6205a77762022a208801357f0ce3598bbcb91f5222181e9a10d56e8f8acbac6d98d2ece9651f1144eae96fe27f14b6904abb4d9be360dbb6de5a3000416e60970df991276323380b06fe0c935f846200009b565b6205a7cb62022a408801357f2150972ceb4e7c88e563752779c8d7642c6871f1efcb043c7c25e79838e351e17f055b529e249ac6e28395b5368589f252ccc152e66af4707e57adad32617dd55a846200009b565b6205a81f62022a608801357f0e8d34bd455ce3357f135ed1a94f9ae3059764838ee5e2f1b651bc7fd3d2edaf7f0426a2bfe1bc015cd89f4b53122f1699f491f0bc8c15b7e91934cc6e5217dc87846200009b565b6205a87362022a808801357f0461cc0fa7c1ef58fb88e2617664f5c486da373a36b3088e488e92258eaec2ca7f02a795ac9f9fb8b44f93df40226cf4d937f54dda1243951d0db7faac37d527ef846200009b565b6205a8c762022aa08801357f09a9c6687728a6ce827c5aaa28e18fd964598b1dcbe2cc509edbc72f7126680f7f176a6d1041989fb6017b6168967ceb6fb27405bbe9270080d20335675eebeebf846200009b565b6205a91b62022ac08801357f129f950f9a62d466d3ec028a1bad0baf936453a49c9d0e2901fc517478e1a2e17f0ae9200208e634b994c19efede7741cad9a41d0028ae8ad983649d1451e4fb90846200009b565b6205a96f62022ae08801357f2ded3c07cdbfbcc23d14096e32fa155a9cb1c99125b79dd721e910bc671b7bf17f1911aef37c2b5bd04ad0d2b95a99717b295c9ebabfbd56c044b6c91ad3cfb599846200009b565b6205a9c362022b008801357f1419d23245cff8ce58b87da6e642a94cf1189cb55234b82eb291be7b812594d97f14f14c962eda4a742c12fc91bd8b557dffdf1b3a0cbe3d20cf75a58eb504c8df846200009b565b6205aa1762022b208801357f092e2ab6d45f9ad8a24792a1c7daf275ae8929facaa50d536d0b77849d93df6e7f1a3ec7f16cf4c9cfd5aeeb5e292366f7f95071bc2df8e94535041d4d9d15ef80846200009b565b6205aa6b62022b408801357f03aa1c8a71144bbd19992dff085ebd152824307f3c112cab46e897ac4b0982157f2c25101b530c063bdfab63cf32851173aebb115cc2b806ca8cb1d6af157547a7846200009b565b6205aabf62022b608801357f074310916b0d113f9845b8f9326d458d1ccf278e3f05ab1f8a527f472beaf1297f11984f502b4d18e58453a9601a8e2a6f4c2fc36c85d56bf722edc8dbfd2d4548846200009b565b6205ab1362022b808801357f1958ad2ea12c5b49510dd6ab518ea0c861b4c615bf8d9fbbd3548e3768d0952d7f1d9135416200fb4a1fed13f99b4c0cdcd5a4ae3105d845cb1ad81c2caf1d2060846200009b565b6205ab6762022ba08801357f13a338ca00982e53d4f033a42491b807fc9a5ff0786dedeee6ab2801c95052a37f1456c63e5f303333fde7a8950ff8c3c172ab36e95ec4e4b65d95a413cc0c9c2a846200009b565b6205abbb62022bc08801357f1a2267ee7c4ca9ad7639a4577a88f674d7c04f19a10f143c0b586390893024847f209c12cc0cc0d94be242072938b4e72c4aa599867a1df618251584f57a89060c846200009b565b6205ac0f62022be08801357f04cf28e893bcc1716add4faf1a2e71bdba2f8427dd5529ef874ca2531395ef377f19b1b523f2f451362dade146d66e099a2b47be7b7d0175c1aeac8d8547e0c94e846200009b565b6205ac6362022c008801357f302441787dfbe69f4a7bfb28248ee4049eede8ac284bfe740f8c975af8ae7c097f1719583ef9d278f3320b2dcea55f6e8d0c139441d5539deee7abb710dd30ff4d846200009b565b6205acb762022c208801357f01ef194e261d166ab6059dd9eed54e2ea2d16db910afc8f7c12bc59efe0733837f2aa25be1e9eee9f4435bdcb1ffa409cc8a577ba37ab6c5e1de7b345ff08af516846200009b565b6205ad0b62022c408801357f25b8ca13b22fb568fbdb2c66c9efbe869dd8c46e47a6b047260073e94b0700f37f16ef646e234bd838f1f07dd1be182c6e739e09deb2f4b184b9e69f710e7627cf846200009b565b6205ad5f62022c608801357f084318181c36629a8c6ce838388a8196b72b7fc2c0de5a227dbd41bab51e1dba7f23890cee86ec18e9490e3780ec4517ba5b85f2f107645b681904d03bb70c0e57846200009b565b6205adb362022c808801357f1567b28f1f8207ed090f26da58dd94976f2a2ee9263ee010a63aea5eea917ae37f04d11f27eca5e41b576c0858dd2594e8cab87455a4d3cc5d01d895a62a91f472846200009b565b6205ae0762022ca08801357f2c33324e10aa3fb8616879223b20771d9f35772f3652ee2dfd78616c602ccd0d7f258cde4791f5ecce448805dadd16d446bc5e78775c03905a469f62dd317bb55a846200009b565b6205ae5b62022cc08801357f11de617e8ca44715e56da3f83df2a8a089480f4539314861a7c9d1a25ce6379d7f2660177554df46d8d08714df0b2c46b3b2d99cf2cfdb3c9b6273920bb8b66441846200009b565b6205aeaf62022ce08801357f1ec21f74ccffafef0782782b030b0350b1f6636da49d35fe8993f067bdb709d77f0e7f245acbbe997dcf219db31046504bfb7c152cdc831d5bbf378aef7b5517e5846200009b565b6205af0362022d008801357f1203fa01c7e3419ea05fc663b6365670923ffb25df1025f3f1dcbe9145fb6ec17f237a25d4d60f1ad5b39a6a0dcb08a5af91129ba2a7c4e288acac48a4d45904fc846200009b565b6205af5762022d208801357f15084cdf121aa056445d5e569fbcc237306fcc1586b58bf7cfbcb16c93a1ee217f15d6a0360bca86f02f7d428e89802f0e705a2ad896be680a009b135648d0fce8846200009b565b6205afab62022d408801357f2e7745b17eacabec9a527d07bb535d5041939f83ce374d10ab1eadf11b4922f87f1f91b98ab14f0bccc098340216ca4442f685054aba893d8c50c16ff0f287d30d846200009b565b6205afff62022d608801357f1616f47cd66efe2fa723ce56f59ba1ffb2e871f149696b58173c2fd643fb8f077f0e82475402a9c31014a5e5a462d474f0f83b7e6aa378a4077807f7ebf116deff846200009b565b6205b05362022d808801357f132df61db8636c78219b9a5e5f8f7b5ab8fb1aeafbda155dba4d0f07d6042fba7f0f28a668715bdff6b4d503446ba4457fafe8f744a6233cf3bb88c9dfb4516d32846200009b565b6205b0a762022da08801357f2ca2fb73b6bb3ba11f58cab28cd5a68f5bd4b25e2308686fcce4d2d1fa11763f7f12dcdb0533584e33fe71769a99b48edec0b511da996b2829238db816354e20a9846200009b565b6205b0fb62022dc08801357f0e3f0a5cae54d53dce01d3b76a0fea7cd94c7b659bed39a125e337431992d9f57f1224658c7e0d69e50b48745e2e8ff5d85df7775bc7647c67905835d09e8e1513846200009b565b6205b14f62022de08801357f26fda9bc572f38b2a4647a9b66224d1584e981fe0c1abbebb5781365aabb49ff7f1448f43a86a15b8d56e871a09fefa3a1264187899bf670dbae0adaed66c4e7ca846200009b565b6205b1a362022e008801357f249fc792f5a4987ec69e843d007cdee6e8d40ea5062a8a3321fa513a1fa1085e7f1660f29b3945f24809a60afce2c211f4a2a1cc871ff96a43220bc42b24bdf674846200009b565b6205b1f762022e208801357f036359263151e604134266871b8d5819887199e8dc481254713e3068ecdca5997f2c1614732cc759c48098bf21369366dcbd693e18efe984483d0baa73efabd029846200009b565b6205b24b62022e408801357f0156812321f4bb351cbb495eed9448c9f43f61718924e256cbbf76c3c1bedb957f30307ace3ac4905669565cb23b3fcb23f17443bcb97a8748674282c0a040a780846200009b565b6205b29f62022e608801357f2b2738d7509b020f661a77a0d93ec0594c14e092155325000d3753914d50c8c47f2616244be004388d94081268391665e329caba5f0cc50ac53a7f5fdc165d7e3a846200009b565b6205b2f362022e808801357f1003123a721e1f4d012b3e921670e0695c99527da738f3bb0b358cccc4d627f27f0648a05c7e95ee70e746b13a26a5b4dfcbe39bbf4116c154e3a8d8173a249f78846200009b565b6205b34762022ea08801357f28549b26c79e9974dd8a132efca1a95bd86c163390c3ee2c479714dc01aad82b7f0700cfea2ccd9bcbe3f80d1d7058a917a5972b8794c21f7aafaa5ec07a81e6f2846200009b565b6205b39b62022ec08801357f2c7adee7a888e2485be5fe7038bc0d0fda0c7f4caa692c0b1be50337b3eab1cc7f0e5f6cec659e1af36b95331a6c80f7c00e363872a6a034b2ecda436d09473414846200009b565b6205b3ef62022ee08801357f2bc5116302870c37d37c7817f54476f13ca6ab113e849f769c5b449e1d2632417f0d641acd14bfb501cf955358b9dbed0332ae2614af035f37e46fdd9cca6e05d0846200009b565b6205b44362022f008801357f2a85bb9987eeba0862e3fdc2d6bb344987e6670be4b121cd5fdd3f9631551dba7f22fc139f168a9ec967c98faa35a9819b3d61954064afa0868862382e25564ce2846200009b565b6205b49762022f208801357f14ca57b346f880c41a763e5dadc16a33e99bdff86914e9ed67edc6a5ce8c2ffc7f10a305a4d853db04281aacc8e484e4c818fc0cea28b94cbfd0dbb4ec976d1fd4846200009b565b6205b4eb62022f408801357f2485cc68fc5134d2ea79872409a2a9a57e20bbfd2ced09c50ae99af44cfc64d07f07043cc7819517b41f69e09a2b5437d47af6649479630c64a9ab87a034a409d6846200009b565b6205b53f62022f608801357f17210f89b590fc31d43b9e9f5d383b902c3420ccd690074c4d02c91419bc028b7f24799cab2803ec4ff301e338f584ff3203809301c8216bd1be824b53798173e1846200009b565b6205b59362022f808801357f09c90d32404357f6cf814ab1956d5c93b867a46c10905d8032002294925a291e7f09a1c4fc5880727593794f8d8df09efa7ee0f20f584ab3dd2f6f656d975b971d846200009b565b6205b5e762022fa08801357f14d593404e3fd958d586567af8c8cd5a7b059bdd73f2b86f40c44de32e26439f7f0ee7fe44492c81ed01d30c755192566ed78ddbc76d6016fcb0f28c804f80e79f846200009b565b6205b63b62022fc08801357f2e226f524df9685d5b8bad3f00f3cdf210c933475b9b8b7835ebc287440ed9ad7f1890abc3e507292870e9893112dd3c1ddab78188b956c98f843e3f92b1b5c0a9846200009b565b6205b68f62022fe08801357f2e466c40537e75be8c3c66bf991e4980b01ee9ab458cf1d8728648addf66a46f7f214e3e78d547db91c00501d0a9ae50dbe785b1119d6c935656b4cdd0ae86ec6c846200009b565b6205b6e3620230008801357f07cb039d0b9abda736ee8c0185a6144ac9a0cd850b87ba7d113e11934032b8a67f28394dc6fe12559a1a33eb30a7a12cb4534c28331e41ed0221926362f47fba5d846200009b565b6205b737620230208801357f22b0db05e46cdb44640762768bca8d4476705d8af265600a9c441698b13cb4ca7f0a0db0fea888e35fdb4cc92d51421a291c191a7ea9ac138547587fae8fec9b6e846200009b565b6205b78b620230408801357f2b1dbb597744f70c51ee8697717076d05edbaa0c4cabb358007191a4c236dd017f2d8d3a93810a47f0333281e983277873e902ad6a9f225eb66ed91616b57fee67846200009b565b6205b7df620230608801357f2f3f9e84552c5f84e3622f19d47d3b5958df3b46ade906817ee28f76c5e698f77f1ea7ac1e753153a14cf4c4ff24ac06122c3290e97284736c98883cf9e077c050846200009b565b6205b833620230808801357f18551445e5677555190af32ea88e83b7c64628ff492ebe129859f17c2c35e5c87f2aa9dc96b1cfebda58daebde99da9739b0f5c633881e523bad7032a5420a3e21846200009b565b6205b887620230a08801357f082552b2d5949188ffa1d9d95c90c9f3fec9afaa69c52ced2a2aae95e41ba9f07f1df3024b8c3d4be5e44d607d66a2ad5b1878f7d5f2e1744d0d98cba74145ad49846200009b565b6205b8db620230c08801357f018b6e974315b37e9290c37ce3118862b759d63299f238f7af173d9aa094d0d87f12c408c88bc72c5f37146c4c804f19b02f5b19fce564179b1643391dd5626b1b846200009b565b6205b92f620230e08801357f120d2cd4468b1a3649e1ebb19b13d25e9c7302d5bb692559fad015b8d83f27ad7f1637fbcf7667e621cb3005215f15baf6e34954b7745971a65d51021aa817e118846200009b565b6205b983620231008801357f2649f74f8c38a8f0909cf1d28b7568e98a8a1d2f35f12aba3ad0dc27cdd68f2d7f1710dd44e360848e874d2c2e288b6c653f44d12d87bd4f6fa17dd586f064ac2c846200009b565b6205b9d7620231208801357f0d8710fa1c1bb7eea4d21179fd5d4830da22dde1d284ed24514fcfaabf0435307f2826ac4c1f2d0e9901b615e13b1f97b996ff4bc2f41b760500e55e5b3615b52b846200009b565b6205ba2b620231408801357f0bf347eb35a6ae7382a4bb16cd2dcf156d1ece280a869da7c2da6f2b4126012e7f0a60a07c51e962d1732641e1854b2217877626b013e36d2d7c78d152d0fb8831846200009b565b6205ba7f620231608801357f2c70d32be731a8cd203119d00907bd743feb9e5f951df405545030ddee9701927f04863a0f3847d0e418506c1199452b19dc42ca0a2a04b078298fed947243c59b846200009b565b6205bad3620231808801357f21f4b3809426c558b41d8bd1b98cac3a0a7d253ef3c202d76387f00523772a827f0a0ab2f864f117b6b7b43cef4b401f4d68f7b41c6ed962c847264018f0b0ea79846200009b565b6205bb27620231a08801357f2470c0ed40a355cc7bd81d2b57b97f031ed0369696bc188f62a52d7dfe9ba3077f2148dcf3b2ea21f56d122dad08b6f44d995e3ed1d67e0d46b1707f322d911f7d846200009b565b6205bb7b620231c08801357f1a614c9c4779764c952e4c3ef0e51a6be620a0e3cbd0d7533576eee30a40de8d7f2aee926c9d1536b4ec967fe9c5b4cafb53f42549fdf6333fb6ba97a990ae09cd846200009b565b6205bbce620231e08801357f2d67b9c2cb4ffd6df5eed3f566a37c1bf15e47dc6d81fc1366415d078fc53cdb7ef97d83a186805b454e14d429335494bf2304bebac8fa1df3fd71fee3c9e238846200009b565b6205bc22620232008801357f2d1badba89be9ef974c82402bdd9dbcece3029eb8a87d8980ec1173bb41b365e7f281890bc6eff44461f247d4c23adba18c757b7d9b3392d2194cdbd9272f7da29846200009b565b6205bc76620232208801357f271be16457fd2c49cb2e802741914ed196d235eec35c420a900bb6de031200057f261b8dfb857a90d92ee6a4ace0f84ebfbded026f1aaf2ebdf5109e6d3f101bd2846200009b565b6205bcca620232408801357f0b54fb2085349db6081bd8d7fe4007938fcfedbd809a94e8e30dbbd0779b8c7f7f02edc75d9edc0cb7dc8b69785344d69f6e83560f12012ca9aec4793a8174eb55846200009b565b6205bd1e620232608801357f1cbc4dbdb4979a2494cfc53a024f679bea90fdef4d5dd923183e6d74bcc821e87f0ac23a98a4bc330c3b54bd1c76f06a1bbbee73dfb791d12966fee44119a50812846200009b565b6205bd72620232808801357f23576ae84b9341ae3a869264872225dcb5cc3be7b0e2326d721a4a64ef7c3e367f229d81f4b0df4d969c582532608169c2d2221bc8a2efb8dbdd853df310b8ef33846200009b565b6205bdc6620232a08801357f0707d69185099bf8b9df0f17f18d70572c24731bc498cced6c0769acdcb6a6017f1227c5ad7d4e40dd375e10370829ac651025348c2215cab539caa72ddc304383846200009b565b6205be1a620232c08801357f15d1c0813d624a4891c2e6bc90d23bcfcc499c7eb13944a61700585f4b415b687f03f69edbbbdea7bc86f057ebbb0bff05d0b3d30dbff2dd9b282cb56f6e9ad962846200009b565b6205be6e620232e08801357f2fa81f27d11632874f469b2b54be762cd622c45ac3032a8f75a6cfade14f5fb97f10c71f273fd7bc4940159fe00e716839270c593e7b1003ae4a25c548f5961e40846200009b565b6205bec2620233008801357f112f2ebae94bd10d7148a61a06caa66a3d0ed20d6871b00a5bfe3e69f81494dc7f207581511e5432627360b6d6544f25c7cf0021ee25835b79ac6d99a5fe50b8ac846200009b565b6205bf16620233208801357f11db0bc990f80bf67efd22032ad261b1f70988b8e4c1cfac162bd4a01ca4a9c27f0d852d7b1f65cc2b47b567ae021df02fe79e2cbd41c65043eda345b4af484bde846200009b565b6205bf6a620233408801357f212c89e43b01f45a7a58d4971f2622d352ba8d0be0ccadca2901a77e09b72cbf7f2cbe62d66255309321a185f8eea5684ab5dcdd186b311dd2eac1b1b8e19c31d7846200009b565b6205bfbe620233608801357f044d9264992745696531506abb7047de186741be5f8d34644d9063d3497384757f0aded3f98427ca55be3cec1b1be202c7aa9608daf400284eceb3ede1be2860b8846200009b565b6205c012620233808801357f1f261b6150f5ce080bc0a9c25e5fb28e549c1a87e6c06d8baa628fc17cde4d197f18ea120aaed459bc68099a2ef864e5ed0c6ab36e770c75d57d608d77b37df3b1846200009b565b6205c066620233a08801357f1f47fb1005b76ae8086fc5fd1240860d7306d7d5df42d03216de1391564c48677f19d3219d65fcf1c27e5e55878f8d4cb7eac22780e8dbff14785d3758f09fbdc2846200009b565b6205c0ba620233c08801357f21fc4c9873efd0b4cf5011e944fafb04589bc457384dc0ba69c9c4be8f0a6e3a7f200cfe56c47dbad80a31ba4f2cd1f011af2076a8e865c4624549aa4f1507a6c4846200009b565b6205c10e620233e08801357f207cf6019f617692c64432e023cc2d0a69b1b9a4886d11d56fdabfe7a2aaf9697f0495e5a9845819dbcb44d4df29b3be868402e875163db849356e0015436a75cd846200009b565b6205c162620234008801357f218cac79df145a1fc063fc3c9187e8abe78bc33dc9d47eaa83db004807525ea67f0da0c90412aa4695789a1334f616d4bee1cd60005047ebdf11e1651b4997bdc8846200009b565b6205c1b6620234208801357f121a20a8ec0b095b2566778f08e2c7da43a51ba7915be7c83f83b4e324acb74f7f0add3adcdcd0ba5d2e6b95917c38d40f86f71fbb02723e972eaa3908698e50fe846200009b565b6205c20a620234408801357f02bb3386edbbfff2d3ab3068ef2dd36426f77fc6e4a81c978a049bb084d139d37f2359394b74ce9674651baf7f7aa25be458607fa7bae0ee96e38d654e3dfd83a2846200009b565b6205c25e620234608801357f04a596edb81671fb646d542df404c6d0d4fb5cb30fd481f94637f3d1899cd2ed7f21a6a920115c7d5fd41c2e5cb58b37e2628249467626bf6bcf439503c7b765e5846200009b565b6205c2b2620234808801357f293bf81ffdc2ba8ab202daaae0c822a1196c5dc20083dca8ddd7e1b4c7fc03cf7f0fd777ca215162679a02bdf1c65573e25d0db472ded85cde60dceff7cd773d8d846200009b565b6205c306620234a08801357f04664c13cd15c413590ca83ac34b72eda631ba2febf16000bade0c21a3793fbf7f14373412444eb231c81bed7d9fdd3c12926cb73a0f3e4044cb398dc9a6e38adf846200009b565b6205c35a620234c08801357f1ee3facba32c1a1c74f068c00a3abed9b399b3c9a2984c0eedfa1a86bd9854f97f0fc24d51ad064b5c7a74b633dd3f9223c59ae62c9a34cd93ef92dc583e76c7e0846200009b565b6205c3ae620234e08801357f28fac66af33f3440c94de7deca4da003a9cae1ea41225ca0e1eed58b683c9e117f21f40ecec488cab2c6df036343fe5a2ae9b145330c1bdb70505891683c5ccf3e846200009b565b6205c402620235008801357f155ca815c46050d5229680182c414f583729605b431553e92f66879a531500ee7f068886a306f5e943287be63d1c3045ef468636b5459431a38f1f07759e1a2285846200009b565b6205c456620235208801357f1dbe5f8fe4ac2340a6da78eef77ef22b6c0858c025d954d53fd5f13260f1d3d07f16d4a58393cd89c32d132c9bf711f5b9af2af0cc2a568848f39e3841d6a11c9e846200009b565b6205c4aa620235408801357f27908d9ab0299a715e60dc2d7987aa00361313aa3180f983d58a869ed14a85bf7f1163855be446b4e4930f534fb926fa1fd583b184911ce768c5a5c34544ce4ecd846200009b565b6205c4fe620235608801357f21ff5213b26f92192d7a55687be44a3276b7f6bf965309e2679ee69a77aa540a7f11947240b500b8d0258a877762e14f79175bf111a529d7d3feec6e098a673390846200009b565b6205c552620235808801357f0d28c887cf51c531559623e38ae6f4427ba14c237154a5d04a2c502ce36e0d167f0f3e689d9053c5877a43fd9c0a9c38c126da5c642ab0b4039cb25d5b34db839d846200009b565b6205c5a5620235a08801357f1bf1ed2cde88b9f24c180f77bf0512bc52074b60e0720fda3eec7d008959548e7e5e0f133a1bdd70a616fb0b5cfe78dab364a4f6f05521c41f99b7bc16ce1b64846200009b565b6205c5f8620235c08801357f100b731b0e3ebf03afca4fba3da83685dababdd803c5a8a99b81cdc7d2229d187e1e65c4e123e25c52de083bf6f8dd926572786c4f2ca544fe44bb760460fce1846200009b565b6205c64c620235e08801357f19257c89661bc5791292affa320767cd96b4544fd9df8ac1ccb6aac63de125c37f2bd5ff2f04e67aa9b393e77c7fc46948629624e78856a60be1c389b2e698dd34846200009b565b6205c6a0620236008801357f28e2da5329f15dffa3d1b6c9c6fef01850ac3177fa2a22652f55ec2a6742e2277f18d614ce1d679cbf6976816c6e975cc950d81594ed48f902f4665aa6eacc771b846200009b565b6205c6f4620236208801357f248fc07158623cfe4a042a16067fb4bde061a524c4c061e9f37f44e8e8682f247f245e0e30be2554d184eb141e5084a13d9d427d75aeaa222434b22edbacad9823846200009b565b6205c748620236408801357f185d5ba179e28be0a313541a82ab6fb36861f0926af27cac50effc5ecf0e4e7e7f2abcb02cea92064f3e3c15d07747fec53319a418e14c55e71845a025fde64edd846200009b565b6205c79c620236608801357f1baa81e91acc51343fbf913ee290d4bfc44714cb35876cc9c27c24c26a27089b7f1f98d33efe2bca44ff18847969f19eb24e65f9a3efb33e98cb1f63af42fff42e846200009b565b6205c7f0620236808801357f105b044d1423017a17d404de80154a692709629d6df5a840d703c8307c73a1607f1578f20551ded8e5d419dcdb69b73e2d96f89da914c067b61317a36714abce4e846200009b565b6205c844620236a08801357f301adf02fa75e8e8643d796be80d871d56056a725150d8acd802959843be48197f183f3c0bae46a638d1ccd5461eccf36c861309d2b738b7bad613b4ba39af01e5846200009b565b6205c898620236c08801357f2f125545a855be23a1e00e0a0a982e5d3096ce3e28f617becf20c07b64668ef77f0bf4f4a3c48897cd26ec2ee847cd10b9be0131e70945a791fa72d0e776d4c47b846200009b565b6205c8eb620236e08801357f1f7babc76fede02bedfaffed0c6f59c8aeb7d0844047485ad560298b852fd2c37e9c29d2a6e3ddc5679bf118ee457d5e3d367fba4f789adff6f71084f92a592a846200009b565b6205c93f620237008801357f13f5d0d7f794ff126d730dd43e6a33b6a4886a5a4f3ae1035ff772f4bb4ae3647f01f4e8d2622f5119407292c2bb29f50afed0e6e106dc164c03a8b3c3d6daa06f846200009b565b6205c993620237208801357f2cbefeae855036bfdeba744172cb4bc2f3af79d173b5ad9f071b49459efb852e7f23062a652be3c0709935cd7199958a351527b843713b2966859b1526615dd1a6846200009b565b6205c9e7620237408801357f24e67fe8d3d448916b829eb64ed8c336a07a77a5fdcd9b4f3c96c12a38f7e29a7f301c2ed04914db8464fd61f85b1597aa7e2fb06dbe561541cc3febc30227a551846200009b565b6205ca3b620237608801357f0118056d024dfc16413e74fb71dc53eef7c5b448d173251b4d4d3b96849aeadf7f08c93f0af322a5aad977828960f4b0f5747b4a371e9dbf85b081426f6507821e846200009b565b6205ca8f620237808801357f05058c9f5d9e899481df0b56b94e2f24dbc051fba6ff149d7347dd11a9fde7677f12edd9197d4c70035a035460ff18817d3c428e275fbe47db1f7cac0b641043e9846200009b565b6205cae3620237a08801357f23e039455278d467eaea7cfb679e09596d2c9a40e101fcca06737fa6ae61decf7f11b77c2999bb1459ab743cade44724f59334a9be8656738d60aab5ff480c79a2846200009b565b6205cb37620237c08801357f15c48ffc6b2e6b8fee05ecf3a88213ea38a681e42f28e1297ea8c2e76e22e2707f2b191fe75571edc33c8169dedd62f4ae977cff3fcde5306f5f05a5f0cb47e66d846200009b565b6205cb8b620237e08801357f0be30031f63c1242f70c341b85f65eef9e3a92e733e64ea2c1824e9b3d76c4107f07d47ad276eea4b8e183f1ddec1836006fee886c5819be6a375f3f6d3833d0fe846200009b565b6205cbdf620238008801357f15e969b50176812655cb8986869ebcfaf994da0001b9d6530d6e8eb9c831c64a7f121986cef6e81c1207dc43585427b7c26455fe80090feac8efc80b595c075f21846200009b565b6205cc33620238208801357f03825dbd56c46d35c076290310c9488991d64b78e05b5c31514a654b06a02bc97f13f1781e483f43d8df66c134a9cd39b9559efd6078ff24e1c71c1ee94fd3162d846200009b565b6205cc87620238408801357f088520e2c8329da54b1550dae9e54a6b381047b8ffda3d9ca8bafb7215cab0ed7f1a0d1b001cc40fc00fed73859a0aa09edbc5bf720ea43b5f5a5da0363f5e00a0846200009b565b6205ccdb620238608801357f10b20c0d2a64cb4a15cb0fc118794aefd5dac5c5fceaede702cdaa9d76f2999e7f048bc13a79d610b36e34ee2acd1ab4f43e29f067236921ce881079f8d5d9fa83846200009b565b6205cd2f620238808801357f19cd5f521e1607c34f9f24c2da69720996ccf9cb188f409c3082fbaab09cda827f2c0fed26955cf9815de7e2ec5789d12fbacf78884936f27852e2788c43ae6eb9846200009b565b6205cd83620238a08801357f2cd80cb7686041fd4f2961910a3c604800ee46332c7e5a5234be0ec94fb5ef3b7f09c703af83630d9f42414811e2cc56fda569f16bed44051b888478951f3d8f39846200009b565b6205cdd7620238c08801357f0707a399f42a08a87ab38aa00c07a1f3d92810e7d57430842814e896ba5ce1c57f145cbd3ac129b4c26ea61115998f09d357635ea77eefe23ab44e5f909bf7630e846200009b565b6205ce2b620238e08801357f1418e9aa0f33c017a57e2009c62284ac905f735821511f45c3ea586b73c74a627f0c53168de1417a60bd5d08d9dfda1f3c87b7e9e68ebd3d52aff95f81e719b2cd846200009b565b6205ce7f620239008801357f20cf11017dfca57cabece42b090f5462b4cdbc9f1b5aff29ed6429430e587b737f2c3c5957ff913aec4bfdd8f94cdd919b2415189423de65181ffd5f33f1fb77e8846200009b565b6205ced3620239208801357f24390c746f15654b2a9cc77839cba8d5aed1911bf162348df1d5dc3ae118a6117f02c543876abe40a8fb9d9cda8f8010298be5ce13acfcf227f09a9c653e5de689846200009b565b6205cf27620239408801357f01cd5fb7cdcfe0b16518ae35ab1ea70d0b0e744f77b9c75dcef8d28274f3b3177f1e99c2e509e41554eea313f1abd1c953b8725f0776ab16bf09464f8e94393a15846200009b565b6205cf7b620239608801357f130e92c62980d2503153c6140790232a73299d82e65a972f942289f316f4569e7f16a4572234d0d69644fe02cf182daddd6d655b860272f4868d03ea0ee0ee65dc846200009b565b6205cfcf620239808801357f28576f24cab98634f0a773766cd2dea6ffaa252e381243b61c0362f6ce07228f7f0e47bbcd1e29cfe6d54d24f2cc97d4c01f5e41a32da585b2037cf21ad0f478a7846200009b565b6205d023620239a08801357f23f33280c9d1f62b2be48bb3f05359b44204421c85227356a9d6c714c6f080ea7f03fe94f3eaffd8668996c65cb41003a87cad726150d706027bddede95cf0f42f846200009b565b6205d077620239c08801357f2c874dd1d45f41a90998470835f871c9ceec0c6bb333251061bcc4fe3013494e7f14b59c3643240d0762b6c2da4fec866bbf994cbb16d22ab745a2de28ff61efb1846200009b565b6205d0cb620239e08801357f10df7898f2d564a9cb5a6fbaa6c2b89a311a13a90c8492019f70f7f1fb8209c67f0e990036b50b68b0110916cde4db249b11bb020e59ab5d072f36d0c81ac6b358846200009b565b6205d11e62023a008801357f1487407808d36fa31339f7d15ab14d21279b4d268de38b6ea3eb35d988deb38a7eb2626931e15e7220a049231cb28ab6783d3560867465ec18d2f9a7ff6cf8ae846200009b565b6205d17262023a208801357f07487f4c2eb0fb8d8274eb82a265e4caeef14e8bf36f84fbde5261c97b3e8e4d7f07e2b733c2f4f328082d941779357c26bfba9d16faf6eafd78a167f736fb2a74846200009b565b6205d1c662023a408801357f1b8587de9d0efecb941f6e09d22a1c349dffc1c9634a9adbade5464039ffa9e77f1e3816a8814991b32ee8580ad2f6716af08c7ba1334a0e99c6c7545f9c9ac034846200009b565b6205d21a62023a608801357f106611149a56b1649e0c16df1835fec57029322bdcfb7b1732064c162604886c7f01364fb23e79ab9ed6aac9db189adf73a5f4a8232cd7f2bd661c1a865f7d3722846200009b565b6205d26e62023a808801357f2db75672b707d8c70c540490017b8eaff21760483ee6d0954c7627e3f5eecb687f2bea9f602f15884c15467e08d85b2ace8493238ba5fd913e41bb87bebd9c843a846200009b565b6205d2c262023aa08801357f276f2675e70200ae8f46d89d987e254cf9e0ddd601171695fd6644d2f0076a2d7f0dc1e45a221f3f8ef8004c16a6ba649ddc167e6e9e556fa5e210b9a12c624b3b846200009b565b6205d31662023ac08801357f276a5a8286d1135bda7d9ccfd0b73854d100f21a332e31613ad2ede39c6ca8bd7f07c9808b47a31d5236ff22178fa60b790e1ed6e990ace94b28ce26770021cc80846200009b565b6205d36a62023ae08801357f1a442cd085d4e11e8a09c1a67e0134280bda9abe80c704bc701d8e49acc7e2ba7f1889f1fb9d564632884904aa2cfd9461fbbe46462bb1154bc8a995f25f866524846200009b565b6205d3be62023b008801357f245664b528e10d17c836c10a3441586c294c433887a057860cb57e785c9057987f1eb7474c97c82115c03a85f252ff08fa8a60aaf3ba7e4aabde93bd68fc06301f846200009b565b6205d41162023b208801357e67491753174b59a334ab4674dad3a192ccc365b8ba55b2b6c23fe71721009a7f19f37bc77c7fc4cbb98f91f9ea6f902a198b55958ada7b1202835f0371166025846200009b565b6205d46462023b408801357f1017dd60ee74f7cadf380aedf924448c5880283f6520c8801256082aee78a4e17efb66dea47d4282d8d162e905644bf280de38a7a21165185416bebb05f5daa8846200009b565b6205d4b862023b608801357f29b227d5654e491fba22e1cb62df97130f64273e775e806678b05687a74d22647f1e6ffeba4a1eca9ba1b5a95ab5f3336293587283342d7194349614168ed5c57f846200009b565b6205d50c62023b808801357f062cc81fa9f82d31100b2e84e6b9e9f6dcdec25bc5d461642b64fbc344ecd3827f0f7f4782a2c0cb11c34c3336c7a525376b76f07299f48d007da8897f6f8eabbd846200009b565b6205d56062023ba08801357f1a0be659ca07f6145fda3f28217701ce04faf97f1bd7740414f3170a5aee7f237f261cba65efc09893518a1a66f5f45d13d52e90aca8178ef92ead1eb9330b6617846200009b565b6205d5b462023bc08801357f2ec61b62fe5bfd960d09a3563add02f426b08f78babf0b8bd442662046d617417f0bfbae0dca8118d515525427d024ae0e179d5ec7707abfdb61ee583c9fb54e4b846200009b565b6205d60862023be08801357f05fc8a8d7d2037239ea7a24cea11d5725d561f0c0508a35cdd73cb44b5b9d96e7f27487ca672a23592b32448378527f668398e05dd22cc2b4e5e09e6ffb1c42788846200009b565b6205d65c62023c008801357f18a7f961ed570ad814a4f5a7003a3ea9b6571e585924f669aada0eb59ccc214e7f0eb0105f7b64035c49812fdbc3435db4ee4caabbb4b93c441610673587761aee846200009b565b6205d6b062023c208801357f0b2535487c8ce6936dc700c163dcc539f6abd6ec9bb60151e9a4bdb689d369f97f26734e28f2570a3cb898586a0eae4778e1866cce55feaeeb3684dadc76d52592846200009b565b6205d70462023c408801357f18ccfa54b23a17cbb44ca3bdec4e16cfce3a4c0c450321c5c876f0f53d41ecc87f0c89ad8ecc0285f43bfc5d81c6c43bcce6b61e1bbc44e080812e2203b3fa4839846200009b565b6205d75862023c608801357f1f2d58135150c641efe20cc6124b88ced0ec4e4df63900335b3c4e5ed6b851297f1d42b82e81bc169bc2afae5b7b1d8105902fe63382d3f1b034a050a92cddde77846200009b565b6205d7ac62023c808801357f2d7af2778315ce29e5c6dfe6b9965b41044696851ccbb14df8e4d20cb27f3f197f2c332e18959ea8ea6b6708e5e7159b88284be3a8c7d1f6dc209c9fdd80bd47f3846200009b565b6205d80062023ca08801357f046e9a59855175db8642e734af35c6a5f078c8ab397ef5a9a9992c8aba6146477f0c4ddb3b1bdbfe65f730a5388b7e4523a1736ea58ba14fd40006d9894c89f455846200009b565b6205d85462023cc08801357f2e49b840039721db4393de4af8bfe85d27c70b0ea074721cebc8316f6eeba28b7f18acc173b99698fb906d88e6342298311a63badff8326a8953d276a044f5ab3a846200009b565b6205d8a862023ce08801357f2ae80c9958f35eb9fb6130c0f2bff7e5e09f879751b0ad223780509e1d45a2347f0966252f9ef4082802f765ebb452493ca036f8dfbee40283ef0df71055a9c797846200009b565b6205d8fc62023d008801357f14ddd573bfd33e7ada969b66d252711ad60c3a9237eeaabb62f404fcd7d7f4b77f2c4d91e0b89e7cd9aaf9b37505765e93c43d31f9d7daa55021b1cdde976fcc2d846200009b565b6205d95062023d208801357f117773fef0429182fa7c371303b87c06aadfb755b1cf0900731fef25334d3b957f2e62db8d785096824d80144d3726454054daa77939ccdcb0019f6c592f30757f846200009b565b6205d9a462023d408801357f1388e3db3bcf49d16efc7188bac15f7f7e4ac3460100d392d9c8eb6d5d6f5cf67f217f40738aa226480999bd25cbac789301dd3e2c12aee358eb0cd76d5f4133d8846200009b565b6205d9f862023d608801357f27b35d4d3dc6e466d8af47200a479f1f53cfc99f972b77da6d02ed818bd45f997f14b231b119edc20c9fc2e3952ff59b1c3e907941e64635bb67bf8f4ed70b4e1e846200009b565b6205da4c62023d808801357f0cf19ef806582e56728666a607eb92d8ef8c97467431a642e6f14b449fbd32787f03121e8d24e78ad1ca8e753551cb8506e189839e6f5a64ed2d953d736d5fd2a2846200009b565b6205daa062023da08801357f170d5bfa4c632543fa9e2f2b23c02d03d69540ff9f782083c57ca265fdd3d6357f09436c3ddcd4f38fb2430912e7d784066c93ab398a550c1843f43b69f58f2b86846200009b565b6205daf462023dc08801357f0746f05b9483067e03f664c98b4ab1c5eeaaf34d0f3a964e9a4c114ea75b17797f0d2b4e8daf3bcf78c8677b08878f26ee31262be6b2658d89422d20ff9105af41846200009b565b6205db4862023de08801357f2eb6c8c7af2ce80482d19ecb2015fdcd5856c4c2f575881e54672aa7be9d96d67f26070c9a2556865e44c2802bff9206d1047633a8366eb5c168a6139ce4c76dda846200009b565b6205db9c62023e008801357f28cbd52729e308c246ee70ab7b87482cfcdd1650225487944d6ab97581323a997f2abad0356ecabee383cca3afd0fa494de0349a58bf7616d9605eb114adbe118d846200009b565b6205dbf062023e208801357f1689b8254f982a408b93abc866369b92a5cdafd174449a74de0d5b8c77d27fe37f13bdd2f177911c24604529496a1e49a8ec07ce524041702a931c8e21fb1314c5846200009b565b6205dc4462023e408801357f304580a8b20c8649f70e34c0cfd9180637dd79369c70191a710988cf9b0526e97f10c0767c608c6737d15489036bb3a53f8878cfa0463da0d00205aa331298b2b8846200009b565b6205dc9862023e608801357f2dd19f2a292cc8d1563ebd1258646e0b51264640f8a3d2088ff81c17c29c76f57f1ee6c7466b2ad8aac4cf6a994c11ddb0ed2f6072a3bb14d44ffb6d0d863c7b0c846200009b565b6205dcec62023e808801357f27252c6ca90cc45544d4e9307447e803c983056a92cd93d47c6d64d756fdfb127f2fd60428f44153a228cc5d0709a5c12cc53c3e7892f79427986b1a916f406144846200009b565b6205dd4062023ea08801357f09ddf287e2281616ba7c423bb9d092563d73c164c585a2ea91c5e3a184b76f737f14e8012d5abc2f6eaa14c40343e1d064110af49781cbd1fb8953605193b636bb846200009b565b6205dd9462023ec08801357f0ddd0487df26cea6f6e2828a336ad0019d453f3677897cf5f384dbd0316082f47f302fb4b5c5a9107e01250e4d2dec1d5a46e3f4c57836b4f0567ed63866372047846200009b565b6205dde862023ee08801357f2320c793f824c82fbfa41a9b40f8bbe443a01eeb9725caaccedb9b0b4df2ed787f2c0ad686b3cadb64c6f94df6881096199857fa6116d51cb1d9ffaa4f0aa995e7846200009b565b6205de3c62023f008801357f1050d4f078f1004436e2d41628ab9523242aa9343e93ae5ae72c4904a70ea8ea7f0406bdc7e1414ffeaa022f2d0cf5e4b60c59720dbca75ddb9c9969cc840e0c57846200009b565b6205de9062023f208801357f2f071d235b4c352881c917f91d79fc301c2f204f3da6316feb1bd995b2a2bb267f0629f2f76fc232f33cce2ba85c5334fcefd03e3a10e03caa1f0447a0cbf4ea79846200009b565b6205dee462023f408801357f01410de29050863fe0d36098d2e908a06edab908e2b53e6e61814e204397638f7f2d792a82d5c18501ec67bedb4d54bf90c88895fd140919ac7e6da3866419bea8846200009b565b6205df3862023f608801357f11367e76bb5236c05b7a10321b31dbc4e8f66a25336ced5d52c6f234403072887f0339bd4e0f40cde3601fc0734158c8759b978846dcb30074762a7dad8701f3df846200009b565b6205df8b62023f808801357f2be48065f64e17cff4dd31bc8e1c77658af901512d30eb816b0d21dcd8fcc8667ebaff6f483122ca31609dae9b25bd67f1a0eadcbef44a680f0196b6151a2524846200009b565b6205dfdf62023fa08801357f0bdb769057733ee7e704d9a4d12e546b3f8ac22eb18a49101cad8151ba7730647f29c1986dc5a017a6cb7e452300be8c987d7d8a42d073547221f285b46fd9cda9846200009b565b6205e03262023fc08801357f217e711503d55633c187855a38c1eca726f2adec9f4a83f8d09802e8b2cdf4627ef6e1576815bab853ba1b9c85779fd383ac8dfe6f2f62bfb3f8ff15c5c030b8846200009b565b6205e08662023fe08801357f14b836c76041bfb0d0f450c5c192589af289fcecc01fd1556b3e2934f716d2b77f0d978820127c7f5bde1b2307b4a5b9439ad7e23dd7f572a5144edd5508f23e2e846200009b565b6205e0da620240008801357f21acab0113f5fc9e8eb83215919e5d4f7cbdb12893328d375a13bbc1ceec53f47f13d1b79abfc318a8344ac90481696af5327d7956c0fbbc8a82313f82347ac619846200009b565b6205e12d620240208801357f2f5705ff2cda6387bf9101c9fd9a2bf5e5b25cd25732373960731733ab4a3f467e9bf7e645985a4bef33f0005d700d7ac15366b7845c1bca191dd48273f2829c846200009b565b6205e180620240408801357e5be0824c4ff97b9febb599ebfd0a6c737faa91a1d0f4a754df3a94350da0497f24297abd937ae28e902093ff32881aa5b68c925e3381a0c0d7de3036e773b647846200009b565b6205e1d4620240608801357f2efed988d98213dc74dde51cb5c810debc74c9e9dc13104dfb393d16e54173dc7f0353d27363e1746a4582eed48a06c00f5e41e393d5b7f7f8be44f47444171547846200009b565b6205e228620240808801357f13b1caf8ec4969962165c7d6f0c19772c72b99878ab01a0fdfb36b8610508ad67f1e7ced8f74fe23797724786fdfe4735a9dcca134a2c8e5f1c683f1c870005875846200009b565b6205e27c620240a08801357f2c05da2c704d3d9d4e6d945852fe8e5b8cc186c1da1f3a5923d363d5d21598cf7f02d45a67a5163a89335a59d2be6039f022ceed9ae74dc351fd933939bb925730846200009b565b6205e2d0620240c08801357f15e25cbd47271544862f4ee7b465faf9534b89cb2663e7a6d65e96df186592ea7f21510cab31d0e159d210472e1d3810a82021c25db89a8175156ee4ed1582c588846200009b565b6205e324620240e08801357f2ee3ea85c2f2ce967da856aff5a21b413fc82fde06e8c96e145c5e59b5be00b97f27c317f751d52a23f79e739960e539f3029ff4397eeebf984cc23ac569a97b4c846200009b565b6205e378620241008801357f1acfec917731ec46eac5a47c06cd2e7ee95b801113d0c412bf2b391ffde51bfa7f17ff008b0056f1e42b65f8d23904995445a4d87552050b023b3238f7936db971846200009b565b6205e3cc620241208801357f0cad6a2953b5d34043fea58f1b0516115ec6ddb3c158d6f305aa27693e2a3c2c7f18c7b86bedbbc42cfe0f61533604d9fabb66dd5f4b3e111d27a2982c3845f4b6846200009b565b6205e420620241408801357f1adfd490d069a4efbc4a94b4ca1387c66aaa601dbb33618a39ec947679d0a5d47f1996817b14c3e2a95c2a24ea844d536111de918bbe2c0bd83dc4421507219a79846200009b565b6205e474620241608801357f0996523e81cea9f4d4716030a99a6539a8a1734d36befdb3af1dd3380d1980817f221c7c9d4e372208fadd0c71c4609dfa205c83d97af264a4bd919d71953dde58846200009b565b6205e4c8620241808801357f23e1f77cc9a226f3013ae888219c60f8f618b4187f11add8691c6ae82580598e7f0551795b19e93aa0c0f3a1db1a36c837326816f5f224fddddfb0eb0cce77cc82846200009b565b6205e51c620241a08801357f0dd368f5eb729f7e33069c66f9ea8d4f633c3339575cf53aefc5343644f2d6637f0185a16454977e4923fba6238246489e6b905ac8969ba9e55b6151db7d348470846200009b565b6205e56f620241c08801357ecaa2ba2d3188ba90f2ab6186675f152d7f83045454b2629ebd4dc7ffdf15a17f2c90a7032602883b4e99244c5564b86076aea31ce9c7330237b51f8bca934053846200009b565b6205e5c3620241e08801357f06152bbdc191f0582f49dfc18fcf36998b8306d2b6803981ebb44b5fcddb9c247f01f5cc403306229b66337f4b26b8acccab731b20461f72ece09467ff805ab0a3846200009b565b6205e617620242008801357f1fd5f82c624bb6e46d891cf453d83ead475cfe152d058e10273b5a748e560e727f0df49272639e82fb97aa5c21b2a868f72f9dc189e4acf61977a531c4d06aa54a846200009b565b6205e66b620242208801357f1bdaf50b97f5f928b3d5c5b90de1c781faf557f3c8783e95a0d2ae9c3c45db7e7f265b1911eab79cadbafa201e573dd3db5caa90decfd7baf16b8bfe8fdf7246cd846200009b565b6205e6bf620242408801357f19953e3dfa291d820617a9fba28cd3bf8ab3f8ae9ca1983b8a45a4073de7885b7f1d6f86ec7504fadfaf252f8f8cc0a3839ae96cb1d3428c66328ab5f0e7ba0dd5846200009b565b6205e713620242608801357f079d1c093cd19e29e047c17a3264a2375e9a111df6955c5f1d015d17d2749c897f1aeb4646a56a8504cc88869d535021ac4aec7bf9a5fe64c5fb51ec7c5fa687d1846200009b565b6205e767620242808801357f1f6fd8d11452c4020133cf394c6bbd749b28b54d1c1c3e095fca20d7beb8c9bc7f1d7a38f04a9bc0cdbbdb7713f999a333873bed6464e0b3a04cd9a0eafde16dab846200009b565b6205e7bb620242a08801357f184c92a21840f87141e624aeda7727e13b320d35eab4ede37c7280b18adde8797f01c4b764c898af3159d4398820608f3dbcf94f4bffaceb7fdfe9432ac40e2bc2846200009b565b6205e80f620242c08801357f1ffcb6297c816fb691bc79af0b23a96503b2c83cd92624c8ed8cf7e1ec39410f7f091f4615d066d41d5b8d2f8e74622f04ef8158ed8c26c0dcdb291d50c4449d6d846200009b565b6205e863620242e08801357f2b71f89356b57d4bba3760161e15d8b6e22a77d1977033ea369532d33a325a947f2693aac19cb734cb213e7ba28e44bbc2b4bee16b5b1ce800b9a710a6cb6a819c846200009b565b6205e8b7620243008801357f180bd8f2808e8c4a9c540e860b2e3a14b358943b266fef783706e1f064e758497f0822d6918d15c94ae1e335da72d6c941dfb97a2854f80c97ae26617a16c2b931846200009b565b6205e90b620243208801357f0bee3c73e54a9c5e87b31ce1c038718b667c10dd4eeeea475ef09ff5665202967f07bf4873308ac4273da49ce127f7e435083015d3dc5bff0523ac5ffd36149919846200009b565b6205e95f620243408801357f0a6fa4ce81e45b5fac935f0da0800fbae9e658b7b7a4630e08c135c132bb349f7f2f75307a03a6fc6a089b055355857f445881d8300580e04b6488506db71cda7e846200009b565b6205e9b3620243608801357f187c3ccefb4156811e83e9a485a64db5bf01dd8324c57bc94645989b2e02695f7f01d418948e91e995dfcca12cf0efd7e9c1821f12f8466480a8ee9e00b9d8b693846200009b565b6205ea07620243808801357f0e19530a9db31b28849a3340743dcb82d25e1113253d3d30e2b4e8a8a20788597f2ad73f75fef6ca350e232f87c6a7512bbe09d54c06a83502c9588d17892bad3e846200009b565b6205ea5b620243a08801357f0af4212d9578496f20d902d4d022eaf7d7ff4d7187b8cd42f2a45a179e02b5237f072f4d9bb80ab5f230a31006044ed2805d8ae3926bcf9a8a7ffb46b4fbd5464d846200009b565b6205eaaf620243c08801357f26e6b69f882ff8bed4e45c3590eb39a3839e4b0f3b9eb6d569cb2f4c96f87b4c7f19dd2d2b8e8404a9918ab41f5efa1b4ec8f631d93c0116a8121824e0865641b6846200009b565b6205eb03620243e08801357f1d4ea2d1bdfbbe1e4ae68052b1d73ef6482d66ee5e45f923ed98cc38d79263967f19e1b9f331ec07db546645e54c4a637848ce204cfee72b666a82653a1c30daf6846200009b565b6205eb57620244008801357f10391364f0b1eb7949d65e6c4d1d159b74838769131a7799748239c54806f4667f1bb8429f5bc5a55ddf0e5a906b9b57bd0c4d4606dec3cdb984202371b22e913b846200009b565b6205ebab620244208801357f28e95a0b6343831bbe857a40cbdeb6a0253f8499db67c970d6794224b53ed3157f05b278eb380358cfc0b1c4a26157ccac77de19922f607be83eabcdeffbbdf127846200009b565b6205ebff620244408801357f264907f086315a263e7a4e29aac871a004f80f8716320d0aff19bfd694c535ed7f01958c7deafbc9cb296a936cb2acfc4bc0ae595a6da1c21f1f9cfb1083903e18846200009b565b6205ec53620244608801357f239554d8d411707b934322678a7a0a40e057283a007a694a115e8acc119708097f05bf1037c0b825dc75ee504497e3c3c740fa21252e7d5ab267250a8ee9a59041846200009b565b6205eca7620244808801357f0a455dff6e70469c10221629a1b61cf03c3c2f2c2eb5ed6b0011706aeebbf23d7f1c73c010812b783ba35a0e87dd6f7927dedbfc99e51995258116e7e0ce11cb08846200009b565b6205ecfb620244a08801357f23d757303a38e16a585a9bb3055ab862f5c083982e33d4ee39289fad1839085f7f1f7c0d4f559e4909376d132e514b58fcf879ba06f6a373bf11fc9a099f22bc4f846200009b565b6205ed4f620244c08801357f0c3c9a1cda52dcbe65d575ebed8abd2a8505e6d80e0938729ef9b4fcacc59c0d7f038382ce011f82cbc97af0e0882820f0452461330cc83e237b1d35e331f02a1e846200009b565b6205eda3620244e08801357f23626aed4fd0962864e1faa055360b13839e9678f23c566194382a106c0b16607f082fc5b21e5e5d6676121d9af1942fee9102aad7b07748694e1d462a0e88740e846200009b565b6205edf7620245008801357f20323864bd961ecbbb37d637a6b13056001bfb0489348242dd4136655e7ce6a57f1aca5093c0fb2d7686bd0882b5bdb58e5d6e70597d1fe2e55dc7b88e48bcbd26846200009b565b6205ee4b620245208801357f06af770a701dcbf81b9ca593bdab4b4e3332d3d12bc84a0eb54e69eb851dea967f13c4e8ca4bf73796613a4c1aeaa88aa8b07d87b84e5ea9c79e4097f74e5295db846200009b565b6205ee9f620245408801357f24f05ceec9ca68d2d1ad0d3613a4660d465bcba1f72d576a90e39cae0dcf756b7f135dd3bb71b9080eb059aee5207174df4b088e1c809dd6b5d598628fc3615ed1846200009b565b6205eef3620245608801357f06dc1f4e836de977d65b6d5a6b9db8d6579d40b26148cfe61d21407253167cab7f1ec5768eca1c6a997b83dbd1852d0dd0d339c7cb024e6cbc601e47eea7572d09846200009b565b6205ef47620245808801357f01b977fbc0a62e26737d41d7b5fd788453f6b44b614c3d23766fc6f6a0dd1de67f096d474a8aa6989e2fa94ae9e3052fc4ea6f9e68f144cef94368eba18b92e9e3846200009b565b6205ef9b620245a08801357f01f38bfdb8a057585e856f015d6947232acd8655a6d8d25fadd8bbde823273c77f2a53dcfbc6f68df75ce9e1188b56c63c1ab0b13a3e12c1810f614f41aa398f08846200009b565b6205efef620245c08801357f1fab434c389b72a7bfc6857e94cbd9da7b860735ee6cb2190dea04de4091c9f57f01074ecb6b9221a6fb04757e6afe96e1a8dffdb963e4320eef5846c6ce21a4fd846200009b565b6205f043620245e08801357f245839e259e44f96f025cf74b191bd6efc6fbafc3c6c6212e234c887bf1d79967f14bd2ec4c2cd0334db7619ee643f21fe48af9b3dfffd919f1fc05e8f7088cfd5846200009b565b6205f097620246008801357f0571306211500f317afb41dba54a95c98c8aa4735e34a41b60e03b34a2532a827f2c82a1d2eacdb11faa2dacdab723604c323cc7344e3a46cfac4ed9f2ecafd341846200009b565b6205f0eb620246208801357f0121cc2a6d56ece51c7495ca33f33d4538f24ec5e784b46d4101272ab9e817417f277e6f9cd4d5c088bf182ab810fda270b1dcee16c91e662b52ed0635587a7858846200009b565b6205f13f620246408801357f25ad1fbbd11754d8effdb2d7d91461c2603642c02c5c9762adaca91aea490e0d7f0e4a9ac5221ee2df78054e5b50a9adf0f4f2bc6a72a01e5e148b9252c9918e5e846200009b565b6205f193620246608801357f0e5de718a1301bd530f03a74ab0007e68ad3a09b51be0e7a17a2964c8ca30f077f0ba37ac61dd0d39a02a64778217113c60b914d1d3b360987aede6b0da78ff92a846200009b565b6205f1e7620246808801357f1e30ad38ad5984ad6d28d1376c79e36435ec367be66879b0a24a5dea0285f2397f0486a0e15e2124f08d01a5176c4d86f2019f83c0a99651cad4f4033588931b4b846200009b565b6205f23b620246a08801357f0c22a9b1a2a42e1b9f419ebed4abe4fa606f608101e791f87be8ee6ce36d68727f1e63d5f7b532c9e301779007bedce3cb80138d88cf4753a5a05b72fd6117e95b846200009b565b6205f28f620246c08801357f18bd46c0d18f563c90169cb091117d8d0d303bf3b635c1c703756cbc7d7be4767f2f60aab1f42b95b9d22991d58ec57f0128b7633115f6a8695aa2d33b530d3f59846200009b565b6205f2e3620246e08801357f1e4fa755c02533931bf84e998c48c3e0b7eca08dfa0949599acba537f790f9957f05fe1c71c5255cc0a223e62f3014b08a733d2e81a59e93450418ac4420f77d05846200009b565b6205f337620247008801357f1e1f858278b900ee18cf6b596269088ffbcb2efbba944ab0209eed1fcf5c58b37f26d4a78b6e974ff96009c20ec86dfd31a7275b012c24c685575640ad73bd1588846200009b565b6205f38b620247208801357f07210ef5bbf176cb795782dec7aa94057ef811e9035bd0cd464dffdc8d748f7a7f19de9565c27aef635144ce82ef956218944ba098ce9630f7c041f969d70667d3846200009b565b6205f3df620247408801357f20b546675683c30815a18aaee8892c73c41edf1e48c648fa71261140d23169327f0985fa8bc769143274cb9f1b3be008d6f9a6138abfccc8ae9e46a0ba5185ce31846200009b565b6205f433620247608801357f2fef328fa45ecb50137d9cbcf8063aa916ba5cd58987d39ef06a39c443534f347f0b801836411a1d856af1f85f02d4fa678e55e6209c1416d1a420c3576d8c15cb846200009b565b6205f487620247808801357f29e0c07b250669303ca14a144a8894b4dee818424dece4ab272a7dbe0d680f7d7f12e377019a62c84d01c16edd32916fc1cf93d3fd827dbd845686cadfb8cb8212846200009b565b6205f4db620247a08801357f1c2d93ffa0986e510e5962b09cddf937b0bbb2b54432d5fdc34bd5e94710f0797f23f181bd00c463d10153ef54f7e0ec646e337781ae920826c8cb29aca3768b7f846200009b565b6205f52f620247c08801357f1caee19b250d8b077a0676fb005ab61c3a8446ee0ba5b714f0c4b9baa81bc4d17f12b900419a55683c0fde27de9abc48e45b7412b4db64fb74bbb850a5bb76d5d7846200009b565b6205f583620247e08801357f2f941711fcb93c1a8592ffedc9c5cfd969c71147618f2a65e57c11df370ccab67f1d5adedc18853f7e822538228faa195483d04cd340a6c87db24be274cf3de522846200009b565b6205f5d7620248008801357f074b66a52ff10a12d5bffff2643cf382c0770e21b8cf1065b3c56da66a0cf7017f2cda8191128a9bf69f980b298368ba03c82736d28ba008972828cd7115f596c0846200009b565b6205f62b620248208801357f2f8a82fc09fea9f9e27ba527ec8cc1dc52806e8179f1181585792a6473c38c937f12cd3acd502022f1218436eee6fdcefadae37646ded90ba28dcafcf38f52c21a846200009b565b6205f67f620248408801357f1bf51accbc6a5970c37ae67411597b6d86b6388c7492c431f4af1f2e7e00e7307f0ce8b4d6d4258fc5c2023c9096c72a2a7cfccfda47410fa3acd0ca3d6b33abe9846200009b565b6205f6d3620248608801357f0648ae4b1b56ec030b436c825a01e063d44998ff9d89c21e869c2483d9823c6c7f05f9d7df2c6c4d0a5416131085d22bcc10bf6c023fff04542e76a32da2795890846200009b565b6205f727620248808801357f2d1e3235db399b27f6e49636baf14c870dcd0bdccd8e4b7e33b8256cc94f60f17f2f3d2233b97b22d00634fbe13e24e3f29860b0d8221cbd1b892fbb8a089dba46846200009b565b6205f77b620248a08801357f159662a2d24b90cf50e67e93254a281d9beead5e3651e2cf6659d296a16fc7dc7f2c7aeb0c49f1766c849eb465c3c7b01ed45afc7d493123782e0582f9d09492ab846200009b565b6205f7cf620248c08801357f2b2b7a48f500355b5fec445ba67de481c0c8ee87ea5bf7e945c6d09e8ff2255f7f28c37bb5534b24ca57b0cedf99681148e9b381eeddba47a42e521b2ad80ce351846200009b565b6205f823620248e08801357f2aa24a6190cec3283e935df72edddd0c5376f72b39bf9974152384fd4447916a7f0d8518d853d072dbb5bb407a031c91f97dfc9cce15f4778a1c89e5283b5304dd846200009b565b6205f877620249008801357f212d09a5aeecd3441f161f510ead1f1671f3c35ca68ba9fb4653b7a1d377f16a7f115f0856b5d4ef750478701739b4ced78bc07a77c3ce3d5efbf5a73a30918213846200009b565b6205f8cb620249208801357f1f3d8d6ab639a874ab18d0193ce6ab8b970c38158738f7b98fd8adeed5cee0e67f0cca0c0360861f6213c80bfd20cf222abb7457ada94379fbde23ec131bebdbf2846200009b565b6205f91f620249408801357f0caf17c49e1d7afab5c717f0798dc6e7587d76d3f42ba781ab1e2dac4a9e56ef7f11d5fd1432c158123069637d0199d0a5342ec3a10010288e668d2cfc1402e4d0846200009b565b6205f973620249608801357f29fe5261e0944de9885b93e262cd8549614b3a2798a7f800af0395ac4e7a5f297f302aefa46b1c3b3c5a4dd34963c3768f836891ba4f4b3aa19ae159c62e74d2bd846200009b565b6205f9c7620249808801357f13c1f3b5ac0dd06287b28b44b9f6d69508a936713ed54207549c40cf688a996a7f1525b9e7ee3085d7411811a9395f65371f1c07d9c42fd381d6734650dac9115d846200009b565b6205fa1b620249a08801357f1443c681dcf855a18c0164282198a4c238660ccf5d68c7f24dffc0fa397cc8597f0cf2f0f491f5a7d80f4927835c63ae4eb4d2f9f443aa2255085ad2098f07b842846200009b565b6205fa6e620249c08801357f11ff172ba0572b213519f6e758e951473c621c91347d362d1db58de9fbda23057e0e4668db09f3f996f3ba14d8f2d43854978a72b72bde0383d84b138a66bd38846200009b565b6205fac2620249e08801357f19f778080e750d4e0d7582975ee6faaad57cad8427ba310cc74d05cf257635427f2d0dae85ea41e0798ac7f80aac79d093a56650f239542810dff75a67e0f24710846200009b565b6205fb1662024a008801357f20676479b5a45fa7c4ff671a0e7ba30f175bdc002559c8658ece79f584b5021e7f02b4c5ac620b129e701a7442b6c68036d52bc36c1811b52e2cf0d4f692009d26846200009b565b6205fb6a62024a208801357f1c28734fd1ff4215f83e854df392107820eceb76ed1aa75a20ef5740dae803c27f23aa2f21c80a32fdd10ce39ac337cf3541ba92dc8c4577b562affd28a3715342846200009b565b6205fbbe62024a408801357f139bc3ef1baa7190956fa86aeeaf20bf9aac3090f0d2ed993a52622fa4bcff3a7f263a516ae55ac9fe723f1f651ce72c52d3559e616bfff38d2828b356ad6c4a47846200009b565b6205fc1262024a608801357f0b8ab14c2337ada1fafed5703905595f5e89e94b06d4bb989485629b7ad08bce7f2309dc466a36b458026dd23d9fbff6aabf7ba3c35ba12a29f88ee4a63dccc0f3846200009b565b6205fc6662024a808801357f0b5022e5180cdf7238571ced29f546ed81e4bd0b1e26c3c48c0928a457a4907b7f20aee17930acfdaa474238d1a2721bf8a4310ea76b8151f4581a3cedbe96489f846200009b565b6205fcba62024aa08801357f0dc19f954533b6ab4d8792ad5eb7299429a9b91badad88f198547ed74c5df95f7f082879869c003b4db069b9d64b15e97f6741a67e96c0a19f46a05d8504a5bc45846200009b565b6205fd0e62024ac08801357f0f1f339bd55c844bcfed6e1806154c4f545ad551f25268bd86a33c3ede542ec27f0130a16659329ebf2dd2787740e4841c6792701b25d9c5233f8090e071df5a75846200009b565b6205fd6262024ae08801357f0633e35809cea8cc13bbbdabbe257f0a7e18a31ab0211dc139994f7922d8cbb27f29c3580709e0a370a8c0dc91c49a508b43eb5cc94ecc7ed4d875f74aefe2f23e846200009b565b6205fdb662024b008801357f12548694ea91bd2c198407d28d0cae4bb5891829b0d4802cc7011edf5448becb7f1f6a459ab8bc6d767e1a9372bd4430f7aaa9f4bda7925d9407c7b691a934f52f846200009b565b6205fe0a62024b208801357f1e723636829058272fadd516ced1d385814bf8d2ca15f2f15e57422d02c195887f2f9510017507862c59f997d80ad6bb7868ab5ac43d6e711ab23c8e776b28a7d3846200009b565b6205fe5e62024b408801357f1a659b522ed70dd3c59f9e52c62dc0deea6fa925482ab1dde424511d2ee0c8137f0c3ff06ecceadde679a674545f4ee8f962fb3bd442aba90c763eec9298c08d8b846200009b565b6205feb262024b608801357f0773cc6c4f82756051f100ded1cdbf54bc8dda51554571b4eb54427687923f4f7f2331914259446adefe094a2740e2b4323ca50eb28c99bb5328471c51850ee36e846200009b565b6205ff0662024b808801357f2f26bfeb65860949731591ee58db37d17dbc58499cc918ccc34efa5448b605ce7f02575cd9fa8e4920c1051315ef2b364a33f1f62dd212eee20f074f5f1209e9cb846200009b565b6205ff5a62024ba08801357f14f737afcaae2847476cfc6ce7bbfc77f25eb78f19e7ddfa5b4dfb37dcbe2f227f269c7440018a044833b1304db15768e695b110528481958d87d2739554c54567846200009b565b6205ffad62024bc08801357e8227d006877c9b92656f258d79c36e05f2280289527b82727d1bc99a5927637f14a287c353054ff471496ff1c6c74f449873d6bfcce1bcc7f859d67821f14bda846200009b565b6206000162024be08801357f1d478d11675db4d591c876181919a481afc8d3541d6bdc2d1cb1b154171dd6827f06cf830c28d856dc19bb9a4a8ded0a4e67127c13a04f466d1f3bf9f8ed5344ac846200009b565b6206005562024c008801357f01704b4eeee296d7a491de31372aab314f60963ddd0773077b4db4d280f860137f191b9e2dd54ad82ba73691450bb652517eedf015668b5db670905969e434198f846200009b565b620600a962024c208801357f1d7635a885a868ac8b3d3307ad353caa073edea60e43ed37d0275a87ecee76c77f1e8a721fd0dd900557e79c199fda3bf9fc34d8bc8fede033503c33e564b175c0846200009b565b620600fd62024c408801357f0e23b8492ef1a25e2819eae4be1d8be5fe151759d4c07d2d2d66823d2a5ceda27f0a07f17ff464f067553bd3a8f0c11dbd9446a069abdb68ffdf1ea20345a48138846200009b565b6206015162024c608801357f271912809f72976c07d58b635463081a1a8ced0383530f0e6051f8f44bcade6c7f140c3179bccf920e6e0ba971e8d56fc2fa153c491763ed920664cb8249feec60846200009b565b620601a562024c808801357f2ada7dcdd121bb1c3fa70987dabf93d084c79ba52a1d95f8738d0ea2c13afb077f16dada61eb2d68feaf253310eea2eac30b823a277bebdc75a30e63ea41adce68846200009b565b620601f862024ca08801357f24c61537d18d8386eea0135e8ae88f129e1190e1b6edd2bb33fd60700ac3bff07eb5d4e29e64a099872dd1ff2a1e1f92b1aff2a45e95741054360bf644b1e00c846200009b565b6206024c62024cc08801357f195e2030671d86daecaddbc6dacc265c3a11ddf1da858cf1b04ec6442beb5f3c7f0ba5aabab89da8f027fc0dc4af89d0ab5f0c71323cc37b3906c44c530776f25d846200009b565b6206029f62024ce08801357f273d3c8d2f3237aa267ea706a3442d892596ab5b935dd7e1939120c08b6cad2f7e3d550ef4fd223a63f8185c088d987154d7e2b3b2200db83f5a74559a228d59846200009b565b620602f362024d008801357f1731f5c6eb8811abfe08988839e21757e5319f5bc96b11861905a212a06f01077f159a4808d96ef00b16af0430b29260ae2d4e5464ef4b6d93ede93fe97613a7fd846200009b565b6206034762024d208801357f01e915c4ee776fb54f5d6c3a63efe51dd79b3075548c649ef771fc7ca4a00ac37f22430d964deccfe766d75ecd99836b804208594d72e2101674971f32911be4fa846200009b565b6206039b62024d408801357f015e68847e7e321b48544b7ba5a29a4beb63754ae7e8191e8393de478abf0e237f1d9539a7d97cfd260386fc5cee1e784a74c68bcf90a7835d623a07e9beb29fa2846200009b565b620603ef62024d608801357f2ec52d13a88bbc815b360fcd94d425f4dfe63e175d105cf38a3f09bf901d6f4f7f0d5a4fcb41458a7a192437e357c9013c14a1ad286b47778ecf0d4e4cc37cbaa9846200009b565b6206044362024d808801357f29a645fd80edc3bad37ea7e898f1d27178e603bd2ee49fcf07b106173f53b4697f10410338d185f0d340748f02c1532cb8661ad8cab992eb9a9c609f35a7fb74b3846200009b565b6206049762024da08801357f1ff43350b4366a2e6e5b4b6cc7f1a63616756aa2b8b00ec23c60ecca817438de7f2ac6622181bcbd0a1a4d9d1451bc8f41286f1d9bcd1a01d845f014ead198e3c3846200009b565b620604eb62024dc08801357f2697bbb38a9f4ef076eb73075d9dd6c4cfc4dc7a756a8ccc8e850e00429ce8297f2c41634295791c10a0623393cc01fd48ab0229fcaef6338d49fa932a922a7a61846200009b565b6206053f62024de08801357f2c98328fe9dd56fee0126fce62d032277ada3e3fa150635b037a08084cab87e67f0bf28acc8eb21d3455474922ec9490de8f60d571f84785f2fddb0a0638e5be29846200009b565b6206059362024e008801357f10f1186b6422eb57f39bba53868638e89971b14bcfb107d5bfacd01dd50952997f032984f6dec92fc0052d987bedc27ceedd0e9e86eb1c5265e16ba98aa476b4ab846200009b565b620605e762024e208801357f24abc6e0a2723b416898741e8356c0f745f3acdacfcad28123f1251c4b2d26537f2ca4c93675754fafb388f1d09646db7d5ae455b943ff1bc05a3a31d8fba3aba8846200009b565b6206063b62024e408801357f0df11e6c7885ef22302c165162fcb87f095a3a7c4765b2c0fbcdd2b7c9f6c8637f0e0863d0cb62b8b14d4035b2a16c592e66b1aeb418d21e8818de6fea3f6dae52846200009b565b6206068f62024e608801357f0363dc2667ad685d809cc2ad6138bc4db9cbdfa4bf7c6cde79614e4b503f89a27f25cd11b476308d9c7d495e5dbb4dd42dfb0a4b332e6e3d4db458ac0229aa8530846200009b565b620606e362024e808801357f2ceb22961a8360409bd4d3e9fcbb1d29a0486c9d18fad9d06211bd11445130f17f2b0a90db76845822f4169a3ebc0795d15085f4e12ec985546375f0a0a6f02001846200009b565b6206073762024ea08801357f1ecd009a0e15cf885b8c112634e5cb0b08a37ba5d1c3c48c5999c7ac841fd8bb7f1dc93a326d05f3c6d1880835d1a4a13c22a01d9d6dcb0f5661c1eeb4c0fd7715846200009b565b6206078b62024ec08801357f27fcb6ecdce714c6c4b62dc19317325d955770f2a3fe867d4fbcfd793a1eb7a07f2e44554b39cd46f54343873aa495e84420a1e772d71f41ede89ebc7f312ab113846200009b565b620607de62024ee08801357f11024d28c507b839022487e641815c2dbdaae9491b4d63277d4f5cac1548cbda7ea9eb2b118acf1816d1d8bdac564333c987845974d22df4c4946a5f5a564d4b846200009b565b6206083262024f008801357f086ee0aafb00a266906e3024c367c63aa9a16efdf46e60ae131e026de65177a27f0292517003bb15b1219e2d8d884a23ab8a4adf4d596f69f4babd8017adfd865a846200009b565b6206088662024f208801357f1bcde3d1f32e584b3f5599c660b9495f5eb3b3623d7ffeb3bf1fb555b309288b7f2e01e47b3e6f572ca41a948bb5f51bfb06c753a8325f00200726ab55ad9e8085846200009b565b620608da62024f408801357f0d859ab7e3dc4b1ef0ff694cc5069b81fca114fd5e68e6419f1a221ae3d6318e7f27cf0159722f974bc3fc4d97f8471668fde0648a1c1c450339eb955afb81a146846200009b565b6206092d62024f608801357f1f5fe7b775878d1f35f906b71dcb7763f20dd203fca730b78a893aae09488cc47eeb2115ed7d1e6616b1ef553091131fd70cd0806ef80e5d354097219f5af64c846200009b565b6206098162024f808801357f180e168537efb815122cfd4ce8bfc8117f3eee8121e9e52b346e693385c13cc37f18574df920a9c663dc28b2240d9557ce8719acf7c41238312a36013f8431a109846200009b565b620609d562024fa08801357f0bc09a9dfbf3f555df645fbebfc59918d5f71d30e502d90527441493d73a0dd47f297819e9f52df7647e5d8b03e2af9289da5857725eb8a66e7ac5cb30f55c0fba846200009b565b62060a2962024fc08801357f051b61390c339d26cbfb8832f508455fc6e1ee0d3cd4d4e21c6fd5aa356805177f247c10fd7a4a666002679732554f41a4383f4d3f0664a1e58e5689a2a8261d42846200009b565b62060a7d62024fe08801357f1e1527a21d1b1bd267f8b993ff6a7318fc68b07e3590f51c978b111fc67df1d67f2bf82664aa3ee24d0918122a2cf15de9d2cf95d37a097d3c75fc501f58e3dd0a846200009b565b62060ad1620250008801357f0d9fe0a8362c87d802abfd45e7b266bcff70d487aeeafc6de32b0a6950751b627f033d1dbd5c76b2c074191a284661578b9f5d09b9430ce40403df47493a3b3dc5846200009b565b62060b25620250208801357f228cf9c30c20e918b97a07fab5dc08fff22a938f5636bf72746311b9742dbb8b7f2c072f7754659efbd53abc3991192ce7e03238e26fa29f3c208ec0f53ed30530846200009b565b62060b79620250408801357f2e694a758dadf18a2757a03d0f164bf1fb22be412d8f4390d5ab2ca9cc25a6ab7f2deabb75e7a3cc3520eea33fe3ceac76c7fe343545c3c87303a959a42645191f846200009b565b62060bcd620250608801357f2a59096e8647273d27f4f4b3b19956f1d7c42b71fb09f5f4b68879b2c49d3c337f0bb58279b96998489798b64beda81e656c4898d596d1c15a33dd10f6bcbd8373846200009b565b62060c21620250808801357f254813aabb113833acc9e3038dba11722fe73d2ad4ab8748b4e14e34743e6a277f2767f6b3955b68ab205051601150d800221a0d45b9254209dc5d9dc51241f93e846200009b565b62060c75620250a08801357f0bb7d09c090bd415f83132d65039c2a57419e855cba98cbd2023bd8eb5ef18667f06625d0b2578e931f052ddfe14eaff8505d67954051b69c7b4a17ea43b1ea959846200009b565b62060cc8620250c08801357eca7b02aa1072fc9350a3dcd608f3f3c3c0baa17fa0d630e71763eea2aa628e7f1393cfa702eeb9ca51288eaf3feb730564e3fc0cb7af2d40f06148e44651afc9846200009b565b62060d1c620250e08801357f2fcfbca849db2a2a8a497dbdb88c4fbcc33c7ac8d15fb58fef6f0e78c619c4617f05e1c6a2ccd3c4f42cd4d59ca94447cf9feb463b09e85a035c64ecf89832b58e846200009b565b62060d70620251008801357f18b7921702f27ddd268382f5d639fd3493b2da2c3790e40ce113e62ddf74dffb7f1037f68caea527e850edb14d805e0b6e27965e23ca092fe4301457ed03a0f8e0846200009b565b62060dc4620251208801357f0673b8aae1446784a748f5c0387da473a127169640d1b70355418d24bba420e07f1a8e01de374892af5e0ec166e124c06820a4aa51b4461452f697f618975ea1b0846200009b565b62060e18620251408801357f2c4d9313d9c597328ee327573ae899a9b1e60cd4bb833ee31cc3ce07cee794487f11f33ffe8dd5bb5f0eadff68fb37be04d635bae64f1339705eaf45c222184966846200009b565b62060e6c620251608801357f123ad03b4ea9cdf84dd874d787479b73822daba0d6a2c574b3a3a3c926efbd167f208613b098c36550275dbc1a9d1490e053c63800e266fc83e0f3111c0798e82b846200009b565b62060ec0620251808801357f14ab68c3c8becdbb6f9ef1322c06b98f577ed1cf4a34e14033fcc3b64f53da477f243d0ab8e6fbf99fadc0bd2fbb5583d36cd76c8607fa4aa13f87526cdab76511846200009b565b62060f14620251a08801357f2b9e3eacf86e518cbe2010e4f70d1af907622a9cec34689d2e94c480592dcade7f151487484f7c4bac7de8fd91ebc9588a6952b8b38486b4b49d300192b273639f846200009b565b62060f68620251c08801357f064330648a324a52b3579a059da2d935b7debd507ecf585a5778c46a9986354f7f2518b5fe41d492ca41e31c6699686eca3d90dc74f4fe0ab6f7f5439363c11d9b846200009b565b62060fbc620251e08801357f1d15ee763b60ff6678f94d04814a1c76667f87b6e74bdc8abbd402377288b2fb7f1e92dfa3bfc3a83548fdb4a94164ad176161ef3af41740607a089434b57a1f1b846200009b565b62061010620252008801357f1e6e5a5dbbd0dcf3558fac91b70ae16eb9a01036a667147ecc37f61bc1cc00c57f2075ad834305d0b081d12032307c06b64b454e28f9d73880219f16c8e09845bf846200009b565b62061064620252208801357f0f464ea15180f21d2683b5c81b7313034333ed759f6c287b8f250fe7a7da4bc07f1c6cffba084d930804442f4a72a525c54fccf5bbb823fd53a6e6a4eb70c4c355846200009b565b620610b8620252408801357f18394fa2bbea6b5dd9bd63d56c269196a987e08177afe665166a5dffdaf6faa97f03db87ef250eac0459887755f309249d7ebabc0bf05ca0fb70dc890f9ced61d1846200009b565b6206110c620252608801357f163eaecb9797bb1cd6410329817def3c255cf96071d4bd7b41c575ee09b09d407f02b086630c66264b61348059c75d4b64dc595c87f965b24b9b0b6f227dab6ec3846200009b565b62061160620252808801357f058de9d948990cfd97c7bf8ef7ddc25a84cce838a5be853ccb0c8b6848b9ace27f0b7ff7abe92c1e79dbfb45fd78bef32ac17f25986d6569ec8444907e2b56536f846200009b565b620611b4620252a08801357f07937530e5c4fadede64bcdc1dc4654557af855e9fa557fbcd412bba8dad2a2f7f245b5eecba2bae0587093efed40e3485886408be2e54a4c9639e1b02bf16933d846200009b565b62061208620252c08801357f14509abd1b9aeb9f4c3b89541c9dce9239959a886ed06d5f1df444dfa9f8b81d7f1d9c725eaa98c7e0595e4087d09f50cde4826c5f52d46426e4a6b8eb90071b3f846200009b565b6206125c620252e08801357f1b3a0c2a2b15529a197f7a82294a4ecf2e84b8f2cabfd2e0072747ec37b39f5f7f10a7ad8a1067216da1a6e6eea8947716168ea6910dab6a30d8ce1a5c2c61a16e846200009b565b620612b0620253008801357f2a6fe9071e29956ba16fdf52bae370b0c261ad9101eb299b411d125e804837ab7f21715ee93b07ae5a0b5e6af0a70dc3e7971a2fa8c2314087eaf5aaacece898e2846200009b565b62061304620253208801357f01e67480e9d05e09b67772fecff735e7e6964a0e9b1d235500ce0fad17fcd3367f0b4ea140aa584632b22e6ea338912c21c045fc1f08afa978f93f033e2ffff0e6846200009b565b62061358620253408801357f1153be159257a2d991aa53c2e4681a74c570e4ad215be3acfb0566b9d5034b347f188bb52059e9c6112fa6e388b6906b96fd508b2e698dd83e4d0e0189b9bd245e846200009b565b620613ac620253608801357f1f620bb5b5062c5cf457f946eecfa34b7c5e5c4b0cd98b28875f6cfad2485eb27f2410f8267b3a4469557ecf0da947c23c54b888f7404ac105d4036fd1510e5420846200009b565b62061400620253808801357f034dc2669b72857fa9feb779b1e565cdbc4674476ece6418da45d1ffb8f48b627f2107d5406ff1839c11529dcf8a46c151d8b8b8c0625bbb20d54367f08c24a1f7846200009b565b62061454620253a08801357f1a9b0f74c303370ac1a21715d63110735ecc1ce018c8c5041ba2d5508f5febfb7f0661dffab5b416bcd688f51cfbf4820a083b62644f64a4cc01d7aa9c7cc9cbb1846200009b565b620614a8620253c08801357f26bfd704c7d39eb4047c71befe22afeddf71ff110379bfad57c561cfe85489b07f13c888c8a78178e29cbf523282f85bb96477531fc35a8ad363c576e58eaa210a846200009b565b620614fc620253e08801357f2b2b56d1553d9084d4d30ddf788ab0d26e2b0817956f202af6cb3eb71bbb49e57f1260667dded7cb04e35b7b867a7521ce7c6848896a66cf152504f4be343a31de846200009b565b62061550620254008801357f12bf5cbf32984bd98dbb3f4b95faf518907a82e447c1291de8bf725c95ff8ee47f0a111de86b605faadb5238b1130ea5a0993cb7c406f89ebc19a49115379f21d0846200009b565b620615a4620254208801357f0725f9a4defe440a3c68443240e88e94fd2975f70c467f14c74681715efda1957f08852644e1f4e8326dcb45ec919821b2b78621438b15466f187231163d99ba66846200009b565b620615f8620254408801357f1dc70f87295bf425738d7f949c828a03b2a01ca5039449fce4252c00231b14fe7f0acaedf5ddbe6d25eb765d5caa9d3544d8e766bc446ee7fcea17f8a260fa2346846200009b565b6206164c620254608801357f302f2e3441341c1f937750341f628322eaa8a2cf70bea10b3fec3b98639b98107f09705dc5e30adabeeb3e28798c9ac37224434723b26ea21efba8d2080f5d1c1a846200009b565b620616a0620254808801357f0581f71769a6889ba1211f253a5ac3aac0e0e3bf5ef22324dba1311a9a656c2f7f144d5e65b8fc0cbe5989e8f393b050bf2af45152cd5d3022732b2567a64425b0846200009b565b620616f4620254a08801357f19cb0d9771847be3073287d4d666c43c1cfaa0f0fb10df89cad4123d7b4d150e7f0b27ed3417bb552933eafdc36f1c5622497fe99c53f3d3ef90a2a541ed57a437846200009b565b62061748620254c08801357f0bf3d1939de6cd416e9ea2a6f8c5e39c6828e84a868d09fd5f2dd42f79890fc67f106cc19de88d761f8777b25c29dd8a97ef4791282c3b8363b09a88197a9d384b846200009b565b6206179c620254e08801357f157519c9299a1534c24817c899b8fbcbe5d64993fa40f614dbe12153a68641337f224b9dbadc8760ed7935a8ca3210119b9999974f92dbf279824b0a963981d750846200009b565b620617f0620255008801357f01a6a634d18317510e2fa377e636c830b4050fe1b4a5e0be84f2fd9ef47867d67f18cc744a96a3afa49704eae36906f98849a5ae835178ae67391455d162dddacb846200009b565b62061844620255208801357f17c0f90fa89b17daf0bdcaa3643d3a2c81d83e59b8fd6e80e4a6ec895bcfa5d87f2cbfc7a245dfc849267241e643f0b33662f51de63873312a3a2e93a901256bd7846200009b565b62061898620255408801357f134a5e353f704bd9c80fad47771c4598232046c8a0c6353a251d52afc46dd9667f069c67ac4f73fc0319e455aa7adb5a5c0bdf7d547b991c2989ca0a19fce582be846200009b565b620618ec620255608801357f2b5535c87af755976b42be1c4f0b88886d8e4df2606b3b1311a89cabdc4596d27f16e3ed51e290dcab91fc7d1320be78336ec5b524412402ad3afbc36d60e482d8846200009b565b62061940620255808801357f06096a639d7d9feb349b67e95392f3419e4b626bffd4fbc6a70fe14acf05ded77f16ec2c9cdff17e2b8ff4699675a023f426ce5fb799df0c3d8aa88f3566de5148846200009b565b62061994620255a08801357f13f63f113980473694d00ea08cdfb8fdbf74047f7667b6aeeebaaa9c198f6f3f7f20e3f07c3355d9c9a65faaee7f8be401e65dcd3e39db3d4612fa5360125405e6846200009b565b620619e8620255c08801357f15a5f64917ece290171cf8b1d4d6f14a067f2628ac76f0817096ffd297d721d37f1e5ff55f7bbc3a967ad57e2e9a86ed543334a482f7a315f9c55407af2b56343c846200009b565b62061a3c620255e08801357f1fe2bbb52f7886a5b17d9e8b28dcefa3b9fc2abebf1d97508410879de5f5ae047f2d3a5084272a65bb8640526594b3257edd5456589e5878a0f1a00109350ed3a1846200009b565b62061a90620256008801357f123cc97487eb43fbf35b9d15ae5496dc8db9c51adb8fd80f17f22c877d8a55b97f1ee77db2a7f7c350112c6336d3e74c8c4a925a9f249ad18dd41a3c1dc1e27b39846200009b565b62061ae4620256208801357f0c4a8939b46c2510418b062890f367fde50d1a434dd54f24994806a39753296e7f14564b43d2afab3a97baaf50c4c6aedc523735a5fbcee627508e0d7411c6fd8d846200009b565b62061b38620256408801357f1b8967a2a40272d5f6b420b51cc14ac7df81757783b38aea4ddfae720d352a0f7f2a2198a53178b77b59a2e0655d4fe886a128408caa49f76fbcfa080f5275f50f846200009b565b62061b8c620256608801357f2135e893602093c41625039fd6be51c05c6043106567ba68c6350ac1d854423f7f1a959a80506aded2b405cf0235c81ab2d8010096a1db0beb75684219cbc35ebd846200009b565b62061be0620256808801357f2ae8d3e0c7a11970bdc19da7064ba5a5084ee96a6b3451e8568ff6f2f56c299d7f1fbd3d0bbb233b95590fd4c8dfcb1d2f229f1955cdb1346aae8ce6ae57078338846200009b565b62061c34620256a08801357f2d9edb0ef30e585aaac29ed8707e9a3d5235831c7a46c47914c1c18f9e1207f47f20175a912c6f09dc22aeb0cca3745c84b5684e3ea1fb6580accf10bc97c4a0af846200009b565b62061c88620256c08801357f2f2d32ef7dab40d9ea96cec23b6c425f67f7006726e2be583d72d5bd2f9e2efc7f0bc93b68a58d520f1551a08e950dc678e1f9106e6c2b76948936f2b513ae523b846200009b565b62061cdc620256e08801357f16a0b509507f9ec004b4efe119d256fc6d9e7458760698a220fd64b3c68cb23e7f0f615ae5c5abae5422482805a53d7b467b9f3fc8e96b129cd0b2151e40a587e8846200009b565b62061d30620257008801357f2c9bbab5c2e312a209cc2fe95a6910e4a6bca695e5895a93534ece4f723d79867f2327041edffd83dd23e90a6e983b742aac296bc4c7b9efaec618b40e422c49f7846200009b565b62061d84620257208801357f04092fc43b6e721e00ab9e553fd050f2722ffa03ed45a435813e13ebd2e01ef37f0eaf7202061f7d2c9c6cfe65d64bbd367e0e103cb3de8fb8c31ab2df7b90fae2846200009b565b62061dd8620257408801357f2eb84430dbc6f22a8ba7e22b6a8fd1f2848dae30a2b456420fc73bfafa6ec2057f12b79d5c3b22b7769ede436c3975c908deb1a950ac016811174a72d08e363f9e846200009b565b62061e2c620257608801357f160cf8101c6fee4dc752ac1ec1c4a6d8753cab45527c716bb3d405227a11abb57f1f9ad70c3f6d2233bfed3501a609752acb8c90476e12aae9a13332e3ebe01e7f846200009b565b62061e80620257808801357f0d830bc35190f7d1ee10070793ca064d98ca4e1967b4ed16e6bb585c1d0377b97f1e338af15082a1e4351e5ec8e308e6f8ba98d115bee516de7e79b86e6528f764846200009b565b62061ed3620257a08801357e322d30cd8bffdfd5cbc9e4a2dd4933e87b5cb619fa9912c40907b51ff765ab7f21e037eb0359c5647323b57e13951b41cb929a66ed56909a5a82674ca5c3e760846200009b565b62061f27620257c08801357f0dbf3361f4797e8c2425262c7f995fb34d043b5b1220d4ed00f4216ebba06af27f08add1733b850d605c4675ace5d14b7b5af1ea5ea7b0b747e1a36b17356af72d846200009b565b62061f7b620257e08801357f1cd1c4d8b070ef26ed15dd3526235a8560eb203d33090163e95f421baa6685d57f0ad9196dd7e525f5f77836a4754b8acc58f66735a7918c2aeca0a6750cad77cc846200009b565b62061fcf620258008801357f0968151b19b990747320a1e8fcc2fd8afe3e9443cb26d43b043ca68b65bffd5c7f1963f6b17cf1d4ea139c6e3ca7d28ec9471ccfbcca96e6b80a9bf8e68cac4f84846200009b565b62062023620258208801357f1c3d0a261c43974bfd2d68280295980c12c25dc9a5559d6373da4bdacd2bda287f171cb60a047bd90f8ce210de17e77ebfbd327cb6ff39f2c12f659b8482ed54dc846200009b565b62062077620258408801357f24a8014689de8b617c868349cd83eed3b5525a9c0aefea4151f5ab27cdd87bce7f228f64811aba35f642bf82e44862e70baf8f82522427bd757830a68a5a678124846200009b565b620620cb620258608801357f1effd93c1fdb58bf997d04d563f39da339d429d6ffb49ea475d6d91cdbea1dfe7f2d98d84234de76b329a78a9a67480b0c2dd2a0a903e423636361d1ce1cc47e05846200009b565b6206211f620258808801357f1d2d30cab8b3089795fb32de1520dee5e3930a3c7394c9b946ab31d7b3de8c6b7f200424185e3610358f194bb922130589f31cc21d8c7e461e7cf132144fc112c8846200009b565b62062173620258a08801357f0aa2fabc340b0cc3bd8475cf78a88545c3c890ff97633d9f911876cae69732217f1727f76bbd455f3750417ff45ee39d28f473da73d11a6d114b4ac6b0df44f802846200009b565b620621c7620258c08801357f27ad0146c54e814d6d5c89b205306f5b3ab24278ef352124200becda9905b6c07f077245db8f108e996514c30d0072b4c81043166db9954d10f4d9182515fcb6c0846200009b565b6206221b620258e08801357f26d8ba1a601f616784824b254ac43a0c015608e9b3cdcc8dc6a045ced6d7fd0e7f1e2fa88f87fb738034ed64523951f8438a49d34c02a43f97e31a6903cea0c055846200009b565b6206226f620259008801357f28c5104dedc3b104b4c35b34715cbee758194d616e7919682f5f42d2bd84cfee7f1d8b501a677a3ceccf6960a7facc44597bbb00250be657f35ee9942ce58af712846200009b565b620622c3620259208801357f2a47a6b7b3a7b692c2b3398b33aa52feb764de290cf80c2c6cb070674523a93c7f1a0c6a143652ce1c99133ec3bc2442efdbec538ac2df2bdd77b001d4c549eff9846200009b565b62062317620259408801357f1bb55ffed09825b61ed4d44ca12c38e95ca0065180fc06131ba7a5aea650f9d37f18be2a3f4889544855b2f77ea21823882a21ca4e1976fdfb84646c93813f9ea2846200009b565b6206236b620259608801357f05a9f24f70df2a5a2153dd2939972c346ec1ee498d103014da83e50585c7a19d7f09ac8cf939dff2fb55a5a7ee1eb985796b771e08cdf7c4e978fb66844a3ace61846200009b565b620623bf620259808801357f1e462f8af150c3ac88ca051546acc15537add7833b23ab47b2edbdd660738f327f2ce3b68db08b5d4cfbfc6fed7ae9353e656767d68180862e888db4bee5815f42846200009b565b62062413620259a08801357f0e76a66f538916444d2f349e10b6b15f1a44afeaccdfaf799bb99b71de61f9997f187bf13eb064c294af7549b25261f3e0f09d18da8b2d6164ce1ac2f781c08825846200009b565b62062467620259c08801357f12ff630a2a13328df413fc538258edaa57047613f7e574c908d71a18d1e6785d7f10bff9350816c4f18a5c1690735a8259d265251eab77615123ff5f60741026d1846200009b565b620624bb620259e08801357f0d324e91a2f00193221788748a1122d11d790841c841b38b0ed5878db5cacf797f1175d9b346a43d2b3088c6043024c40b258029da24b64888aa34198b4078918e846200009b565b6206250f62025a008801357f103813f554bbdf9fe6788f611c89978cd3dada16a413d35db3985dd4ccfe3b057f2fb2011d17938e30377707efb299aef63033a618af5ba03394873be2e5dc1109846200009b565b6206256362025a208801357f2aa7edab7fc8d002b845240d556cc3906da7252079f1defa2bbf362a8c6032ec7f2e7e5412ece6d59fcb9fe751e7b8c76ebdf5b6d97d18e22906fdbd6539230b5c846200009b565b620625b762025a408801357f0ac53e864340f4f8d59a917941e56b9e0112d529a09f8081f2bf8929a5c2d86d7f1a732b6610e3784852a064cfddaf07d2054edc8a54c7d91a38edbb42107d9855846200009b565b6206260b62025a608801357f0738a06c5e22c6e17214ff487391150e0e393c80f42b008d4309a62022aa5efd7f0916e935226b0ea5e90dda68832f40baa7b0f7de7ff95e9977b30f6a9073fc5e846200009b565b6206265f62025a808801357f287f146c8799fc80777d4e6b5396b2baeadd55f27a1e33e8aa792c8678f592a37f24400ca9394a53565b37628cfc43bcc5e63cbe27c84bbd63116c8bccf3709987846200009b565b620626b362025aa08801357f0d586595cff7e50dab824974cc0940a5df0fe015fd96215320a90b49c7c6d44c7f137309569eca237dcefcef1826067909222d0b218513bdf05d02180a625d9841846200009b565b6206270762025ac08801357f28a4c0492615b004299d84f01a9055c84c1d73ba8fe03471321b1dda1b5e23997f28111a1c1b270ab5b7b2fe61ead12730ff5e59a6e333704ab64b12ea40bacec7846200009b565b6206275a62025ae08801357f2f80a04e24862061f9d7f9abbd31694113a8fd6a425eb34d6300158bbecf629c7e4bcb3cef8dff60a2ddd16999ebf0f368538b30e457dc49343d42041ad6f029846200009b565b620627ae62025b008801357f032f038b42439fc7bee5e5aaac072d387e78b75d4ce8a26e5ba9df5610e276b67f242d07d1d6e5f43a69a5075c88e3888cf4a5149223af8536ef70c3e03a905f7c846200009b565b6206280262025b208801357f2513d86e5bced26cd2939132c5576b3699ec5110ce01c630789b501363f084197f1775e8048d7351b99105eb1aa1da07744d86ee27b31217b114fb96fa388a4a9f846200009b565b6206285662025b408801357f0804e6b1c3fc607c7cf3e47b9ffb85b5ccc1a1288555de2f8811e117b02c3ede7f17009f93cb91a521831cd58de974fc0f9249848455f7cdcc883b23095533f628846200009b565b620628aa62025b608801357f0bd6149c2b8a2c61e15dd45ad93105b5c6a28eb28573bd672bb7d19fd1263daf7f121f20bab58f260f87751aa19fe0c2bcf704a0640dc909c74cb6d4dc078c322b846200009b565b620628fe62025b808801357f2f8e065549dcae6004b2501574fd6b56c1f52602175a6a4dd579602407fcf9107f2742508f11f3edacb4b992c76877e69a0f4d1a7fc6c9af56a99882f27bf8d94e846200009b565b6206295262025ba08801357f15fcfc5f3c6114b9f236160a7d210dc110b3419bc406ce87c79e79c9f42a02087f2798476e2dff151c7c572b253e7f7f89bcdcf64c14f616a4d2318b8b85ee5930846200009b565b620629a662025bc08801357f0a832256fde30158a1db8171fc80daacec3ac5470cf9b9c8643088941fe54f2d7f17c8f02f6bcb8d975ccac966d7336ddb302cef008e2b208098b9cb2f6973703c846200009b565b620629fa62025be08801357f0ef2b730be8fd4a5afd3684f34608e3573138778321655d0c950acb20b5e09277f09a77cb793a8976426819fb04b78f8faa94bc33e5b26f1561c2b1c140e7025a4846200009b565b62062a4e62025c008801357f20598e3db9f98aed4d1d28c3ad02347d9358a02ba286811f7255eab54e994cd77f29d4ecfc2fbb8e88676c527d8c5a314ea8cf8bf7acd0cddf349fa53b8a938cdf846200009b565b62062aa262025c208801357f09277a9b2923ab4436443f5b89c4d806f6d4d07afb368734b6099c7f68844c147f2706ed98016f0f294263fc11191ef270fee25cbcadce197f74408c8cc0947b4a846200009b565b62062af662025c408801357f13bcabc460b1d31176f3c086f5f6952b90d9224a3a9a42099fef44212ed8f29c7f0687f06048398e15b55f55f8d6e287c3400d862d37b039ae8c861f694c74bcdc846200009b565b62062b4a62025c608801357f046a57df41594ed4d9504ba9a77fac8221e62f0551cc6cc18c79383ed2215f897f057905777c894dfe7fc91885cecb0d49c27fa848d4846a823a77af056136f012846200009b565b62062b9e62025c808801357f1d5d8e4c1cc4700b3d118435906517040eb6a7e20e44adb260fc988621daa9607f24f3a61bb8f7a71706fc2605dba064dbeb5ebdf4a9130254a4cad4420f2fc345846200009b565b62062bf262025ca08801357f2ebedf3fbd57d52fb052d78ddf6c74011b115b86f488e8c5058872bde589d0787f24bd77ccc6f569f6314811ff2184e6099fbfddd1492e9a6fd23a13f380910265846200009b565b62062c4662025cc08801357f1880d303261dc18360e48326f601ad7f5cae896a1022c8b666352c1c6ae660d47f031c744425bd2679d585a6575776c1b737e423e7de36c6dcdfdd658e719b6e5c846200009b565b62062c9a62025ce08801357f0230b2ae54292f4a281579f2f46e141aa7fbd795b8e8ab4bf1c4783a8d2304447f064f390e15b8b9b60b36ffdc68b41fff7da05d6b79feeb2864eed84d2984ead8846200009b565b62062cee62025d008801357f305b0252e202d1f5b3925ab1a299e91f55772e5fc5214994e5bef572a23a75387f22f9053da6ea9e7ad729115297ec4fb99a5734555ae618989a57a26a06c669fd846200009b565b62062d4262025d208801357f25790d97badeb54d627bf68d2de6afcb0428757beafa2678be600fdc4ee722457f21984759eb37a35777bf84bfd8cbb34b6eebc5afb8c32471151ef842ce02c645846200009b565b62062d9662025d408801357f0baebb8c534c95ebc9bdbabde5538e00393eff4717e1df0729acf204e5f3f0bb7f1546ed009e502c02af128f234fc307c46b758c991d7ebe60a52f93017df72061846200009b565b62062dea62025d608801357f182aaa26ed08300a5ef3ed558a97bfd9791f6a25da973ffc147d6ff8da92145f7f0b0b15de27014722557ec58130dca2d20c1d600c00b8db3d84836b7e0b8b3636846200009b565b62062e3e62025d808801357f17d774233865285ec4ade6c9675c0a20f3ec597bb31d498f15a16325cb3205be7f1b7b8f11102eb4a582e05aa12a5b94c32f32833964a23e91e25acff2ec85779b846200009b565b62062e9262025da08801357f17a96e4702d2ac8f3b227c8e2e63120d08ebe8cc74d3124e305678d2fe2ee00a7f1dee01d269385d5edd0a9d33fa6d7f1126dd34e71096117645f5796a85103704846200009b565b62062ee562025dc08801357e0eba475fe6a24096424d311bf1e6bf06adef391019ef686187f0af008623927f0ea94dc19aec7dd9d51d25765f7252b5fe0b57e45696f3909ae3978d330ac760846200009b565b62062f3962025de08801357f0b002e1454f6bdd7c5e8a12608a713da9c986f9ef5c08103d4a59fbe424e42027f0590712d75668dea723b67aaadf866f8af2300c58982168c9094d113cbe8e9af846200009b565b62062f8d62025e008801357f12c5fff3acdc895351b50f66b3b6caaadf06b0ff7ddcf22ca8e021511bd2bdf97f16aceee9b501b9d5cf8ec6555d11325d911b63560554e0b5bd8bb716cd79102a846200009b565b62062fe162025e208801357f08a6e7dc086f49cea66cc4258aa57e4918ed7844216a87fc6da394faa94228137f04149b1ba2874cb6a0368a29a5d1bea5c1f1e3b9aac0f247093400fe509eeb17846200009b565b6206303562025e408801357f28fc1c2357c4caaf423d281c4eced513ab46157b7a6f1d2db229a85b0a38d6db7f1a1baf5c215844f160ab3eba381886b5231cf0f0092c598d404529301877b4f4846200009b565b6206308962025e608801357f2b50c76da61c5d081470d7d290452f2e01ae83e28c7927ef3b5f48beb8071c8e7f12d3f92fcacc2eb2f1ae1c8f330360fe53b554e482ade4f27917bd304329eb9a846200009b565b620630dc62025e808801357eb05e0d691836ea16a286a912bb1089c830f7896100b32bae85acd4f9c93e267f2051ef1909ff122a72481886901333973a856fb29f23b59a9c5929b2827b2d29846200009b565b6206313062025ea08801357f04a0b5948c6f0e64cbba5006a51fcdcdcbe4627e355bd65602235e89a037417d7f0526380dc772ddd662f125cfdb0489699fbb14b6c45cae24f13d48c46ddc8d09846200009b565b6206318462025ec08801357f1513d9b698763c96abfe0acf6df9e203e279ad7fc926af58950dda6f8f2af4dc7f24aeb47dcb176bd34cadcbcdcce9d26fb0d46327082cde68de01b2fc0cc9d944846200009b565b620631d862025ee08801357f19c8d0d7b39af306372c600df0b18c7ca84785f9c8e83ff8ae471b09de6d05cf7f301c79d5641469843443e57791777cdc3273d65e0858b6590ca2edde7854feaa846200009b565b6206322c62025f008801357f2c7ffa8c808cc623a25c99093f1ca5c0e99dcbf9731bee0354c9225f179f25d37f2272bb88a5462beb14875eb80e172f30e45a556652045cb669e8f592710259fc846200009b565b6206328062025f208801357f04a436b9bb0c0264d38b8dbb972f660d05d4df8c5b0a22b7c46d6e80da03d9207f05f587a5bd9f99522df38f2f9ad204078412ca690d112b6f962e1e5fb710eee8846200009b565b620632d462025f408801357f020e60b1103aa5729f728b0451cb3bf06c8f2260352c7b65dfafb6f5de91d08d7f1230c97ebcb8d46226560fb7234b6c4dc0b1725b400b1d86e735cd748e7084aa846200009b565b6206332862025f608801357f2ed086f81b52cef8aedf6f1a1e7d1de5dc23570abf6f759cfc51148b7bce394d7f1851578c7bbc46f91a4987f2bcdebc25863a67ff02f4056a61abff1a94eda539846200009b565b6206337c62025f808801357f16fa6b7bca597c76080369ba28552c4fdd1739fa8f8767e9085743e13935d5fa7f0739dbae82258607a301ce2ae5cd70e84d2470c5a30d3daec7b8d0f5b43d3094846200009b565b620633d062025fa08801357f072f390a4fc34db6eb41471069cbfc91bbca9facf115a707328616837c4443a07f0e3e33976cce0e65fea82d25d638f4b9d684f3a77493a507d14dfb86fedfd85e846200009b565b6206342462025fc08801357f0e2d5a01cd8fab47487161ae20e912ec892dc8f99f9a0ccdfd914677c00649b47f1614375b21e206b4e117f7e3673a0b9e8ff83f8c58237c6c63a43b711d4f42d5846200009b565b6206347862025fe08801357f0e53c72881e109c15b0326b07ad0005bc74e6b50b93cbf614686d22580ab21057f1c205bfffe4ab7efc370a912c8ca907136fc2c314893cee81930eb491ba1e9ea846200009b565b620634cc620260008801357f23ae01dc01ab52cf0b12ffe2f1bc6cfbc82ff99be47806afbd513edcc8243bd57f22bf4502b3ffb03465fc667acb6ecabba36710ba0d763e8fe0f5c26b777c131b846200009b565b6206351f620260208801357f2477eb92621a9e40bf3a9fd73c7b80c3a518b8321a9b59c9cbd315fb53a805247ed9f04a6d74abee4d3d7392778daa1b1dd9e56d624f5261ea5bd20e927be01d846200009b565b62063573620260408801357f13170a6a95762c7d887de14b23421e36fa2f99686484c4dfb02724cd05165e0d7f2cf6f082ac4b675c398cad96a3de4e353beeb1877c349ed1fd08e47b22ce4675846200009b565b620635c7620260608801357f27831740ed6e306b90d75c7b4aac554b07c0880fb60f44e77c320ecfd46e82eb7f2591a51e0cef058b74c9a1e63b099ec3a6a5c9706b6a32c4e0f0a5ec349aa5ad846200009b565b6206361b620260808801357f1f2e965c65f2f3824f1c8e0ff8b644e153df3a824c5d30fa0dc2e3867b5543367f1fe9dc2a4f78208f4982906f2c8f066358b4d5a521746505758652f9b7567b07846200009b565b6206366f620260a08801357f0884bd3dba76e737805a4b351d0c5eeb8b6bc9171435790e09b440d7785e83ec7f08ff7ec85b337912b09b5750cd87276afa564bcbf2f387eb7fb2136b1e43fc64846200009b565b620636c3620260c08801357f059fa49f63fd489024881e917736c51a12c984024f2d280af62ccd78ec530e7e7f1a717303fe3086f7ddf3eac5a4579ae5edcfe6860086a15d88450cadbe81cec9846200009b565b62063717620260e08801357f299d47ce91db02725b3872932ce9f8fbaed35dc5fd41457bd134c3cb82404d5d7f2eba6e82adf04cff130784a815d53c2305c0116b0e081630faa2f8bd6df4ad15846200009b565b6206376b620261008801357f0b995bed829b01ac9cffed42d94ab6c09d88cde52f862e70e6d7dffad8d002587f07f4d4ae4f29008ee6b75d9700e7b6e0404bdbdb998a0a78cbc9dc87c72702b0846200009b565b620637bf620261208801357f27123c1520e9fc53153d9343bfdd92ab35b3e53c45255fc19dbcb6a277ba49677f2f9b5cdce5a48297e961b85780f09c151b9a3f87ad8191bd06c6362c79042d84846200009b565b62063812620261408801357f236e2c1b2411bd9387fec50c2a09e0dfa18d0e49b66f36fb0c5cadd50f8e140e7eef645073c97627c82c547b03f8d2f973b68d5f826b14456095f44f6e614a1f846200009b565b62063866620261608801357f26041dddc9c2d54f66feb5a055f54a0bad6f2698643de0cae60af6847e435c4a7f14180385dababe9262fadd1a1a972585b5ef7677714413f9225bc1a24d71f7fd846200009b565b620638ba620261808801357f1ec4870942cbf7fe11d5a95e9801378fd8fd1cc516c0715c9311b998b5323dce7f137a4f3559812ca06c444113757353bee018ae1c8da7dd8cf1cf183832b18c9d846200009b565b6206390d620261a08801357e74efc5a640bb48a9e481ede32ef998b41576d173726104e2d8b9359f4a9bbd7f183369e13b28037e3da6acbf3100b1054d18a61ff98322947df3d4fe09948b39846200009b565b62063961620261c08801357f0eef1ba7966ce47a0aab88181fa7595703190f061fa83b4adc11bba5dc1fb3da7f27c770e69d516bda41fb2b9b20b0b26dd45724c1e36df53ec6a2dcf097ede5e6846200009b565b620639b5620261e08801357f0108e7e366eddfd3d7cf33898e4776a34643c72884846db25b6d82dd6f2f0ff77f1c0449e4b8d07ae7fa53ff83d8c890420ddb155da4d5dd260bf11e7145ffbc1e846200009b565b62063a09620262008801357f26e2e7bc39c1ddefa716c3e9a06a4ee44897fe3a27b095ff0ddea45ef71478077f0c81b92251150cb2e85b23d9c881b1952496bbaa73e5ae2b08eaa0663b5fca68846200009b565b62063a5c620262208801357f10e312815403423503ef92d0f6ec68534930860624ff692bfbbef8b681c86e6f7e81361d11b8d80ab066415c172b761752d714e4b5edda5273ad1b7b27ed323c846200009b565b62063ab0620262408801357f171d433bd1b2edc3a1efe1bd1f09054e938f9c5bb9a9074ce5853ae0c9f299127f20f7502cf12ec7d42272da5fa4c245859b8a9d86607285e7f76679fd871c3826846200009b565b62063b04620262608801357f1dde4b48119ecd454e2a1d30fa771bfdd149b2767e593eb1a376ee5cc2c3bdcf7f12c172164747047b9810d5f7b25ddc6992c816c5cb9b79dd4b28ce70ed2c8f66846200009b565b62063b58620262808801357f1ebb021a392bcfc21c8fc75f1cff94b7a80f259901dfa4f64743b3247ee94ef87f2465b9a2d8012d8b2fb628f244eb68bc0d6e45e8adcf2a5fc8216059a8e9de5e846200009b565b62063bac620262a08801357f0b8dfa2affc365d207288e7fd9af0de310c9208ebf2594dbe35908841fbf28e27f07be29681c02c6221b462f6b5153b25a3a02485ff76f4690fc2365696e5f33fe846200009b565b62063c00620262c08801357f18859329ba7d2d3780f0017948f0462a34541b67b616e96a84335eb3e2434f567f17a1c71b681161fe09e173c34d66024317d5a4d9756f466ff3f45b06e850fe5d846200009b565b62063c54620262e08801357f2111bea0dc7e8241c39fb70710487bf05562f9b1bdb39de3698160b560931cea7f1cda583c616517cac649e0259c2af93392aacbfec16d0a96ebf8a85840be9b29846200009b565b62063ca8620263008801357f01f52c0f2ad223f5b094d9cc59aa42e92dc7ba2c91bda6143589ce0014b4b9287f194965e0d8990b6b7f1c8b68bf178bd6b79c163bfca6bcd5edfd969b6cd1f081846200009b565b62063cfc620263208801357f10910c4dc97d8f68a2131ff5eac5354d14e04475996485957475eeec04223adc7f2b939e8a1cd9dac8f9eb717bfc0eecac1de31a2f4b67e409789ec2f17fc84983846200009b565b62063d50620263408801357f233f96550706a27297639bf1bf491d9e918b2ff9cc9e7fbf8b786927573255967f1d2262976b2bf66939e8419714311cc4464a7c3785db1b05215c2e66d1fb890c846200009b565b62063da4620263608801357f28917b3be8bd969532ad6c930716fafbb1d718e60992d4fcaadc7e339ecb1e897f03a7ddea7ace049df01146ffb6ef1299b92b724341acdd83a9c9eb2b01b29926846200009b565b62063df8620263808801357f08e70fe8ceb6614ef37054986aa9cea2c6dd0c6f077f8a95a1d66a5330a458787f0dddc72eeb0422cba0a58fd1bf12b79cfb463d93e7a73b84e4f131a20e9c0d71846200009b565b62063e4c620263a08801357f292b9c5ca9f5eb22d7f414853b3ae02fe8d99de4dbf492239a43c491e66251d17f0c398fe5c9dbaddd25be02ce4167ba8206c429062ca508dcbd5762c4c397291a846200009b565b62063ea0620263c08801357f1d2d49f2f5a0a8cd1c86251be277668910aaf7709fe6ce411aa21365936812787f263226377d1a4651b515a94b8b76e003143cddf531c1559e81826b18306d8402846200009b565b62063ef3620263e08801357e160939b8b260c652c7a1cd294534bb5cb099e7e04eb2504ca327910bd55fb07f0d0131b6ee1cc9f0201cc102b1f9fd180eb73e83fcd3d240377260e49e7f2f2c846200009b565b62063f47620264008801357f0bba5e751ad0a39a8819e6cb98f7e9178ccced9f1954d6ec5b801de98d40b9727f1f7a0f53445e2beb49527066c695990e5fd78707792675ad2c97f11eb6ba8ecf846200009b565b62063f9a620264208801357f22fc1d8e5a865b951dbdf03d9ccfb24bc874d4c5301d0331611260fdec08643b7e1949f7f72105aa706baa2b3bf16812a9b7c0cdb443a25c75269cf9b4fd0412846200009b565b62063fee620264408801357f2c9cd948ffd0831925c9e056acea54306a64912aae3099df68595fe2204acf4a7f22efa1d4c3a7ee8607ddc8c469621e91f99fbf7226e2106ba3e20a7357391261846200009b565b62064042620264608801357f217f4ce9137c76bf536f1ea7fff9870c48cf33143ecae9fe66978f12a0fe56aa7f0e30f9dffc0b5cd1391301ea5db1a68de6a8341eb9b2bac46699b63c40889299846200009b565b62064096620264808801357f24e8b6da52fc2ef5b5ad1106c01af7a66368fb6afd1f4bdbb4d9a40c81b44f097f2a3696fb81666b627b5097a69890da257ef63fb15ff41340c0d2201d9079147d846200009b565b620640ea620264a08801357f137dca4a1abc0597b35a5bc1335eecd827c1c6c22a30e20fadb1869f09192d457f0ee82caa2287ff86ea9c6060acdfc9ba4b6bdd682c50eaf0b03fdf71c06fba50846200009b565b6206413e620264c08801357f1951dc06ab2b64df0ef5d5e9f33a88b0d584b910d1d6984016b258c2a0aef3eb7f29be2796efaade9516d249d99fb49f4d2ce087379a8effb70cc0d1125351a34e846200009b565b62064192620264e08801357f0b049f05f26685449aeeabf66f5412e43b99b41bc98c162593a111e73c140a387f0f97953f05402fd27e01eca644d99e99ecffa59730c3dbaa5b5f92112a31212a846200009b565b620641e6620265008801357f13305ea66a22dd081587e974c5d91147ed287aeb20e84066fa0cdf6923fd173e7f16e119e5f7aeaded40c1cf8499d42a86a55e88b426b93d68286d15ddaa651a1a846200009b565b6206423a620265208801357f0575e2b8c81a256a1d2db7d4e570c09a198d6badfd0de4fe8e2db5f025d820517f22e7aabe82c07c02d7da43eacbaa207a769dde7a7e8c13fc4e7e56171b3389a9846200009b565b6206428e620265408801357f15b0adaa1ef2f19ace33b4c146c7f78ea3590824e01c22c59355130cc68b23637f14985660c5a1ab917b68113ba662260d1e236a65ca1755663abf2d46bb07647c846200009b565b620642e2620265608801357f08dc060b83330bc79e9df40e7f9b43db35e5116c8fabd93e86e98c3b058da9807f024a52971f55877c643013b02484a90a5c44cc7a66b5f58f274810355633a0bb846200009b565b62064336620265808801357f1b38101e24905799bad0e31e5b657a3af3cd5fdc1e55570e55c142b1b7952aa27f1009cfd460eb3f6bc106ce1700685070b7aab15d6bb715e5391b9ff7c2425d40846200009b565b6206438a620265a08801357f0a5679769b5e83eb03c78e44089e7582467981229f58364f76d67d98139ab1be7f1e21ed8c9232470960890a4b442eb532804cd95ef076b77d644ff5b67be31cad846200009b565b620643de620265c08801357f0c8b724142e9d0ba5b1173f4c72ce8d9e2c7a8664875e67503ce16ad0680ed9e7f246b2ec03d1da5c6e3052b7fb60ad2efaedc2fdc4804cc335e04e8948b0ff2c8846200009b565b62064432620265e08801357f238b091a9d57758fd97dc8e02f000bd2ce4b2633719ba9fae57e7b723f8e5cfb7f1a1402d5d3c3bb800c029a5db865c62f99ff44bdf6bd387871b74da8f2ff8c93846200009b565b62064486620266008801357f258d8a58b2b56af473f9dccf1269e347f35a18ed2795ced094fb93988d5df2477f1c6810920780a5085ecc76b1199b9c0bdc57735f2eba88b2cb6680b713e757d3846200009b565b620644da620266208801357f078877e336ff7ba569cc197a6ddcbb3df7be4114c6ff314e5a764425f6ba79ba7f1eda043e73186ee95bea499cdeb50e42f664ed3ba3101aca4b3aa9f9be77804a846200009b565b6206452e620266408801357f05c636ae09094c43a8de523becefccf4a0450b7ede4f083a36511e43845b84b47f17b2725e969959d358b2d9ec3fff57489b0f5ec9e561eea0946f28f2fbcfa324846200009b565b62064582620266608801357f146caa5855b64fc5d3a3cea2060540bd831f4a250fe32b02f5defc943c83d0787f0dee75c24fe90c0dcd36ae641c89526425abe25d725b7ef4701cdb0df9bfb926846200009b565b620645d6620266808801357f09ca29581722afb25e7ca79fa34ecc07a0ca16305a71d2670068a238db4d36e27f276e119ff8b7519d5f5597abf42d2e61349df71ea055a8d35ae935b7bb188008846200009b565b6206462a620266a08801357f23772b9ba3389432b7a1db39340e13dbf0f7953dc98f0f85f96a61a321af1e987f1af9656cc11b6a3efbd318e70ec25b17860525292972479ba1e83f6916690bd3846200009b565b6206467e620266c08801357f0cf4047f31b2b6a96798459d564333099232033f702a0661bdfd2e72560e65ec7f1df4fbd5be00820357b2c8b27147122e3dbce0b132e652fd5dc7bc28332b62a5846200009b565b620646d2620266e08801357f0607f9491721b158698b35373d42fd2de63d186b432d25c589966aaf41a2e65c7f02c32d609dcbf952b4e5b45c36389d46eac49903221cf4582cb507bc210b0e0e846200009b565b62064726620267008801357f26fe43d2b3d90bef144420db17081c022428c5dc6cd2dc5f67cd1a2a0a551c4e7f1793bfaf1fa3f36eca11e1b40e7dbe92afc2064deff9e2a0e982f91a46242a1e846200009b565b6206477a620267208801357f2ecb88b2c6f2cb3756ce56988386d8c68d0c2f03c0c91a015da83362c06a3c4a7f1a6a617db04d3a20b90fdc217a18b06249fe84a52a99671294a134ea7a231fdb846200009b565b620647ce620267408801357f1e93c4d4324981e70e8945a519018eb0942fa03749757f153d889862b8e2b33f7f14d1c70c32c8f999030508c488a9a0d4aec28c880f107cff9a3f6c62b6fd06c7846200009b565b62064822620267608801357f1b519c851d410875ad6330dccb0e04e17191152a34b6d69e74d13707c9bde4947f25b94b378cb0ce499112103a7e24715fc963ac5bd460e1e36497d90ef393c1bd846200009b565b62064876620267808801357f1dbbc3501ef27a5590b777f60b9d17f365c65d0867760cbd41cea6a109a540c97f0bcc950223d4a2047ab8c8726cf2abf78279659df1f492fe0981e6bd2b3061d7846200009b565b620648ca620267a08801357f2462a884bfdeb74069157fbe76497233a1821bca0295c0553c689a6031ca5ff87f036b7ffbe087c131b2ed37e96ac24bf4f05fa952cd53ea753eef062fc35bf854846200009b565b6206491d620267c08801357ebabe0a4528687d899c8f60b095f56eaa6ebfee3dd0cfed6c2acec37f2370aa7f213e62b26bb00598fac5288112a020ccaa61ef3419d542f43b75f52b9b221263846200009b565b62064971620267e08801357f0b606d53cce2a33f7415bfaad049f450378d33a00d5b6cf9a5c095ce4e451c277f2b4d174f223023073a0a73edbb893f1f929090cb6bd7a4a4ac6dc7415e03f509846200009b565b620649c5620268008801357f1127a4713e82fda7a5a81750db57da4a0847175c8a6f4f70134fc1013ff5ea587f1c168a96b99541b6843b9cbecd5e58df0dbe056e3bf182cdd0604fa2b6fcc7cc846200009b565b62064a19620268208801357f0cb67765212f2d70a892236199b6fd71c8858b527c037c2bcd654d5bb2820a737f010e1711df466385b3f4c5e0eac8bb31034d29272814b0bdc58e374f26f36f33846200009b565b62064a6d620268408801357f204545d14ecc99c700d6740ffd8a476c7a1832ee78f2fef435b98199163c7bb27f2f340e6b77bae641f80be0700bc8689a51f113a59ac180b80d0718a103afe748846200009b565b62064ac1620268608801357f0c5425ece5acc4413318488004ca95a0b4fe1330f9f74d02ab856aa66fd35add7f178708aeb652bfc05e1ac4d83ddaed803dc6a1122cf087788d0a234eab798c49846200009b565b62064b15620268808801357f2b21ddb776107f47dd19691145bf9acb1e151803a85f1ed77627e044e8558dba7f1ee77d320e5cbe2d1be4bb7a3fe5eeed7ac520f6bec755f30ce9962cf1b544c3846200009b565b62064b69620268a08801357f11891f90f96af0dc5c1e952bdae4051ec15cf5ecc3dcba17fb0b0dfb9f1631bd7f0cbf5268cff5c4adbec24297c536ae1533b6da64b2f73fdfea6904b17bc9afdf846200009b565b62064bbd620268c08801357f11eba3e4c0ccc770cd80e31d6fb815a60439aeb202d4e8a0576f5c683aee6c257f0caee0ae24189a91ee847a882b9b79ca0b53783f6e729ba62ac11a84a04160b6846200009b565b62064c11620268e08801357f04673109899c981c5a344e75b0675ed6f36e25e121d3f41b5013aa1c4ea5ef897f2db20ee1bdbdf7509f4fb29cde641510ea227531aaa8f31d0f16488fa4cdf05e846200009b565b62064c65620269008801357f0c5f6ff4e42b379160e035ac27e41eb6553ed317f881720bde07cb82c99cb3557f259f36b8d6fdf686b6c856ab2f91f6abf516c96af5b30012da5cf7ce0ed14ae7846200009b565b62064cb9620269208801357f052aeffee6915b980481d3b9ee8cd01708355dc02cf97d90b7887af2ceb3149b7f18d21bdedd97dfc17f5f8cd73a808c62f139433d610e7c8f0eef2415fee303a0846200009b565b62064d0d620269408801357f15a24fd65faba1d2d8dd5af974a4f90a1175cb0a4c1ca47b5e4bd33cc84eda6f7f08c80ec37d1b4fb3be730e25de8917ec702534918a56b90854dd094fb096b603846200009b565b62064d61620269608801357f1d92a73a6a1e2002249ae0097a1ff4b3a5f86d7913e3d21d27f685207b6f4bec7f074e643371b309d64c0bc277b5240c75c37b9e8d2813d1d526a67315a89d76e9846200009b565b62064db5620269808801357f0aaab8e591339036b43b4d22c9660d46e28bb5737a59b0a1695a50a6117d74707f2b1c94658dc776a1672bc4d6c8b2553b6ea1b1286093bc1d6caf74f4e01c6cbc846200009b565b62064e09620269a08801357f26e1fb78cab990e31c75b0634618fa1fa9fcbd5fd746a251d48f859efe4cd76d7f2a0e566b0f98ef01282536d820695ad7099b8ae83b361b67a36d04cf778bb357846200009b565b62064e5d620269c08801357f211e71b92293980c9db3fa6adedd98d2abfe4291f91ac5ff66976f942f2955c97f25e9b87efda46d53bb5496533ad453269094994e0c2bad1233e5b8e0400ba125846200009b565b62064eb1620269e08801357f2ffbb4a18b7f32dc7a3cba5389ba6e06d06e42e558f0e5d56b638c08eed4d9887f19ab6a9ededf063165f69fbad6b5ae9d1bf4ac71a3eb3ab3a0ad987bac61c08d846200009b565b62064f0562026a008801357f217a02f1eeef43ffaaefefad2c71afcbe81d1871d8f9ea6bebf53e0d3c7e0f807f1613ed2f8365e3587111e96952e88972ee79fbb61db1f601a809b0a7287e82ab846200009b565b62064f5962026a208801357f2fa7fe35671bb013d3c337139d7ff5b93fdf4f90a703aaa1e4565f5ac075ef837f05442c3c2317d87907402377ab34f495a0897c82f486d2e1ea99d40a5ab15094846200009b565b62064fad62026a408801357f0ecf91e8d725d8dfcec38c96aa4f2aeba002de280ff292e71a6e3deeb5670be97f11c6e939f10d126a994ec5d1b278fe51b2a0edf7ea60e51ce6de7b6ecb0272d4846200009b565b6206500162026a608801357f0f639bcb05d9427d8ee46b6d4e43dd652c9624c3019ff9ea469405442e616a517f2110a0c3aa2c6aeafb633ee9f28a66eea2a064a48e4e1a4a84a6dbe61b5b9fcb846200009b565b6206505562026a808801357f05ce58ec0329fe3e6bac4c930b77ce8c33bd23b56e944431ec6cc6d88e0a58677f145a515e7c353c91997a0c34ac31465490e29b8b24096bb694c61ce81355ac9c846200009b565b620650a962026aa08801357f0b9dcee280af499662d6a12742448fdaf4c0839ade8b24d94051e2521bbdbb227f0c8abfd93b4e519335432fdb89a6b1e319405836a9a3700e843d16f03c0e5174846200009b565b620650fd62026ac08801357f14cc16269b0e3523d633b83c3d39b088a9135eb5ff7a1df76d74252ebc612f4e7f203f2505fa9d148407c644faca054864d5f8ad9eb61ed8fc02d47719f5869937846200009b565b6206515162026ae08801357f01f6c7d86fe5613c466122beab5a2cfcd8036a9213bbd5c0eb175c75d97cd8427f0180344139696748fff494c53f08157075efe1b86f1bd487eae5162b6be06838846200009b565b620651a562026b008801357f2a623a0cbc697dad3b6d7f58d5304a4def3b273e6a7c55e41be043e6bd2228777f071bf0b2c4225da30a79f3521cab19cbf550f573197bebad785c007fb359f070846200009b565b620651f962026b208801357f1b35270b01681bd97d391f0f17a84990bd7cf8b60755f060f11d79ef404631f97f0da93e7c6c045460d06f9c77d3192f86df666e3a048d3f54eb1caefa5dda4012846200009b565b6206524d62026b408801357f27d3ac4d1617560afb2a7cef8428e1ac89c60186698af21e0952f6e5085874727f17c6dc28e248538a57ded3a77de0ecbcc5f2496b98db7f9bf9bc58a9d80f029c846200009b565b620652a162026b608801357f13afc48f1e70cabae4b197fe22720e88050c6470eb00366febe9b39416bbf35f7f0de260d3c30bcb74014869fbe74d9805f1d9576fb52a515e2c09d1dc15d04a56846200009b565b620652f562026b808801357f1b584e7749666c50b31550fce999ca67230a7d21635ebffc4683f30f2a4920ad7f0ba8426d16b488c4dcc6ef6383ea9a4c2fcf8b36ca5208d4cc46e2e55602af66846200009b565b6206534962026ba08801357f2c6e034a3c660f507ab101493d430b21dd2c0e80346f12ffe6fc5c9552d9bf317f1062dc25442258850103c4adb7c4b643ea4c35e6abe92b707d774babf6a6ab9f846200009b565b6206539d62026bc08801357f2c3ed1994e4626116365fa75b5b9d24b6bfd38617b1904cf40857b8122f4d29a7f25d6bcbf2dc5e84c12681885344a2d05a79185f4329554fdb8b3d878a95dcc93846200009b565b620653f162026be08801357f1e9633b4d3b826e6e96c4116e8a8f64265b543fd4ce85193a825faacd05db75f7f14b41a095e979dd39a8cec2c27ade70d59d8ed77874bd3ff56f0064eefa11f3d846200009b565b6206544562026c008801357f1b1a179af7379c4537689a10a312cb2fac7cb6648f32c11ce4987651fa7f50977f23bbbe7535a1d89c4a2712a1cf136d5ca8e50326fafac77b140541ae8c0792e6846200009b565b6206549962026c208801357f0d003c794c03a66e21e0b5af07900f0e6e1364f9aac9ad98bf9fb34072623efb7f2be9f949b554366d71a5c4fa6b40872cfbc54030df6620a26e827a0566ab2a71846200009b565b620654ed62026c408801357f1244924fc2b839eada8e7827b9edd9570744af8b5abbe5bdb338b88a4bfe6fc97f180bb1acfe2c736a818399364d0e03697e3513b1c8d7fe8e9c7237f3fe1ac895846200009b565b6206554162026c608801357f0f41146be2eda8cc6cb0fba2c6ef5c01e0319970cc2d4b92b0a243ff82c82e477f2e7a162cca2d10154f02e096cf628c300a59e9a41a15f2b3ddd064aebd531e69846200009b565b6206559562026c808801357f2736a401bd54883555e6fad8b568fdfe2e85427f69fafedde74e84ec2fe621fe7f119a9a5632302c746ce70487c2fdb30ff10ec5889284e3cfdb30b1bf1cf631e6846200009b565b620655e962026ca08801357f16eea4f17b0cb7e609bbb263a8f04452454cb5347bda0349ae8f7fb0b8253c427f244a7b4d957ac3324d803e6d66633ab17235ce8db3ea1a872e432fde611a884b846200009b565b6206563d62026cc08801357f093ca4cc51f360f4a0be78e21865c6ace2a02af93477a1d20bc3dbe49a4647787f14970193546bddfc1c6524ac0bf347fe97c6728f6beb27b0371fc1dd6b57f4d6846200009b565b6206569162026ce08801357f074f5819c02b05e248769bdb7670dde6991325483b93a9bda83b33f7a14ca5587f071e87362842acbb60744c717babdbca9e397631cf0baca008fee87f4bcd90a2846200009b565b620656e562026d008801357f207c80f1c7ed040a4714b78d258b86236db19d9ee4a2ec4d67f8717bf9d5c0127f0b397a908171e04bc94d9f21398429d43b71584a4302f9dbfa0e3241c610d385846200009b565b6206573962026d208801357f0e8e9b700fe97e9c4602f3237ed28d8a90a16630d4a760dd08838578e009f4167f13313398e562c07d6b2af5a2954b18f7a0b5f8c1d2af081b1527070f9b645bc8846200009b565b6206578d62026d408801357f1aac53958d7230f993e4c538f6809c21b8c4a9e8c204e78d2e9e9c23977c33df7f088b1bbc3a816fcc72c544b19434a321d6f5f8947ceb51502403f6b597cc7c1e846200009b565b620657e162026d608801357f2dd3356f56f11b28533d1838d0bca1921eb7cf41766ae6b84a1c631b361a35907f1b7ff88da5fb6aedbce5271592cfc68a2acc737accd929c4eabd4a7adb59ec03846200009b565b6206583562026d808801357f0a7253ed16a48fed6a0541b05f977155b9d50b64c0a5755b48bf8a8499f6db107f1da118d34ce1024857fc56f53cd100ece37040d86226b9b1e1af8f1a00d18de1846200009b565b6206588962026da08801357f2bab17a7bc68e216c9683021070f7c0658768e2e9751185982f43375473e75cb7f2633f3a58f39fd68f6d5e725b9e6a969bb993b5573aa90fccb9e4d578ceb0321846200009b565b620658dd62026dc08801357f05750a78ee1b9adb816700d115885db2eeff91ae1bcb03a2ea2a924b0704f4a57f149e384d5b378be1a0c6796530313ab3eb7f9e9eb2ac44e801af7e2422374cb3846200009b565b6206593162026de08801357f20d9a2286792721cd260334262d0c8cad8ede72342b6710939680d1e781860457f0bab51e9a5c51f2a3d7f3849830cc01d642f203537568befbc8b4a6556200f5b846200009b565b6206598562026e008801357f04c1cb176e52a4168d840014d27407dfcaa9a2720c9ca9a8cf4b44ced02f3a097f18ea42d5f213bcac8225f5e9ec0b25cf53a1f75c0ef63bd4697e5d9e01f2f7d0846200009b565b620659d962026e208801357f248be45f8e8344d85d50aa98ab88d9ca90c544f11d5bba6c53aa7837bd1cc2967f2fd4f18d51e315ad91458720ce9f807d364bfabba1af71da70ef843033beb3f4846200009b565b62065a2d62026e408801357f1706ec2fad1058752a69cd015c15b4e352ee50dc3725779ca66e24fffd8243da7f0b07b36d4d39c02dba51fb80650d90814b9ea5083e83622455402f18081740b1846200009b565b62065a8162026e608801357f215abf2bc52fe4efaac2f29558116ea9175f57d844639b4840b8529bbd468d9b7f0620a1d81600775c73588171f5a11caa80cc327ec2ee2c0cb4af8b91147e4de6846200009b565b62065ad562026e808801357f2813c2853bb72bc8f0e0d9dc4e9238b2b5496bb21e5995410782252785770ad57f248e722b0a96a31fc7895d56f017453dd34c3bd07660f1f0b7c7df97fd1f87c5846200009b565b62065b2962026ea08801357f2970b4df3d7eed67c4105fa584690f518fa82d1d32915eb586665de98b5052037f24ec223289d094d28426d666dc01fccefd0c1d3d4377189db19046aed96ac966846200009b565b62065b7d62026ec08801357f21f6f12c53f1a1cbc68fce9a3a4091fc4a015079245dda69486e16b31f5e14b37f1bd0ae77c1d2fd3386d2dda4598057869080cac826372b51d4b788c49b9bf2d3846200009b565b62065bd162026ee08801357f05f1e73d3ba99e4abea252cd3889eac964969c323a22bf898ed4b53ebdfa7fd87f010b151925527e08523bcdbec4b3e87ab339b559dad2971c489e46aee5da112c846200009b565b62065c2562026f008801357f1752c32589cbb10553e2b9e90de893e065de31b2425a7c84407d7975a31901da7f1b2fe380c69d1efdf6847ef73617a8a3422ba0df5038f47a7d253845e0b43519846200009b565b62065c7962026f208801357f2b8180d1aaa8cb7aa1d1d1d3066d4fa17e9f97660fd2d6ba23869fa12d4ea8067f1954f295323a98ebfa9c949a3b9dc323e7db2043d49a9047f1766471115a23bc846200009b565b62065ccd62026f408801357f12b75cc95c3c25fe703077142f8cac1625d786a09b0c3087802d9c1b942025087f117d097638cb1d83f683b4b7493673ca0f9cc676387728aef69c72c69e8838aa846200009b565b62065d2162026f608801357f14a3443d4e48812625331c0d0826ac35b7f2c177ae075316b40cb240e40481c07f2b8cbab4f8ba7111c8dd8c80643ac0e14fd35ca3af7dc48db5da61b543a7a7e0846200009b565b62065d7562026f808801357f0dee03b055e4860061a5c04d1f0439562bf59685d2932d32278664b3c202691c7f1cebdb0b01bd990752455d85eaea9603b14d8f187b8cb82986c2d55cacdb4689846200009b565b62065dc962026fa08801357f23027739f3125605a2a856ce8acd3646b66243db66a646314928f2a02626ae3f7f1fbffdeb543aebf01fb6026c8e1081815675b76d29933a4f290ace61a11c18b8846200009b565b62065e1d62026fc08801357f03438df72d06274bbeb88061f2c768881b654e541e08832da68dbe56ca9752487f0f9a46d12350685416d15323197889591128c5333aa855ad926bf181220dc0d4846200009b565b62065e7162026fe08801357f057a1471433288b089aeed1419f75994bb2ad5eb291a5d6c959503a30ed1837d7f217c9799cb8702929340c4820fe4e094f55a8267b9d31e3529fc453321a55eed846200009b565b62065ec5620270008801357f2f18025be15ea12b8176003379bf19128ca218b44f60495e997c4060e4b7de5d7f10e91f08a7cc54ba6e098de6036ff3804a5469d15afc23cd731083afc8bac9e2846200009b565b62065f19620270208801357f2efa932d51766801e8741c077b7aa29e73b0cde9e4a09c939479c0b3d868c0797f1df351a79c8529becc86f9739312f28e8bdec049417d339cac89e329f7723863846200009b565b62065f6d620270408801357f18c83f20637c8059576f8a0ce7431e1fa42f1f32587a56b9278e2c26fd789eef7f252bda2ecd61fcc9605c6a8f34b2e6c9a826d6d21fcf6ef7f05065df19bf5b97846200009b565b62065fc1620270608801357f29fa0883e2dd54315467e6de998d4a42adcb335be3b7e1e07948f8270da295c87f15be08b89bca220166c926b0ddc06dd50754374d53f0cdaec322e4353601caea846200009b565b62066015620270808801357f1b0a881dea70fd705c39c1213d382e7ba1792d6ba53d69e018a697026f3c32737f086110c259356af02a37a15691ef891d14e5f352caeb1f163ac3d83532939924846200009b565b62066069620270a08801357f05268f45877c13f620eb0bf3882d662fda2a4329fdb4803f1a098ab2d7d2daee7f28f882986a850fa2093ed868c603c2a087869e3dbdcc697bb017745fd8ca4cbc846200009b565b620660bd620270c08801357f2fee86cc1b324598fe4b2309919c4425c19715d2db7457cd47aeeba08e7512857f043a590c25b09a27253c0c9110ca9d888fd5fb502ded4c8751522b61c7608b45846200009b565b62066110620270e08801357f1d5b5da2c28def8cb34089ca038f4568812861c1781dbbd94dffe2901e1576ab7e84410a2f759d6aba29e46bdd636d831223230281b782f77011dcebd383e47d846200009b565b62066164620271008801357f18c14d4d5904ac26196116ad1f6732fc38d57b4910318c6610e22b89517cf8297f240b6df630609de373b2364706a50f2e139cdfd000502647e1d0578ae653909a846200009b565b50823581527f30644e72e131a029b85045b68181585d97816a916871ca8d3c208c16d87cfd4760208401357f30644e72e131a029b85045b68181585d97816a916871ca8d3c208c16d87cfd4703066020820152833560408201526020840135606082015260408401356080820152606084013560a08201527f2d4d9aa7e302d9df41749d5507949d05dbea33fbb16c643b22f599a2be6df2e260c08201527f14bedd503c37ceb061d8ec60209fe345ce89830a19230301f076caff004d192660e08201527f0967032fcbf776d1afc985f88877f182d38480a653f2decaa9794cbc3bf3060c6101008201527f0e187847ad4c798374d0d6732bf501847dd68bc0e071241e0213bc7fc13db7ab6101208201527f304cfbd1e08a704a99f5e847d93f8c3caafddec46b7a0d379da69a4d112346a76101408201527f1739c1b1a457a8c7313123d24d2f9192f896b7c63eea05a9d57f06547ad0cec8610160820152600087015161018082015260206000018701516101a08201527f198e9393920d483a7260bfb731fb5d25f1aa493335a9e71297e485b7aef312c26101c08201527f1800deef121f1e76426a00665e5c4479674322d4f75edadd46debd5cd992f6ed6101e08201527f090689d0585ff075ec9e99ad690c3395bc4b313370b38ef355acdadcd122975b6102008201527f12c85ea5db8c6deb4aab71808dcb408fe3d1e7690c43d37b4ce6cc0166fa7daa610220820152843561024082015260208501356102608201527f2941e0226561eaae2ce2e54ba8ea1e830400dc0b8cfa93468ae335be0a61a2bf6102808201527f1ee6f00632bfab7ea491b282d84b7ee962e4e1c4d473db78112fbde87fe0507f6102a08201527f14632b7aba44431ce46d2cccb3bd3ef2e2bd45cb8a3455aff3db4b58e9566f8f6102c08201527f1a8827059f6f58ac13bc1efbf41f96d64d346985ce6e5154ef1185e31772d7116102e08201526020816103008360086107d05a03fa9051169695505050505050565b60405161038081016040526206645e600084013562000066565b6206646d602084013562000066565b6206647c604084013562000066565b6206648b606084013562000066565b6206649a608084013562000066565b620664a960a084013562000066565b620664b860c084013562000066565b620664c760e084013562000066565b620664d761010084013562000066565b620664e761012084013562000066565b620664f761014084013562000066565b6206650761016084013562000066565b6206651761018084013562000066565b620665276101a084013562000066565b620665376101c084013562000066565b620665476101e084013562000066565b6206655761020084013562000066565b6206656761022084013562000066565b6206657761024084013562000066565b6206658761026084013562000066565b6206659761028084013562000066565b620665a76102a084013562000066565b620665b76102c084013562000066565b620665c76102e084013562000066565b620665d761030084013562000066565b620665e761032084013562000066565b620665f761034084013562000066565b6206660761036084013562000066565b6206661761038084013562000066565b620666276103a084013562000066565b620666376103c084013562000066565b620666476103e084013562000066565b6206665761040084013562000066565b6206666761042084013562000066565b6206667761044084013562000066565b6206668761046084013562000066565b6206669761048084013562000066565b620666a76104a084013562000066565b620666b76104c084013562000066565b620666c76104e084013562000066565b620666d761050084013562000066565b620666e761052084013562000066565b620666f761054084013562000066565b6206670761056084013562000066565b6206671761058084013562000066565b620667276105a084013562000066565b620667376105c084013562000066565b620667476105e084013562000066565b6206675761060084013562000066565b6206676761062084013562000066565b6206677761064084013562000066565b6206678761066084013562000066565b6206679761068084013562000066565b620667a76106a084013562000066565b620667b76106c084013562000066565b620667c76106e084013562000066565b620667d761070084013562000066565b620667e761072084013562000066565b620667f761074084013562000066565b6206680761076084013562000066565b6206681761078084013562000066565b620668276107a084013562000066565b620668376107c084013562000066565b620668476107e084013562000066565b6206685761080084013562000066565b6206686761082084013562000066565b6206687761084084013562000066565b6206688761086084013562000066565b6206689761088084013562000066565b620668a76108a084013562000066565b620668b76108c084013562000066565b620668c76108e084013562000066565b620668d761090084013562000066565b620668e761092084013562000066565b620668f761094084013562000066565b6206690761096084013562000066565b6206691761098084013562000066565b620669276109a084013562000066565b620669376109c084013562000066565b620669476109e084013562000066565b62066957610a0084013562000066565b62066967610a2084013562000066565b62066977610a4084013562000066565b62066987610a6084013562000066565b62066997610a8084013562000066565b620669a7610aa084013562000066565b620669b7610ac084013562000066565b620669c7610ae084013562000066565b620669d7610b0084013562000066565b620669e7610b2084013562000066565b620669f7610b4084013562000066565b62066a07610b6084013562000066565b62066a17610b8084013562000066565b62066a27610ba084013562000066565b62066a37610bc084013562000066565b62066a47610be084013562000066565b62066a57610c0084013562000066565b62066a67610c2084013562000066565b62066a77610c4084013562000066565b62066a87610c6084013562000066565b62066a97610c8084013562000066565b62066aa7610ca084013562000066565b62066ab7610cc084013562000066565b62066ac7610ce084013562000066565b62066ad7610d0084013562000066565b62066ae7610d2084013562000066565b62066af7610d4084013562000066565b62066b07610d6084013562000066565b62066b17610d8084013562000066565b62066b27610da084013562000066565b62066b37610dc084013562000066565b62066b47610de084013562000066565b62066b57610e0084013562000066565b62066b67610e2084013562000066565b62066b77610e4084013562000066565b62066b87610e6084013562000066565b62066b97610e8084013562000066565b62066ba7610ea084013562000066565b62066bb7610ec084013562000066565b62066bc7610ee084013562000066565b62066bd7610f0084013562000066565b62066be7610f2084013562000066565b62066bf7610f4084013562000066565b62066c07610f6084013562000066565b62066c17610f8084013562000066565b62066c27610fa084013562000066565b62066c37610fc084013562000066565b62066c47610fe084013562000066565b62066c5761100084013562000066565b62066c6761102084013562000066565b62066c7761104084013562000066565b62066c8761106084013562000066565b62066c9761108084013562000066565b62066ca76110a084013562000066565b62066cb76110c084013562000066565b62066cc76110e084013562000066565b62066cd761110084013562000066565b62066ce761112084013562000066565b62066cf761114084013562000066565b62066d0761116084013562000066565b62066d1761118084013562000066565b62066d276111a084013562000066565b62066d376111c084013562000066565b62066d476111e084013562000066565b62066d5761120084013562000066565b62066d6761122084013562000066565b62066d7761124084013562000066565b62066d8761126084013562000066565b62066d9761128084013562000066565b62066da76112a084013562000066565b62066db76112c084013562000066565b62066dc76112e084013562000066565b62066dd761130084013562000066565b62066de761132084013562000066565b62066df761134084013562000066565b62066e0761136084013562000066565b62066e1761138084013562000066565b62066e276113a084013562000066565b62066e376113c084013562000066565b62066e476113e084013562000066565b62066e5761140084013562000066565b62066e6761142084013562000066565b62066e7761144084013562000066565b62066e8761146084013562000066565b62066e9761148084013562000066565b62066ea76114a084013562000066565b62066eb76114c084013562000066565b62066ec76114e084013562000066565b62066ed761150084013562000066565b62066ee761152084013562000066565b62066ef761154084013562000066565b62066f0761156084013562000066565b62066f1761158084013562000066565b62066f276115a084013562000066565b62066f376115c084013562000066565b62066f476115e084013562000066565b62066f5761160084013562000066565b62066f6761162084013562000066565b62066f7761164084013562000066565b62066f8761166084013562000066565b62066f9761168084013562000066565b62066fa76116a084013562000066565b62066fb76116c084013562000066565b62066fc76116e084013562000066565b62066fd761170084013562000066565b62066fe761172084013562000066565b62066ff761174084013562000066565b6206700761176084013562000066565b6206701761178084013562000066565b620670276117a084013562000066565b620670376117c084013562000066565b620670476117e084013562000066565b6206705761180084013562000066565b6206706761182084013562000066565b6206707761184084013562000066565b6206708761186084013562000066565b6206709761188084013562000066565b620670a76118a084013562000066565b620670b76118c084013562000066565b620670c76118e084013562000066565b620670d761190084013562000066565b620670e761192084013562000066565b620670f761194084013562000066565b6206710761196084013562000066565b6206711761198084013562000066565b620671276119a084013562000066565b620671376119c084013562000066565b620671476119e084013562000066565b62067157611a0084013562000066565b62067167611a2084013562000066565b62067177611a4084013562000066565b62067187611a6084013562000066565b62067197611a8084013562000066565b620671a7611aa084013562000066565b620671b7611ac084013562000066565b620671c7611ae084013562000066565b620671d7611b0084013562000066565b620671e7611b2084013562000066565b620671f7611b4084013562000066565b62067207611b6084013562000066565b62067217611b8084013562000066565b62067227611ba084013562000066565b62067237611bc084013562000066565b62067247611be084013562000066565b62067257611c0084013562000066565b62067267611c2084013562000066565b62067277611c4084013562000066565b62067287611c6084013562000066565b62067297611c8084013562000066565b620672a7611ca084013562000066565b620672b7611cc084013562000066565b620672c7611ce084013562000066565b620672d7611d0084013562000066565b620672e7611d2084013562000066565b620672f7611d4084013562000066565b62067307611d6084013562000066565b62067317611d8084013562000066565b62067327611da084013562000066565b62067337611dc084013562000066565b62067347611de084013562000066565b62067357611e0084013562000066565b62067367611e2084013562000066565b62067377611e4084013562000066565b62067387611e6084013562000066565b62067397611e8084013562000066565b620673a7611ea084013562000066565b620673b7611ec084013562000066565b620673c7611ee084013562000066565b620673d7611f0084013562000066565b620673e7611f2084013562000066565b620673f7611f4084013562000066565b62067407611f6084013562000066565b62067417611f8084013562000066565b62067427611fa084013562000066565b62067437611fc084013562000066565b62067447611fe084013562000066565b6206745761200084013562000066565b6206746761202084013562000066565b6206747761204084013562000066565b6206748761206084013562000066565b6206749761208084013562000066565b620674a76120a084013562000066565b620674b76120c084013562000066565b620674c76120e084013562000066565b620674d761210084013562000066565b620674e761212084013562000066565b620674f761214084013562000066565b6206750761216084013562000066565b6206751761218084013562000066565b620675276121a084013562000066565b620675376121c084013562000066565b620675476121e084013562000066565b6206755761220084013562000066565b6206756761222084013562000066565b6206757761224084013562000066565b6206758761226084013562000066565b6206759761228084013562000066565b620675a76122a084013562000066565b620675b76122c084013562000066565b620675c76122e084013562000066565b620675d761230084013562000066565b620675e761232084013562000066565b620675f761234084013562000066565b6206760761236084013562000066565b6206761761238084013562000066565b620676276123a084013562000066565b620676376123c084013562000066565b620676476123e084013562000066565b6206765761240084013562000066565b6206766761242084013562000066565b6206767761244084013562000066565b6206768761246084013562000066565b6206769761248084013562000066565b620676a76124a084013562000066565b620676b76124c084013562000066565b620676c76124e084013562000066565b620676d761250084013562000066565b620676e761252084013562000066565b620676f761254084013562000066565b6206770761256084013562000066565b6206771761258084013562000066565b620677276125a084013562000066565b620677376125c084013562000066565b620677476125e084013562000066565b6206775761260084013562000066565b6206776761262084013562000066565b6206777761264084013562000066565b6206778761266084013562000066565b6206779761268084013562000066565b620677a76126a084013562000066565b620677b76126c084013562000066565b620677c76126e084013562000066565b620677d761270084013562000066565b620677e761272084013562000066565b620677f761274084013562000066565b6206780761276084013562000066565b6206781761278084013562000066565b620678276127a084013562000066565b620678376127c084013562000066565b620678476127e084013562000066565b6206785761280084013562000066565b6206786761282084013562000066565b6206787761284084013562000066565b6206788761286084013562000066565b6206789761288084013562000066565b620678a76128a084013562000066565b620678b76128c084013562000066565b620678c76128e084013562000066565b620678d761290084013562000066565b620678e761292084013562000066565b620678f761294084013562000066565b6206790761296084013562000066565b6206791761298084013562000066565b620679276129a084013562000066565b620679376129c084013562000066565b620679476129e084013562000066565b62067957612a0084013562000066565b62067967612a2084013562000066565b62067977612a4084013562000066565b62067987612a6084013562000066565b62067997612a8084013562000066565b620679a7612aa084013562000066565b620679b7612ac084013562000066565b620679c7612ae084013562000066565b620679d7612b0084013562000066565b620679e7612b2084013562000066565b620679f7612b4084013562000066565b62067a07612b6084013562000066565b62067a17612b8084013562000066565b62067a27612ba084013562000066565b62067a37612bc084013562000066565b62067a47612be084013562000066565b62067a57612c0084013562000066565b62067a67612c2084013562000066565b62067a77612c4084013562000066565b62067a87612c6084013562000066565b62067a97612c8084013562000066565b62067aa7612ca084013562000066565b62067ab7612cc084013562000066565b62067ac7612ce084013562000066565b62067ad7612d0084013562000066565b62067ae7612d2084013562000066565b62067af7612d4084013562000066565b62067b07612d6084013562000066565b62067b17612d8084013562000066565b62067b27612da084013562000066565b62067b37612dc084013562000066565b62067b47612de084013562000066565b62067b57612e0084013562000066565b62067b67612e2084013562000066565b62067b77612e4084013562000066565b62067b87612e6084013562000066565b62067b97612e8084013562000066565b62067ba7612ea084013562000066565b62067bb7612ec084013562000066565b62067bc7612ee084013562000066565b62067bd7612f0084013562000066565b62067be7612f2084013562000066565b62067bf7612f4084013562000066565b62067c07612f6084013562000066565b62067c17612f8084013562000066565b62067c27612fa084013562000066565b62067c37612fc084013562000066565b62067c47612fe084013562000066565b62067c5761300084013562000066565b62067c6761302084013562000066565b62067c7761304084013562000066565b62067c8761306084013562000066565b62067c9761308084013562000066565b62067ca76130a084013562000066565b62067cb76130c084013562000066565b62067cc76130e084013562000066565b62067cd761310084013562000066565b62067ce761312084013562000066565b62067cf761314084013562000066565b62067d0761316084013562000066565b62067d1761318084013562000066565b62067d276131a084013562000066565b62067d376131c084013562000066565b62067d476131e084013562000066565b62067d5761320084013562000066565b62067d6761322084013562000066565b62067d7761324084013562000066565b62067d8761326084013562000066565b62067d9761328084013562000066565b62067da76132a084013562000066565b62067db76132c084013562000066565b62067dc76132e084013562000066565b62067dd761330084013562000066565b62067de761332084013562000066565b62067df761334084013562000066565b62067e0761336084013562000066565b62067e1761338084013562000066565b62067e276133a084013562000066565b62067e376133c084013562000066565b62067e476133e084013562000066565b62067e5761340084013562000066565b62067e6761342084013562000066565b62067e7761344084013562000066565b62067e8761346084013562000066565b62067e9761348084013562000066565b62067ea76134a084013562000066565b62067eb76134c084013562000066565b62067ec76134e084013562000066565b62067ed761350084013562000066565b62067ee761352084013562000066565b62067ef761354084013562000066565b62067f0761356084013562000066565b62067f1761358084013562000066565b62067f276135a084013562000066565b62067f376135c084013562000066565b62067f476135e084013562000066565b62067f5761360084013562000066565b62067f6761362084013562000066565b62067f7761364084013562000066565b62067f8761366084013562000066565b62067f9761368084013562000066565b62067fa76136a084013562000066565b62067fb76136c084013562000066565b62067fc76136e084013562000066565b62067fd761370084013562000066565b62067fe761372084013562000066565b62067ff761374084013562000066565b6206800761376084013562000066565b6206801761378084013562000066565b620680276137a084013562000066565b620680376137c084013562000066565b620680476137e084013562000066565b6206805761380084013562000066565b6206806761382084013562000066565b6206807761384084013562000066565b6206808761386084013562000066565b6206809761388084013562000066565b620680a76138a084013562000066565b620680b76138c084013562000066565b620680c76138e084013562000066565b620680d761390084013562000066565b620680e761392084013562000066565b620680f761394084013562000066565b6206810761396084013562000066565b6206811761398084013562000066565b620681276139a084013562000066565b620681376139c084013562000066565b620681476139e084013562000066565b62068157613a0084013562000066565b62068167613a2084013562000066565b62068177613a4084013562000066565b62068187613a6084013562000066565b62068197613a8084013562000066565b620681a7613aa084013562000066565b620681b7613ac084013562000066565b620681c7613ae084013562000066565b620681d7613b0084013562000066565b620681e7613b2084013562000066565b620681f7613b4084013562000066565b62068207613b6084013562000066565b62068217613b8084013562000066565b62068227613ba084013562000066565b62068237613bc084013562000066565b62068247613be084013562000066565b62068257613c0084013562000066565b62068267613c2084013562000066565b62068277613c4084013562000066565b62068287613c6084013562000066565b62068297613c8084013562000066565b620682a7613ca084013562000066565b620682b7613cc084013562000066565b620682c7613ce084013562000066565b620682d7613d0084013562000066565b620682e7613d2084013562000066565b620682f7613d4084013562000066565b62068307613d6084013562000066565b62068317613d8084013562000066565b62068327613da084013562000066565b62068337613dc084013562000066565b62068347613de084013562000066565b62068357613e0084013562000066565b62068367613e2084013562000066565b62068377613e4084013562000066565b62068387613e6084013562000066565b62068397613e8084013562000066565b620683a7613ea084013562000066565b620683b7613ec084013562000066565b620683c7613ee084013562000066565b620683d7613f0084013562000066565b620683e7613f2084013562000066565b620683f7613f4084013562000066565b62068407613f6084013562000066565b62068417613f8084013562000066565b62068427613fa084013562000066565b62068437613fc084013562000066565b62068447613fe084013562000066565b6206845761400084013562000066565b6206846761402084013562000066565b6206847761404084013562000066565b6206848761406084013562000066565b6206849761408084013562000066565b620684a76140a084013562000066565b620684b76140c084013562000066565b620684c76140e084013562000066565b620684d761410084013562000066565b620684e761412084013562000066565b620684f761414084013562000066565b6206850761416084013562000066565b6206851761418084013562000066565b620685276141a084013562000066565b620685376141c084013562000066565b620685476141e084013562000066565b6206855761420084013562000066565b6206856761422084013562000066565b6206857761424084013562000066565b6206858761426084013562000066565b6206859761428084013562000066565b620685a76142a084013562000066565b620685b76142c084013562000066565b620685c76142e084013562000066565b620685d761430084013562000066565b620685e761432084013562000066565b620685f761434084013562000066565b6206860761436084013562000066565b6206861761438084013562000066565b620686276143a084013562000066565b620686376143c084013562000066565b620686476143e084013562000066565b6206865761440084013562000066565b6206866761442084013562000066565b6206867761444084013562000066565b6206868761446084013562000066565b6206869761448084013562000066565b620686a76144a084013562000066565b620686b76144c084013562000066565b620686c76144e084013562000066565b620686d761450084013562000066565b620686e761452084013562000066565b620686f761454084013562000066565b6206870761456084013562000066565b6206871761458084013562000066565b620687276145a084013562000066565b620687376145c084013562000066565b620687476145e084013562000066565b6206875761460084013562000066565b6206876761462084013562000066565b6206877761464084013562000066565b6206878761466084013562000066565b6206879761468084013562000066565b620687a76146a084013562000066565b620687b76146c084013562000066565b620687c76146e084013562000066565b620687d761470084013562000066565b620687e761472084013562000066565b620687f761474084013562000066565b6206880761476084013562000066565b6206881761478084013562000066565b620688276147a084013562000066565b620688376147c084013562000066565b620688476147e084013562000066565b6206885761480084013562000066565b6206886761482084013562000066565b6206887761484084013562000066565b6206888761486084013562000066565b6206889761488084013562000066565b620688a76148a084013562000066565b620688b76148c084013562000066565b620688c76148e084013562000066565b620688d761490084013562000066565b620688e761492084013562000066565b620688f761494084013562000066565b6206890761496084013562000066565b6206891761498084013562000066565b620689276149a084013562000066565b620689376149c084013562000066565b620689476149e084013562000066565b62068957614a0084013562000066565b62068967614a2084013562000066565b62068977614a4084013562000066565b62068987614a6084013562000066565b62068997614a8084013562000066565b620689a7614aa084013562000066565b620689b7614ac084013562000066565b620689c7614ae084013562000066565b620689d7614b0084013562000066565b620689e7614b2084013562000066565b620689f7614b4084013562000066565b62068a07614b6084013562000066565b62068a17614b8084013562000066565b62068a27614ba084013562000066565b62068a37614bc084013562000066565b62068a47614be084013562000066565b62068a57614c0084013562000066565b62068a67614c2084013562000066565b62068a77614c4084013562000066565b62068a87614c6084013562000066565b62068a97614c8084013562000066565b62068aa7614ca084013562000066565b62068ab7614cc084013562000066565b62068ac7614ce084013562000066565b62068ad7614d0084013562000066565b62068ae7614d2084013562000066565b62068af7614d4084013562000066565b62068b07614d6084013562000066565b62068b17614d8084013562000066565b62068b27614da084013562000066565b62068b37614dc084013562000066565b62068b47614de084013562000066565b62068b57614e0084013562000066565b62068b67614e2084013562000066565b62068b77614e4084013562000066565b62068b87614e6084013562000066565b62068b97614e8084013562000066565b62068ba7614ea084013562000066565b62068bb7614ec084013562000066565b62068bc7614ee084013562000066565b62068bd7614f0084013562000066565b62068be7614f2084013562000066565b62068bf7614f4084013562000066565b62068c07614f6084013562000066565b62068c17614f8084013562000066565b62068c27614fa084013562000066565b62068c37614fc084013562000066565b62068c47614fe084013562000066565b62068c5761500084013562000066565b62068c6761502084013562000066565b62068c7761504084013562000066565b62068c8761506084013562000066565b62068c9761508084013562000066565b62068ca76150a084013562000066565b62068cb76150c084013562000066565b62068cc76150e084013562000066565b62068cd761510084013562000066565b62068ce761512084013562000066565b62068cf761514084013562000066565b62068d0761516084013562000066565b62068d1761518084013562000066565b62068d276151a084013562000066565b62068d376151c084013562000066565b62068d476151e084013562000066565b62068d5761520084013562000066565b62068d6761522084013562000066565b62068d7761524084013562000066565b62068d8761526084013562000066565b62068d9761528084013562000066565b62068da76152a084013562000066565b62068db76152c084013562000066565b62068dc76152e084013562000066565b62068dd761530084013562000066565b62068de761532084013562000066565b62068df761534084013562000066565b62068e0761536084013562000066565b62068e1761538084013562000066565b62068e276153a084013562000066565b62068e376153c084013562000066565b62068e476153e084013562000066565b62068e5761540084013562000066565b62068e6761542084013562000066565b62068e7761544084013562000066565b62068e8761546084013562000066565b62068e9761548084013562000066565b62068ea76154a084013562000066565b62068eb76154c084013562000066565b62068ec76154e084013562000066565b62068ed761550084013562000066565b62068ee761552084013562000066565b62068ef761554084013562000066565b62068f0761556084013562000066565b62068f1761558084013562000066565b62068f276155a084013562000066565b62068f376155c084013562000066565b62068f476155e084013562000066565b62068f5761560084013562000066565b62068f6761562084013562000066565b62068f7761564084013562000066565b62068f8761566084013562000066565b62068f9761568084013562000066565b62068fa76156a084013562000066565b62068fb76156c084013562000066565b62068fc76156e084013562000066565b62068fd761570084013562000066565b62068fe761572084013562000066565b62068ff761574084013562000066565b6206900761576084013562000066565b6206901761578084013562000066565b620690276157a084013562000066565b620690376157c084013562000066565b620690476157e084013562000066565b6206905761580084013562000066565b6206906761582084013562000066565b6206907761584084013562000066565b6206908761586084013562000066565b6206909761588084013562000066565b620690a76158a084013562000066565b620690b76158c084013562000066565b620690c76158e084013562000066565b620690d761590084013562000066565b620690e761592084013562000066565b620690f761594084013562000066565b6206910761596084013562000066565b6206911761598084013562000066565b620691276159a084013562000066565b620691376159c084013562000066565b620691476159e084013562000066565b62069157615a0084013562000066565b62069167615a2084013562000066565b62069177615a4084013562000066565b62069187615a6084013562000066565b62069197615a8084013562000066565b620691a7615aa084013562000066565b620691b7615ac084013562000066565b620691c7615ae084013562000066565b620691d7615b0084013562000066565b620691e7615b2084013562000066565b620691f7615b4084013562000066565b62069207615b6084013562000066565b62069217615b8084013562000066565b62069227615ba084013562000066565b62069237615bc084013562000066565b62069247615be084013562000066565b62069257615c0084013562000066565b62069267615c2084013562000066565b62069277615c4084013562000066565b62069287615c6084013562000066565b62069297615c8084013562000066565b620692a7615ca084013562000066565b620692b7615cc084013562000066565b620692c7615ce084013562000066565b620692d7615d0084013562000066565b620692e7615d2084013562000066565b620692f7615d4084013562000066565b62069307615d6084013562000066565b62069317615d8084013562000066565b62069327615da084013562000066565b62069337615dc084013562000066565b62069347615de084013562000066565b62069357615e0084013562000066565b62069367615e2084013562000066565b62069377615e4084013562000066565b62069387615e6084013562000066565b62069397615e8084013562000066565b620693a7615ea084013562000066565b620693b7615ec084013562000066565b620693c7615ee084013562000066565b620693d7615f0084013562000066565b620693e7615f2084013562000066565b620693f7615f4084013562000066565b62069407615f6084013562000066565b62069417615f8084013562000066565b62069427615fa084013562000066565b62069437615fc084013562000066565b62069447615fe084013562000066565b6206945761600084013562000066565b6206946761602084013562000066565b6206947761604084013562000066565b6206948761606084013562000066565b6206949761608084013562000066565b620694a76160a084013562000066565b620694b76160c084013562000066565b620694c76160e084013562000066565b620694d761610084013562000066565b620694e761612084013562000066565b620694f761614084013562000066565b6206950761616084013562000066565b6206951761618084013562000066565b620695276161a084013562000066565b620695376161c084013562000066565b620695476161e084013562000066565b6206955761620084013562000066565b6206956761622084013562000066565b6206957761624084013562000066565b6206958761626084013562000066565b6206959761628084013562000066565b620695a76162a084013562000066565b620695b76162c084013562000066565b620695c76162e084013562000066565b620695d761630084013562000066565b620695e761632084013562000066565b620695f761634084013562000066565b6206960761636084013562000066565b6206961761638084013562000066565b620696276163a084013562000066565b620696376163c084013562000066565b620696476163e084013562000066565b6206965761640084013562000066565b6206966761642084013562000066565b6206967761644084013562000066565b6206968761646084013562000066565b6206969761648084013562000066565b620696a76164a084013562000066565b620696b76164c084013562000066565b620696c76164e084013562000066565b620696d761650084013562000066565b620696e761652084013562000066565b620696f761654084013562000066565b6206970761656084013562000066565b6206971761658084013562000066565b620697276165a084013562000066565b620697376165c084013562000066565b620697476165e084013562000066565b6206975761660084013562000066565b6206976761662084013562000066565b6206977761664084013562000066565b6206978761666084013562000066565b6206979761668084013562000066565b620697a76166a084013562000066565b620697b76166c084013562000066565b620697c76166e084013562000066565b620697d761670084013562000066565b620697e761672084013562000066565b620697f761674084013562000066565b6206980761676084013562000066565b6206981761678084013562000066565b620698276167a084013562000066565b620698376167c084013562000066565b620698476167e084013562000066565b6206985761680084013562000066565b6206986761682084013562000066565b6206987761684084013562000066565b6206988761686084013562000066565b6206989761688084013562000066565b620698a76168a084013562000066565b620698b76168c084013562000066565b620698c76168e084013562000066565b620698d761690084013562000066565b620698e761692084013562000066565b620698f761694084013562000066565b6206990761696084013562000066565b6206991761698084013562000066565b620699276169a084013562000066565b620699376169c084013562000066565b620699476169e084013562000066565b62069957616a0084013562000066565b62069967616a2084013562000066565b62069977616a4084013562000066565b62069987616a6084013562000066565b62069997616a8084013562000066565b620699a7616aa084013562000066565b620699b7616ac084013562000066565b620699c7616ae084013562000066565b620699d7616b0084013562000066565b620699e7616b2084013562000066565b620699f7616b4084013562000066565b62069a07616b6084013562000066565b62069a17616b8084013562000066565b62069a27616ba084013562000066565b62069a37616bc084013562000066565b62069a47616be084013562000066565b62069a57616c0084013562000066565b62069a67616c2084013562000066565b62069a77616c4084013562000066565b62069a87616c6084013562000066565b62069a97616c8084013562000066565b62069aa7616ca084013562000066565b62069ab7616cc084013562000066565b62069ac7616ce084013562000066565b62069ad7616d0084013562000066565b62069ae7616d2084013562000066565b62069af7616d4084013562000066565b62069b07616d6084013562000066565b62069b17616d8084013562000066565b62069b27616da084013562000066565b62069b37616dc084013562000066565b62069b47616de084013562000066565b62069b57616e0084013562000066565b62069b67616e2084013562000066565b62069b77616e4084013562000066565b62069b87616e6084013562000066565b62069b97616e8084013562000066565b62069ba7616ea084013562000066565b62069bb7616ec084013562000066565b62069bc7616ee084013562000066565b62069bd7616f0084013562000066565b62069be7616f2084013562000066565b62069bf7616f4084013562000066565b62069c07616f6084013562000066565b62069c17616f8084013562000066565b62069c27616fa084013562000066565b62069c37616fc084013562000066565b62069c47616fe084013562000066565b62069c5761700084013562000066565b62069c6761702084013562000066565b62069c7761704084013562000066565b62069c8761706084013562000066565b62069c9761708084013562000066565b62069ca76170a084013562000066565b62069cb76170c084013562000066565b62069cc76170e084013562000066565b62069cd761710084013562000066565b62069ce761712084013562000066565b62069cf761714084013562000066565b62069d0761716084013562000066565b62069d1761718084013562000066565b62069d276171a084013562000066565b62069d376171c084013562000066565b62069d476171e084013562000066565b62069d5761720084013562000066565b62069d6761722084013562000066565b62069d7761724084013562000066565b62069d8761726084013562000066565b62069d9761728084013562000066565b62069da76172a084013562000066565b62069db76172c084013562000066565b62069dc76172e084013562000066565b62069dd761730084013562000066565b62069de761732084013562000066565b62069df761734084013562000066565b62069e0761736084013562000066565b62069e1761738084013562000066565b62069e276173a084013562000066565b62069e376173c084013562000066565b62069e476173e084013562000066565b62069e5761740084013562000066565b62069e6761742084013562000066565b62069e7761744084013562000066565b62069e8761746084013562000066565b62069e9761748084013562000066565b62069ea76174a084013562000066565b62069eb76174c084013562000066565b62069ec76174e084013562000066565b62069ed761750084013562000066565b62069ee761752084013562000066565b62069ef761754084013562000066565b62069f0761756084013562000066565b62069f1761758084013562000066565b62069f276175a084013562000066565b62069f376175c084013562000066565b62069f476175e084013562000066565b62069f5761760084013562000066565b62069f6761762084013562000066565b62069f7761764084013562000066565b62069f8761766084013562000066565b62069f9761768084013562000066565b62069fa76176a084013562000066565b62069fb76176c084013562000066565b62069fc76176e084013562000066565b62069fd761770084013562000066565b62069fe761772084013562000066565b62069ff761774084013562000066565b6206a00761776084013562000066565b6206a01761778084013562000066565b6206a0276177a084013562000066565b6206a0376177c084013562000066565b6206a0476177e084013562000066565b6206a05761780084013562000066565b6206a06761782084013562000066565b6206a07761784084013562000066565b6206a08761786084013562000066565b6206a09761788084013562000066565b6206a0a76178a084013562000066565b6206a0b76178c084013562000066565b6206a0c76178e084013562000066565b6206a0d761790084013562000066565b6206a0e761792084013562000066565b6206a0f761794084013562000066565b6206a10761796084013562000066565b6206a11761798084013562000066565b6206a1276179a084013562000066565b6206a1376179c084013562000066565b6206a1476179e084013562000066565b6206a157617a0084013562000066565b6206a167617a2084013562000066565b6206a177617a4084013562000066565b6206a187617a6084013562000066565b6206a197617a8084013562000066565b6206a1a7617aa084013562000066565b6206a1b7617ac084013562000066565b6206a1c7617ae084013562000066565b6206a1d7617b0084013562000066565b6206a1e7617b2084013562000066565b6206a1f7617b4084013562000066565b6206a207617b6084013562000066565b6206a217617b8084013562000066565b6206a227617ba084013562000066565b6206a237617bc084013562000066565b6206a247617be084013562000066565b6206a257617c0084013562000066565b6206a267617c2084013562000066565b6206a277617c4084013562000066565b6206a287617c6084013562000066565b6206a297617c8084013562000066565b6206a2a7617ca084013562000066565b6206a2b7617cc084013562000066565b6206a2c7617ce084013562000066565b6206a2d7617d0084013562000066565b6206a2e7617d2084013562000066565b6206a2f7617d4084013562000066565b6206a307617d6084013562000066565b6206a317617d8084013562000066565b6206a327617da084013562000066565b6206a337617dc084013562000066565b6206a347617de084013562000066565b6206a357617e0084013562000066565b6206a367617e2084013562000066565b6206a377617e4084013562000066565b6206a387617e6084013562000066565b6206a397617e8084013562000066565b6206a3a7617ea084013562000066565b6206a3b7617ec084013562000066565b6206a3c7617ee084013562000066565b6206a3d7617f0084013562000066565b6206a3e7617f2084013562000066565b6206a3f7617f4084013562000066565b6206a407617f6084013562000066565b6206a417617f8084013562000066565b6206a427617fa084013562000066565b6206a437617fc084013562000066565b6206a447617fe084013562000066565b6206a45761800084013562000066565b6206a46761802084013562000066565b6206a47761804084013562000066565b6206a48761806084013562000066565b6206a49761808084013562000066565b6206a4a76180a084013562000066565b6206a4b76180c084013562000066565b6206a4c76180e084013562000066565b6206a4d761810084013562000066565b6206a4e761812084013562000066565b6206a4f761814084013562000066565b6206a50761816084013562000066565b6206a51761818084013562000066565b6206a5276181a084013562000066565b6206a5376181c084013562000066565b6206a5476181e084013562000066565b6206a55761820084013562000066565b6206a56761822084013562000066565b6206a57761824084013562000066565b6206a58761826084013562000066565b6206a59761828084013562000066565b6206a5a76182a084013562000066565b6206a5b76182c084013562000066565b6206a5c76182e084013562000066565b6206a5d761830084013562000066565b6206a5e761832084013562000066565b6206a5f761834084013562000066565b6206a60761836084013562000066565b6206a61761838084013562000066565b6206a6276183a084013562000066565b6206a6376183c084013562000066565b6206a6476183e084013562000066565b6206a65761840084013562000066565b6206a66761842084013562000066565b6206a67761844084013562000066565b6206a68761846084013562000066565b6206a69761848084013562000066565b6206a6a76184a084013562000066565b6206a6b76184c084013562000066565b6206a6c76184e084013562000066565b6206a6d761850084013562000066565b6206a6e761852084013562000066565b6206a6f761854084013562000066565b6206a70761856084013562000066565b6206a71761858084013562000066565b6206a7276185a084013562000066565b6206a7376185c084013562000066565b6206a7476185e084013562000066565b6206a75761860084013562000066565b6206a76761862084013562000066565b6206a77761864084013562000066565b6206a78761866084013562000066565b6206a79761868084013562000066565b6206a7a76186a084013562000066565b6206a7b76186c084013562000066565b6206a7c76186e084013562000066565b6206a7d761870084013562000066565b6206a7e761872084013562000066565b6206a7f761874084013562000066565b6206a80761876084013562000066565b6206a81761878084013562000066565b6206a8276187a084013562000066565b6206a8376187c084013562000066565b6206a8476187e084013562000066565b6206a85761880084013562000066565b6206a86761882084013562000066565b6206a87761884084013562000066565b6206a88761886084013562000066565b6206a89761888084013562000066565b6206a8a76188a084013562000066565b6206a8b76188c084013562000066565b6206a8c76188e084013562000066565b6206a8d761890084013562000066565b6206a8e761892084013562000066565b6206a8f761894084013562000066565b6206a90761896084013562000066565b6206a91761898084013562000066565b6206a9276189a084013562000066565b6206a9376189c084013562000066565b6206a9476189e084013562000066565b6206a957618a0084013562000066565b6206a967618a2084013562000066565b6206a977618a4084013562000066565b6206a987618a6084013562000066565b6206a997618a8084013562000066565b6206a9a7618aa084013562000066565b6206a9b7618ac084013562000066565b6206a9c7618ae084013562000066565b6206a9d7618b0084013562000066565b6206a9e7618b2084013562000066565b6206a9f7618b4084013562000066565b6206aa07618b6084013562000066565b6206aa17618b8084013562000066565b6206aa27618ba084013562000066565b6206aa37618bc084013562000066565b6206aa47618be084013562000066565b6206aa57618c0084013562000066565b6206aa67618c2084013562000066565b6206aa77618c4084013562000066565b6206aa87618c6084013562000066565b6206aa97618c8084013562000066565b6206aaa7618ca084013562000066565b6206aab7618cc084013562000066565b6206aac7618ce084013562000066565b6206aad7618d0084013562000066565b6206aae7618d2084013562000066565b6206aaf7618d4084013562000066565b6206ab07618d6084013562000066565b6206ab17618d8084013562000066565b6206ab27618da084013562000066565b6206ab37618dc084013562000066565b6206ab47618de084013562000066565b6206ab57618e0084013562000066565b6206ab67618e2084013562000066565b6206ab77618e4084013562000066565b6206ab87618e6084013562000066565b6206ab97618e8084013562000066565b6206aba7618ea084013562000066565b6206abb7618ec084013562000066565b6206abc7618ee084013562000066565b6206abd7618f0084013562000066565b6206abe7618f2084013562000066565b6206abf7618f4084013562000066565b6206ac07618f6084013562000066565b6206ac17618f8084013562000066565b6206ac27618fa084013562000066565b6206ac37618fc084013562000066565b6206ac47618fe084013562000066565b6206ac5761900084013562000066565b6206ac6761902084013562000066565b6206ac7761904084013562000066565b6206ac8761906084013562000066565b6206ac9761908084013562000066565b6206aca76190a084013562000066565b6206acb76190c084013562000066565b6206acc76190e084013562000066565b6206acd761910084013562000066565b6206ace761912084013562000066565b6206acf761914084013562000066565b6206ad0761916084013562000066565b6206ad1761918084013562000066565b6206ad276191a084013562000066565b6206ad376191c084013562000066565b6206ad476191e084013562000066565b6206ad5761920084013562000066565b6206ad6761922084013562000066565b6206ad7761924084013562000066565b6206ad8761926084013562000066565b6206ad9761928084013562000066565b6206ada76192a084013562000066565b6206adb76192c084013562000066565b6206adc76192e084013562000066565b6206add761930084013562000066565b6206ade761932084013562000066565b6206adf761934084013562000066565b6206ae0761936084013562000066565b6206ae1761938084013562000066565b6206ae276193a084013562000066565b6206ae376193c084013562000066565b6206ae476193e084013562000066565b6206ae5761940084013562000066565b6206ae6761942084013562000066565b6206ae7761944084013562000066565b6206ae8761946084013562000066565b6206ae9761948084013562000066565b6206aea76194a084013562000066565b6206aeb76194c084013562000066565b6206aec76194e084013562000066565b6206aed761950084013562000066565b6206aee761952084013562000066565b6206aef761954084013562000066565b6206af0761956084013562000066565b6206af1761958084013562000066565b6206af276195a084013562000066565b6206af376195c084013562000066565b6206af476195e084013562000066565b6206af5761960084013562000066565b6206af6761962084013562000066565b6206af7761964084013562000066565b6206af8761966084013562000066565b6206af9761968084013562000066565b6206afa76196a084013562000066565b6206afb76196c084013562000066565b6206afc76196e084013562000066565b6206afd761970084013562000066565b6206afe761972084013562000066565b6206aff761974084013562000066565b6206b00761976084013562000066565b6206b01761978084013562000066565b6206b0276197a084013562000066565b6206b0376197c084013562000066565b6206b0476197e084013562000066565b6206b05761980084013562000066565b6206b06761982084013562000066565b6206b07761984084013562000066565b6206b08761986084013562000066565b6206b09761988084013562000066565b6206b0a76198a084013562000066565b6206b0b76198c084013562000066565b6206b0c76198e084013562000066565b6206b0d761990084013562000066565b6206b0e761992084013562000066565b6206b0f761994084013562000066565b6206b10761996084013562000066565b6206b11761998084013562000066565b6206b1276199a084013562000066565b6206b1376199c084013562000066565b6206b1476199e084013562000066565b6206b157619a0084013562000066565b6206b167619a2084013562000066565b6206b177619a4084013562000066565b6206b187619a6084013562000066565b6206b197619a8084013562000066565b6206b1a7619aa084013562000066565b6206b1b7619ac084013562000066565b6206b1c7619ae084013562000066565b6206b1d7619b0084013562000066565b6206b1e7619b2084013562000066565b6206b1f7619b4084013562000066565b6206b207619b6084013562000066565b6206b217619b8084013562000066565b6206b227619ba084013562000066565b6206b237619bc084013562000066565b6206b247619be084013562000066565b6206b257619c0084013562000066565b6206b267619c2084013562000066565b6206b277619c4084013562000066565b6206b287619c6084013562000066565b6206b297619c8084013562000066565b6206b2a7619ca084013562000066565b6206b2b7619cc084013562000066565b6206b2c7619ce084013562000066565b6206b2d7619d0084013562000066565b6206b2e7619d2084013562000066565b6206b2f7619d4084013562000066565b6206b307619d6084013562000066565b6206b317619d8084013562000066565b6206b327619da084013562000066565b6206b337619dc084013562000066565b6206b347619de084013562000066565b6206b357619e0084013562000066565b6206b367619e2084013562000066565b6206b377619e4084013562000066565b6206b387619e6084013562000066565b6206b397619e8084013562000066565b6206b3a7619ea084013562000066565b6206b3b7619ec084013562000066565b6206b3c7619ee084013562000066565b6206b3d7619f0084013562000066565b6206b3e7619f2084013562000066565b6206b3f7619f4084013562000066565b6206b407619f6084013562000066565b6206b417619f8084013562000066565b6206b427619fa084013562000066565b6206b437619fc084013562000066565b6206b447619fe084013562000066565b6206b45761a00084013562000066565b6206b46761a02084013562000066565b6206b47761a04084013562000066565b6206b48761a06084013562000066565b6206b49761a08084013562000066565b6206b4a761a0a084013562000066565b6206b4b761a0c084013562000066565b6206b4c761a0e084013562000066565b6206b4d761a10084013562000066565b6206b4e761a12084013562000066565b6206b4f761a14084013562000066565b6206b50761a16084013562000066565b6206b51761a18084013562000066565b6206b52761a1a084013562000066565b6206b53761a1c084013562000066565b6206b54761a1e084013562000066565b6206b55761a20084013562000066565b6206b56761a22084013562000066565b6206b57761a24084013562000066565b6206b58761a26084013562000066565b6206b59761a28084013562000066565b6206b5a761a2a084013562000066565b6206b5b761a2c084013562000066565b6206b5c761a2e084013562000066565b6206b5d761a30084013562000066565b6206b5e761a32084013562000066565b6206b5f761a34084013562000066565b6206b60761a36084013562000066565b6206b61761a38084013562000066565b6206b62761a3a084013562000066565b6206b63761a3c084013562000066565b6206b64761a3e084013562000066565b6206b65761a40084013562000066565b6206b66761a42084013562000066565b6206b67761a44084013562000066565b6206b68761a46084013562000066565b6206b69761a48084013562000066565b6206b6a761a4a084013562000066565b6206b6b761a4c084013562000066565b6206b6c761a4e084013562000066565b6206b6d761a50084013562000066565b6206b6e761a52084013562000066565b6206b6f761a54084013562000066565b6206b70761a56084013562000066565b6206b71761a58084013562000066565b6206b72761a5a084013562000066565b6206b73761a5c084013562000066565b6206b74761a5e084013562000066565b6206b75761a60084013562000066565b6206b76761a62084013562000066565b6206b77761a64084013562000066565b6206b78761a66084013562000066565b6206b79761a68084013562000066565b6206b7a761a6a084013562000066565b6206b7b761a6c084013562000066565b6206b7c761a6e084013562000066565b6206b7d761a70084013562000066565b6206b7e761a72084013562000066565b6206b7f761a74084013562000066565b6206b80761a76084013562000066565b6206b81761a78084013562000066565b6206b82761a7a084013562000066565b6206b83761a7c084013562000066565b6206b84761a7e084013562000066565b6206b85761a80084013562000066565b6206b86761a82084013562000066565b6206b87761a84084013562000066565b6206b88761a86084013562000066565b6206b89761a88084013562000066565b6206b8a761a8a084013562000066565b6206b8b761a8c084013562000066565b6206b8c761a8e084013562000066565b6206b8d761a90084013562000066565b6206b8e761a92084013562000066565b6206b8f761a94084013562000066565b6206b90761a96084013562000066565b6206b91761a98084013562000066565b6206b92761a9a084013562000066565b6206b93761a9c084013562000066565b6206b94761a9e084013562000066565b6206b95761aa0084013562000066565b6206b96761aa2084013562000066565b6206b97761aa4084013562000066565b6206b98761aa6084013562000066565b6206b99761aa8084013562000066565b6206b9a761aaa084013562000066565b6206b9b761aac084013562000066565b6206b9c761aae084013562000066565b6206b9d761ab0084013562000066565b6206b9e761ab2084013562000066565b6206b9f761ab4084013562000066565b6206ba0761ab6084013562000066565b6206ba1761ab8084013562000066565b6206ba2761aba084013562000066565b6206ba3761abc084013562000066565b6206ba4761abe084013562000066565b6206ba5761ac0084013562000066565b6206ba6761ac2084013562000066565b6206ba7761ac4084013562000066565b6206ba8761ac6084013562000066565b6206ba9761ac8084013562000066565b6206baa761aca084013562000066565b6206bab761acc084013562000066565b6206bac761ace084013562000066565b6206bad761ad0084013562000066565b6206bae761ad2084013562000066565b6206baf761ad4084013562000066565b6206bb0761ad6084013562000066565b6206bb1761ad8084013562000066565b6206bb2761ada084013562000066565b6206bb3761adc084013562000066565b6206bb4761ade084013562000066565b6206bb5761ae0084013562000066565b6206bb6761ae2084013562000066565b6206bb7761ae4084013562000066565b6206bb8761ae6084013562000066565b6206bb9761ae8084013562000066565b6206bba761aea084013562000066565b6206bbb761aec084013562000066565b6206bbc761aee084013562000066565b6206bbd761af0084013562000066565b6206bbe761af2084013562000066565b6206bbf761af4084013562000066565b6206bc0761af6084013562000066565b6206bc1761af8084013562000066565b6206bc2761afa084013562000066565b6206bc3761afc084013562000066565b6206bc4761afe084013562000066565b6206bc5761b00084013562000066565b6206bc6761b02084013562000066565b6206bc7761b04084013562000066565b6206bc8761b06084013562000066565b6206bc9761b08084013562000066565b6206bca761b0a084013562000066565b6206bcb761b0c084013562000066565b6206bcc761b0e084013562000066565b6206bcd761b10084013562000066565b6206bce761b12084013562000066565b6206bcf761b14084013562000066565b6206bd0761b16084013562000066565b6206bd1761b18084013562000066565b6206bd2761b1a084013562000066565b6206bd3761b1c084013562000066565b6206bd4761b1e084013562000066565b6206bd5761b20084013562000066565b6206bd6761b22084013562000066565b6206bd7761b24084013562000066565b6206bd8761b26084013562000066565b6206bd9761b28084013562000066565b6206bda761b2a084013562000066565b6206bdb761b2c084013562000066565b6206bdc761b2e084013562000066565b6206bdd761b30084013562000066565b6206bde761b32084013562000066565b6206bdf761b34084013562000066565b6206be0761b36084013562000066565b6206be1761b38084013562000066565b6206be2761b3a084013562000066565b6206be3761b3c084013562000066565b6206be4761b3e084013562000066565b6206be5761b40084013562000066565b6206be6761b42084013562000066565b6206be7761b44084013562000066565b6206be8761b46084013562000066565b6206be9761b48084013562000066565b6206bea761b4a084013562000066565b6206beb761b4c084013562000066565b6206bec761b4e084013562000066565b6206bed761b50084013562000066565b6206bee761b52084013562000066565b6206bef761b54084013562000066565b6206bf0761b56084013562000066565b6206bf1761b58084013562000066565b6206bf2761b5a084013562000066565b6206bf3761b5c084013562000066565b6206bf4761b5e084013562000066565b6206bf5761b60084013562000066565b6206bf6761b62084013562000066565b6206bf7761b64084013562000066565b6206bf8761b66084013562000066565b6206bf9761b68084013562000066565b6206bfa761b6a084013562000066565b6206bfb761b6c084013562000066565b6206bfc761b6e084013562000066565b6206bfd761b70084013562000066565b6206bfe761b72084013562000066565b6206bff761b74084013562000066565b6206c00761b76084013562000066565b6206c01761b78084013562000066565b6206c02761b7a084013562000066565b6206c03761b7c084013562000066565b6206c04761b7e084013562000066565b6206c05761b80084013562000066565b6206c06761b82084013562000066565b6206c07761b84084013562000066565b6206c08761b86084013562000066565b6206c09761b88084013562000066565b6206c0a761b8a084013562000066565b6206c0b761b8c084013562000066565b6206c0c761b8e084013562000066565b6206c0d761b90084013562000066565b6206c0e761b92084013562000066565b6206c0f761b94084013562000066565b6206c10761b96084013562000066565b6206c11761b98084013562000066565b6206c12761b9a084013562000066565b6206c13761b9c084013562000066565b6206c14761b9e084013562000066565b6206c15761ba0084013562000066565b6206c16761ba2084013562000066565b6206c17761ba4084013562000066565b6206c18761ba6084013562000066565b6206c19761ba8084013562000066565b6206c1a761baa084013562000066565b6206c1b761bac084013562000066565b6206c1c761bae084013562000066565b6206c1d761bb0084013562000066565b6206c1e761bb2084013562000066565b6206c1f761bb4084013562000066565b6206c20761bb6084013562000066565b6206c21761bb8084013562000066565b6206c22761bba084013562000066565b6206c23761bbc084013562000066565b6206c24761bbe084013562000066565b6206c25761bc0084013562000066565b6206c26761bc2084013562000066565b6206c27761bc4084013562000066565b6206c28761bc6084013562000066565b6206c29761bc8084013562000066565b6206c2a761bca084013562000066565b6206c2b761bcc084013562000066565b6206c2c761bce084013562000066565b6206c2d761bd0084013562000066565b6206c2e761bd2084013562000066565b6206c2f761bd4084013562000066565b6206c30761bd6084013562000066565b6206c31761bd8084013562000066565b6206c32761bda084013562000066565b6206c33761bdc084013562000066565b6206c34761bde084013562000066565b6206c35761be0084013562000066565b6206c36761be2084013562000066565b6206c37761be4084013562000066565b6206c38761be6084013562000066565b6206c39761be8084013562000066565b6206c3a761bea084013562000066565b6206c3b761bec084013562000066565b6206c3c761bee084013562000066565b6206c3d761bf0084013562000066565b6206c3e761bf2084013562000066565b6206c3f761bf4084013562000066565b6206c40761bf6084013562000066565b6206c41761bf8084013562000066565b6206c42761bfa084013562000066565b6206c43761bfc084013562000066565b6206c44761bfe084013562000066565b6206c45761c00084013562000066565b6206c46761c02084013562000066565b6206c47761c04084013562000066565b6206c48761c06084013562000066565b6206c49761c08084013562000066565b6206c4a761c0a084013562000066565b6206c4b761c0c084013562000066565b6206c4c761c0e084013562000066565b6206c4d761c10084013562000066565b6206c4e761c12084013562000066565b6206c4f761c14084013562000066565b6206c50761c16084013562000066565b6206c51761c18084013562000066565b6206c52761c1a084013562000066565b6206c53761c1c084013562000066565b6206c54761c1e084013562000066565b6206c55761c20084013562000066565b6206c56761c22084013562000066565b6206c57761c24084013562000066565b6206c58761c26084013562000066565b6206c59761c28084013562000066565b6206c5a761c2a084013562000066565b6206c5b761c2c084013562000066565b6206c5c761c2e084013562000066565b6206c5d761c30084013562000066565b6206c5e761c32084013562000066565b6206c5f761c34084013562000066565b6206c60761c36084013562000066565b6206c61761c38084013562000066565b6206c62761c3a084013562000066565b6206c63761c3c084013562000066565b6206c64761c3e084013562000066565b6206c65761c40084013562000066565b6206c66761c42084013562000066565b6206c67761c44084013562000066565b6206c68761c46084013562000066565b6206c69761c48084013562000066565b6206c6a761c4a084013562000066565b6206c6b761c4c084013562000066565b6206c6c761c4e084013562000066565b6206c6d761c50084013562000066565b6206c6e761c52084013562000066565b6206c6f761c54084013562000066565b6206c70761c56084013562000066565b6206c71761c58084013562000066565b6206c72761c5a084013562000066565b6206c73761c5c084013562000066565b6206c74761c5e084013562000066565b6206c75761c60084013562000066565b6206c76761c62084013562000066565b6206c77761c64084013562000066565b6206c78761c66084013562000066565b6206c79761c68084013562000066565b6206c7a761c6a084013562000066565b6206c7b761c6c084013562000066565b6206c7c761c6e084013562000066565b6206c7d761c70084013562000066565b6206c7e761c72084013562000066565b6206c7f761c74084013562000066565b6206c80761c76084013562000066565b6206c81761c78084013562000066565b6206c82761c7a084013562000066565b6206c83761c7c084013562000066565b6206c84761c7e084013562000066565b6206c85761c80084013562000066565b6206c86761c82084013562000066565b6206c87761c84084013562000066565b6206c88761c86084013562000066565b6206c89761c88084013562000066565b6206c8a761c8a084013562000066565b6206c8b761c8c084013562000066565b6206c8c761c8e084013562000066565b6206c8d761c90084013562000066565b6206c8e761c92084013562000066565b6206c8f761c94084013562000066565b6206c90761c96084013562000066565b6206c91761c98084013562000066565b6206c92761c9a084013562000066565b6206c93761c9c084013562000066565b6206c94761c9e084013562000066565b6206c95761ca0084013562000066565b6206c96761ca2084013562000066565b6206c97761ca4084013562000066565b6206c98761ca6084013562000066565b6206c99761ca8084013562000066565b6206c9a761caa084013562000066565b6206c9b761cac084013562000066565b6206c9c761cae084013562000066565b6206c9d761cb0084013562000066565b6206c9e761cb2084013562000066565b6206c9f761cb4084013562000066565b6206ca0761cb6084013562000066565b6206ca1761cb8084013562000066565b6206ca2761cba084013562000066565b6206ca3761cbc084013562000066565b6206ca4761cbe084013562000066565b6206ca5761cc0084013562000066565b6206ca6761cc2084013562000066565b6206ca7761cc4084013562000066565b6206ca8761cc6084013562000066565b6206ca9761cc8084013562000066565b6206caa761cca084013562000066565b6206cab761ccc084013562000066565b6206cac761cce084013562000066565b6206cad761cd0084013562000066565b6206cae761cd2084013562000066565b6206caf761cd4084013562000066565b6206cb0761cd6084013562000066565b6206cb1761cd8084013562000066565b6206cb2761cda084013562000066565b6206cb3761cdc084013562000066565b6206cb4761cde084013562000066565b6206cb5761ce0084013562000066565b6206cb6761ce2084013562000066565b6206cb7761ce4084013562000066565b6206cb8761ce6084013562000066565b6206cb9761ce8084013562000066565b6206cba761cea084013562000066565b6206cbb761cec084013562000066565b6206cbc761cee084013562000066565b6206cbd761cf0084013562000066565b6206cbe761cf2084013562000066565b6206cbf761cf4084013562000066565b6206cc0761cf6084013562000066565b6206cc1761cf8084013562000066565b6206cc2761cfa084013562000066565b6206cc3761cfc084013562000066565b6206cc4761cfe084013562000066565b6206cc5761d00084013562000066565b6206cc6761d02084013562000066565b6206cc7761d04084013562000066565b6206cc8761d06084013562000066565b6206cc9761d08084013562000066565b6206cca761d0a084013562000066565b6206ccb761d0c084013562000066565b6206ccc761d0e084013562000066565b6206ccd761d10084013562000066565b6206cce761d12084013562000066565b6206ccf761d14084013562000066565b6206cd0761d16084013562000066565b6206cd1761d18084013562000066565b6206cd2761d1a084013562000066565b6206cd3761d1c084013562000066565b6206cd4761d1e084013562000066565b6206cd5761d20084013562000066565b6206cd6761d22084013562000066565b6206cd7761d24084013562000066565b6206cd8761d26084013562000066565b6206cd9761d28084013562000066565b6206cda761d2a084013562000066565b6206cdb761d2c084013562000066565b6206cdc761d2e084013562000066565b6206cdd761d30084013562000066565b6206cde761d32084013562000066565b6206cdf761d34084013562000066565b6206ce0761d36084013562000066565b6206ce1761d38084013562000066565b6206ce2761d3a084013562000066565b6206ce3761d3c084013562000066565b6206ce4761d3e084013562000066565b6206ce5761d40084013562000066565b6206ce6761d42084013562000066565b6206ce7761d44084013562000066565b6206ce8761d46084013562000066565b6206ce9761d48084013562000066565b6206cea761d4a084013562000066565b6206ceb761d4c084013562000066565b6206cec761d4e084013562000066565b6206ced761d50084013562000066565b6206cee761d52084013562000066565b6206cef761d54084013562000066565b6206cf0761d56084013562000066565b6206cf1761d58084013562000066565b6206cf2761d5a084013562000066565b6206cf3761d5c084013562000066565b6206cf4761d5e084013562000066565b6206cf5761d60084013562000066565b6206cf6761d62084013562000066565b6206cf7761d64084013562000066565b6206cf8761d66084013562000066565b6206cf9761d68084013562000066565b6206cfa761d6a084013562000066565b6206cfb761d6c084013562000066565b6206cfc761d6e084013562000066565b6206cfd761d70084013562000066565b6206cfe761d72084013562000066565b6206cff761d74084013562000066565b6206d00761d76084013562000066565b6206d01761d78084013562000066565b6206d02761d7a084013562000066565b6206d03761d7c084013562000066565b6206d04761d7e084013562000066565b6206d05761d80084013562000066565b6206d06761d82084013562000066565b6206d07761d84084013562000066565b6206d08761d86084013562000066565b6206d09761d88084013562000066565b6206d0a761d8a084013562000066565b6206d0b761d8c084013562000066565b6206d0c761d8e084013562000066565b6206d0d761d90084013562000066565b6206d0e761d92084013562000066565b6206d0f761d94084013562000066565b6206d10761d96084013562000066565b6206d11761d98084013562000066565b6206d12761d9a084013562000066565b6206d13761d9c084013562000066565b6206d14761d9e084013562000066565b6206d15761da0084013562000066565b6206d16761da2084013562000066565b6206d17761da4084013562000066565b6206d18761da6084013562000066565b6206d19761da8084013562000066565b6206d1a761daa084013562000066565b6206d1b761dac084013562000066565b6206d1c761dae084013562000066565b6206d1d761db0084013562000066565b6206d1e761db2084013562000066565b6206d1f761db4084013562000066565b6206d20761db6084013562000066565b6206d21761db8084013562000066565b6206d22761dba084013562000066565b6206d23761dbc084013562000066565b6206d24761dbe084013562000066565b6206d25761dc0084013562000066565b6206d26761dc2084013562000066565b6206d27761dc4084013562000066565b6206d28761dc6084013562000066565b6206d29761dc8084013562000066565b6206d2a761dca084013562000066565b6206d2b761dcc084013562000066565b6206d2c761dce084013562000066565b6206d2d761dd0084013562000066565b6206d2e761dd2084013562000066565b6206d2f761dd4084013562000066565b6206d30761dd6084013562000066565b6206d31761dd8084013562000066565b6206d32761dda084013562000066565b6206d33761ddc084013562000066565b6206d34761dde084013562000066565b6206d35761de0084013562000066565b6206d36761de2084013562000066565b6206d37761de4084013562000066565b6206d38761de6084013562000066565b6206d39761de8084013562000066565b6206d3a761dea084013562000066565b6206d3b761dec084013562000066565b6206d3c761dee084013562000066565b6206d3d761df0084013562000066565b6206d3e761df2084013562000066565b6206d3f761df4084013562000066565b6206d40761df6084013562000066565b6206d41761df8084013562000066565b6206d42761dfa084013562000066565b6206d43761dfc084013562000066565b6206d44761dfe084013562000066565b6206d45761e00084013562000066565b6206d46761e02084013562000066565b6206d47761e04084013562000066565b6206d48761e06084013562000066565b6206d49761e08084013562000066565b6206d4a761e0a084013562000066565b6206d4b761e0c084013562000066565b6206d4c761e0e084013562000066565b6206d4d761e10084013562000066565b6206d4e761e12084013562000066565b6206d4f761e14084013562000066565b6206d50761e16084013562000066565b6206d51761e18084013562000066565b6206d52761e1a084013562000066565b6206d53761e1c084013562000066565b6206d54761e1e084013562000066565b6206d55761e20084013562000066565b6206d56761e22084013562000066565b6206d57761e24084013562000066565b6206d58761e26084013562000066565b6206d59761e28084013562000066565b6206d5a761e2a084013562000066565b6206d5b761e2c084013562000066565b6206d5c761e2e084013562000066565b6206d5d761e30084013562000066565b6206d5e761e32084013562000066565b6206d5f761e34084013562000066565b6206d60761e36084013562000066565b6206d61761e38084013562000066565b6206d62761e3a084013562000066565b6206d63761e3c084013562000066565b6206d64761e3e084013562000066565b6206d65761e40084013562000066565b6206d66761e42084013562000066565b6206d67761e44084013562000066565b6206d68761e46084013562000066565b6206d69761e48084013562000066565b6206d6a761e4a084013562000066565b6206d6b761e4c084013562000066565b6206d6c761e4e084013562000066565b6206d6d761e50084013562000066565b6206d6e761e52084013562000066565b6206d6f761e54084013562000066565b6206d70761e56084013562000066565b6206d71761e58084013562000066565b6206d72761e5a084013562000066565b6206d73761e5c084013562000066565b6206d74761e5e084013562000066565b6206d75761e60084013562000066565b6206d76761e62084013562000066565b6206d77761e64084013562000066565b6206d78761e66084013562000066565b6206d79761e68084013562000066565b6206d7a761e6a084013562000066565b6206d7b761e6c084013562000066565b6206d7c761e6e084013562000066565b6206d7d761e70084013562000066565b6206d7e761e72084013562000066565b6206d7f761e74084013562000066565b6206d80761e76084013562000066565b6206d81761e78084013562000066565b6206d82761e7a084013562000066565b6206d83761e7c084013562000066565b6206d84761e7e084013562000066565b6206d85761e80084013562000066565b6206d86761e82084013562000066565b6206d87761e84084013562000066565b6206d88761e86084013562000066565b6206d89761e88084013562000066565b6206d8a761e8a084013562000066565b6206d8b761e8c084013562000066565b6206d8c761e8e084013562000066565b6206d8d761e90084013562000066565b6206d8e761e92084013562000066565b6206d8f761e94084013562000066565b6206d90761e96084013562000066565b6206d91761e98084013562000066565b6206d92761e9a084013562000066565b6206d93761e9c084013562000066565b6206d94761e9e084013562000066565b6206d95761ea0084013562000066565b6206d96761ea2084013562000066565b6206d97761ea4084013562000066565b6206d98761ea6084013562000066565b6206d99761ea8084013562000066565b6206d9a761eaa084013562000066565b6206d9b761eac084013562000066565b6206d9c761eae084013562000066565b6206d9d761eb0084013562000066565b6206d9e761eb2084013562000066565b6206d9f761eb4084013562000066565b6206da0761eb6084013562000066565b6206da1761eb8084013562000066565b6206da2761eba084013562000066565b6206da3761ebc084013562000066565b6206da4761ebe084013562000066565b6206da5761ec0084013562000066565b6206da6761ec2084013562000066565b6206da7761ec4084013562000066565b6206da8761ec6084013562000066565b6206da9761ec8084013562000066565b6206daa761eca084013562000066565b6206dab761ecc084013562000066565b6206dac761ece084013562000066565b6206dad761ed0084013562000066565b6206dae761ed2084013562000066565b6206daf761ed4084013562000066565b6206db0761ed6084013562000066565b6206db1761ed8084013562000066565b6206db2761eda084013562000066565b6206db3761edc084013562000066565b6206db4761ede084013562000066565b6206db5761ee0084013562000066565b6206db6761ee2084013562000066565b6206db7761ee4084013562000066565b6206db8761ee6084013562000066565b6206db9761ee8084013562000066565b6206dba761eea084013562000066565b6206dbb761eec084013562000066565b6206dbc761eee084013562000066565b6206dbd761ef0084013562000066565b6206dbe761ef2084013562000066565b6206dbf761ef4084013562000066565b6206dc0761ef6084013562000066565b6206dc1761ef8084013562000066565b6206dc2761efa084013562000066565b6206dc3761efc084013562000066565b6206dc4761efe084013562000066565b6206dc5761f00084013562000066565b6206dc6761f02084013562000066565b6206dc7761f04084013562000066565b6206dc8761f06084013562000066565b6206dc9761f08084013562000066565b6206dca761f0a084013562000066565b6206dcb761f0c084013562000066565b6206dcc761f0e084013562000066565b6206dcd761f10084013562000066565b6206dce761f12084013562000066565b6206dcf761f14084013562000066565b6206dd0761f16084013562000066565b6206dd1761f18084013562000066565b6206dd2761f1a084013562000066565b6206dd3761f1c084013562000066565b6206dd4761f1e084013562000066565b6206dd5761f20084013562000066565b6206dd6761f22084013562000066565b6206dd7761f24084013562000066565b6206dd8761f26084013562000066565b6206dd9761f28084013562000066565b6206dda761f2a084013562000066565b6206ddb761f2c084013562000066565b6206ddc761f2e084013562000066565b6206ddd761f30084013562000066565b6206dde761f32084013562000066565b6206ddf761f34084013562000066565b6206de0761f36084013562000066565b6206de1761f38084013562000066565b6206de2761f3a084013562000066565b6206de3761f3c084013562000066565b6206de4761f3e084013562000066565b6206de5761f40084013562000066565b6206de6761f42084013562000066565b6206de7761f44084013562000066565b6206de8761f46084013562000066565b6206de9761f48084013562000066565b6206dea761f4a084013562000066565b6206deb761f4c084013562000066565b6206dec761f4e084013562000066565b6206ded761f50084013562000066565b6206dee761f52084013562000066565b6206def761f54084013562000066565b6206df0761f56084013562000066565b6206df1761f58084013562000066565b6206df2761f5a084013562000066565b6206df3761f5c084013562000066565b6206df4761f5e084013562000066565b6206df5761f60084013562000066565b6206df6761f62084013562000066565b6206df7761f64084013562000066565b6206df8761f66084013562000066565b6206df9761f68084013562000066565b6206dfa761f6a084013562000066565b6206dfb761f6c084013562000066565b6206dfc761f6e084013562000066565b6206dfd761f70084013562000066565b6206dfe761f72084013562000066565b6206dff761f74084013562000066565b6206e00761f76084013562000066565b6206e01761f78084013562000066565b6206e02761f7a084013562000066565b6206e03761f7c084013562000066565b6206e04761f7e084013562000066565b6206e05761f80084013562000066565b6206e06761f82084013562000066565b6206e07761f84084013562000066565b6206e08761f86084013562000066565b6206e09761f88084013562000066565b6206e0a761f8a084013562000066565b6206e0b761f8c084013562000066565b6206e0c761f8e084013562000066565b6206e0d761f90084013562000066565b6206e0e761f92084013562000066565b6206e0f761f94084013562000066565b6206e10761f96084013562000066565b6206e11761f98084013562000066565b6206e12761f9a084013562000066565b6206e13761f9c084013562000066565b6206e14761f9e084013562000066565b6206e15761fa0084013562000066565b6206e16761fa2084013562000066565b6206e17761fa4084013562000066565b6206e18761fa6084013562000066565b6206e19761fa8084013562000066565b6206e1a761faa084013562000066565b6206e1b761fac084013562000066565b6206e1c761fae084013562000066565b6206e1d761fb0084013562000066565b6206e1e761fb2084013562000066565b6206e1f761fb4084013562000066565b6206e20761fb6084013562000066565b6206e21761fb8084013562000066565b6206e22761fba084013562000066565b6206e23761fbc084013562000066565b6206e24761fbe084013562000066565b6206e25761fc0084013562000066565b6206e26761fc2084013562000066565b6206e27761fc4084013562000066565b6206e28761fc6084013562000066565b6206e29761fc8084013562000066565b6206e2a761fca084013562000066565b6206e2b761fcc084013562000066565b6206e2c761fce084013562000066565b6206e2d761fd0084013562000066565b6206e2e761fd2084013562000066565b6206e2f761fd4084013562000066565b6206e30761fd6084013562000066565b6206e31761fd8084013562000066565b6206e32761fda084013562000066565b6206e33761fdc084013562000066565b6206e34761fde084013562000066565b6206e35761fe0084013562000066565b6206e36761fe2084013562000066565b6206e37761fe4084013562000066565b6206e38761fe6084013562000066565b6206e39761fe8084013562000066565b6206e3a761fea084013562000066565b6206e3b761fec084013562000066565b6206e3c761fee084013562000066565b6206e3d761ff0084013562000066565b6206e3e761ff2084013562000066565b6206e3f761ff4084013562000066565b6206e40761ff6084013562000066565b6206e41761ff8084013562000066565b6206e42761ffa084013562000066565b6206e43761ffc084013562000066565b6206e44761ffe084013562000066565b6206e4586201000084013562000066565b6206e4696201002084013562000066565b6206e47a6201004084013562000066565b6206e48b6201006084013562000066565b6206e49c6201008084013562000066565b6206e4ad620100a084013562000066565b6206e4be620100c084013562000066565b6206e4cf620100e084013562000066565b6206e4e06201010084013562000066565b6206e4f16201012084013562000066565b6206e5026201014084013562000066565b6206e5136201016084013562000066565b6206e5246201018084013562000066565b6206e535620101a084013562000066565b6206e546620101c084013562000066565b6206e557620101e084013562000066565b6206e5686201020084013562000066565b6206e5796201022084013562000066565b6206e58a6201024084013562000066565b6206e59b6201026084013562000066565b6206e5ac6201028084013562000066565b6206e5bd620102a084013562000066565b6206e5ce620102c084013562000066565b6206e5df620102e084013562000066565b6206e5f06201030084013562000066565b6206e6016201032084013562000066565b6206e6126201034084013562000066565b6206e6236201036084013562000066565b6206e6346201038084013562000066565b6206e645620103a084013562000066565b6206e656620103c084013562000066565b6206e667620103e084013562000066565b6206e6786201040084013562000066565b6206e6896201042084013562000066565b6206e69a6201044084013562000066565b6206e6ab6201046084013562000066565b6206e6bc6201048084013562000066565b6206e6cd620104a084013562000066565b6206e6de620104c084013562000066565b6206e6ef620104e084013562000066565b6206e7006201050084013562000066565b6206e7116201052084013562000066565b6206e7226201054084013562000066565b6206e7336201056084013562000066565b6206e7446201058084013562000066565b6206e755620105a084013562000066565b6206e766620105c084013562000066565b6206e777620105e084013562000066565b6206e7886201060084013562000066565b6206e7996201062084013562000066565b6206e7aa6201064084013562000066565b6206e7bb6201066084013562000066565b6206e7cc6201068084013562000066565b6206e7dd620106a084013562000066565b6206e7ee620106c084013562000066565b6206e7ff620106e084013562000066565b6206e8106201070084013562000066565b6206e8216201072084013562000066565b6206e8326201074084013562000066565b6206e8436201076084013562000066565b6206e8546201078084013562000066565b6206e865620107a084013562000066565b6206e876620107c084013562000066565b6206e887620107e084013562000066565b6206e8986201080084013562000066565b6206e8a96201082084013562000066565b6206e8ba6201084084013562000066565b6206e8cb6201086084013562000066565b6206e8dc6201088084013562000066565b6206e8ed620108a084013562000066565b6206e8fe620108c084013562000066565b6206e90f620108e084013562000066565b6206e9206201090084013562000066565b6206e9316201092084013562000066565b6206e9426201094084013562000066565b6206e9536201096084013562000066565b6206e9646201098084013562000066565b6206e975620109a084013562000066565b6206e986620109c084013562000066565b6206e997620109e084013562000066565b6206e9a862010a0084013562000066565b6206e9b962010a2084013562000066565b6206e9ca62010a4084013562000066565b6206e9db62010a6084013562000066565b6206e9ec62010a8084013562000066565b6206e9fd62010aa084013562000066565b6206ea0e62010ac084013562000066565b6206ea1f62010ae084013562000066565b6206ea3062010b0084013562000066565b6206ea4162010b2084013562000066565b6206ea5262010b4084013562000066565b6206ea6362010b6084013562000066565b6206ea7462010b8084013562000066565b6206ea8562010ba084013562000066565b6206ea9662010bc084013562000066565b6206eaa762010be084013562000066565b6206eab862010c0084013562000066565b6206eac962010c2084013562000066565b6206eada62010c4084013562000066565b6206eaeb62010c6084013562000066565b6206eafc62010c8084013562000066565b6206eb0d62010ca084013562000066565b6206eb1e62010cc084013562000066565b6206eb2f62010ce084013562000066565b6206eb4062010d0084013562000066565b6206eb5162010d2084013562000066565b6206eb6262010d4084013562000066565b6206eb7362010d6084013562000066565b6206eb8462010d8084013562000066565b6206eb9562010da084013562000066565b6206eba662010dc084013562000066565b6206ebb762010de084013562000066565b6206ebc862010e0084013562000066565b6206ebd962010e2084013562000066565b6206ebea62010e4084013562000066565b6206ebfb62010e6084013562000066565b6206ec0c62010e8084013562000066565b6206ec1d62010ea084013562000066565b6206ec2e62010ec084013562000066565b6206ec3f62010ee084013562000066565b6206ec5062010f0084013562000066565b6206ec6162010f2084013562000066565b6206ec7262010f4084013562000066565b6206ec8362010f6084013562000066565b6206ec9462010f8084013562000066565b6206eca562010fa084013562000066565b6206ecb662010fc084013562000066565b6206ecc762010fe084013562000066565b6206ecd86201100084013562000066565b6206ece96201102084013562000066565b6206ecfa6201104084013562000066565b6206ed0b6201106084013562000066565b6206ed1c6201108084013562000066565b6206ed2d620110a084013562000066565b6206ed3e620110c084013562000066565b6206ed4f620110e084013562000066565b6206ed606201110084013562000066565b6206ed716201112084013562000066565b6206ed826201114084013562000066565b6206ed936201116084013562000066565b6206eda46201118084013562000066565b6206edb5620111a084013562000066565b6206edc6620111c084013562000066565b6206edd7620111e084013562000066565b6206ede86201120084013562000066565b6206edf96201122084013562000066565b6206ee0a6201124084013562000066565b6206ee1b6201126084013562000066565b6206ee2c6201128084013562000066565b6206ee3d620112a084013562000066565b6206ee4e620112c084013562000066565b6206ee5f620112e084013562000066565b6206ee706201130084013562000066565b6206ee816201132084013562000066565b6206ee926201134084013562000066565b6206eea36201136084013562000066565b6206eeb46201138084013562000066565b6206eec5620113a084013562000066565b6206eed6620113c084013562000066565b6206eee7620113e084013562000066565b6206eef86201140084013562000066565b6206ef096201142084013562000066565b6206ef1a6201144084013562000066565b6206ef2b6201146084013562000066565b6206ef3c6201148084013562000066565b6206ef4d620114a084013562000066565b6206ef5e620114c084013562000066565b6206ef6f620114e084013562000066565b6206ef806201150084013562000066565b6206ef916201152084013562000066565b6206efa26201154084013562000066565b6206efb36201156084013562000066565b6206efc46201158084013562000066565b6206efd5620115a084013562000066565b6206efe6620115c084013562000066565b6206eff7620115e084013562000066565b6206f0086201160084013562000066565b6206f0196201162084013562000066565b6206f02a6201164084013562000066565b6206f03b6201166084013562000066565b6206f04c6201168084013562000066565b6206f05d620116a084013562000066565b6206f06e620116c084013562000066565b6206f07f620116e084013562000066565b6206f0906201170084013562000066565b6206f0a16201172084013562000066565b6206f0b26201174084013562000066565b6206f0c36201176084013562000066565b6206f0d46201178084013562000066565b6206f0e5620117a084013562000066565b6206f0f6620117c084013562000066565b6206f107620117e084013562000066565b6206f1186201180084013562000066565b6206f1296201182084013562000066565b6206f13a6201184084013562000066565b6206f14b6201186084013562000066565b6206f15c6201188084013562000066565b6206f16d620118a084013562000066565b6206f17e620118c084013562000066565b6206f18f620118e084013562000066565b6206f1a06201190084013562000066565b6206f1b16201192084013562000066565b6206f1c26201194084013562000066565b6206f1d36201196084013562000066565b6206f1e46201198084013562000066565b6206f1f5620119a084013562000066565b6206f206620119c084013562000066565b6206f217620119e084013562000066565b6206f22862011a0084013562000066565b6206f23962011a2084013562000066565b6206f24a62011a4084013562000066565b6206f25b62011a6084013562000066565b6206f26c62011a8084013562000066565b6206f27d62011aa084013562000066565b6206f28e62011ac084013562000066565b6206f29f62011ae084013562000066565b6206f2b062011b0084013562000066565b6206f2c162011b2084013562000066565b6206f2d262011b4084013562000066565b6206f2e362011b6084013562000066565b6206f2f462011b8084013562000066565b6206f30562011ba084013562000066565b6206f31662011bc084013562000066565b6206f32762011be084013562000066565b6206f33862011c0084013562000066565b6206f34962011c2084013562000066565b6206f35a62011c4084013562000066565b6206f36b62011c6084013562000066565b6206f37c62011c8084013562000066565b6206f38d62011ca084013562000066565b6206f39e62011cc084013562000066565b6206f3af62011ce084013562000066565b6206f3c062011d0084013562000066565b6206f3d162011d2084013562000066565b6206f3e262011d4084013562000066565b6206f3f362011d6084013562000066565b6206f40462011d8084013562000066565b6206f41562011da084013562000066565b6206f42662011dc084013562000066565b6206f43762011de084013562000066565b6206f44862011e0084013562000066565b6206f45962011e2084013562000066565b6206f46a62011e4084013562000066565b6206f47b62011e6084013562000066565b6206f48c62011e8084013562000066565b6206f49d62011ea084013562000066565b6206f4ae62011ec084013562000066565b6206f4bf62011ee084013562000066565b6206f4d062011f0084013562000066565b6206f4e162011f2084013562000066565b6206f4f262011f4084013562000066565b6206f50362011f6084013562000066565b6206f51462011f8084013562000066565b6206f52562011fa084013562000066565b6206f53662011fc084013562000066565b6206f54762011fe084013562000066565b6206f5586201200084013562000066565b6206f5696201202084013562000066565b6206f57a6201204084013562000066565b6206f58b6201206084013562000066565b6206f59c6201208084013562000066565b6206f5ad620120a084013562000066565b6206f5be620120c084013562000066565b6206f5cf620120e084013562000066565b6206f5e06201210084013562000066565b6206f5f16201212084013562000066565b6206f6026201214084013562000066565b6206f6136201216084013562000066565b6206f6246201218084013562000066565b6206f635620121a084013562000066565b6206f646620121c084013562000066565b6206f657620121e084013562000066565b6206f6686201220084013562000066565b6206f6796201222084013562000066565b6206f68a6201224084013562000066565b6206f69b6201226084013562000066565b6206f6ac6201228084013562000066565b6206f6bd620122a084013562000066565b6206f6ce620122c084013562000066565b6206f6df620122e084013562000066565b6206f6f06201230084013562000066565b6206f7016201232084013562000066565b6206f7126201234084013562000066565b6206f7236201236084013562000066565b6206f7346201238084013562000066565b6206f745620123a084013562000066565b6206f756620123c084013562000066565b6206f767620123e084013562000066565b6206f7786201240084013562000066565b6206f7896201242084013562000066565b6206f79a6201244084013562000066565b6206f7ab6201246084013562000066565b6206f7bc6201248084013562000066565b6206f7cd620124a084013562000066565b6206f7de620124c084013562000066565b6206f7ef620124e084013562000066565b6206f8006201250084013562000066565b6206f8116201252084013562000066565b6206f8226201254084013562000066565b6206f8336201256084013562000066565b6206f8446201258084013562000066565b6206f855620125a084013562000066565b6206f866620125c084013562000066565b6206f877620125e084013562000066565b6206f8886201260084013562000066565b6206f8996201262084013562000066565b6206f8aa6201264084013562000066565b6206f8bb6201266084013562000066565b6206f8cc6201268084013562000066565b6206f8dd620126a084013562000066565b6206f8ee620126c084013562000066565b6206f8ff620126e084013562000066565b6206f9106201270084013562000066565b6206f9216201272084013562000066565b6206f9326201274084013562000066565b6206f9436201276084013562000066565b6206f9546201278084013562000066565b6206f965620127a084013562000066565b6206f976620127c084013562000066565b6206f987620127e084013562000066565b6206f9986201280084013562000066565b6206f9a96201282084013562000066565b6206f9ba6201284084013562000066565b6206f9cb6201286084013562000066565b6206f9dc6201288084013562000066565b6206f9ed620128a084013562000066565b6206f9fe620128c084013562000066565b6206fa0f620128e084013562000066565b6206fa206201290084013562000066565b6206fa316201292084013562000066565b6206fa426201294084013562000066565b6206fa536201296084013562000066565b6206fa646201298084013562000066565b6206fa75620129a084013562000066565b6206fa86620129c084013562000066565b6206fa97620129e084013562000066565b6206faa862012a0084013562000066565b6206fab962012a2084013562000066565b6206faca62012a4084013562000066565b6206fadb62012a6084013562000066565b6206faec62012a8084013562000066565b6206fafd62012aa084013562000066565b6206fb0e62012ac084013562000066565b6206fb1f62012ae084013562000066565b6206fb3062012b0084013562000066565b6206fb4162012b2084013562000066565b6206fb5262012b4084013562000066565b6206fb6362012b6084013562000066565b6206fb7462012b8084013562000066565b6206fb8562012ba084013562000066565b6206fb9662012bc084013562000066565b6206fba762012be084013562000066565b6206fbb862012c0084013562000066565b6206fbc962012c2084013562000066565b6206fbda62012c4084013562000066565b6206fbeb62012c6084013562000066565b6206fbfc62012c8084013562000066565b6206fc0d62012ca084013562000066565b6206fc1e62012cc084013562000066565b6206fc2f62012ce084013562000066565b6206fc4062012d0084013562000066565b6206fc5162012d2084013562000066565b6206fc6262012d4084013562000066565b6206fc7362012d6084013562000066565b6206fc8462012d8084013562000066565b6206fc9562012da084013562000066565b6206fca662012dc084013562000066565b6206fcb762012de084013562000066565b6206fcc862012e0084013562000066565b6206fcd962012e2084013562000066565b6206fcea62012e4084013562000066565b6206fcfb62012e6084013562000066565b6206fd0c62012e8084013562000066565b6206fd1d62012ea084013562000066565b6206fd2e62012ec084013562000066565b6206fd3f62012ee084013562000066565b6206fd5062012f0084013562000066565b6206fd6162012f2084013562000066565b6206fd7262012f4084013562000066565b6206fd8362012f6084013562000066565b6206fd9462012f8084013562000066565b6206fda562012fa084013562000066565b6206fdb662012fc084013562000066565b6206fdc762012fe084013562000066565b6206fdd86201300084013562000066565b6206fde96201302084013562000066565b6206fdfa6201304084013562000066565b6206fe0b6201306084013562000066565b6206fe1c6201308084013562000066565b6206fe2d620130a084013562000066565b6206fe3e620130c084013562000066565b6206fe4f620130e084013562000066565b6206fe606201310084013562000066565b6206fe716201312084013562000066565b6206fe826201314084013562000066565b6206fe936201316084013562000066565b6206fea46201318084013562000066565b6206feb5620131a084013562000066565b6206fec6620131c084013562000066565b6206fed7620131e084013562000066565b6206fee86201320084013562000066565b6206fef96201322084013562000066565b6206ff0a6201324084013562000066565b6206ff1b6201326084013562000066565b6206ff2c6201328084013562000066565b6206ff3d620132a084013562000066565b6206ff4e620132c084013562000066565b6206ff5f620132e084013562000066565b6206ff706201330084013562000066565b6206ff816201332084013562000066565b6206ff926201334084013562000066565b6206ffa36201336084013562000066565b6206ffb46201338084013562000066565b6206ffc5620133a084013562000066565b6206ffd6620133c084013562000066565b6206ffe7620133e084013562000066565b6206fff86201340084013562000066565b620700096201342084013562000066565b6207001a6201344084013562000066565b6207002b6201346084013562000066565b6207003c6201348084013562000066565b6207004d620134a084013562000066565b6207005e620134c084013562000066565b6207006f620134e084013562000066565b620700806201350084013562000066565b620700916201352084013562000066565b620700a26201354084013562000066565b620700b36201356084013562000066565b620700c46201358084013562000066565b620700d5620135a084013562000066565b620700e6620135c084013562000066565b620700f7620135e084013562000066565b620701086201360084013562000066565b620701196201362084013562000066565b6207012a6201364084013562000066565b6207013b6201366084013562000066565b6207014c6201368084013562000066565b6207015d620136a084013562000066565b6207016e620136c084013562000066565b6207017f620136e084013562000066565b620701906201370084013562000066565b620701a16201372084013562000066565b620701b26201374084013562000066565b620701c36201376084013562000066565b620701d46201378084013562000066565b620701e5620137a084013562000066565b620701f6620137c084013562000066565b62070207620137e084013562000066565b620702186201380084013562000066565b620702296201382084013562000066565b6207023a6201384084013562000066565b6207024b6201386084013562000066565b6207025c6201388084013562000066565b6207026d620138a084013562000066565b6207027e620138c084013562000066565b6207028f620138e084013562000066565b620702a06201390084013562000066565b620702b16201392084013562000066565b620702c26201394084013562000066565b620702d36201396084013562000066565b620702e46201398084013562000066565b620702f5620139a084013562000066565b62070306620139c084013562000066565b62070317620139e084013562000066565b6207032862013a0084013562000066565b6207033962013a2084013562000066565b6207034a62013a4084013562000066565b6207035b62013a6084013562000066565b6207036c62013a8084013562000066565b6207037d62013aa084013562000066565b6207038e62013ac084013562000066565b6207039f62013ae084013562000066565b620703b062013b0084013562000066565b620703c162013b2084013562000066565b620703d262013b4084013562000066565b620703e362013b6084013562000066565b620703f462013b8084013562000066565b6207040562013ba084013562000066565b6207041662013bc084013562000066565b6207042762013be084013562000066565b6207043862013c0084013562000066565b6207044962013c2084013562000066565b6207045a62013c4084013562000066565b6207046b62013c6084013562000066565b6207047c62013c8084013562000066565b6207048d62013ca084013562000066565b6207049e62013cc084013562000066565b620704af62013ce084013562000066565b620704c062013d0084013562000066565b620704d162013d2084013562000066565b620704e262013d4084013562000066565b620704f362013d6084013562000066565b6207050462013d8084013562000066565b6207051562013da084013562000066565b6207052662013dc084013562000066565b6207053762013de084013562000066565b6207054862013e0084013562000066565b6207055962013e2084013562000066565b6207056a62013e4084013562000066565b6207057b62013e6084013562000066565b6207058c62013e8084013562000066565b6207059d62013ea084013562000066565b620705ae62013ec084013562000066565b620705bf62013ee084013562000066565b620705d062013f0084013562000066565b620705e162013f2084013562000066565b620705f262013f4084013562000066565b6207060362013f6084013562000066565b6207061462013f8084013562000066565b6207062562013fa084013562000066565b6207063662013fc084013562000066565b6207064762013fe084013562000066565b620706586201400084013562000066565b620706696201402084013562000066565b6207067a6201404084013562000066565b6207068b6201406084013562000066565b6207069c6201408084013562000066565b620706ad620140a084013562000066565b620706be620140c084013562000066565b620706cf620140e084013562000066565b620706e06201410084013562000066565b620706f16201412084013562000066565b620707026201414084013562000066565b620707136201416084013562000066565b620707246201418084013562000066565b62070735620141a084013562000066565b62070746620141c084013562000066565b62070757620141e084013562000066565b620707686201420084013562000066565b620707796201422084013562000066565b6207078a6201424084013562000066565b6207079b6201426084013562000066565b620707ac6201428084013562000066565b620707bd620142a084013562000066565b620707ce620142c084013562000066565b620707df620142e084013562000066565b620707f06201430084013562000066565b620708016201432084013562000066565b620708126201434084013562000066565b620708236201436084013562000066565b620708346201438084013562000066565b62070845620143a084013562000066565b62070856620143c084013562000066565b62070867620143e084013562000066565b620708786201440084013562000066565b620708896201442084013562000066565b6207089a6201444084013562000066565b620708ab6201446084013562000066565b620708bc6201448084013562000066565b620708cd620144a084013562000066565b620708de620144c084013562000066565b620708ef620144e084013562000066565b620709006201450084013562000066565b620709116201452084013562000066565b620709226201454084013562000066565b620709336201456084013562000066565b620709446201458084013562000066565b62070955620145a084013562000066565b62070966620145c084013562000066565b62070977620145e084013562000066565b620709886201460084013562000066565b620709996201462084013562000066565b620709aa6201464084013562000066565b620709bb6201466084013562000066565b620709cc6201468084013562000066565b620709dd620146a084013562000066565b620709ee620146c084013562000066565b620709ff620146e084013562000066565b62070a106201470084013562000066565b62070a216201472084013562000066565b62070a326201474084013562000066565b62070a436201476084013562000066565b62070a546201478084013562000066565b62070a65620147a084013562000066565b62070a76620147c084013562000066565b62070a87620147e084013562000066565b62070a986201480084013562000066565b62070aa96201482084013562000066565b62070aba6201484084013562000066565b62070acb6201486084013562000066565b62070adc6201488084013562000066565b62070aed620148a084013562000066565b62070afe620148c084013562000066565b62070b0f620148e084013562000066565b62070b206201490084013562000066565b62070b316201492084013562000066565b62070b426201494084013562000066565b62070b536201496084013562000066565b62070b646201498084013562000066565b62070b75620149a084013562000066565b62070b86620149c084013562000066565b62070b97620149e084013562000066565b62070ba862014a0084013562000066565b62070bb962014a2084013562000066565b62070bca62014a4084013562000066565b62070bdb62014a6084013562000066565b62070bec62014a8084013562000066565b62070bfd62014aa084013562000066565b62070c0e62014ac084013562000066565b62070c1f62014ae084013562000066565b62070c3062014b0084013562000066565b62070c4162014b2084013562000066565b62070c5262014b4084013562000066565b62070c6362014b6084013562000066565b62070c7462014b8084013562000066565b62070c8562014ba084013562000066565b62070c9662014bc084013562000066565b62070ca762014be084013562000066565b62070cb862014c0084013562000066565b62070cc962014c2084013562000066565b62070cda62014c4084013562000066565b62070ceb62014c6084013562000066565b62070cfc62014c8084013562000066565b62070d0d62014ca084013562000066565b62070d1e62014cc084013562000066565b62070d2f62014ce084013562000066565b62070d4062014d0084013562000066565b62070d5162014d2084013562000066565b62070d6262014d4084013562000066565b62070d7362014d6084013562000066565b62070d8462014d8084013562000066565b62070d9562014da084013562000066565b62070da662014dc084013562000066565b62070db762014de084013562000066565b62070dc862014e0084013562000066565b62070dd962014e2084013562000066565b62070dea62014e4084013562000066565b62070dfb62014e6084013562000066565b62070e0c62014e8084013562000066565b62070e1d62014ea084013562000066565b62070e2e62014ec084013562000066565b62070e3f62014ee084013562000066565b62070e5062014f0084013562000066565b62070e6162014f2084013562000066565b62070e7262014f4084013562000066565b62070e8362014f6084013562000066565b62070e9462014f8084013562000066565b62070ea562014fa084013562000066565b62070eb662014fc084013562000066565b62070ec762014fe084013562000066565b62070ed86201500084013562000066565b62070ee96201502084013562000066565b62070efa6201504084013562000066565b62070f0b6201506084013562000066565b62070f1c6201508084013562000066565b62070f2d620150a084013562000066565b62070f3e620150c084013562000066565b62070f4f620150e084013562000066565b62070f606201510084013562000066565b62070f716201512084013562000066565b62070f826201514084013562000066565b62070f936201516084013562000066565b62070fa46201518084013562000066565b62070fb5620151a084013562000066565b62070fc6620151c084013562000066565b62070fd7620151e084013562000066565b62070fe86201520084013562000066565b62070ff96201522084013562000066565b6207100a6201524084013562000066565b6207101b6201526084013562000066565b6207102c6201528084013562000066565b6207103d620152a084013562000066565b6207104e620152c084013562000066565b6207105f620152e084013562000066565b620710706201530084013562000066565b620710816201532084013562000066565b620710926201534084013562000066565b620710a36201536084013562000066565b620710b46201538084013562000066565b620710c5620153a084013562000066565b620710d6620153c084013562000066565b620710e7620153e084013562000066565b620710f86201540084013562000066565b620711096201542084013562000066565b6207111a6201544084013562000066565b6207112b6201546084013562000066565b6207113c6201548084013562000066565b6207114d620154a084013562000066565b6207115e620154c084013562000066565b6207116f620154e084013562000066565b620711806201550084013562000066565b620711916201552084013562000066565b620711a26201554084013562000066565b620711b36201556084013562000066565b620711c46201558084013562000066565b620711d5620155a084013562000066565b620711e6620155c084013562000066565b620711f7620155e084013562000066565b620712086201560084013562000066565b620712196201562084013562000066565b6207122a6201564084013562000066565b6207123b6201566084013562000066565b6207124c6201568084013562000066565b6207125d620156a084013562000066565b6207126e620156c084013562000066565b6207127f620156e084013562000066565b620712906201570084013562000066565b620712a16201572084013562000066565b620712b26201574084013562000066565b620712c36201576084013562000066565b620712d46201578084013562000066565b620712e5620157a084013562000066565b620712f6620157c084013562000066565b62071307620157e084013562000066565b620713186201580084013562000066565b620713296201582084013562000066565b6207133a6201584084013562000066565b6207134b6201586084013562000066565b6207135c6201588084013562000066565b6207136d620158a084013562000066565b6207137e620158c084013562000066565b6207138f620158e084013562000066565b620713a06201590084013562000066565b620713b16201592084013562000066565b620713c26201594084013562000066565b620713d36201596084013562000066565b620713e46201598084013562000066565b620713f5620159a084013562000066565b62071406620159c084013562000066565b62071417620159e084013562000066565b6207142862015a0084013562000066565b6207143962015a2084013562000066565b6207144a62015a4084013562000066565b6207145b62015a6084013562000066565b6207146c62015a8084013562000066565b6207147d62015aa084013562000066565b6207148e62015ac084013562000066565b6207149f62015ae084013562000066565b620714b062015b0084013562000066565b620714c162015b2084013562000066565b620714d262015b4084013562000066565b620714e362015b6084013562000066565b620714f462015b8084013562000066565b6207150562015ba084013562000066565b6207151662015bc084013562000066565b6207152762015be084013562000066565b6207153862015c0084013562000066565b6207154962015c2084013562000066565b6207155a62015c4084013562000066565b6207156b62015c6084013562000066565b6207157c62015c8084013562000066565b6207158d62015ca084013562000066565b6207159e62015cc084013562000066565b620715af62015ce084013562000066565b620715c062015d0084013562000066565b620715d162015d2084013562000066565b620715e262015d4084013562000066565b620715f362015d6084013562000066565b6207160462015d8084013562000066565b6207161562015da084013562000066565b6207162662015dc084013562000066565b6207163762015de084013562000066565b6207164862015e0084013562000066565b6207165962015e2084013562000066565b6207166a62015e4084013562000066565b6207167b62015e6084013562000066565b6207168c62015e8084013562000066565b6207169d62015ea084013562000066565b620716ae62015ec084013562000066565b620716bf62015ee084013562000066565b620716d062015f0084013562000066565b620716e162015f2084013562000066565b620716f262015f4084013562000066565b6207170362015f6084013562000066565b6207171462015f8084013562000066565b6207172562015fa084013562000066565b6207173662015fc084013562000066565b6207174762015fe084013562000066565b620717586201600084013562000066565b620717696201602084013562000066565b6207177a6201604084013562000066565b6207178b6201606084013562000066565b6207179c6201608084013562000066565b620717ad620160a084013562000066565b620717be620160c084013562000066565b620717cf620160e084013562000066565b620717e06201610084013562000066565b620717f16201612084013562000066565b620718026201614084013562000066565b620718136201616084013562000066565b620718246201618084013562000066565b62071835620161a084013562000066565b62071846620161c084013562000066565b62071857620161e084013562000066565b620718686201620084013562000066565b620718796201622084013562000066565b6207188a6201624084013562000066565b6207189b6201626084013562000066565b620718ac6201628084013562000066565b620718bd620162a084013562000066565b620718ce620162c084013562000066565b620718df620162e084013562000066565b620718f06201630084013562000066565b620719016201632084013562000066565b620719126201634084013562000066565b620719236201636084013562000066565b620719346201638084013562000066565b62071945620163a084013562000066565b62071956620163c084013562000066565b62071967620163e084013562000066565b620719786201640084013562000066565b620719896201642084013562000066565b6207199a6201644084013562000066565b620719ab6201646084013562000066565b620719bc6201648084013562000066565b620719cd620164a084013562000066565b620719de620164c084013562000066565b620719ef620164e084013562000066565b62071a006201650084013562000066565b62071a116201652084013562000066565b62071a226201654084013562000066565b62071a336201656084013562000066565b62071a446201658084013562000066565b62071a55620165a084013562000066565b62071a66620165c084013562000066565b62071a77620165e084013562000066565b62071a886201660084013562000066565b62071a996201662084013562000066565b62071aaa6201664084013562000066565b62071abb6201666084013562000066565b62071acc6201668084013562000066565b62071add620166a084013562000066565b62071aee620166c084013562000066565b62071aff620166e084013562000066565b62071b106201670084013562000066565b62071b216201672084013562000066565b62071b326201674084013562000066565b62071b436201676084013562000066565b62071b546201678084013562000066565b62071b65620167a084013562000066565b62071b76620167c084013562000066565b62071b87620167e084013562000066565b62071b986201680084013562000066565b62071ba96201682084013562000066565b62071bba6201684084013562000066565b62071bcb6201686084013562000066565b62071bdc6201688084013562000066565b62071bed620168a084013562000066565b62071bfe620168c084013562000066565b62071c0f620168e084013562000066565b62071c206201690084013562000066565b62071c316201692084013562000066565b62071c426201694084013562000066565b62071c536201696084013562000066565b62071c646201698084013562000066565b62071c75620169a084013562000066565b62071c86620169c084013562000066565b62071c97620169e084013562000066565b62071ca862016a0084013562000066565b62071cb962016a2084013562000066565b62071cca62016a4084013562000066565b62071cdb62016a6084013562000066565b62071cec62016a8084013562000066565b62071cfd62016aa084013562000066565b62071d0e62016ac084013562000066565b62071d1f62016ae084013562000066565b62071d3062016b0084013562000066565b62071d4162016b2084013562000066565b62071d5262016b4084013562000066565b62071d6362016b6084013562000066565b62071d7462016b8084013562000066565b62071d8562016ba084013562000066565b62071d9662016bc084013562000066565b62071da762016be084013562000066565b62071db862016c0084013562000066565b62071dc962016c2084013562000066565b62071dda62016c4084013562000066565b62071deb62016c6084013562000066565b62071dfc62016c8084013562000066565b62071e0d62016ca084013562000066565b62071e1e62016cc084013562000066565b62071e2f62016ce084013562000066565b62071e4062016d0084013562000066565b62071e5162016d2084013562000066565b62071e6262016d4084013562000066565b62071e7362016d6084013562000066565b62071e8462016d8084013562000066565b62071e9562016da084013562000066565b62071ea662016dc084013562000066565b62071eb762016de084013562000066565b62071ec862016e0084013562000066565b62071ed962016e2084013562000066565b62071eea62016e4084013562000066565b62071efb62016e6084013562000066565b62071f0c62016e8084013562000066565b62071f1d62016ea084013562000066565b62071f2e62016ec084013562000066565b62071f3f62016ee084013562000066565b62071f5062016f0084013562000066565b62071f6162016f2084013562000066565b62071f7262016f4084013562000066565b62071f8362016f6084013562000066565b62071f9462016f8084013562000066565b62071fa562016fa084013562000066565b62071fb662016fc084013562000066565b62071fc762016fe084013562000066565b62071fd86201700084013562000066565b62071fe96201702084013562000066565b62071ffa6201704084013562000066565b6207200b6201706084013562000066565b6207201c6201708084013562000066565b6207202d620170a084013562000066565b6207203e620170c084013562000066565b6207204f620170e084013562000066565b620720606201710084013562000066565b620720716201712084013562000066565b620720826201714084013562000066565b620720936201716084013562000066565b620720a46201718084013562000066565b620720b5620171a084013562000066565b620720c6620171c084013562000066565b620720d7620171e084013562000066565b620720e86201720084013562000066565b620720f96201722084013562000066565b6207210a6201724084013562000066565b6207211b6201726084013562000066565b6207212c6201728084013562000066565b6207213d620172a084013562000066565b6207214e620172c084013562000066565b6207215f620172e084013562000066565b620721706201730084013562000066565b620721816201732084013562000066565b620721926201734084013562000066565b620721a36201736084013562000066565b620721b46201738084013562000066565b620721c5620173a084013562000066565b620721d6620173c084013562000066565b620721e7620173e084013562000066565b620721f86201740084013562000066565b620722096201742084013562000066565b6207221a6201744084013562000066565b6207222b6201746084013562000066565b6207223c6201748084013562000066565b6207224d620174a084013562000066565b6207225e620174c084013562000066565b6207226f620174e084013562000066565b620722806201750084013562000066565b620722916201752084013562000066565b620722a26201754084013562000066565b620722b36201756084013562000066565b620722c46201758084013562000066565b620722d5620175a084013562000066565b620722e6620175c084013562000066565b620722f7620175e084013562000066565b620723086201760084013562000066565b620723196201762084013562000066565b6207232a6201764084013562000066565b6207233b6201766084013562000066565b6207234c6201768084013562000066565b6207235d620176a084013562000066565b6207236e620176c084013562000066565b6207237f620176e084013562000066565b620723906201770084013562000066565b620723a16201772084013562000066565b620723b26201774084013562000066565b620723c36201776084013562000066565b620723d46201778084013562000066565b620723e5620177a084013562000066565b620723f6620177c084013562000066565b62072407620177e084013562000066565b620724186201780084013562000066565b620724296201782084013562000066565b6207243a6201784084013562000066565b6207244b6201786084013562000066565b6207245c6201788084013562000066565b6207246d620178a084013562000066565b6207247e620178c084013562000066565b6207248f620178e084013562000066565b620724a06201790084013562000066565b620724b16201792084013562000066565b620724c26201794084013562000066565b620724d36201796084013562000066565b620724e46201798084013562000066565b620724f5620179a084013562000066565b62072506620179c084013562000066565b62072517620179e084013562000066565b6207252862017a0084013562000066565b6207253962017a2084013562000066565b6207254a62017a4084013562000066565b6207255b62017a6084013562000066565b6207256c62017a8084013562000066565b6207257d62017aa084013562000066565b6207258e62017ac084013562000066565b6207259f62017ae084013562000066565b620725b062017b0084013562000066565b620725c162017b2084013562000066565b620725d262017b4084013562000066565b620725e362017b6084013562000066565b620725f462017b8084013562000066565b6207260562017ba084013562000066565b6207261662017bc084013562000066565b6207262762017be084013562000066565b6207263862017c0084013562000066565b6207264962017c2084013562000066565b6207265a62017c4084013562000066565b6207266b62017c6084013562000066565b6207267c62017c8084013562000066565b6207268d62017ca084013562000066565b6207269e62017cc084013562000066565b620726af62017ce084013562000066565b620726c062017d0084013562000066565b620726d162017d2084013562000066565b620726e262017d4084013562000066565b620726f362017d6084013562000066565b6207270462017d8084013562000066565b6207271562017da084013562000066565b6207272662017dc084013562000066565b6207273762017de084013562000066565b6207274862017e0084013562000066565b6207275962017e2084013562000066565b6207276a62017e4084013562000066565b6207277b62017e6084013562000066565b6207278c62017e8084013562000066565b6207279d62017ea084013562000066565b620727ae62017ec084013562000066565b620727bf62017ee084013562000066565b620727d062017f0084013562000066565b620727e162017f2084013562000066565b620727f262017f4084013562000066565b6207280362017f6084013562000066565b6207281462017f8084013562000066565b6207282562017fa084013562000066565b6207283662017fc084013562000066565b6207284762017fe084013562000066565b620728586201800084013562000066565b620728696201802084013562000066565b6207287a6201804084013562000066565b6207288b6201806084013562000066565b6207289c6201808084013562000066565b620728ad620180a084013562000066565b620728be620180c084013562000066565b620728cf620180e084013562000066565b620728e06201810084013562000066565b620728f16201812084013562000066565b620729026201814084013562000066565b620729136201816084013562000066565b620729246201818084013562000066565b62072935620181a084013562000066565b62072946620181c084013562000066565b62072957620181e084013562000066565b620729686201820084013562000066565b620729796201822084013562000066565b6207298a6201824084013562000066565b6207299b6201826084013562000066565b620729ac6201828084013562000066565b620729bd620182a084013562000066565b620729ce620182c084013562000066565b620729df620182e084013562000066565b620729f06201830084013562000066565b62072a016201832084013562000066565b62072a126201834084013562000066565b62072a236201836084013562000066565b62072a346201838084013562000066565b62072a45620183a084013562000066565b62072a56620183c084013562000066565b62072a67620183e084013562000066565b62072a786201840084013562000066565b62072a896201842084013562000066565b62072a9a6201844084013562000066565b62072aab6201846084013562000066565b62072abc6201848084013562000066565b62072acd620184a084013562000066565b62072ade620184c084013562000066565b62072aef620184e084013562000066565b62072b006201850084013562000066565b62072b116201852084013562000066565b62072b226201854084013562000066565b62072b336201856084013562000066565b62072b446201858084013562000066565b62072b55620185a084013562000066565b62072b66620185c084013562000066565b62072b77620185e084013562000066565b62072b886201860084013562000066565b62072b996201862084013562000066565b62072baa6201864084013562000066565b62072bbb6201866084013562000066565b62072bcc6201868084013562000066565b62072bdd620186a084013562000066565b62072bee620186c084013562000066565b62072bff620186e084013562000066565b62072c106201870084013562000066565b62072c216201872084013562000066565b62072c326201874084013562000066565b62072c436201876084013562000066565b62072c546201878084013562000066565b62072c65620187a084013562000066565b62072c76620187c084013562000066565b62072c87620187e084013562000066565b62072c986201880084013562000066565b62072ca96201882084013562000066565b62072cba6201884084013562000066565b62072ccb6201886084013562000066565b62072cdc6201888084013562000066565b62072ced620188a084013562000066565b62072cfe620188c084013562000066565b62072d0f620188e084013562000066565b62072d206201890084013562000066565b62072d316201892084013562000066565b62072d426201894084013562000066565b62072d536201896084013562000066565b62072d646201898084013562000066565b62072d75620189a084013562000066565b62072d86620189c084013562000066565b62072d97620189e084013562000066565b62072da862018a0084013562000066565b62072db962018a2084013562000066565b62072dca62018a4084013562000066565b62072ddb62018a6084013562000066565b62072dec62018a8084013562000066565b62072dfd62018aa084013562000066565b62072e0e62018ac084013562000066565b62072e1f62018ae084013562000066565b62072e3062018b0084013562000066565b62072e4162018b2084013562000066565b62072e5262018b4084013562000066565b62072e6362018b6084013562000066565b62072e7462018b8084013562000066565b62072e8562018ba084013562000066565b62072e9662018bc084013562000066565b62072ea762018be084013562000066565b62072eb862018c0084013562000066565b62072ec962018c2084013562000066565b62072eda62018c4084013562000066565b62072eeb62018c6084013562000066565b62072efc62018c8084013562000066565b62072f0d62018ca084013562000066565b62072f1e62018cc084013562000066565b62072f2f62018ce084013562000066565b62072f4062018d0084013562000066565b62072f5162018d2084013562000066565b62072f6262018d4084013562000066565b62072f7362018d6084013562000066565b62072f8462018d8084013562000066565b62072f9562018da084013562000066565b62072fa662018dc084013562000066565b62072fb762018de084013562000066565b62072fc862018e0084013562000066565b62072fd962018e2084013562000066565b62072fea62018e4084013562000066565b62072ffb62018e6084013562000066565b6207300c62018e8084013562000066565b6207301d62018ea084013562000066565b6207302e62018ec084013562000066565b6207303f62018ee084013562000066565b6207305062018f0084013562000066565b6207306162018f2084013562000066565b6207307262018f4084013562000066565b6207308362018f6084013562000066565b6207309462018f8084013562000066565b620730a562018fa084013562000066565b620730b662018fc084013562000066565b620730c762018fe084013562000066565b620730d86201900084013562000066565b620730e96201902084013562000066565b620730fa6201904084013562000066565b6207310b6201906084013562000066565b6207311c6201908084013562000066565b6207312d620190a084013562000066565b6207313e620190c084013562000066565b6207314f620190e084013562000066565b620731606201910084013562000066565b620731716201912084013562000066565b620731826201914084013562000066565b620731936201916084013562000066565b620731a46201918084013562000066565b620731b5620191a084013562000066565b620731c6620191c084013562000066565b620731d7620191e084013562000066565b620731e86201920084013562000066565b620731f96201922084013562000066565b6207320a6201924084013562000066565b6207321b6201926084013562000066565b6207322c6201928084013562000066565b6207323d620192a084013562000066565b6207324e620192c084013562000066565b6207325f620192e084013562000066565b620732706201930084013562000066565b620732816201932084013562000066565b620732926201934084013562000066565b620732a36201936084013562000066565b620732b46201938084013562000066565b620732c5620193a084013562000066565b620732d6620193c084013562000066565b620732e7620193e084013562000066565b620732f86201940084013562000066565b620733096201942084013562000066565b6207331a6201944084013562000066565b6207332b6201946084013562000066565b6207333c6201948084013562000066565b6207334d620194a084013562000066565b6207335e620194c084013562000066565b6207336f620194e084013562000066565b620733806201950084013562000066565b620733916201952084013562000066565b620733a26201954084013562000066565b620733b36201956084013562000066565b620733c46201958084013562000066565b620733d5620195a084013562000066565b620733e6620195c084013562000066565b620733f7620195e084013562000066565b620734086201960084013562000066565b620734196201962084013562000066565b6207342a6201964084013562000066565b6207343b6201966084013562000066565b6207344c6201968084013562000066565b6207345d620196a084013562000066565b6207346e620196c084013562000066565b6207347f620196e084013562000066565b620734906201970084013562000066565b620734a16201972084013562000066565b620734b26201974084013562000066565b620734c36201976084013562000066565b620734d46201978084013562000066565b620734e5620197a084013562000066565b620734f6620197c084013562000066565b62073507620197e084013562000066565b620735186201980084013562000066565b620735296201982084013562000066565b6207353a6201984084013562000066565b6207354b6201986084013562000066565b6207355c6201988084013562000066565b6207356d620198a084013562000066565b6207357e620198c084013562000066565b6207358f620198e084013562000066565b620735a06201990084013562000066565b620735b16201992084013562000066565b620735c26201994084013562000066565b620735d36201996084013562000066565b620735e46201998084013562000066565b620735f5620199a084013562000066565b62073606620199c084013562000066565b62073617620199e084013562000066565b6207362862019a0084013562000066565b6207363962019a2084013562000066565b6207364a62019a4084013562000066565b6207365b62019a6084013562000066565b6207366c62019a8084013562000066565b6207367d62019aa084013562000066565b6207368e62019ac084013562000066565b6207369f62019ae084013562000066565b620736b062019b0084013562000066565b620736c162019b2084013562000066565b620736d262019b4084013562000066565b620736e362019b6084013562000066565b620736f462019b8084013562000066565b6207370562019ba084013562000066565b6207371662019bc084013562000066565b6207372762019be084013562000066565b6207373862019c0084013562000066565b6207374962019c2084013562000066565b6207375a62019c4084013562000066565b6207376b62019c6084013562000066565b6207377c62019c8084013562000066565b6207378d62019ca084013562000066565b6207379e62019cc084013562000066565b620737af62019ce084013562000066565b620737c062019d0084013562000066565b620737d162019d2084013562000066565b620737e262019d4084013562000066565b620737f362019d6084013562000066565b6207380462019d8084013562000066565b6207381562019da084013562000066565b6207382662019dc084013562000066565b6207383762019de084013562000066565b6207384862019e0084013562000066565b6207385962019e2084013562000066565b6207386a62019e4084013562000066565b6207387b62019e6084013562000066565b6207388c62019e8084013562000066565b6207389d62019ea084013562000066565b620738ae62019ec084013562000066565b620738bf62019ee084013562000066565b620738d062019f0084013562000066565b620738e162019f2084013562000066565b620738f262019f4084013562000066565b6207390362019f6084013562000066565b6207391462019f8084013562000066565b6207392562019fa084013562000066565b6207393662019fc084013562000066565b6207394762019fe084013562000066565b620739586201a00084013562000066565b620739696201a02084013562000066565b6207397a6201a04084013562000066565b6207398b6201a06084013562000066565b6207399c6201a08084013562000066565b620739ad6201a0a084013562000066565b620739be6201a0c084013562000066565b620739cf6201a0e084013562000066565b620739e06201a10084013562000066565b620739f16201a12084013562000066565b62073a026201a14084013562000066565b62073a136201a16084013562000066565b62073a246201a18084013562000066565b62073a356201a1a084013562000066565b62073a466201a1c084013562000066565b62073a576201a1e084013562000066565b62073a686201a20084013562000066565b62073a796201a22084013562000066565b62073a8a6201a24084013562000066565b62073a9b6201a26084013562000066565b62073aac6201a28084013562000066565b62073abd6201a2a084013562000066565b62073ace6201a2c084013562000066565b62073adf6201a2e084013562000066565b62073af06201a30084013562000066565b62073b016201a32084013562000066565b62073b126201a34084013562000066565b62073b236201a36084013562000066565b62073b346201a38084013562000066565b62073b456201a3a084013562000066565b62073b566201a3c084013562000066565b62073b676201a3e084013562000066565b62073b786201a40084013562000066565b62073b896201a42084013562000066565b62073b9a6201a44084013562000066565b62073bab6201a46084013562000066565b62073bbc6201a48084013562000066565b62073bcd6201a4a084013562000066565b62073bde6201a4c084013562000066565b62073bef6201a4e084013562000066565b62073c006201a50084013562000066565b62073c116201a52084013562000066565b62073c226201a54084013562000066565b62073c336201a56084013562000066565b62073c446201a58084013562000066565b62073c556201a5a084013562000066565b62073c666201a5c084013562000066565b62073c776201a5e084013562000066565b62073c886201a60084013562000066565b62073c996201a62084013562000066565b62073caa6201a64084013562000066565b62073cbb6201a66084013562000066565b62073ccc6201a68084013562000066565b62073cdd6201a6a084013562000066565b62073cee6201a6c084013562000066565b62073cff6201a6e084013562000066565b62073d106201a70084013562000066565b62073d216201a72084013562000066565b62073d326201a74084013562000066565b62073d436201a76084013562000066565b62073d546201a78084013562000066565b62073d656201a7a084013562000066565b62073d766201a7c084013562000066565b62073d876201a7e084013562000066565b62073d986201a80084013562000066565b62073da96201a82084013562000066565b62073dba6201a84084013562000066565b62073dcb6201a86084013562000066565b62073ddc6201a88084013562000066565b62073ded6201a8a084013562000066565b62073dfe6201a8c084013562000066565b62073e0f6201a8e084013562000066565b62073e206201a90084013562000066565b62073e316201a92084013562000066565b62073e426201a94084013562000066565b62073e536201a96084013562000066565b62073e646201a98084013562000066565b62073e756201a9a084013562000066565b62073e866201a9c084013562000066565b62073e976201a9e084013562000066565b62073ea86201aa0084013562000066565b62073eb96201aa2084013562000066565b62073eca6201aa4084013562000066565b62073edb6201aa6084013562000066565b62073eec6201aa8084013562000066565b62073efd6201aaa084013562000066565b62073f0e6201aac084013562000066565b62073f1f6201aae084013562000066565b62073f306201ab0084013562000066565b62073f416201ab2084013562000066565b62073f526201ab4084013562000066565b62073f636201ab6084013562000066565b62073f746201ab8084013562000066565b62073f856201aba084013562000066565b62073f966201abc084013562000066565b62073fa76201abe084013562000066565b62073fb86201ac0084013562000066565b62073fc96201ac2084013562000066565b62073fda6201ac4084013562000066565b62073feb6201ac6084013562000066565b62073ffc6201ac8084013562000066565b6207400d6201aca084013562000066565b6207401e6201acc084013562000066565b6207402f6201ace084013562000066565b620740406201ad0084013562000066565b620740516201ad2084013562000066565b620740626201ad4084013562000066565b620740736201ad6084013562000066565b620740846201ad8084013562000066565b620740956201ada084013562000066565b620740a66201adc084013562000066565b620740b76201ade084013562000066565b620740c86201ae0084013562000066565b620740d96201ae2084013562000066565b620740ea6201ae4084013562000066565b620740fb6201ae6084013562000066565b6207410c6201ae8084013562000066565b6207411d6201aea084013562000066565b6207412e6201aec084013562000066565b6207413f6201aee084013562000066565b620741506201af0084013562000066565b620741616201af2084013562000066565b620741726201af4084013562000066565b620741836201af6084013562000066565b620741946201af8084013562000066565b620741a56201afa084013562000066565b620741b66201afc084013562000066565b620741c76201afe084013562000066565b620741d86201b00084013562000066565b620741e96201b02084013562000066565b620741fa6201b04084013562000066565b6207420b6201b06084013562000066565b6207421c6201b08084013562000066565b6207422d6201b0a084013562000066565b6207423e6201b0c084013562000066565b6207424f6201b0e084013562000066565b620742606201b10084013562000066565b620742716201b12084013562000066565b620742826201b14084013562000066565b620742936201b16084013562000066565b620742a46201b18084013562000066565b620742b56201b1a084013562000066565b620742c66201b1c084013562000066565b620742d76201b1e084013562000066565b620742e86201b20084013562000066565b620742f96201b22084013562000066565b6207430a6201b24084013562000066565b6207431b6201b26084013562000066565b6207432c6201b28084013562000066565b6207433d6201b2a084013562000066565b6207434e6201b2c084013562000066565b6207435f6201b2e084013562000066565b620743706201b30084013562000066565b620743816201b32084013562000066565b620743926201b34084013562000066565b620743a36201b36084013562000066565b620743b46201b38084013562000066565b620743c56201b3a084013562000066565b620743d66201b3c084013562000066565b620743e76201b3e084013562000066565b620743f86201b40084013562000066565b620744096201b42084013562000066565b6207441a6201b44084013562000066565b6207442b6201b46084013562000066565b6207443c6201b48084013562000066565b6207444d6201b4a084013562000066565b6207445e6201b4c084013562000066565b6207446f6201b4e084013562000066565b620744806201b50084013562000066565b620744916201b52084013562000066565b620744a26201b54084013562000066565b620744b36201b56084013562000066565b620744c46201b58084013562000066565b620744d56201b5a084013562000066565b620744e66201b5c084013562000066565b620744f76201b5e084013562000066565b620745086201b60084013562000066565b620745196201b62084013562000066565b6207452a6201b64084013562000066565b6207453b6201b66084013562000066565b6207454c6201b68084013562000066565b6207455d6201b6a084013562000066565b6207456e6201b6c084013562000066565b6207457f6201b6e084013562000066565b620745906201b70084013562000066565b620745a16201b72084013562000066565b620745b26201b74084013562000066565b620745c36201b76084013562000066565b620745d46201b78084013562000066565b620745e56201b7a084013562000066565b620745f66201b7c084013562000066565b620746076201b7e084013562000066565b620746186201b80084013562000066565b620746296201b82084013562000066565b6207463a6201b84084013562000066565b6207464b6201b86084013562000066565b6207465c6201b88084013562000066565b6207466d6201b8a084013562000066565b6207467e6201b8c084013562000066565b6207468f6201b8e084013562000066565b620746a06201b90084013562000066565b620746b16201b92084013562000066565b620746c26201b94084013562000066565b620746d36201b96084013562000066565b620746e46201b98084013562000066565b620746f56201b9a084013562000066565b620747066201b9c084013562000066565b620747176201b9e084013562000066565b620747286201ba0084013562000066565b620747396201ba2084013562000066565b6207474a6201ba4084013562000066565b6207475b6201ba6084013562000066565b6207476c6201ba8084013562000066565b6207477d6201baa084013562000066565b6207478e6201bac084013562000066565b6207479f6201bae084013562000066565b620747b06201bb0084013562000066565b620747c16201bb2084013562000066565b620747d26201bb4084013562000066565b620747e36201bb6084013562000066565b620747f46201bb8084013562000066565b620748056201bba084013562000066565b620748166201bbc084013562000066565b620748276201bbe084013562000066565b620748386201bc0084013562000066565b620748496201bc2084013562000066565b6207485a6201bc4084013562000066565b6207486b6201bc6084013562000066565b6207487c6201bc8084013562000066565b6207488d6201bca084013562000066565b6207489e6201bcc084013562000066565b620748af6201bce084013562000066565b620748c06201bd0084013562000066565b620748d16201bd2084013562000066565b620748e26201bd4084013562000066565b620748f36201bd6084013562000066565b620749046201bd8084013562000066565b620749156201bda084013562000066565b620749266201bdc084013562000066565b620749376201bde084013562000066565b620749486201be0084013562000066565b620749596201be2084013562000066565b6207496a6201be4084013562000066565b6207497b6201be6084013562000066565b6207498c6201be8084013562000066565b6207499d6201bea084013562000066565b620749ae6201bec084013562000066565b620749bf6201bee084013562000066565b620749d06201bf0084013562000066565b620749e16201bf2084013562000066565b620749f26201bf4084013562000066565b62074a036201bf6084013562000066565b62074a146201bf8084013562000066565b62074a256201bfa084013562000066565b62074a366201bfc084013562000066565b62074a476201bfe084013562000066565b62074a586201c00084013562000066565b62074a696201c02084013562000066565b62074a7a6201c04084013562000066565b62074a8b6201c06084013562000066565b62074a9c6201c08084013562000066565b62074aad6201c0a084013562000066565b62074abe6201c0c084013562000066565b62074acf6201c0e084013562000066565b62074ae06201c10084013562000066565b62074af16201c12084013562000066565b62074b026201c14084013562000066565b62074b136201c16084013562000066565b62074b246201c18084013562000066565b62074b356201c1a084013562000066565b62074b466201c1c084013562000066565b62074b576201c1e084013562000066565b62074b686201c20084013562000066565b62074b796201c22084013562000066565b62074b8a6201c24084013562000066565b62074b9b6201c26084013562000066565b62074bac6201c28084013562000066565b62074bbd6201c2a084013562000066565b62074bce6201c2c084013562000066565b62074bdf6201c2e084013562000066565b62074bf06201c30084013562000066565b62074c016201c32084013562000066565b62074c126201c34084013562000066565b62074c236201c36084013562000066565b62074c346201c38084013562000066565b62074c456201c3a084013562000066565b62074c566201c3c084013562000066565b62074c676201c3e084013562000066565b62074c786201c40084013562000066565b62074c896201c42084013562000066565b62074c9a6201c44084013562000066565b62074cab6201c46084013562000066565b62074cbc6201c48084013562000066565b62074ccd6201c4a084013562000066565b62074cde6201c4c084013562000066565b62074cef6201c4e084013562000066565b62074d006201c50084013562000066565b62074d116201c52084013562000066565b62074d226201c54084013562000066565b62074d336201c56084013562000066565b62074d446201c58084013562000066565b62074d556201c5a084013562000066565b62074d666201c5c084013562000066565b62074d776201c5e084013562000066565b62074d886201c60084013562000066565b62074d996201c62084013562000066565b62074daa6201c64084013562000066565b62074dbb6201c66084013562000066565b62074dcc6201c68084013562000066565b62074ddd6201c6a084013562000066565b62074dee6201c6c084013562000066565b62074dff6201c6e084013562000066565b62074e106201c70084013562000066565b62074e216201c72084013562000066565b62074e326201c74084013562000066565b62074e436201c76084013562000066565b62074e546201c78084013562000066565b62074e656201c7a084013562000066565b62074e766201c7c084013562000066565b62074e876201c7e084013562000066565b62074e986201c80084013562000066565b62074ea96201c82084013562000066565b62074eba6201c84084013562000066565b62074ecb6201c86084013562000066565b62074edc6201c88084013562000066565b62074eed6201c8a084013562000066565b62074efe6201c8c084013562000066565b62074f0f6201c8e084013562000066565b62074f206201c90084013562000066565b62074f316201c92084013562000066565b62074f426201c94084013562000066565b62074f536201c96084013562000066565b62074f646201c98084013562000066565b62074f756201c9a084013562000066565b62074f866201c9c084013562000066565b62074f976201c9e084013562000066565b62074fa86201ca0084013562000066565b62074fb96201ca2084013562000066565b62074fca6201ca4084013562000066565b62074fdb6201ca6084013562000066565b62074fec6201ca8084013562000066565b62074ffd6201caa084013562000066565b6207500e6201cac084013562000066565b6207501f6201cae084013562000066565b620750306201cb0084013562000066565b620750416201cb2084013562000066565b620750526201cb4084013562000066565b620750636201cb6084013562000066565b620750746201cb8084013562000066565b620750856201cba084013562000066565b620750966201cbc084013562000066565b620750a76201cbe084013562000066565b620750b86201cc0084013562000066565b620750c96201cc2084013562000066565b620750da6201cc4084013562000066565b620750eb6201cc6084013562000066565b620750fc6201cc8084013562000066565b6207510d6201cca084013562000066565b6207511e6201ccc084013562000066565b6207512f6201cce084013562000066565b620751406201cd0084013562000066565b620751516201cd2084013562000066565b620751626201cd4084013562000066565b620751736201cd6084013562000066565b620751846201cd8084013562000066565b620751956201cda084013562000066565b620751a66201cdc084013562000066565b620751b76201cde084013562000066565b620751c86201ce0084013562000066565b620751d96201ce2084013562000066565b620751ea6201ce4084013562000066565b620751fb6201ce6084013562000066565b6207520c6201ce8084013562000066565b6207521d6201cea084013562000066565b6207522e6201cec084013562000066565b6207523f6201cee084013562000066565b620752506201cf0084013562000066565b620752616201cf2084013562000066565b620752726201cf4084013562000066565b620752836201cf6084013562000066565b620752946201cf8084013562000066565b620752a56201cfa084013562000066565b620752b66201cfc084013562000066565b620752c76201cfe084013562000066565b620752d86201d00084013562000066565b620752e96201d02084013562000066565b620752fa6201d04084013562000066565b6207530b6201d06084013562000066565b6207531c6201d08084013562000066565b6207532d6201d0a084013562000066565b6207533e6201d0c084013562000066565b6207534f6201d0e084013562000066565b620753606201d10084013562000066565b620753716201d12084013562000066565b620753826201d14084013562000066565b620753936201d16084013562000066565b620753a46201d18084013562000066565b620753b56201d1a084013562000066565b620753c66201d1c084013562000066565b620753d76201d1e084013562000066565b620753e86201d20084013562000066565b620753f96201d22084013562000066565b6207540a6201d24084013562000066565b6207541b6201d26084013562000066565b6207542c6201d28084013562000066565b6207543d6201d2a084013562000066565b6207544e6201d2c084013562000066565b6207545f6201d2e084013562000066565b620754706201d30084013562000066565b620754816201d32084013562000066565b620754926201d34084013562000066565b620754a36201d36084013562000066565b620754b46201d38084013562000066565b620754c56201d3a084013562000066565b620754d66201d3c084013562000066565b620754e76201d3e084013562000066565b620754f86201d40084013562000066565b620755096201d42084013562000066565b6207551a6201d44084013562000066565b6207552b6201d46084013562000066565b6207553c6201d48084013562000066565b6207554d6201d4a084013562000066565b6207555e6201d4c084013562000066565b6207556f6201d4e084013562000066565b620755806201d50084013562000066565b620755916201d52084013562000066565b620755a26201d54084013562000066565b620755b36201d56084013562000066565b620755c46201d58084013562000066565b620755d56201d5a084013562000066565b620755e66201d5c084013562000066565b620755f76201d5e084013562000066565b620756086201d60084013562000066565b620756196201d62084013562000066565b6207562a6201d64084013562000066565b6207563b6201d66084013562000066565b6207564c6201d68084013562000066565b6207565d6201d6a084013562000066565b6207566e6201d6c084013562000066565b6207567f6201d6e084013562000066565b620756906201d70084013562000066565b620756a16201d72084013562000066565b620756b26201d74084013562000066565b620756c36201d76084013562000066565b620756d46201d78084013562000066565b620756e56201d7a084013562000066565b620756f66201d7c084013562000066565b620757076201d7e084013562000066565b620757186201d80084013562000066565b620757296201d82084013562000066565b6207573a6201d84084013562000066565b6207574b6201d86084013562000066565b6207575c6201d88084013562000066565b6207576d6201d8a084013562000066565b6207577e6201d8c084013562000066565b6207578f6201d8e084013562000066565b620757a06201d90084013562000066565b620757b16201d92084013562000066565b620757c26201d94084013562000066565b620757d36201d96084013562000066565b620757e46201d98084013562000066565b620757f56201d9a084013562000066565b620758066201d9c084013562000066565b620758176201d9e084013562000066565b620758286201da0084013562000066565b620758396201da2084013562000066565b6207584a6201da4084013562000066565b6207585b6201da6084013562000066565b6207586c6201da8084013562000066565b6207587d6201daa084013562000066565b6207588e6201dac084013562000066565b6207589f6201dae084013562000066565b620758b06201db0084013562000066565b620758c16201db2084013562000066565b620758d26201db4084013562000066565b620758e36201db6084013562000066565b620758f46201db8084013562000066565b620759056201dba084013562000066565b620759166201dbc084013562000066565b620759276201dbe084013562000066565b620759386201dc0084013562000066565b620759496201dc2084013562000066565b6207595a6201dc4084013562000066565b6207596b6201dc6084013562000066565b6207597c6201dc8084013562000066565b6207598d6201dca084013562000066565b6207599e6201dcc084013562000066565b620759af6201dce084013562000066565b620759c06201dd0084013562000066565b620759d16201dd2084013562000066565b620759e26201dd4084013562000066565b620759f36201dd6084013562000066565b62075a046201dd8084013562000066565b62075a156201dda084013562000066565b62075a266201ddc084013562000066565b62075a376201dde084013562000066565b62075a486201de0084013562000066565b62075a596201de2084013562000066565b62075a6a6201de4084013562000066565b62075a7b6201de6084013562000066565b62075a8c6201de8084013562000066565b62075a9d6201dea084013562000066565b62075aae6201dec084013562000066565b62075abf6201dee084013562000066565b62075ad06201df0084013562000066565b62075ae16201df2084013562000066565b62075af26201df4084013562000066565b62075b036201df6084013562000066565b62075b146201df8084013562000066565b62075b256201dfa084013562000066565b62075b366201dfc084013562000066565b62075b476201dfe084013562000066565b62075b586201e00084013562000066565b62075b696201e02084013562000066565b62075b7a6201e04084013562000066565b62075b8b6201e06084013562000066565b62075b9c6201e08084013562000066565b62075bad6201e0a084013562000066565b62075bbe6201e0c084013562000066565b62075bcf6201e0e084013562000066565b62075be06201e10084013562000066565b62075bf16201e12084013562000066565b62075c026201e14084013562000066565b62075c136201e16084013562000066565b62075c246201e18084013562000066565b62075c356201e1a084013562000066565b62075c466201e1c084013562000066565b62075c576201e1e084013562000066565b62075c686201e20084013562000066565b62075c796201e22084013562000066565b62075c8a6201e24084013562000066565b62075c9b6201e26084013562000066565b62075cac6201e28084013562000066565b62075cbd6201e2a084013562000066565b62075cce6201e2c084013562000066565b62075cdf6201e2e084013562000066565b62075cf06201e30084013562000066565b62075d016201e32084013562000066565b62075d126201e34084013562000066565b62075d236201e36084013562000066565b62075d346201e38084013562000066565b62075d456201e3a084013562000066565b62075d566201e3c084013562000066565b62075d676201e3e084013562000066565b62075d786201e40084013562000066565b62075d896201e42084013562000066565b62075d9a6201e44084013562000066565b62075dab6201e46084013562000066565b62075dbc6201e48084013562000066565b62075dcd6201e4a084013562000066565b62075dde6201e4c084013562000066565b62075def6201e4e084013562000066565b62075e006201e50084013562000066565b62075e116201e52084013562000066565b62075e226201e54084013562000066565b62075e336201e56084013562000066565b62075e446201e58084013562000066565b62075e556201e5a084013562000066565b62075e666201e5c084013562000066565b62075e776201e5e084013562000066565b62075e886201e60084013562000066565b62075e996201e62084013562000066565b62075eaa6201e64084013562000066565b62075ebb6201e66084013562000066565b62075ecc6201e68084013562000066565b62075edd6201e6a084013562000066565b62075eee6201e6c084013562000066565b62075eff6201e6e084013562000066565b62075f106201e70084013562000066565b62075f216201e72084013562000066565b62075f326201e74084013562000066565b62075f436201e76084013562000066565b62075f546201e78084013562000066565b62075f656201e7a084013562000066565b62075f766201e7c084013562000066565b62075f876201e7e084013562000066565b62075f986201e80084013562000066565b62075fa96201e82084013562000066565b62075fba6201e84084013562000066565b62075fcb6201e86084013562000066565b62075fdc6201e88084013562000066565b62075fed6201e8a084013562000066565b62075ffe6201e8c084013562000066565b6207600f6201e8e084013562000066565b620760206201e90084013562000066565b620760316201e92084013562000066565b620760426201e94084013562000066565b620760536201e96084013562000066565b620760646201e98084013562000066565b620760756201e9a084013562000066565b620760866201e9c084013562000066565b620760976201e9e084013562000066565b620760a86201ea0084013562000066565b620760b96201ea2084013562000066565b620760ca6201ea4084013562000066565b620760db6201ea6084013562000066565b620760ec6201ea8084013562000066565b620760fd6201eaa084013562000066565b6207610e6201eac084013562000066565b6207611f6201eae084013562000066565b620761306201eb0084013562000066565b620761416201eb2084013562000066565b620761526201eb4084013562000066565b620761636201eb6084013562000066565b620761746201eb8084013562000066565b620761856201eba084013562000066565b620761966201ebc084013562000066565b620761a76201ebe084013562000066565b620761b86201ec0084013562000066565b620761c96201ec2084013562000066565b620761da6201ec4084013562000066565b620761eb6201ec6084013562000066565b620761fc6201ec8084013562000066565b6207620d6201eca084013562000066565b6207621e6201ecc084013562000066565b6207622f6201ece084013562000066565b620762406201ed0084013562000066565b620762516201ed2084013562000066565b620762626201ed4084013562000066565b620762736201ed6084013562000066565b620762846201ed8084013562000066565b620762956201eda084013562000066565b620762a66201edc084013562000066565b620762b76201ede084013562000066565b620762c86201ee0084013562000066565b620762d96201ee2084013562000066565b620762ea6201ee4084013562000066565b620762fb6201ee6084013562000066565b6207630c6201ee8084013562000066565b6207631d6201eea084013562000066565b6207632e6201eec084013562000066565b6207633f6201eee084013562000066565b620763506201ef0084013562000066565b620763616201ef2084013562000066565b620763726201ef4084013562000066565b620763836201ef6084013562000066565b620763946201ef8084013562000066565b620763a56201efa084013562000066565b620763b66201efc084013562000066565b620763c76201efe084013562000066565b620763d86201f00084013562000066565b620763e96201f02084013562000066565b620763fa6201f04084013562000066565b6207640b6201f06084013562000066565b6207641c6201f08084013562000066565b6207642d6201f0a084013562000066565b6207643e6201f0c084013562000066565b6207644f6201f0e084013562000066565b620764606201f10084013562000066565b620764716201f12084013562000066565b620764826201f14084013562000066565b620764936201f16084013562000066565b620764a46201f18084013562000066565b620764b56201f1a084013562000066565b620764c66201f1c084013562000066565b620764d76201f1e084013562000066565b620764e86201f20084013562000066565b620764f96201f22084013562000066565b6207650a6201f24084013562000066565b6207651b6201f26084013562000066565b6207652c6201f28084013562000066565b6207653d6201f2a084013562000066565b6207654e6201f2c084013562000066565b6207655f6201f2e084013562000066565b620765706201f30084013562000066565b620765816201f32084013562000066565b620765926201f34084013562000066565b620765a36201f36084013562000066565b620765b46201f38084013562000066565b620765c56201f3a084013562000066565b620765d66201f3c084013562000066565b620765e76201f3e084013562000066565b620765f86201f40084013562000066565b620766096201f42084013562000066565b6207661a6201f44084013562000066565b6207662b6201f46084013562000066565b6207663c6201f48084013562000066565b6207664d6201f4a084013562000066565b6207665e6201f4c084013562000066565b6207666f6201f4e084013562000066565b620766806201f50084013562000066565b620766916201f52084013562000066565b620766a26201f54084013562000066565b620766b36201f56084013562000066565b620766c46201f58084013562000066565b620766d56201f5a084013562000066565b620766e66201f5c084013562000066565b620766f76201f5e084013562000066565b620767086201f60084013562000066565b620767196201f62084013562000066565b6207672a6201f64084013562000066565b6207673b6201f66084013562000066565b6207674c6201f68084013562000066565b6207675d6201f6a084013562000066565b6207676e6201f6c084013562000066565b6207677f6201f6e084013562000066565b620767906201f70084013562000066565b620767a16201f72084013562000066565b620767b26201f74084013562000066565b620767c36201f76084013562000066565b620767d46201f78084013562000066565b620767e56201f7a084013562000066565b620767f66201f7c084013562000066565b620768076201f7e084013562000066565b620768186201f80084013562000066565b620768296201f82084013562000066565b6207683a6201f84084013562000066565b6207684b6201f86084013562000066565b6207685c6201f88084013562000066565b6207686d6201f8a084013562000066565b6207687e6201f8c084013562000066565b6207688f6201f8e084013562000066565b620768a06201f90084013562000066565b620768b16201f92084013562000066565b620768c26201f94084013562000066565b620768d36201f96084013562000066565b620768e46201f98084013562000066565b620768f56201f9a084013562000066565b620769066201f9c084013562000066565b620769176201f9e084013562000066565b620769286201fa0084013562000066565b620769396201fa2084013562000066565b6207694a6201fa4084013562000066565b6207695b6201fa6084013562000066565b6207696c6201fa8084013562000066565b6207697d6201faa084013562000066565b6207698e6201fac084013562000066565b6207699f6201fae084013562000066565b620769b06201fb0084013562000066565b620769c16201fb2084013562000066565b620769d26201fb4084013562000066565b620769e36201fb6084013562000066565b620769f46201fb8084013562000066565b62076a056201fba084013562000066565b62076a166201fbc084013562000066565b62076a276201fbe084013562000066565b62076a386201fc0084013562000066565b62076a496201fc2084013562000066565b62076a5a6201fc4084013562000066565b62076a6b6201fc6084013562000066565b62076a7c6201fc8084013562000066565b62076a8d6201fca084013562000066565b62076a9e6201fcc084013562000066565b62076aaf6201fce084013562000066565b62076ac06201fd0084013562000066565b62076ad16201fd2084013562000066565b62076ae26201fd4084013562000066565b62076af36201fd6084013562000066565b62076b046201fd8084013562000066565b62076b156201fda084013562000066565b62076b266201fdc084013562000066565b62076b376201fde084013562000066565b62076b486201fe0084013562000066565b62076b596201fe2084013562000066565b62076b6a6201fe4084013562000066565b62076b7b6201fe6084013562000066565b62076b8c6201fe8084013562000066565b62076b9d6201fea084013562000066565b62076bae6201fec084013562000066565b62076bbf6201fee084013562000066565b62076bd06201ff0084013562000066565b62076be16201ff2084013562000066565b62076bf26201ff4084013562000066565b62076c036201ff6084013562000066565b62076c146201ff8084013562000066565b62076c256201ffa084013562000066565b62076c366201ffc084013562000066565b62076c476201ffe084013562000066565b62076c586202000084013562000066565b62076c696202002084013562000066565b62076c7a6202004084013562000066565b62076c8b6202006084013562000066565b62076c9c6202008084013562000066565b62076cad620200a084013562000066565b62076cbe620200c084013562000066565b62076ccf620200e084013562000066565b62076ce06202010084013562000066565b62076cf16202012084013562000066565b62076d026202014084013562000066565b62076d136202016084013562000066565b62076d246202018084013562000066565b62076d35620201a084013562000066565b62076d46620201c084013562000066565b62076d57620201e084013562000066565b62076d686202020084013562000066565b62076d796202022084013562000066565b62076d8a6202024084013562000066565b62076d9b6202026084013562000066565b62076dac6202028084013562000066565b62076dbd620202a084013562000066565b62076dce620202c084013562000066565b62076ddf620202e084013562000066565b62076df06202030084013562000066565b62076e016202032084013562000066565b62076e126202034084013562000066565b62076e236202036084013562000066565b62076e346202038084013562000066565b62076e45620203a084013562000066565b62076e56620203c084013562000066565b62076e67620203e084013562000066565b62076e786202040084013562000066565b62076e896202042084013562000066565b62076e9a6202044084013562000066565b62076eab6202046084013562000066565b62076ebc6202048084013562000066565b62076ecd620204a084013562000066565b62076ede620204c084013562000066565b62076eef620204e084013562000066565b62076f006202050084013562000066565b62076f116202052084013562000066565b62076f226202054084013562000066565b62076f336202056084013562000066565b62076f446202058084013562000066565b62076f55620205a084013562000066565b62076f66620205c084013562000066565b62076f77620205e084013562000066565b62076f886202060084013562000066565b62076f996202062084013562000066565b62076faa6202064084013562000066565b62076fbb6202066084013562000066565b62076fcc6202068084013562000066565b62076fdd620206a084013562000066565b62076fee620206c084013562000066565b62076fff620206e084013562000066565b620770106202070084013562000066565b620770216202072084013562000066565b620770326202074084013562000066565b620770436202076084013562000066565b620770546202078084013562000066565b62077065620207a084013562000066565b62077076620207c084013562000066565b62077087620207e084013562000066565b620770986202080084013562000066565b620770a96202082084013562000066565b620770ba6202084084013562000066565b620770cb6202086084013562000066565b620770dc6202088084013562000066565b620770ed620208a084013562000066565b620770fe620208c084013562000066565b6207710f620208e084013562000066565b620771206202090084013562000066565b620771316202092084013562000066565b620771426202094084013562000066565b620771536202096084013562000066565b620771646202098084013562000066565b62077175620209a084013562000066565b62077186620209c084013562000066565b62077197620209e084013562000066565b620771a862020a0084013562000066565b620771b962020a2084013562000066565b620771ca62020a4084013562000066565b620771db62020a6084013562000066565b620771ec62020a8084013562000066565b620771fd62020aa084013562000066565b6207720e62020ac084013562000066565b6207721f62020ae084013562000066565b6207723062020b0084013562000066565b6207724162020b2084013562000066565b6207725262020b4084013562000066565b6207726362020b6084013562000066565b6207727462020b8084013562000066565b6207728562020ba084013562000066565b6207729662020bc084013562000066565b620772a762020be084013562000066565b620772b862020c0084013562000066565b620772c962020c2084013562000066565b620772da62020c4084013562000066565b620772eb62020c6084013562000066565b620772fc62020c8084013562000066565b6207730d62020ca084013562000066565b6207731e62020cc084013562000066565b6207732f62020ce084013562000066565b6207734062020d0084013562000066565b6207735162020d2084013562000066565b6207736262020d4084013562000066565b6207737362020d6084013562000066565b6207738462020d8084013562000066565b6207739562020da084013562000066565b620773a662020dc084013562000066565b620773b762020de084013562000066565b620773c862020e0084013562000066565b620773d962020e2084013562000066565b620773ea62020e4084013562000066565b620773fb62020e6084013562000066565b6207740c62020e8084013562000066565b6207741d62020ea084013562000066565b6207742e62020ec084013562000066565b6207743f62020ee084013562000066565b6207745062020f0084013562000066565b6207746162020f2084013562000066565b6207747262020f4084013562000066565b6207748362020f6084013562000066565b6207749462020f8084013562000066565b620774a562020fa084013562000066565b620774b662020fc084013562000066565b620774c762020fe084013562000066565b620774d86202100084013562000066565b620774e96202102084013562000066565b620774fa6202104084013562000066565b6207750b6202106084013562000066565b6207751c6202108084013562000066565b6207752d620210a084013562000066565b6207753e620210c084013562000066565b6207754f620210e084013562000066565b620775606202110084013562000066565b620775716202112084013562000066565b620775826202114084013562000066565b620775936202116084013562000066565b620775a46202118084013562000066565b620775b5620211a084013562000066565b620775c6620211c084013562000066565b620775d7620211e084013562000066565b620775e86202120084013562000066565b620775f96202122084013562000066565b6207760a6202124084013562000066565b6207761b6202126084013562000066565b6207762c6202128084013562000066565b6207763d620212a084013562000066565b6207764e620212c084013562000066565b6207765f620212e084013562000066565b620776706202130084013562000066565b620776816202132084013562000066565b620776926202134084013562000066565b620776a36202136084013562000066565b620776b46202138084013562000066565b620776c5620213a084013562000066565b620776d6620213c084013562000066565b620776e7620213e084013562000066565b620776f86202140084013562000066565b620777096202142084013562000066565b6207771a6202144084013562000066565b6207772b6202146084013562000066565b6207773c6202148084013562000066565b6207774d620214a084013562000066565b6207775e620214c084013562000066565b6207776f620214e084013562000066565b620777806202150084013562000066565b620777916202152084013562000066565b620777a26202154084013562000066565b620777b36202156084013562000066565b620777c46202158084013562000066565b620777d5620215a084013562000066565b620777e6620215c084013562000066565b620777f7620215e084013562000066565b620778086202160084013562000066565b620778196202162084013562000066565b6207782a6202164084013562000066565b6207783b6202166084013562000066565b6207784c6202168084013562000066565b6207785d620216a084013562000066565b6207786e620216c084013562000066565b6207787f620216e084013562000066565b620778906202170084013562000066565b620778a16202172084013562000066565b620778b26202174084013562000066565b620778c36202176084013562000066565b620778d46202178084013562000066565b620778e5620217a084013562000066565b620778f6620217c084013562000066565b62077907620217e084013562000066565b620779186202180084013562000066565b620779296202182084013562000066565b6207793a6202184084013562000066565b6207794b6202186084013562000066565b6207795c6202188084013562000066565b6207796d620218a084013562000066565b6207797e620218c084013562000066565b6207798f620218e084013562000066565b620779a06202190084013562000066565b620779b16202192084013562000066565b620779c26202194084013562000066565b620779d36202196084013562000066565b620779e46202198084013562000066565b620779f5620219a084013562000066565b62077a06620219c084013562000066565b62077a17620219e084013562000066565b62077a2862021a0084013562000066565b62077a3962021a2084013562000066565b62077a4a62021a4084013562000066565b62077a5b62021a6084013562000066565b62077a6c62021a8084013562000066565b62077a7d62021aa084013562000066565b62077a8e62021ac084013562000066565b62077a9f62021ae084013562000066565b62077ab062021b0084013562000066565b62077ac162021b2084013562000066565b62077ad262021b4084013562000066565b62077ae362021b6084013562000066565b62077af462021b8084013562000066565b62077b0562021ba084013562000066565b62077b1662021bc084013562000066565b62077b2762021be084013562000066565b62077b3862021c0084013562000066565b62077b4962021c2084013562000066565b62077b5a62021c4084013562000066565b62077b6b62021c6084013562000066565b62077b7c62021c8084013562000066565b62077b8d62021ca084013562000066565b62077b9e62021cc084013562000066565b62077baf62021ce084013562000066565b62077bc062021d0084013562000066565b62077bd162021d2084013562000066565b62077be262021d4084013562000066565b62077bf362021d6084013562000066565b62077c0462021d8084013562000066565b62077c1562021da084013562000066565b62077c2662021dc084013562000066565b62077c3762021de084013562000066565b62077c4862021e0084013562000066565b62077c5962021e2084013562000066565b62077c6a62021e4084013562000066565b62077c7b62021e6084013562000066565b62077c8c62021e8084013562000066565b62077c9d62021ea084013562000066565b62077cae62021ec084013562000066565b62077cbf62021ee084013562000066565b62077cd062021f0084013562000066565b62077ce162021f2084013562000066565b62077cf262021f4084013562000066565b62077d0362021f6084013562000066565b62077d1462021f8084013562000066565b62077d2562021fa084013562000066565b62077d3662021fc084013562000066565b62077d4762021fe084013562000066565b62077d586202200084013562000066565b62077d696202202084013562000066565b62077d7a6202204084013562000066565b62077d8b6202206084013562000066565b62077d9c6202208084013562000066565b62077dad620220a084013562000066565b62077dbe620220c084013562000066565b62077dcf620220e084013562000066565b62077de06202210084013562000066565b62077df16202212084013562000066565b62077e026202214084013562000066565b62077e136202216084013562000066565b62077e246202218084013562000066565b62077e35620221a084013562000066565b62077e46620221c084013562000066565b62077e57620221e084013562000066565b62077e686202220084013562000066565b62077e796202222084013562000066565b62077e8a6202224084013562000066565b62077e9b6202226084013562000066565b62077eac6202228084013562000066565b62077ebd620222a084013562000066565b62077ece620222c084013562000066565b62077edf620222e084013562000066565b62077ef06202230084013562000066565b62077f016202232084013562000066565b62077f126202234084013562000066565b62077f236202236084013562000066565b62077f346202238084013562000066565b62077f45620223a084013562000066565b62077f56620223c084013562000066565b62077f67620223e084013562000066565b62077f786202240084013562000066565b62077f896202242084013562000066565b62077f9a6202244084013562000066565b62077fab6202246084013562000066565b62077fbc6202248084013562000066565b62077fcd620224a084013562000066565b62077fde620224c084013562000066565b62077fef620224e084013562000066565b620780006202250084013562000066565b620780116202252084013562000066565b620780226202254084013562000066565b620780336202256084013562000066565b620780446202258084013562000066565b62078055620225a084013562000066565b62078066620225c084013562000066565b62078077620225e084013562000066565b620780886202260084013562000066565b620780996202262084013562000066565b620780aa6202264084013562000066565b620780bb6202266084013562000066565b620780cc6202268084013562000066565b620780dd620226a084013562000066565b620780ee620226c084013562000066565b620780ff620226e084013562000066565b620781106202270084013562000066565b620781216202272084013562000066565b620781326202274084013562000066565b620781436202276084013562000066565b620781546202278084013562000066565b62078165620227a084013562000066565b62078176620227c084013562000066565b62078187620227e084013562000066565b620781986202280084013562000066565b620781a96202282084013562000066565b620781ba6202284084013562000066565b620781cb6202286084013562000066565b620781dc6202288084013562000066565b620781ed620228a084013562000066565b620781fe620228c084013562000066565b6207820f620228e084013562000066565b620782206202290084013562000066565b620782316202292084013562000066565b620782426202294084013562000066565b620782536202296084013562000066565b620782646202298084013562000066565b62078275620229a084013562000066565b62078286620229c084013562000066565b62078297620229e084013562000066565b620782a862022a0084013562000066565b620782b962022a2084013562000066565b620782ca62022a4084013562000066565b620782db62022a6084013562000066565b620782ec62022a8084013562000066565b620782fd62022aa084013562000066565b6207830e62022ac084013562000066565b6207831f62022ae084013562000066565b6207833062022b0084013562000066565b6207834162022b2084013562000066565b6207835262022b4084013562000066565b6207836362022b6084013562000066565b6207837462022b8084013562000066565b6207838562022ba084013562000066565b6207839662022bc084013562000066565b620783a762022be084013562000066565b620783b862022c0084013562000066565b620783c962022c2084013562000066565b620783da62022c4084013562000066565b620783eb62022c6084013562000066565b620783fc62022c8084013562000066565b6207840d62022ca084013562000066565b6207841e62022cc084013562000066565b6207842f62022ce084013562000066565b6207844062022d0084013562000066565b6207845162022d2084013562000066565b6207846262022d4084013562000066565b6207847362022d6084013562000066565b6207848462022d8084013562000066565b6207849562022da084013562000066565b620784a662022dc084013562000066565b620784b762022de084013562000066565b620784c862022e0084013562000066565b620784d962022e2084013562000066565b620784ea62022e4084013562000066565b620784fb62022e6084013562000066565b6207850c62022e8084013562000066565b6207851d62022ea084013562000066565b6207852e62022ec084013562000066565b6207853f62022ee084013562000066565b6207855062022f0084013562000066565b6207856162022f2084013562000066565b6207857262022f4084013562000066565b6207858362022f6084013562000066565b6207859462022f8084013562000066565b620785a562022fa084013562000066565b620785b662022fc084013562000066565b620785c762022fe084013562000066565b620785d86202300084013562000066565b620785e96202302084013562000066565b620785fa6202304084013562000066565b6207860b6202306084013562000066565b6207861c6202308084013562000066565b6207862d620230a084013562000066565b6207863e620230c084013562000066565b6207864f620230e084013562000066565b620786606202310084013562000066565b620786716202312084013562000066565b620786826202314084013562000066565b620786936202316084013562000066565b620786a46202318084013562000066565b620786b5620231a084013562000066565b620786c6620231c084013562000066565b620786d7620231e084013562000066565b620786e86202320084013562000066565b620786f96202322084013562000066565b6207870a6202324084013562000066565b6207871b6202326084013562000066565b6207872c6202328084013562000066565b6207873d620232a084013562000066565b6207874e620232c084013562000066565b6207875f620232e084013562000066565b620787706202330084013562000066565b620787816202332084013562000066565b620787926202334084013562000066565b620787a36202336084013562000066565b620787b46202338084013562000066565b620787c5620233a084013562000066565b620787d6620233c084013562000066565b620787e7620233e084013562000066565b620787f86202340084013562000066565b620788096202342084013562000066565b6207881a6202344084013562000066565b6207882b6202346084013562000066565b6207883c6202348084013562000066565b6207884d620234a084013562000066565b6207885e620234c084013562000066565b6207886f620234e084013562000066565b620788806202350084013562000066565b620788916202352084013562000066565b620788a26202354084013562000066565b620788b36202356084013562000066565b620788c46202358084013562000066565b620788d5620235a084013562000066565b620788e6620235c084013562000066565b620788f7620235e084013562000066565b620789086202360084013562000066565b620789196202362084013562000066565b6207892a6202364084013562000066565b6207893b6202366084013562000066565b6207894c6202368084013562000066565b6207895d620236a084013562000066565b6207896e620236c084013562000066565b6207897f620236e084013562000066565b620789906202370084013562000066565b620789a16202372084013562000066565b620789b26202374084013562000066565b620789c36202376084013562000066565b620789d46202378084013562000066565b620789e5620237a084013562000066565b620789f6620237c084013562000066565b62078a07620237e084013562000066565b62078a186202380084013562000066565b62078a296202382084013562000066565b62078a3a6202384084013562000066565b62078a4b6202386084013562000066565b62078a5c6202388084013562000066565b62078a6d620238a084013562000066565b62078a7e620238c084013562000066565b62078a8f620238e084013562000066565b62078aa06202390084013562000066565b62078ab16202392084013562000066565b62078ac26202394084013562000066565b62078ad36202396084013562000066565b62078ae46202398084013562000066565b62078af5620239a084013562000066565b62078b06620239c084013562000066565b62078b17620239e084013562000066565b62078b2862023a0084013562000066565b62078b3962023a2084013562000066565b62078b4a62023a4084013562000066565b62078b5b62023a6084013562000066565b62078b6c62023a8084013562000066565b62078b7d62023aa084013562000066565b62078b8e62023ac084013562000066565b62078b9f62023ae084013562000066565b62078bb062023b0084013562000066565b62078bc162023b2084013562000066565b62078bd262023b4084013562000066565b62078be362023b6084013562000066565b62078bf462023b8084013562000066565b62078c0562023ba084013562000066565b62078c1662023bc084013562000066565b62078c2762023be084013562000066565b62078c3862023c0084013562000066565b62078c4962023c2084013562000066565b62078c5a62023c4084013562000066565b62078c6b62023c6084013562000066565b62078c7c62023c8084013562000066565b62078c8d62023ca084013562000066565b62078c9e62023cc084013562000066565b62078caf62023ce084013562000066565b62078cc062023d0084013562000066565b62078cd162023d2084013562000066565b62078ce262023d4084013562000066565b62078cf362023d6084013562000066565b62078d0462023d8084013562000066565b62078d1562023da084013562000066565b62078d2662023dc084013562000066565b62078d3762023de084013562000066565b62078d4862023e0084013562000066565b62078d5962023e2084013562000066565b62078d6a62023e4084013562000066565b62078d7b62023e6084013562000066565b62078d8c62023e8084013562000066565b62078d9d62023ea084013562000066565b62078dae62023ec084013562000066565b62078dbf62023ee084013562000066565b62078dd062023f0084013562000066565b62078de162023f2084013562000066565b62078df262023f4084013562000066565b62078e0362023f6084013562000066565b62078e1462023f8084013562000066565b62078e2562023fa084013562000066565b62078e3662023fc084013562000066565b62078e4762023fe084013562000066565b62078e586202400084013562000066565b62078e696202402084013562000066565b62078e7a6202404084013562000066565b62078e8b6202406084013562000066565b62078e9c6202408084013562000066565b62078ead620240a084013562000066565b62078ebe620240c084013562000066565b62078ecf620240e084013562000066565b62078ee06202410084013562000066565b62078ef16202412084013562000066565b62078f026202414084013562000066565b62078f136202416084013562000066565b62078f246202418084013562000066565b62078f35620241a084013562000066565b62078f46620241c084013562000066565b62078f57620241e084013562000066565b62078f686202420084013562000066565b62078f796202422084013562000066565b62078f8a6202424084013562000066565b62078f9b6202426084013562000066565b62078fac6202428084013562000066565b62078fbd620242a084013562000066565b62078fce620242c084013562000066565b62078fdf620242e084013562000066565b62078ff06202430084013562000066565b620790016202432084013562000066565b620790126202434084013562000066565b620790236202436084013562000066565b620790346202438084013562000066565b62079045620243a084013562000066565b62079056620243c084013562000066565b62079067620243e084013562000066565b620790786202440084013562000066565b620790896202442084013562000066565b6207909a6202444084013562000066565b620790ab6202446084013562000066565b620790bc6202448084013562000066565b620790cd620244a084013562000066565b620790de620244c084013562000066565b620790ef620244e084013562000066565b620791006202450084013562000066565b620791116202452084013562000066565b620791226202454084013562000066565b620791336202456084013562000066565b620791446202458084013562000066565b62079155620245a084013562000066565b62079166620245c084013562000066565b62079177620245e084013562000066565b620791886202460084013562000066565b620791996202462084013562000066565b620791aa6202464084013562000066565b620791bb6202466084013562000066565b620791cc6202468084013562000066565b620791dd620246a084013562000066565b620791ee620246c084013562000066565b620791ff620246e084013562000066565b620792106202470084013562000066565b620792216202472084013562000066565b620792326202474084013562000066565b620792436202476084013562000066565b620792546202478084013562000066565b62079265620247a084013562000066565b62079276620247c084013562000066565b62079287620247e084013562000066565b620792986202480084013562000066565b620792a96202482084013562000066565b620792ba6202484084013562000066565b620792cb6202486084013562000066565b620792dc6202488084013562000066565b620792ed620248a084013562000066565b620792fe620248c084013562000066565b6207930f620248e084013562000066565b620793206202490084013562000066565b620793316202492084013562000066565b620793426202494084013562000066565b620793536202496084013562000066565b620793646202498084013562000066565b62079375620249a084013562000066565b62079386620249c084013562000066565b62079397620249e084013562000066565b620793a862024a0084013562000066565b620793b962024a2084013562000066565b620793ca62024a4084013562000066565b620793db62024a6084013562000066565b620793ec62024a8084013562000066565b620793fd62024aa084013562000066565b6207940e62024ac084013562000066565b6207941f62024ae084013562000066565b6207943062024b0084013562000066565b6207944162024b2084013562000066565b6207945262024b4084013562000066565b6207946362024b6084013562000066565b6207947462024b8084013562000066565b6207948562024ba084013562000066565b6207949662024bc084013562000066565b620794a762024be084013562000066565b620794b862024c0084013562000066565b620794c962024c2084013562000066565b620794da62024c4084013562000066565b620794eb62024c6084013562000066565b620794fc62024c8084013562000066565b6207950d62024ca084013562000066565b6207951e62024cc084013562000066565b6207952f62024ce084013562000066565b6207954062024d0084013562000066565b6207955162024d2084013562000066565b6207956262024d4084013562000066565b6207957362024d6084013562000066565b6207958462024d8084013562000066565b6207959562024da084013562000066565b620795a662024dc084013562000066565b620795b762024de084013562000066565b620795c862024e0084013562000066565b620795d962024e2084013562000066565b620795ea62024e4084013562000066565b620795fb62024e6084013562000066565b6207960c62024e8084013562000066565b6207961d62024ea084013562000066565b6207962e62024ec084013562000066565b6207963f62024ee084013562000066565b6207965062024f0084013562000066565b6207966162024f2084013562000066565b6207967262024f4084013562000066565b6207968362024f6084013562000066565b6207969462024f8084013562000066565b620796a562024fa084013562000066565b620796b662024fc084013562000066565b620796c762024fe084013562000066565b620796d86202500084013562000066565b620796e96202502084013562000066565b620796fa6202504084013562000066565b6207970b6202506084013562000066565b6207971c6202508084013562000066565b6207972d620250a084013562000066565b6207973e620250c084013562000066565b6207974f620250e084013562000066565b620797606202510084013562000066565b620797716202512084013562000066565b620797826202514084013562000066565b620797936202516084013562000066565b620797a46202518084013562000066565b620797b5620251a084013562000066565b620797c6620251c084013562000066565b620797d7620251e084013562000066565b620797e86202520084013562000066565b620797f96202522084013562000066565b6207980a6202524084013562000066565b6207981b6202526084013562000066565b6207982c6202528084013562000066565b6207983d620252a084013562000066565b6207984e620252c084013562000066565b6207985f620252e084013562000066565b620798706202530084013562000066565b620798816202532084013562000066565b620798926202534084013562000066565b620798a36202536084013562000066565b620798b46202538084013562000066565b620798c5620253a084013562000066565b620798d6620253c084013562000066565b620798e7620253e084013562000066565b620798f86202540084013562000066565b620799096202542084013562000066565b6207991a6202544084013562000066565b6207992b6202546084013562000066565b6207993c6202548084013562000066565b6207994d620254a084013562000066565b6207995e620254c084013562000066565b6207996f620254e084013562000066565b620799806202550084013562000066565b620799916202552084013562000066565b620799a26202554084013562000066565b620799b36202556084013562000066565b620799c46202558084013562000066565b620799d5620255a084013562000066565b620799e6620255c084013562000066565b620799f7620255e084013562000066565b62079a086202560084013562000066565b62079a196202562084013562000066565b62079a2a6202564084013562000066565b62079a3b6202566084013562000066565b62079a4c6202568084013562000066565b62079a5d620256a084013562000066565b62079a6e620256c084013562000066565b62079a7f620256e084013562000066565b62079a906202570084013562000066565b62079aa16202572084013562000066565b62079ab26202574084013562000066565b62079ac36202576084013562000066565b62079ad46202578084013562000066565b62079ae5620257a084013562000066565b62079af6620257c084013562000066565b62079b07620257e084013562000066565b62079b186202580084013562000066565b62079b296202582084013562000066565b62079b3a6202584084013562000066565b62079b4b6202586084013562000066565b62079b5c6202588084013562000066565b62079b6d620258a084013562000066565b62079b7e620258c084013562000066565b62079b8f620258e084013562000066565b62079ba06202590084013562000066565b62079bb16202592084013562000066565b62079bc26202594084013562000066565b62079bd36202596084013562000066565b62079be46202598084013562000066565b62079bf5620259a084013562000066565b62079c06620259c084013562000066565b62079c17620259e084013562000066565b62079c2862025a0084013562000066565b62079c3962025a2084013562000066565b62079c4a62025a4084013562000066565b62079c5b62025a6084013562000066565b62079c6c62025a8084013562000066565b62079c7d62025aa084013562000066565b62079c8e62025ac084013562000066565b62079c9f62025ae084013562000066565b62079cb062025b0084013562000066565b62079cc162025b2084013562000066565b62079cd262025b4084013562000066565b62079ce362025b6084013562000066565b62079cf462025b8084013562000066565b62079d0562025ba084013562000066565b62079d1662025bc084013562000066565b62079d2762025be084013562000066565b62079d3862025c0084013562000066565b62079d4962025c2084013562000066565b62079d5a62025c4084013562000066565b62079d6b62025c6084013562000066565b62079d7c62025c8084013562000066565b62079d8d62025ca084013562000066565b62079d9e62025cc084013562000066565b62079daf62025ce084013562000066565b62079dc062025d0084013562000066565b62079dd162025d2084013562000066565b62079de262025d4084013562000066565b62079df362025d6084013562000066565b62079e0462025d8084013562000066565b62079e1562025da084013562000066565b62079e2662025dc084013562000066565b62079e3762025de084013562000066565b62079e4862025e0084013562000066565b62079e5962025e2084013562000066565b62079e6a62025e4084013562000066565b62079e7b62025e6084013562000066565b62079e8c62025e8084013562000066565b62079e9d62025ea084013562000066565b62079eae62025ec084013562000066565b62079ebf62025ee084013562000066565b62079ed062025f0084013562000066565b62079ee162025f2084013562000066565b62079ef262025f4084013562000066565b62079f0362025f6084013562000066565b62079f1462025f8084013562000066565b62079f2562025fa084013562000066565b62079f3662025fc084013562000066565b62079f4762025fe084013562000066565b62079f586202600084013562000066565b62079f696202602084013562000066565b62079f7a6202604084013562000066565b62079f8b6202606084013562000066565b62079f9c6202608084013562000066565b62079fad620260a084013562000066565b62079fbe620260c084013562000066565b62079fcf620260e084013562000066565b62079fe06202610084013562000066565b62079ff16202612084013562000066565b6207a0026202614084013562000066565b6207a0136202616084013562000066565b6207a0246202618084013562000066565b6207a035620261a084013562000066565b6207a046620261c084013562000066565b6207a057620261e084013562000066565b6207a0686202620084013562000066565b6207a0796202622084013562000066565b6207a08a6202624084013562000066565b6207a09b6202626084013562000066565b6207a0ac6202628084013562000066565b6207a0bd620262a084013562000066565b6207a0ce620262c084013562000066565b6207a0df620262e084013562000066565b6207a0f06202630084013562000066565b6207a1016202632084013562000066565b6207a1126202634084013562000066565b6207a1236202636084013562000066565b6207a1346202638084013562000066565b6207a145620263a084013562000066565b6207a156620263c084013562000066565b6207a167620263e084013562000066565b6207a1786202640084013562000066565b6207a1896202642084013562000066565b6207a19a6202644084013562000066565b6207a1ab6202646084013562000066565b6207a1bc6202648084013562000066565b6207a1cd620264a084013562000066565b6207a1de620264c084013562000066565b6207a1ef620264e084013562000066565b6207a2006202650084013562000066565b6207a2116202652084013562000066565b6207a2226202654084013562000066565b6207a2336202656084013562000066565b6207a2446202658084013562000066565b6207a255620265a084013562000066565b6207a266620265c084013562000066565b6207a277620265e084013562000066565b6207a2886202660084013562000066565b6207a2996202662084013562000066565b6207a2aa6202664084013562000066565b6207a2bb6202666084013562000066565b6207a2cc6202668084013562000066565b6207a2dd620266a084013562000066565b6207a2ee620266c084013562000066565b6207a2ff620266e084013562000066565b6207a3106202670084013562000066565b6207a3216202672084013562000066565b6207a3326202674084013562000066565b6207a3436202676084013562000066565b6207a3546202678084013562000066565b6207a365620267a084013562000066565b6207a376620267c084013562000066565b6207a387620267e084013562000066565b6207a3986202680084013562000066565b6207a3a96202682084013562000066565b6207a3ba6202684084013562000066565b6207a3cb6202686084013562000066565b6207a3dc6202688084013562000066565b6207a3ed620268a084013562000066565b6207a3fe620268c084013562000066565b6207a40f620268e084013562000066565b6207a4206202690084013562000066565b6207a4316202692084013562000066565b6207a4426202694084013562000066565b6207a4536202696084013562000066565b6207a4646202698084013562000066565b6207a475620269a084013562000066565b6207a486620269c084013562000066565b6207a497620269e084013562000066565b6207a4a862026a0084013562000066565b6207a4b962026a2084013562000066565b6207a4ca62026a4084013562000066565b6207a4db62026a6084013562000066565b6207a4ec62026a8084013562000066565b6207a4fd62026aa084013562000066565b6207a50e62026ac084013562000066565b6207a51f62026ae084013562000066565b6207a53062026b0084013562000066565b6207a54162026b2084013562000066565b6207a55262026b4084013562000066565b6207a56362026b6084013562000066565b6207a57462026b8084013562000066565b6207a58562026ba084013562000066565b6207a59662026bc084013562000066565b6207a5a762026be084013562000066565b6207a5b862026c0084013562000066565b6207a5c962026c2084013562000066565b6207a5da62026c4084013562000066565b6207a5eb62026c6084013562000066565b6207a5fc62026c8084013562000066565b6207a60d62026ca084013562000066565b6207a61e62026cc084013562000066565b6207a62f62026ce084013562000066565b6207a64062026d0084013562000066565b6207a65162026d2084013562000066565b6207a66262026d4084013562000066565b6207a67362026d6084013562000066565b6207a68462026d8084013562000066565b6207a69562026da084013562000066565b6207a6a662026dc084013562000066565b6207a6b762026de084013562000066565b6207a6c862026e0084013562000066565b6207a6d962026e2084013562000066565b6207a6ea62026e4084013562000066565b6207a6fb62026e6084013562000066565b6207a70c62026e8084013562000066565b6207a71d62026ea084013562000066565b6207a72e62026ec084013562000066565b6207a73f62026ee084013562000066565b6207a75062026f0084013562000066565b6207a76162026f2084013562000066565b6207a77262026f4084013562000066565b6207a78362026f6084013562000066565b6207a79462026f8084013562000066565b6207a7a562026fa084013562000066565b6207a7b662026fc084013562000066565b6207a7c762026fe084013562000066565b6207a7d86202700084013562000066565b6207a7e96202702084013562000066565b6207a7fa6202704084013562000066565b6207a80b6202706084013562000066565b6207a81c6202708084013562000066565b6207a82d620270a084013562000066565b6207a83e620270c084013562000066565b6207a84f620270e084013562000066565b6207a8606202710084013562000066565b6207a8716202712084013562000066565b6207a880818486888a62000108565b90508060005260206000f35b80604081018310156207a89e57600080fd5b92915050565b600080600080620272208086880312156207a8be57600080fd5b6207a8ca87876207a88c565b945060c08601878111156207a8de57600080fd5b6040870194506207a8f088826207a88c565b9350508681870111156207a90357600080fd5b5092959194509261010001915056fea2646970667358221220d83acd167561bdafade10a947650794ac5f526ec250f84b10c0d32b02acd1cb964736f6c63430008160033",
    "linkReferences": {}
  },
  "methodIdentifiers": {
    "verifyProof(uint256[2],uint256[2][2],uint256[2],uint256[5001])": "fd08c4ee"
  },
  "id": 45
}