{
  "abi": [
    {
      "inputs": [
        {
          "internalType": "address",
          "name": "initOwner",
          "type": "address"
        }
      ],
      "stateMutability": "nonpayable",
      "type": "constructor"
    },
    {
      "inputs": [
        {
          "internalType": "address",
          "name": "sender",
          "type": "address"
        },
        {
          "internalType": "uint256",
          "name": "tokenId",
          "type": "uint256"
        },
        {
          "internalType": "address",
          "name": "owner",
          "type": "address"
        }
      ],
      "name": "ERC721IncorrectOwner",
      "type": "error"
    },
    {
      "inputs": [
        {
          "internalType": "address",
          "name": "operator",
          "type": "address"
        },
        {
          "internalType": "uint256",
          "name": "tokenId",
          "type": "uint256"
        }
      ],
      "name": "ERC721InsufficientApproval",
      "type": "error"
    },
    {
      "inputs": [
        {
          "internalType": "address",
          "name": "approver",
          "type": "address"
        }
      ],
      "name": "ERC721InvalidApprover",
      "type": "error"
    },
    {
      "inputs": [
        {
          "internalType": "address",
          "name": "operator",
          "type": "address"
        }
      ],
      "name": "ERC721InvalidOperator",
      "type": "error"
    },
    {
      "inputs": [
        {
          "internalType": "address",
          "name": "owner",
          "type": "address"
        }
      ],
      "name": "ERC721InvalidOwner",
      "type": "error"
    },
    {
      "inputs": [
        {
          "internalType": "address",
          "name": "receiver",
          "type": "address"
        }
      ],
      "name": "ERC721InvalidReceiver",
      "type": "error"
    },
    {
      "inputs": [
        {
          "internalType": "address",
          "name": "sender",
          "type": "address"
        }
      ],
      "name": "ERC721InvalidSender",
      "type": "error"
    },
    {
      "inputs": [
        {
          "internalType": "uint256",
          "name": "tokenId",
          "type": "uint256"
        }
      ],
      "name": "ERC721NonexistentToken",
      "type": "error"
    },
    {
      "inputs": [
        {
          "internalType": "address",
          "name": "owner",
          "type": "address"
        }
      ],
      "name": "OwnableInvalidOwner",
      "type": "error"
    },
    {
      "inputs": [
        {
          "internalType": "address",
          "name": "account",
          "type": "address"
        }
      ],
      "name": "OwnableUnauthorizedAccount",
      "type": "error"
    },
    {
      "anonymous": false,
      "inputs": [
        {
          "indexed": true,
          "internalType": "address",
          "name": "owner",
          "type": "address"
        },
        {
          "indexed": true,
          "internalType": "address",
          "name": "approved",
          "type": "address"
        },
        {
          "indexed": true,
          "internalType": "uint256",
          "name": "tokenId",
          "type": "uint256"
        }
      ],
      "name": "Approval",
      "type": "event"
    },
    {
      "anonymous": false,
      "inputs": [
        {
          "indexed": true,
          "internalType": "address",
          "name": "owner",
          "type": "address"
        },
        {
          "indexed": true,
          "internalType": "address",
          "name": "operator",
          "type": "address"
        },
        {
          "indexed": false,
          "internalType": "bool",
          "name": "approved",
          "type": "bool"
        }
      ],
      "name": "ApprovalForAll",
      "type": "event"
    },
    {
      "anonymous": false,
      "inputs": [
        {
          "indexed": true,
          "internalType": "address",
          "name": "previousOwner",
          "type": "address"
        },
        {
          "indexed": true,
          "internalType": "address",
          "name": "newOwner",
          "type": "address"
        }
      ],
      "name": "OwnershipTransferred",
      "type": "event"
    },
    {
      "anonymous": false,
      "inputs": [
        {
          "indexed": true,
          "internalType": "uint256",
          "name": "currentBlockNumber",
          "type": "uint256"
        },
        {
          "indexed": false,
          "internalType": "uint256",
          "name": "proposeBlockNumber",
          "type": "uint256"
        }
      ],
      "name": "RandaoPropose",
      "type": "event"
    },
    {
      "anonymous": false,
      "inputs": [
        {
          "indexed": true,
          "internalType": "uint256",
          "name": "acctualBlockNumber",
          "type": "uint256"
        },
        {
          "indexed": false,
          "internalType": "uint256",
          "name": "randomness",
          "type": "uint256"
        }
      ],
      "name": "RandaoReveal",
      "type": "event"
    },
    {
      "anonymous": false,
      "inputs": [
        {
          "indexed": true,
          "internalType": "address",
          "name": "from",
          "type": "address"
        },
        {
          "indexed": true,
          "internalType": "address",
          "name": "to",
          "type": "address"
        },
        {
          "indexed": true,
          "internalType": "uint256",
          "name": "tokenId",
          "type": "uint256"
        }
      ],
      "name": "Transfer",
      "type": "event"
    },
    {
      "inputs": [
        {
          "internalType": "address",
          "name": "to",
          "type": "address"
        },
        {
          "internalType": "uint256",
          "name": "tokenId",
          "type": "uint256"
        }
      ],
      "name": "approve",
      "outputs": [],
      "stateMutability": "nonpayable",
      "type": "function"
    },
    {
      "inputs": [
        {
          "internalType": "address",
          "name": "owner",
          "type": "address"
        }
      ],
      "name": "balanceOf",
      "outputs": [
        {
          "internalType": "uint256",
          "name": "",
          "type": "uint256"
        }
      ],
      "stateMutability": "view",
      "type": "function"
    },
    {
      "inputs": [],
      "name": "closeSales",
      "outputs": [],
      "stateMutability": "nonpayable",
      "type": "function"
    },
    {
      "inputs": [
        {
          "internalType": "uint256",
          "name": "duration",
          "type": "uint256"
        },
        {
          "internalType": "uint256",
          "name": "futureBlockNumber",
          "type": "uint256"
        }
      ],
      "name": "commitRandao",
      "outputs": [],
      "stateMutability": "nonpayable",
      "type": "function"
    },
    {
      "inputs": [
        {
          "internalType": "bytes32",
          "name": "extcodehash",
          "type": "bytes32"
        }
      ],
      "name": "commitVerifier",
      "outputs": [],
      "stateMutability": "nonpayable",
      "type": "function"
    },
    {
      "inputs": [
        {
          "internalType": "uint256",
          "name": "tokenId",
          "type": "uint256"
        }
      ],
      "name": "getApproved",
      "outputs": [
        {
          "internalType": "address",
          "name": "",
          "type": "address"
        }
      ],
      "stateMutability": "view",
      "type": "function"
    },
    {
      "inputs": [
        {
          "internalType": "address",
          "name": "owner",
          "type": "address"
        },
        {
          "internalType": "address",
          "name": "operator",
          "type": "address"
        }
      ],
      "name": "isApprovedForAll",
      "outputs": [
        {
          "internalType": "bool",
          "name": "",
          "type": "bool"
        }
      ],
      "stateMutability": "view",
      "type": "function"
    },
    {
      "inputs": [
        {
          "internalType": "uint8",
          "name": "contribution",
          "type": "uint8"
        }
      ],
      "name": "mint",
      "outputs": [],
      "stateMutability": "payable",
      "type": "function"
    },
    {
      "inputs": [],
      "name": "name",
      "outputs": [
        {
          "internalType": "string",
          "name": "",
          "type": "string"
        }
      ],
      "stateMutability": "view",
      "type": "function"
    },
    {
      "inputs": [],
      "name": "owner",
      "outputs": [
        {
          "internalType": "address",
          "name": "",
          "type": "address"
        }
      ],
      "stateMutability": "view",
      "type": "function"
    },
    {
      "inputs": [
        {
          "internalType": "uint256",
          "name": "tokenId",
          "type": "uint256"
        }
      ],
      "name": "ownerOf",
      "outputs": [
        {
          "internalType": "address",
          "name": "",
          "type": "address"
        }
      ],
      "stateMutability": "view",
      "type": "function"
    },
    {
      "inputs": [],
      "name": "randaoRandomness",
      "outputs": [
        {
          "internalType": "uint256",
          "name": "",
          "type": "uint256"
        }
      ],
      "stateMutability": "view",
      "type": "function"
    },
    {
      "inputs": [],
      "name": "renounceOwnership",
      "outputs": [],
      "stateMutability": "nonpayable",
      "type": "function"
    },
    {
      "inputs": [],
      "name": "revealRandao",
      "outputs": [],
      "stateMutability": "nonpayable",
      "type": "function"
    },
    {
      "inputs": [
        {
          "internalType": "address",
          "name": "addr",
          "type": "address"
        }
      ],
      "name": "revealVerifier",
      "outputs": [],
      "stateMutability": "nonpayable",
      "type": "function"
    },
    {
      "inputs": [
        {
          "internalType": "address",
          "name": "from",
          "type": "address"
        },
        {
          "internalType": "address",
          "name": "to",
          "type": "address"
        },
        {
          "internalType": "uint256",
          "name": "tokenId",
          "type": "uint256"
        }
      ],
      "name": "safeTransferFrom",
      "outputs": [],
      "stateMutability": "nonpayable",
      "type": "function"
    },
    {
      "inputs": [
        {
          "internalType": "address",
          "name": "from",
          "type": "address"
        },
        {
          "internalType": "address",
          "name": "to",
          "type": "address"
        },
        {
          "internalType": "uint256",
          "name": "tokenId",
          "type": "uint256"
        },
        {
          "internalType": "bytes",
          "name": "data",
          "type": "bytes"
        }
      ],
      "name": "safeTransferFrom",
      "outputs": [],
      "stateMutability": "nonpayable",
      "type": "function"
    },
    {
      "inputs": [
        {
          "internalType": "address",
          "name": "operator",
          "type": "address"
        },
        {
          "internalType": "bool",
          "name": "approved",
          "type": "bool"
        }
      ],
      "name": "setApprovalForAll",
      "outputs": [],
      "stateMutability": "nonpayable",
      "type": "function"
    },
    {
      "inputs": [],
      "name": "stage",
      "outputs": [
        {
          "internalType": "uint8",
          "name": "",
          "type": "uint8"
        }
      ],
      "stateMutability": "view",
      "type": "function"
    },
    {
      "inputs": [
        {
          "internalType": "bytes4",
          "name": "interfaceId",
          "type": "bytes4"
        }
      ],
      "name": "supportsInterface",
      "outputs": [
        {
          "internalType": "bool",
          "name": "",
          "type": "bool"
        }
      ],
      "stateMutability": "view",
      "type": "function"
    },
    {
      "inputs": [],
      "name": "symbol",
      "outputs": [
        {
          "internalType": "string",
          "name": "",
          "type": "string"
        }
      ],
      "stateMutability": "view",
      "type": "function"
    },
    {
      "inputs": [
        {
          "internalType": "uint256",
          "name": "tokenId",
          "type": "uint256"
        }
      ],
      "name": "tokenURI",
      "outputs": [
        {
          "internalType": "string",
          "name": "ret",
          "type": "string"
        }
      ],
      "stateMutability": "view",
      "type": "function"
    },
    {
      "inputs": [
        {
          "internalType": "address",
          "name": "from",
          "type": "address"
        },
        {
          "internalType": "address",
          "name": "to",
          "type": "address"
        },
        {
          "internalType": "uint256",
          "name": "tokenId",
          "type": "uint256"
        }
      ],
      "name": "transferFrom",
      "outputs": [],
      "stateMutability": "nonpayable",
      "type": "function"
    },
    {
      "inputs": [
        {
          "internalType": "address",
          "name": "newOwner",
          "type": "address"
        }
      ],
      "name": "transferOwnership",
      "outputs": [],
      "stateMutability": "nonpayable",
      "type": "function"
    },
    {
      "inputs": [
        {
          "internalType": "bytes",
          "name": "data",
          "type": "bytes"
        }
      ],
      "name": "unlock",
      "outputs": [],
      "stateMutability": "nonpayable",
      "type": "function"
    },
    {
      "inputs": [],
      "name": "userContributeSwapTimes",
      "outputs": [
        {
          "internalType": "uint256",
          "name": "",
          "type": "uint256"
        }
      ],
      "stateMutability": "view",
      "type": "function"
    },
    {
      "inputs": [],
      "name": "verifier",
      "outputs": [
        {
          "internalType": "address",
          "name": "",
          "type": "address"
        }
      ],
      "stateMutability": "view",
      "type": "function"
    },
    {
      "inputs": [
        {
          "internalType": "uint256[2]",
          "name": "pA",
          "type": "uint256[2]"
        },
        {
          "internalType": "uint256[2][2]",
          "name": "pB",
          "type": "uint256[2][2]"
        },
        {
          "internalType": "uint256[2]",
          "name": "pC",
          "type": "uint256[2]"
        },
        {
          "internalType": "uint256[5001]",
          "name": "pubSignals",
          "type": "uint256[5001]"
        }
      ],
      "name": "verify",
      "outputs": [
        {
          "internalType": "bool",
          "name": "",
          "type": "bool"
        }
      ],
      "stateMutability": "view",
      "type": "function"
    }
  ],
  "bytecode": {
    "object": "0x60806040523480156200001157600080fd5b5060405162001b9338038062001b93833981016040819052620000349162000149565b604080518082018252600781526644454d4f44415960c81b6020808301919091528251808401909352600483526344454d4f60e01b9083015290826001600160a01b0381166200009e57604051631e4fbdf760e01b81526000600482015260240160405180910390fd5b620000a981620000e3565b506001620000b8838262000222565b506002620000c7828262000222565b505050620000dc60016200013360201b60201c565b50620002ee565b600080546001600160a01b038381166001600160a01b0319831681178455604051919092169283917f8be0079c531659141344cd1fd0a4f28419497f9722a3daafe3b4186f6b6457e09190a35050565b6007805460ff191660ff92909216919091179055565b6000602082840312156200015c57600080fd5b81516001600160a01b03811681146200017457600080fd5b9392505050565b634e487b7160e01b600052604160045260246000fd5b600181811c90821680620001a657607f821691505b602082108103620001c757634e487b7160e01b600052602260045260246000fd5b50919050565b601f8211156200021d576000816000526020600020601f850160051c81016020861015620001f85750805b601f850160051c820191505b81811015620002195782815560010162000204565b5050505b505050565b81516001600160401b038111156200023e576200023e6200017b565b62000256816200024f845462000191565b84620001cd565b602080601f8311600181146200028e5760008415620002755750858301515b600019600386901b1c1916600185901b17855562000219565b600085815260208120601f198616915b82811015620002bf578886015182559484019460019091019084016200029e565b5085821015620002de5787850151600019600388901b60f8161c191681555b5050505050600190811b01905550565b61189580620002fe6000396000f3fe6080604052600436106101b75760003560e01c8063715018a6116100ec578063b8f02be81161008a578063c87b56dd11610064578063c87b56dd146104ab578063d6bc2f3b146104cb578063e985e9c5146104eb578063f2fde38b1461050b57600080fd5b8063b8f02be81461044f578063bed84fb714610464578063c040e6b81461048457600080fd5b806395d89b41116100c657806395d89b41146103da578063a10d8dd1146103ef578063a22cb4651461040f578063b88d4fde1461042f57600080fd5b8063715018a614610392578063775a75de146103a75780638da5cb5b146103bc57600080fd5b80632ebdf800116101595780636352211e116101335780636352211e1461032057806364ef40cd146103405780636ecd23061461035f57806370a082311461037257600080fd5b80632ebdf800146102c057806342842e0e146102e057806348c894911461030057600080fd5b8063095ea7b311610195578063095ea7b31461024b57806315a8f0731461026d57806323b872dd146102825780632b7ac3f3146102a257600080fd5b806301ffc9a7146101bc57806306fdde03146101f1578063081812fc14610213575b600080fd5b3480156101c857600080fd5b506101dc6101d7366004611327565b61052b565b60405190151581526020015b60405180910390f35b3480156101fd57600080fd5b5061020661057d565b6040516101e89190611391565b34801561021f57600080fd5b5061023361022e3660046113a4565b61060f565b6040516001600160a01b0390911681526020016101e8565b34801561025757600080fd5b5061026b6102663660046113d9565b610638565b005b34801561027957600080fd5b5061026b610647565b34801561028e57600080fd5b5061026b61029d366004611403565b610670565b3480156102ae57600080fd5b50600b546001600160a01b0316610233565b3480156102cc57600080fd5b5061026b6102db36600461143f565b610700565b3480156102ec57600080fd5b5061026b6102fb366004611403565b61073f565b34801561030c57600080fd5b5061026b61031b366004611461565b61075a565b34801561032c57600080fd5b5061023361033b3660046113a4565b6107df565b34801561034c57600080fd5b50600a545b6040519081526020016101e8565b61026b61036d3660046114d3565b6107ea565b34801561037e57600080fd5b5061035161038d3660046114f6565b61082a565b34801561039e57600080fd5b5061026b610872565b3480156103b357600080fd5b5061026b610886565b3480156103c857600080fd5b506000546001600160a01b0316610233565b3480156103e657600080fd5b506102066108c7565b3480156103fb57600080fd5b506101dc61040a366004611522565b6108d6565b34801561041b57600080fd5b5061026b61042a366004611597565b610957565b34801561043b57600080fd5b5061026b61044a3660046115e4565b610962565b34801561045b57600080fd5b50600d54610351565b34801561047057600080fd5b5061026b61047f3660046113a4565b610979565b34801561049057600080fd5b506104996109ac565b60405160ff90911681526020016101e8565b3480156104b757600080fd5b506102066104c63660046113a4565b6109bf565b3480156104d757600080fd5b5061026b6104e63660046114f6565b610a23565b3480156104f757600080fd5b506101dc6105063660046116c0565b610a84565b34801561051757600080fd5b5061026b6105263660046114f6565b610ab2565b60006001600160e01b031982166380ac58cd60e01b148061055c57506001600160e01b03198216635b5e139f60e01b145b8061057757506301ffc9a760e01b6001600160e01b03198316145b92915050565b60606001805461058c906116f3565b80601f01602080910402602001604051908101604052809291908181526020018280546105b8906116f3565b80156106055780601f106105da57610100808354040283529160200191610605565b820191906000526020600020905b8154815290600101906020018083116105e857829003601f168201915b5050505050905090565b600061061a82610aed565b506000828152600560205260409020546001600160a01b0316610577565b610643828233610b26565b5050565b61064f610b33565b60075460029060ff16811461066357600080fd5b61066d6003610b60565b50565b6001600160a01b03821661069f57604051633250574960e11b8152600060048201526024015b60405180910390fd5b60006106ac838333610b76565b9050836001600160a01b0316816001600160a01b0316146106fa576040516364283d7b60e01b81526001600160a01b0380861660048301526024820184905282166044820152606401610696565b50505050565b610708610b33565b60075460019060ff16811461071c57600080fd5b61072860098484610c6f565b600c541561073a5761073a6002610b60565b505050565b61073a83838360405180602001604052806000815250610962565b610762610b33565b60075460049060ff16811461077657600080fd5b6107b583838080601f016020809104026020016040519081016040528093929190818152602001838380828437600092019190915250610d0c92505050565b600e80546001600160a01b0319166001600160a01b039290921691909117905561073a6000610b60565b600061057782610aed565b60075460029060ff1681146107fe57600080fd5b61081833610813600880546001019081905590565b610d55565b50600d805460ff909216919091019055565b60006001600160a01b038216610856576040516322718ad960e21b815260006004820152602401610696565b506001600160a01b031660009081526004602052604090205490565b61087a610b33565b6108846000610d6f565b565b61088e610b33565b60075460039060ff1681146108a257600080fd5b6108ac6009610dbf565b600b546001600160a01b03161561066d5761066d6004610b60565b60606002805461058c906116f3565b600b54604051637e84627760e11b81526000916001600160a01b03169063fd08c4ee9061090d90889088908890889060040161172d565b602060405180830381865afa15801561092a573d6000803e3d6000fd5b505050506040513d601f19601f8201168201806040525081019061094e919061177c565b95945050505050565b610643338383610e53565b61096d848484610670565b6106fa84848484610ef2565b610981610b33565b60075460019060ff16811461099557600080fd5b600c82905560095415610643576106436002610b60565b60006109ba60075460ff1690565b905090565b606060006109ce6001846117af565b6109d99060206117c2565b905060006109e88260206117d9565b600e54909150600090610a05906001600160a01b0316848461101b565b806020019051810190610a1891906117ec565b905061094e81611081565b610a2b610b33565b60075460039060ff168114610a3f57600080fd5b600c54826001600160a01b03163f14610a5757600080fd5b600b80546001600160a01b0319166001600160a01b038416179055600a5415610643576106436004610b60565b6001600160a01b03918216600090815260066020908152604080832093909416825291909152205460ff1690565b610aba610b33565b6001600160a01b038116610ae457604051631e4fbdf760e01b815260006004820152602401610696565b61066d81610d6f565b6000818152600360205260408120546001600160a01b03168061057757604051637e27328960e01b815260048101849052602401610696565b61073a83838360016110c5565b6000546001600160a01b031633146108845760405163118cdaa760e01b8152336004820152602401610696565b6007805460ff191660ff92909216919091179055565b6000828152600360205260408120546001600160a01b0390811690831615610ba357610ba38184866111cb565b6001600160a01b03811615610be157610bc06000856000806110c5565b6001600160a01b038116600090815260046020526040902080546000190190555b6001600160a01b03851615610c10576001600160a01b0385166000908152600460205260409020805460010190555b60008481526003602052604080822080546001600160a01b0319166001600160a01b0389811691821790925591518793918516917fddf252ad1be2c89b69c2b068fc378daa952ba7f163c4a11628f55a4df523b3ef91a4949350505050565b436000610c7c84836117d9565b9050828110610ccd5760405162461bcd60e51b815260206004820152601c60248201527f70726f706f736520696e76616c696420626c6f636b206e756d626572000000006044820152606401610696565b82855560405183815282907fd642a917cfc06a8458004df786ba343f8b87cd6b6b8618fd5af161a4174c2e339060200160405180910390a25050505050565b60008151600181018060401b6bfd61000080600a3d393df3001761ffff8211850152600a8101601585016000f092505081610d4f5763301164256000526004601cfd5b90915290565b61064382826040518060200160405280600081525061122f565b600080546001600160a01b038381166001600160a01b0319831681178455604051919092169283917f8be0079c531659141344cd1fd0a4f28419497f9722a3daafe3b4186f6b6457e09190a35050565b805443908111610e115760405162461bcd60e51b815260206004820152601e60248201527f72657665616c2072616e646f6d6e65737320696e206c6f636b2074696d6500006044820152606401610696565b446001830181905560405181815282907f99923554a4b42f7c1be47dc94ecf54d52a2049d48ad045e9c718117cd63d727d9060200160405180910390a2505050565b6001600160a01b038216610e8557604051630b61174360e31b81526001600160a01b0383166004820152602401610696565b6001600160a01b03838116600081815260066020908152604080832094871680845294825291829020805460ff191686151590811790915591519182527f17307eab39ab6107e8899845ad3d59bd9653f200f220920489ca2b5937696c31910160405180910390a3505050565b6001600160a01b0383163b156106fa57604051630a85bd0160e11b81526001600160a01b0384169063150b7a0290610f34903390889087908790600401611805565b6020604051808303816000875af1925050508015610f6f575060408051601f3d908101601f19168201909252610f6c91810190611842565b60015b610fd8573d808015610f9d576040519150601f19603f3d011682016040523d82523d6000602084013e610fa2565b606091505b508051600003610fd057604051633250574960e11b81526001600160a01b0385166004820152602401610696565b805181602001fd5b6001600160e01b03198116630a85bd0160e11b1461101457604051633250574960e11b81526001600160a01b0385166004820152602401610696565b5050505050565b6060833b80611032576311052bb46000526004601cfd5b828411158382111661104c576384eb0dd16000526004601cfd5b50828203604051915061ffe0603f8201168201604052808252600081602084010152806001850160208401873c509392505050565b60606080604051019050602081016040526000815280600019835b928101926030600a8206018453600a90048061109c575050819003601f19909101908152919050565b80806110d957506001600160a01b03821615155b1561119b5760006110e984610aed565b90506001600160a01b038316158015906111155750826001600160a01b0316816001600160a01b031614155b801561112857506111268184610a84565b155b156111515760405163a9fbf51f60e01b81526001600160a01b0384166004820152602401610696565b81156111995783856001600160a01b0316826001600160a01b03167f8c5be1e5ebec7d5bd14f71427d1e84f3dd0314c0f7b2291e5b200ac8c7c3b92560405160405180910390a45b505b5050600090815260056020526040902080546001600160a01b0319166001600160a01b0392909216919091179055565b6111d6838383611246565b61073a576001600160a01b03831661120457604051637e27328960e01b815260048101829052602401610696565b60405163177e802f60e01b81526001600160a01b038316600482015260248101829052604401610696565b61123983836112ac565b61073a6000848484610ef2565b60006001600160a01b038316158015906112a45750826001600160a01b0316846001600160a01b0316148061128057506112808484610a84565b806112a457506000828152600560205260409020546001600160a01b038481169116145b949350505050565b6001600160a01b0382166112d657604051633250574960e11b815260006004820152602401610696565b60006112e483836000610b76565b90506001600160a01b0381161561073a576040516339e3563760e11b815260006004820152602401610696565b6001600160e01b03198116811461066d57600080fd5b60006020828403121561133957600080fd5b813561134481611311565b9392505050565b6000815180845260005b8181101561137157602081850181015186830182015201611355565b506000602082860101526020601f19601f83011685010191505092915050565b602081526000611344602083018461134b565b6000602082840312156113b657600080fd5b5035919050565b80356001600160a01b03811681146113d457600080fd5b919050565b600080604083850312156113ec57600080fd5b6113f5836113bd565b946020939093013593505050565b60008060006060848603121561141857600080fd5b611421846113bd565b925061142f602085016113bd565b9150604084013590509250925092565b6000806040838503121561145257600080fd5b50508035926020909101359150565b6000806020838503121561147457600080fd5b823567ffffffffffffffff8082111561148c57600080fd5b818501915085601f8301126114a057600080fd5b8135818111156114af57600080fd5b8660208285010111156114c157600080fd5b60209290920196919550909350505050565b6000602082840312156114e557600080fd5b813560ff8116811461134457600080fd5b60006020828403121561150857600080fd5b611344826113bd565b806040810183101561057757600080fd5b6000806000806202722080868803121561153b57600080fd5b6115458787611511565b945060c086018781111561155857600080fd5b6040870194506115688882611511565b93505086818701111561157a57600080fd5b50929591945092610100019150565b801515811461066d57600080fd5b600080604083850312156115aa57600080fd5b6115b3836113bd565b915060208301356115c381611589565b809150509250929050565b634e487b7160e01b600052604160045260246000fd5b600080600080608085870312156115fa57600080fd5b611603856113bd565b9350611611602086016113bd565b925060408501359150606085013567ffffffffffffffff8082111561163557600080fd5b818701915087601f83011261164957600080fd5b81358181111561165b5761165b6115ce565b604051601f8201601f19908116603f01168101908382118183101715611683576116836115ce565b816040528281528a602084870101111561169c57600080fd5b82602086016020830137600060208483010152809550505050505092959194509250565b600080604083850312156116d357600080fd5b6116dc836113bd565b91506116ea602084016113bd565b90509250929050565b600181811c9082168061170757607f821691505b60208210810361172757634e487b7160e01b600052602260045260246000fd5b50919050565b6202722081016040808784378083018660005b600281101561175d57838284379183019190830190600101611740565b505050808560c085013750620271208361010084013795945050505050565b60006020828403121561178e57600080fd5b815161134481611589565b634e487b7160e01b600052601160045260246000fd5b8181038181111561057757610577611799565b808202811582820484141761057757610577611799565b8082018082111561057757610577611799565b6000602082840312156117fe57600080fd5b5051919050565b6001600160a01b03858116825284166020820152604081018390526080606082018190526000906118389083018461134b565b9695505050505050565b60006020828403121561185457600080fd5b81516113448161131156fea26469706673582212208efc55d93800ab11fb01bb2fa6d58056ed1976132c28c62d8d0f5e4aebcbefb164736f6c63430008160033",
    "linkReferences": {}
  },
  "methodIdentifiers": {
    "approve(address,uint256)": "095ea7b3",
    "balanceOf(address)": "70a08231",
    "closeSales()": "15a8f073",
    "commitRandao(uint256,uint256)": "2ebdf800",
    "commitVerifier(bytes32)": "bed84fb7",
    "getApproved(uint256)": "081812fc",
    "isApprovedForAll(address,address)": "e985e9c5",
    "mint(uint8)": "6ecd2306",
    "name()": "06fdde03",
    "owner()": "8da5cb5b",
    "ownerOf(uint256)": "6352211e",
    "randaoRandomness()": "64ef40cd",
    "renounceOwnership()": "715018a6",
    "revealRandao()": "775a75de",
    "revealVerifier(address)": "d6bc2f3b",
    "safeTransferFrom(address,address,uint256)": "42842e0e",
    "safeTransferFrom(address,address,uint256,bytes)": "b88d4fde",
    "setApprovalForAll(address,bool)": "a22cb465",
    "stage()": "c040e6b8",
    "supportsInterface(bytes4)": "01ffc9a7",
    "symbol()": "95d89b41",
    "tokenURI(uint256)": "c87b56dd",
    "transferFrom(address,address,uint256)": "23b872dd",
    "transferOwnership(address)": "f2fde38b",
    "unlock(bytes)": "48c89491",
    "userContributeSwapTimes()": "b8f02be8",
    "verifier()": "2b7ac3f3",
    "verify(uint256[2],uint256[2][2],uint256[2],uint256[5001])": "a10d8dd1"
  },
  "id": 43
}