{
  "abi": [
    {
      "inputs": [
        {
          "internalType": "address",
          "name": "initOwner",
          "type": "address"
        }
      ],
      "stateMutability": "nonpayable",
      "type": "constructor"
    },
    {
      "inputs": [
        {
          "internalType": "address",
          "name": "sender",
          "type": "address"
        },
        {
          "internalType": "uint256",
          "name": "tokenId",
          "type": "uint256"
        },
        {
          "internalType": "address",
          "name": "owner",
          "type": "address"
        }
      ],
      "name": "ERC721IncorrectOwner",
      "type": "error"
    },
    {
      "inputs": [
        {
          "internalType": "address",
          "name": "operator",
          "type": "address"
        },
        {
          "internalType": "uint256",
          "name": "tokenId",
          "type": "uint256"
        }
      ],
      "name": "ERC721InsufficientApproval",
      "type": "error"
    },
    {
      "inputs": [
        {
          "internalType": "address",
          "name": "approver",
          "type": "address"
        }
      ],
      "name": "ERC721InvalidApprover",
      "type": "error"
    },
    {
      "inputs": [
        {
          "internalType": "address",
          "name": "operator",
          "type": "address"
        }
      ],
      "name": "ERC721InvalidOperator",
      "type": "error"
    },
    {
      "inputs": [
        {
          "internalType": "address",
          "name": "owner",
          "type": "address"
        }
      ],
      "name": "ERC721InvalidOwner",
      "type": "error"
    },
    {
      "inputs": [
        {
          "internalType": "address",
          "name": "receiver",
          "type": "address"
        }
      ],
      "name": "ERC721InvalidReceiver",
      "type": "error"
    },
    {
      "inputs": [
        {
          "internalType": "address",
          "name": "sender",
          "type": "address"
        }
      ],
      "name": "ERC721InvalidSender",
      "type": "error"
    },
    {
      "inputs": [
        {
          "internalType": "uint256",
          "name": "tokenId",
          "type": "uint256"
        }
      ],
      "name": "ERC721NonexistentToken",
      "type": "error"
    },
    {
      "inputs": [
        {
          "internalType": "address",
          "name": "owner",
          "type": "address"
        }
      ],
      "name": "OwnableInvalidOwner",
      "type": "error"
    },
    {
      "inputs": [
        {
          "internalType": "address",
          "name": "account",
          "type": "address"
        }
      ],
      "name": "OwnableUnauthorizedAccount",
      "type": "error"
    },
    {
      "anonymous": false,
      "inputs": [
        {
          "indexed": true,
          "internalType": "address",
          "name": "owner",
          "type": "address"
        },
        {
          "indexed": true,
          "internalType": "address",
          "name": "approved",
          "type": "address"
        },
        {
          "indexed": true,
          "internalType": "uint256",
          "name": "tokenId",
          "type": "uint256"
        }
      ],
      "name": "Approval",
      "type": "event"
    },
    {
      "anonymous": false,
      "inputs": [
        {
          "indexed": true,
          "internalType": "address",
          "name": "owner",
          "type": "address"
        },
        {
          "indexed": true,
          "internalType": "address",
          "name": "operator",
          "type": "address"
        },
        {
          "indexed": false,
          "internalType": "bool",
          "name": "approved",
          "type": "bool"
        }
      ],
      "name": "ApprovalForAll",
      "type": "event"
    },
    {
      "anonymous": false,
      "inputs": [
        {
          "indexed": true,
          "internalType": "address",
          "name": "previousOwner",
          "type": "address"
        },
        {
          "indexed": true,
          "internalType": "address",
          "name": "newOwner",
          "type": "address"
        }
      ],
      "name": "OwnershipTransferred",
      "type": "event"
    },
    {
      "anonymous": false,
      "inputs": [
        {
          "indexed": true,
          "internalType": "address",
          "name": "from",
          "type": "address"
        },
        {
          "indexed": true,
          "internalType": "address",
          "name": "to",
          "type": "address"
        },
        {
          "indexed": true,
          "internalType": "uint256",
          "name": "tokenId",
          "type": "uint256"
        }
      ],
      "name": "Transfer",
      "type": "event"
    },
    {
      "inputs": [
        {
          "internalType": "address",
          "name": "to",
          "type": "address"
        },
        {
          "internalType": "uint256",
          "name": "tokenId",
          "type": "uint256"
        }
      ],
      "name": "approve",
      "outputs": [],
      "stateMutability": "nonpayable",
      "type": "function"
    },
    {
      "inputs": [
        {
          "internalType": "address",
          "name": "owner",
          "type": "address"
        }
      ],
      "name": "balanceOf",
      "outputs": [
        {
          "internalType": "uint256",
          "name": "",
          "type": "uint256"
        }
      ],
      "stateMutability": "view",
      "type": "function"
    },
    {
      "inputs": [
        {
          "internalType": "uint8",
          "name": "contributionStart",
          "type": "uint8"
        },
        {
          "internalType": "uint8",
          "name": "n",
          "type": "uint8"
        }
      ],
      "name": "batchMint",
      "outputs": [],
      "stateMutability": "payable",
      "type": "function"
    },
    {
      "inputs": [],
      "name": "closeSales",
      "outputs": [],
      "stateMutability": "nonpayable",
      "type": "function"
    },
    {
      "inputs": [
        {
          "internalType": "uint256",
          "name": "futureBlockNumber",
          "type": "uint256"
        }
      ],
      "name": "commitRandao",
      "outputs": [],
      "stateMutability": "nonpayable",
      "type": "function"
    },
    {
      "inputs": [
        {
          "internalType": "bytes32",
          "name": "extcodehash",
          "type": "bytes32"
        }
      ],
      "name": "commitVerifier",
      "outputs": [],
      "stateMutability": "nonpayable",
      "type": "function"
    },
    {
      "inputs": [
        {
          "internalType": "uint256",
          "name": "tokenId",
          "type": "uint256"
        }
      ],
      "name": "getApproved",
      "outputs": [
        {
          "internalType": "address",
          "name": "",
          "type": "address"
        }
      ],
      "stateMutability": "view",
      "type": "function"
    },
    {
      "inputs": [
        {
          "internalType": "address",
          "name": "owner",
          "type": "address"
        },
        {
          "internalType": "address",
          "name": "operator",
          "type": "address"
        }
      ],
      "name": "isApprovedForAll",
      "outputs": [
        {
          "internalType": "bool",
          "name": "",
          "type": "bool"
        }
      ],
      "stateMutability": "view",
      "type": "function"
    },
    {
      "inputs": [
        {
          "internalType": "uint8",
          "name": "contribution",
          "type": "uint8"
        }
      ],
      "name": "mint",
      "outputs": [],
      "stateMutability": "payable",
      "type": "function"
    },
    {
      "inputs": [],
      "name": "mintCounter",
      "outputs": [
        {
          "internalType": "uint256",
          "name": "",
          "type": "uint256"
        }
      ],
      "stateMutability": "view",
      "type": "function"
    },
    {
      "inputs": [],
      "name": "name",
      "outputs": [
        {
          "internalType": "string",
          "name": "",
          "type": "string"
        }
      ],
      "stateMutability": "view",
      "type": "function"
    },
    {
      "inputs": [],
      "name": "owner",
      "outputs": [
        {
          "internalType": "address",
          "name": "",
          "type": "address"
        }
      ],
      "stateMutability": "view",
      "type": "function"
    },
    {
      "inputs": [
        {
          "internalType": "uint256",
          "name": "tokenId",
          "type": "uint256"
        }
      ],
      "name": "ownerOf",
      "outputs": [
        {
          "internalType": "address",
          "name": "",
          "type": "address"
        }
      ],
      "stateMutability": "view",
      "type": "function"
    },
    {
      "inputs": [],
      "name": "randaoBlockNumber",
      "outputs": [
        {
          "internalType": "uint256",
          "name": "",
          "type": "uint256"
        }
      ],
      "stateMutability": "view",
      "type": "function"
    },
    {
      "inputs": [],
      "name": "randaoRandomness",
      "outputs": [
        {
          "internalType": "uint256",
          "name": "",
          "type": "uint256"
        }
      ],
      "stateMutability": "view",
      "type": "function"
    },
    {
      "inputs": [],
      "name": "renounceOwnership",
      "outputs": [],
      "stateMutability": "nonpayable",
      "type": "function"
    },
    {
      "inputs": [],
      "name": "revealRandao",
      "outputs": [],
      "stateMutability": "nonpayable",
      "type": "function"
    },
    {
      "inputs": [
        {
          "internalType": "uint256",
          "name": "randomness",
          "type": "uint256"
        }
      ],
      "name": "revealRandaoForTest",
      "outputs": [],
      "stateMutability": "nonpayable",
      "type": "function"
    },
    {
      "inputs": [
        {
          "internalType": "address",
          "name": "addr",
          "type": "address"
        }
      ],
      "name": "revealVerifier",
      "outputs": [],
      "stateMutability": "nonpayable",
      "type": "function"
    },
    {
      "inputs": [
        {
          "internalType": "address",
          "name": "from",
          "type": "address"
        },
        {
          "internalType": "address",
          "name": "to",
          "type": "address"
        },
        {
          "internalType": "uint256",
          "name": "tokenId",
          "type": "uint256"
        }
      ],
      "name": "safeTransferFrom",
      "outputs": [],
      "stateMutability": "nonpayable",
      "type": "function"
    },
    {
      "inputs": [
        {
          "internalType": "address",
          "name": "from",
          "type": "address"
        },
        {
          "internalType": "address",
          "name": "to",
          "type": "address"
        },
        {
          "internalType": "uint256",
          "name": "tokenId",
          "type": "uint256"
        },
        {
          "internalType": "bytes",
          "name": "data",
          "type": "bytes"
        }
      ],
      "name": "safeTransferFrom",
      "outputs": [],
      "stateMutability": "nonpayable",
      "type": "function"
    },
    {
      "inputs": [
        {
          "internalType": "address",
          "name": "operator",
          "type": "address"
        },
        {
          "internalType": "bool",
          "name": "approved",
          "type": "bool"
        }
      ],
      "name": "setApprovalForAll",
      "outputs": [],
      "stateMutability": "nonpayable",
      "type": "function"
    },
    {
      "inputs": [],
      "name": "stage",
      "outputs": [
        {
          "internalType": "uint8",
          "name": "",
          "type": "uint8"
        }
      ],
      "stateMutability": "view",
      "type": "function"
    },
    {
      "inputs": [
        {
          "internalType": "bytes4",
          "name": "interfaceId",
          "type": "bytes4"
        }
      ],
      "name": "supportsInterface",
      "outputs": [
        {
          "internalType": "bool",
          "name": "",
          "type": "bool"
        }
      ],
      "stateMutability": "view",
      "type": "function"
    },
    {
      "inputs": [],
      "name": "symbol",
      "outputs": [
        {
          "internalType": "string",
          "name": "",
          "type": "string"
        }
      ],
      "stateMutability": "view",
      "type": "function"
    },
    {
      "inputs": [
        {
          "internalType": "uint256",
          "name": "tokenId",
          "type": "uint256"
        }
      ],
      "name": "tokenURI",
      "outputs": [
        {
          "internalType": "string",
          "name": "ret",
          "type": "string"
        }
      ],
      "stateMutability": "view",
      "type": "function"
    },
    {
      "inputs": [
        {
          "internalType": "address",
          "name": "from",
          "type": "address"
        },
        {
          "internalType": "address",
          "name": "to",
          "type": "address"
        },
        {
          "internalType": "uint256",
          "name": "tokenId",
          "type": "uint256"
        }
      ],
      "name": "transferFrom",
      "outputs": [],
      "stateMutability": "nonpayable",
      "type": "function"
    },
    {
      "inputs": [
        {
          "internalType": "address",
          "name": "newOwner",
          "type": "address"
        }
      ],
      "name": "transferOwnership",
      "outputs": [],
      "stateMutability": "nonpayable",
      "type": "function"
    },
    {
      "inputs": [
        {
          "internalType": "bytes",
          "name": "data",
          "type": "bytes"
        }
      ],
      "name": "unlock",
      "outputs": [],
      "stateMutability": "nonpayable",
      "type": "function"
    },
    {
      "inputs": [],
      "name": "userContributeSwapTimes",
      "outputs": [
        {
          "internalType": "uint256",
          "name": "",
          "type": "uint256"
        }
      ],
      "stateMutability": "view",
      "type": "function"
    },
    {
      "inputs": [],
      "name": "verifier",
      "outputs": [
        {
          "internalType": "address",
          "name": "",
          "type": "address"
        }
      ],
      "stateMutability": "view",
      "type": "function"
    },
    {
      "inputs": [],
      "name": "verifierCodeHash",
      "outputs": [
        {
          "internalType": "bytes32",
          "name": "",
          "type": "bytes32"
        }
      ],
      "stateMutability": "view",
      "type": "function"
    },
    {
      "inputs": [
        {
          "internalType": "uint256[2]",
          "name": "pA",
          "type": "uint256[2]"
        },
        {
          "internalType": "uint256[2][2]",
          "name": "pB",
          "type": "uint256[2][2]"
        },
        {
          "internalType": "uint256[2]",
          "name": "pC",
          "type": "uint256[2]"
        },
        {
          "internalType": "uint256",
          "name": "extraRounds",
          "type": "uint256"
        },
        {
          "internalType": "uint256[50]",
          "name": "originArray",
          "type": "uint256[50]"
        },
        {
          "internalType": "uint256[50]",
          "name": "afterShuffleArray",
          "type": "uint256[50]"
        }
      ],
      "name": "verify",
      "outputs": [
        {
          "internalType": "bool",
          "name": "",
          "type": "bool"
        }
      ],
      "stateMutability": "view",
      "type": "function"
    }
  ],
  "bytecode": {
    "object": "0x60806040523480156200001157600080fd5b5060405162001e6138038062001e61833981016040819052620000349162000149565b604080518082018252600781526644454d4f44415960c81b6020808301919091528251808401909352600483526344454d4f60e01b9083015290826001600160a01b0381166200009e57604051631e4fbdf760e01b81526000600482015260240160405180910390fd5b620000a981620000e3565b506001620000b8838262000222565b506002620000c7828262000222565b505050620000dc60016200013360201b60201c565b50620002ee565b600080546001600160a01b038381166001600160a01b0319831681178455604051919092169283917f8be0079c531659141344cd1fd0a4f28419497f9722a3daafe3b4186f6b6457e09190a35050565b6007805460ff191660ff92909216919091179055565b6000602082840312156200015c57600080fd5b81516001600160a01b03811681146200017457600080fd5b9392505050565b634e487b7160e01b600052604160045260246000fd5b600181811c90821680620001a657607f821691505b602082108103620001c757634e487b7160e01b600052602260045260246000fd5b50919050565b601f8211156200021d576000816000526020600020601f850160051c81016020861015620001f85750805b601f850160051c820191505b81811015620002195782815560010162000204565b5050505b505050565b81516001600160401b038111156200023e576200023e6200017b565b62000256816200024f845462000191565b84620001cd565b602080601f8311600181146200028e5760008415620002755750858301515b600019600386901b1c1916600185901b17855562000219565b600085815260208120601f198616915b82811015620002bf578886015182559484019460019091019084016200029e565b5085821015620002de5787850151600019600388901b60f8161c191681555b5050505050600190811b01905550565b611b6380620002fe6000396000f3fe6080604052600436106101ee5760003560e01c8063775a75de1161010d578063bd970a65116100a0578063d6bc2f3b1161006f578063d6bc2f3b14610543578063e985e9c514610563578063f2fde38b14610583578063f7178ac6146105a3578063fa58399c146105b857600080fd5b8063bd970a65146104bc578063bed84fb7146104dc578063c040e6b8146104fc578063c87b56dd1461052357600080fd5b8063a22cb465116100dc578063a22cb46514610447578063a686f2f914610467578063b88d4fde14610487578063b8f02be8146104a757600080fd5b8063775a75de146103ec5780638927bdd6146104015780638da5cb5b1461041457806395d89b411461043257600080fd5b806346aa52ce1161018557806364ef40cd1161015457806364ef40cd1461038f5780636ecd2306146103a457806370a08231146103b7578063715018a6146103d757600080fd5b806346aa52ce1461031757806348c894911461033a578063598b49e11461035a5780636352211e1461036f57600080fd5b806315a8f073116101c157806315a8f073146102a457806323b872dd146102b95780632b7ac3f3146102d957806342842e0e146102f757600080fd5b806301ffc9a7146101f357806306fdde0314610228578063081812fc1461024a578063095ea7b314610282575b600080fd5b3480156101ff57600080fd5b5061021361020e366004611504565b6105d8565b60405190151581526020015b60405180910390f35b34801561023457600080fd5b5061023d61062a565b60405161021f919061156e565b34801561025657600080fd5b5061026a610265366004611581565b6106bc565b6040516001600160a01b03909116815260200161021f565b34801561028e57600080fd5b506102a261029d3660046115b6565b6106e5565b005b3480156102b057600080fd5b506102a26106f4565b3480156102c557600080fd5b506102a26102d43660046115e0565b61071d565b3480156102e557600080fd5b50600b546001600160a01b031661026a565b34801561030357600080fd5b506102a26103123660046115e0565b6107ad565b34801561032357600080fd5b5061032c6107cd565b60405190815260200161021f565b34801561034657600080fd5b506102a261035536600461161c565b6107dd565b34801561036657600080fd5b5060095461032c565b34801561037b57600080fd5b5061026a61038a366004611581565b610862565b34801561039b57600080fd5b50600a5461032c565b6102a26103b236600461169f565b61086d565b3480156103c357600080fd5b5061032c6103d23660046116ba565b6108ad565b3480156103e357600080fd5b506102a26108f5565b3480156103f857600080fd5b506102a2610909565b6102a261040f3660046116d5565b610995565b34801561042057600080fd5b506000546001600160a01b031661026a565b34801561043e57600080fd5b5061023d6109f4565b34801561045357600080fd5b506102a2610462366004611716565b610a03565b34801561047357600080fd5b506102a2610482366004611581565b610a0e565b34801561049357600080fd5b506102a26104a2366004611763565b610a41565b3480156104b357600080fd5b50600d5461032c565b3480156104c857600080fd5b506102a26104d7366004611581565b610a58565b3480156104e857600080fd5b506102a26104f7366004611581565b610a94565b34801561050857600080fd5b50610511610ac7565b60405160ff909116815260200161021f565b34801561052f57600080fd5b5061023d61053e366004611581565b610ad5565b34801561054f57600080fd5b506102a261055e3660046116ba565b610b42565b34801561056f57600080fd5b5061021361057e36600461183f565b610be5565b34801561058f57600080fd5b506102a261059e3660046116ba565b610c13565b3480156105af57600080fd5b50600c5461032c565b3480156105c457600080fd5b506102136105d336600461188c565b610c4e565b60006001600160e01b031982166380ac58cd60e01b148061060957506001600160e01b03198216635b5e139f60e01b145b8061062457506301ffc9a760e01b6001600160e01b03198316145b92915050565b60606001805461063990611908565b80601f016020809104026020016040519081016040528092919081815260200182805461066590611908565b80156106b25780601f10610687576101008083540402835291602001916106b2565b820191906000526020600020905b81548152906001019060200180831161069557829003601f168201915b5050505050905090565b60006106c782610d7f565b506000828152600560205260409020546001600160a01b0316610624565b6106f0828233610db8565b5050565b6106fc610dc5565b60075460029060ff16811461071057600080fd5b61071a6003610df2565b50565b6001600160a01b03821661074c57604051633250574960e11b8152600060048201526024015b60405180910390fd5b6000610759838333610e08565b9050836001600160a01b0316816001600160a01b0316146107a7576040516364283d7b60e01b81526001600160a01b0380861660048301526024820184905282166044820152606401610743565b50505050565b6107c883838360405180602001604052806000815250610a41565b505050565b60006107d860085490565b905090565b6107e5610dc5565b60075460049060ff1681146107f957600080fd5b61083883838080601f016020809104026020016040519081016040528093929190818152602001838380828437600092019190915250610f0192505050565b600e80546001600160a01b0319166001600160a01b03929092169190911790556107c86005610df2565b600061062482610d7f565b60075460029060ff16811461088157600080fd5b61089b33610896600880546001019081905590565b610f4a565b50600d805460ff909216919091019055565b60006001600160a01b0382166108d9576040516322718ad960e21b815260006004820152602401610743565b506001600160a01b031660009081526004602052604090205490565b6108fd610dc5565b6109076000610f64565b565b610911610dc5565b60075460039060ff16811461092557600080fd5b60095443116109765760405162461bcd60e51b815260206004820152601e60248201527f72657665616c2072616e646f6d6e65737320696e206c6f636b2074696d6500006044820152606401610743565b44600a55600b546001600160a01b03161561071a5761071a6004610df2565b60075460029060ff1681146109a957600080fd5b8260005b8360ff168110156109ed576109cd33610896600880546001019081905590565b600d805460ff8416019055816109e281611958565b9250506001016109ad565b5050505050565b60606002805461063990611908565b6106f0338383610fb4565b610a16610dc5565b60075460019060ff168114610a2a57600080fd5b6009829055600c54156106f0576106f06002610df2565b610a4c84848461071d565b6107a784848484611053565b610a60610dc5565b60075460039060ff168114610a7457600080fd5b600a829055600b546001600160a01b0316156106f0576106f06004610df2565b610a9c610dc5565b60075460019060ff168114610ab057600080fd5b600c829055600954156106f0576106f06002610df2565b60006107d860075460ff1690565b60606000610ae4600184611977565b610aef90602061198a565b90506000610afe8260206119a1565b600e54909150600090610b1b906001600160a01b03168484611175565b806020019051810190610b2e91906119b4565b9050610b39816111db565b95945050505050565b610b4a610dc5565b60075460039060ff168114610b5e57600080fd5b610b7f604051806060016040528060328152602001611afc6032913961121f565b600c54826001600160a01b03163f14610b9757600080fd5b610bb8604051806060016040528060338152602001611ac96033913961121f565b600b80546001600160a01b0319166001600160a01b038416179055600a54156106f0576106f06004610df2565b6001600160a01b03918216600090815260066020908152604080832093909416825291909152205460ff1690565b610c1b610dc5565b6001600160a01b038116610c4557604051631e4fbdf760e01b815260006004820152602401610743565b61071a81610f64565b60006032610c5a6114cf565b600a5481526020810186905260026000610c758260326119a1565b905060005b84811015610cf857878160328110610c9457610c946119cd565b602002013584610ca483866119a1565b60668110610cb457610cb46119cd565b6020020152868160328110610ccb57610ccb6119cd565b602002013584610cdb83856119a1565b60668110610ceb57610ceb6119cd565b6020020152600101610c7a565b5050600b546040516304e8305f60e31b81526001600160a01b03909116915063274182f890610d31908c908c908c9087906004016119e3565b602060405180830381865afa158015610d4e573d6000803e3d6000fd5b505050506040513d601f19601f82011682018060405250810190610d729190611a51565b9998505050505050505050565b6000818152600360205260408120546001600160a01b03168061062457604051637e27328960e01b815260048101849052602401610743565b6107c88383836001611262565b6000546001600160a01b031633146109075760405163118cdaa760e01b8152336004820152602401610743565b6007805460ff191660ff92909216919091179055565b6000828152600360205260408120546001600160a01b0390811690831615610e3557610e35818486611368565b6001600160a01b03811615610e7357610e52600085600080611262565b6001600160a01b038116600090815260046020526040902080546000190190555b6001600160a01b03851615610ea2576001600160a01b0385166000908152600460205260409020805460010190555b60008481526003602052604080822080546001600160a01b0319166001600160a01b0389811691821790925591518793918516917fddf252ad1be2c89b69c2b068fc378daa952ba7f163c4a11628f55a4df523b3ef91a4949350505050565b60008151600181018060401b6bfd61000080600a3d393df3001761ffff8211850152600a8101601585016000f092505081610f445763301164256000526004601cfd5b90915290565b6106f08282604051806020016040528060008152506113cc565b600080546001600160a01b038381166001600160a01b0319831681178455604051919092169283917f8be0079c531659141344cd1fd0a4f28419497f9722a3daafe3b4186f6b6457e09190a35050565b6001600160a01b038216610fe657604051630b61174360e31b81526001600160a01b0383166004820152602401610743565b6001600160a01b03838116600081815260066020908152604080832094871680845294825291829020805460ff191686151590811790915591519182527f17307eab39ab6107e8899845ad3d59bd9653f200f220920489ca2b5937696c31910160405180910390a3505050565b6001600160a01b0383163b156107a757604051630a85bd0160e11b81526001600160a01b0384169063150b7a0290611095903390889087908790600401611a6e565b6020604051808303816000875af19250505080156110d0575060408051601f3d908101601f191682019092526110cd91810190611aab565b60015b611139573d8080156110fe576040519150601f19603f3d011682016040523d82523d6000602084013e611103565b606091505b50805160000361113157604051633250574960e11b81526001600160a01b0385166004820152602401610743565b805181602001fd5b6001600160e01b03198116630a85bd0160e11b146109ed57604051633250574960e11b81526001600160a01b0385166004820152602401610743565b6060833b8061118c576311052bb46000526004601cfd5b82841115838211166111a6576384eb0dd16000526004601cfd5b50828203604051915061ffe0603f8201168201604052808252600081602084010152806001850160208401873c509392505050565b60606080604051019050602081016040526000815280600019835b928101926030600a8206018453600a9004806111f6575050819003601f19909101908152919050565b61071a81604051602401611233919061156e565b60408051601f198184030181529190526020810180516001600160e01b031663104c13eb60e21b1790526113e3565b808061127657506001600160a01b03821615155b1561133857600061128684610d7f565b90506001600160a01b038316158015906112b25750826001600160a01b0316816001600160a01b031614155b80156112c557506112c38184610be5565b155b156112ee5760405163a9fbf51f60e01b81526001600160a01b0384166004820152602401610743565b81156113365783856001600160a01b0316826001600160a01b03167f8c5be1e5ebec7d5bd14f71427d1e84f3dd0314c0f7b2291e5b200ac8c7c3b92560405160405180910390a45b505b5050600090815260056020526040902080546001600160a01b0319166001600160a01b0392909216919091179055565b611373838383611404565b6107c8576001600160a01b0383166113a157604051637e27328960e01b815260048101829052602401610743565b60405163177e802f60e01b81526001600160a01b038316600482015260248101829052604401610743565b6113d6838361146a565b6107c86000848484611053565b80516a636f6e736f6c652e6c6f67602083016000808483855afa5050505050565b60006001600160a01b038316158015906114625750826001600160a01b0316846001600160a01b0316148061143e575061143e8484610be5565b8061146257506000828152600560205260409020546001600160a01b038481169116145b949350505050565b6001600160a01b03821661149457604051633250574960e11b815260006004820152602401610743565b60006114a283836000610e08565b90506001600160a01b038116156107c8576040516339e3563760e11b815260006004820152602401610743565b60405180610cc001604052806066906020820280368337509192915050565b6001600160e01b03198116811461071a57600080fd5b60006020828403121561151657600080fd5b8135611521816114ee565b9392505050565b6000815180845260005b8181101561154e57602081850181015186830182015201611532565b506000602082860101526020601f19601f83011685010191505092915050565b6020815260006115216020830184611528565b60006020828403121561159357600080fd5b5035919050565b80356001600160a01b03811681146115b157600080fd5b919050565b600080604083850312156115c957600080fd5b6115d28361159a565b946020939093013593505050565b6000806000606084860312156115f557600080fd5b6115fe8461159a565b925061160c6020850161159a565b9150604084013590509250925092565b6000806020838503121561162f57600080fd5b823567ffffffffffffffff8082111561164757600080fd5b818501915085601f83011261165b57600080fd5b81358181111561166a57600080fd5b86602082850101111561167c57600080fd5b60209290920196919550909350505050565b803560ff811681146115b157600080fd5b6000602082840312156116b157600080fd5b6115218261168e565b6000602082840312156116cc57600080fd5b6115218261159a565b600080604083850312156116e857600080fd5b6116f18361168e565b91506116ff6020840161168e565b90509250929050565b801515811461071a57600080fd5b6000806040838503121561172957600080fd5b6117328361159a565b9150602083013561174281611708565b809150509250929050565b634e487b7160e01b600052604160045260246000fd5b6000806000806080858703121561177957600080fd5b6117828561159a565b93506117906020860161159a565b925060408501359150606085013567ffffffffffffffff808211156117b457600080fd5b818701915087601f8301126117c857600080fd5b8135818111156117da576117da61174d565b604051601f8201601f19908116603f011681019083821181831017156118025761180261174d565b816040528281528a602084870101111561181b57600080fd5b82602086016020830137600060208483010152809550505050505092959194509250565b6000806040838503121561185257600080fd5b61185b8361159a565b91506116ff6020840161159a565b806040810183101561062457600080fd5b80610640810183101561062457600080fd5b600080600080600080610da087890312156118a657600080fd5b6118b08888611869565b955060c08701888111156118c357600080fd5b6040880195506118d38982611869565b94505061010087013592506118ec88610120890161187a565b91506118fc88610760890161187a565b90509295509295509295565b600181811c9082168061191c57607f821691505b60208210810361193c57634e487b7160e01b600052602260045260246000fd5b50919050565b634e487b7160e01b600052601160045260246000fd5b600060ff821660ff810361196e5761196e611942565b60010192915050565b8181038181111561062457610624611942565b808202811582820484141761062457610624611942565b8082018082111561062457610624611942565b6000602082840312156119c657600080fd5b5051919050565b634e487b7160e01b600052603260045260246000fd5b610dc081016040808784378083018660005b6002811015611a12578382843791830191908301906001016119f5565b505050808560c08501375061010082018360005b6066811015611a45578151835260209283019290910190600101611a26565b50505095945050505050565b600060208284031215611a6357600080fd5b815161152181611708565b6001600160a01b0385811682528416602082015260408101839052608060608201819052600090611aa190830184611528565b9695505050505050565b600060208284031215611abd57600080fd5b8151611521816114ee56fe72657665616c56657269666965723a20706f737420616464722e636f646568617368203d3d205f76657269666965724861736872657665616c56657269666965723a2070726520616464722e636f646568617368203d3d205f766572696669657248617368a264697066735822122005b0bc42381ee9da698efa9ea4c8d9d22b4e2457988c832000623771da242d1364736f6c63430008160033",
    "linkReferences": {}
  },
  "methodIdentifiers": {
    "approve(address,uint256)": "095ea7b3",
    "balanceOf(address)": "70a08231",
    "batchMint(uint8,uint8)": "8927bdd6",
    "closeSales()": "15a8f073",
    "commitRandao(uint256)": "a686f2f9",
    "commitVerifier(bytes32)": "bed84fb7",
    "getApproved(uint256)": "081812fc",
    "isApprovedForAll(address,address)": "e985e9c5",
    "mint(uint8)": "6ecd2306",
    "mintCounter()": "46aa52ce",
    "name()": "06fdde03",
    "owner()": "8da5cb5b",
    "ownerOf(uint256)": "6352211e",
    "randaoBlockNumber()": "598b49e1",
    "randaoRandomness()": "64ef40cd",
    "renounceOwnership()": "715018a6",
    "revealRandao()": "775a75de",
    "revealRandaoForTest(uint256)": "bd970a65",
    "revealVerifier(address)": "d6bc2f3b",
    "safeTransferFrom(address,address,uint256)": "42842e0e",
    "safeTransferFrom(address,address,uint256,bytes)": "b88d4fde",
    "setApprovalForAll(address,bool)": "a22cb465",
    "stage()": "c040e6b8",
    "supportsInterface(bytes4)": "01ffc9a7",
    "symbol()": "95d89b41",
    "tokenURI(uint256)": "c87b56dd",
    "transferFrom(address,address,uint256)": "23b872dd",
    "transferOwnership(address)": "f2fde38b",
    "unlock(bytes)": "48c89491",
    "userContributeSwapTimes()": "b8f02be8",
    "verifier()": "2b7ac3f3",
    "verifierCodeHash()": "f7178ac6",
    "verify(uint256[2],uint256[2][2],uint256[2],uint256,uint256[50],uint256[50])": "fa58399c"
  },
  "id": 38
}