{
  "abi": [
    {
      "inputs": [
        {
          "internalType": "address",
          "name": "initOwner",
          "type": "address"
        }
      ],
      "stateMutability": "nonpayable",
      "type": "constructor"
    },
    {
      "inputs": [
        {
          "internalType": "address",
          "name": "sender",
          "type": "address"
        },
        {
          "internalType": "uint256",
          "name": "tokenId",
          "type": "uint256"
        },
        {
          "internalType": "address",
          "name": "owner",
          "type": "address"
        }
      ],
      "name": "ERC721IncorrectOwner",
      "type": "error"
    },
    {
      "inputs": [
        {
          "internalType": "address",
          "name": "operator",
          "type": "address"
        },
        {
          "internalType": "uint256",
          "name": "tokenId",
          "type": "uint256"
        }
      ],
      "name": "ERC721InsufficientApproval",
      "type": "error"
    },
    {
      "inputs": [
        {
          "internalType": "address",
          "name": "approver",
          "type": "address"
        }
      ],
      "name": "ERC721InvalidApprover",
      "type": "error"
    },
    {
      "inputs": [
        {
          "internalType": "address",
          "name": "operator",
          "type": "address"
        }
      ],
      "name": "ERC721InvalidOperator",
      "type": "error"
    },
    {
      "inputs": [
        {
          "internalType": "address",
          "name": "owner",
          "type": "address"
        }
      ],
      "name": "ERC721InvalidOwner",
      "type": "error"
    },
    {
      "inputs": [
        {
          "internalType": "address",
          "name": "receiver",
          "type": "address"
        }
      ],
      "name": "ERC721InvalidReceiver",
      "type": "error"
    },
    {
      "inputs": [
        {
          "internalType": "address",
          "name": "sender",
          "type": "address"
        }
      ],
      "name": "ERC721InvalidSender",
      "type": "error"
    },
    {
      "inputs": [
        {
          "internalType": "uint256",
          "name": "tokenId",
          "type": "uint256"
        }
      ],
      "name": "ERC721NonexistentToken",
      "type": "error"
    },
    {
      "inputs": [
        {
          "internalType": "address",
          "name": "owner",
          "type": "address"
        }
      ],
      "name": "OwnableInvalidOwner",
      "type": "error"
    },
    {
      "inputs": [
        {
          "internalType": "address",
          "name": "account",
          "type": "address"
        }
      ],
      "name": "OwnableUnauthorizedAccount",
      "type": "error"
    },
    {
      "anonymous": false,
      "inputs": [
        {
          "indexed": true,
          "internalType": "address",
          "name": "owner",
          "type": "address"
        },
        {
          "indexed": true,
          "internalType": "address",
          "name": "approved",
          "type": "address"
        },
        {
          "indexed": true,
          "internalType": "uint256",
          "name": "tokenId",
          "type": "uint256"
        }
      ],
      "name": "Approval",
      "type": "event"
    },
    {
      "anonymous": false,
      "inputs": [
        {
          "indexed": true,
          "internalType": "address",
          "name": "owner",
          "type": "address"
        },
        {
          "indexed": true,
          "internalType": "address",
          "name": "operator",
          "type": "address"
        },
        {
          "indexed": false,
          "internalType": "bool",
          "name": "approved",
          "type": "bool"
        }
      ],
      "name": "ApprovalForAll",
      "type": "event"
    },
    {
      "anonymous": false,
      "inputs": [
        {
          "indexed": true,
          "internalType": "address",
          "name": "previousOwner",
          "type": "address"
        },
        {
          "indexed": true,
          "internalType": "address",
          "name": "newOwner",
          "type": "address"
        }
      ],
      "name": "OwnershipTransferred",
      "type": "event"
    },
    {
      "anonymous": false,
      "inputs": [
        {
          "indexed": true,
          "internalType": "address",
          "name": "from",
          "type": "address"
        },
        {
          "indexed": true,
          "internalType": "address",
          "name": "to",
          "type": "address"
        },
        {
          "indexed": true,
          "internalType": "uint256",
          "name": "tokenId",
          "type": "uint256"
        }
      ],
      "name": "Transfer",
      "type": "event"
    },
    {
      "inputs": [
        {
          "internalType": "address",
          "name": "to",
          "type": "address"
        },
        {
          "internalType": "uint256",
          "name": "tokenId",
          "type": "uint256"
        }
      ],
      "name": "approve",
      "outputs": [],
      "stateMutability": "nonpayable",
      "type": "function"
    },
    {
      "inputs": [
        {
          "internalType": "address",
          "name": "owner",
          "type": "address"
        }
      ],
      "name": "balanceOf",
      "outputs": [
        {
          "internalType": "uint256",
          "name": "",
          "type": "uint256"
        }
      ],
      "stateMutability": "view",
      "type": "function"
    },
    {
      "inputs": [
        {
          "internalType": "uint8",
          "name": "contributionStart",
          "type": "uint8"
        },
        {
          "internalType": "uint8",
          "name": "n",
          "type": "uint8"
        }
      ],
      "name": "batchMint",
      "outputs": [],
      "stateMutability": "payable",
      "type": "function"
    },
    {
      "inputs": [],
      "name": "closeSales",
      "outputs": [],
      "stateMutability": "nonpayable",
      "type": "function"
    },
    {
      "inputs": [
        {
          "internalType": "uint256",
          "name": "futureBlockNumber",
          "type": "uint256"
        }
      ],
      "name": "commitRandao",
      "outputs": [],
      "stateMutability": "nonpayable",
      "type": "function"
    },
    {
      "inputs": [
        {
          "internalType": "bytes32",
          "name": "extcodehash",
          "type": "bytes32"
        }
      ],
      "name": "commitVerifier",
      "outputs": [],
      "stateMutability": "nonpayable",
      "type": "function"
    },
    {
      "inputs": [
        {
          "internalType": "uint256",
          "name": "tokenId",
          "type": "uint256"
        }
      ],
      "name": "getApproved",
      "outputs": [
        {
          "internalType": "address",
          "name": "",
          "type": "address"
        }
      ],
      "stateMutability": "view",
      "type": "function"
    },
    {
      "inputs": [
        {
          "internalType": "address",
          "name": "owner",
          "type": "address"
        },
        {
          "internalType": "address",
          "name": "operator",
          "type": "address"
        }
      ],
      "name": "isApprovedForAll",
      "outputs": [
        {
          "internalType": "bool",
          "name": "",
          "type": "bool"
        }
      ],
      "stateMutability": "view",
      "type": "function"
    },
    {
      "inputs": [
        {
          "internalType": "uint8",
          "name": "contribution",
          "type": "uint8"
        }
      ],
      "name": "mint",
      "outputs": [],
      "stateMutability": "payable",
      "type": "function"
    },
    {
      "inputs": [],
      "name": "mintCounter",
      "outputs": [
        {
          "internalType": "uint256",
          "name": "",
          "type": "uint256"
        }
      ],
      "stateMutability": "view",
      "type": "function"
    },
    {
      "inputs": [],
      "name": "name",
      "outputs": [
        {
          "internalType": "string",
          "name": "",
          "type": "string"
        }
      ],
      "stateMutability": "view",
      "type": "function"
    },
    {
      "inputs": [],
      "name": "owner",
      "outputs": [
        {
          "internalType": "address",
          "name": "",
          "type": "address"
        }
      ],
      "stateMutability": "view",
      "type": "function"
    },
    {
      "inputs": [
        {
          "internalType": "uint256",
          "name": "tokenId",
          "type": "uint256"
        }
      ],
      "name": "ownerOf",
      "outputs": [
        {
          "internalType": "address",
          "name": "",
          "type": "address"
        }
      ],
      "stateMutability": "view",
      "type": "function"
    },
    {
      "inputs": [],
      "name": "randaoBlockNumber",
      "outputs": [
        {
          "internalType": "uint256",
          "name": "",
          "type": "uint256"
        }
      ],
      "stateMutability": "view",
      "type": "function"
    },
    {
      "inputs": [],
      "name": "randaoRandomness",
      "outputs": [
        {
          "internalType": "uint256",
          "name": "",
          "type": "uint256"
        }
      ],
      "stateMutability": "view",
      "type": "function"
    },
    {
      "inputs": [],
      "name": "renounceOwnership",
      "outputs": [],
      "stateMutability": "nonpayable",
      "type": "function"
    },
    {
      "inputs": [],
      "name": "revealRandao",
      "outputs": [],
      "stateMutability": "nonpayable",
      "type": "function"
    },
    {
      "inputs": [
        {
          "internalType": "uint256",
          "name": "randomness",
          "type": "uint256"
        }
      ],
      "name": "revealRandaoForTest",
      "outputs": [],
      "stateMutability": "nonpayable",
      "type": "function"
    },
    {
      "inputs": [
        {
          "internalType": "address",
          "name": "addr",
          "type": "address"
        }
      ],
      "name": "revealVerifier",
      "outputs": [],
      "stateMutability": "nonpayable",
      "type": "function"
    },
    {
      "inputs": [
        {
          "internalType": "address",
          "name": "from",
          "type": "address"
        },
        {
          "internalType": "address",
          "name": "to",
          "type": "address"
        },
        {
          "internalType": "uint256",
          "name": "tokenId",
          "type": "uint256"
        }
      ],
      "name": "safeTransferFrom",
      "outputs": [],
      "stateMutability": "nonpayable",
      "type": "function"
    },
    {
      "inputs": [
        {
          "internalType": "address",
          "name": "from",
          "type": "address"
        },
        {
          "internalType": "address",
          "name": "to",
          "type": "address"
        },
        {
          "internalType": "uint256",
          "name": "tokenId",
          "type": "uint256"
        },
        {
          "internalType": "bytes",
          "name": "data",
          "type": "bytes"
        }
      ],
      "name": "safeTransferFrom",
      "outputs": [],
      "stateMutability": "nonpayable",
      "type": "function"
    },
    {
      "inputs": [
        {
          "internalType": "address",
          "name": "operator",
          "type": "address"
        },
        {
          "internalType": "bool",
          "name": "approved",
          "type": "bool"
        }
      ],
      "name": "setApprovalForAll",
      "outputs": [],
      "stateMutability": "nonpayable",
      "type": "function"
    },
    {
      "inputs": [],
      "name": "stage",
      "outputs": [
        {
          "internalType": "uint8",
          "name": "",
          "type": "uint8"
        }
      ],
      "stateMutability": "view",
      "type": "function"
    },
    {
      "inputs": [
        {
          "internalType": "bytes4",
          "name": "interfaceId",
          "type": "bytes4"
        }
      ],
      "name": "supportsInterface",
      "outputs": [
        {
          "internalType": "bool",
          "name": "",
          "type": "bool"
        }
      ],
      "stateMutability": "view",
      "type": "function"
    },
    {
      "inputs": [],
      "name": "symbol",
      "outputs": [
        {
          "internalType": "string",
          "name": "",
          "type": "string"
        }
      ],
      "stateMutability": "view",
      "type": "function"
    },
    {
      "inputs": [
        {
          "internalType": "uint256",
          "name": "tokenId",
          "type": "uint256"
        }
      ],
      "name": "tokenURI",
      "outputs": [
        {
          "internalType": "string",
          "name": "ret",
          "type": "string"
        }
      ],
      "stateMutability": "view",
      "type": "function"
    },
    {
      "inputs": [
        {
          "internalType": "address",
          "name": "from",
          "type": "address"
        },
        {
          "internalType": "address",
          "name": "to",
          "type": "address"
        },
        {
          "internalType": "uint256",
          "name": "tokenId",
          "type": "uint256"
        }
      ],
      "name": "transferFrom",
      "outputs": [],
      "stateMutability": "nonpayable",
      "type": "function"
    },
    {
      "inputs": [
        {
          "internalType": "address",
          "name": "newOwner",
          "type": "address"
        }
      ],
      "name": "transferOwnership",
      "outputs": [],
      "stateMutability": "nonpayable",
      "type": "function"
    },
    {
      "inputs": [
        {
          "internalType": "bytes",
          "name": "data",
          "type": "bytes"
        }
      ],
      "name": "unlock",
      "outputs": [],
      "stateMutability": "nonpayable",
      "type": "function"
    },
    {
      "inputs": [],
      "name": "userContributeSwapTimes",
      "outputs": [
        {
          "internalType": "uint256",
          "name": "",
          "type": "uint256"
        }
      ],
      "stateMutability": "view",
      "type": "function"
    },
    {
      "inputs": [],
      "name": "verifier",
      "outputs": [
        {
          "internalType": "address",
          "name": "",
          "type": "address"
        }
      ],
      "stateMutability": "view",
      "type": "function"
    },
    {
      "inputs": [],
      "name": "verifierCodeHash",
      "outputs": [
        {
          "internalType": "bytes32",
          "name": "",
          "type": "bytes32"
        }
      ],
      "stateMutability": "view",
      "type": "function"
    },
    {
      "inputs": [
        {
          "internalType": "uint256[2]",
          "name": "pA",
          "type": "uint256[2]"
        },
        {
          "internalType": "uint256[2][2]",
          "name": "pB",
          "type": "uint256[2][2]"
        },
        {
          "internalType": "uint256[2]",
          "name": "pC",
          "type": "uint256[2]"
        },
        {
          "internalType": "uint256",
          "name": "extraRounds",
          "type": "uint256"
        },
        {
          "internalType": "uint256[50]",
          "name": "originArray",
          "type": "uint256[50]"
        },
        {
          "internalType": "uint256[50]",
          "name": "afterShuffleArray",
          "type": "uint256[50]"
        }
      ],
      "name": "verify",
      "outputs": [
        {
          "internalType": "bool",
          "name": "",
          "type": "bool"
        }
      ],
      "stateMutability": "view",
      "type": "function"
    }
  ],
  "bytecode": {
    "object": "0x60806040523480156200001157600080fd5b5060405162001fb438038062001fb4833981016040819052620000349162000149565b604080518082018252600781526644454d4f44415960c81b6020808301919091528251808401909352600483526344454d4f60e01b9083015290826001600160a01b0381166200009e57604051631e4fbdf760e01b81526000600482015260240160405180910390fd5b620000a981620000e3565b506001620000b8838262000220565b506002620000c7828262000220565b505050620000dc60016200013360201b60201c565b50620002ec565b600080546001600160a01b038381166001600160a01b0319831681178455604051919092169283917f8be0079c531659141344cd1fd0a4f28419497f9722a3daafe3b4186f6b6457e09190a35050565b6007805460ff191660ff92909216919091179055565b6000602082840312156200015c57600080fd5b81516001600160a01b03811681146200017457600080fd5b9392505050565b634e487b7160e01b600052604160045260246000fd5b600181811c90821680620001a657607f821691505b602082108103620001c757634e487b7160e01b600052602260045260246000fd5b50919050565b601f8211156200021b57600081815260208120601f850160051c81016020861015620001f65750805b601f850160051c820191505b81811015620002175782815560010162000202565b5050505b505050565b81516001600160401b038111156200023c576200023c6200017b565b62000254816200024d845462000191565b84620001cd565b602080601f8311600181146200028c5760008415620002735750858301515b600019600386901b1c1916600185901b17855562000217565b600085815260208120601f198616915b82811015620002bd578886015182559484019460019091019084016200029c565b5085821015620002dc5787850151600019600388901b60f8161c191681555b5050505050600190811b01905550565b611cb880620002fc6000396000f3fe6080604052600436106101ee5760003560e01c8063775a75de1161010d578063bd970a65116100a0578063d6bc2f3b1161006f578063d6bc2f3b14610543578063e985e9c514610563578063f2fde38b14610583578063f7178ac6146105a3578063fa58399c146105b857600080fd5b8063bd970a65146104bc578063bed84fb7146104dc578063c040e6b8146104fc578063c87b56dd1461052357600080fd5b8063a22cb465116100dc578063a22cb46514610447578063a686f2f914610467578063b88d4fde14610487578063b8f02be8146104a757600080fd5b8063775a75de146103ec5780638927bdd6146104015780638da5cb5b1461041457806395d89b411461043257600080fd5b806346aa52ce1161018557806364ef40cd1161015457806364ef40cd1461038f5780636ecd2306146103a457806370a08231146103b7578063715018a6146103d757600080fd5b806346aa52ce1461031757806348c894911461033a578063598b49e11461035a5780636352211e1461036f57600080fd5b806315a8f073116101c157806315a8f073146102a457806323b872dd146102b95780632b7ac3f3146102d957806342842e0e146102f757600080fd5b806301ffc9a7146101f357806306fdde0314610228578063081812fc1461024a578063095ea7b314610282575b600080fd5b3480156101ff57600080fd5b5061021361020e366004611649565b6105d8565b60405190151581526020015b60405180910390f35b34801561023457600080fd5b5061023d61062a565b60405161021f91906116b3565b34801561025657600080fd5b5061026a6102653660046116c6565b6106bc565b6040516001600160a01b03909116815260200161021f565b34801561028e57600080fd5b506102a261029d3660046116fb565b6106e5565b005b3480156102b057600080fd5b506102a26106f4565b3480156102c557600080fd5b506102a26102d4366004611725565b61071d565b3480156102e557600080fd5b50600b546001600160a01b031661026a565b34801561030357600080fd5b506102a2610312366004611725565b6107ad565b34801561032357600080fd5b5061032c6107cd565b60405190815260200161021f565b34801561034657600080fd5b506102a2610355366004611761565b6107dd565b34801561036657600080fd5b5060095461032c565b34801561037b57600080fd5b5061026a61038a3660046116c6565b610862565b34801561039b57600080fd5b50600a5461032c565b6102a26103b23660046117e4565b61086d565b3480156103c357600080fd5b5061032c6103d23660046117ff565b6108ad565b3480156103e357600080fd5b506102a26108f5565b3480156103f857600080fd5b506102a2610909565b6102a261040f36600461181a565b610995565b34801561042057600080fd5b506000546001600160a01b031661026a565b34801561043e57600080fd5b5061023d6109ff565b34801561045357600080fd5b506102a261046236600461185b565b610a0e565b34801561047357600080fd5b506102a26104823660046116c6565b610a19565b34801561049357600080fd5b506102a26104a23660046118a8565b610a4c565b3480156104b357600080fd5b50600d5461032c565b3480156104c857600080fd5b506102a26104d73660046116c6565b610a63565b3480156104e857600080fd5b506102a26104f73660046116c6565b610a9f565b34801561050857600080fd5b50610511610ad2565b60405160ff909116815260200161021f565b34801561052f57600080fd5b5061023d61053e3660046116c6565b610ae0565b34801561054f57600080fd5b506102a261055e3660046117ff565b610b4d565b34801561056f57600080fd5b5061021361057e366004611984565b610ca0565b34801561058f57600080fd5b506102a261059e3660046117ff565b610cce565b3480156105af57600080fd5b50600c5461032c565b3480156105c457600080fd5b506102136105d33660046119d1565b610d09565b60006001600160e01b031982166380ac58cd60e01b148061060957506001600160e01b03198216635b5e139f60e01b145b8061062457506301ffc9a760e01b6001600160e01b03198316145b92915050565b60606001805461063990611a4d565b80601f016020809104026020016040519081016040528092919081815260200182805461066590611a4d565b80156106b25780601f10610687576101008083540402835291602001916106b2565b820191906000526020600020905b81548152906001019060200180831161069557829003601f168201915b5050505050905090565b60006106c782610e3a565b506000828152600560205260409020546001600160a01b0316610624565b6106f0828233610e73565b5050565b6106fc610e80565b60075460029060ff16811461071057600080fd5b61071a6003610ead565b50565b6001600160a01b03821661074c57604051633250574960e11b8152600060048201526024015b60405180910390fd5b6000610759838333610ec3565b9050836001600160a01b0316816001600160a01b0316146107a7576040516364283d7b60e01b81526001600160a01b0380861660048301526024820184905282166044820152606401610743565b50505050565b6107c883838360405180602001604052806000815250610a4c565b505050565b60006107d860085490565b905090565b6107e5610e80565b60075460049060ff1681146107f957600080fd5b61083883838080601f016020809104026020016040519081016040528093929190818152602001838380828437600092019190915250610fbc92505050565b600e80546001600160a01b0319166001600160a01b03929092169190911790556107c86005610ead565b600061062482610e3a565b60075460029060ff16811461088157600080fd5b61089b33610896600880546001019081905590565b611005565b50600d805460ff909216919091019055565b60006001600160a01b0382166108d9576040516322718ad960e21b815260006004820152602401610743565b506001600160a01b031660009081526004602052604090205490565b6108fd610e80565b610907600061101f565b565b610911610e80565b60075460039060ff16811461092557600080fd5b60095443116109765760405162461bcd60e51b815260206004820152601e60248201527f72657665616c2072616e646f6d6e65737320696e206c6f636b2074696d6500006044820152606401610743565b44600a55600b546001600160a01b03161561071a5761071a6004610ead565b60075460029060ff1681146109a957600080fd5b8260005b8360ff168110156109f8576109cd33610896600880546001019081905590565b600d805460ff8416019055816109e281611a9d565b92505080806109f090611abc565b9150506109ad565b5050505050565b60606002805461063990611a4d565b6106f033838361106f565b610a21610e80565b60075460019060ff168114610a3557600080fd5b6009829055600c54156106f0576106f06002610ead565b610a5784848461071d565b6107a78484848461110e565b610a6b610e80565b60075460039060ff168114610a7f57600080fd5b600a829055600b546001600160a01b0316156106f0576106f06004610ead565b610aa7610e80565b60075460019060ff168114610abb57600080fd5b600c829055600954156106f0576106f06002610ead565b60006107d860075460ff1690565b60606000610aef600184611ad5565b610afa906020611ae8565b90506000610b09826020611aff565b600e54909150600090610b26906001600160a01b03168484611230565b806020019051810190610b399190611b12565b9050610b4481611296565b95945050505050565b610b55610e80565b60075460039060ff168114610b6957600080fd5b610ba0604051806040016040528060158152602001743932bb32b0b62b32b934b334b2b91d1030b232391d60591b815250836112da565b610bde6040518060400160405280601e81526020017f72657665616c56657269666965723a20616464722e636f6465686173683a000081525061131f565b610bf1826001600160a01b03163f611362565b610c2f6040518060400160405280601e81526020017f72657665616c56657269666965723a205f7665726966696572486173683a000081525061131f565b610c3a600c54611362565b610c5b604051806060016040528060328152602001611c516032913961131f565b600c54826001600160a01b03163f14610c7357600080fd5b600b80546001600160a01b0319166001600160a01b038416179055600a54156106f0576106f06004610ead565b6001600160a01b03918216600090815260066020908152604080832093909416825291909152205460ff1690565b610cd6610e80565b6001600160a01b038116610d0057604051631e4fbdf760e01b815260006004820152602401610743565b61071a8161101f565b60006032610d15611614565b600a5481526020810186905260026000610d30826032611aff565b905060005b84811015610db357878160328110610d4f57610d4f611b2b565b602002013584610d5f8386611aff565b60668110610d6f57610d6f611b2b565b6020020152868160328110610d8657610d86611b2b565b602002013584610d968385611aff565b60668110610da657610da6611b2b565b6020020152600101610d35565b5050600b546040516304e8305f60e31b81526001600160a01b03909116915063274182f890610dec908c908c908c908790600401611b41565b602060405180830381865afa158015610e09573d6000803e3d6000fd5b505050506040513d601f19601f82011682018060405250810190610e2d9190611baf565b9998505050505050505050565b6000818152600360205260408120546001600160a01b03168061062457604051637e27328960e01b815260048101849052602401610743565b6107c883838360016113a7565b6000546001600160a01b031633146109075760405163118cdaa760e01b8152336004820152602401610743565b6007805460ff191660ff92909216919091179055565b6000828152600360205260408120546001600160a01b0390811690831615610ef057610ef08184866114ad565b6001600160a01b03811615610f2e57610f0d6000856000806113a7565b6001600160a01b038116600090815260046020526040902080546000190190555b6001600160a01b03851615610f5d576001600160a01b0385166000908152600460205260409020805460010190555b60008481526003602052604080822080546001600160a01b0319166001600160a01b0389811691821790925591518793918516917fddf252ad1be2c89b69c2b068fc378daa952ba7f163c4a11628f55a4df523b3ef91a4949350505050565b60008151600181018060401b6bfd61000080600a3d393df3001761ffff8211850152600a8101601585016000f092505081610fff5763301164256000526004601cfd5b90915290565b6106f0828260405180602001604052806000815250611511565b600080546001600160a01b038381166001600160a01b0319831681178455604051919092169283917f8be0079c531659141344cd1fd0a4f28419497f9722a3daafe3b4186f6b6457e09190a35050565b6001600160a01b0382166110a157604051630b61174360e31b81526001600160a01b0383166004820152602401610743565b6001600160a01b03838116600081815260066020908152604080832094871680845294825291829020805460ff191686151590811790915591519182527f17307eab39ab6107e8899845ad3d59bd9653f200f220920489ca2b5937696c31910160405180910390a3505050565b6001600160a01b0383163b156107a757604051630a85bd0160e11b81526001600160a01b0384169063150b7a0290611150903390889087908790600401611bcc565b6020604051808303816000875af192505050801561118b575060408051601f3d908101601f1916820190925261118891810190611c09565b60015b6111f4573d8080156111b9576040519150601f19603f3d011682016040523d82523d6000602084013e6111be565b606091505b5080516000036111ec57604051633250574960e11b81526001600160a01b0385166004820152602401610743565b805181602001fd5b6001600160e01b03198116630a85bd0160e11b146109f857604051633250574960e11b81526001600160a01b0385166004820152602401610743565b6060833b80611247576311052bb46000526004601cfd5b8284111583821116611261576384eb0dd16000526004601cfd5b50828203604051915061ffe0603f8201168201604052808252600081602084010152806001850160208401873c509392505050565b60606080604051019050602081016040526000815280600019835b928101926030600a8206018453600a9004806112b1575050819003601f19909101908152919050565b6106f082826040516024016112f0929190611c26565b60408051601f198184030181529190526020810180516001600160e01b031663319af33360e01b179052611528565b61071a8160405160240161133391906116b3565b60408051601f198184030181529190526020810180516001600160e01b031663104c13eb60e21b179052611528565b61071a8160405160240161137891815260200190565b60408051601f198184030181529190526020810180516001600160e01b03166327b7cf8560e01b179052611528565b80806113bb57506001600160a01b03821615155b1561147d5760006113cb84610e3a565b90506001600160a01b038316158015906113f75750826001600160a01b0316816001600160a01b031614155b801561140a57506114088184610ca0565b155b156114335760405163a9fbf51f60e01b81526001600160a01b0384166004820152602401610743565b811561147b5783856001600160a01b0316826001600160a01b03167f8c5be1e5ebec7d5bd14f71427d1e84f3dd0314c0f7b2291e5b200ac8c7c3b92560405160405180910390a45b505b5050600090815260056020526040902080546001600160a01b0319166001600160a01b0392909216919091179055565b6114b8838383611549565b6107c8576001600160a01b0383166114e657604051637e27328960e01b815260048101829052602401610743565b60405163177e802f60e01b81526001600160a01b038316600482015260248101829052604401610743565b61151b83836115af565b6107c8600084848461110e565b80516a636f6e736f6c652e6c6f67602083016000808483855afa5050505050565b60006001600160a01b038316158015906115a75750826001600160a01b0316846001600160a01b0316148061158357506115838484610ca0565b806115a757506000828152600560205260409020546001600160a01b038481169116145b949350505050565b6001600160a01b0382166115d957604051633250574960e11b815260006004820152602401610743565b60006115e783836000610ec3565b90506001600160a01b038116156107c8576040516339e3563760e11b815260006004820152602401610743565b60405180610cc001604052806066906020820280368337509192915050565b6001600160e01b03198116811461071a57600080fd5b60006020828403121561165b57600080fd5b813561166681611633565b9392505050565b6000815180845260005b8181101561169357602081850181015186830182015201611677565b506000602082860101526020601f19601f83011685010191505092915050565b602081526000611666602083018461166d565b6000602082840312156116d857600080fd5b5035919050565b80356001600160a01b03811681146116f657600080fd5b919050565b6000806040838503121561170e57600080fd5b611717836116df565b946020939093013593505050565b60008060006060848603121561173a57600080fd5b611743846116df565b9250611751602085016116df565b9150604084013590509250925092565b6000806020838503121561177457600080fd5b823567ffffffffffffffff8082111561178c57600080fd5b818501915085601f8301126117a057600080fd5b8135818111156117af57600080fd5b8660208285010111156117c157600080fd5b60209290920196919550909350505050565b803560ff811681146116f657600080fd5b6000602082840312156117f657600080fd5b611666826117d3565b60006020828403121561181157600080fd5b611666826116df565b6000806040838503121561182d57600080fd5b611836836117d3565b9150611844602084016117d3565b90509250929050565b801515811461071a57600080fd5b6000806040838503121561186e57600080fd5b611877836116df565b915060208301356118878161184d565b809150509250929050565b634e487b7160e01b600052604160045260246000fd5b600080600080608085870312156118be57600080fd5b6118c7856116df565b93506118d5602086016116df565b925060408501359150606085013567ffffffffffffffff808211156118f957600080fd5b818701915087601f83011261190d57600080fd5b81358181111561191f5761191f611892565b604051601f8201601f19908116603f0116810190838211818310171561194757611947611892565b816040528281528a602084870101111561196057600080fd5b82602086016020830137600060208483010152809550505050505092959194509250565b6000806040838503121561199757600080fd5b6119a0836116df565b9150611844602084016116df565b806040810183101561062457600080fd5b80610640810183101561062457600080fd5b600080600080600080610da087890312156119eb57600080fd5b6119f588886119ae565b955060c0870188811115611a0857600080fd5b604088019550611a1889826119ae565b9450506101008701359250611a318861012089016119bf565b9150611a418861076089016119bf565b90509295509295509295565b600181811c90821680611a6157607f821691505b602082108103611a8157634e487b7160e01b600052602260045260246000fd5b50919050565b634e487b7160e01b600052601160045260246000fd5b600060ff821660ff8103611ab357611ab3611a87565b60010192915050565b600060018201611ace57611ace611a87565b5060010190565b8181038181111561062457610624611a87565b808202811582820484141761062457610624611a87565b8082018082111561062457610624611a87565b600060208284031215611b2457600080fd5b5051919050565b634e487b7160e01b600052603260045260246000fd5b610dc081016040808784378083018660005b6002811015611b7057838284379183019190830190600101611b53565b505050808560c08501375061010082018360005b6066811015611ba3578151835260209283019290910190600101611b84565b50505095945050505050565b600060208284031215611bc157600080fd5b81516116668161184d565b6001600160a01b0385811682528416602082015260408101839052608060608201819052600090611bff9083018461166d565b9695505050505050565b600060208284031215611c1b57600080fd5b815161166681611633565b604081526000611c39604083018561166d565b905060018060a01b0383166020830152939250505056fe72657665616c56657269666965723a2070726520616464722e636f646568617368203d3d205f766572696669657248617368a26469706673582212207e3b7a56dc79bf2cc3071457baf5137ce188423ea47bf2d9edc4e656dcabc8d164736f6c63430008150033",
    "linkReferences": {}
  },
  "methodIdentifiers": {
    "approve(address,uint256)": "095ea7b3",
    "balanceOf(address)": "70a08231",
    "batchMint(uint8,uint8)": "8927bdd6",
    "closeSales()": "15a8f073",
    "commitRandao(uint256)": "a686f2f9",
    "commitVerifier(bytes32)": "bed84fb7",
    "getApproved(uint256)": "081812fc",
    "isApprovedForAll(address,address)": "e985e9c5",
    "mint(uint8)": "6ecd2306",
    "mintCounter()": "46aa52ce",
    "name()": "06fdde03",
    "owner()": "8da5cb5b",
    "ownerOf(uint256)": "6352211e",
    "randaoBlockNumber()": "598b49e1",
    "randaoRandomness()": "64ef40cd",
    "renounceOwnership()": "715018a6",
    "revealRandao()": "775a75de",
    "revealRandaoForTest(uint256)": "bd970a65",
    "revealVerifier(address)": "d6bc2f3b",
    "safeTransferFrom(address,address,uint256)": "42842e0e",
    "safeTransferFrom(address,address,uint256,bytes)": "b88d4fde",
    "setApprovalForAll(address,bool)": "a22cb465",
    "stage()": "c040e6b8",
    "supportsInterface(bytes4)": "01ffc9a7",
    "symbol()": "95d89b41",
    "tokenURI(uint256)": "c87b56dd",
    "transferFrom(address,address,uint256)": "23b872dd",
    "transferOwnership(address)": "f2fde38b",
    "unlock(bytes)": "48c89491",
    "userContributeSwapTimes()": "b8f02be8",
    "verifier()": "2b7ac3f3",
    "verifierCodeHash()": "f7178ac6",
    "verify(uint256[2],uint256[2][2],uint256[2],uint256,uint256[50],uint256[50])": "fa58399c"
  },
  "id": 38
}